{
  "address": "0x18350648AE02721F0F002417C6f9D4251584D431",
  "abi": [
    {
      "inputs": [
        {
          "internalType": "address",
          "name": "_principle",
          "type": "address"
        }
      ],
      "name": "InvalidPrinciple",
      "type": "error"
    },
    {
      "anonymous": false,
      "inputs": [
        {
          "indexed": false,
          "internalType": "uint256",
          "name": "deposit",
          "type": "uint256"
        },
        {
          "indexed": true,
          "internalType": "uint256",
          "name": "payout",
          "type": "uint256"
        },
        {
          "indexed": true,
          "internalType": "uint256",
          "name": "expires",
          "type": "uint256"
        },
        {
          "indexed": true,
          "internalType": "uint256",
          "name": "priceInUSD",
          "type": "uint256"
        }
      ],
      "name": "BondCreated",
      "type": "event"
    },
    {
      "anonymous": false,
      "inputs": [
        {
          "indexed": true,
          "internalType": "uint256",
          "name": "priceInUSD",
          "type": "uint256"
        },
        {
          "indexed": true,
          "internalType": "uint256",
          "name": "internalPrice",
          "type": "uint256"
        },
        {
          "indexed": true,
          "internalType": "uint256",
          "name": "debtRatio",
          "type": "uint256"
        }
      ],
      "name": "BondPriceChanged",
      "type": "event"
    },
    {
      "anonymous": false,
      "inputs": [
        {
          "indexed": true,
          "internalType": "address",
          "name": "recipient",
          "type": "address"
        },
        {
          "indexed": false,
          "internalType": "uint256",
          "name": "payout",
          "type": "uint256"
        },
        {
          "indexed": false,
          "internalType": "uint256",
          "name": "remaining",
          "type": "uint256"
        }
      ],
      "name": "BondRedeemed",
      "type": "event"
    },
    {
      "anonymous": false,
      "inputs": [
        {
          "indexed": false,
          "internalType": "uint256",
          "name": "initialBCV",
          "type": "uint256"
        },
        {
          "indexed": false,
          "internalType": "uint256",
          "name": "newBCV",
          "type": "uint256"
        },
        {
          "indexed": false,
          "internalType": "uint256",
          "name": "adjustment",
          "type": "uint256"
        },
        {
          "indexed": false,
          "internalType": "bool",
          "name": "addition",
          "type": "bool"
        }
      ],
      "name": "ControlVariableAdjustment",
      "type": "event"
    },
    {
      "inputs": [
        {
          "internalType": "address",
          "name": "_principle",
          "type": "address"
        }
      ],
      "name": "BCV",
      "outputs": [
        {
          "internalType": "uint256",
          "name": "BCV_",
          "type": "uint256"
        }
      ],
      "stateMutability": "view",
      "type": "function"
    },
    {
      "inputs": [
        {
          "internalType": "address",
          "name": "_principle",
          "type": "address"
        }
      ],
      "name": "assetPrice",
      "outputs": [
        {
          "internalType": "int256",
          "name": "",
          "type": "int256"
        }
      ],
      "stateMutability": "view",
      "type": "function"
    },
    {
      "inputs": [
        {
          "internalType": "address",
          "name": "_depositor",
          "type": "address"
        },
        {
          "internalType": "address",
          "name": "_principle",
          "type": "address"
        }
      ],
      "name": "bondInfo",
      "outputs": [
        {
          "components": [
            {
              "internalType": "uint256",
              "name": "payout",
              "type": "uint256"
            },
            {
              "internalType": "uint256",
              "name": "pricePaid",
              "type": "uint256"
            },
            {
              "internalType": "uint256",
              "name": "lastTime",
              "type": "uint256"
            },
            {
              "internalType": "uint256",
              "name": "vesting",
              "type": "uint256"
            }
          ],
          "internalType": "struct LibBondStorage.Bond",
          "name": "",
          "type": "tuple"
        }
      ],
      "stateMutability": "view",
      "type": "function"
    },
    {
      "inputs": [
        {
          "internalType": "address",
          "name": "_principle",
          "type": "address"
        }
      ],
      "name": "bondPrice",
      "outputs": [
        {
          "internalType": "uint256",
          "name": "price_",
          "type": "uint256"
        }
      ],
      "stateMutability": "view",
      "type": "function"
    },
    {
      "inputs": [
        {
          "internalType": "address",
          "name": "_principle",
          "type": "address"
        }
      ],
      "name": "bondPriceInUSD",
      "outputs": [
        {
          "internalType": "uint256",
          "name": "price_",
          "type": "uint256"
        }
      ],
      "stateMutability": "view",
      "type": "function"
    },
    {
      "inputs": [
        {
          "internalType": "address",
          "name": "_principle",
          "type": "address"
        }
      ],
      "name": "currentDebt",
      "outputs": [
        {
          "internalType": "uint256",
          "name": "",
          "type": "uint256"
        }
      ],
      "stateMutability": "view",
      "type": "function"
    },
    {
      "inputs": [
        {
          "internalType": "address",
          "name": "_principle",
          "type": "address"
        }
      ],
      "name": "debtDecay",
      "outputs": [
        {
          "internalType": "uint256",
          "name": "decay_",
          "type": "uint256"
        }
      ],
      "stateMutability": "view",
      "type": "function"
    },
    {
      "inputs": [
        {
          "internalType": "address",
          "name": "_principle",
          "type": "address"
        }
      ],
      "name": "debtRatio",
      "outputs": [
        {
          "internalType": "uint256",
          "name": "debtRatio_",
          "type": "uint256"
        }
      ],
      "stateMutability": "view",
      "type": "function"
    },
    {
      "inputs": [
        {
          "internalType": "uint256",
          "name": "_amount",
          "type": "uint256"
        },
        {
          "internalType": "uint256",
          "name": "_maxPrice",
          "type": "uint256"
        },
        {
          "internalType": "address",
          "name": "_depositor",
          "type": "address"
        },
        {
          "internalType": "address",
          "name": "_principle",
          "type": "address"
        }
      ],
      "name": "deposit",
      "outputs": [
        {
          "internalType": "uint256",
          "name": "",
          "type": "uint256"
        }
      ],
      "stateMutability": "nonpayable",
      "type": "function"
    },
    {
      "inputs": [
        {
          "internalType": "address",
          "name": "_principle",
          "type": "address"
        }
      ],
      "name": "maxPayout",
      "outputs": [
        {
          "internalType": "uint256",
          "name": "",
          "type": "uint256"
        }
      ],
      "stateMutability": "view",
      "type": "function"
    },
    {
      "inputs": [
        {
          "internalType": "uint256",
          "name": "_value",
          "type": "uint256"
        },
        {
          "internalType": "address",
          "name": "_principle",
          "type": "address"
        }
      ],
      "name": "payoutFor",
      "outputs": [
        {
          "internalType": "uint256",
          "name": "",
          "type": "uint256"
        }
      ],
      "stateMutability": "view",
      "type": "function"
    },
    {
      "inputs": [
        {
          "internalType": "address",
          "name": "_depositor",
          "type": "address"
        },
        {
          "internalType": "address",
          "name": "_principle",
          "type": "address"
        }
      ],
      "name": "pendingPayoutFor",
      "outputs": [
        {
          "internalType": "uint256",
          "name": "pendingPayout_",
          "type": "uint256"
        }
      ],
      "stateMutability": "view",
      "type": "function"
    },
    {
      "inputs": [
        {
          "internalType": "address",
          "name": "_depositor",
          "type": "address"
        },
        {
          "internalType": "address",
          "name": "_principle",
          "type": "address"
        }
      ],
      "name": "percentVestedFor",
      "outputs": [
        {
          "internalType": "uint256",
          "name": "percentVested_",
          "type": "uint256"
        }
      ],
      "stateMutability": "view",
      "type": "function"
    },
    {
      "inputs": [
        {
          "internalType": "address",
          "name": "_recipient",
          "type": "address"
        },
        {
          "internalType": "address",
          "name": "_principle",
          "type": "address"
        }
      ],
      "name": "redeem",
      "outputs": [
        {
          "internalType": "uint256",
          "name": "",
          "type": "uint256"
        }
      ],
      "stateMutability": "nonpayable",
      "type": "function"
    },
    {
      "inputs": [
        {
          "internalType": "address",
          "name": "_principle",
          "type": "address"
        }
      ],
      "name": "standardizedDebtRatio",
      "outputs": [
        {
          "internalType": "uint256",
          "name": "",
          "type": "uint256"
        }
      ],
      "stateMutability": "view",
      "type": "function"
    },
    {
      "inputs": [
        {
          "internalType": "address",
          "name": "_principle",
          "type": "address"
        }
      ],
      "name": "terms",
      "outputs": [
        {
          "components": [
            {
              "internalType": "uint256",
              "name": "controlVariable",
              "type": "uint256"
            },
            {
              "internalType": "uint256",
              "name": "minimumPrice",
              "type": "uint256"
            },
            {
              "internalType": "uint256",
              "name": "maxPayout",
              "type": "uint256"
            },
            {
              "internalType": "uint256",
              "name": "fee",
              "type": "uint256"
            },
            {
              "internalType": "uint256",
              "name": "maxDebt",
              "type": "uint256"
            },
            {
              "internalType": "uint256",
              "name": "vestingTerm",
              "type": "uint256"
            },
            {
              "internalType": "bool",
              "name": "isLiquidityBond",
              "type": "bool"
            }
          ],
          "internalType": "struct LibBondStorage.Terms",
          "name": "",
          "type": "tuple"
        }
      ],
      "stateMutability": "view",
      "type": "function"
    }
  ],
  "transactionHash": "0xa7d22316e4fed0188454951e447e02aaeca8cec9a12ee7bb7ac1174c26f99731",
  "args": [],
  "solcInputHash": "560eb70d82ea09ac6b00109a4a55409a",
  "bytecode": "0x608060405234801561001057600080fd5b506142bf806100206000396000f3fe608060405234801561001057600080fd5b50600436106101005760003560e01c8063ad5fe5eb11610097578063c8c819ac11610066578063c8c819ac14610345578063dc1d35a214610375578063de8d9708146103a5578063e300e98b146103d557610100565b8063ad5fe5eb14610285578063b11512e2146102b5578063b883b058146102e5578063bba06f271461031557610100565b80636fcb5622116100d35780636fcb5622146101c557806384715b11146101f5578063884719f214610225578063aa5883451461025557610100565b80630523f1c3146101055780632ddc1465146101355780632f74f46114610165578063415d9f6514610195575b600080fd5b61011f600480360381019061011a9190613257565b610405565b60405161012c91906132a6565b60405180910390f35b61014f600480360381019061014a91906132c1565b61055c565b60405161015c91906132a6565b60405180910390f35b61017f600480360381019061017a91906132c1565b6106ff565b60405161018c91906132a6565b60405180910390f35b6101af60048036038101906101aa91906132ee565b6107e9565b6040516101bc91906132a6565b60405180910390f35b6101df60048036038101906101da91906132ee565b6108ae565b6040516101ec91906132a6565b60405180910390f35b61020f600480360381019061020a919061332e565b6109ba565b60405161021c91906132a6565b60405180910390f35b61023f600480360381019061023a91906132c1565b611489565b60405161024c91906132a6565b60405180910390f35b61026f600480360381019061026a91906132c1565b6114db565b60405161027c91906132a6565b60405180910390f35b61029f600480360381019061029a91906132ee565b6115c6565b6040516102ac91906133f9565b60405180910390f35b6102cf60048036038101906102ca91906132c1565b611675565b6040516102dc91906132a6565b60405180910390f35b6102ff60048036038101906102fa91906132c1565b611820565b60405161030c919061342d565b60405180910390f35b61032f600480360381019061032a91906132ee565b6118ef565b60405161033c91906132a6565b60405180910390f35b61035f600480360381019061035a91906132c1565b611c5c565b60405161036c91906134f1565b60405180910390f35b61038f600480360381019061038a91906132c1565b611cfc565b60405161039c91906132a6565b60405180910390f35b6103bf60048036038101906103ba91906132c1565b611f3b565b6040516103cc91906132a6565b60405180910390f35b6103ef60048036038101906103ea91906132c1565b612016565b6040516103fc91906132a6565b60405180910390f35b60008061041c83600061210a90919063ffffffff16565b90506000600a01600082815260200190815260200160002060060160009054906101000a900460ff16156104855761047d662386f26fc1000061046f61046a8761046588611675565b61218c565b612393565b6123d190919063ffffffff16565b915050610556565b600060030160009054906101000a900473ffffffffffffffffffffffffffffffffffffffff1673ffffffffffffffffffffffffffffffffffffffff168373ffffffffffffffffffffffffffffffffffffffff16141561051957610511662386f26fc100006105036104fe876104f988611675565b61218c565b612393565b6123d190919063ffffffff16565b915050610556565b826040517fcacddcb300000000000000000000000000000000000000000000000000000000815260040161054d919061351b565b60405180910390fd5b92915050565b60008061057383600061210a90919063ffffffff16565b90506000600a01600082815260200190815260200160002060060160009054906101000a900460ff16156106535761064b633b9aca0061063d3073ffffffffffffffffffffffffffffffffffffffff166332da80a3876040518263ffffffff1660e01b81526004016105e5919061351b565b602060405180830381865afa158015610602573d6000803e3d6000fd5b505050506040513d601f19601f82011682018060405250810190610626919061354b565b61062f876106ff565b6123e790919063ffffffff16565b6123d190919063ffffffff16565b9150506106fa565b600060030160009054906101000a900473ffffffffffffffffffffffffffffffffffffffff1673ffffffffffffffffffffffffffffffffffffffff168373ffffffffffffffffffffffffffffffffffffffff1614156106bd576106b5836106ff565b9150506106fa565b826040517fcacddcb30000000000000000000000000000000000000000000000000000000081526004016106f1919061351b565b60405180910390fd5b919050565b6000806000800160009054906101000a900473ffffffffffffffffffffffffffffffffffffffff1673ffffffffffffffffffffffffffffffffffffffff166318160ddd6040518163ffffffff1660e01b8152600401602060405180830381865afa158015610771573d6000803e3d6000fd5b505050506040513d601f19601f82011682018060405250810190610795919061354b565b90506107e1670de0b6b3a76400006107d36107ce6107c8633b9aca006107ba89611489565b6123e790919063ffffffff16565b8561218c565b612393565b6123d190919063ffffffff16565b915050919050565b60008061080083600061210a90919063ffffffff16565b9050600061080e85856108ae565b9050600080600c0160008773ffffffffffffffffffffffffffffffffffffffff1673ffffffffffffffffffffffffffffffffffffffff1681526020019081526020016000206000848152602001908152602001600020600001549050612710821061087b578093506108a5565b6108a261271061089484846123e790919063ffffffff16565b6123d190919063ffffffff16565b93505b50505092915050565b6000806108c583600061210a90919063ffffffff16565b9050600080600c0160008673ffffffffffffffffffffffffffffffffffffffff1673ffffffffffffffffffffffffffffffffffffffff1681526020019081526020016000206000838152602001908152602001600020604051806080016040529081600082015481526020016001820154815260200160028201548152602001600382015481525050905060006109698260400151426123fd90919063ffffffff16565b905060008260600151905060008111156109ab576109a481610996612710856123e790919063ffffffff16565b6123d190919063ffffffff16565b94506109b0565b600094505b5050505092915050565b60008073ffffffffffffffffffffffffffffffffffffffff168373ffffffffffffffffffffffffffffffffffffffff161415610a2b576040517f08c379a0000000000000000000000000000000000000000000000000000000008152600401610a22906135d5565b60405180910390fd5b6000610a4183600061210a90919063ffffffff16565b9050610a4c83612413565b6000600a016000828152602001908152602001600020600401546000600d016000838152602001908152602001600020541115610abe576040517f08c379a0000000000000000000000000000000000000000000000000000000008152600401610ab590613641565b60405180910390fd5b6000610ac984611cfc565b90506000610ad685612495565b905080871015610b1b576040517f08c379a0000000000000000000000000000000000000000000000000000000008152600401610b12906136d3565b60405180910390fd5b60008060040160009054906101000a900473ffffffffffffffffffffffffffffffffffffffff1673ffffffffffffffffffffffffffffffffffffffff1663d1b317e5878b6040518363ffffffff1660e01b8152600401610b7c9291906136f3565b602060405180830381865afa158015610b99573d6000803e3d6000fd5b505050506040513d601f19601f82011682018060405250810190610bbd919061354b565b90506000610bcb8288610405565b905062989680811015610c13576040517f08c379a0000000000000000000000000000000000000000000000000000000008152600401610c0a90613768565b60405180910390fd5b610c1c87612016565b811115610c5e576040517f08c379a0000000000000000000000000000000000000000000000000000000008152600401610c55906137d4565b60405180910390fd5b6000610ca0612710610c926000600a0160008a815260200190815260200160002060030154856123e790919063ffffffff16565b6123d190919063ffffffff16565b90506000610cb783856123fd90919063ffffffff16565b9050600081111561125f57610cd582826123fd90919063ffffffff16565b90506000600a01600088815260200190815260200160002060060160009054906101000a900460ff1615610e7f57610d3033308e8c73ffffffffffffffffffffffffffffffffffffffff16612684909392919063ffffffff16565b8873ffffffffffffffffffffffffffffffffffffffff1663095ea7b3600060040160009054906101000a900473ffffffffffffffffffffffffffffffffffffffff168e6040518363ffffffff1660e01b8152600401610d909291906136f3565b6020604051808303816000875af1158015610daf573d6000803e3d6000fd5b505050506040513d601f19601f82011682018060405250810190610dd39190613820565b50600060040160009054906101000a900473ffffffffffffffffffffffffffffffffffffffff1673ffffffffffffffffffffffffffffffffffffffff1663bc157ac18d8b846040518463ffffffff1660e01b8152600401610e369392919061384d565b6020604051808303816000875af1158015610e55573d6000803e3d6000fd5b505050506040513d601f19601f82011682018060405250810190610e79919061354b565b50611092565b600060030160009054906101000a900473ffffffffffffffffffffffffffffffffffffffff1673ffffffffffffffffffffffffffffffffffffffff168973ffffffffffffffffffffffffffffffffffffffff16141561105457610f0533308e8c73ffffffffffffffffffffffffffffffffffffffff16612684909392919063ffffffff16565b8873ffffffffffffffffffffffffffffffffffffffff1663095ea7b3600060040160009054906101000a900473ffffffffffffffffffffffffffffffffffffffff168e6040518363ffffffff1660e01b8152600401610f659291906136f3565b6020604051808303816000875af1158015610f84573d6000803e3d6000fd5b505050506040513d601f19601f82011682018060405250810190610fa89190613820565b50600060040160009054906101000a900473ffffffffffffffffffffffffffffffffffffffff1673ffffffffffffffffffffffffffffffffffffffff1663bc157ac18d8b846040518463ffffffff1660e01b815260040161100b9392919061384d565b6020604051808303816000875af115801561102a573d6000803e3d6000fd5b505050506040513d601f19601f8201168201806040525081019061104e919061354b565b50611091565b886040517fcacddcb3000000000000000000000000000000000000000000000000000000008152600401611088919061351b565b60405180910390fd5b5b6000821461125e57600073ffffffffffffffffffffffffffffffffffffffff16600060050160009054906101000a900473ffffffffffffffffffffffffffffffffffffffff1673ffffffffffffffffffffffffffffffffffffffff161461116857611167600060050160009054906101000a900473ffffffffffffffffffffffffffffffffffffffff16836000800160009054906101000a900473ffffffffffffffffffffffffffffffffffffffff1673ffffffffffffffffffffffffffffffffffffffff1661270d9092919063ffffffff16565b5b600073ffffffffffffffffffffffffffffffffffffffff16600060060160009054906101000a900473ffffffffffffffffffffffffffffffffffffffff1673ffffffffffffffffffffffffffffffffffffffff161461125d5761125c600060060160009054906101000a900473ffffffffffffffffffffffffffffffffffffffff166112126127106112046064886123e790919063ffffffff16565b6123d190919063ffffffff16565b6000800160009054906101000a900473ffffffffffffffffffffffffffffffffffffffff1673ffffffffffffffffffffffffffffffffffffffff1661270d9092919063ffffffff16565b5b5b5b611288846000600d0160008a81526020019081526020016000205461279390919063ffffffff16565b6000600d016000898152602001908152602001600020819055506040518060800160405280611316856000600c0160008f73ffffffffffffffffffffffffffffffffffffffff1673ffffffffffffffffffffffffffffffffffffffff16815260200190815260200160002060008c81526020019081526020016000206000015461279390919063ffffffff16565b81526020018781526020014281526020016000600a0160008a8152602001908152602001600020600501548152506000600c0160008c73ffffffffffffffffffffffffffffffffffffffff1673ffffffffffffffffffffffffffffffffffffffff168152602001908152602001600020600089815260200190815260200160002060008201518160000155602082015181600101556040820151816002015560608201518160030155905050856113ef6000600a0160008a8152602001908152602001600020600501544261279390919063ffffffff16565b847f1fec6dc81f140574bf43f6b1e420ae1dd47928b9d57db8cbd7b8611063b85ae58f60405161141f91906132a6565b60405180910390a4611430896106ff565b6114398a612495565b6114428b611cfc565b7f375b221f40939bfd8f49723a17cf7bc6d576ebf72efe2cc3e991826f5b3f390a60405160405180910390a4611477896127a9565b82975050505050505050949350505050565b6000806114a083600061210a90919063ffffffff16565b90506114d36114ae84611f3b565b6000600d016000848152602001908152602001600020546123fd90919063ffffffff16565b915050919050565b6000806114f283600061210a90919063ffffffff16565b9050600080600b0160008381526020019081526020016000209050600061151885612975565b90508160000160009054906101000a900460ff16156115645761155d816000600a0160008681526020019081526020016000206000015461279390919063ffffffff16565b93506115be565b806000600a0160008581526020019081526020016000206000015411156115b8576115b1816000600a016000868152602001908152602001600020600001546123fd90919063ffffffff16565b93506115bd565b600193505b5b505050919050565b6115ce613126565b60006115e483600061210a90919063ffffffff16565b90506000600c0160008573ffffffffffffffffffffffffffffffffffffffff1673ffffffffffffffffffffffffffffffffffffffff168152602001908152602001600020600082815260200190815260200160002060405180608001604052908160008201548152602001600182015481526020016002820154815260200160038201548152505091505092915050565b60008061168c83600061210a90919063ffffffff16565b90506000600a01600082815260200190815260200160002060060160009054906101000a900460ff1615611720576117196298968061170b633b9aca006116fd6116d5886106ff565b6000600a016000888152602001908152602001600020600001546123e790919063ffffffff16565b61279390919063ffffffff16565b6123d190919063ffffffff16565b91506117dc565b600060030160009054906101000a900473ffffffffffffffffffffffffffffffffffffffff1673ffffffffffffffffffffffffffffffffffffffff168373ffffffffffffffffffffffffffffffffffffffff1614156117db576117d8629896806117ca633b9aca006117bc611794886106ff565b6000600a016000888152602001908152602001600020600001546123e790919063ffffffff16565b61279390919063ffffffff16565b6123d190919063ffffffff16565b91505b5b6000600a0160008281526020019081526020016000206001015482101561181a576000600a0160008281526020019081526020016000206001015491505b50919050565b60008061183783600061210a90919063ffffffff16565b9050600080601001600083815260200190815260200160002060009054906101000a900473ffffffffffffffffffffffffffffffffffffffff1673ffffffffffffffffffffffffffffffffffffffff1663feaf968c6040518163ffffffff1660e01b815260040160a060405180830381865afa1580156118bb573d6000803e3d6000fd5b505050506040513d601f19601f820116820180604052508101906118df91906138f2565b5050509150508092505050919050565b60008061190683600061210a90919063ffffffff16565b9050600080600c0160008673ffffffffffffffffffffffffffffffffffffffff1673ffffffffffffffffffffffffffffffffffffffff16815260200190815260200160002060008381526020019081526020016000206040518060800160405290816000820154815260200160018201548152602001600282015481526020016003820154815250509050600061199d86866108ae565b90506127108110611a8b576000600c0160008773ffffffffffffffffffffffffffffffffffffffff1673ffffffffffffffffffffffffffffffffffffffff168152602001908152602001600020600084815260200190815260200160002060008082016000905560018201600090556002820160009055600382016000905550508573ffffffffffffffffffffffffffffffffffffffff167f51c99f515c87b0d95ba97f616edd182e8f161c4932eac17c6fefe9dab58b77b183600001516000604051611a6b9291906139b2565b60405180910390a2611a81868360000151612a51565b9350505050611c56565b6000611ab8612710611aaa8486600001516123e790919063ffffffff16565b6123d190919063ffffffff16565b90506040518060800160405280611adc8386600001516123fd90919063ffffffff16565b815260200184602001518152602001428152602001611b1e611b0b8660400151426123fd90919063ffffffff16565b86606001516123fd90919063ffffffff16565b8152506000600c0160008973ffffffffffffffffffffffffffffffffffffffff1673ffffffffffffffffffffffffffffffffffffffff1681526020019081526020016000206000868152602001908152602001600020600082015181600001556020820151816001015560408201518160020155606082015181600301559050508673ffffffffffffffffffffffffffffffffffffffff167f51c99f515c87b0d95ba97f616edd182e8f161c4932eac17c6fefe9dab58b77b1826000600c0160008b73ffffffffffffffffffffffffffffffffffffffff1673ffffffffffffffffffffffffffffffffffffffff168152602001908152602001600020600088815260200190815260200160002060000154604051611c3d9291906139db565b60405180910390a2611c4f8782612a51565b9450505050505b92915050565b611c6461314e565b6000611c7a83600061210a90919063ffffffff16565b90506000600a0160008281526020019081526020016000206040518060e00160405290816000820154815260200160018201548152602001600282015481526020016003820154815260200160048201548152602001600582015481526020016006820160009054906101000a900460ff161515151581525050915050919050565b600080611d1383600061210a90919063ffffffff16565b90506000600a01600082815260200190815260200160002060060160009054906101000a900460ff1615611def57611de86064611dda3073ffffffffffffffffffffffffffffffffffffffff166332da80a3876040518263ffffffff1660e01b8152600401611d82919061351b565b602060405180830381865afa158015611d9f573d6000803e3d6000fd5b505050506040513d601f19601f82011682018060405250810190611dc3919061354b565b611dcc87611675565b6123e790919063ffffffff16565b6123d190919063ffffffff16565b9150611f35565b600060030160009054906101000a900473ffffffffffffffffffffffffffffffffffffffff1673ffffffffffffffffffffffffffffffffffffffff168373ffffffffffffffffffffffffffffffffffffffff161415611ef757611ef06064611ee28573ffffffffffffffffffffffffffffffffffffffff1663313ce5676040518163ffffffff1660e01b8152600401602060405180830381865afa158015611e9b573d6000803e3d6000fd5b505050506040513d601f19601f82011682018060405250810190611ebf9190613a3d565b600a611ecb9190613bcc565b611ed487611675565b6123e790919063ffffffff16565b6123d190919063ffffffff16565b9150611f34565b826040517fcacddcb3000000000000000000000000000000000000000000000000000000008152600401611f2b919061351b565b60405180910390fd5b5b50919050565b600080611f5283600061210a90919063ffffffff16565b90506000611f7f6000600e01600084815260200190815260200160002054426123fd90919063ffffffff16565b9050611fd56000600a01600084815260200190815260200160002060050154611fc7836000600d016000878152602001908152602001600020546123e790919063ffffffff16565b6123d190919063ffffffff16565b92506000600d0160008381526020019081526020016000205483111561200f576000600d0160008381526020019081526020016000205492505b5050919050565b60008061202d83600061210a90919063ffffffff16565b9050612102620186a06120f46000600a016000858152602001908152602001600020600201546000800160009054906101000a900473ffffffffffffffffffffffffffffffffffffffff1673ffffffffffffffffffffffffffffffffffffffff166318160ddd6040518163ffffffff1660e01b8152600401602060405180830381865afa1580156120c2573d6000803e3d6000fd5b505050506040513d601f19601f820116820180604052508101906120e6919061354b565b6123e790919063ffffffff16565b6123d190919063ffffffff16565b915050919050565b60008061211984600801612b7e565b905060005b81811015612183578373ffffffffffffffffffffffffffffffffffffffff1661214a8660080183612b93565b73ffffffffffffffffffffffffffffffffffffffff161415612170578092505050612186565b808061217b90613c17565b91505061211e565b50505b92915050565b61219461318d565b600082116121d7576040517f08c379a00000000000000000000000000000000000000000000000000000000081526004016121ce90613cd2565b60405180910390fd5b600083141561221557604051806020016040528060007bffffffffffffffffffffffffffffffffffffffffffffffffffffffff16815250905061238d565b71ffffffffffffffffffffffffffffffffffff801683116122dd57600082607060ff1685901b6122459190613d21565b90507bffffffffffffffffffffffffffffffffffffffffffffffffffffffff80168111156122a8576040517f08c379a000000000000000000000000000000000000000000000000000000000815260040161229f90613d9e565b60405180910390fd5b6040518060200160405280827bffffffffffffffffffffffffffffffffffffffffffffffffffffffff1681525091505061238d565b60006122f9846e01000000000000000000000000000085612bad565b90507bffffffffffffffffffffffffffffffffffffffffffffffffffffffff801681111561235c576040517f08c379a000000000000000000000000000000000000000000000000000000000815260040161235390613d9e565b60405180910390fd5b6040518060200160405280827bffffffffffffffffffffffffffffffffffffffffffffffffffffffff168152509150505b92915050565b60006612725dd1d243ab82600001517bffffffffffffffffffffffffffffffffffffffffffffffffffffffff166123ca9190613d21565b9050919050565b600081836123df9190613d21565b905092915050565b600081836123f59190613dbe565b905092915050565b6000818361240b9190613e18565b905092915050565b600061242982600061210a90919063ffffffff16565b905061245c61243783611f3b565b6000600d016000848152602001908152602001600020546123fd90919063ffffffff16565b6000600d01600083815260200190815260200160002081905550426000600e016000838152602001908152602001600020819055505050565b6000806124ac83600061210a90919063ffffffff16565b90506000600a01600082815260200190815260200160002060060160009054906101000a900460ff1615612540576125396298968061252b633b9aca0061251d6124f5886106ff565b6000600a016000888152602001908152602001600020600001546123e790919063ffffffff16565b61279390919063ffffffff16565b6123d190919063ffffffff16565b91506125fc565b600060030160009054906101000a900473ffffffffffffffffffffffffffffffffffffffff1673ffffffffffffffffffffffffffffffffffffffff168373ffffffffffffffffffffffffffffffffffffffff1614156125fb576125f8629896806125ea633b9aca006125dc6125b4886106ff565b6000600a016000888152602001908152602001600020600001546123e790919063ffffffff16565b61279390919063ffffffff16565b6123d190919063ffffffff16565b91505b5b6000600a0160008281526020019081526020016000206001015482101561263e576000600a01600082815260200190815260200160002060010154915061267e565b600080600a016000838152602001908152602001600020600101541461267d57600080600a016000838152602001908152602001600020600101819055505b5b50919050565b612707846323b872dd60e01b8585856040516024016126a593929190613e4c565b604051602081830303815290604052907bffffffffffffffffffffffffffffffffffffffffffffffffffffffff19166020820180517bffffffffffffffffffffffffffffffffffffffffffffffffffffffff8381831617835250505050612c55565b50505050565b61278e8363a9059cbb60e01b848460405160240161272c9291906136f3565b604051602081830303815290604052907bffffffffffffffffffffffffffffffffffffffffffffffffffffffff19166020820180517bffffffffffffffffffffffffffffffffffffffffffffffffffffffff8381831617835250505050612c55565b505050565b600081836127a19190613e83565b905092915050565b60006127bf82600061210a90919063ffffffff16565b9050600080600b0160008381526020019081526020016000209050600080600a01600084815260200190815260200160002090506000826001015411801561280b575060008260020154115b1561296f5760008160000154905060006128328460030154426123fd90919063ffffffff16565b9050600061283f87612975565b905080856001015410612870576128638186600101546123fd90919063ffffffff16565b856001018190555061287b565b600085600101819055505b818560020154106128aa5761289d8286600201546123fd90919063ffffffff16565b85600201819055506128b5565b600085600201819055505b8460000160009054906101000a900460ff16156128f0576128e381856000015461279390919063ffffffff16565b8460000181905550612910565b6129078185600001546123fd90919063ffffffff16565b84600001819055505b4285600301819055507fb923e581a0f83128e9e1d8297aa52b18d6744310476e0b54509c054cd7a93b2a838560000154838860000160009054906101000a900460ff166040516129639493929190613ee8565b60405180910390a15050505b50505050565b60008061298c83600061210a90919063ffffffff16565b9050600080600b0160008381526020019081526020016000206040518060800160405290816000820160009054906101000a900460ff16151515158152602001600182015481526020016002820154815260200160038201548152505090506000612a048260600151426123fd90919063ffffffff16565b9050612a338260400151612a258385602001516123e790919063ffffffff16565b6123d190919063ffffffff16565b93508160200151841115612a4957816020015193505b505050919050565b60008060000160009054906101000a900473ffffffffffffffffffffffffffffffffffffffff1673ffffffffffffffffffffffffffffffffffffffff1663095ea7b330846040518363ffffffff1660e01b8152600401612ab29291906136f3565b6020604051808303816000875af1158015612ad1573d6000803e3d6000fd5b505050506040513d601f19601f82011682018060405250810190612af59190613820565b503073ffffffffffffffffffffffffffffffffffffffff16637acb775783856040518363ffffffff1660e01b8152600401612b31929190613f2d565b6020604051808303816000875af1158015612b50573d6000803e3d6000fd5b505050506040513d601f19601f82011682018060405250810190612b749190613820565b5081905092915050565b6000612b8c82600001612d1c565b9050919050565b6000612ba28360000183612d2d565b60001c905092915050565b6000806000612bbc8686612d58565b9150915060008480612bd157612bd0613cf2565b5b868809905082811115612bee57600182612beb9190613e18565b91505b8083612bfa9190613e18565b9250848210612c3e576040517f08c379a0000000000000000000000000000000000000000000000000000000008152600401612c3590613fa2565b60405180910390fd5b612c49838387612dcd565b93505050509392505050565b6000612cb7826040518060400160405280602081526020017f5361666545524332303a206c6f772d6c6576656c2063616c6c206661696c65648152508573ffffffffffffffffffffffffffffffffffffffff16612f809092919063ffffffff16565b9050600081511115612d175780806020019051810190612cd79190613820565b612d16576040517f08c379a0000000000000000000000000000000000000000000000000000000008152600401612d0d90614034565b60405180910390fd5b5b505050565b600081600001805490509050919050565b6000826000018281548110612d4557612d44614054565b5b9060005260206000200154905092915050565b60008060007fffffffffffffffffffffffffffffffffffffffffffffffffffffffffffffffff80612d8c57612d8b613cf2565b5b84860990508385612d9d9190613dbe565b92508281612dab9190613e18565b915082811015612dc557600182612dc29190613e18565b91505b509250929050565b60008060018319612dde9190613e83565b831690508083612dee9190613d21565b92508085612dfc9190613d21565b945060018160018319612e0f9190613e83565b612e199190613d21565b612e239190613e83565b84612e2e9190613dbe565b85612e399190613e83565b94506000600190508084612e4d9190613dbe565b6002612e599190613e18565b81612e649190613dbe565b90508084612e729190613dbe565b6002612e7e9190613e18565b81612e899190613dbe565b90508084612e979190613dbe565b6002612ea39190613e18565b81612eae9190613dbe565b90508084612ebc9190613dbe565b6002612ec89190613e18565b81612ed39190613dbe565b90508084612ee19190613dbe565b6002612eed9190613e18565b81612ef89190613dbe565b90508084612f069190613dbe565b6002612f129190613e18565b81612f1d9190613dbe565b90508084612f2b9190613dbe565b6002612f379190613e18565b81612f429190613dbe565b90508084612f509190613dbe565b6002612f5c9190613e18565b81612f679190613dbe565b90508086612f759190613dbe565b925050509392505050565b6060612f8f8484600085612f98565b90509392505050565b606082471015612fdd576040517f08c379a0000000000000000000000000000000000000000000000000000000008152600401612fd4906140f5565b60405180910390fd5b612fe6856130ac565b613025576040517f08c379a000000000000000000000000000000000000000000000000000000000815260040161301c90614161565b60405180910390fd5b6000808673ffffffffffffffffffffffffffffffffffffffff16858760405161304e91906141fb565b60006040518083038185875af1925050503d806000811461308b576040519150601f19603f3d011682016040523d82523d6000602084013e613090565b606091505b50915091506130a08282866130bf565b92505050949350505050565b600080823b905060008111915050919050565b606083156130cf5782905061311f565b6000835111156130e25782518084602001fd5b816040517f08c379a00000000000000000000000000000000000000000000000000000000081526004016131169190614267565b60405180910390fd5b9392505050565b6040518060800160405280600081526020016000815260200160008152602001600081525090565b6040518060e001604052806000815260200160008152602001600081526020016000815260200160008152602001600081526020016000151581525090565b604051806020016040528060007bffffffffffffffffffffffffffffffffffffffffffffffffffffffff1681525090565b600080fd5b6000819050919050565b6131d6816131c3565b81146131e157600080fd5b50565b6000813590506131f3816131cd565b92915050565b600073ffffffffffffffffffffffffffffffffffffffff82169050919050565b6000613224826131f9565b9050919050565b61323481613219565b811461323f57600080fd5b50565b6000813590506132518161322b565b92915050565b6000806040838503121561326e5761326d6131be565b5b600061327c858286016131e4565b925050602061328d85828601613242565b9150509250929050565b6132a0816131c3565b82525050565b60006020820190506132bb6000830184613297565b92915050565b6000602082840312156132d7576132d66131be565b5b60006132e584828501613242565b91505092915050565b60008060408385031215613305576133046131be565b5b600061331385828601613242565b925050602061332485828601613242565b9150509250929050565b60008060008060808587031215613348576133476131be565b5b6000613356878288016131e4565b9450506020613367878288016131e4565b935050604061337887828801613242565b925050606061338987828801613242565b91505092959194509250565b61339e816131c3565b82525050565b6080820160008201516133ba6000850182613395565b5060208201516133cd6020850182613395565b5060408201516133e06040850182613395565b5060608201516133f36060850182613395565b50505050565b600060808201905061340e60008301846133a4565b92915050565b6000819050919050565b61342781613414565b82525050565b6000602082019050613442600083018461341e565b92915050565b60008115159050919050565b61345d81613448565b82525050565b60e0820160008201516134796000850182613395565b50602082015161348c6020850182613395565b50604082015161349f6040850182613395565b5060608201516134b26060850182613395565b5060808201516134c56080850182613395565b5060a08201516134d860a0850182613395565b5060c08201516134eb60c0850182613454565b50505050565b600060e0820190506135066000830184613463565b92915050565b61351581613219565b82525050565b6000602082019050613530600083018461350c565b92915050565b600081519050613545816131cd565b92915050565b600060208284031215613561576135606131be565b5b600061356f84828501613536565b91505092915050565b600082825260208201905092915050565b7f496e76616c696420616464726573730000000000000000000000000000000000600082015250565b60006135bf600f83613578565b91506135ca82613589565b602082019050919050565b600060208201905081810360008301526135ee816135b2565b9050919050565b7f4d61782063617061636974792072656163686564000000000000000000000000600082015250565b600061362b601483613578565b9150613636826135f5565b602082019050919050565b6000602082019050818103600083015261365a8161361e565b9050919050565b7f536c697070616765206c696d69743a206d6f7265207468616e206d617820707260008201527f6963650000000000000000000000000000000000000000000000000000000000602082015250565b60006136bd602383613578565b91506136c882613661565b604082019050919050565b600060208201905081810360008301526136ec816136b0565b9050919050565b6000604082019050613708600083018561350c565b6137156020830184613297565b9392505050565b7f426f6e6420746f6f20736d616c6c000000000000000000000000000000000000600082015250565b6000613752600e83613578565b915061375d8261371c565b602082019050919050565b6000602082019050818103600083015261378181613745565b9050919050565b7f426f6e6420746f6f206c61726765000000000000000000000000000000000000600082015250565b60006137be600e83613578565b91506137c982613788565b602082019050919050565b600060208201905081810360008301526137ed816137b1565b9050919050565b6137fd81613448565b811461380857600080fd5b50565b60008151905061381a816137f4565b92915050565b600060208284031215613836576138356131be565b5b60006138448482850161380b565b91505092915050565b60006060820190506138626000830186613297565b61386f602083018561350c565b61387c6040830184613297565b949350505050565b600069ffffffffffffffffffff82169050919050565b6138a381613884565b81146138ae57600080fd5b50565b6000815190506138c08161389a565b92915050565b6138cf81613414565b81146138da57600080fd5b50565b6000815190506138ec816138c6565b92915050565b600080600080600060a0868803121561390e5761390d6131be565b5b600061391c888289016138b1565b955050602061392d888289016138dd565b945050604061393e88828901613536565b935050606061394f88828901613536565b9250506080613960888289016138b1565b9150509295509295909350565b6000819050919050565b6000819050919050565b600061399c6139976139928461396d565b613977565b6131c3565b9050919050565b6139ac81613981565b82525050565b60006040820190506139c76000830185613297565b6139d460208301846139a3565b9392505050565b60006040820190506139f06000830185613297565b6139fd6020830184613297565b9392505050565b600060ff82169050919050565b613a1a81613a04565b8114613a2557600080fd5b50565b600081519050613a3781613a11565b92915050565b600060208284031215613a5357613a526131be565b5b6000613a6184828501613a28565b91505092915050565b7f4e487b7100000000000000000000000000000000000000000000000000000000600052601160045260246000fd5b60008160011c9050919050565b6000808291508390505b6001851115613af057808604811115613acc57613acb613a6a565b5b6001851615613adb5780820291505b8081029050613ae985613a99565b9450613ab0565b94509492505050565b600082613b095760019050613bc5565b81613b175760009050613bc5565b8160018114613b2d5760028114613b3757613b66565b6001915050613bc5565b60ff841115613b4957613b48613a6a565b5b8360020a915084821115613b6057613b5f613a6a565b5b50613bc5565b5060208310610133831016604e8410600b8410161715613b9b5782820a905083811115613b9657613b95613a6a565b5b613bc5565b613ba88484846001613aa6565b92509050818404811115613bbf57613bbe613a6a565b5b81810290505b9392505050565b6000613bd7826131c3565b9150613be283613a04565b9250613c0f7fffffffffffffffffffffffffffffffffffffffffffffffffffffffffffffffff8484613af9565b905092915050565b6000613c22826131c3565b91507fffffffffffffffffffffffffffffffffffffffffffffffffffffffffffffffff821415613c5557613c54613a6a565b5b600182019050919050565b7f4669786564506f696e743a3a6672616374696f6e3a206469766973696f6e206260008201527f79207a65726f0000000000000000000000000000000000000000000000000000602082015250565b6000613cbc602683613578565b9150613cc782613c60565b604082019050919050565b60006020820190508181036000830152613ceb81613caf565b9050919050565b7f4e487b7100000000000000000000000000000000000000000000000000000000600052601260045260246000fd5b6000613d2c826131c3565b9150613d37836131c3565b925082613d4757613d46613cf2565b5b828204905092915050565b7f4669786564506f696e743a3a6672616374696f6e3a206f766572666c6f770000600082015250565b6000613d88601e83613578565b9150613d9382613d52565b602082019050919050565b60006020820190508181036000830152613db781613d7b565b9050919050565b6000613dc9826131c3565b9150613dd4836131c3565b9250817fffffffffffffffffffffffffffffffffffffffffffffffffffffffffffffffff0483118215151615613e0d57613e0c613a6a565b5b828202905092915050565b6000613e23826131c3565b9150613e2e836131c3565b925082821015613e4157613e40613a6a565b5b828203905092915050565b6000606082019050613e61600083018661350c565b613e6e602083018561350c565b613e7b6040830184613297565b949350505050565b6000613e8e826131c3565b9150613e99836131c3565b9250827fffffffffffffffffffffffffffffffffffffffffffffffffffffffffffffffff03821115613ece57613ecd613a6a565b5b828201905092915050565b613ee281613448565b82525050565b6000608082019050613efd6000830187613297565b613f0a6020830186613297565b613f176040830185613297565b613f246060830184613ed9565b95945050505050565b6000604082019050613f426000830185613297565b613f4f602083018461350c565b9392505050565b7f46756c6c4d6174683a3a6d756c4469763a206f766572666c6f77000000000000600082015250565b6000613f8c601a83613578565b9150613f9782613f56565b602082019050919050565b60006020820190508181036000830152613fbb81613f7f565b9050919050565b7f5361666545524332303a204552433230206f7065726174696f6e20646964206e60008201527f6f74207375636365656400000000000000000000000000000000000000000000602082015250565b600061401e602a83613578565b915061402982613fc2565b604082019050919050565b6000602082019050818103600083015261404d81614011565b9050919050565b7f4e487b7100000000000000000000000000000000000000000000000000000000600052603260045260246000fd5b7f416464726573733a20696e73756666696369656e742062616c616e636520666f60008201527f722063616c6c0000000000000000000000000000000000000000000000000000602082015250565b60006140df602683613578565b91506140ea82614083565b604082019050919050565b6000602082019050818103600083015261410e816140d2565b9050919050565b7f416464726573733a2063616c6c20746f206e6f6e2d636f6e7472616374000000600082015250565b600061414b601d83613578565b915061415682614115565b602082019050919050565b6000602082019050818103600083015261417a8161413e565b9050919050565b600081519050919050565b600081905092915050565b60005b838110156141b557808201518184015260208101905061419a565b838111156141c4576000848401525b50505050565b60006141d582614181565b6141df818561418c565b93506141ef818560208601614197565b80840191505092915050565b600061420782846141ca565b915081905092915050565b600081519050919050565b6000601f19601f8301169050919050565b600061423982614212565b6142438185613578565b9350614253818560208601614197565b61425c8161421d565b840191505092915050565b60006020820190508181036000830152614281818461422e565b90509291505056fea2646970667358221220440a99cf8efbf2342c62a8a61767452c1e69e70e0d67d2962f5603a0304f68c264736f6c634300080a0033",
  "devdoc": {
    "kind": "dev",
    "methods": {
      "bondPrice(address)": {
        "returns": {
          "price_": "uint"
        }
      },
      "bondPriceInUSD(address)": {
        "returns": {
          "price_": "uint"
        }
      },
      "currentDebt(address)": {
        "returns": {
          "_0": "uint"
        }
      },
      "debtDecay(address)": {
        "returns": {
          "decay_": "uint"
        }
      },
      "debtRatio(address)": {
        "returns": {
          "debtRatio_": "uint"
        }
      },
      "deposit(uint256,uint256,address,address)": {
        "params": {
          "_amount": "uint",
          "_depositor": "address",
          "_maxPrice": "uint"
        },
        "returns": {
          "_0": "uint"
        }
      },
      "maxPayout(address)": {
        "returns": {
          "_0": "uint"
        }
      },
      "payoutFor(uint256,address)": {
        "params": {
          "_value": "uint"
        },
        "returns": {
          "_0": "uint"
        }
      },
      "pendingPayoutFor(address,address)": {
        "params": {
          "_depositor": "address"
        },
        "returns": {
          "pendingPayout_": "uint"
        }
      },
      "percentVestedFor(address,address)": {
        "params": {
          "_depositor": "address"
        },
        "returns": {
          "percentVested_": "uint"
        }
      },
      "redeem(address,address)": {
        "params": {
          "_principle": "address",
          "_recipient": "address"
        },
        "returns": {
          "_0": "uint"
        }
      },
      "standardizedDebtRatio(address)": {
        "returns": {
          "_0": "uint"
        }
      }
    },
    "version": 1
  },
  "userdoc": {
    "kind": "user",
    "methods": {
      "assetPrice(address)": {
        "notice": "get asset price from chainlink"
      },
      "bondPrice(address)": {
        "notice": "calculate current bond premium"
      },
      "bondPriceInUSD(address)": {
        "notice": "converts bond price to DAI value"
      },
      "currentDebt(address)": {
        "notice": "calculate debt factoring in decay"
      },
      "debtDecay(address)": {
        "notice": "amount to decay total debt by"
      },
      "debtRatio(address)": {
        "notice": "calculate current ratio of debt to Necc supply"
      },
      "deposit(uint256,uint256,address,address)": {
        "notice": "deposit bond"
      },
      "maxPayout(address)": {
        "notice": "determine maximum bond size"
      },
      "payoutFor(uint256,address)": {
        "notice": "calculate interest due for new bond"
      },
      "pendingPayoutFor(address,address)": {
        "notice": "calculate amount of Necc available for claim by depositor"
      },
      "percentVestedFor(address,address)": {
        "notice": "calculate how far into vesting a depositor is"
      },
      "redeem(address,address)": {
        "notice": "redeem bond for user"
      },
      "standardizedDebtRatio(address)": {
        "notice": "debt ratio in same terms for reserve or liquidity bonds"
      }
    },
    "version": 1
  },
  "storageLayout": {
    "storage": [
      {
        "astId": 3306,
        "contract": "contracts/facets/Bond/BondDepositoryFacet.sol:BondDepositoryFacet",
        "label": "s",
        "offset": 0,
        "slot": "0",
        "type": "t_struct(Storage)4838_storage"
      }
    ],
    "types": {
      "t_address": {
        "encoding": "inplace",
        "label": "address",
        "numberOfBytes": "20"
      },
      "t_array(t_bytes32)dyn_storage": {
        "base": "t_bytes32",
        "encoding": "dynamic_array",
        "label": "bytes32[]",
        "numberOfBytes": "32"
      },
      "t_array(t_struct(Info)4692_storage)dyn_storage": {
        "base": "t_struct(Info)4692_storage",
        "encoding": "dynamic_array",
        "label": "struct LibBondStorage.Info[]",
        "numberOfBytes": "32"
      },
      "t_array(t_struct(Payout)4687_storage)dyn_storage": {
        "base": "t_struct(Payout)4687_storage",
        "encoding": "dynamic_array",
        "label": "struct LibBondStorage.Payout[]",
        "numberOfBytes": "32"
      },
      "t_bool": {
        "encoding": "inplace",
        "label": "bool",
        "numberOfBytes": "1"
      },
      "t_bytes32": {
        "encoding": "inplace",
        "label": "bytes32",
        "numberOfBytes": "32"
      },
      "t_mapping(t_address,t_mapping(t_uint256,t_struct(Bond)4723_storage))": {
        "encoding": "mapping",
        "key": "t_address",
        "label": "mapping(address => mapping(uint256 => struct LibBondStorage.Bond))",
        "numberOfBytes": "32",
        "value": "t_mapping(t_uint256,t_struct(Bond)4723_storage)"
      },
      "t_mapping(t_address,t_struct(Claim)4750_storage)": {
        "encoding": "mapping",
        "key": "t_address",
        "label": "mapping(address => struct LibBondStorage.Claim)",
        "numberOfBytes": "32",
        "value": "t_struct(Claim)4750_storage"
      },
      "t_mapping(t_bytes32,t_uint256)": {
        "encoding": "mapping",
        "key": "t_bytes32",
        "label": "mapping(bytes32 => uint256)",
        "numberOfBytes": "32",
        "value": "t_uint256"
      },
      "t_mapping(t_uint256,t_address)": {
        "encoding": "mapping",
        "key": "t_uint256",
        "label": "mapping(uint256 => address)",
        "numberOfBytes": "32",
        "value": "t_address"
      },
      "t_mapping(t_uint256,t_array(t_struct(Payout)4687_storage)dyn_storage)": {
        "encoding": "mapping",
        "key": "t_uint256",
        "label": "mapping(uint256 => struct LibBondStorage.Payout[])",
        "numberOfBytes": "32",
        "value": "t_array(t_struct(Payout)4687_storage)dyn_storage"
      },
      "t_mapping(t_uint256,t_struct(Bond)4723_storage)": {
        "encoding": "mapping",
        "key": "t_uint256",
        "label": "mapping(uint256 => struct LibBondStorage.Bond)",
        "numberOfBytes": "32",
        "value": "t_struct(Bond)4723_storage"
      },
      "t_mapping(t_uint256,t_struct(BondDepositoryAdjustment)4732_storage)": {
        "encoding": "mapping",
        "key": "t_uint256",
        "label": "mapping(uint256 => struct LibBondStorage.BondDepositoryAdjustment)",
        "numberOfBytes": "32",
        "value": "t_struct(BondDepositoryAdjustment)4732_storage"
      },
      "t_mapping(t_uint256,t_struct(DistributorAdjustment)4699_storage)": {
        "encoding": "mapping",
        "key": "t_uint256",
        "label": "mapping(uint256 => struct LibBondStorage.DistributorAdjustment)",
        "numberOfBytes": "32",
        "value": "t_struct(DistributorAdjustment)4699_storage"
      },
      "t_mapping(t_uint256,t_struct(Terms)4714_storage)": {
        "encoding": "mapping",
        "key": "t_uint256",
        "label": "mapping(uint256 => struct LibBondStorage.Terms)",
        "numberOfBytes": "32",
        "value": "t_struct(Terms)4714_storage"
      },
      "t_mapping(t_uint256,t_uint256)": {
        "encoding": "mapping",
        "key": "t_uint256",
        "label": "mapping(uint256 => uint256)",
        "numberOfBytes": "32",
        "value": "t_uint256"
      },
      "t_struct(AddressSet)1222_storage": {
        "encoding": "inplace",
        "label": "struct EnumerableSet.AddressSet",
        "members": [
          {
            "astId": 1221,
            "contract": "contracts/facets/Bond/BondDepositoryFacet.sol:BondDepositoryFacet",
            "label": "_inner",
            "offset": 0,
            "slot": "0",
            "type": "t_struct(Set)921_storage"
          }
        ],
        "numberOfBytes": "64"
      },
      "t_struct(Bond)4723_storage": {
        "encoding": "inplace",
        "label": "struct LibBondStorage.Bond",
        "members": [
          {
            "astId": 4716,
            "contract": "contracts/facets/Bond/BondDepositoryFacet.sol:BondDepositoryFacet",
            "label": "payout",
            "offset": 0,
            "slot": "0",
            "type": "t_uint256"
          },
          {
            "astId": 4718,
            "contract": "contracts/facets/Bond/BondDepositoryFacet.sol:BondDepositoryFacet",
            "label": "pricePaid",
            "offset": 0,
            "slot": "1",
            "type": "t_uint256"
          },
          {
            "astId": 4720,
            "contract": "contracts/facets/Bond/BondDepositoryFacet.sol:BondDepositoryFacet",
            "label": "lastTime",
            "offset": 0,
            "slot": "2",
            "type": "t_uint256"
          },
          {
            "astId": 4722,
            "contract": "contracts/facets/Bond/BondDepositoryFacet.sol:BondDepositoryFacet",
            "label": "vesting",
            "offset": 0,
            "slot": "3",
            "type": "t_uint256"
          }
        ],
        "numberOfBytes": "128"
      },
      "t_struct(BondDepositoryAdjustment)4732_storage": {
        "encoding": "inplace",
        "label": "struct LibBondStorage.BondDepositoryAdjustment",
        "members": [
          {
            "astId": 4725,
            "contract": "contracts/facets/Bond/BondDepositoryFacet.sol:BondDepositoryFacet",
            "label": "add",
            "offset": 0,
            "slot": "0",
            "type": "t_bool"
          },
          {
            "astId": 4727,
            "contract": "contracts/facets/Bond/BondDepositoryFacet.sol:BondDepositoryFacet",
            "label": "delta",
            "offset": 0,
            "slot": "1",
            "type": "t_uint256"
          },
          {
            "astId": 4729,
            "contract": "contracts/facets/Bond/BondDepositoryFacet.sol:BondDepositoryFacet",
            "label": "timeToTarget",
            "offset": 0,
            "slot": "2",
            "type": "t_uint256"
          },
          {
            "astId": 4731,
            "contract": "contracts/facets/Bond/BondDepositoryFacet.sol:BondDepositoryFacet",
            "label": "lastTime",
            "offset": 0,
            "slot": "3",
            "type": "t_uint256"
          }
        ],
        "numberOfBytes": "128"
      },
      "t_struct(Claim)4750_storage": {
        "encoding": "inplace",
        "label": "struct LibBondStorage.Claim",
        "members": [
          {
            "astId": 4743,
            "contract": "contracts/facets/Bond/BondDepositoryFacet.sol:BondDepositoryFacet",
            "label": "deposit",
            "offset": 0,
            "slot": "0",
            "type": "t_uint256"
          },
          {
            "astId": 4745,
            "contract": "contracts/facets/Bond/BondDepositoryFacet.sol:BondDepositoryFacet",
            "label": "gons",
            "offset": 0,
            "slot": "1",
            "type": "t_uint256"
          },
          {
            "astId": 4747,
            "contract": "contracts/facets/Bond/BondDepositoryFacet.sol:BondDepositoryFacet",
            "label": "expiry",
            "offset": 0,
            "slot": "2",
            "type": "t_uint256"
          },
          {
            "astId": 4749,
            "contract": "contracts/facets/Bond/BondDepositoryFacet.sol:BondDepositoryFacet",
            "label": "lock",
            "offset": 0,
            "slot": "3",
            "type": "t_bool"
          }
        ],
        "numberOfBytes": "128"
      },
      "t_struct(DistributorAdjustment)4699_storage": {
        "encoding": "inplace",
        "label": "struct LibBondStorage.DistributorAdjustment",
        "members": [
          {
            "astId": 4694,
            "contract": "contracts/facets/Bond/BondDepositoryFacet.sol:BondDepositoryFacet",
            "label": "add",
            "offset": 0,
            "slot": "0",
            "type": "t_bool"
          },
          {
            "astId": 4696,
            "contract": "contracts/facets/Bond/BondDepositoryFacet.sol:BondDepositoryFacet",
            "label": "rate",
            "offset": 0,
            "slot": "1",
            "type": "t_uint256"
          },
          {
            "astId": 4698,
            "contract": "contracts/facets/Bond/BondDepositoryFacet.sol:BondDepositoryFacet",
            "label": "target",
            "offset": 0,
            "slot": "2",
            "type": "t_uint256"
          }
        ],
        "numberOfBytes": "96"
      },
      "t_struct(Epoch)4741_storage": {
        "encoding": "inplace",
        "label": "struct LibBondStorage.Epoch",
        "members": [
          {
            "astId": 4734,
            "contract": "contracts/facets/Bond/BondDepositoryFacet.sol:BondDepositoryFacet",
            "label": "number",
            "offset": 0,
            "slot": "0",
            "type": "t_uint256"
          },
          {
            "astId": 4736,
            "contract": "contracts/facets/Bond/BondDepositoryFacet.sol:BondDepositoryFacet",
            "label": "distribute",
            "offset": 0,
            "slot": "1",
            "type": "t_uint256"
          },
          {
            "astId": 4738,
            "contract": "contracts/facets/Bond/BondDepositoryFacet.sol:BondDepositoryFacet",
            "label": "length",
            "offset": 0,
            "slot": "2",
            "type": "t_uint256"
          },
          {
            "astId": 4740,
            "contract": "contracts/facets/Bond/BondDepositoryFacet.sol:BondDepositoryFacet",
            "label": "endTime",
            "offset": 0,
            "slot": "3",
            "type": "t_uint256"
          }
        ],
        "numberOfBytes": "128"
      },
      "t_struct(Info)4692_storage": {
        "encoding": "inplace",
        "label": "struct LibBondStorage.Info",
        "members": [
          {
            "astId": 4689,
            "contract": "contracts/facets/Bond/BondDepositoryFacet.sol:BondDepositoryFacet",
            "label": "rate",
            "offset": 0,
            "slot": "0",
            "type": "t_uint256"
          },
          {
            "astId": 4691,
            "contract": "contracts/facets/Bond/BondDepositoryFacet.sol:BondDepositoryFacet",
            "label": "recipient",
            "offset": 0,
            "slot": "1",
            "type": "t_address"
          }
        ],
        "numberOfBytes": "64"
      },
      "t_struct(Payout)4687_storage": {
        "encoding": "inplace",
        "label": "struct LibBondStorage.Payout",
        "members": [
          {
            "astId": 4684,
            "contract": "contracts/facets/Bond/BondDepositoryFacet.sol:BondDepositoryFacet",
            "label": "amount",
            "offset": 0,
            "slot": "0",
            "type": "t_uint256"
          },
          {
            "astId": 4686,
            "contract": "contracts/facets/Bond/BondDepositoryFacet.sol:BondDepositoryFacet",
            "label": "blockTimestamp",
            "offset": 0,
            "slot": "1",
            "type": "t_uint256"
          }
        ],
        "numberOfBytes": "64"
      },
      "t_struct(Set)921_storage": {
        "encoding": "inplace",
        "label": "struct EnumerableSet.Set",
        "members": [
          {
            "astId": 916,
            "contract": "contracts/facets/Bond/BondDepositoryFacet.sol:BondDepositoryFacet",
            "label": "_values",
            "offset": 0,
            "slot": "0",
            "type": "t_array(t_bytes32)dyn_storage"
          },
          {
            "astId": 920,
            "contract": "contracts/facets/Bond/BondDepositoryFacet.sol:BondDepositoryFacet",
            "label": "_indexes",
            "offset": 0,
            "slot": "1",
            "type": "t_mapping(t_bytes32,t_uint256)"
          }
        ],
        "numberOfBytes": "64"
      },
      "t_struct(Storage)4838_storage": {
        "encoding": "inplace",
        "label": "struct LibBondStorage.Storage",
        "members": [
          {
            "astId": 4752,
            "contract": "contracts/facets/Bond/BondDepositoryFacet.sol:BondDepositoryFacet",
            "label": "Necc",
            "offset": 0,
            "slot": "0",
            "type": "t_address"
          },
          {
            "astId": 4754,
            "contract": "contracts/facets/Bond/BondDepositoryFacet.sol:BondDepositoryFacet",
            "label": "sNecc",
            "offset": 0,
            "slot": "1",
            "type": "t_address"
          },
          {
            "astId": 4756,
            "contract": "contracts/facets/Bond/BondDepositoryFacet.sol:BondDepositoryFacet",
            "label": "nNecc",
            "offset": 0,
            "slot": "2",
            "type": "t_address"
          },
          {
            "astId": 4758,
            "contract": "contracts/facets/Bond/BondDepositoryFacet.sol:BondDepositoryFacet",
            "label": "ndol",
            "offset": 0,
            "slot": "3",
            "type": "t_address"
          },
          {
            "astId": 4760,
            "contract": "contracts/facets/Bond/BondDepositoryFacet.sol:BondDepositoryFacet",
            "label": "treasury",
            "offset": 0,
            "slot": "4",
            "type": "t_address"
          },
          {
            "astId": 4762,
            "contract": "contracts/facets/Bond/BondDepositoryFacet.sol:BondDepositoryFacet",
            "label": "DAO",
            "offset": 0,
            "slot": "5",
            "type": "t_address"
          },
          {
            "astId": 4764,
            "contract": "contracts/facets/Bond/BondDepositoryFacet.sol:BondDepositoryFacet",
            "label": "farmDistributor",
            "offset": 0,
            "slot": "6",
            "type": "t_address"
          },
          {
            "astId": 4766,
            "contract": "contracts/facets/Bond/BondDepositoryFacet.sol:BondDepositoryFacet",
            "label": "staking",
            "offset": 0,
            "slot": "7",
            "type": "t_address"
          },
          {
            "astId": 4769,
            "contract": "contracts/facets/Bond/BondDepositoryFacet.sol:BondDepositoryFacet",
            "label": "principles",
            "offset": 0,
            "slot": "8",
            "type": "t_struct(AddressSet)1222_storage"
          },
          {
            "astId": 4774,
            "contract": "contracts/facets/Bond/BondDepositoryFacet.sol:BondDepositoryFacet",
            "label": "terms",
            "offset": 0,
            "slot": "10",
            "type": "t_mapping(t_uint256,t_struct(Terms)4714_storage)"
          },
          {
            "astId": 4779,
            "contract": "contracts/facets/Bond/BondDepositoryFacet.sol:BondDepositoryFacet",
            "label": "bondDepositoryAdjustment",
            "offset": 0,
            "slot": "11",
            "type": "t_mapping(t_uint256,t_struct(BondDepositoryAdjustment)4732_storage)"
          },
          {
            "astId": 4786,
            "contract": "contracts/facets/Bond/BondDepositoryFacet.sol:BondDepositoryFacet",
            "label": "bondInfo",
            "offset": 0,
            "slot": "12",
            "type": "t_mapping(t_address,t_mapping(t_uint256,t_struct(Bond)4723_storage))"
          },
          {
            "astId": 4790,
            "contract": "contracts/facets/Bond/BondDepositoryFacet.sol:BondDepositoryFacet",
            "label": "totalDebt",
            "offset": 0,
            "slot": "13",
            "type": "t_mapping(t_uint256,t_uint256)"
          },
          {
            "astId": 4794,
            "contract": "contracts/facets/Bond/BondDepositoryFacet.sol:BondDepositoryFacet",
            "label": "lastDecay",
            "offset": 0,
            "slot": "14",
            "type": "t_mapping(t_uint256,t_uint256)"
          },
          {
            "astId": 4798,
            "contract": "contracts/facets/Bond/BondDepositoryFacet.sol:BondDepositoryFacet",
            "label": "nextEpochTimestamp",
            "offset": 0,
            "slot": "15",
            "type": "t_mapping(t_uint256,t_uint256)"
          },
          {
            "astId": 4802,
            "contract": "contracts/facets/Bond/BondDepositoryFacet.sol:BondDepositoryFacet",
            "label": "priceFeeds",
            "offset": 0,
            "slot": "16",
            "type": "t_mapping(t_uint256,t_address)"
          },
          {
            "astId": 4806,
            "contract": "contracts/facets/Bond/BondDepositoryFacet.sol:BondDepositoryFacet",
            "label": "info",
            "offset": 0,
            "slot": "17",
            "type": "t_array(t_struct(Info)4692_storage)dyn_storage"
          },
          {
            "astId": 4811,
            "contract": "contracts/facets/Bond/BondDepositoryFacet.sol:BondDepositoryFacet",
            "label": "distributorAdjustments",
            "offset": 0,
            "slot": "18",
            "type": "t_mapping(t_uint256,t_struct(DistributorAdjustment)4699_storage)"
          },
          {
            "astId": 4814,
            "contract": "contracts/facets/Bond/BondDepositoryFacet.sol:BondDepositoryFacet",
            "label": "epoch",
            "offset": 0,
            "slot": "19",
            "type": "t_struct(Epoch)4741_storage"
          },
          {
            "astId": 4816,
            "contract": "contracts/facets/Bond/BondDepositoryFacet.sol:BondDepositoryFacet",
            "label": "epochLength",
            "offset": 0,
            "slot": "23",
            "type": "t_uint256"
          },
          {
            "astId": 4818,
            "contract": "contracts/facets/Bond/BondDepositoryFacet.sol:BondDepositoryFacet",
            "label": "distributor",
            "offset": 0,
            "slot": "24",
            "type": "t_address"
          },
          {
            "astId": 4820,
            "contract": "contracts/facets/Bond/BondDepositoryFacet.sol:BondDepositoryFacet",
            "label": "locker",
            "offset": 0,
            "slot": "25",
            "type": "t_address"
          },
          {
            "astId": 4822,
            "contract": "contracts/facets/Bond/BondDepositoryFacet.sol:BondDepositoryFacet",
            "label": "warmupPeriod",
            "offset": 0,
            "slot": "26",
            "type": "t_uint256"
          },
          {
            "astId": 4827,
            "contract": "contracts/facets/Bond/BondDepositoryFacet.sol:BondDepositoryFacet",
            "label": "warmupInfo",
            "offset": 0,
            "slot": "27",
            "type": "t_mapping(t_address,t_struct(Claim)4750_storage)"
          },
          {
            "astId": 4829,
            "contract": "contracts/facets/Bond/BondDepositoryFacet.sol:BondDepositoryFacet",
            "label": "targetSum",
            "offset": 0,
            "slot": "28",
            "type": "t_uint256"
          },
          {
            "astId": 4835,
            "contract": "contracts/facets/Bond/BondDepositoryFacet.sol:BondDepositoryFacet",
            "label": "payouts",
            "offset": 0,
            "slot": "29",
            "type": "t_mapping(t_uint256,t_array(t_struct(Payout)4687_storage)dyn_storage)"
          },
          {
            "astId": 4837,
            "contract": "contracts/facets/Bond/BondDepositoryFacet.sol:BondDepositoryFacet",
            "label": "gonsInWarmup",
            "offset": 0,
            "slot": "30",
            "type": "t_uint256"
          }
        ],
        "numberOfBytes": "992"
      },
      "t_struct(Terms)4714_storage": {
        "encoding": "inplace",
        "label": "struct LibBondStorage.Terms",
        "members": [
          {
            "astId": 4701,
            "contract": "contracts/facets/Bond/BondDepositoryFacet.sol:BondDepositoryFacet",
            "label": "controlVariable",
            "offset": 0,
            "slot": "0",
            "type": "t_uint256"
          },
          {
            "astId": 4703,
            "contract": "contracts/facets/Bond/BondDepositoryFacet.sol:BondDepositoryFacet",
            "label": "minimumPrice",
            "offset": 0,
            "slot": "1",
            "type": "t_uint256"
          },
          {
            "astId": 4705,
            "contract": "contracts/facets/Bond/BondDepositoryFacet.sol:BondDepositoryFacet",
            "label": "maxPayout",
            "offset": 0,
            "slot": "2",
            "type": "t_uint256"
          },
          {
            "astId": 4707,
            "contract": "contracts/facets/Bond/BondDepositoryFacet.sol:BondDepositoryFacet",
            "label": "fee",
            "offset": 0,
            "slot": "3",
            "type": "t_uint256"
          },
          {
            "astId": 4709,
            "contract": "contracts/facets/Bond/BondDepositoryFacet.sol:BondDepositoryFacet",
            "label": "maxDebt",
            "offset": 0,
            "slot": "4",
            "type": "t_uint256"
          },
          {
            "astId": 4711,
            "contract": "contracts/facets/Bond/BondDepositoryFacet.sol:BondDepositoryFacet",
            "label": "vestingTerm",
            "offset": 0,
            "slot": "5",
            "type": "t_uint256"
          },
          {
            "astId": 4713,
            "contract": "contracts/facets/Bond/BondDepositoryFacet.sol:BondDepositoryFacet",
            "label": "isLiquidityBond",
            "offset": 0,
            "slot": "6",
            "type": "t_bool"
          }
        ],
        "numberOfBytes": "224"
      },
      "t_uint256": {
        "encoding": "inplace",
        "label": "uint256",
        "numberOfBytes": "32"
      }
    }
  }
}