{
  "address": "0x2bd68F01F84C114c77cfD20542189Ac12c19E28a",
  "abi": [
    {
      "inputs": [
        {
          "internalType": "address",
          "name": "_principle",
          "type": "address"
        }
      ],
      "name": "InvalidPrinciple",
      "type": "error"
    },
    {
      "anonymous": false,
      "inputs": [
        {
          "indexed": false,
          "internalType": "uint256",
          "name": "deposit",
          "type": "uint256"
        },
        {
          "indexed": true,
          "internalType": "uint256",
          "name": "payout",
          "type": "uint256"
        },
        {
          "indexed": true,
          "internalType": "uint256",
          "name": "expires",
          "type": "uint256"
        },
        {
          "indexed": true,
          "internalType": "uint256",
          "name": "priceInUSD",
          "type": "uint256"
        }
      ],
      "name": "BondCreated",
      "type": "event"
    },
    {
      "anonymous": false,
      "inputs": [
        {
          "indexed": true,
          "internalType": "uint256",
          "name": "priceInUSD",
          "type": "uint256"
        },
        {
          "indexed": true,
          "internalType": "uint256",
          "name": "internalPrice",
          "type": "uint256"
        },
        {
          "indexed": true,
          "internalType": "uint256",
          "name": "debtRatio",
          "type": "uint256"
        }
      ],
      "name": "BondPriceChanged",
      "type": "event"
    },
    {
      "anonymous": false,
      "inputs": [
        {
          "indexed": true,
          "internalType": "address",
          "name": "recipient",
          "type": "address"
        },
        {
          "indexed": false,
          "internalType": "uint256",
          "name": "payout",
          "type": "uint256"
        },
        {
          "indexed": false,
          "internalType": "uint256",
          "name": "remaining",
          "type": "uint256"
        }
      ],
      "name": "BondRedeemed",
      "type": "event"
    },
    {
      "anonymous": false,
      "inputs": [
        {
          "indexed": false,
          "internalType": "uint256",
          "name": "initialBCV",
          "type": "uint256"
        },
        {
          "indexed": false,
          "internalType": "uint256",
          "name": "newBCV",
          "type": "uint256"
        },
        {
          "indexed": false,
          "internalType": "uint256",
          "name": "adjustment",
          "type": "uint256"
        },
        {
          "indexed": false,
          "internalType": "bool",
          "name": "addition",
          "type": "bool"
        }
      ],
      "name": "ControlVariableAdjustment",
      "type": "event"
    },
    {
      "inputs": [
        {
          "internalType": "address",
          "name": "_principle",
          "type": "address"
        }
      ],
      "name": "BCV",
      "outputs": [
        {
          "internalType": "uint256",
          "name": "BCV_",
          "type": "uint256"
        }
      ],
      "stateMutability": "view",
      "type": "function"
    },
    {
      "inputs": [
        {
          "internalType": "address",
          "name": "_principle",
          "type": "address"
        }
      ],
      "name": "assetPrice",
      "outputs": [
        {
          "internalType": "int256",
          "name": "",
          "type": "int256"
        }
      ],
      "stateMutability": "view",
      "type": "function"
    },
    {
      "inputs": [
        {
          "internalType": "address",
          "name": "_depositor",
          "type": "address"
        },
        {
          "internalType": "address",
          "name": "_principle",
          "type": "address"
        }
      ],
      "name": "bondInfo",
      "outputs": [
        {
          "components": [
            {
              "internalType": "uint256",
              "name": "payout",
              "type": "uint256"
            },
            {
              "internalType": "uint256",
              "name": "pricePaid",
              "type": "uint256"
            },
            {
              "internalType": "uint256",
              "name": "lastTime",
              "type": "uint256"
            },
            {
              "internalType": "uint256",
              "name": "vesting",
              "type": "uint256"
            }
          ],
          "internalType": "struct LibBondStorage.Bond",
          "name": "",
          "type": "tuple"
        }
      ],
      "stateMutability": "view",
      "type": "function"
    },
    {
      "inputs": [
        {
          "internalType": "address",
          "name": "_principle",
          "type": "address"
        }
      ],
      "name": "bondPrice",
      "outputs": [
        {
          "internalType": "uint256",
          "name": "price_",
          "type": "uint256"
        }
      ],
      "stateMutability": "view",
      "type": "function"
    },
    {
      "inputs": [
        {
          "internalType": "address",
          "name": "_principle",
          "type": "address"
        }
      ],
      "name": "bondPriceInUSD",
      "outputs": [
        {
          "internalType": "uint256",
          "name": "price_",
          "type": "uint256"
        }
      ],
      "stateMutability": "view",
      "type": "function"
    },
    {
      "inputs": [
        {
          "internalType": "address",
          "name": "_principle",
          "type": "address"
        }
      ],
      "name": "currentDebt",
      "outputs": [
        {
          "internalType": "uint256",
          "name": "",
          "type": "uint256"
        }
      ],
      "stateMutability": "view",
      "type": "function"
    },
    {
      "inputs": [
        {
          "internalType": "address",
          "name": "_principle",
          "type": "address"
        }
      ],
      "name": "debtDecay",
      "outputs": [
        {
          "internalType": "uint256",
          "name": "decay_",
          "type": "uint256"
        }
      ],
      "stateMutability": "view",
      "type": "function"
    },
    {
      "inputs": [
        {
          "internalType": "address",
          "name": "_principle",
          "type": "address"
        }
      ],
      "name": "debtRatio",
      "outputs": [
        {
          "internalType": "uint256",
          "name": "debtRatio_",
          "type": "uint256"
        }
      ],
      "stateMutability": "view",
      "type": "function"
    },
    {
      "inputs": [
        {
          "internalType": "uint256",
          "name": "_amount",
          "type": "uint256"
        },
        {
          "internalType": "uint256",
          "name": "_maxPrice",
          "type": "uint256"
        },
        {
          "internalType": "address",
          "name": "_depositor",
          "type": "address"
        },
        {
          "internalType": "address",
          "name": "_principle",
          "type": "address"
        }
      ],
      "name": "deposit",
      "outputs": [
        {
          "internalType": "uint256",
          "name": "",
          "type": "uint256"
        }
      ],
      "stateMutability": "nonpayable",
      "type": "function"
    },
    {
      "inputs": [
        {
          "internalType": "address",
          "name": "_principle",
          "type": "address"
        }
      ],
      "name": "maxPayout",
      "outputs": [
        {
          "internalType": "uint256",
          "name": "",
          "type": "uint256"
        }
      ],
      "stateMutability": "view",
      "type": "function"
    },
    {
      "inputs": [
        {
          "internalType": "uint256",
          "name": "_value",
          "type": "uint256"
        },
        {
          "internalType": "address",
          "name": "_principle",
          "type": "address"
        }
      ],
      "name": "payoutFor",
      "outputs": [
        {
          "internalType": "uint256",
          "name": "",
          "type": "uint256"
        }
      ],
      "stateMutability": "view",
      "type": "function"
    },
    {
      "inputs": [
        {
          "internalType": "address",
          "name": "_depositor",
          "type": "address"
        },
        {
          "internalType": "address",
          "name": "_principle",
          "type": "address"
        }
      ],
      "name": "pendingPayoutFor",
      "outputs": [
        {
          "internalType": "uint256",
          "name": "pendingPayout_",
          "type": "uint256"
        }
      ],
      "stateMutability": "view",
      "type": "function"
    },
    {
      "inputs": [
        {
          "internalType": "address",
          "name": "_depositor",
          "type": "address"
        },
        {
          "internalType": "address",
          "name": "_principle",
          "type": "address"
        }
      ],
      "name": "percentVestedFor",
      "outputs": [
        {
          "internalType": "uint256",
          "name": "percentVested_",
          "type": "uint256"
        }
      ],
      "stateMutability": "view",
      "type": "function"
    },
    {
      "inputs": [
        {
          "internalType": "address",
          "name": "_recipient",
          "type": "address"
        },
        {
          "internalType": "address",
          "name": "_principle",
          "type": "address"
        }
      ],
      "name": "redeem",
      "outputs": [
        {
          "internalType": "uint256",
          "name": "",
          "type": "uint256"
        }
      ],
      "stateMutability": "nonpayable",
      "type": "function"
    },
    {
      "inputs": [
        {
          "internalType": "address",
          "name": "_principle",
          "type": "address"
        }
      ],
      "name": "standardizedDebtRatio",
      "outputs": [
        {
          "internalType": "uint256",
          "name": "",
          "type": "uint256"
        }
      ],
      "stateMutability": "view",
      "type": "function"
    },
    {
      "inputs": [
        {
          "internalType": "address",
          "name": "_principle",
          "type": "address"
        }
      ],
      "name": "terms",
      "outputs": [
        {
          "components": [
            {
              "internalType": "uint256",
              "name": "controlVariable",
              "type": "uint256"
            },
            {
              "internalType": "uint256",
              "name": "minimumPrice",
              "type": "uint256"
            },
            {
              "internalType": "uint256",
              "name": "maxPayout",
              "type": "uint256"
            },
            {
              "internalType": "uint256",
              "name": "fee",
              "type": "uint256"
            },
            {
              "internalType": "uint256",
              "name": "maxDebt",
              "type": "uint256"
            },
            {
              "internalType": "uint256",
              "name": "vestingTerm",
              "type": "uint256"
            },
            {
              "internalType": "bool",
              "name": "isLiquidityBond",
              "type": "bool"
            }
          ],
          "internalType": "struct LibBondStorage.Terms",
          "name": "",
          "type": "tuple"
        }
      ],
      "stateMutability": "view",
      "type": "function"
    }
  ],
  "transactionHash": "0xb62b880521f990468cf6f16177f8c20cf34ad10243496aa306d888cde4acc32c",
  "args": [],
  "solcInputHash": "ea1a321d2d12a3f44a6df9996d23ccb9",
  "bytecode": "0x608060405234801561001057600080fd5b506141fb806100206000396000f3fe608060405234801561001057600080fd5b50600436106101005760003560e01c8063ad5fe5eb11610097578063c8c819ac11610066578063c8c819ac14610345578063dc1d35a214610375578063de8d9708146103a5578063e300e98b146103d557610100565b8063ad5fe5eb14610285578063b11512e2146102b5578063b883b058146102e5578063bba06f271461031557610100565b80636fcb5622116100d35780636fcb5622146101c557806384715b11146101f5578063884719f214610225578063aa5883451461025557610100565b80630523f1c3146101055780632ddc1465146101355780632f74f46114610165578063415d9f6514610195575b600080fd5b61011f600480360381019061011a9190613193565b610405565b60405161012c91906131e2565b60405180910390f35b61014f600480360381019061014a91906131fd565b61055c565b60405161015c91906131e2565b60405180910390f35b61017f600480360381019061017a91906131fd565b610724565b60405161018c91906131e2565b60405180910390f35b6101af60048036038101906101aa919061322a565b61080e565b6040516101bc91906131e2565b60405180910390f35b6101df60048036038101906101da919061322a565b6108d3565b6040516101ec91906131e2565b60405180910390f35b61020f600480360381019061020a919061326a565b6109df565b60405161021c91906131e2565b60405180910390f35b61023f600480360381019061023a91906131fd565b611426565b60405161024c91906131e2565b60405180910390f35b61026f600480360381019061026a91906131fd565b611478565b60405161027c91906131e2565b60405180910390f35b61029f600480360381019061029a919061322a565b611563565b6040516102ac9190613335565b60405180910390f35b6102cf60048036038101906102ca91906131fd565b611612565b6040516102dc91906131e2565b60405180910390f35b6102ff60048036038101906102fa91906131fd565b6117bd565b60405161030c9190613369565b60405180910390f35b61032f600480360381019061032a919061322a565b61188c565b60405161033c91906131e2565b60405180910390f35b61035f600480360381019061035a91906131fd565b611bf9565b60405161036c919061342d565b60405180910390f35b61038f600480360381019061038a91906131fd565b611c99565b60405161039c91906131e2565b60405180910390f35b6103bf60048036038101906103ba91906131fd565b611efd565b6040516103cc91906131e2565b60405180910390f35b6103ef60048036038101906103ea91906131fd565b611fd8565b6040516103fc91906131e2565b60405180910390f35b60008061041c8360006120cc90919063ffffffff16565b90506000600a01600082815260200190815260200160002060060160009054906101000a900460ff16156104855761047d662386f26fc1000061046f61046a8761046588611612565b61214e565b612355565b61239390919063ffffffff16565b915050610556565b600060030160009054906101000a900473ffffffffffffffffffffffffffffffffffffffff1673ffffffffffffffffffffffffffffffffffffffff168373ffffffffffffffffffffffffffffffffffffffff16141561051957610511662386f26fc100006105036104fe876104f988611612565b61214e565b612355565b61239390919063ffffffff16565b915050610556565b826040517fcacddcb300000000000000000000000000000000000000000000000000000000815260040161054d9190613457565b60405180910390fd5b92915050565b6000806105738360006120cc90919063ffffffff16565b90506000600a01600082815260200190815260200160002060060160009054906101000a900460ff161561067857610670633b9aca00610662600060040160009054906101000a900473ffffffffffffffffffffffffffffffffffffffff1673ffffffffffffffffffffffffffffffffffffffff166332da80a3876040518263ffffffff1660e01b815260040161060a9190613457565b602060405180830381865afa158015610627573d6000803e3d6000fd5b505050506040513d601f19601f8201168201806040525081019061064b9190613487565b61065487610724565b6123a990919063ffffffff16565b61239390919063ffffffff16565b91505061071f565b600060030160009054906101000a900473ffffffffffffffffffffffffffffffffffffffff1673ffffffffffffffffffffffffffffffffffffffff168373ffffffffffffffffffffffffffffffffffffffff1614156106e2576106da83610724565b91505061071f565b826040517fcacddcb30000000000000000000000000000000000000000000000000000000081526004016107169190613457565b60405180910390fd5b919050565b6000806000800160009054906101000a900473ffffffffffffffffffffffffffffffffffffffff1673ffffffffffffffffffffffffffffffffffffffff166318160ddd6040518163ffffffff1660e01b8152600401602060405180830381865afa158015610796573d6000803e3d6000fd5b505050506040513d601f19601f820116820180604052508101906107ba9190613487565b9050610806670de0b6b3a76400006107f86107f36107ed633b9aca006107df89611426565b6123a990919063ffffffff16565b8561214e565b612355565b61239390919063ffffffff16565b915050919050565b6000806108258360006120cc90919063ffffffff16565b9050600061083385856108d3565b9050600080600c0160008773ffffffffffffffffffffffffffffffffffffffff1673ffffffffffffffffffffffffffffffffffffffff168152602001908152602001600020600084815260200190815260200160002060000154905061271082106108a0578093506108ca565b6108c76127106108b984846123a990919063ffffffff16565b61239390919063ffffffff16565b93505b50505092915050565b6000806108ea8360006120cc90919063ffffffff16565b9050600080600c0160008673ffffffffffffffffffffffffffffffffffffffff1673ffffffffffffffffffffffffffffffffffffffff16815260200190815260200160002060008381526020019081526020016000206040518060800160405290816000820154815260200160018201548152602001600282015481526020016003820154815250509050600061098e8260400151426123bf90919063ffffffff16565b905060008260600151905060008111156109d0576109c9816109bb612710856123a990919063ffffffff16565b61239390919063ffffffff16565b94506109d5565b600094505b5050505092915050565b60008073ffffffffffffffffffffffffffffffffffffffff168373ffffffffffffffffffffffffffffffffffffffff161415610a50576040517f08c379a0000000000000000000000000000000000000000000000000000000008152600401610a4790613511565b60405180910390fd5b6000610a668360006120cc90919063ffffffff16565b9050610a71836123d5565b6000600a016000828152602001908152602001600020600401546000600d016000838152602001908152602001600020541115610ae3576040517f08c379a0000000000000000000000000000000000000000000000000000000008152600401610ada9061357d565b60405180910390fd5b6000610aee84611c99565b90506000610afb85612457565b905080871015610b40576040517f08c379a0000000000000000000000000000000000000000000000000000000008152600401610b379061360f565b60405180910390fd5b60008060040160009054906101000a900473ffffffffffffffffffffffffffffffffffffffff1673ffffffffffffffffffffffffffffffffffffffff1663d1b317e5878b6040518363ffffffff1660e01b8152600401610ba192919061362f565b602060405180830381865afa158015610bbe573d6000803e3d6000fd5b505050506040513d601f19601f82011682018060405250810190610be29190613487565b90506000610bf08288610405565b905062989680811015610c38576040517f08c379a0000000000000000000000000000000000000000000000000000000008152600401610c2f906136a4565b60405180910390fd5b610c4187611fd8565b811115610c83576040517f08c379a0000000000000000000000000000000000000000000000000000000008152600401610c7a90613710565b60405180910390fd5b6000610cc5612710610cb76000600a0160008a815260200190815260200160002060030154856123a990919063ffffffff16565b61239390919063ffffffff16565b90506000610cdc83856123bf90919063ffffffff16565b905060008111156111fc57610cfa82826123bf90919063ffffffff16565b90506000600a01600088815260200190815260200160002060060160009054906101000a900460ff1615610ea457610d5533308e8c73ffffffffffffffffffffffffffffffffffffffff16612646909392919063ffffffff16565b8873ffffffffffffffffffffffffffffffffffffffff1663095ea7b3600060040160009054906101000a900473ffffffffffffffffffffffffffffffffffffffff168e6040518363ffffffff1660e01b8152600401610db592919061362f565b6020604051808303816000875af1158015610dd4573d6000803e3d6000fd5b505050506040513d601f19601f82011682018060405250810190610df8919061375c565b50600060040160009054906101000a900473ffffffffffffffffffffffffffffffffffffffff1673ffffffffffffffffffffffffffffffffffffffff1663bc157ac18d8b846040518463ffffffff1660e01b8152600401610e5b93929190613789565b6020604051808303816000875af1158015610e7a573d6000803e3d6000fd5b505050506040513d601f19601f82011682018060405250810190610e9e9190613487565b506110b7565b600060030160009054906101000a900473ffffffffffffffffffffffffffffffffffffffff1673ffffffffffffffffffffffffffffffffffffffff168973ffffffffffffffffffffffffffffffffffffffff16141561107957610f2a33308e8c73ffffffffffffffffffffffffffffffffffffffff16612646909392919063ffffffff16565b8873ffffffffffffffffffffffffffffffffffffffff1663095ea7b3600060040160009054906101000a900473ffffffffffffffffffffffffffffffffffffffff168e6040518363ffffffff1660e01b8152600401610f8a92919061362f565b6020604051808303816000875af1158015610fa9573d6000803e3d6000fd5b505050506040513d601f19601f82011682018060405250810190610fcd919061375c565b50600060040160009054906101000a900473ffffffffffffffffffffffffffffffffffffffff1673ffffffffffffffffffffffffffffffffffffffff1663bc157ac18d8b846040518463ffffffff1660e01b815260040161103093929190613789565b6020604051808303816000875af115801561104f573d6000803e3d6000fd5b505050506040513d601f19601f820116820180604052508101906110739190613487565b506110b6565b886040517fcacddcb30000000000000000000000000000000000000000000000000000000081526004016110ad9190613457565b60405180910390fd5b5b600082146111fb57600073ffffffffffffffffffffffffffffffffffffffff16600060050160009054906101000a900473ffffffffffffffffffffffffffffffffffffffff1673ffffffffffffffffffffffffffffffffffffffff161461114957611147600060050160009054906101000a900473ffffffffffffffffffffffffffffffffffffffff16836126cf565b505b600073ffffffffffffffffffffffffffffffffffffffff16600060060160009054906101000a900473ffffffffffffffffffffffffffffffffffffffff1673ffffffffffffffffffffffffffffffffffffffff16146111fa576111f8600060060160009054906101000a900473ffffffffffffffffffffffffffffffffffffffff166111f36127106111e56064886123a990919063ffffffff16565b61239390919063ffffffff16565b6126cf565b505b5b5b611225846000600d0160008a8152602001908152602001600020546127fc90919063ffffffff16565b6000600d0160008981526020019081526020016000208190555060405180608001604052806112b3856000600c0160008f73ffffffffffffffffffffffffffffffffffffffff1673ffffffffffffffffffffffffffffffffffffffff16815260200190815260200160002060008c8152602001908152602001600020600001546127fc90919063ffffffff16565b81526020018781526020014281526020016000600a0160008a8152602001908152602001600020600501548152506000600c0160008c73ffffffffffffffffffffffffffffffffffffffff1673ffffffffffffffffffffffffffffffffffffffff1681526020019081526020016000206000898152602001908152602001600020600082015181600001556020820151816001015560408201518160020155606082015181600301559050508561138c6000600a0160008a815260200190815260200160002060050154426127fc90919063ffffffff16565b847f1fec6dc81f140574bf43f6b1e420ae1dd47928b9d57db8cbd7b8611063b85ae58f6040516113bc91906131e2565b60405180910390a46113cd89610724565b6113d68a612457565b6113df8b611c99565b7f375b221f40939bfd8f49723a17cf7bc6d576ebf72efe2cc3e991826f5b3f390a60405160405180910390a461141489612812565b82975050505050505050949350505050565b60008061143d8360006120cc90919063ffffffff16565b905061147061144b84611efd565b6000600d016000848152602001908152602001600020546123bf90919063ffffffff16565b915050919050565b60008061148f8360006120cc90919063ffffffff16565b9050600080600b016000838152602001908152602001600020905060006114b5856129de565b90508160000160009054906101000a900460ff1615611501576114fa816000600a016000868152602001908152602001600020600001546127fc90919063ffffffff16565b935061155b565b806000600a0160008581526020019081526020016000206000015411156115555761154e816000600a016000868152602001908152602001600020600001546123bf90919063ffffffff16565b935061155a565b600193505b5b505050919050565b61156b613062565b60006115818360006120cc90919063ffffffff16565b90506000600c0160008573ffffffffffffffffffffffffffffffffffffffff1673ffffffffffffffffffffffffffffffffffffffff168152602001908152602001600020600082815260200190815260200160002060405180608001604052908160008201548152602001600182015481526020016002820154815260200160038201548152505091505092915050565b6000806116298360006120cc90919063ffffffff16565b90506000600a01600082815260200190815260200160002060060160009054906101000a900460ff16156116bd576116b6629896806116a8633b9aca0061169a61167288610724565b6000600a016000888152602001908152602001600020600001546123a990919063ffffffff16565b6127fc90919063ffffffff16565b61239390919063ffffffff16565b9150611779565b600060030160009054906101000a900473ffffffffffffffffffffffffffffffffffffffff1673ffffffffffffffffffffffffffffffffffffffff168373ffffffffffffffffffffffffffffffffffffffff1614156117785761177562989680611767633b9aca0061175961173188610724565b6000600a016000888152602001908152602001600020600001546123a990919063ffffffff16565b6127fc90919063ffffffff16565b61239390919063ffffffff16565b91505b5b6000600a016000828152602001908152602001600020600101548210156117b7576000600a0160008281526020019081526020016000206001015491505b50919050565b6000806117d48360006120cc90919063ffffffff16565b9050600080601001600083815260200190815260200160002060009054906101000a900473ffffffffffffffffffffffffffffffffffffffff1673ffffffffffffffffffffffffffffffffffffffff1663feaf968c6040518163ffffffff1660e01b815260040160a060405180830381865afa158015611858573d6000803e3d6000fd5b505050506040513d601f19601f8201168201806040525081019061187c919061382e565b5050509150508092505050919050565b6000806118a38360006120cc90919063ffffffff16565b9050600080600c0160008673ffffffffffffffffffffffffffffffffffffffff1673ffffffffffffffffffffffffffffffffffffffff16815260200190815260200160002060008381526020019081526020016000206040518060800160405290816000820154815260200160018201548152602001600282015481526020016003820154815250509050600061193a86866108d3565b90506127108110611a28576000600c0160008773ffffffffffffffffffffffffffffffffffffffff1673ffffffffffffffffffffffffffffffffffffffff168152602001908152602001600020600084815260200190815260200160002060008082016000905560018201600090556002820160009055600382016000905550508573ffffffffffffffffffffffffffffffffffffffff167f51c99f515c87b0d95ba97f616edd182e8f161c4932eac17c6fefe9dab58b77b183600001516000604051611a089291906138ee565b60405180910390a2611a1e8683600001516126cf565b9350505050611bf3565b6000611a55612710611a478486600001516123a990919063ffffffff16565b61239390919063ffffffff16565b90506040518060800160405280611a798386600001516123bf90919063ffffffff16565b815260200184602001518152602001428152602001611abb611aa88660400151426123bf90919063ffffffff16565b86606001516123bf90919063ffffffff16565b8152506000600c0160008973ffffffffffffffffffffffffffffffffffffffff1673ffffffffffffffffffffffffffffffffffffffff1681526020019081526020016000206000868152602001908152602001600020600082015181600001556020820151816001015560408201518160020155606082015181600301559050508673ffffffffffffffffffffffffffffffffffffffff167f51c99f515c87b0d95ba97f616edd182e8f161c4932eac17c6fefe9dab58b77b1826000600c0160008b73ffffffffffffffffffffffffffffffffffffffff1673ffffffffffffffffffffffffffffffffffffffff168152602001908152602001600020600088815260200190815260200160002060000154604051611bda929190613917565b60405180910390a2611bec87826126cf565b9450505050505b92915050565b611c0161308a565b6000611c178360006120cc90919063ffffffff16565b90506000600a0160008281526020019081526020016000206040518060e00160405290816000820154815260200160018201548152602001600282015481526020016003820154815260200160048201548152602001600582015481526020016006820160009054906101000a900460ff161515151581525050915050919050565b600080611cb08360006120cc90919063ffffffff16565b90506000600a01600082815260200190815260200160002060060160009054906101000a900460ff1615611db157611daa6064611d9c600060040160009054906101000a900473ffffffffffffffffffffffffffffffffffffffff1673ffffffffffffffffffffffffffffffffffffffff166332da80a3876040518263ffffffff1660e01b8152600401611d449190613457565b602060405180830381865afa158015611d61573d6000803e3d6000fd5b505050506040513d601f19601f82011682018060405250810190611d859190613487565b611d8e87611612565b6123a990919063ffffffff16565b61239390919063ffffffff16565b9150611ef7565b600060030160009054906101000a900473ffffffffffffffffffffffffffffffffffffffff1673ffffffffffffffffffffffffffffffffffffffff168373ffffffffffffffffffffffffffffffffffffffff161415611eb957611eb26064611ea48573ffffffffffffffffffffffffffffffffffffffff1663313ce5676040518163ffffffff1660e01b8152600401602060405180830381865afa158015611e5d573d6000803e3d6000fd5b505050506040513d601f19601f82011682018060405250810190611e819190613979565b600a611e8d9190613b08565b611e9687611612565b6123a990919063ffffffff16565b61239390919063ffffffff16565b9150611ef6565b826040517fcacddcb3000000000000000000000000000000000000000000000000000000008152600401611eed9190613457565b60405180910390fd5b5b50919050565b600080611f148360006120cc90919063ffffffff16565b90506000611f416000600e01600084815260200190815260200160002054426123bf90919063ffffffff16565b9050611f976000600a01600084815260200190815260200160002060050154611f89836000600d016000878152602001908152602001600020546123a990919063ffffffff16565b61239390919063ffffffff16565b92506000600d01600083815260200190815260200160002054831115611fd1576000600d0160008381526020019081526020016000205492505b5050919050565b600080611fef8360006120cc90919063ffffffff16565b90506120c4620186a06120b66000600a016000858152602001908152602001600020600201546000800160009054906101000a900473ffffffffffffffffffffffffffffffffffffffff1673ffffffffffffffffffffffffffffffffffffffff166318160ddd6040518163ffffffff1660e01b8152600401602060405180830381865afa158015612084573d6000803e3d6000fd5b505050506040513d601f19601f820116820180604052508101906120a89190613487565b6123a990919063ffffffff16565b61239390919063ffffffff16565b915050919050565b6000806120db84600801612aba565b905060005b81811015612145578373ffffffffffffffffffffffffffffffffffffffff1661210c8660080183612acf565b73ffffffffffffffffffffffffffffffffffffffff161415612132578092505050612148565b808061213d90613b53565b9150506120e0565b50505b92915050565b6121566130c9565b60008211612199576040517f08c379a000000000000000000000000000000000000000000000000000000000815260040161219090613c0e565b60405180910390fd5b60008314156121d757604051806020016040528060007bffffffffffffffffffffffffffffffffffffffffffffffffffffffff16815250905061234f565b71ffffffffffffffffffffffffffffffffffff8016831161229f57600082607060ff1685901b6122079190613c5d565b90507bffffffffffffffffffffffffffffffffffffffffffffffffffffffff801681111561226a576040517f08c379a000000000000000000000000000000000000000000000000000000000815260040161226190613cda565b60405180910390fd5b6040518060200160405280827bffffffffffffffffffffffffffffffffffffffffffffffffffffffff1681525091505061234f565b60006122bb846e01000000000000000000000000000085612ae9565b90507bffffffffffffffffffffffffffffffffffffffffffffffffffffffff801681111561231e576040517f08c379a000000000000000000000000000000000000000000000000000000000815260040161231590613cda565b60405180910390fd5b6040518060200160405280827bffffffffffffffffffffffffffffffffffffffffffffffffffffffff168152509150505b92915050565b60006612725dd1d243ab82600001517bffffffffffffffffffffffffffffffffffffffffffffffffffffffff1661238c9190613c5d565b9050919050565b600081836123a19190613c5d565b905092915050565b600081836123b79190613cfa565b905092915050565b600081836123cd9190613d54565b905092915050565b60006123eb8260006120cc90919063ffffffff16565b905061241e6123f983611efd565b6000600d016000848152602001908152602001600020546123bf90919063ffffffff16565b6000600d01600083815260200190815260200160002081905550426000600e016000838152602001908152602001600020819055505050565b60008061246e8360006120cc90919063ffffffff16565b90506000600a01600082815260200190815260200160002060060160009054906101000a900460ff1615612502576124fb629896806124ed633b9aca006124df6124b788610724565b6000600a016000888152602001908152602001600020600001546123a990919063ffffffff16565b6127fc90919063ffffffff16565b61239390919063ffffffff16565b91506125be565b600060030160009054906101000a900473ffffffffffffffffffffffffffffffffffffffff1673ffffffffffffffffffffffffffffffffffffffff168373ffffffffffffffffffffffffffffffffffffffff1614156125bd576125ba629896806125ac633b9aca0061259e61257688610724565b6000600a016000888152602001908152602001600020600001546123a990919063ffffffff16565b6127fc90919063ffffffff16565b61239390919063ffffffff16565b91505b5b6000600a01600082815260200190815260200160002060010154821015612600576000600a016000828152602001908152602001600020600101549150612640565b600080600a016000838152602001908152602001600020600101541461263f57600080600a016000838152602001908152602001600020600101819055505b5b50919050565b6126c9846323b872dd60e01b85858560405160240161266793929190613d88565b604051602081830303815290604052907bffffffffffffffffffffffffffffffffffffffffffffffffffffffff19166020820180517bffffffffffffffffffffffffffffffffffffffffffffffffffffffff8381831617835250505050612b91565b50505050565b60008060000160009054906101000a900473ffffffffffffffffffffffffffffffffffffffff1673ffffffffffffffffffffffffffffffffffffffff1663095ea7b330846040518363ffffffff1660e01b815260040161273092919061362f565b6020604051808303816000875af115801561274f573d6000803e3d6000fd5b505050506040513d601f19601f82011682018060405250810190612773919061375c565b503073ffffffffffffffffffffffffffffffffffffffff16637acb775783856040518363ffffffff1660e01b81526004016127af929190613dbf565b6020604051808303816000875af11580156127ce573d6000803e3d6000fd5b505050506040513d601f19601f820116820180604052508101906127f2919061375c565b5081905092915050565b6000818361280a9190613de8565b905092915050565b60006128288260006120cc90919063ffffffff16565b9050600080600b0160008381526020019081526020016000209050600080600a016000848152602001908152602001600020905060008260010154118015612874575060008260020154115b156129d857600081600001549050600061289b8460030154426123bf90919063ffffffff16565b905060006128a8876129de565b9050808560010154106128d9576128cc8186600101546123bf90919063ffffffff16565b85600101819055506128e4565b600085600101819055505b81856002015410612913576129068286600201546123bf90919063ffffffff16565b856002018190555061291e565b600085600201819055505b8460000160009054906101000a900460ff16156129595761294c8185600001546127fc90919063ffffffff16565b8460000181905550612979565b6129708185600001546123bf90919063ffffffff16565b84600001819055505b4285600301819055507fb923e581a0f83128e9e1d8297aa52b18d6744310476e0b54509c054cd7a93b2a838560000154838860000160009054906101000a900460ff166040516129cc9493929190613e4d565b60405180910390a15050505b50505050565b6000806129f58360006120cc90919063ffffffff16565b9050600080600b0160008381526020019081526020016000206040518060800160405290816000820160009054906101000a900460ff16151515158152602001600182015481526020016002820154815260200160038201548152505090506000612a6d8260600151426123bf90919063ffffffff16565b9050612a9c8260400151612a8e8385602001516123a990919063ffffffff16565b61239390919063ffffffff16565b93508160200151841115612ab257816020015193505b505050919050565b6000612ac882600001612c58565b9050919050565b6000612ade8360000183612c69565b60001c905092915050565b6000806000612af88686612c94565b9150915060008480612b0d57612b0c613c2e565b5b868809905082811115612b2a57600182612b279190613d54565b91505b8083612b369190613d54565b9250848210612b7a576040517f08c379a0000000000000000000000000000000000000000000000000000000008152600401612b7190613ede565b60405180910390fd5b612b85838387612d09565b93505050509392505050565b6000612bf3826040518060400160405280602081526020017f5361666545524332303a206c6f772d6c6576656c2063616c6c206661696c65648152508573ffffffffffffffffffffffffffffffffffffffff16612ebc9092919063ffffffff16565b9050600081511115612c535780806020019051810190612c13919061375c565b612c52576040517f08c379a0000000000000000000000000000000000000000000000000000000008152600401612c4990613f70565b60405180910390fd5b5b505050565b600081600001805490509050919050565b6000826000018281548110612c8157612c80613f90565b5b9060005260206000200154905092915050565b60008060007fffffffffffffffffffffffffffffffffffffffffffffffffffffffffffffffff80612cc857612cc7613c2e565b5b84860990508385612cd99190613cfa565b92508281612ce79190613d54565b915082811015612d0157600182612cfe9190613d54565b91505b509250929050565b60008060018319612d1a9190613de8565b831690508083612d2a9190613c5d565b92508085612d389190613c5d565b945060018160018319612d4b9190613de8565b612d559190613c5d565b612d5f9190613de8565b84612d6a9190613cfa565b85612d759190613de8565b94506000600190508084612d899190613cfa565b6002612d959190613d54565b81612da09190613cfa565b90508084612dae9190613cfa565b6002612dba9190613d54565b81612dc59190613cfa565b90508084612dd39190613cfa565b6002612ddf9190613d54565b81612dea9190613cfa565b90508084612df89190613cfa565b6002612e049190613d54565b81612e0f9190613cfa565b90508084612e1d9190613cfa565b6002612e299190613d54565b81612e349190613cfa565b90508084612e429190613cfa565b6002612e4e9190613d54565b81612e599190613cfa565b90508084612e679190613cfa565b6002612e739190613d54565b81612e7e9190613cfa565b90508084612e8c9190613cfa565b6002612e989190613d54565b81612ea39190613cfa565b90508086612eb19190613cfa565b925050509392505050565b6060612ecb8484600085612ed4565b90509392505050565b606082471015612f19576040517f08c379a0000000000000000000000000000000000000000000000000000000008152600401612f1090614031565b60405180910390fd5b612f2285612fe8565b612f61576040517f08c379a0000000000000000000000000000000000000000000000000000000008152600401612f589061409d565b60405180910390fd5b6000808673ffffffffffffffffffffffffffffffffffffffff168587604051612f8a9190614137565b60006040518083038185875af1925050503d8060008114612fc7576040519150601f19603f3d011682016040523d82523d6000602084013e612fcc565b606091505b5091509150612fdc828286612ffb565b92505050949350505050565b600080823b905060008111915050919050565b6060831561300b5782905061305b565b60008351111561301e5782518084602001fd5b816040517f08c379a000000000000000000000000000000000000000000000000000000000815260040161305291906141a3565b60405180910390fd5b9392505050565b6040518060800160405280600081526020016000815260200160008152602001600081525090565b6040518060e001604052806000815260200160008152602001600081526020016000815260200160008152602001600081526020016000151581525090565b604051806020016040528060007bffffffffffffffffffffffffffffffffffffffffffffffffffffffff1681525090565b600080fd5b6000819050919050565b613112816130ff565b811461311d57600080fd5b50565b60008135905061312f81613109565b92915050565b600073ffffffffffffffffffffffffffffffffffffffff82169050919050565b600061316082613135565b9050919050565b61317081613155565b811461317b57600080fd5b50565b60008135905061318d81613167565b92915050565b600080604083850312156131aa576131a96130fa565b5b60006131b885828601613120565b92505060206131c98582860161317e565b9150509250929050565b6131dc816130ff565b82525050565b60006020820190506131f760008301846131d3565b92915050565b600060208284031215613213576132126130fa565b5b60006132218482850161317e565b91505092915050565b60008060408385031215613241576132406130fa565b5b600061324f8582860161317e565b92505060206132608582860161317e565b9150509250929050565b60008060008060808587031215613284576132836130fa565b5b600061329287828801613120565b94505060206132a387828801613120565b93505060406132b48782880161317e565b92505060606132c58782880161317e565b91505092959194509250565b6132da816130ff565b82525050565b6080820160008201516132f660008501826132d1565b50602082015161330960208501826132d1565b50604082015161331c60408501826132d1565b50606082015161332f60608501826132d1565b50505050565b600060808201905061334a60008301846132e0565b92915050565b6000819050919050565b61336381613350565b82525050565b600060208201905061337e600083018461335a565b92915050565b60008115159050919050565b61339981613384565b82525050565b60e0820160008201516133b560008501826132d1565b5060208201516133c860208501826132d1565b5060408201516133db60408501826132d1565b5060608201516133ee60608501826132d1565b50608082015161340160808501826132d1565b5060a082015161341460a08501826132d1565b5060c082015161342760c0850182613390565b50505050565b600060e082019050613442600083018461339f565b92915050565b61345181613155565b82525050565b600060208201905061346c6000830184613448565b92915050565b60008151905061348181613109565b92915050565b60006020828403121561349d5761349c6130fa565b5b60006134ab84828501613472565b91505092915050565b600082825260208201905092915050565b7f496e76616c696420616464726573730000000000000000000000000000000000600082015250565b60006134fb600f836134b4565b9150613506826134c5565b602082019050919050565b6000602082019050818103600083015261352a816134ee565b9050919050565b7f4d61782063617061636974792072656163686564000000000000000000000000600082015250565b60006135676014836134b4565b915061357282613531565b602082019050919050565b600060208201905081810360008301526135968161355a565b9050919050565b7f536c697070616765206c696d69743a206d6f7265207468616e206d617820707260008201527f6963650000000000000000000000000000000000000000000000000000000000602082015250565b60006135f96023836134b4565b91506136048261359d565b604082019050919050565b60006020820190508181036000830152613628816135ec565b9050919050565b60006040820190506136446000830185613448565b61365160208301846131d3565b9392505050565b7f426f6e6420746f6f20736d616c6c000000000000000000000000000000000000600082015250565b600061368e600e836134b4565b915061369982613658565b602082019050919050565b600060208201905081810360008301526136bd81613681565b9050919050565b7f426f6e6420746f6f206c61726765000000000000000000000000000000000000600082015250565b60006136fa600e836134b4565b9150613705826136c4565b602082019050919050565b60006020820190508181036000830152613729816136ed565b9050919050565b61373981613384565b811461374457600080fd5b50565b60008151905061375681613730565b92915050565b600060208284031215613772576137716130fa565b5b600061378084828501613747565b91505092915050565b600060608201905061379e60008301866131d3565b6137ab6020830185613448565b6137b860408301846131d3565b949350505050565b600069ffffffffffffffffffff82169050919050565b6137df816137c0565b81146137ea57600080fd5b50565b6000815190506137fc816137d6565b92915050565b61380b81613350565b811461381657600080fd5b50565b60008151905061382881613802565b92915050565b600080600080600060a0868803121561384a576138496130fa565b5b6000613858888289016137ed565b955050602061386988828901613819565b945050604061387a88828901613472565b935050606061388b88828901613472565b925050608061389c888289016137ed565b9150509295509295909350565b6000819050919050565b6000819050919050565b60006138d86138d36138ce846138a9565b6138b3565b6130ff565b9050919050565b6138e8816138bd565b82525050565b600060408201905061390360008301856131d3565b61391060208301846138df565b9392505050565b600060408201905061392c60008301856131d3565b61393960208301846131d3565b9392505050565b600060ff82169050919050565b61395681613940565b811461396157600080fd5b50565b6000815190506139738161394d565b92915050565b60006020828403121561398f5761398e6130fa565b5b600061399d84828501613964565b91505092915050565b7f4e487b7100000000000000000000000000000000000000000000000000000000600052601160045260246000fd5b60008160011c9050919050565b6000808291508390505b6001851115613a2c57808604811115613a0857613a076139a6565b5b6001851615613a175780820291505b8081029050613a25856139d5565b94506139ec565b94509492505050565b600082613a455760019050613b01565b81613a535760009050613b01565b8160018114613a695760028114613a7357613aa2565b6001915050613b01565b60ff841115613a8557613a846139a6565b5b8360020a915084821115613a9c57613a9b6139a6565b5b50613b01565b5060208310610133831016604e8410600b8410161715613ad75782820a905083811115613ad257613ad16139a6565b5b613b01565b613ae484848460016139e2565b92509050818404811115613afb57613afa6139a6565b5b81810290505b9392505050565b6000613b13826130ff565b9150613b1e83613940565b9250613b4b7fffffffffffffffffffffffffffffffffffffffffffffffffffffffffffffffff8484613a35565b905092915050565b6000613b5e826130ff565b91507fffffffffffffffffffffffffffffffffffffffffffffffffffffffffffffffff821415613b9157613b906139a6565b5b600182019050919050565b7f4669786564506f696e743a3a6672616374696f6e3a206469766973696f6e206260008201527f79207a65726f0000000000000000000000000000000000000000000000000000602082015250565b6000613bf86026836134b4565b9150613c0382613b9c565b604082019050919050565b60006020820190508181036000830152613c2781613beb565b9050919050565b7f4e487b7100000000000000000000000000000000000000000000000000000000600052601260045260246000fd5b6000613c68826130ff565b9150613c73836130ff565b925082613c8357613c82613c2e565b5b828204905092915050565b7f4669786564506f696e743a3a6672616374696f6e3a206f766572666c6f770000600082015250565b6000613cc4601e836134b4565b9150613ccf82613c8e565b602082019050919050565b60006020820190508181036000830152613cf381613cb7565b9050919050565b6000613d05826130ff565b9150613d10836130ff565b9250817fffffffffffffffffffffffffffffffffffffffffffffffffffffffffffffffff0483118215151615613d4957613d486139a6565b5b828202905092915050565b6000613d5f826130ff565b9150613d6a836130ff565b925082821015613d7d57613d7c6139a6565b5b828203905092915050565b6000606082019050613d9d6000830186613448565b613daa6020830185613448565b613db760408301846131d3565b949350505050565b6000604082019050613dd460008301856131d3565b613de16020830184613448565b9392505050565b6000613df3826130ff565b9150613dfe836130ff565b9250827fffffffffffffffffffffffffffffffffffffffffffffffffffffffffffffffff03821115613e3357613e326139a6565b5b828201905092915050565b613e4781613384565b82525050565b6000608082019050613e6260008301876131d3565b613e6f60208301866131d3565b613e7c60408301856131d3565b613e896060830184613e3e565b95945050505050565b7f46756c6c4d6174683a3a6d756c4469763a206f766572666c6f77000000000000600082015250565b6000613ec8601a836134b4565b9150613ed382613e92565b602082019050919050565b60006020820190508181036000830152613ef781613ebb565b9050919050565b7f5361666545524332303a204552433230206f7065726174696f6e20646964206e60008201527f6f74207375636365656400000000000000000000000000000000000000000000602082015250565b6000613f5a602a836134b4565b9150613f6582613efe565b604082019050919050565b60006020820190508181036000830152613f8981613f4d565b9050919050565b7f4e487b7100000000000000000000000000000000000000000000000000000000600052603260045260246000fd5b7f416464726573733a20696e73756666696369656e742062616c616e636520666f60008201527f722063616c6c0000000000000000000000000000000000000000000000000000602082015250565b600061401b6026836134b4565b915061402682613fbf565b604082019050919050565b6000602082019050818103600083015261404a8161400e565b9050919050565b7f416464726573733a2063616c6c20746f206e6f6e2d636f6e7472616374000000600082015250565b6000614087601d836134b4565b915061409282614051565b602082019050919050565b600060208201905081810360008301526140b68161407a565b9050919050565b600081519050919050565b600081905092915050565b60005b838110156140f15780820151818401526020810190506140d6565b83811115614100576000848401525b50505050565b6000614111826140bd565b61411b81856140c8565b935061412b8185602086016140d3565b80840191505092915050565b60006141438284614106565b915081905092915050565b600081519050919050565b6000601f19601f8301169050919050565b60006141758261414e565b61417f81856134b4565b935061418f8185602086016140d3565b61419881614159565b840191505092915050565b600060208201905081810360008301526141bd818461416a565b90509291505056fea26469706673582212207390770d2bae70e906ced21ce51d6ee89636d80573f0ae2fbc146ac4a07702bb64736f6c634300080a0033",
  "devdoc": {
    "kind": "dev",
    "methods": {
      "bondPrice(address)": {
        "returns": {
          "price_": "uint"
        }
      },
      "bondPriceInUSD(address)": {
        "returns": {
          "price_": "uint"
        }
      },
      "currentDebt(address)": {
        "returns": {
          "_0": "uint"
        }
      },
      "debtDecay(address)": {
        "returns": {
          "decay_": "uint"
        }
      },
      "debtRatio(address)": {
        "returns": {
          "debtRatio_": "uint"
        }
      },
      "deposit(uint256,uint256,address,address)": {
        "params": {
          "_amount": "uint",
          "_depositor": "address",
          "_maxPrice": "uint"
        },
        "returns": {
          "_0": "uint"
        }
      },
      "maxPayout(address)": {
        "returns": {
          "_0": "uint"
        }
      },
      "payoutFor(uint256,address)": {
        "params": {
          "_value": "uint"
        },
        "returns": {
          "_0": "uint"
        }
      },
      "pendingPayoutFor(address,address)": {
        "params": {
          "_depositor": "address"
        },
        "returns": {
          "pendingPayout_": "uint"
        }
      },
      "percentVestedFor(address,address)": {
        "params": {
          "_depositor": "address"
        },
        "returns": {
          "percentVested_": "uint"
        }
      },
      "redeem(address,address)": {
        "params": {
          "_principle": "address",
          "_recipient": "address"
        },
        "returns": {
          "_0": "uint"
        }
      },
      "standardizedDebtRatio(address)": {
        "returns": {
          "_0": "uint"
        }
      }
    },
    "version": 1
  },
  "userdoc": {
    "kind": "user",
    "methods": {
      "assetPrice(address)": {
        "notice": "get asset price from chainlink"
      },
      "bondPrice(address)": {
        "notice": "calculate current bond premium"
      },
      "bondPriceInUSD(address)": {
        "notice": "converts bond price to DAI value"
      },
      "currentDebt(address)": {
        "notice": "calculate debt factoring in decay"
      },
      "debtDecay(address)": {
        "notice": "amount to decay total debt by"
      },
      "debtRatio(address)": {
        "notice": "calculate current ratio of debt to Necc supply"
      },
      "deposit(uint256,uint256,address,address)": {
        "notice": "deposit bond"
      },
      "maxPayout(address)": {
        "notice": "determine maximum bond size"
      },
      "payoutFor(uint256,address)": {
        "notice": "calculate interest due for new bond"
      },
      "pendingPayoutFor(address,address)": {
        "notice": "calculate amount of Necc available for claim by depositor"
      },
      "percentVestedFor(address,address)": {
        "notice": "calculate how far into vesting a depositor is"
      },
      "redeem(address,address)": {
        "notice": "redeem bond for user"
      },
      "standardizedDebtRatio(address)": {
        "notice": "debt ratio in same terms for reserve or liquidity bonds"
      }
    },
    "version": 1
  },
  "storageLayout": {
    "storage": [
      {
        "astId": 7142,
        "contract": "contracts/facets/Bond/BondDepositoryFacet.sol:BondDepositoryFacet",
        "label": "s",
        "offset": 0,
        "slot": "0",
        "type": "t_struct(Storage)20809_storage"
      }
    ],
    "types": {
      "t_address": {
        "encoding": "inplace",
        "label": "address",
        "numberOfBytes": "20"
      },
      "t_array(t_bytes32)dyn_storage": {
        "base": "t_bytes32",
        "encoding": "dynamic_array",
        "label": "bytes32[]",
        "numberOfBytes": "32"
      },
      "t_array(t_struct(Info)20663_storage)dyn_storage": {
        "base": "t_struct(Info)20663_storage",
        "encoding": "dynamic_array",
        "label": "struct LibBondStorage.Info[]",
        "numberOfBytes": "32"
      },
      "t_array(t_struct(Payout)20658_storage)dyn_storage": {
        "base": "t_struct(Payout)20658_storage",
        "encoding": "dynamic_array",
        "label": "struct LibBondStorage.Payout[]",
        "numberOfBytes": "32"
      },
      "t_bool": {
        "encoding": "inplace",
        "label": "bool",
        "numberOfBytes": "1"
      },
      "t_bytes32": {
        "encoding": "inplace",
        "label": "bytes32",
        "numberOfBytes": "32"
      },
      "t_mapping(t_address,t_mapping(t_uint256,t_struct(Bond)20694_storage))": {
        "encoding": "mapping",
        "key": "t_address",
        "label": "mapping(address => mapping(uint256 => struct LibBondStorage.Bond))",
        "numberOfBytes": "32",
        "value": "t_mapping(t_uint256,t_struct(Bond)20694_storage)"
      },
      "t_mapping(t_address,t_struct(Claim)20721_storage)": {
        "encoding": "mapping",
        "key": "t_address",
        "label": "mapping(address => struct LibBondStorage.Claim)",
        "numberOfBytes": "32",
        "value": "t_struct(Claim)20721_storage"
      },
      "t_mapping(t_bytes32,t_uint256)": {
        "encoding": "mapping",
        "key": "t_bytes32",
        "label": "mapping(bytes32 => uint256)",
        "numberOfBytes": "32",
        "value": "t_uint256"
      },
      "t_mapping(t_uint256,t_address)": {
        "encoding": "mapping",
        "key": "t_uint256",
        "label": "mapping(uint256 => address)",
        "numberOfBytes": "32",
        "value": "t_address"
      },
      "t_mapping(t_uint256,t_array(t_struct(Payout)20658_storage)dyn_storage)": {
        "encoding": "mapping",
        "key": "t_uint256",
        "label": "mapping(uint256 => struct LibBondStorage.Payout[])",
        "numberOfBytes": "32",
        "value": "t_array(t_struct(Payout)20658_storage)dyn_storage"
      },
      "t_mapping(t_uint256,t_struct(Bond)20694_storage)": {
        "encoding": "mapping",
        "key": "t_uint256",
        "label": "mapping(uint256 => struct LibBondStorage.Bond)",
        "numberOfBytes": "32",
        "value": "t_struct(Bond)20694_storage"
      },
      "t_mapping(t_uint256,t_struct(BondDepositoryAdjustment)20703_storage)": {
        "encoding": "mapping",
        "key": "t_uint256",
        "label": "mapping(uint256 => struct LibBondStorage.BondDepositoryAdjustment)",
        "numberOfBytes": "32",
        "value": "t_struct(BondDepositoryAdjustment)20703_storage"
      },
      "t_mapping(t_uint256,t_struct(DistributorAdjustment)20670_storage)": {
        "encoding": "mapping",
        "key": "t_uint256",
        "label": "mapping(uint256 => struct LibBondStorage.DistributorAdjustment)",
        "numberOfBytes": "32",
        "value": "t_struct(DistributorAdjustment)20670_storage"
      },
      "t_mapping(t_uint256,t_struct(Terms)20685_storage)": {
        "encoding": "mapping",
        "key": "t_uint256",
        "label": "mapping(uint256 => struct LibBondStorage.Terms)",
        "numberOfBytes": "32",
        "value": "t_struct(Terms)20685_storage"
      },
      "t_mapping(t_uint256,t_uint256)": {
        "encoding": "mapping",
        "key": "t_uint256",
        "label": "mapping(uint256 => uint256)",
        "numberOfBytes": "32",
        "value": "t_uint256"
      },
      "t_struct(AddressSet)1348_storage": {
        "encoding": "inplace",
        "label": "struct EnumerableSet.AddressSet",
        "members": [
          {
            "astId": 1347,
            "contract": "contracts/facets/Bond/BondDepositoryFacet.sol:BondDepositoryFacet",
            "label": "_inner",
            "offset": 0,
            "slot": "0",
            "type": "t_struct(Set)1047_storage"
          }
        ],
        "numberOfBytes": "64"
      },
      "t_struct(Bond)20694_storage": {
        "encoding": "inplace",
        "label": "struct LibBondStorage.Bond",
        "members": [
          {
            "astId": 20687,
            "contract": "contracts/facets/Bond/BondDepositoryFacet.sol:BondDepositoryFacet",
            "label": "payout",
            "offset": 0,
            "slot": "0",
            "type": "t_uint256"
          },
          {
            "astId": 20689,
            "contract": "contracts/facets/Bond/BondDepositoryFacet.sol:BondDepositoryFacet",
            "label": "pricePaid",
            "offset": 0,
            "slot": "1",
            "type": "t_uint256"
          },
          {
            "astId": 20691,
            "contract": "contracts/facets/Bond/BondDepositoryFacet.sol:BondDepositoryFacet",
            "label": "lastTime",
            "offset": 0,
            "slot": "2",
            "type": "t_uint256"
          },
          {
            "astId": 20693,
            "contract": "contracts/facets/Bond/BondDepositoryFacet.sol:BondDepositoryFacet",
            "label": "vesting",
            "offset": 0,
            "slot": "3",
            "type": "t_uint256"
          }
        ],
        "numberOfBytes": "128"
      },
      "t_struct(BondDepositoryAdjustment)20703_storage": {
        "encoding": "inplace",
        "label": "struct LibBondStorage.BondDepositoryAdjustment",
        "members": [
          {
            "astId": 20696,
            "contract": "contracts/facets/Bond/BondDepositoryFacet.sol:BondDepositoryFacet",
            "label": "add",
            "offset": 0,
            "slot": "0",
            "type": "t_bool"
          },
          {
            "astId": 20698,
            "contract": "contracts/facets/Bond/BondDepositoryFacet.sol:BondDepositoryFacet",
            "label": "delta",
            "offset": 0,
            "slot": "1",
            "type": "t_uint256"
          },
          {
            "astId": 20700,
            "contract": "contracts/facets/Bond/BondDepositoryFacet.sol:BondDepositoryFacet",
            "label": "timeToTarget",
            "offset": 0,
            "slot": "2",
            "type": "t_uint256"
          },
          {
            "astId": 20702,
            "contract": "contracts/facets/Bond/BondDepositoryFacet.sol:BondDepositoryFacet",
            "label": "lastTime",
            "offset": 0,
            "slot": "3",
            "type": "t_uint256"
          }
        ],
        "numberOfBytes": "128"
      },
      "t_struct(Claim)20721_storage": {
        "encoding": "inplace",
        "label": "struct LibBondStorage.Claim",
        "members": [
          {
            "astId": 20714,
            "contract": "contracts/facets/Bond/BondDepositoryFacet.sol:BondDepositoryFacet",
            "label": "deposit",
            "offset": 0,
            "slot": "0",
            "type": "t_uint256"
          },
          {
            "astId": 20716,
            "contract": "contracts/facets/Bond/BondDepositoryFacet.sol:BondDepositoryFacet",
            "label": "gons",
            "offset": 0,
            "slot": "1",
            "type": "t_uint256"
          },
          {
            "astId": 20718,
            "contract": "contracts/facets/Bond/BondDepositoryFacet.sol:BondDepositoryFacet",
            "label": "expiry",
            "offset": 0,
            "slot": "2",
            "type": "t_uint256"
          },
          {
            "astId": 20720,
            "contract": "contracts/facets/Bond/BondDepositoryFacet.sol:BondDepositoryFacet",
            "label": "lock",
            "offset": 0,
            "slot": "3",
            "type": "t_bool"
          }
        ],
        "numberOfBytes": "128"
      },
      "t_struct(DistributorAdjustment)20670_storage": {
        "encoding": "inplace",
        "label": "struct LibBondStorage.DistributorAdjustment",
        "members": [
          {
            "astId": 20665,
            "contract": "contracts/facets/Bond/BondDepositoryFacet.sol:BondDepositoryFacet",
            "label": "add",
            "offset": 0,
            "slot": "0",
            "type": "t_bool"
          },
          {
            "astId": 20667,
            "contract": "contracts/facets/Bond/BondDepositoryFacet.sol:BondDepositoryFacet",
            "label": "rate",
            "offset": 0,
            "slot": "1",
            "type": "t_uint256"
          },
          {
            "astId": 20669,
            "contract": "contracts/facets/Bond/BondDepositoryFacet.sol:BondDepositoryFacet",
            "label": "target",
            "offset": 0,
            "slot": "2",
            "type": "t_uint256"
          }
        ],
        "numberOfBytes": "96"
      },
      "t_struct(Epoch)20712_storage": {
        "encoding": "inplace",
        "label": "struct LibBondStorage.Epoch",
        "members": [
          {
            "astId": 20705,
            "contract": "contracts/facets/Bond/BondDepositoryFacet.sol:BondDepositoryFacet",
            "label": "number",
            "offset": 0,
            "slot": "0",
            "type": "t_uint256"
          },
          {
            "astId": 20707,
            "contract": "contracts/facets/Bond/BondDepositoryFacet.sol:BondDepositoryFacet",
            "label": "distribute",
            "offset": 0,
            "slot": "1",
            "type": "t_uint256"
          },
          {
            "astId": 20709,
            "contract": "contracts/facets/Bond/BondDepositoryFacet.sol:BondDepositoryFacet",
            "label": "length",
            "offset": 0,
            "slot": "2",
            "type": "t_uint256"
          },
          {
            "astId": 20711,
            "contract": "contracts/facets/Bond/BondDepositoryFacet.sol:BondDepositoryFacet",
            "label": "endTime",
            "offset": 0,
            "slot": "3",
            "type": "t_uint256"
          }
        ],
        "numberOfBytes": "128"
      },
      "t_struct(Info)20663_storage": {
        "encoding": "inplace",
        "label": "struct LibBondStorage.Info",
        "members": [
          {
            "astId": 20660,
            "contract": "contracts/facets/Bond/BondDepositoryFacet.sol:BondDepositoryFacet",
            "label": "rate",
            "offset": 0,
            "slot": "0",
            "type": "t_uint256"
          },
          {
            "astId": 20662,
            "contract": "contracts/facets/Bond/BondDepositoryFacet.sol:BondDepositoryFacet",
            "label": "recipient",
            "offset": 0,
            "slot": "1",
            "type": "t_address"
          }
        ],
        "numberOfBytes": "64"
      },
      "t_struct(Payout)20658_storage": {
        "encoding": "inplace",
        "label": "struct LibBondStorage.Payout",
        "members": [
          {
            "astId": 20655,
            "contract": "contracts/facets/Bond/BondDepositoryFacet.sol:BondDepositoryFacet",
            "label": "amount",
            "offset": 0,
            "slot": "0",
            "type": "t_uint256"
          },
          {
            "astId": 20657,
            "contract": "contracts/facets/Bond/BondDepositoryFacet.sol:BondDepositoryFacet",
            "label": "blockTimestamp",
            "offset": 0,
            "slot": "1",
            "type": "t_uint256"
          }
        ],
        "numberOfBytes": "64"
      },
      "t_struct(Set)1047_storage": {
        "encoding": "inplace",
        "label": "struct EnumerableSet.Set",
        "members": [
          {
            "astId": 1042,
            "contract": "contracts/facets/Bond/BondDepositoryFacet.sol:BondDepositoryFacet",
            "label": "_values",
            "offset": 0,
            "slot": "0",
            "type": "t_array(t_bytes32)dyn_storage"
          },
          {
            "astId": 1046,
            "contract": "contracts/facets/Bond/BondDepositoryFacet.sol:BondDepositoryFacet",
            "label": "_indexes",
            "offset": 0,
            "slot": "1",
            "type": "t_mapping(t_bytes32,t_uint256)"
          }
        ],
        "numberOfBytes": "64"
      },
      "t_struct(Storage)20809_storage": {
        "encoding": "inplace",
        "label": "struct LibBondStorage.Storage",
        "members": [
          {
            "astId": 20723,
            "contract": "contracts/facets/Bond/BondDepositoryFacet.sol:BondDepositoryFacet",
            "label": "Necc",
            "offset": 0,
            "slot": "0",
            "type": "t_address"
          },
          {
            "astId": 20725,
            "contract": "contracts/facets/Bond/BondDepositoryFacet.sol:BondDepositoryFacet",
            "label": "sNecc",
            "offset": 0,
            "slot": "1",
            "type": "t_address"
          },
          {
            "astId": 20727,
            "contract": "contracts/facets/Bond/BondDepositoryFacet.sol:BondDepositoryFacet",
            "label": "nNecc",
            "offset": 0,
            "slot": "2",
            "type": "t_address"
          },
          {
            "astId": 20729,
            "contract": "contracts/facets/Bond/BondDepositoryFacet.sol:BondDepositoryFacet",
            "label": "ndol",
            "offset": 0,
            "slot": "3",
            "type": "t_address"
          },
          {
            "astId": 20731,
            "contract": "contracts/facets/Bond/BondDepositoryFacet.sol:BondDepositoryFacet",
            "label": "treasury",
            "offset": 0,
            "slot": "4",
            "type": "t_address"
          },
          {
            "astId": 20733,
            "contract": "contracts/facets/Bond/BondDepositoryFacet.sol:BondDepositoryFacet",
            "label": "DAO",
            "offset": 0,
            "slot": "5",
            "type": "t_address"
          },
          {
            "astId": 20735,
            "contract": "contracts/facets/Bond/BondDepositoryFacet.sol:BondDepositoryFacet",
            "label": "farmDistributor",
            "offset": 0,
            "slot": "6",
            "type": "t_address"
          },
          {
            "astId": 20737,
            "contract": "contracts/facets/Bond/BondDepositoryFacet.sol:BondDepositoryFacet",
            "label": "staking",
            "offset": 0,
            "slot": "7",
            "type": "t_address"
          },
          {
            "astId": 20740,
            "contract": "contracts/facets/Bond/BondDepositoryFacet.sol:BondDepositoryFacet",
            "label": "principles",
            "offset": 0,
            "slot": "8",
            "type": "t_struct(AddressSet)1348_storage"
          },
          {
            "astId": 20745,
            "contract": "contracts/facets/Bond/BondDepositoryFacet.sol:BondDepositoryFacet",
            "label": "terms",
            "offset": 0,
            "slot": "10",
            "type": "t_mapping(t_uint256,t_struct(Terms)20685_storage)"
          },
          {
            "astId": 20750,
            "contract": "contracts/facets/Bond/BondDepositoryFacet.sol:BondDepositoryFacet",
            "label": "bondDepositoryAdjustment",
            "offset": 0,
            "slot": "11",
            "type": "t_mapping(t_uint256,t_struct(BondDepositoryAdjustment)20703_storage)"
          },
          {
            "astId": 20757,
            "contract": "contracts/facets/Bond/BondDepositoryFacet.sol:BondDepositoryFacet",
            "label": "bondInfo",
            "offset": 0,
            "slot": "12",
            "type": "t_mapping(t_address,t_mapping(t_uint256,t_struct(Bond)20694_storage))"
          },
          {
            "astId": 20761,
            "contract": "contracts/facets/Bond/BondDepositoryFacet.sol:BondDepositoryFacet",
            "label": "totalDebt",
            "offset": 0,
            "slot": "13",
            "type": "t_mapping(t_uint256,t_uint256)"
          },
          {
            "astId": 20765,
            "contract": "contracts/facets/Bond/BondDepositoryFacet.sol:BondDepositoryFacet",
            "label": "lastDecay",
            "offset": 0,
            "slot": "14",
            "type": "t_mapping(t_uint256,t_uint256)"
          },
          {
            "astId": 20769,
            "contract": "contracts/facets/Bond/BondDepositoryFacet.sol:BondDepositoryFacet",
            "label": "nextEpochTimestamp",
            "offset": 0,
            "slot": "15",
            "type": "t_mapping(t_uint256,t_uint256)"
          },
          {
            "astId": 20773,
            "contract": "contracts/facets/Bond/BondDepositoryFacet.sol:BondDepositoryFacet",
            "label": "priceFeeds",
            "offset": 0,
            "slot": "16",
            "type": "t_mapping(t_uint256,t_address)"
          },
          {
            "astId": 20777,
            "contract": "contracts/facets/Bond/BondDepositoryFacet.sol:BondDepositoryFacet",
            "label": "info",
            "offset": 0,
            "slot": "17",
            "type": "t_array(t_struct(Info)20663_storage)dyn_storage"
          },
          {
            "astId": 20782,
            "contract": "contracts/facets/Bond/BondDepositoryFacet.sol:BondDepositoryFacet",
            "label": "distributorAdjustments",
            "offset": 0,
            "slot": "18",
            "type": "t_mapping(t_uint256,t_struct(DistributorAdjustment)20670_storage)"
          },
          {
            "astId": 20785,
            "contract": "contracts/facets/Bond/BondDepositoryFacet.sol:BondDepositoryFacet",
            "label": "epoch",
            "offset": 0,
            "slot": "19",
            "type": "t_struct(Epoch)20712_storage"
          },
          {
            "astId": 20787,
            "contract": "contracts/facets/Bond/BondDepositoryFacet.sol:BondDepositoryFacet",
            "label": "epochLength",
            "offset": 0,
            "slot": "23",
            "type": "t_uint256"
          },
          {
            "astId": 20789,
            "contract": "contracts/facets/Bond/BondDepositoryFacet.sol:BondDepositoryFacet",
            "label": "distributor",
            "offset": 0,
            "slot": "24",
            "type": "t_address"
          },
          {
            "astId": 20791,
            "contract": "contracts/facets/Bond/BondDepositoryFacet.sol:BondDepositoryFacet",
            "label": "locker",
            "offset": 0,
            "slot": "25",
            "type": "t_address"
          },
          {
            "astId": 20793,
            "contract": "contracts/facets/Bond/BondDepositoryFacet.sol:BondDepositoryFacet",
            "label": "warmupPeriod",
            "offset": 0,
            "slot": "26",
            "type": "t_uint256"
          },
          {
            "astId": 20798,
            "contract": "contracts/facets/Bond/BondDepositoryFacet.sol:BondDepositoryFacet",
            "label": "warmupInfo",
            "offset": 0,
            "slot": "27",
            "type": "t_mapping(t_address,t_struct(Claim)20721_storage)"
          },
          {
            "astId": 20800,
            "contract": "contracts/facets/Bond/BondDepositoryFacet.sol:BondDepositoryFacet",
            "label": "targetSum",
            "offset": 0,
            "slot": "28",
            "type": "t_uint256"
          },
          {
            "astId": 20806,
            "contract": "contracts/facets/Bond/BondDepositoryFacet.sol:BondDepositoryFacet",
            "label": "payouts",
            "offset": 0,
            "slot": "29",
            "type": "t_mapping(t_uint256,t_array(t_struct(Payout)20658_storage)dyn_storage)"
          },
          {
            "astId": 20808,
            "contract": "contracts/facets/Bond/BondDepositoryFacet.sol:BondDepositoryFacet",
            "label": "gonsInWarmup",
            "offset": 0,
            "slot": "30",
            "type": "t_uint256"
          }
        ],
        "numberOfBytes": "992"
      },
      "t_struct(Terms)20685_storage": {
        "encoding": "inplace",
        "label": "struct LibBondStorage.Terms",
        "members": [
          {
            "astId": 20672,
            "contract": "contracts/facets/Bond/BondDepositoryFacet.sol:BondDepositoryFacet",
            "label": "controlVariable",
            "offset": 0,
            "slot": "0",
            "type": "t_uint256"
          },
          {
            "astId": 20674,
            "contract": "contracts/facets/Bond/BondDepositoryFacet.sol:BondDepositoryFacet",
            "label": "minimumPrice",
            "offset": 0,
            "slot": "1",
            "type": "t_uint256"
          },
          {
            "astId": 20676,
            "contract": "contracts/facets/Bond/BondDepositoryFacet.sol:BondDepositoryFacet",
            "label": "maxPayout",
            "offset": 0,
            "slot": "2",
            "type": "t_uint256"
          },
          {
            "astId": 20678,
            "contract": "contracts/facets/Bond/BondDepositoryFacet.sol:BondDepositoryFacet",
            "label": "fee",
            "offset": 0,
            "slot": "3",
            "type": "t_uint256"
          },
          {
            "astId": 20680,
            "contract": "contracts/facets/Bond/BondDepositoryFacet.sol:BondDepositoryFacet",
            "label": "maxDebt",
            "offset": 0,
            "slot": "4",
            "type": "t_uint256"
          },
          {
            "astId": 20682,
            "contract": "contracts/facets/Bond/BondDepositoryFacet.sol:BondDepositoryFacet",
            "label": "vestingTerm",
            "offset": 0,
            "slot": "5",
            "type": "t_uint256"
          },
          {
            "astId": 20684,
            "contract": "contracts/facets/Bond/BondDepositoryFacet.sol:BondDepositoryFacet",
            "label": "isLiquidityBond",
            "offset": 0,
            "slot": "6",
            "type": "t_bool"
          }
        ],
        "numberOfBytes": "224"
      },
      "t_uint256": {
        "encoding": "inplace",
        "label": "uint256",
        "numberOfBytes": "32"
      }
    }
  }
}