{
  "address": "0x18350648AE02721F0F002417C6f9D4251584D431",
  "abi": [
    {
      "inputs": [
        {
          "internalType": "address",
          "name": "_principle",
          "type": "address"
        }
      ],
      "name": "InvalidPrinciple",
      "type": "error"
    },
    {
      "anonymous": false,
      "inputs": [
        {
          "indexed": false,
          "internalType": "uint256",
          "name": "deposit",
          "type": "uint256"
        },
        {
          "indexed": true,
          "internalType": "uint256",
          "name": "payout",
          "type": "uint256"
        },
        {
          "indexed": true,
          "internalType": "uint256",
          "name": "expires",
          "type": "uint256"
        },
        {
          "indexed": true,
          "internalType": "uint256",
          "name": "priceInUSD",
          "type": "uint256"
        }
      ],
      "name": "BondCreated",
      "type": "event"
    },
    {
      "anonymous": false,
      "inputs": [
        {
          "indexed": true,
          "internalType": "uint256",
          "name": "priceInUSD",
          "type": "uint256"
        },
        {
          "indexed": true,
          "internalType": "uint256",
          "name": "internalPrice",
          "type": "uint256"
        },
        {
          "indexed": true,
          "internalType": "uint256",
          "name": "debtRatio",
          "type": "uint256"
        }
      ],
      "name": "BondPriceChanged",
      "type": "event"
    },
    {
      "anonymous": false,
      "inputs": [
        {
          "indexed": true,
          "internalType": "address",
          "name": "recipient",
          "type": "address"
        },
        {
          "indexed": false,
          "internalType": "uint256",
          "name": "payout",
          "type": "uint256"
        },
        {
          "indexed": false,
          "internalType": "uint256",
          "name": "remaining",
          "type": "uint256"
        }
      ],
      "name": "BondRedeemed",
      "type": "event"
    },
    {
      "anonymous": false,
      "inputs": [
        {
          "indexed": false,
          "internalType": "uint256",
          "name": "initialBCV",
          "type": "uint256"
        },
        {
          "indexed": false,
          "internalType": "uint256",
          "name": "newBCV",
          "type": "uint256"
        },
        {
          "indexed": false,
          "internalType": "uint256",
          "name": "adjustment",
          "type": "uint256"
        },
        {
          "indexed": false,
          "internalType": "bool",
          "name": "addition",
          "type": "bool"
        }
      ],
      "name": "ControlVariableAdjustment",
      "type": "event"
    },
    {
      "inputs": [
        {
          "internalType": "address",
          "name": "_principle",
          "type": "address"
        }
      ],
      "name": "BCV",
      "outputs": [
        {
          "internalType": "uint256",
          "name": "BCV_",
          "type": "uint256"
        }
      ],
      "stateMutability": "view",
      "type": "function"
    },
    {
      "inputs": [
        {
          "internalType": "address",
          "name": "_depositor",
          "type": "address"
        },
        {
          "internalType": "address",
          "name": "_principle",
          "type": "address"
        }
      ],
      "name": "bondInfo",
      "outputs": [
        {
          "components": [
            {
              "internalType": "uint256",
              "name": "payout",
              "type": "uint256"
            },
            {
              "internalType": "uint256",
              "name": "pricePaid",
              "type": "uint256"
            },
            {
              "internalType": "uint256",
              "name": "lastTime",
              "type": "uint256"
            },
            {
              "internalType": "uint256",
              "name": "vesting",
              "type": "uint256"
            }
          ],
          "internalType": "struct LibBondStorage.Bond",
          "name": "",
          "type": "tuple"
        }
      ],
      "stateMutability": "view",
      "type": "function"
    },
    {
      "inputs": [
        {
          "internalType": "address",
          "name": "_principle",
          "type": "address"
        }
      ],
      "name": "bondPrice",
      "outputs": [
        {
          "internalType": "uint256",
          "name": "price_",
          "type": "uint256"
        }
      ],
      "stateMutability": "view",
      "type": "function"
    },
    {
      "inputs": [
        {
          "internalType": "address",
          "name": "_principle",
          "type": "address"
        }
      ],
      "name": "bondPriceInUSD",
      "outputs": [
        {
          "internalType": "uint256",
          "name": "price_",
          "type": "uint256"
        }
      ],
      "stateMutability": "view",
      "type": "function"
    },
    {
      "inputs": [
        {
          "internalType": "address",
          "name": "_principle",
          "type": "address"
        }
      ],
      "name": "currentDebt",
      "outputs": [
        {
          "internalType": "uint256",
          "name": "",
          "type": "uint256"
        }
      ],
      "stateMutability": "view",
      "type": "function"
    },
    {
      "inputs": [
        {
          "internalType": "address",
          "name": "_principle",
          "type": "address"
        }
      ],
      "name": "debtDecay",
      "outputs": [
        {
          "internalType": "uint256",
          "name": "decay_",
          "type": "uint256"
        }
      ],
      "stateMutability": "view",
      "type": "function"
    },
    {
      "inputs": [
        {
          "internalType": "address",
          "name": "_principle",
          "type": "address"
        }
      ],
      "name": "debtRatio",
      "outputs": [
        {
          "internalType": "uint256",
          "name": "debtRatio_",
          "type": "uint256"
        }
      ],
      "stateMutability": "view",
      "type": "function"
    },
    {
      "inputs": [
        {
          "internalType": "uint256",
          "name": "_amount",
          "type": "uint256"
        },
        {
          "internalType": "uint256",
          "name": "_maxPrice",
          "type": "uint256"
        },
        {
          "internalType": "address",
          "name": "_depositor",
          "type": "address"
        },
        {
          "internalType": "address",
          "name": "_principle",
          "type": "address"
        }
      ],
      "name": "deposit",
      "outputs": [
        {
          "internalType": "uint256",
          "name": "",
          "type": "uint256"
        }
      ],
      "stateMutability": "nonpayable",
      "type": "function"
    },
    {
      "inputs": [
        {
          "internalType": "address",
          "name": "_principle",
          "type": "address"
        }
      ],
      "name": "maxPayout",
      "outputs": [
        {
          "internalType": "uint256",
          "name": "",
          "type": "uint256"
        }
      ],
      "stateMutability": "view",
      "type": "function"
    },
    {
      "inputs": [
        {
          "internalType": "uint256",
          "name": "_value",
          "type": "uint256"
        },
        {
          "internalType": "address",
          "name": "_principle",
          "type": "address"
        }
      ],
      "name": "payoutFor",
      "outputs": [
        {
          "internalType": "uint256",
          "name": "",
          "type": "uint256"
        }
      ],
      "stateMutability": "view",
      "type": "function"
    },
    {
      "inputs": [
        {
          "internalType": "address",
          "name": "_depositor",
          "type": "address"
        },
        {
          "internalType": "address",
          "name": "_principle",
          "type": "address"
        }
      ],
      "name": "pendingPayoutFor",
      "outputs": [
        {
          "internalType": "uint256",
          "name": "pendingPayout_",
          "type": "uint256"
        }
      ],
      "stateMutability": "view",
      "type": "function"
    },
    {
      "inputs": [
        {
          "internalType": "address",
          "name": "_depositor",
          "type": "address"
        },
        {
          "internalType": "address",
          "name": "_principle",
          "type": "address"
        }
      ],
      "name": "percentVestedFor",
      "outputs": [
        {
          "internalType": "uint256",
          "name": "percentVested_",
          "type": "uint256"
        }
      ],
      "stateMutability": "view",
      "type": "function"
    },
    {
      "inputs": [
        {
          "internalType": "address",
          "name": "_recipient",
          "type": "address"
        },
        {
          "internalType": "address",
          "name": "_principle",
          "type": "address"
        }
      ],
      "name": "redeem",
      "outputs": [
        {
          "internalType": "uint256",
          "name": "",
          "type": "uint256"
        }
      ],
      "stateMutability": "nonpayable",
      "type": "function"
    },
    {
      "inputs": [
        {
          "internalType": "address",
          "name": "_principle",
          "type": "address"
        }
      ],
      "name": "standardizedDebtRatio",
      "outputs": [
        {
          "internalType": "uint256",
          "name": "",
          "type": "uint256"
        }
      ],
      "stateMutability": "view",
      "type": "function"
    },
    {
      "inputs": [
        {
          "internalType": "address",
          "name": "_principle",
          "type": "address"
        }
      ],
      "name": "terms",
      "outputs": [
        {
          "components": [
            {
              "internalType": "uint256",
              "name": "controlVariable",
              "type": "uint256"
            },
            {
              "internalType": "uint256",
              "name": "minimumPrice",
              "type": "uint256"
            },
            {
              "internalType": "uint256",
              "name": "maxPayout",
              "type": "uint256"
            },
            {
              "internalType": "uint256",
              "name": "fee",
              "type": "uint256"
            },
            {
              "internalType": "uint256",
              "name": "maxDebt",
              "type": "uint256"
            },
            {
              "internalType": "uint256",
              "name": "vestingTerm",
              "type": "uint256"
            },
            {
              "internalType": "bool",
              "name": "isLiquidityBond",
              "type": "bool"
            }
          ],
          "internalType": "struct LibBondStorage.Terms",
          "name": "",
          "type": "tuple"
        }
      ],
      "stateMutability": "view",
      "type": "function"
    }
  ],
  "transactionHash": "0xeed0d30882df2dd88269a772c3f80c848958aeebc3a484189d5c6b59f6249414",
  "args": [],
  "solcInputHash": "51e0a29016eb8a808231ef727f964484",
  "bytecode": "0x608060405234801561001057600080fd5b50613fd1806100206000396000f3fe608060405234801561001057600080fd5b50600436106100f55760003560e01c8063aa58834511610097578063c8c819ac11610066578063c8c819ac1461030a578063dc1d35a21461033a578063de8d97081461036a578063e300e98b1461039a576100f5565b8063aa5883451461024a578063ad5fe5eb1461027a578063b11512e2146102aa578063bba06f27146102da576100f5565b8063415d9f65116100d3578063415d9f651461018a5780636fcb5622146101ba57806384715b11146101ea578063884719f21461021a576100f5565b80630523f1c3146100fa5780632ddc14651461012a5780632f74f4611461015a575b600080fd5b610114600480360381019061010f9190613086565b6103ca565b60405161012191906130d5565b60405180910390f35b610144600480360381019061013f91906130f0565b610521565b60405161015191906130d5565b60405180910390f35b610174600480360381019061016f91906130f0565b6106e9565b60405161018191906130d5565b60405180910390f35b6101a4600480360381019061019f919061311d565b6107cf565b6040516101b191906130d5565b60405180910390f35b6101d460048036038101906101cf919061311d565b610894565b6040516101e191906130d5565b60405180910390f35b61020460048036038101906101ff919061315d565b6109a0565b60405161021191906130d5565b60405180910390f35b610234600480360381019061022f91906130f0565b6113e7565b60405161024191906130d5565b60405180910390f35b610264600480360381019061025f91906130f0565b611439565b60405161027191906130d5565b60405180910390f35b610294600480360381019061028f919061311d565b611524565b6040516102a19190613228565b60405180910390f35b6102c460048036038101906102bf91906130f0565b6115d3565b6040516102d191906130d5565b60405180910390f35b6102f460048036038101906102ef919061311d565b61177e565b60405161030191906130d5565b60405180910390f35b610324600480360381019061031f91906130f0565b611aeb565b60405161033191906132ec565b60405180910390f35b610354600480360381019061034f91906130f0565b611b8b565b60405161036191906130d5565b60405180910390f35b610384600480360381019061037f91906130f0565b611def565b60405161039191906130d5565b60405180910390f35b6103b460048036038101906103af91906130f0565b611eca565b6040516103c191906130d5565b60405180910390f35b6000806103e1836000611fbf90919063ffffffff16565b90506000600a01600082815260200190815260200160002060060160009054906101000a900460ff161561044a57610442662386f26fc1000061043461042f8761042a886115d3565b612041565b612248565b61228690919063ffffffff16565b91505061051b565b600060030160009054906101000a900473ffffffffffffffffffffffffffffffffffffffff1673ffffffffffffffffffffffffffffffffffffffff168373ffffffffffffffffffffffffffffffffffffffff1614156104de576104d6662386f26fc100006104c86104c3876104be886115d3565b612041565b612248565b61228690919063ffffffff16565b91505061051b565b826040517fcacddcb30000000000000000000000000000000000000000000000000000000081526004016105129190613316565b60405180910390fd5b92915050565b600080610538836000611fbf90919063ffffffff16565b90506000600a01600082815260200190815260200160002060060160009054906101000a900460ff161561063d57610635633b9aca00610627600060040160009054906101000a900473ffffffffffffffffffffffffffffffffffffffff1673ffffffffffffffffffffffffffffffffffffffff166332da80a3876040518263ffffffff1660e01b81526004016105cf9190613316565b602060405180830381865afa1580156105ec573d6000803e3d6000fd5b505050506040513d601f19601f820116820180604052508101906106109190613346565b610619876106e9565b61229c90919063ffffffff16565b61228690919063ffffffff16565b9150506106e4565b600060030160009054906101000a900473ffffffffffffffffffffffffffffffffffffffff1673ffffffffffffffffffffffffffffffffffffffff168373ffffffffffffffffffffffffffffffffffffffff1614156106a75761069f836106e9565b9150506106e4565b826040517fcacddcb30000000000000000000000000000000000000000000000000000000081526004016106db9190613316565b60405180910390fd5b919050565b60006107c8670de0b6b3a76400006107ba6107b561071c633b9aca0061070e886113e7565b61229c90919063ffffffff16565b600060040160009054906101000a900473ffffffffffffffffffffffffffffffffffffffff1673ffffffffffffffffffffffffffffffffffffffff1663860f50486040518163ffffffff1660e01b8152600401602060405180830381865afa15801561078c573d6000803e3d6000fd5b505050506040513d601f19601f820116820180604052508101906107b09190613346565b612041565b612248565b61228690919063ffffffff16565b9050919050565b6000806107e6836000611fbf90919063ffffffff16565b905060006107f48585610894565b9050600080600c0160008773ffffffffffffffffffffffffffffffffffffffff1673ffffffffffffffffffffffffffffffffffffffff168152602001908152602001600020600084815260200190815260200160002060000154905061271082106108615780935061088b565b61088861271061087a848461229c90919063ffffffff16565b61228690919063ffffffff16565b93505b50505092915050565b6000806108ab836000611fbf90919063ffffffff16565b9050600080600c0160008673ffffffffffffffffffffffffffffffffffffffff1673ffffffffffffffffffffffffffffffffffffffff16815260200190815260200160002060008381526020019081526020016000206040518060800160405290816000820154815260200160018201548152602001600282015481526020016003820154815250509050600061094f8260400151426122b290919063ffffffff16565b905060008260600151905060008111156109915761098a8161097c6127108561229c90919063ffffffff16565b61228690919063ffffffff16565b9450610996565b600094505b5050505092915050565b60008073ffffffffffffffffffffffffffffffffffffffff168373ffffffffffffffffffffffffffffffffffffffff161415610a11576040517f08c379a0000000000000000000000000000000000000000000000000000000008152600401610a08906133d0565b60405180910390fd5b6000610a27836000611fbf90919063ffffffff16565b9050610a32836122c8565b6000600a016000828152602001908152602001600020600401546000600d016000838152602001908152602001600020541115610aa4576040517f08c379a0000000000000000000000000000000000000000000000000000000008152600401610a9b9061343c565b60405180910390fd5b6000610aaf84611b8b565b90506000610abc8561234a565b905080871015610b01576040517f08c379a0000000000000000000000000000000000000000000000000000000008152600401610af8906134ce565b60405180910390fd5b60008060040160009054906101000a900473ffffffffffffffffffffffffffffffffffffffff1673ffffffffffffffffffffffffffffffffffffffff1663d1b317e5878b6040518363ffffffff1660e01b8152600401610b629291906134ee565b602060405180830381865afa158015610b7f573d6000803e3d6000fd5b505050506040513d601f19601f82011682018060405250810190610ba39190613346565b90506000610bb182886103ca565b905062989680811015610bf9576040517f08c379a0000000000000000000000000000000000000000000000000000000008152600401610bf090613563565b60405180910390fd5b610c0287611eca565b811115610c44576040517f08c379a0000000000000000000000000000000000000000000000000000000008152600401610c3b906135cf565b60405180910390fd5b6000610c86612710610c786000600a0160008a8152602001908152602001600020600301548561229c90919063ffffffff16565b61228690919063ffffffff16565b90506000610c9d83856122b290919063ffffffff16565b905060008111156111bd57610cbb82826122b290919063ffffffff16565b90506000600a01600088815260200190815260200160002060060160009054906101000a900460ff1615610e6557610d1633308e8c73ffffffffffffffffffffffffffffffffffffffff16612539909392919063ffffffff16565b8873ffffffffffffffffffffffffffffffffffffffff1663095ea7b3600060040160009054906101000a900473ffffffffffffffffffffffffffffffffffffffff168e6040518363ffffffff1660e01b8152600401610d769291906134ee565b6020604051808303816000875af1158015610d95573d6000803e3d6000fd5b505050506040513d601f19601f82011682018060405250810190610db9919061361b565b50600060040160009054906101000a900473ffffffffffffffffffffffffffffffffffffffff1673ffffffffffffffffffffffffffffffffffffffff1663bc157ac18d8b846040518463ffffffff1660e01b8152600401610e1c93929190613648565b6020604051808303816000875af1158015610e3b573d6000803e3d6000fd5b505050506040513d601f19601f82011682018060405250810190610e5f9190613346565b50611078565b600060030160009054906101000a900473ffffffffffffffffffffffffffffffffffffffff1673ffffffffffffffffffffffffffffffffffffffff168973ffffffffffffffffffffffffffffffffffffffff16141561103a57610eeb33308e8c73ffffffffffffffffffffffffffffffffffffffff16612539909392919063ffffffff16565b8873ffffffffffffffffffffffffffffffffffffffff1663095ea7b3600060040160009054906101000a900473ffffffffffffffffffffffffffffffffffffffff168e6040518363ffffffff1660e01b8152600401610f4b9291906134ee565b6020604051808303816000875af1158015610f6a573d6000803e3d6000fd5b505050506040513d601f19601f82011682018060405250810190610f8e919061361b565b50600060040160009054906101000a900473ffffffffffffffffffffffffffffffffffffffff1673ffffffffffffffffffffffffffffffffffffffff1663bc157ac18d8b846040518463ffffffff1660e01b8152600401610ff193929190613648565b6020604051808303816000875af1158015611010573d6000803e3d6000fd5b505050506040513d601f19601f820116820180604052508101906110349190613346565b50611077565b886040517fcacddcb300000000000000000000000000000000000000000000000000000000815260040161106e9190613316565b60405180910390fd5b5b600082146111bc57600073ffffffffffffffffffffffffffffffffffffffff16600060050160009054906101000a900473ffffffffffffffffffffffffffffffffffffffff1673ffffffffffffffffffffffffffffffffffffffff161461110a57611108600060050160009054906101000a900473ffffffffffffffffffffffffffffffffffffffff16836125c2565b505b600073ffffffffffffffffffffffffffffffffffffffff16600060060160009054906101000a900473ffffffffffffffffffffffffffffffffffffffff1673ffffffffffffffffffffffffffffffffffffffff16146111bb576111b9600060060160009054906101000a900473ffffffffffffffffffffffffffffffffffffffff166111b46127106111a660648861229c90919063ffffffff16565b61228690919063ffffffff16565b6125c2565b505b5b5b6111e6846000600d0160008a8152602001908152602001600020546126ef90919063ffffffff16565b6000600d016000898152602001908152602001600020819055506040518060800160405280611274856000600c0160008f73ffffffffffffffffffffffffffffffffffffffff1673ffffffffffffffffffffffffffffffffffffffff16815260200190815260200160002060008c8152602001908152602001600020600001546126ef90919063ffffffff16565b81526020018781526020014281526020016000600a0160008a8152602001908152602001600020600501548152506000600c0160008c73ffffffffffffffffffffffffffffffffffffffff1673ffffffffffffffffffffffffffffffffffffffff1681526020019081526020016000206000898152602001908152602001600020600082015181600001556020820151816001015560408201518160020155606082015181600301559050508561134d6000600a0160008a815260200190815260200160002060050154426126ef90919063ffffffff16565b847f1fec6dc81f140574bf43f6b1e420ae1dd47928b9d57db8cbd7b8611063b85ae58f60405161137d91906130d5565b60405180910390a461138e896106e9565b6113978a61234a565b6113a08b611b8b565b7f375b221f40939bfd8f49723a17cf7bc6d576ebf72efe2cc3e991826f5b3f390a60405160405180910390a46113d589612705565b82975050505050505050949350505050565b6000806113fe836000611fbf90919063ffffffff16565b905061143161140c84611def565b6000600d016000848152602001908152602001600020546122b290919063ffffffff16565b915050919050565b600080611450836000611fbf90919063ffffffff16565b9050600080600b01600083815260200190815260200160002090506000611476856128d1565b90508160000160009054906101000a900460ff16156114c2576114bb816000600a016000868152602001908152602001600020600001546126ef90919063ffffffff16565b935061151c565b806000600a0160008581526020019081526020016000206000015411156115165761150f816000600a016000868152602001908152602001600020600001546122b290919063ffffffff16565b935061151b565b600193505b5b505050919050565b61152c612f55565b6000611542836000611fbf90919063ffffffff16565b90506000600c0160008573ffffffffffffffffffffffffffffffffffffffff1673ffffffffffffffffffffffffffffffffffffffff168152602001908152602001600020600082815260200190815260200160002060405180608001604052908160008201548152602001600182015481526020016002820154815260200160038201548152505091505092915050565b6000806115ea836000611fbf90919063ffffffff16565b90506000600a01600082815260200190815260200160002060060160009054906101000a900460ff161561167e5761167762989680611669633b9aca0061165b611633886106e9565b6000600a0160008881526020019081526020016000206000015461229c90919063ffffffff16565b6126ef90919063ffffffff16565b61228690919063ffffffff16565b915061173a565b600060030160009054906101000a900473ffffffffffffffffffffffffffffffffffffffff1673ffffffffffffffffffffffffffffffffffffffff168373ffffffffffffffffffffffffffffffffffffffff1614156117395761173662989680611728633b9aca0061171a6116f2886106e9565b6000600a0160008881526020019081526020016000206000015461229c90919063ffffffff16565b6126ef90919063ffffffff16565b61228690919063ffffffff16565b91505b5b6000600a01600082815260200190815260200160002060010154821015611778576000600a0160008281526020019081526020016000206001015491505b50919050565b600080611795836000611fbf90919063ffffffff16565b9050600080600c0160008673ffffffffffffffffffffffffffffffffffffffff1673ffffffffffffffffffffffffffffffffffffffff16815260200190815260200160002060008381526020019081526020016000206040518060800160405290816000820154815260200160018201548152602001600282015481526020016003820154815250509050600061182c8686610894565b9050612710811061191a576000600c0160008773ffffffffffffffffffffffffffffffffffffffff1673ffffffffffffffffffffffffffffffffffffffff168152602001908152602001600020600084815260200190815260200160002060008082016000905560018201600090556002820160009055600382016000905550508573ffffffffffffffffffffffffffffffffffffffff167f51c99f515c87b0d95ba97f616edd182e8f161c4932eac17c6fefe9dab58b77b1836000015160006040516118fa9291906136c4565b60405180910390a26119108683600001516125c2565b9350505050611ae5565b600061194761271061193984866000015161229c90919063ffffffff16565b61228690919063ffffffff16565b9050604051806080016040528061196b8386600001516122b290919063ffffffff16565b8152602001846020015181526020014281526020016119ad61199a8660400151426122b290919063ffffffff16565b86606001516122b290919063ffffffff16565b8152506000600c0160008973ffffffffffffffffffffffffffffffffffffffff1673ffffffffffffffffffffffffffffffffffffffff1681526020019081526020016000206000868152602001908152602001600020600082015181600001556020820151816001015560408201518160020155606082015181600301559050508673ffffffffffffffffffffffffffffffffffffffff167f51c99f515c87b0d95ba97f616edd182e8f161c4932eac17c6fefe9dab58b77b1826000600c0160008b73ffffffffffffffffffffffffffffffffffffffff1673ffffffffffffffffffffffffffffffffffffffff168152602001908152602001600020600088815260200190815260200160002060000154604051611acc9291906136ed565b60405180910390a2611ade87826125c2565b9450505050505b92915050565b611af3612f7d565b6000611b09836000611fbf90919063ffffffff16565b90506000600a0160008281526020019081526020016000206040518060e00160405290816000820154815260200160018201548152602001600282015481526020016003820154815260200160048201548152602001600582015481526020016006820160009054906101000a900460ff161515151581525050915050919050565b600080611ba2836000611fbf90919063ffffffff16565b90506000600a01600082815260200190815260200160002060060160009054906101000a900460ff1615611ca357611c9c6064611c8e600060040160009054906101000a900473ffffffffffffffffffffffffffffffffffffffff1673ffffffffffffffffffffffffffffffffffffffff166332da80a3876040518263ffffffff1660e01b8152600401611c369190613316565b602060405180830381865afa158015611c53573d6000803e3d6000fd5b505050506040513d601f19601f82011682018060405250810190611c779190613346565b611c80876115d3565b61229c90919063ffffffff16565b61228690919063ffffffff16565b9150611de9565b600060030160009054906101000a900473ffffffffffffffffffffffffffffffffffffffff1673ffffffffffffffffffffffffffffffffffffffff168373ffffffffffffffffffffffffffffffffffffffff161415611dab57611da46064611d968573ffffffffffffffffffffffffffffffffffffffff1663313ce5676040518163ffffffff1660e01b8152600401602060405180830381865afa158015611d4f573d6000803e3d6000fd5b505050506040513d601f19601f82011682018060405250810190611d73919061374f565b600a611d7f91906138de565b611d88876115d3565b61229c90919063ffffffff16565b61228690919063ffffffff16565b9150611de8565b826040517fcacddcb3000000000000000000000000000000000000000000000000000000008152600401611ddf9190613316565b60405180910390fd5b5b50919050565b600080611e06836000611fbf90919063ffffffff16565b90506000611e336000600e01600084815260200190815260200160002054426122b290919063ffffffff16565b9050611e896000600a01600084815260200190815260200160002060050154611e7b836000600d0160008781526020019081526020016000205461229c90919063ffffffff16565b61228690919063ffffffff16565b92506000600d01600083815260200190815260200160002054831115611ec3576000600d0160008381526020019081526020016000205492505b5050919050565b600080611ee1836000611fbf90919063ffffffff16565b9050611fb7620186a0611fa96000600a01600085815260200190815260200160002060020154600060040160009054906101000a900473ffffffffffffffffffffffffffffffffffffffff1673ffffffffffffffffffffffffffffffffffffffff1663860f50486040518163ffffffff1660e01b8152600401602060405180830381865afa158015611f77573d6000803e3d6000fd5b505050506040513d601f19601f82011682018060405250810190611f9b9190613346565b61229c90919063ffffffff16565b61228690919063ffffffff16565b915050919050565b600080611fce846008016129ad565b905060005b81811015612038578373ffffffffffffffffffffffffffffffffffffffff16611fff86600801836129c2565b73ffffffffffffffffffffffffffffffffffffffff16141561202557809250505061203b565b808061203090613929565b915050611fd3565b50505b92915050565b612049612fbc565b6000821161208c576040517f08c379a0000000000000000000000000000000000000000000000000000000008152600401612083906139e4565b60405180910390fd5b60008314156120ca57604051806020016040528060007bffffffffffffffffffffffffffffffffffffffffffffffffffffffff168152509050612242565b71ffffffffffffffffffffffffffffffffffff8016831161219257600082607060ff1685901b6120fa9190613a33565b90507bffffffffffffffffffffffffffffffffffffffffffffffffffffffff801681111561215d576040517f08c379a000000000000000000000000000000000000000000000000000000000815260040161215490613ab0565b60405180910390fd5b6040518060200160405280827bffffffffffffffffffffffffffffffffffffffffffffffffffffffff16815250915050612242565b60006121ae846e010000000000000000000000000000856129dc565b90507bffffffffffffffffffffffffffffffffffffffffffffffffffffffff8016811115612211576040517f08c379a000000000000000000000000000000000000000000000000000000000815260040161220890613ab0565b60405180910390fd5b6040518060200160405280827bffffffffffffffffffffffffffffffffffffffffffffffffffffffff168152509150505b92915050565b60006612725dd1d243ab82600001517bffffffffffffffffffffffffffffffffffffffffffffffffffffffff1661227f9190613a33565b9050919050565b600081836122949190613a33565b905092915050565b600081836122aa9190613ad0565b905092915050565b600081836122c09190613b2a565b905092915050565b60006122de826000611fbf90919063ffffffff16565b90506123116122ec83611def565b6000600d016000848152602001908152602001600020546122b290919063ffffffff16565b6000600d01600083815260200190815260200160002081905550426000600e016000838152602001908152602001600020819055505050565b600080612361836000611fbf90919063ffffffff16565b90506000600a01600082815260200190815260200160002060060160009054906101000a900460ff16156123f5576123ee629896806123e0633b9aca006123d26123aa886106e9565b6000600a0160008881526020019081526020016000206000015461229c90919063ffffffff16565b6126ef90919063ffffffff16565b61228690919063ffffffff16565b91506124b1565b600060030160009054906101000a900473ffffffffffffffffffffffffffffffffffffffff1673ffffffffffffffffffffffffffffffffffffffff168373ffffffffffffffffffffffffffffffffffffffff1614156124b0576124ad6298968061249f633b9aca00612491612469886106e9565b6000600a0160008881526020019081526020016000206000015461229c90919063ffffffff16565b6126ef90919063ffffffff16565b61228690919063ffffffff16565b91505b5b6000600a016000828152602001908152602001600020600101548210156124f3576000600a016000828152602001908152602001600020600101549150612533565b600080600a016000838152602001908152602001600020600101541461253257600080600a016000838152602001908152602001600020600101819055505b5b50919050565b6125bc846323b872dd60e01b85858560405160240161255a93929190613b5e565b604051602081830303815290604052907bffffffffffffffffffffffffffffffffffffffffffffffffffffffff19166020820180517bffffffffffffffffffffffffffffffffffffffffffffffffffffffff8381831617835250505050612a84565b50505050565b60008060000160009054906101000a900473ffffffffffffffffffffffffffffffffffffffff1673ffffffffffffffffffffffffffffffffffffffff1663095ea7b330846040518363ffffffff1660e01b81526004016126239291906134ee565b6020604051808303816000875af1158015612642573d6000803e3d6000fd5b505050506040513d601f19601f82011682018060405250810190612666919061361b565b503073ffffffffffffffffffffffffffffffffffffffff16637acb775783856040518363ffffffff1660e01b81526004016126a2929190613b95565b6020604051808303816000875af11580156126c1573d6000803e3d6000fd5b505050506040513d601f19601f820116820180604052508101906126e5919061361b565b5081905092915050565b600081836126fd9190613bbe565b905092915050565b600061271b826000611fbf90919063ffffffff16565b9050600080600b0160008381526020019081526020016000209050600080600a016000848152602001908152602001600020905060008260010154118015612767575060008260020154115b156128cb57600081600001549050600061278e8460030154426122b290919063ffffffff16565b9050600061279b876128d1565b9050808560010154106127cc576127bf8186600101546122b290919063ffffffff16565b85600101819055506127d7565b600085600101819055505b81856002015410612806576127f98286600201546122b290919063ffffffff16565b8560020181905550612811565b600085600201819055505b8460000160009054906101000a900460ff161561284c5761283f8185600001546126ef90919063ffffffff16565b846000018190555061286c565b6128638185600001546122b290919063ffffffff16565b84600001819055505b4285600301819055507fb923e581a0f83128e9e1d8297aa52b18d6744310476e0b54509c054cd7a93b2a838560000154838860000160009054906101000a900460ff166040516128bf9493929190613c23565b60405180910390a15050505b50505050565b6000806128e8836000611fbf90919063ffffffff16565b9050600080600b0160008381526020019081526020016000206040518060800160405290816000820160009054906101000a900460ff161515151581526020016001820154815260200160028201548152602001600382015481525050905060006129608260600151426122b290919063ffffffff16565b905061298f826040015161298183856020015161229c90919063ffffffff16565b61228690919063ffffffff16565b935081602001518411156129a557816020015193505b505050919050565b60006129bb82600001612b4b565b9050919050565b60006129d18360000183612b5c565b60001c905092915050565b60008060006129eb8686612b87565b9150915060008480612a00576129ff613a04565b5b868809905082811115612a1d57600182612a1a9190613b2a565b91505b8083612a299190613b2a565b9250848210612a6d576040517f08c379a0000000000000000000000000000000000000000000000000000000008152600401612a6490613cb4565b60405180910390fd5b612a78838387612bfc565b93505050509392505050565b6000612ae6826040518060400160405280602081526020017f5361666545524332303a206c6f772d6c6576656c2063616c6c206661696c65648152508573ffffffffffffffffffffffffffffffffffffffff16612daf9092919063ffffffff16565b9050600081511115612b465780806020019051810190612b06919061361b565b612b45576040517f08c379a0000000000000000000000000000000000000000000000000000000008152600401612b3c90613d46565b60405180910390fd5b5b505050565b600081600001805490509050919050565b6000826000018281548110612b7457612b73613d66565b5b9060005260206000200154905092915050565b60008060007fffffffffffffffffffffffffffffffffffffffffffffffffffffffffffffffff80612bbb57612bba613a04565b5b84860990508385612bcc9190613ad0565b92508281612bda9190613b2a565b915082811015612bf457600182612bf19190613b2a565b91505b509250929050565b60008060018319612c0d9190613bbe565b831690508083612c1d9190613a33565b92508085612c2b9190613a33565b945060018160018319612c3e9190613bbe565b612c489190613a33565b612c529190613bbe565b84612c5d9190613ad0565b85612c689190613bbe565b94506000600190508084612c7c9190613ad0565b6002612c889190613b2a565b81612c939190613ad0565b90508084612ca19190613ad0565b6002612cad9190613b2a565b81612cb89190613ad0565b90508084612cc69190613ad0565b6002612cd29190613b2a565b81612cdd9190613ad0565b90508084612ceb9190613ad0565b6002612cf79190613b2a565b81612d029190613ad0565b90508084612d109190613ad0565b6002612d1c9190613b2a565b81612d279190613ad0565b90508084612d359190613ad0565b6002612d419190613b2a565b81612d4c9190613ad0565b90508084612d5a9190613ad0565b6002612d669190613b2a565b81612d719190613ad0565b90508084612d7f9190613ad0565b6002612d8b9190613b2a565b81612d969190613ad0565b90508086612da49190613ad0565b925050509392505050565b6060612dbe8484600085612dc7565b90509392505050565b606082471015612e0c576040517f08c379a0000000000000000000000000000000000000000000000000000000008152600401612e0390613e07565b60405180910390fd5b612e1585612edb565b612e54576040517f08c379a0000000000000000000000000000000000000000000000000000000008152600401612e4b90613e73565b60405180910390fd5b6000808673ffffffffffffffffffffffffffffffffffffffff168587604051612e7d9190613f0d565b60006040518083038185875af1925050503d8060008114612eba576040519150601f19603f3d011682016040523d82523d6000602084013e612ebf565b606091505b5091509150612ecf828286612eee565b92505050949350505050565b600080823b905060008111915050919050565b60608315612efe57829050612f4e565b600083511115612f115782518084602001fd5b816040517f08c379a0000000000000000000000000000000000000000000000000000000008152600401612f459190613f79565b60405180910390fd5b9392505050565b6040518060800160405280600081526020016000815260200160008152602001600081525090565b6040518060e001604052806000815260200160008152602001600081526020016000815260200160008152602001600081526020016000151581525090565b604051806020016040528060007bffffffffffffffffffffffffffffffffffffffffffffffffffffffff1681525090565b600080fd5b6000819050919050565b61300581612ff2565b811461301057600080fd5b50565b60008135905061302281612ffc565b92915050565b600073ffffffffffffffffffffffffffffffffffffffff82169050919050565b600061305382613028565b9050919050565b61306381613048565b811461306e57600080fd5b50565b6000813590506130808161305a565b92915050565b6000806040838503121561309d5761309c612fed565b5b60006130ab85828601613013565b92505060206130bc85828601613071565b9150509250929050565b6130cf81612ff2565b82525050565b60006020820190506130ea60008301846130c6565b92915050565b60006020828403121561310657613105612fed565b5b600061311484828501613071565b91505092915050565b6000806040838503121561313457613133612fed565b5b600061314285828601613071565b925050602061315385828601613071565b9150509250929050565b6000806000806080858703121561317757613176612fed565b5b600061318587828801613013565b945050602061319687828801613013565b93505060406131a787828801613071565b92505060606131b887828801613071565b91505092959194509250565b6131cd81612ff2565b82525050565b6080820160008201516131e960008501826131c4565b5060208201516131fc60208501826131c4565b50604082015161320f60408501826131c4565b50606082015161322260608501826131c4565b50505050565b600060808201905061323d60008301846131d3565b92915050565b60008115159050919050565b61325881613243565b82525050565b60e08201600082015161327460008501826131c4565b50602082015161328760208501826131c4565b50604082015161329a60408501826131c4565b5060608201516132ad60608501826131c4565b5060808201516132c060808501826131c4565b5060a08201516132d360a08501826131c4565b5060c08201516132e660c085018261324f565b50505050565b600060e082019050613301600083018461325e565b92915050565b61331081613048565b82525050565b600060208201905061332b6000830184613307565b92915050565b60008151905061334081612ffc565b92915050565b60006020828403121561335c5761335b612fed565b5b600061336a84828501613331565b91505092915050565b600082825260208201905092915050565b7f496e76616c696420616464726573730000000000000000000000000000000000600082015250565b60006133ba600f83613373565b91506133c582613384565b602082019050919050565b600060208201905081810360008301526133e9816133ad565b9050919050565b7f4d61782063617061636974792072656163686564000000000000000000000000600082015250565b6000613426601483613373565b9150613431826133f0565b602082019050919050565b6000602082019050818103600083015261345581613419565b9050919050565b7f536c697070616765206c696d69743a206d6f7265207468616e206d617820707260008201527f6963650000000000000000000000000000000000000000000000000000000000602082015250565b60006134b8602383613373565b91506134c38261345c565b604082019050919050565b600060208201905081810360008301526134e7816134ab565b9050919050565b60006040820190506135036000830185613307565b61351060208301846130c6565b9392505050565b7f426f6e6420746f6f20736d616c6c000000000000000000000000000000000000600082015250565b600061354d600e83613373565b915061355882613517565b602082019050919050565b6000602082019050818103600083015261357c81613540565b9050919050565b7f426f6e6420746f6f206c61726765000000000000000000000000000000000000600082015250565b60006135b9600e83613373565b91506135c482613583565b602082019050919050565b600060208201905081810360008301526135e8816135ac565b9050919050565b6135f881613243565b811461360357600080fd5b50565b600081519050613615816135ef565b92915050565b60006020828403121561363157613630612fed565b5b600061363f84828501613606565b91505092915050565b600060608201905061365d60008301866130c6565b61366a6020830185613307565b61367760408301846130c6565b949350505050565b6000819050919050565b6000819050919050565b60006136ae6136a96136a48461367f565b613689565b612ff2565b9050919050565b6136be81613693565b82525050565b60006040820190506136d960008301856130c6565b6136e660208301846136b5565b9392505050565b600060408201905061370260008301856130c6565b61370f60208301846130c6565b9392505050565b600060ff82169050919050565b61372c81613716565b811461373757600080fd5b50565b60008151905061374981613723565b92915050565b60006020828403121561376557613764612fed565b5b60006137738482850161373a565b91505092915050565b7f4e487b7100000000000000000000000000000000000000000000000000000000600052601160045260246000fd5b60008160011c9050919050565b6000808291508390505b6001851115613802578086048111156137de576137dd61377c565b5b60018516156137ed5780820291505b80810290506137fb856137ab565b94506137c2565b94509492505050565b60008261381b57600190506138d7565b8161382957600090506138d7565b816001811461383f576002811461384957613878565b60019150506138d7565b60ff84111561385b5761385a61377c565b5b8360020a9150848211156138725761387161377c565b5b506138d7565b5060208310610133831016604e8410600b84101617156138ad5782820a9050838111156138a8576138a761377c565b5b6138d7565b6138ba84848460016137b8565b925090508184048111156138d1576138d061377c565b5b81810290505b9392505050565b60006138e982612ff2565b91506138f483613716565b92506139217fffffffffffffffffffffffffffffffffffffffffffffffffffffffffffffffff848461380b565b905092915050565b600061393482612ff2565b91507fffffffffffffffffffffffffffffffffffffffffffffffffffffffffffffffff8214156139675761396661377c565b5b600182019050919050565b7f4669786564506f696e743a3a6672616374696f6e3a206469766973696f6e206260008201527f79207a65726f0000000000000000000000000000000000000000000000000000602082015250565b60006139ce602683613373565b91506139d982613972565b604082019050919050565b600060208201905081810360008301526139fd816139c1565b9050919050565b7f4e487b7100000000000000000000000000000000000000000000000000000000600052601260045260246000fd5b6000613a3e82612ff2565b9150613a4983612ff2565b925082613a5957613a58613a04565b5b828204905092915050565b7f4669786564506f696e743a3a6672616374696f6e3a206f766572666c6f770000600082015250565b6000613a9a601e83613373565b9150613aa582613a64565b602082019050919050565b60006020820190508181036000830152613ac981613a8d565b9050919050565b6000613adb82612ff2565b9150613ae683612ff2565b9250817fffffffffffffffffffffffffffffffffffffffffffffffffffffffffffffffff0483118215151615613b1f57613b1e61377c565b5b828202905092915050565b6000613b3582612ff2565b9150613b4083612ff2565b925082821015613b5357613b5261377c565b5b828203905092915050565b6000606082019050613b736000830186613307565b613b806020830185613307565b613b8d60408301846130c6565b949350505050565b6000604082019050613baa60008301856130c6565b613bb76020830184613307565b9392505050565b6000613bc982612ff2565b9150613bd483612ff2565b9250827fffffffffffffffffffffffffffffffffffffffffffffffffffffffffffffffff03821115613c0957613c0861377c565b5b828201905092915050565b613c1d81613243565b82525050565b6000608082019050613c3860008301876130c6565b613c4560208301866130c6565b613c5260408301856130c6565b613c5f6060830184613c14565b95945050505050565b7f46756c6c4d6174683a3a6d756c4469763a206f766572666c6f77000000000000600082015250565b6000613c9e601a83613373565b9150613ca982613c68565b602082019050919050565b60006020820190508181036000830152613ccd81613c91565b9050919050565b7f5361666545524332303a204552433230206f7065726174696f6e20646964206e60008201527f6f74207375636365656400000000000000000000000000000000000000000000602082015250565b6000613d30602a83613373565b9150613d3b82613cd4565b604082019050919050565b60006020820190508181036000830152613d5f81613d23565b9050919050565b7f4e487b7100000000000000000000000000000000000000000000000000000000600052603260045260246000fd5b7f416464726573733a20696e73756666696369656e742062616c616e636520666f60008201527f722063616c6c0000000000000000000000000000000000000000000000000000602082015250565b6000613df1602683613373565b9150613dfc82613d95565b604082019050919050565b60006020820190508181036000830152613e2081613de4565b9050919050565b7f416464726573733a2063616c6c20746f206e6f6e2d636f6e7472616374000000600082015250565b6000613e5d601d83613373565b9150613e6882613e27565b602082019050919050565b60006020820190508181036000830152613e8c81613e50565b9050919050565b600081519050919050565b600081905092915050565b60005b83811015613ec7578082015181840152602081019050613eac565b83811115613ed6576000848401525b50505050565b6000613ee782613e93565b613ef18185613e9e565b9350613f01818560208601613ea9565b80840191505092915050565b6000613f198284613edc565b915081905092915050565b600081519050919050565b6000601f19601f8301169050919050565b6000613f4b82613f24565b613f558185613373565b9350613f65818560208601613ea9565b613f6e81613f2f565b840191505092915050565b60006020820190508181036000830152613f938184613f40565b90509291505056fea2646970667358221220a81a60403062ed398b7f87ac4be2dbe6c12a924c6343584588771b0f55d1330b64736f6c634300080a0033",
  "devdoc": {
    "kind": "dev",
    "methods": {
      "bondPrice(address)": {
        "returns": {
          "price_": "uint"
        }
      },
      "bondPriceInUSD(address)": {
        "returns": {
          "price_": "uint"
        }
      },
      "currentDebt(address)": {
        "returns": {
          "_0": "uint"
        }
      },
      "debtDecay(address)": {
        "returns": {
          "decay_": "uint"
        }
      },
      "debtRatio(address)": {
        "returns": {
          "debtRatio_": "uint"
        }
      },
      "deposit(uint256,uint256,address,address)": {
        "params": {
          "_amount": "uint",
          "_depositor": "address",
          "_maxPrice": "uint"
        },
        "returns": {
          "_0": "uint"
        }
      },
      "maxPayout(address)": {
        "returns": {
          "_0": "uint"
        }
      },
      "payoutFor(uint256,address)": {
        "params": {
          "_value": "uint"
        },
        "returns": {
          "_0": "uint"
        }
      },
      "pendingPayoutFor(address,address)": {
        "params": {
          "_depositor": "address"
        },
        "returns": {
          "pendingPayout_": "uint"
        }
      },
      "percentVestedFor(address,address)": {
        "params": {
          "_depositor": "address"
        },
        "returns": {
          "percentVested_": "uint"
        }
      },
      "redeem(address,address)": {
        "params": {
          "_principle": "address",
          "_recipient": "address"
        },
        "returns": {
          "_0": "uint"
        }
      },
      "standardizedDebtRatio(address)": {
        "returns": {
          "_0": "uint"
        }
      }
    },
    "version": 1
  },
  "userdoc": {
    "kind": "user",
    "methods": {
      "bondPrice(address)": {
        "notice": "calculate current bond premium"
      },
      "bondPriceInUSD(address)": {
        "notice": "converts bond price to DAI value"
      },
      "currentDebt(address)": {
        "notice": "calculate debt factoring in decay"
      },
      "debtDecay(address)": {
        "notice": "amount to decay total debt by"
      },
      "debtRatio(address)": {
        "notice": "calculate current ratio of debt to Necc supply"
      },
      "deposit(uint256,uint256,address,address)": {
        "notice": "deposit bond"
      },
      "maxPayout(address)": {
        "notice": "determine maximum bond size"
      },
      "payoutFor(uint256,address)": {
        "notice": "calculate interest due for new bond"
      },
      "pendingPayoutFor(address,address)": {
        "notice": "calculate amount of Necc available for claim by depositor"
      },
      "percentVestedFor(address,address)": {
        "notice": "calculate how far into vesting a depositor is"
      },
      "redeem(address,address)": {
        "notice": "redeem bond for user"
      },
      "standardizedDebtRatio(address)": {
        "notice": "debt ratio in same terms for reserve or liquidity bonds"
      }
    },
    "version": 1
  },
  "storageLayout": {
    "storage": [
      {
        "astId": 7102,
        "contract": "contracts/facets/Bond/BondDepositoryFacet.sol:BondDepositoryFacet",
        "label": "s",
        "offset": 0,
        "slot": "0",
        "type": "t_struct(Storage)20981_storage"
      }
    ],
    "types": {
      "t_address": {
        "encoding": "inplace",
        "label": "address",
        "numberOfBytes": "20"
      },
      "t_array(t_bytes32)dyn_storage": {
        "base": "t_bytes32",
        "encoding": "dynamic_array",
        "label": "bytes32[]",
        "numberOfBytes": "32"
      },
      "t_array(t_struct(Info)20835_storage)dyn_storage": {
        "base": "t_struct(Info)20835_storage",
        "encoding": "dynamic_array",
        "label": "struct LibBondStorage.Info[]",
        "numberOfBytes": "32"
      },
      "t_array(t_struct(Payout)20830_storage)dyn_storage": {
        "base": "t_struct(Payout)20830_storage",
        "encoding": "dynamic_array",
        "label": "struct LibBondStorage.Payout[]",
        "numberOfBytes": "32"
      },
      "t_bool": {
        "encoding": "inplace",
        "label": "bool",
        "numberOfBytes": "1"
      },
      "t_bytes32": {
        "encoding": "inplace",
        "label": "bytes32",
        "numberOfBytes": "32"
      },
      "t_mapping(t_address,t_mapping(t_uint256,t_struct(Bond)20866_storage))": {
        "encoding": "mapping",
        "key": "t_address",
        "label": "mapping(address => mapping(uint256 => struct LibBondStorage.Bond))",
        "numberOfBytes": "32",
        "value": "t_mapping(t_uint256,t_struct(Bond)20866_storage)"
      },
      "t_mapping(t_address,t_struct(Claim)20893_storage)": {
        "encoding": "mapping",
        "key": "t_address",
        "label": "mapping(address => struct LibBondStorage.Claim)",
        "numberOfBytes": "32",
        "value": "t_struct(Claim)20893_storage"
      },
      "t_mapping(t_bytes32,t_uint256)": {
        "encoding": "mapping",
        "key": "t_bytes32",
        "label": "mapping(bytes32 => uint256)",
        "numberOfBytes": "32",
        "value": "t_uint256"
      },
      "t_mapping(t_uint256,t_address)": {
        "encoding": "mapping",
        "key": "t_uint256",
        "label": "mapping(uint256 => address)",
        "numberOfBytes": "32",
        "value": "t_address"
      },
      "t_mapping(t_uint256,t_array(t_struct(Payout)20830_storage)dyn_storage)": {
        "encoding": "mapping",
        "key": "t_uint256",
        "label": "mapping(uint256 => struct LibBondStorage.Payout[])",
        "numberOfBytes": "32",
        "value": "t_array(t_struct(Payout)20830_storage)dyn_storage"
      },
      "t_mapping(t_uint256,t_struct(Bond)20866_storage)": {
        "encoding": "mapping",
        "key": "t_uint256",
        "label": "mapping(uint256 => struct LibBondStorage.Bond)",
        "numberOfBytes": "32",
        "value": "t_struct(Bond)20866_storage"
      },
      "t_mapping(t_uint256,t_struct(BondDepositoryAdjustment)20875_storage)": {
        "encoding": "mapping",
        "key": "t_uint256",
        "label": "mapping(uint256 => struct LibBondStorage.BondDepositoryAdjustment)",
        "numberOfBytes": "32",
        "value": "t_struct(BondDepositoryAdjustment)20875_storage"
      },
      "t_mapping(t_uint256,t_struct(DistributorAdjustment)20842_storage)": {
        "encoding": "mapping",
        "key": "t_uint256",
        "label": "mapping(uint256 => struct LibBondStorage.DistributorAdjustment)",
        "numberOfBytes": "32",
        "value": "t_struct(DistributorAdjustment)20842_storage"
      },
      "t_mapping(t_uint256,t_struct(Terms)20857_storage)": {
        "encoding": "mapping",
        "key": "t_uint256",
        "label": "mapping(uint256 => struct LibBondStorage.Terms)",
        "numberOfBytes": "32",
        "value": "t_struct(Terms)20857_storage"
      },
      "t_mapping(t_uint256,t_uint256)": {
        "encoding": "mapping",
        "key": "t_uint256",
        "label": "mapping(uint256 => uint256)",
        "numberOfBytes": "32",
        "value": "t_uint256"
      },
      "t_struct(AddressSet)1348_storage": {
        "encoding": "inplace",
        "label": "struct EnumerableSet.AddressSet",
        "members": [
          {
            "astId": 1347,
            "contract": "contracts/facets/Bond/BondDepositoryFacet.sol:BondDepositoryFacet",
            "label": "_inner",
            "offset": 0,
            "slot": "0",
            "type": "t_struct(Set)1047_storage"
          }
        ],
        "numberOfBytes": "64"
      },
      "t_struct(Bond)20866_storage": {
        "encoding": "inplace",
        "label": "struct LibBondStorage.Bond",
        "members": [
          {
            "astId": 20859,
            "contract": "contracts/facets/Bond/BondDepositoryFacet.sol:BondDepositoryFacet",
            "label": "payout",
            "offset": 0,
            "slot": "0",
            "type": "t_uint256"
          },
          {
            "astId": 20861,
            "contract": "contracts/facets/Bond/BondDepositoryFacet.sol:BondDepositoryFacet",
            "label": "pricePaid",
            "offset": 0,
            "slot": "1",
            "type": "t_uint256"
          },
          {
            "astId": 20863,
            "contract": "contracts/facets/Bond/BondDepositoryFacet.sol:BondDepositoryFacet",
            "label": "lastTime",
            "offset": 0,
            "slot": "2",
            "type": "t_uint256"
          },
          {
            "astId": 20865,
            "contract": "contracts/facets/Bond/BondDepositoryFacet.sol:BondDepositoryFacet",
            "label": "vesting",
            "offset": 0,
            "slot": "3",
            "type": "t_uint256"
          }
        ],
        "numberOfBytes": "128"
      },
      "t_struct(BondDepositoryAdjustment)20875_storage": {
        "encoding": "inplace",
        "label": "struct LibBondStorage.BondDepositoryAdjustment",
        "members": [
          {
            "astId": 20868,
            "contract": "contracts/facets/Bond/BondDepositoryFacet.sol:BondDepositoryFacet",
            "label": "add",
            "offset": 0,
            "slot": "0",
            "type": "t_bool"
          },
          {
            "astId": 20870,
            "contract": "contracts/facets/Bond/BondDepositoryFacet.sol:BondDepositoryFacet",
            "label": "delta",
            "offset": 0,
            "slot": "1",
            "type": "t_uint256"
          },
          {
            "astId": 20872,
            "contract": "contracts/facets/Bond/BondDepositoryFacet.sol:BondDepositoryFacet",
            "label": "timeToTarget",
            "offset": 0,
            "slot": "2",
            "type": "t_uint256"
          },
          {
            "astId": 20874,
            "contract": "contracts/facets/Bond/BondDepositoryFacet.sol:BondDepositoryFacet",
            "label": "lastTime",
            "offset": 0,
            "slot": "3",
            "type": "t_uint256"
          }
        ],
        "numberOfBytes": "128"
      },
      "t_struct(Claim)20893_storage": {
        "encoding": "inplace",
        "label": "struct LibBondStorage.Claim",
        "members": [
          {
            "astId": 20886,
            "contract": "contracts/facets/Bond/BondDepositoryFacet.sol:BondDepositoryFacet",
            "label": "deposit",
            "offset": 0,
            "slot": "0",
            "type": "t_uint256"
          },
          {
            "astId": 20888,
            "contract": "contracts/facets/Bond/BondDepositoryFacet.sol:BondDepositoryFacet",
            "label": "gons",
            "offset": 0,
            "slot": "1",
            "type": "t_uint256"
          },
          {
            "astId": 20890,
            "contract": "contracts/facets/Bond/BondDepositoryFacet.sol:BondDepositoryFacet",
            "label": "expiry",
            "offset": 0,
            "slot": "2",
            "type": "t_uint256"
          },
          {
            "astId": 20892,
            "contract": "contracts/facets/Bond/BondDepositoryFacet.sol:BondDepositoryFacet",
            "label": "lock",
            "offset": 0,
            "slot": "3",
            "type": "t_bool"
          }
        ],
        "numberOfBytes": "128"
      },
      "t_struct(DistributorAdjustment)20842_storage": {
        "encoding": "inplace",
        "label": "struct LibBondStorage.DistributorAdjustment",
        "members": [
          {
            "astId": 20837,
            "contract": "contracts/facets/Bond/BondDepositoryFacet.sol:BondDepositoryFacet",
            "label": "add",
            "offset": 0,
            "slot": "0",
            "type": "t_bool"
          },
          {
            "astId": 20839,
            "contract": "contracts/facets/Bond/BondDepositoryFacet.sol:BondDepositoryFacet",
            "label": "rate",
            "offset": 0,
            "slot": "1",
            "type": "t_uint256"
          },
          {
            "astId": 20841,
            "contract": "contracts/facets/Bond/BondDepositoryFacet.sol:BondDepositoryFacet",
            "label": "target",
            "offset": 0,
            "slot": "2",
            "type": "t_uint256"
          }
        ],
        "numberOfBytes": "96"
      },
      "t_struct(Epoch)20884_storage": {
        "encoding": "inplace",
        "label": "struct LibBondStorage.Epoch",
        "members": [
          {
            "astId": 20877,
            "contract": "contracts/facets/Bond/BondDepositoryFacet.sol:BondDepositoryFacet",
            "label": "number",
            "offset": 0,
            "slot": "0",
            "type": "t_uint256"
          },
          {
            "astId": 20879,
            "contract": "contracts/facets/Bond/BondDepositoryFacet.sol:BondDepositoryFacet",
            "label": "distribute",
            "offset": 0,
            "slot": "1",
            "type": "t_uint256"
          },
          {
            "astId": 20881,
            "contract": "contracts/facets/Bond/BondDepositoryFacet.sol:BondDepositoryFacet",
            "label": "length",
            "offset": 0,
            "slot": "2",
            "type": "t_uint256"
          },
          {
            "astId": 20883,
            "contract": "contracts/facets/Bond/BondDepositoryFacet.sol:BondDepositoryFacet",
            "label": "endTime",
            "offset": 0,
            "slot": "3",
            "type": "t_uint256"
          }
        ],
        "numberOfBytes": "128"
      },
      "t_struct(Info)20835_storage": {
        "encoding": "inplace",
        "label": "struct LibBondStorage.Info",
        "members": [
          {
            "astId": 20832,
            "contract": "contracts/facets/Bond/BondDepositoryFacet.sol:BondDepositoryFacet",
            "label": "rate",
            "offset": 0,
            "slot": "0",
            "type": "t_uint256"
          },
          {
            "astId": 20834,
            "contract": "contracts/facets/Bond/BondDepositoryFacet.sol:BondDepositoryFacet",
            "label": "recipient",
            "offset": 0,
            "slot": "1",
            "type": "t_address"
          }
        ],
        "numberOfBytes": "64"
      },
      "t_struct(Payout)20830_storage": {
        "encoding": "inplace",
        "label": "struct LibBondStorage.Payout",
        "members": [
          {
            "astId": 20827,
            "contract": "contracts/facets/Bond/BondDepositoryFacet.sol:BondDepositoryFacet",
            "label": "amount",
            "offset": 0,
            "slot": "0",
            "type": "t_uint256"
          },
          {
            "astId": 20829,
            "contract": "contracts/facets/Bond/BondDepositoryFacet.sol:BondDepositoryFacet",
            "label": "blockTimestamp",
            "offset": 0,
            "slot": "1",
            "type": "t_uint256"
          }
        ],
        "numberOfBytes": "64"
      },
      "t_struct(Set)1047_storage": {
        "encoding": "inplace",
        "label": "struct EnumerableSet.Set",
        "members": [
          {
            "astId": 1042,
            "contract": "contracts/facets/Bond/BondDepositoryFacet.sol:BondDepositoryFacet",
            "label": "_values",
            "offset": 0,
            "slot": "0",
            "type": "t_array(t_bytes32)dyn_storage"
          },
          {
            "astId": 1046,
            "contract": "contracts/facets/Bond/BondDepositoryFacet.sol:BondDepositoryFacet",
            "label": "_indexes",
            "offset": 0,
            "slot": "1",
            "type": "t_mapping(t_bytes32,t_uint256)"
          }
        ],
        "numberOfBytes": "64"
      },
      "t_struct(Storage)20981_storage": {
        "encoding": "inplace",
        "label": "struct LibBondStorage.Storage",
        "members": [
          {
            "astId": 20895,
            "contract": "contracts/facets/Bond/BondDepositoryFacet.sol:BondDepositoryFacet",
            "label": "Necc",
            "offset": 0,
            "slot": "0",
            "type": "t_address"
          },
          {
            "astId": 20897,
            "contract": "contracts/facets/Bond/BondDepositoryFacet.sol:BondDepositoryFacet",
            "label": "sNecc",
            "offset": 0,
            "slot": "1",
            "type": "t_address"
          },
          {
            "astId": 20899,
            "contract": "contracts/facets/Bond/BondDepositoryFacet.sol:BondDepositoryFacet",
            "label": "nNecc",
            "offset": 0,
            "slot": "2",
            "type": "t_address"
          },
          {
            "astId": 20901,
            "contract": "contracts/facets/Bond/BondDepositoryFacet.sol:BondDepositoryFacet",
            "label": "ndol",
            "offset": 0,
            "slot": "3",
            "type": "t_address"
          },
          {
            "astId": 20903,
            "contract": "contracts/facets/Bond/BondDepositoryFacet.sol:BondDepositoryFacet",
            "label": "treasury",
            "offset": 0,
            "slot": "4",
            "type": "t_address"
          },
          {
            "astId": 20905,
            "contract": "contracts/facets/Bond/BondDepositoryFacet.sol:BondDepositoryFacet",
            "label": "DAO",
            "offset": 0,
            "slot": "5",
            "type": "t_address"
          },
          {
            "astId": 20907,
            "contract": "contracts/facets/Bond/BondDepositoryFacet.sol:BondDepositoryFacet",
            "label": "farmDistributor",
            "offset": 0,
            "slot": "6",
            "type": "t_address"
          },
          {
            "astId": 20909,
            "contract": "contracts/facets/Bond/BondDepositoryFacet.sol:BondDepositoryFacet",
            "label": "staking",
            "offset": 0,
            "slot": "7",
            "type": "t_address"
          },
          {
            "astId": 20912,
            "contract": "contracts/facets/Bond/BondDepositoryFacet.sol:BondDepositoryFacet",
            "label": "principles",
            "offset": 0,
            "slot": "8",
            "type": "t_struct(AddressSet)1348_storage"
          },
          {
            "astId": 20917,
            "contract": "contracts/facets/Bond/BondDepositoryFacet.sol:BondDepositoryFacet",
            "label": "terms",
            "offset": 0,
            "slot": "10",
            "type": "t_mapping(t_uint256,t_struct(Terms)20857_storage)"
          },
          {
            "astId": 20922,
            "contract": "contracts/facets/Bond/BondDepositoryFacet.sol:BondDepositoryFacet",
            "label": "bondDepositoryAdjustment",
            "offset": 0,
            "slot": "11",
            "type": "t_mapping(t_uint256,t_struct(BondDepositoryAdjustment)20875_storage)"
          },
          {
            "astId": 20929,
            "contract": "contracts/facets/Bond/BondDepositoryFacet.sol:BondDepositoryFacet",
            "label": "bondInfo",
            "offset": 0,
            "slot": "12",
            "type": "t_mapping(t_address,t_mapping(t_uint256,t_struct(Bond)20866_storage))"
          },
          {
            "astId": 20933,
            "contract": "contracts/facets/Bond/BondDepositoryFacet.sol:BondDepositoryFacet",
            "label": "totalDebt",
            "offset": 0,
            "slot": "13",
            "type": "t_mapping(t_uint256,t_uint256)"
          },
          {
            "astId": 20937,
            "contract": "contracts/facets/Bond/BondDepositoryFacet.sol:BondDepositoryFacet",
            "label": "lastDecay",
            "offset": 0,
            "slot": "14",
            "type": "t_mapping(t_uint256,t_uint256)"
          },
          {
            "astId": 20941,
            "contract": "contracts/facets/Bond/BondDepositoryFacet.sol:BondDepositoryFacet",
            "label": "nextEpochTimestamp",
            "offset": 0,
            "slot": "15",
            "type": "t_mapping(t_uint256,t_uint256)"
          },
          {
            "astId": 20945,
            "contract": "contracts/facets/Bond/BondDepositoryFacet.sol:BondDepositoryFacet",
            "label": "priceFeeds",
            "offset": 0,
            "slot": "16",
            "type": "t_mapping(t_uint256,t_address)"
          },
          {
            "astId": 20949,
            "contract": "contracts/facets/Bond/BondDepositoryFacet.sol:BondDepositoryFacet",
            "label": "info",
            "offset": 0,
            "slot": "17",
            "type": "t_array(t_struct(Info)20835_storage)dyn_storage"
          },
          {
            "astId": 20954,
            "contract": "contracts/facets/Bond/BondDepositoryFacet.sol:BondDepositoryFacet",
            "label": "distributorAdjustments",
            "offset": 0,
            "slot": "18",
            "type": "t_mapping(t_uint256,t_struct(DistributorAdjustment)20842_storage)"
          },
          {
            "astId": 20957,
            "contract": "contracts/facets/Bond/BondDepositoryFacet.sol:BondDepositoryFacet",
            "label": "epoch",
            "offset": 0,
            "slot": "19",
            "type": "t_struct(Epoch)20884_storage"
          },
          {
            "astId": 20959,
            "contract": "contracts/facets/Bond/BondDepositoryFacet.sol:BondDepositoryFacet",
            "label": "epochLength",
            "offset": 0,
            "slot": "23",
            "type": "t_uint256"
          },
          {
            "astId": 20961,
            "contract": "contracts/facets/Bond/BondDepositoryFacet.sol:BondDepositoryFacet",
            "label": "distributor",
            "offset": 0,
            "slot": "24",
            "type": "t_address"
          },
          {
            "astId": 20963,
            "contract": "contracts/facets/Bond/BondDepositoryFacet.sol:BondDepositoryFacet",
            "label": "locker",
            "offset": 0,
            "slot": "25",
            "type": "t_address"
          },
          {
            "astId": 20965,
            "contract": "contracts/facets/Bond/BondDepositoryFacet.sol:BondDepositoryFacet",
            "label": "warmupPeriod",
            "offset": 0,
            "slot": "26",
            "type": "t_uint256"
          },
          {
            "astId": 20970,
            "contract": "contracts/facets/Bond/BondDepositoryFacet.sol:BondDepositoryFacet",
            "label": "warmupInfo",
            "offset": 0,
            "slot": "27",
            "type": "t_mapping(t_address,t_struct(Claim)20893_storage)"
          },
          {
            "astId": 20972,
            "contract": "contracts/facets/Bond/BondDepositoryFacet.sol:BondDepositoryFacet",
            "label": "targetSum",
            "offset": 0,
            "slot": "28",
            "type": "t_uint256"
          },
          {
            "astId": 20978,
            "contract": "contracts/facets/Bond/BondDepositoryFacet.sol:BondDepositoryFacet",
            "label": "payouts",
            "offset": 0,
            "slot": "29",
            "type": "t_mapping(t_uint256,t_array(t_struct(Payout)20830_storage)dyn_storage)"
          },
          {
            "astId": 20980,
            "contract": "contracts/facets/Bond/BondDepositoryFacet.sol:BondDepositoryFacet",
            "label": "gonsInWarmup",
            "offset": 0,
            "slot": "30",
            "type": "t_uint256"
          }
        ],
        "numberOfBytes": "992"
      },
      "t_struct(Terms)20857_storage": {
        "encoding": "inplace",
        "label": "struct LibBondStorage.Terms",
        "members": [
          {
            "astId": 20844,
            "contract": "contracts/facets/Bond/BondDepositoryFacet.sol:BondDepositoryFacet",
            "label": "controlVariable",
            "offset": 0,
            "slot": "0",
            "type": "t_uint256"
          },
          {
            "astId": 20846,
            "contract": "contracts/facets/Bond/BondDepositoryFacet.sol:BondDepositoryFacet",
            "label": "minimumPrice",
            "offset": 0,
            "slot": "1",
            "type": "t_uint256"
          },
          {
            "astId": 20848,
            "contract": "contracts/facets/Bond/BondDepositoryFacet.sol:BondDepositoryFacet",
            "label": "maxPayout",
            "offset": 0,
            "slot": "2",
            "type": "t_uint256"
          },
          {
            "astId": 20850,
            "contract": "contracts/facets/Bond/BondDepositoryFacet.sol:BondDepositoryFacet",
            "label": "fee",
            "offset": 0,
            "slot": "3",
            "type": "t_uint256"
          },
          {
            "astId": 20852,
            "contract": "contracts/facets/Bond/BondDepositoryFacet.sol:BondDepositoryFacet",
            "label": "maxDebt",
            "offset": 0,
            "slot": "4",
            "type": "t_uint256"
          },
          {
            "astId": 20854,
            "contract": "contracts/facets/Bond/BondDepositoryFacet.sol:BondDepositoryFacet",
            "label": "vestingTerm",
            "offset": 0,
            "slot": "5",
            "type": "t_uint256"
          },
          {
            "astId": 20856,
            "contract": "contracts/facets/Bond/BondDepositoryFacet.sol:BondDepositoryFacet",
            "label": "isLiquidityBond",
            "offset": 0,
            "slot": "6",
            "type": "t_bool"
          }
        ],
        "numberOfBytes": "224"
      },
      "t_uint256": {
        "encoding": "inplace",
        "label": "uint256",
        "numberOfBytes": "32"
      }
    }
  }
}