{
  "address": "0xc7FD792aC73EB613186ceA8Cfab3234919fdC2a9",
  "abi": [
    {
      "inputs": [
        {
          "internalType": "address",
          "name": "_pair",
          "type": "address"
        }
      ],
      "name": "getKValue",
      "outputs": [
        {
          "internalType": "uint256",
          "name": "k_",
          "type": "uint256"
        }
      ],
      "stateMutability": "view",
      "type": "function"
    },
    {
      "inputs": [
        {
          "internalType": "address",
          "name": "_pair",
          "type": "address"
        }
      ],
      "name": "getTotalValue",
      "outputs": [
        {
          "internalType": "uint256",
          "name": "_value",
          "type": "uint256"
        }
      ],
      "stateMutability": "view",
      "type": "function"
    },
    {
      "inputs": [
        {
          "internalType": "address",
          "name": "_pair",
          "type": "address"
        }
      ],
      "name": "markdown",
      "outputs": [
        {
          "internalType": "uint256",
          "name": "",
          "type": "uint256"
        }
      ],
      "stateMutability": "view",
      "type": "function"
    },
    {
      "inputs": [
        {
          "internalType": "address",
          "name": "_pair",
          "type": "address"
        },
        {
          "internalType": "uint256",
          "name": "amount_",
          "type": "uint256"
        }
      ],
      "name": "valuation",
      "outputs": [
        {
          "internalType": "uint256",
          "name": "_value",
          "type": "uint256"
        }
      ],
      "stateMutability": "view",
      "type": "function"
    }
  ],
  "transactionHash": "0x0aa502004c2ce01b18f8c7f253d63a814d8e908551c3df1e0133479282d17537",
  "args": [],
  "solcInputHash": "b0a15566ba2035749abbb19b40cb5d2c",
  "bytecode": "0x608060405234801561001057600080fd5b506118fa806100206000396000f3fe608060405234801561001057600080fd5b506004361061004c5760003560e01c806332da80a3146100515780634249719f14610081578063490084ef146100b157806368637549146100e1575b600080fd5b61006b60048036038101906100669190610fd9565b610111565b604051610078919061101f565b60405180910390f35b61009b60048036038101906100969190611066565b61035f565b6040516100a8919061101f565b60405180910390f35b6100cb60048036038101906100c69190610fd9565b610428565b6040516100d8919061101f565b60405180910390f35b6100fb60048036038101906100f69190610fd9565b61075f565b604051610108919061101f565b60405180910390f35b60008060008373ffffffffffffffffffffffffffffffffffffffff16630902f1ac6040518163ffffffff1660e01b8152600401606060405180830381865afa158015610161573d6000803e3d6000fd5b505050506040513d601f19601f820116820180604052508101906101859190611128565b506dffffffffffffffffffffffffffff1691506dffffffffffffffffffffffffffff16915060008060000160009054906101000a900473ffffffffffffffffffffffffffffffffffffffff1673ffffffffffffffffffffffffffffffffffffffff168573ffffffffffffffffffffffffffffffffffffffff16630dfe16816040518163ffffffff1660e01b8152600401602060405180830381865afa158015610232573d6000803e3d6000fd5b505050506040513d601f19601f820116820180604052508101906102569190611190565b73ffffffffffffffffffffffffffffffffffffffff16141561027a5781905061027e565b8290505b61035561028a8661075f565b6103476000800160009054906101000a900473ffffffffffffffffffffffffffffffffffffffff1673ffffffffffffffffffffffffffffffffffffffff1663313ce5676040518163ffffffff1660e01b8152600401602060405180830381865afa1580156102fc573d6000803e3d6000fd5b505050506040513d601f19601f8201168201806040525081019061032091906111f6565b600a61032c9190611385565b600261033891906113d0565b8461078c90919063ffffffff16565b61080790919063ffffffff16565b9350505050919050565b60008061036b8461075f565b905060008473ffffffffffffffffffffffffffffffffffffffff166318160ddd6040518163ffffffff1660e01b8152600401602060405180830381865afa1580156103ba573d6000803e3d6000fd5b505050506040513d601f19601f820116820180604052508101906103de919061143f565b905061041e670de0b6b3a76400006104106104016103fc8886610851565b610a58565b8561078c90919063ffffffff16565b61080790919063ffffffff16565b9250505092915050565b6000808273ffffffffffffffffffffffffffffffffffffffff16630dfe16816040518163ffffffff1660e01b8152600401602060405180830381865afa158015610476573d6000803e3d6000fd5b505050506040513d601f19601f8201168201806040525081019061049a9190611190565b73ffffffffffffffffffffffffffffffffffffffff1663313ce5676040518163ffffffff1660e01b8152600401602060405180830381865afa1580156104e4573d6000803e3d6000fd5b505050506040513d601f19601f8201168201806040525081019061050891906111f6565b60ff16905060008373ffffffffffffffffffffffffffffffffffffffff1663d21220a76040518163ffffffff1660e01b8152600401602060405180830381865afa15801561055a573d6000803e3d6000fd5b505050506040513d601f19601f8201168201806040525081019061057e9190611190565b73ffffffffffffffffffffffffffffffffffffffff1663313ce5676040518163ffffffff1660e01b8152600401602060405180830381865afa1580156105c8573d6000803e3d6000fd5b505050506040513d601f19601f820116820180604052508101906105ec91906111f6565b60ff16905060006106898573ffffffffffffffffffffffffffffffffffffffff1663313ce5676040518163ffffffff1660e01b8152600401602060405180830381865afa158015610641573d6000803e3d6000fd5b505050506040513d601f19601f8201168201806040525081019061066591906111f6565b60ff1661067b8486610a9690919063ffffffff16565b610af490919063ffffffff16565b90506000808673ffffffffffffffffffffffffffffffffffffffff16630902f1ac6040518163ffffffff1660e01b8152600401606060405180830381865afa1580156106d9573d6000803e3d6000fd5b505050506040513d601f19601f820116820180604052508101906106fd9190611128565b506dffffffffffffffffffffffffffff1691506dffffffffffffffffffffffffffff16915061075383600a610732919061146c565b610745838561078c90919063ffffffff16565b61080790919063ffffffff16565b95505050505050919050565b6000610785600261077761077285610428565b610b3e565b61078c90919063ffffffff16565b9050919050565b60008083141561079f5760009050610801565b600082846107ad91906113d0565b90508284826107bc91906114e6565b146107fc576040517f08c379a00000000000000000000000000000000000000000000000000000000081526004016107f39061159a565b60405180910390fd5b809150505b92915050565b600061084983836040518060400160405280601a81526020017f536166654d6174683a206469766973696f6e206279207a65726f000000000000815250610bae565b905092915050565b610859610f45565b6000821161089c576040517f08c379a00000000000000000000000000000000000000000000000000000000081526004016108939061162c565b60405180910390fd5b60008314156108da57604051806020016040528060007bffffffffffffffffffffffffffffffffffffffffffffffffffffffff168152509050610a52565b71ffffffffffffffffffffffffffffffffffff801683116109a257600082607060ff1685901b61090a91906114e6565b90507bffffffffffffffffffffffffffffffffffffffffffffffffffffffff801681111561096d576040517f08c379a000000000000000000000000000000000000000000000000000000000815260040161096490611698565b60405180910390fd5b6040518060200160405280827bffffffffffffffffffffffffffffffffffffffffffffffffffffffff16815250915050610a52565b60006109be846e01000000000000000000000000000085610c11565b90507bffffffffffffffffffffffffffffffffffffffffffffffffffffffff8016811115610a21576040517f08c379a0000000000000000000000000000000000000000000000000000000008152600401610a1890611698565b60405180910390fd5b6040518060200160405280827bffffffffffffffffffffffffffffffffffffffffffffffffffffffff168152509150505b92915050565b60006612725dd1d243ab82600001517bffffffffffffffffffffffffffffffffffffffffffffffffffffffff16610a8f91906114e6565b9050919050565b6000808284610aa591906116b8565b905083811015610aea576040517f08c379a0000000000000000000000000000000000000000000000000000000008152600401610ae19061175a565b60405180910390fd5b8091505092915050565b6000610b3683836040518060400160405280601e81526020017f536166654d6174683a207375627472616374696f6e206f766572666c6f770000815250610cb9565b905092915050565b60006003821115610b9b578190506000610b63610b5c846002610807565b6001610a96565b90505b81811015610b9557809150610b8e610b87610b818584610807565b83610a96565b6002610807565b9050610b66565b50610ba9565b60008214610ba857600190505b5b919050565b60008083118290610bf5576040517f08c379a0000000000000000000000000000000000000000000000000000000008152600401610bec9190611802565b60405180910390fd5b5060008385610c0491906114e6565b9050809150509392505050565b6000806000610c208686610d1d565b9150915060008480610c3557610c346114b7565b5b868809905082811115610c5257600182610c4f9190611824565b91505b8083610c5e9190611824565b9250848210610ca2576040517f08c379a0000000000000000000000000000000000000000000000000000000008152600401610c99906118a4565b60405180910390fd5b610cad838387610d92565b93505050509392505050565b6000838311158290610d01576040517f08c379a0000000000000000000000000000000000000000000000000000000008152600401610cf89190611802565b60405180910390fd5b5060008385610d109190611824565b9050809150509392505050565b60008060007fffffffffffffffffffffffffffffffffffffffffffffffffffffffffffffffff80610d5157610d506114b7565b5b84860990508385610d6291906113d0565b92508281610d709190611824565b915082811015610d8a57600182610d879190611824565b91505b509250929050565b60008060018319610da391906116b8565b831690508083610db391906114e6565b92508085610dc191906114e6565b945060018160018319610dd491906116b8565b610dde91906114e6565b610de891906116b8565b84610df391906113d0565b85610dfe91906116b8565b94506000600190508084610e1291906113d0565b6002610e1e9190611824565b81610e2991906113d0565b90508084610e3791906113d0565b6002610e439190611824565b81610e4e91906113d0565b90508084610e5c91906113d0565b6002610e689190611824565b81610e7391906113d0565b90508084610e8191906113d0565b6002610e8d9190611824565b81610e9891906113d0565b90508084610ea691906113d0565b6002610eb29190611824565b81610ebd91906113d0565b90508084610ecb91906113d0565b6002610ed79190611824565b81610ee291906113d0565b90508084610ef091906113d0565b6002610efc9190611824565b81610f0791906113d0565b90508084610f1591906113d0565b6002610f219190611824565b81610f2c91906113d0565b90508086610f3a91906113d0565b925050509392505050565b604051806020016040528060007bffffffffffffffffffffffffffffffffffffffffffffffffffffffff1681525090565b600080fd5b600073ffffffffffffffffffffffffffffffffffffffff82169050919050565b6000610fa682610f7b565b9050919050565b610fb681610f9b565b8114610fc157600080fd5b50565b600081359050610fd381610fad565b92915050565b600060208284031215610fef57610fee610f76565b5b6000610ffd84828501610fc4565b91505092915050565b6000819050919050565b61101981611006565b82525050565b60006020820190506110346000830184611010565b92915050565b61104381611006565b811461104e57600080fd5b50565b6000813590506110608161103a565b92915050565b6000806040838503121561107d5761107c610f76565b5b600061108b85828601610fc4565b925050602061109c85828601611051565b9150509250929050565b60006dffffffffffffffffffffffffffff82169050919050565b6110c9816110a6565b81146110d457600080fd5b50565b6000815190506110e6816110c0565b92915050565b600063ffffffff82169050919050565b611105816110ec565b811461111057600080fd5b50565b600081519050611122816110fc565b92915050565b60008060006060848603121561114157611140610f76565b5b600061114f868287016110d7565b9350506020611160868287016110d7565b925050604061117186828701611113565b9150509250925092565b60008151905061118a81610fad565b92915050565b6000602082840312156111a6576111a5610f76565b5b60006111b48482850161117b565b91505092915050565b600060ff82169050919050565b6111d3816111bd565b81146111de57600080fd5b50565b6000815190506111f0816111ca565b92915050565b60006020828403121561120c5761120b610f76565b5b600061121a848285016111e1565b91505092915050565b7f4e487b7100000000000000000000000000000000000000000000000000000000600052601160045260246000fd5b60008160011c9050919050565b6000808291508390505b60018511156112a95780860481111561128557611284611223565b5b60018516156112945780820291505b80810290506112a285611252565b9450611269565b94509492505050565b6000826112c2576001905061137e565b816112d0576000905061137e565b81600181146112e657600281146112f05761131f565b600191505061137e565b60ff84111561130257611301611223565b5b8360020a91508482111561131957611318611223565b5b5061137e565b5060208310610133831016604e8410600b84101617156113545782820a90508381111561134f5761134e611223565b5b61137e565b611361848484600161125f565b9250905081840481111561137857611377611223565b5b81810290505b9392505050565b600061139082611006565b915061139b836111bd565b92506113c87fffffffffffffffffffffffffffffffffffffffffffffffffffffffffffffffff84846112b2565b905092915050565b60006113db82611006565b91506113e683611006565b9250817fffffffffffffffffffffffffffffffffffffffffffffffffffffffffffffffff048311821515161561141f5761141e611223565b5b828202905092915050565b6000815190506114398161103a565b92915050565b60006020828403121561145557611454610f76565b5b60006114638482850161142a565b91505092915050565b600061147782611006565b915061148283611006565b92506114af7fffffffffffffffffffffffffffffffffffffffffffffffffffffffffffffffff84846112b2565b905092915050565b7f4e487b7100000000000000000000000000000000000000000000000000000000600052601260045260246000fd5b60006114f182611006565b91506114fc83611006565b92508261150c5761150b6114b7565b5b828204905092915050565b600082825260208201905092915050565b7f536166654d6174683a206d756c7469706c69636174696f6e206f766572666c6f60008201527f7700000000000000000000000000000000000000000000000000000000000000602082015250565b6000611584602183611517565b915061158f82611528565b604082019050919050565b600060208201905081810360008301526115b381611577565b9050919050565b7f4669786564506f696e743a3a6672616374696f6e3a206469766973696f6e206260008201527f79207a65726f0000000000000000000000000000000000000000000000000000602082015250565b6000611616602683611517565b9150611621826115ba565b604082019050919050565b6000602082019050818103600083015261164581611609565b9050919050565b7f4669786564506f696e743a3a6672616374696f6e3a206f766572666c6f770000600082015250565b6000611682601e83611517565b915061168d8261164c565b602082019050919050565b600060208201905081810360008301526116b181611675565b9050919050565b60006116c382611006565b91506116ce83611006565b9250827fffffffffffffffffffffffffffffffffffffffffffffffffffffffffffffffff0382111561170357611702611223565b5b828201905092915050565b7f536166654d6174683a206164646974696f6e206f766572666c6f770000000000600082015250565b6000611744601b83611517565b915061174f8261170e565b602082019050919050565b6000602082019050818103600083015261177381611737565b9050919050565b600081519050919050565b60005b838110156117a3578082015181840152602081019050611788565b838111156117b2576000848401525b50505050565b6000601f19601f8301169050919050565b60006117d48261177a565b6117de8185611517565b93506117ee818560208601611785565b6117f7816117b8565b840191505092915050565b6000602082019050818103600083015261181c81846117c9565b905092915050565b600061182f82611006565b915061183a83611006565b92508282101561184d5761184c611223565b5b828203905092915050565b7f46756c6c4d6174683a3a6d756c4469763a206f766572666c6f77000000000000600082015250565b600061188e601a83611517565b915061189982611858565b602082019050919050565b600060208201905081810360008301526118bd81611881565b905091905056fea2646970667358221220dc889ec4fa2fd68c942cba46dfc8ffa776865c0b2737a6ef2e877f25de7c758c64736f6c634300080a0033",
  "devdoc": {
    "kind": "dev",
    "methods": {},
    "version": 1
  },
  "userdoc": {
    "kind": "user",
    "methods": {},
    "version": 1
  },
  "storageLayout": {
    "storage": [
      {
        "astId": 10844,
        "contract": "contracts/facets/Treasury/BondingCalculatorFacet.sol:BondingCalculatorFacet",
        "label": "s",
        "offset": 0,
        "slot": "0",
        "type": "t_struct(Storage)21634_storage"
      }
    ],
    "types": {
      "t_address": {
        "encoding": "inplace",
        "label": "address",
        "numberOfBytes": "20"
      },
      "t_array(t_address)dyn_storage": {
        "base": "t_address",
        "encoding": "dynamic_array",
        "label": "address[]",
        "numberOfBytes": "32"
      },
      "t_bool": {
        "encoding": "inplace",
        "label": "bool",
        "numberOfBytes": "1"
      },
      "t_mapping(t_address,t_bool)": {
        "encoding": "mapping",
        "key": "t_address",
        "label": "mapping(address => bool)",
        "numberOfBytes": "32",
        "value": "t_bool"
      },
      "t_mapping(t_address,t_uint256)": {
        "encoding": "mapping",
        "key": "t_address",
        "label": "mapping(address => uint256)",
        "numberOfBytes": "32",
        "value": "t_uint256"
      },
      "t_struct(Storage)21634_storage": {
        "encoding": "inplace",
        "label": "struct LibTreasuryStorage.Storage",
        "members": [
          {
            "astId": 21520,
            "contract": "contracts/facets/Treasury/BondingCalculatorFacet.sol:BondingCalculatorFacet",
            "label": "Necc",
            "offset": 0,
            "slot": "0",
            "type": "t_address"
          },
          {
            "astId": 21522,
            "contract": "contracts/facets/Treasury/BondingCalculatorFacet.sol:BondingCalculatorFacet",
            "label": "blocksNeededForQueue",
            "offset": 0,
            "slot": "1",
            "type": "t_uint256"
          },
          {
            "astId": 21525,
            "contract": "contracts/facets/Treasury/BondingCalculatorFacet.sol:BondingCalculatorFacet",
            "label": "reserveTokens",
            "offset": 0,
            "slot": "2",
            "type": "t_array(t_address)dyn_storage"
          },
          {
            "astId": 21527,
            "contract": "contracts/facets/Treasury/BondingCalculatorFacet.sol:BondingCalculatorFacet",
            "label": "sNecc",
            "offset": 0,
            "slot": "3",
            "type": "t_address"
          },
          {
            "astId": 21529,
            "contract": "contracts/facets/Treasury/BondingCalculatorFacet.sol:BondingCalculatorFacet",
            "label": "sNeccQueue",
            "offset": 0,
            "slot": "4",
            "type": "t_uint256"
          },
          {
            "astId": 21531,
            "contract": "contracts/facets/Treasury/BondingCalculatorFacet.sol:BondingCalculatorFacet",
            "label": "totalReserves",
            "offset": 0,
            "slot": "5",
            "type": "t_uint256"
          },
          {
            "astId": 21533,
            "contract": "contracts/facets/Treasury/BondingCalculatorFacet.sol:BondingCalculatorFacet",
            "label": "totalDebt",
            "offset": 0,
            "slot": "6",
            "type": "t_uint256"
          },
          {
            "astId": 21537,
            "contract": "contracts/facets/Treasury/BondingCalculatorFacet.sol:BondingCalculatorFacet",
            "label": "isReserveToken",
            "offset": 0,
            "slot": "7",
            "type": "t_mapping(t_address,t_bool)"
          },
          {
            "astId": 21541,
            "contract": "contracts/facets/Treasury/BondingCalculatorFacet.sol:BondingCalculatorFacet",
            "label": "reserveTokenQueue",
            "offset": 0,
            "slot": "8",
            "type": "t_mapping(t_address,t_uint256)"
          },
          {
            "astId": 21544,
            "contract": "contracts/facets/Treasury/BondingCalculatorFacet.sol:BondingCalculatorFacet",
            "label": "reserveDepositors",
            "offset": 0,
            "slot": "9",
            "type": "t_array(t_address)dyn_storage"
          },
          {
            "astId": 21548,
            "contract": "contracts/facets/Treasury/BondingCalculatorFacet.sol:BondingCalculatorFacet",
            "label": "isReserveDepositor",
            "offset": 0,
            "slot": "10",
            "type": "t_mapping(t_address,t_bool)"
          },
          {
            "astId": 21552,
            "contract": "contracts/facets/Treasury/BondingCalculatorFacet.sol:BondingCalculatorFacet",
            "label": "reserveDepositorQueue",
            "offset": 0,
            "slot": "11",
            "type": "t_mapping(t_address,t_uint256)"
          },
          {
            "astId": 21555,
            "contract": "contracts/facets/Treasury/BondingCalculatorFacet.sol:BondingCalculatorFacet",
            "label": "reserveSpenders",
            "offset": 0,
            "slot": "12",
            "type": "t_array(t_address)dyn_storage"
          },
          {
            "astId": 21559,
            "contract": "contracts/facets/Treasury/BondingCalculatorFacet.sol:BondingCalculatorFacet",
            "label": "isReserveSpender",
            "offset": 0,
            "slot": "13",
            "type": "t_mapping(t_address,t_bool)"
          },
          {
            "astId": 21563,
            "contract": "contracts/facets/Treasury/BondingCalculatorFacet.sol:BondingCalculatorFacet",
            "label": "reserveSpenderQueue",
            "offset": 0,
            "slot": "14",
            "type": "t_mapping(t_address,t_uint256)"
          },
          {
            "astId": 21566,
            "contract": "contracts/facets/Treasury/BondingCalculatorFacet.sol:BondingCalculatorFacet",
            "label": "liquidityTokens",
            "offset": 0,
            "slot": "15",
            "type": "t_array(t_address)dyn_storage"
          },
          {
            "astId": 21570,
            "contract": "contracts/facets/Treasury/BondingCalculatorFacet.sol:BondingCalculatorFacet",
            "label": "isLiquidityToken",
            "offset": 0,
            "slot": "16",
            "type": "t_mapping(t_address,t_bool)"
          },
          {
            "astId": 21574,
            "contract": "contracts/facets/Treasury/BondingCalculatorFacet.sol:BondingCalculatorFacet",
            "label": "LiquidityTokenQueue",
            "offset": 0,
            "slot": "17",
            "type": "t_mapping(t_address,t_uint256)"
          },
          {
            "astId": 21577,
            "contract": "contracts/facets/Treasury/BondingCalculatorFacet.sol:BondingCalculatorFacet",
            "label": "liquidityDepositors",
            "offset": 0,
            "slot": "18",
            "type": "t_array(t_address)dyn_storage"
          },
          {
            "astId": 21581,
            "contract": "contracts/facets/Treasury/BondingCalculatorFacet.sol:BondingCalculatorFacet",
            "label": "isLiquidityDepositor",
            "offset": 0,
            "slot": "19",
            "type": "t_mapping(t_address,t_bool)"
          },
          {
            "astId": 21585,
            "contract": "contracts/facets/Treasury/BondingCalculatorFacet.sol:BondingCalculatorFacet",
            "label": "LiquidityDepositorQueue",
            "offset": 0,
            "slot": "20",
            "type": "t_mapping(t_address,t_uint256)"
          },
          {
            "astId": 21588,
            "contract": "contracts/facets/Treasury/BondingCalculatorFacet.sol:BondingCalculatorFacet",
            "label": "reserveManagers",
            "offset": 0,
            "slot": "21",
            "type": "t_array(t_address)dyn_storage"
          },
          {
            "astId": 21592,
            "contract": "contracts/facets/Treasury/BondingCalculatorFacet.sol:BondingCalculatorFacet",
            "label": "isReserveManager",
            "offset": 0,
            "slot": "22",
            "type": "t_mapping(t_address,t_bool)"
          },
          {
            "astId": 21596,
            "contract": "contracts/facets/Treasury/BondingCalculatorFacet.sol:BondingCalculatorFacet",
            "label": "ReserveManagerQueue",
            "offset": 0,
            "slot": "23",
            "type": "t_mapping(t_address,t_uint256)"
          },
          {
            "astId": 21599,
            "contract": "contracts/facets/Treasury/BondingCalculatorFacet.sol:BondingCalculatorFacet",
            "label": "liquidityManagers",
            "offset": 0,
            "slot": "24",
            "type": "t_array(t_address)dyn_storage"
          },
          {
            "astId": 21603,
            "contract": "contracts/facets/Treasury/BondingCalculatorFacet.sol:BondingCalculatorFacet",
            "label": "isLiquidityManager",
            "offset": 0,
            "slot": "25",
            "type": "t_mapping(t_address,t_bool)"
          },
          {
            "astId": 21607,
            "contract": "contracts/facets/Treasury/BondingCalculatorFacet.sol:BondingCalculatorFacet",
            "label": "LiquidityManagerQueue",
            "offset": 0,
            "slot": "26",
            "type": "t_mapping(t_address,t_uint256)"
          },
          {
            "astId": 21610,
            "contract": "contracts/facets/Treasury/BondingCalculatorFacet.sol:BondingCalculatorFacet",
            "label": "debtors",
            "offset": 0,
            "slot": "27",
            "type": "t_array(t_address)dyn_storage"
          },
          {
            "astId": 21614,
            "contract": "contracts/facets/Treasury/BondingCalculatorFacet.sol:BondingCalculatorFacet",
            "label": "isDebtor",
            "offset": 0,
            "slot": "28",
            "type": "t_mapping(t_address,t_bool)"
          },
          {
            "astId": 21618,
            "contract": "contracts/facets/Treasury/BondingCalculatorFacet.sol:BondingCalculatorFacet",
            "label": "debtorQueue",
            "offset": 0,
            "slot": "29",
            "type": "t_mapping(t_address,t_uint256)"
          },
          {
            "astId": 21622,
            "contract": "contracts/facets/Treasury/BondingCalculatorFacet.sol:BondingCalculatorFacet",
            "label": "debtorBalance",
            "offset": 0,
            "slot": "30",
            "type": "t_mapping(t_address,t_uint256)"
          },
          {
            "astId": 21625,
            "contract": "contracts/facets/Treasury/BondingCalculatorFacet.sol:BondingCalculatorFacet",
            "label": "rewardManagers",
            "offset": 0,
            "slot": "31",
            "type": "t_array(t_address)dyn_storage"
          },
          {
            "astId": 21629,
            "contract": "contracts/facets/Treasury/BondingCalculatorFacet.sol:BondingCalculatorFacet",
            "label": "isRewardManager",
            "offset": 0,
            "slot": "32",
            "type": "t_mapping(t_address,t_bool)"
          },
          {
            "astId": 21633,
            "contract": "contracts/facets/Treasury/BondingCalculatorFacet.sol:BondingCalculatorFacet",
            "label": "rewardManagerQueue",
            "offset": 0,
            "slot": "33",
            "type": "t_mapping(t_address,t_uint256)"
          }
        ],
        "numberOfBytes": "1088"
      },
      "t_uint256": {
        "encoding": "inplace",
        "label": "uint256",
        "numberOfBytes": "32"
      }
    }
  }
}