{
  "address": "0xfB6A314eD814F29B6347eb39675b218469C74F06",
  "abi": [
    {
      "inputs": [
        {
          "internalType": "address",
          "name": "_recipient",
          "type": "address"
        },
        {
          "internalType": "uint256",
          "name": "_rewardRate",
          "type": "uint256"
        }
      ],
      "name": "addRecipient",
      "outputs": [],
      "stateMutability": "nonpayable",
      "type": "function"
    },
    {
      "inputs": [
        {
          "internalType": "address",
          "name": "_ndol",
          "type": "address"
        },
        {
          "internalType": "address",
          "name": "_Necc",
          "type": "address"
        },
        {
          "internalType": "address",
          "name": "_treasury",
          "type": "address"
        },
        {
          "internalType": "address",
          "name": "_DAO",
          "type": "address"
        }
      ],
      "name": "initializeBondDepository",
      "outputs": [],
      "stateMutability": "nonpayable",
      "type": "function"
    },
    {
      "inputs": [
        {
          "internalType": "uint256",
          "name": "_controlVariable",
          "type": "uint256"
        },
        {
          "internalType": "uint256",
          "name": "_minimumPrice",
          "type": "uint256"
        },
        {
          "internalType": "uint256",
          "name": "_maxPayout",
          "type": "uint256"
        },
        {
          "internalType": "uint256",
          "name": "_fee",
          "type": "uint256"
        },
        {
          "internalType": "uint256",
          "name": "_maxDebt",
          "type": "uint256"
        },
        {
          "internalType": "uint256",
          "name": "_initialDebt",
          "type": "uint256"
        },
        {
          "internalType": "uint256",
          "name": "_vestingTerm",
          "type": "uint256"
        },
        {
          "internalType": "bool",
          "name": "_isLiquidityBond",
          "type": "bool"
        },
        {
          "internalType": "address",
          "name": "_priceFeed",
          "type": "address"
        },
        {
          "internalType": "address",
          "name": "_principle",
          "type": "address"
        }
      ],
      "name": "initializeBondTerms",
      "outputs": [],
      "stateMutability": "nonpayable",
      "type": "function"
    },
    {
      "inputs": [
        {
          "internalType": "uint256",
          "name": "_epochLength",
          "type": "uint256"
        },
        {
          "internalType": "uint256",
          "name": "_nextEpochTimestamp",
          "type": "uint256"
        },
        {
          "internalType": "address",
          "name": "_principle",
          "type": "address"
        }
      ],
      "name": "initializeDistributor",
      "outputs": [],
      "stateMutability": "nonpayable",
      "type": "function"
    },
    {
      "inputs": [
        {
          "internalType": "uint256",
          "name": "_firstEpochNumber",
          "type": "uint256"
        },
        {
          "internalType": "uint32",
          "name": "_firstEpochTime",
          "type": "uint32"
        },
        {
          "internalType": "address",
          "name": "_sNecc",
          "type": "address"
        },
        {
          "internalType": "address",
          "name": "_nNecc",
          "type": "address"
        }
      ],
      "name": "initializeStaking",
      "outputs": [],
      "stateMutability": "nonpayable",
      "type": "function"
    },
    {
      "inputs": [
        {
          "internalType": "address",
          "name": "_token",
          "type": "address"
        }
      ],
      "name": "recoverLostToken",
      "outputs": [
        {
          "internalType": "bool",
          "name": "",
          "type": "bool"
        }
      ],
      "stateMutability": "nonpayable",
      "type": "function"
    },
    {
      "inputs": [
        {
          "internalType": "uint256",
          "name": "_index",
          "type": "uint256"
        },
        {
          "internalType": "address",
          "name": "_recipient",
          "type": "address"
        }
      ],
      "name": "removeRecipient",
      "outputs": [],
      "stateMutability": "nonpayable",
      "type": "function"
    },
    {
      "inputs": [
        {
          "internalType": "bool",
          "name": "_addition",
          "type": "bool"
        },
        {
          "internalType": "uint256",
          "name": "_delta",
          "type": "uint256"
        },
        {
          "internalType": "uint256",
          "name": "_timeToTargetInSeconds",
          "type": "uint256"
        },
        {
          "internalType": "address",
          "name": "_principle",
          "type": "address"
        }
      ],
      "name": "setAdjustment",
      "outputs": [],
      "stateMutability": "nonpayable",
      "type": "function"
    },
    {
      "inputs": [
        {
          "internalType": "uint256",
          "name": "_index",
          "type": "uint256"
        },
        {
          "internalType": "bool",
          "name": "_add",
          "type": "bool"
        },
        {
          "internalType": "uint256",
          "name": "_rate",
          "type": "uint256"
        },
        {
          "internalType": "uint256",
          "name": "_target",
          "type": "uint256"
        }
      ],
      "name": "setAdjustment",
      "outputs": [],
      "stateMutability": "nonpayable",
      "type": "function"
    },
    {
      "inputs": [
        {
          "internalType": "enum PARAMETER",
          "name": "_parameter",
          "type": "uint8"
        },
        {
          "internalType": "uint256",
          "name": "_input",
          "type": "uint256"
        },
        {
          "internalType": "address",
          "name": "_principle",
          "type": "address"
        }
      ],
      "name": "setBondTerms",
      "outputs": [],
      "stateMutability": "nonpayable",
      "type": "function"
    },
    {
      "inputs": [
        {
          "internalType": "enum CONTRACTS",
          "name": "_contract",
          "type": "uint8"
        },
        {
          "internalType": "address",
          "name": "_address",
          "type": "address"
        }
      ],
      "name": "setContract",
      "outputs": [],
      "stateMutability": "nonpayable",
      "type": "function"
    },
    {
      "inputs": [
        {
          "internalType": "address",
          "name": "_farmDistributor",
          "type": "address"
        }
      ],
      "name": "setFarmDistributor",
      "outputs": [],
      "stateMutability": "nonpayable",
      "type": "function"
    },
    {
      "inputs": [
        {
          "internalType": "uint256",
          "name": "_warmupPeriod",
          "type": "uint256"
        }
      ],
      "name": "setWarmup",
      "outputs": [],
      "stateMutability": "nonpayable",
      "type": "function"
    },
    {
      "inputs": [
        {
          "internalType": "address",
          "name": "_maliciousDepositor",
          "type": "address"
        }
      ],
      "name": "toggleDepositLock",
      "outputs": [],
      "stateMutability": "nonpayable",
      "type": "function"
    }
  ],
  "transactionHash": "0xb415c50301d91043cccb90c8db2527c058ecc6622cd4eb63074fbc2bbabd2346",
  "args": [],
  "solcInputHash": "51e0a29016eb8a808231ef727f964484",
  "bytecode": "0x608060405234801561001057600080fd5b5061297a806100206000396000f3fe608060405234801561001057600080fd5b50600436106100ea5760003560e01c8063b00785cc1161008c578063d247cfe911610066578063d247cfe91461021b578063f54fef4014610237578063f798224314610253578063fe3fbbad1461026f576100ea565b8063b00785cc146101b3578063b4abccba146101cf578063c9f464ff146101ff576100ea565b80634a30c463116100c85780634a30c463146101435780635db854b01461015f578063865e6fd31461017b5780638e9068e614610197576100ea565b806307cafdfc146100ef578063128bae671461010b57806319b59e9714610127575b600080fd5b61010960048036038101906101049190611a24565b61028b565b005b61012560048036038101906101209190611abf565b6102da565b005b610141600480360381019061013c9190611b62565b6104a4565b005b61015d60048036038101906101589190611bc9565b610603565b005b61017960048036038101906101749190611c30565b610808565b005b61019560048036038101906101909190611cbc565b61099a565b005b6101b160048036038101906101ac9190611a24565b610aab565b005b6101cd60048036038101906101c89190611cfc565b610b66565b005b6101e960048036038101906101e49190611a24565b610d68565b6040516101f69190611dea565b60405180910390f35b61021960048036038101906102149190611e05565b610eb1565b005b61023560048036038101906102309190611e32565b610ec6565b005b610251600480360381019061024c9190611eaa565b610f09565b005b61026d60048036038101906102689190611efd565b61118e565b005b61028960048036038101906102849190611f3d565b6112c6565b005b61029361141c565b80600060060160006101000a81548173ffffffffffffffffffffffffffffffffffffffff021916908373ffffffffffffffffffffffffffffffffffffffff16021790555050565b60006102e4611426565b90503073ffffffffffffffffffffffffffffffffffffffff163373ffffffffffffffffffffffffffffffffffffffff16148061036f57508060040160009054906101000a900473ffffffffffffffffffffffffffffffffffffffff1673ffffffffffffffffffffffffffffffffffffffff163373ffffffffffffffffffffffffffffffffffffffff16145b6103ae576040517f08c379a00000000000000000000000000000000000000000000000000000000081526004016103a590612000565b60405180910390fd5b60006103c483600061145390919063ffffffff16565b90506000600a01600080815260200190815260200160002060050154841015610422576040517f08c379a00000000000000000000000000000000000000000000000000000000081526004016104199061206c565b60405180910390fd5b60405180608001604052808715158152602001868152602001858152602001428152506000600b01600083815260200190815260200160002060008201518160000160006101000a81548160ff021916908315150217905550602082015181600101556040820151816002015560608201518160030155905050505050505050565b600073ffffffffffffffffffffffffffffffffffffffff168273ffffffffffffffffffffffffffffffffffffffff1614156104de57600080fd5b600073ffffffffffffffffffffffffffffffffffffffff168173ffffffffffffffffffffffffffffffffffffffff16141561051857600080fd5b81600060010160006101000a81548173ffffffffffffffffffffffffffffffffffffffff021916908373ffffffffffffffffffffffffffffffffffffffff16021790555080600060020160006101000a81548173ffffffffffffffffffffffffffffffffffffffff021916908373ffffffffffffffffffffffffffffffffffffffff16021790555060405180608001604052808581526020016000815260200160006017015481526020018463ffffffff1681525060006013016000820151816000015560208201518160010155604082015181600201556060820151816003015590505050505050565b61060b61141c565b600073ffffffffffffffffffffffffffffffffffffffff168373ffffffffffffffffffffffffffffffffffffffff16141561064557600080fd5b826000800160006101000a81548173ffffffffffffffffffffffffffffffffffffffff021916908373ffffffffffffffffffffffffffffffffffffffff160217905550600073ffffffffffffffffffffffffffffffffffffffff168273ffffffffffffffffffffffffffffffffffffffff1614156106c257600080fd5b81600060040160006101000a81548173ffffffffffffffffffffffffffffffffffffffff021916908373ffffffffffffffffffffffffffffffffffffffff160217905550600073ffffffffffffffffffffffffffffffffffffffff168173ffffffffffffffffffffffffffffffffffffffff16141561074057600080fd5b80600060050160006101000a81548173ffffffffffffffffffffffffffffffffffffffff021916908373ffffffffffffffffffffffffffffffffffffffff160217905550600073ffffffffffffffffffffffffffffffffffffffff168473ffffffffffffffffffffffffffffffffffffffff1614156107be57600080fd5b83600060030160006101000a81548173ffffffffffffffffffffffffffffffffffffffff021916908373ffffffffffffffffffffffffffffffffffffffff16021790555050505050565b61081061141c565b600060110184815481106108275761082661208c565b5b906000526020600020906002020160010160009054906101000a900473ffffffffffffffffffffffffffffffffffffffff1673ffffffffffffffffffffffffffffffffffffffff16600073ffffffffffffffffffffffffffffffffffffffff1614156108c8576040517f08c379a00000000000000000000000000000000000000000000000000000000081526004016108bf90612107565b60405180910390fd5b8261092a576000601201600085815260200190815260200160002060010154821115610929576040517f08c379a000000000000000000000000000000000000000000000000000000000815260040161092090612173565b60405180910390fd5b5b60405180606001604052808415158152602001838152602001828152506000601201600086815260200190815260200160002060008201518160000160006101000a81548160ff021916908315150217905550602082015181600101556040820151816002015590505050505050565b6109a261141c565b6002808111156109b5576109b4612193565b5b8260028111156109c8576109c7612193565b5b1415610aa757600073ffffffffffffffffffffffffffffffffffffffff16600060190160009054906101000a900473ffffffffffffffffffffffffffffffffffffffff1673ffffffffffffffffffffffffffffffffffffffff1614610a62576040517f08c379a0000000000000000000000000000000000000000000000000000000008152600401610a5990612234565b60405180910390fd5b80600060190160006101000a81548173ffffffffffffffffffffffffffffffffffffffff021916908373ffffffffffffffffffffffffffffffffffffffff1602179055505b5050565b610ab361141c565b6000601b0160008273ffffffffffffffffffffffffffffffffffffffff1673ffffffffffffffffffffffffffffffffffffffff16815260200190815260200160002060030160009054906101000a900460ff16156000601b0160008373ffffffffffffffffffffffffffffffffffffffff1673ffffffffffffffffffffffffffffffffffffffff16815260200190815260200160002060030160006101000a81548160ff02191690831515021790555050565b610b6e61141c565b610b7c6000600801826114d5565b506000610b9382600061145390919063ffffffff16565b9050600080600a016000838152602001908152602001600020600001541015610bf1576040517f08c379a0000000000000000000000000000000000000000000000000000000008152600401610be8906122a0565b60405180910390fd5b6040518060e001604052808c81526020018b81526020018a81526020018981526020018881526020018681526020018515158152506000600a016000838152602001908152602001600020600082015181600001556020820151816001015560408201518160020155606082015181600301556080820151816004015560a0820151816005015560c08201518160060160006101000a81548160ff021916908315150217905550905050856000600d01600083815260200190815260200160002081905550426000600e01600083815260200190815260200160002081905550600073ffffffffffffffffffffffffffffffffffffffff168373ffffffffffffffffffffffffffffffffffffffff1614610d5b57826000601001600083815260200190815260200160002060006101000a81548173ffffffffffffffffffffffffffffffffffffffff021916908373ffffffffffffffffffffffffffffffffffffffff1602179055505b5050505050505050505050565b60008060000160009054906101000a900473ffffffffffffffffffffffffffffffffffffffff1673ffffffffffffffffffffffffffffffffffffffff168273ffffffffffffffffffffffffffffffffffffffff161415610dc757600080fd5b610dd5600060080183611505565b15610ddf57600080fd5b610ea8600060050160009054906101000a900473ffffffffffffffffffffffffffffffffffffffff168373ffffffffffffffffffffffffffffffffffffffff166370a08231306040518263ffffffff1660e01b8152600401610e4191906122cf565b602060405180830381865afa158015610e5e573d6000803e3d6000fd5b505050506040513d601f19601f82011682018060405250810190610e8291906122ff565b8473ffffffffffffffffffffffffffffffffffffffff166115359092919063ffffffff16565b60019050919050565b610eb961141c565b806000601a018190555050565b6000610edc82600061145390919063ffffffff16565b905083600060170181905550826000600f0160008381526020019081526020016000208190555050505050565b610f1161141c565b6000610f2782600061145390919063ffffffff16565b905060006004811115610f3d57610f3c612193565b5b846004811115610f5057610f4f612193565b5b1415610fbf576201fa40831015610f9c576040517f08c379a0000000000000000000000000000000000000000000000000000000008152600401610f939061239e565b60405180910390fd5b826000600a01600083815260200190815260200160002060050181905550611188565b60016004811115610fd357610fd2612193565b5b846004811115610fe657610fe5612193565b5b1415611054576103e8831115611031576040517f08c379a00000000000000000000000000000000000000000000000000000000081526004016110289061240a565b60405180910390fd5b826000600a01600083815260200190815260200160002060020181905550611187565b6002600481111561106857611067612193565b5b84600481111561107b5761107a612193565b5b14156110e9576127108311156110c6576040517f08c379a00000000000000000000000000000000000000000000000000000000081526004016110bd90612476565b60405180910390fd5b826000600a01600083815260200190815260200160002060030181905550611186565b600360048111156110fd576110fc612193565b5b8460048111156111105761110f612193565b5b141561113957826000600a01600083815260200190815260200160002060040181905550611185565b60048081111561114c5761114b612193565b5b84600481111561115f5761115e612193565b5b141561118457826000600a016000838152602001908152602001600020600101819055505b5b5b5b5b50505050565b61119661141c565b600073ffffffffffffffffffffffffffffffffffffffff168273ffffffffffffffffffffffffffffffffffffffff1614156111d057600080fd5b620f4240811115611216576040517f08c379a000000000000000000000000000000000000000000000000000000000815260040161120d90612508565b60405180910390fd5b600060110160405180604001604052808381526020018473ffffffffffffffffffffffffffffffffffffffff1681525090806001815401808255809150506001900390600052602060002090600202016000909190919091506000820151816000015560208201518160010160006101000a81548173ffffffffffffffffffffffffffffffffffffffff021916908373ffffffffffffffffffffffffffffffffffffffff16021790555050505050565b6112ce61141c565b600060110182815481106112e5576112e461208c565b5b906000526020600020906002020160010160009054906101000a900473ffffffffffffffffffffffffffffffffffffffff1673ffffffffffffffffffffffffffffffffffffffff168173ffffffffffffffffffffffffffffffffffffffff1614611384576040517f08c379a000000000000000000000000000000000000000000000000000000000815260040161137b90612107565b60405180910390fd5b600080601101838154811061139c5761139b61208c565b5b906000526020600020906002020160010160006101000a81548173ffffffffffffffffffffffffffffffffffffffff021916908373ffffffffffffffffffffffffffffffffffffffff16021790555060008060110183815481106114035761140261208c565b5b9060005260206000209060020201600001819055505050565b6114246115bb565b565b6000807fc8fcad8db84d3cc18b4c41d551ea0ee66dd599cde068d998e57d5e09332c131c90508091505090565b60008061146284600801611656565b905060005b818110156114cc578373ffffffffffffffffffffffffffffffffffffffff16611493866008018361166b565b73ffffffffffffffffffffffffffffffffffffffff1614156114b95780925050506114cf565b80806114c490612557565b915050611467565b50505b92915050565b60006114fd836000018373ffffffffffffffffffffffffffffffffffffffff1660001b611685565b905092915050565b600061152d836000018373ffffffffffffffffffffffffffffffffffffffff1660001b6116f5565b905092915050565b6115b68363a9059cbb60e01b84846040516024016115549291906125af565b604051602081830303815290604052907bffffffffffffffffffffffffffffffffffffffffffffffffffffffff19166020820180517bffffffffffffffffffffffffffffffffffffffffffffffffffffffff8381831617835250505050611718565b505050565b6115c3611426565b60040160009054906101000a900473ffffffffffffffffffffffffffffffffffffffff1673ffffffffffffffffffffffffffffffffffffffff163373ffffffffffffffffffffffffffffffffffffffff1614611654576040517f08c379a000000000000000000000000000000000000000000000000000000000815260040161164b9061264a565b60405180910390fd5b565b6000611664826000016117df565b9050919050565b600061167a83600001836117f0565b60001c905092915050565b600061169183836116f5565b6116ea5782600001829080600181540180825580915050600190039060005260206000200160009091909190915055826000018054905083600101600084815260200190815260200160002081905550600190506116ef565b600090505b92915050565b600080836001016000848152602001908152602001600020541415905092915050565b600061177a826040518060400160405280602081526020017f5361666545524332303a206c6f772d6c6576656c2063616c6c206661696c65648152508573ffffffffffffffffffffffffffffffffffffffff1661181b9092919063ffffffff16565b90506000815111156117da578080602001905181019061179a919061267f565b6117d9576040517f08c379a00000000000000000000000000000000000000000000000000000000081526004016117d09061271e565b60405180910390fd5b5b505050565b600081600001805490509050919050565b60008260000182815481106118085761180761208c565b5b9060005260206000200154905092915050565b606061182a8484600085611833565b90509392505050565b606082471015611878576040517f08c379a000000000000000000000000000000000000000000000000000000000815260040161186f906127b0565b60405180910390fd5b61188185611947565b6118c0576040517f08c379a00000000000000000000000000000000000000000000000000000000081526004016118b79061281c565b60405180910390fd5b6000808673ffffffffffffffffffffffffffffffffffffffff1685876040516118e991906128b6565b60006040518083038185875af1925050503d8060008114611926576040519150601f19603f3d011682016040523d82523d6000602084013e61192b565b606091505b509150915061193b82828661195a565b92505050949350505050565b600080823b905060008111915050919050565b6060831561196a578290506119ba565b60008351111561197d5782518084602001fd5b816040517f08c379a00000000000000000000000000000000000000000000000000000000081526004016119b19190612922565b60405180910390fd5b9392505050565b600080fd5b600073ffffffffffffffffffffffffffffffffffffffff82169050919050565b60006119f1826119c6565b9050919050565b611a01816119e6565b8114611a0c57600080fd5b50565b600081359050611a1e816119f8565b92915050565b600060208284031215611a3a57611a396119c1565b5b6000611a4884828501611a0f565b91505092915050565b60008115159050919050565b611a6681611a51565b8114611a7157600080fd5b50565b600081359050611a8381611a5d565b92915050565b6000819050919050565b611a9c81611a89565b8114611aa757600080fd5b50565b600081359050611ab981611a93565b92915050565b60008060008060808587031215611ad957611ad86119c1565b5b6000611ae787828801611a74565b9450506020611af887828801611aaa565b9350506040611b0987828801611aaa565b9250506060611b1a87828801611a0f565b91505092959194509250565b600063ffffffff82169050919050565b611b3f81611b26565b8114611b4a57600080fd5b50565b600081359050611b5c81611b36565b92915050565b60008060008060808587031215611b7c57611b7b6119c1565b5b6000611b8a87828801611aaa565b9450506020611b9b87828801611b4d565b9350506040611bac87828801611a0f565b9250506060611bbd87828801611a0f565b91505092959194509250565b60008060008060808587031215611be357611be26119c1565b5b6000611bf187828801611a0f565b9450506020611c0287828801611a0f565b9350506040611c1387828801611a0f565b9250506060611c2487828801611a0f565b91505092959194509250565b60008060008060808587031215611c4a57611c496119c1565b5b6000611c5887828801611aaa565b9450506020611c6987828801611a74565b9350506040611c7a87828801611aaa565b9250506060611c8b87828801611aaa565b91505092959194509250565b60038110611ca457600080fd5b50565b600081359050611cb681611c97565b92915050565b60008060408385031215611cd357611cd26119c1565b5b6000611ce185828601611ca7565b9250506020611cf285828601611a0f565b9150509250929050565b6000806000806000806000806000806101408b8d031215611d2057611d1f6119c1565b5b6000611d2e8d828e01611aaa565b9a50506020611d3f8d828e01611aaa565b9950506040611d508d828e01611aaa565b9850506060611d618d828e01611aaa565b9750506080611d728d828e01611aaa565b96505060a0611d838d828e01611aaa565b95505060c0611d948d828e01611aaa565b94505060e0611da58d828e01611a74565b935050610100611db78d828e01611a0f565b925050610120611dc98d828e01611a0f565b9150509295989b9194979a5092959850565b611de481611a51565b82525050565b6000602082019050611dff6000830184611ddb565b92915050565b600060208284031215611e1b57611e1a6119c1565b5b6000611e2984828501611aaa565b91505092915050565b600080600060608486031215611e4b57611e4a6119c1565b5b6000611e5986828701611aaa565b9350506020611e6a86828701611aaa565b9250506040611e7b86828701611a0f565b9150509250925092565b60058110611e9257600080fd5b50565b600081359050611ea481611e85565b92915050565b600080600060608486031215611ec357611ec26119c1565b5b6000611ed186828701611e95565b9350506020611ee286828701611aaa565b9250506040611ef386828701611a0f565b9150509250925092565b60008060408385031215611f1457611f136119c1565b5b6000611f2285828601611a0f565b9250506020611f3385828601611aaa565b9150509250929050565b60008060408385031215611f5457611f536119c1565b5b6000611f6285828601611aaa565b9250506020611f7385828601611a0f565b9150509250929050565b600082825260208201905092915050565b7f426f6e644465706f7369746f72793a20496e76616c696420636f6e747261637460008201527f206f776e65720000000000000000000000000000000000000000000000000000602082015250565b6000611fea602683611f7d565b9150611ff582611f8e565b604082019050919050565b6000602082019050818103600083015261201981611fdd565b9050919050565b7f41646a7573746d656e743a204368616e676520746f6f20666173740000000000600082015250565b6000612056601b83611f7d565b915061206182612020565b602082019050919050565b6000602082019050818103600083015261208581612049565b9050919050565b7f4e487b7100000000000000000000000000000000000000000000000000000000600052603260045260246000fd5b7f496e76616c696420726563697069656e74000000000000000000000000000000600082015250565b60006120f1601183611f7d565b91506120fc826120bb565b602082019050919050565b60006020820190508181036000830152612120816120e4565b9050919050565b7f43616e6e6f742064656372656173652072617465000000000000000000000000600082015250565b600061215d601483611f7d565b915061216882612127565b602082019050919050565b6000602082019050818103600083015261218c81612150565b9050919050565b7f4e487b7100000000000000000000000000000000000000000000000000000000600052602160045260246000fd5b7f4c6f636b65722063616e6e6f7420626520736574206d6f7265207468616e206f60008201527f6e63650000000000000000000000000000000000000000000000000000000000602082015250565b600061221e602383611f7d565b9150612229826121c2565b604082019050919050565b6000602082019050818103600083015261224d81612211565b9050919050565b7f426f6e6473206d75737420626520696e697469616c697a65642066726f6d2030600082015250565b600061228a602083611f7d565b915061229582612254565b602082019050919050565b600060208201905081810360008301526122b98161227d565b9050919050565b6122c9816119e6565b82525050565b60006020820190506122e460008301846122c0565b92915050565b6000815190506122f981611a93565b92915050565b600060208284031215612315576123146119c1565b5b6000612323848285016122ea565b91505092915050565b7f56657374696e67206d757374206265206c6f6e676572207468616e203336206860008201527f6f75727300000000000000000000000000000000000000000000000000000000602082015250565b6000612388602483611f7d565b91506123938261232c565b604082019050919050565b600060208201905081810360008301526123b78161237b565b9050919050565b7f5061796f75742063616e6e6f742062652061626f766520312070657263656e74600082015250565b60006123f4602083611f7d565b91506123ff826123be565b602082019050919050565b60006020820190508181036000830152612423816123e7565b9050919050565b7f44414f206665652063616e6e6f7420657863656564207061796f757400000000600082015250565b6000612460601c83611f7d565b915061246b8261242a565b602082019050919050565b6000602082019050818103600083015261248f81612453565b9050919050565b7f52657761726420526174652063616e6e6f74206578636565642064656e6f6d6960008201527f6e61746f72000000000000000000000000000000000000000000000000000000602082015250565b60006124f2602583611f7d565b91506124fd82612496565b604082019050919050565b60006020820190508181036000830152612521816124e5565b9050919050565b7f4e487b7100000000000000000000000000000000000000000000000000000000600052601160045260246000fd5b600061256282611a89565b91507fffffffffffffffffffffffffffffffffffffffffffffffffffffffffffffffff82141561259557612594612528565b5b600182019050919050565b6125a981611a89565b82525050565b60006040820190506125c460008301856122c0565b6125d160208301846125a0565b9392505050565b7f4c69624469616d6f6e643a20696e76616c696420636f6e7472616374206f776e60008201527f6572000000000000000000000000000000000000000000000000000000000000602082015250565b6000612634602283611f7d565b915061263f826125d8565b604082019050919050565b6000602082019050818103600083015261266381612627565b9050919050565b60008151905061267981611a5d565b92915050565b600060208284031215612695576126946119c1565b5b60006126a38482850161266a565b91505092915050565b7f5361666545524332303a204552433230206f7065726174696f6e20646964206e60008201527f6f74207375636365656400000000000000000000000000000000000000000000602082015250565b6000612708602a83611f7d565b9150612713826126ac565b604082019050919050565b60006020820190508181036000830152612737816126fb565b9050919050565b7f416464726573733a20696e73756666696369656e742062616c616e636520666f60008201527f722063616c6c0000000000000000000000000000000000000000000000000000602082015250565b600061279a602683611f7d565b91506127a58261273e565b604082019050919050565b600060208201905081810360008301526127c98161278d565b9050919050565b7f416464726573733a2063616c6c20746f206e6f6e2d636f6e7472616374000000600082015250565b6000612806601d83611f7d565b9150612811826127d0565b602082019050919050565b60006020820190508181036000830152612835816127f9565b9050919050565b600081519050919050565b600081905092915050565b60005b83811015612870578082015181840152602081019050612855565b8381111561287f576000848401525b50505050565b60006128908261283c565b61289a8185612847565b93506128aa818560208601612852565b80840191505092915050565b60006128c28284612885565b915081905092915050565b600081519050919050565b6000601f19601f8301169050919050565b60006128f4826128cd565b6128fe8185611f7d565b935061290e818560208601612852565b612917816128d8565b840191505092915050565b6000602082019050818103600083015261293c81846128e9565b90509291505056fea2646970667358221220a5e591d961f5b4a56ed2ca6c5730a3495f34f24ac4d8e1f22480777a2f7d674164736f6c634300080a0033",
  "devdoc": {
    "kind": "dev",
    "methods": {
      "addRecipient(address,uint256)": {
        "params": {
          "_recipient": "address",
          "_rewardRate": "uint"
        }
      },
      "recoverLostToken(address)": {
        "returns": {
          "_0": "bool"
        }
      },
      "removeRecipient(uint256,address)": {
        "params": {
          "_index": "uint",
          "_recipient": "address"
        }
      },
      "setAdjustment(uint256,bool,uint256,uint256)": {
        "params": {
          "_add": "bool",
          "_index": "uint",
          "_rate": "uint",
          "_target": "uint"
        }
      },
      "setBondTerms(uint8,uint256,address)": {
        "params": {
          "_input": "uint",
          "_parameter": "PARAMETER"
        }
      },
      "setContract(uint8,address)": {
        "params": {
          "_contract": "address"
        }
      },
      "setWarmup(uint256)": {
        "params": {
          "_warmupPeriod": "uint"
        }
      }
    },
    "version": 1
  },
  "userdoc": {
    "kind": "user",
    "methods": {
      "addRecipient(address,uint256)": {
        "notice": "adds recipient for distributions"
      },
      "initializeBondTerms(uint256,uint256,uint256,uint256,uint256,uint256,uint256,bool,address,address)": {
        "notice": "initializes bond parameters"
      },
      "recoverLostToken(address)": {
        "notice": "allow anyone to send lost tokens (excluding principle or Necc) to the DAO"
      },
      "removeRecipient(uint256,address)": {
        "notice": "removes recipient for distributions"
      },
      "setAdjustment(uint256,bool,uint256,uint256)": {
        "notice": "set adjustment info for a collector's reward rate"
      },
      "setBondTerms(uint8,uint256,address)": {
        "notice": "set parameters for new bonds"
      },
      "setContract(uint8,address)": {
        "notice": "sets the contract address for LP staking"
      },
      "setWarmup(uint256)": {
        "notice": "set warmup period in epoch's numbers for new stakers"
      },
      "toggleDepositLock(address)": {
        "notice": "prevent new deposits to address (protection from malicious activity)"
      }
    },
    "version": 1
  },
  "storageLayout": {
    "storage": [
      {
        "astId": 7102,
        "contract": "contracts/facets/Bond/BondConfigFacet.sol:BondConfigFacet",
        "label": "s",
        "offset": 0,
        "slot": "0",
        "type": "t_struct(Storage)20981_storage"
      }
    ],
    "types": {
      "t_address": {
        "encoding": "inplace",
        "label": "address",
        "numberOfBytes": "20"
      },
      "t_array(t_bytes32)dyn_storage": {
        "base": "t_bytes32",
        "encoding": "dynamic_array",
        "label": "bytes32[]",
        "numberOfBytes": "32"
      },
      "t_array(t_struct(Info)20835_storage)dyn_storage": {
        "base": "t_struct(Info)20835_storage",
        "encoding": "dynamic_array",
        "label": "struct LibBondStorage.Info[]",
        "numberOfBytes": "32"
      },
      "t_array(t_struct(Payout)20830_storage)dyn_storage": {
        "base": "t_struct(Payout)20830_storage",
        "encoding": "dynamic_array",
        "label": "struct LibBondStorage.Payout[]",
        "numberOfBytes": "32"
      },
      "t_bool": {
        "encoding": "inplace",
        "label": "bool",
        "numberOfBytes": "1"
      },
      "t_bytes32": {
        "encoding": "inplace",
        "label": "bytes32",
        "numberOfBytes": "32"
      },
      "t_mapping(t_address,t_mapping(t_uint256,t_struct(Bond)20866_storage))": {
        "encoding": "mapping",
        "key": "t_address",
        "label": "mapping(address => mapping(uint256 => struct LibBondStorage.Bond))",
        "numberOfBytes": "32",
        "value": "t_mapping(t_uint256,t_struct(Bond)20866_storage)"
      },
      "t_mapping(t_address,t_struct(Claim)20893_storage)": {
        "encoding": "mapping",
        "key": "t_address",
        "label": "mapping(address => struct LibBondStorage.Claim)",
        "numberOfBytes": "32",
        "value": "t_struct(Claim)20893_storage"
      },
      "t_mapping(t_bytes32,t_uint256)": {
        "encoding": "mapping",
        "key": "t_bytes32",
        "label": "mapping(bytes32 => uint256)",
        "numberOfBytes": "32",
        "value": "t_uint256"
      },
      "t_mapping(t_uint256,t_address)": {
        "encoding": "mapping",
        "key": "t_uint256",
        "label": "mapping(uint256 => address)",
        "numberOfBytes": "32",
        "value": "t_address"
      },
      "t_mapping(t_uint256,t_array(t_struct(Payout)20830_storage)dyn_storage)": {
        "encoding": "mapping",
        "key": "t_uint256",
        "label": "mapping(uint256 => struct LibBondStorage.Payout[])",
        "numberOfBytes": "32",
        "value": "t_array(t_struct(Payout)20830_storage)dyn_storage"
      },
      "t_mapping(t_uint256,t_struct(Bond)20866_storage)": {
        "encoding": "mapping",
        "key": "t_uint256",
        "label": "mapping(uint256 => struct LibBondStorage.Bond)",
        "numberOfBytes": "32",
        "value": "t_struct(Bond)20866_storage"
      },
      "t_mapping(t_uint256,t_struct(BondDepositoryAdjustment)20875_storage)": {
        "encoding": "mapping",
        "key": "t_uint256",
        "label": "mapping(uint256 => struct LibBondStorage.BondDepositoryAdjustment)",
        "numberOfBytes": "32",
        "value": "t_struct(BondDepositoryAdjustment)20875_storage"
      },
      "t_mapping(t_uint256,t_struct(DistributorAdjustment)20842_storage)": {
        "encoding": "mapping",
        "key": "t_uint256",
        "label": "mapping(uint256 => struct LibBondStorage.DistributorAdjustment)",
        "numberOfBytes": "32",
        "value": "t_struct(DistributorAdjustment)20842_storage"
      },
      "t_mapping(t_uint256,t_struct(Terms)20857_storage)": {
        "encoding": "mapping",
        "key": "t_uint256",
        "label": "mapping(uint256 => struct LibBondStorage.Terms)",
        "numberOfBytes": "32",
        "value": "t_struct(Terms)20857_storage"
      },
      "t_mapping(t_uint256,t_uint256)": {
        "encoding": "mapping",
        "key": "t_uint256",
        "label": "mapping(uint256 => uint256)",
        "numberOfBytes": "32",
        "value": "t_uint256"
      },
      "t_struct(AddressSet)1348_storage": {
        "encoding": "inplace",
        "label": "struct EnumerableSet.AddressSet",
        "members": [
          {
            "astId": 1347,
            "contract": "contracts/facets/Bond/BondConfigFacet.sol:BondConfigFacet",
            "label": "_inner",
            "offset": 0,
            "slot": "0",
            "type": "t_struct(Set)1047_storage"
          }
        ],
        "numberOfBytes": "64"
      },
      "t_struct(Bond)20866_storage": {
        "encoding": "inplace",
        "label": "struct LibBondStorage.Bond",
        "members": [
          {
            "astId": 20859,
            "contract": "contracts/facets/Bond/BondConfigFacet.sol:BondConfigFacet",
            "label": "payout",
            "offset": 0,
            "slot": "0",
            "type": "t_uint256"
          },
          {
            "astId": 20861,
            "contract": "contracts/facets/Bond/BondConfigFacet.sol:BondConfigFacet",
            "label": "pricePaid",
            "offset": 0,
            "slot": "1",
            "type": "t_uint256"
          },
          {
            "astId": 20863,
            "contract": "contracts/facets/Bond/BondConfigFacet.sol:BondConfigFacet",
            "label": "lastTime",
            "offset": 0,
            "slot": "2",
            "type": "t_uint256"
          },
          {
            "astId": 20865,
            "contract": "contracts/facets/Bond/BondConfigFacet.sol:BondConfigFacet",
            "label": "vesting",
            "offset": 0,
            "slot": "3",
            "type": "t_uint256"
          }
        ],
        "numberOfBytes": "128"
      },
      "t_struct(BondDepositoryAdjustment)20875_storage": {
        "encoding": "inplace",
        "label": "struct LibBondStorage.BondDepositoryAdjustment",
        "members": [
          {
            "astId": 20868,
            "contract": "contracts/facets/Bond/BondConfigFacet.sol:BondConfigFacet",
            "label": "add",
            "offset": 0,
            "slot": "0",
            "type": "t_bool"
          },
          {
            "astId": 20870,
            "contract": "contracts/facets/Bond/BondConfigFacet.sol:BondConfigFacet",
            "label": "delta",
            "offset": 0,
            "slot": "1",
            "type": "t_uint256"
          },
          {
            "astId": 20872,
            "contract": "contracts/facets/Bond/BondConfigFacet.sol:BondConfigFacet",
            "label": "timeToTarget",
            "offset": 0,
            "slot": "2",
            "type": "t_uint256"
          },
          {
            "astId": 20874,
            "contract": "contracts/facets/Bond/BondConfigFacet.sol:BondConfigFacet",
            "label": "lastTime",
            "offset": 0,
            "slot": "3",
            "type": "t_uint256"
          }
        ],
        "numberOfBytes": "128"
      },
      "t_struct(Claim)20893_storage": {
        "encoding": "inplace",
        "label": "struct LibBondStorage.Claim",
        "members": [
          {
            "astId": 20886,
            "contract": "contracts/facets/Bond/BondConfigFacet.sol:BondConfigFacet",
            "label": "deposit",
            "offset": 0,
            "slot": "0",
            "type": "t_uint256"
          },
          {
            "astId": 20888,
            "contract": "contracts/facets/Bond/BondConfigFacet.sol:BondConfigFacet",
            "label": "gons",
            "offset": 0,
            "slot": "1",
            "type": "t_uint256"
          },
          {
            "astId": 20890,
            "contract": "contracts/facets/Bond/BondConfigFacet.sol:BondConfigFacet",
            "label": "expiry",
            "offset": 0,
            "slot": "2",
            "type": "t_uint256"
          },
          {
            "astId": 20892,
            "contract": "contracts/facets/Bond/BondConfigFacet.sol:BondConfigFacet",
            "label": "lock",
            "offset": 0,
            "slot": "3",
            "type": "t_bool"
          }
        ],
        "numberOfBytes": "128"
      },
      "t_struct(DistributorAdjustment)20842_storage": {
        "encoding": "inplace",
        "label": "struct LibBondStorage.DistributorAdjustment",
        "members": [
          {
            "astId": 20837,
            "contract": "contracts/facets/Bond/BondConfigFacet.sol:BondConfigFacet",
            "label": "add",
            "offset": 0,
            "slot": "0",
            "type": "t_bool"
          },
          {
            "astId": 20839,
            "contract": "contracts/facets/Bond/BondConfigFacet.sol:BondConfigFacet",
            "label": "rate",
            "offset": 0,
            "slot": "1",
            "type": "t_uint256"
          },
          {
            "astId": 20841,
            "contract": "contracts/facets/Bond/BondConfigFacet.sol:BondConfigFacet",
            "label": "target",
            "offset": 0,
            "slot": "2",
            "type": "t_uint256"
          }
        ],
        "numberOfBytes": "96"
      },
      "t_struct(Epoch)20884_storage": {
        "encoding": "inplace",
        "label": "struct LibBondStorage.Epoch",
        "members": [
          {
            "astId": 20877,
            "contract": "contracts/facets/Bond/BondConfigFacet.sol:BondConfigFacet",
            "label": "number",
            "offset": 0,
            "slot": "0",
            "type": "t_uint256"
          },
          {
            "astId": 20879,
            "contract": "contracts/facets/Bond/BondConfigFacet.sol:BondConfigFacet",
            "label": "distribute",
            "offset": 0,
            "slot": "1",
            "type": "t_uint256"
          },
          {
            "astId": 20881,
            "contract": "contracts/facets/Bond/BondConfigFacet.sol:BondConfigFacet",
            "label": "length",
            "offset": 0,
            "slot": "2",
            "type": "t_uint256"
          },
          {
            "astId": 20883,
            "contract": "contracts/facets/Bond/BondConfigFacet.sol:BondConfigFacet",
            "label": "endTime",
            "offset": 0,
            "slot": "3",
            "type": "t_uint256"
          }
        ],
        "numberOfBytes": "128"
      },
      "t_struct(Info)20835_storage": {
        "encoding": "inplace",
        "label": "struct LibBondStorage.Info",
        "members": [
          {
            "astId": 20832,
            "contract": "contracts/facets/Bond/BondConfigFacet.sol:BondConfigFacet",
            "label": "rate",
            "offset": 0,
            "slot": "0",
            "type": "t_uint256"
          },
          {
            "astId": 20834,
            "contract": "contracts/facets/Bond/BondConfigFacet.sol:BondConfigFacet",
            "label": "recipient",
            "offset": 0,
            "slot": "1",
            "type": "t_address"
          }
        ],
        "numberOfBytes": "64"
      },
      "t_struct(Payout)20830_storage": {
        "encoding": "inplace",
        "label": "struct LibBondStorage.Payout",
        "members": [
          {
            "astId": 20827,
            "contract": "contracts/facets/Bond/BondConfigFacet.sol:BondConfigFacet",
            "label": "amount",
            "offset": 0,
            "slot": "0",
            "type": "t_uint256"
          },
          {
            "astId": 20829,
            "contract": "contracts/facets/Bond/BondConfigFacet.sol:BondConfigFacet",
            "label": "blockTimestamp",
            "offset": 0,
            "slot": "1",
            "type": "t_uint256"
          }
        ],
        "numberOfBytes": "64"
      },
      "t_struct(Set)1047_storage": {
        "encoding": "inplace",
        "label": "struct EnumerableSet.Set",
        "members": [
          {
            "astId": 1042,
            "contract": "contracts/facets/Bond/BondConfigFacet.sol:BondConfigFacet",
            "label": "_values",
            "offset": 0,
            "slot": "0",
            "type": "t_array(t_bytes32)dyn_storage"
          },
          {
            "astId": 1046,
            "contract": "contracts/facets/Bond/BondConfigFacet.sol:BondConfigFacet",
            "label": "_indexes",
            "offset": 0,
            "slot": "1",
            "type": "t_mapping(t_bytes32,t_uint256)"
          }
        ],
        "numberOfBytes": "64"
      },
      "t_struct(Storage)20981_storage": {
        "encoding": "inplace",
        "label": "struct LibBondStorage.Storage",
        "members": [
          {
            "astId": 20895,
            "contract": "contracts/facets/Bond/BondConfigFacet.sol:BondConfigFacet",
            "label": "Necc",
            "offset": 0,
            "slot": "0",
            "type": "t_address"
          },
          {
            "astId": 20897,
            "contract": "contracts/facets/Bond/BondConfigFacet.sol:BondConfigFacet",
            "label": "sNecc",
            "offset": 0,
            "slot": "1",
            "type": "t_address"
          },
          {
            "astId": 20899,
            "contract": "contracts/facets/Bond/BondConfigFacet.sol:BondConfigFacet",
            "label": "nNecc",
            "offset": 0,
            "slot": "2",
            "type": "t_address"
          },
          {
            "astId": 20901,
            "contract": "contracts/facets/Bond/BondConfigFacet.sol:BondConfigFacet",
            "label": "ndol",
            "offset": 0,
            "slot": "3",
            "type": "t_address"
          },
          {
            "astId": 20903,
            "contract": "contracts/facets/Bond/BondConfigFacet.sol:BondConfigFacet",
            "label": "treasury",
            "offset": 0,
            "slot": "4",
            "type": "t_address"
          },
          {
            "astId": 20905,
            "contract": "contracts/facets/Bond/BondConfigFacet.sol:BondConfigFacet",
            "label": "DAO",
            "offset": 0,
            "slot": "5",
            "type": "t_address"
          },
          {
            "astId": 20907,
            "contract": "contracts/facets/Bond/BondConfigFacet.sol:BondConfigFacet",
            "label": "farmDistributor",
            "offset": 0,
            "slot": "6",
            "type": "t_address"
          },
          {
            "astId": 20909,
            "contract": "contracts/facets/Bond/BondConfigFacet.sol:BondConfigFacet",
            "label": "staking",
            "offset": 0,
            "slot": "7",
            "type": "t_address"
          },
          {
            "astId": 20912,
            "contract": "contracts/facets/Bond/BondConfigFacet.sol:BondConfigFacet",
            "label": "principles",
            "offset": 0,
            "slot": "8",
            "type": "t_struct(AddressSet)1348_storage"
          },
          {
            "astId": 20917,
            "contract": "contracts/facets/Bond/BondConfigFacet.sol:BondConfigFacet",
            "label": "terms",
            "offset": 0,
            "slot": "10",
            "type": "t_mapping(t_uint256,t_struct(Terms)20857_storage)"
          },
          {
            "astId": 20922,
            "contract": "contracts/facets/Bond/BondConfigFacet.sol:BondConfigFacet",
            "label": "bondDepositoryAdjustment",
            "offset": 0,
            "slot": "11",
            "type": "t_mapping(t_uint256,t_struct(BondDepositoryAdjustment)20875_storage)"
          },
          {
            "astId": 20929,
            "contract": "contracts/facets/Bond/BondConfigFacet.sol:BondConfigFacet",
            "label": "bondInfo",
            "offset": 0,
            "slot": "12",
            "type": "t_mapping(t_address,t_mapping(t_uint256,t_struct(Bond)20866_storage))"
          },
          {
            "astId": 20933,
            "contract": "contracts/facets/Bond/BondConfigFacet.sol:BondConfigFacet",
            "label": "totalDebt",
            "offset": 0,
            "slot": "13",
            "type": "t_mapping(t_uint256,t_uint256)"
          },
          {
            "astId": 20937,
            "contract": "contracts/facets/Bond/BondConfigFacet.sol:BondConfigFacet",
            "label": "lastDecay",
            "offset": 0,
            "slot": "14",
            "type": "t_mapping(t_uint256,t_uint256)"
          },
          {
            "astId": 20941,
            "contract": "contracts/facets/Bond/BondConfigFacet.sol:BondConfigFacet",
            "label": "nextEpochTimestamp",
            "offset": 0,
            "slot": "15",
            "type": "t_mapping(t_uint256,t_uint256)"
          },
          {
            "astId": 20945,
            "contract": "contracts/facets/Bond/BondConfigFacet.sol:BondConfigFacet",
            "label": "priceFeeds",
            "offset": 0,
            "slot": "16",
            "type": "t_mapping(t_uint256,t_address)"
          },
          {
            "astId": 20949,
            "contract": "contracts/facets/Bond/BondConfigFacet.sol:BondConfigFacet",
            "label": "info",
            "offset": 0,
            "slot": "17",
            "type": "t_array(t_struct(Info)20835_storage)dyn_storage"
          },
          {
            "astId": 20954,
            "contract": "contracts/facets/Bond/BondConfigFacet.sol:BondConfigFacet",
            "label": "distributorAdjustments",
            "offset": 0,
            "slot": "18",
            "type": "t_mapping(t_uint256,t_struct(DistributorAdjustment)20842_storage)"
          },
          {
            "astId": 20957,
            "contract": "contracts/facets/Bond/BondConfigFacet.sol:BondConfigFacet",
            "label": "epoch",
            "offset": 0,
            "slot": "19",
            "type": "t_struct(Epoch)20884_storage"
          },
          {
            "astId": 20959,
            "contract": "contracts/facets/Bond/BondConfigFacet.sol:BondConfigFacet",
            "label": "epochLength",
            "offset": 0,
            "slot": "23",
            "type": "t_uint256"
          },
          {
            "astId": 20961,
            "contract": "contracts/facets/Bond/BondConfigFacet.sol:BondConfigFacet",
            "label": "distributor",
            "offset": 0,
            "slot": "24",
            "type": "t_address"
          },
          {
            "astId": 20963,
            "contract": "contracts/facets/Bond/BondConfigFacet.sol:BondConfigFacet",
            "label": "locker",
            "offset": 0,
            "slot": "25",
            "type": "t_address"
          },
          {
            "astId": 20965,
            "contract": "contracts/facets/Bond/BondConfigFacet.sol:BondConfigFacet",
            "label": "warmupPeriod",
            "offset": 0,
            "slot": "26",
            "type": "t_uint256"
          },
          {
            "astId": 20970,
            "contract": "contracts/facets/Bond/BondConfigFacet.sol:BondConfigFacet",
            "label": "warmupInfo",
            "offset": 0,
            "slot": "27",
            "type": "t_mapping(t_address,t_struct(Claim)20893_storage)"
          },
          {
            "astId": 20972,
            "contract": "contracts/facets/Bond/BondConfigFacet.sol:BondConfigFacet",
            "label": "targetSum",
            "offset": 0,
            "slot": "28",
            "type": "t_uint256"
          },
          {
            "astId": 20978,
            "contract": "contracts/facets/Bond/BondConfigFacet.sol:BondConfigFacet",
            "label": "payouts",
            "offset": 0,
            "slot": "29",
            "type": "t_mapping(t_uint256,t_array(t_struct(Payout)20830_storage)dyn_storage)"
          },
          {
            "astId": 20980,
            "contract": "contracts/facets/Bond/BondConfigFacet.sol:BondConfigFacet",
            "label": "gonsInWarmup",
            "offset": 0,
            "slot": "30",
            "type": "t_uint256"
          }
        ],
        "numberOfBytes": "992"
      },
      "t_struct(Terms)20857_storage": {
        "encoding": "inplace",
        "label": "struct LibBondStorage.Terms",
        "members": [
          {
            "astId": 20844,
            "contract": "contracts/facets/Bond/BondConfigFacet.sol:BondConfigFacet",
            "label": "controlVariable",
            "offset": 0,
            "slot": "0",
            "type": "t_uint256"
          },
          {
            "astId": 20846,
            "contract": "contracts/facets/Bond/BondConfigFacet.sol:BondConfigFacet",
            "label": "minimumPrice",
            "offset": 0,
            "slot": "1",
            "type": "t_uint256"
          },
          {
            "astId": 20848,
            "contract": "contracts/facets/Bond/BondConfigFacet.sol:BondConfigFacet",
            "label": "maxPayout",
            "offset": 0,
            "slot": "2",
            "type": "t_uint256"
          },
          {
            "astId": 20850,
            "contract": "contracts/facets/Bond/BondConfigFacet.sol:BondConfigFacet",
            "label": "fee",
            "offset": 0,
            "slot": "3",
            "type": "t_uint256"
          },
          {
            "astId": 20852,
            "contract": "contracts/facets/Bond/BondConfigFacet.sol:BondConfigFacet",
            "label": "maxDebt",
            "offset": 0,
            "slot": "4",
            "type": "t_uint256"
          },
          {
            "astId": 20854,
            "contract": "contracts/facets/Bond/BondConfigFacet.sol:BondConfigFacet",
            "label": "vestingTerm",
            "offset": 0,
            "slot": "5",
            "type": "t_uint256"
          },
          {
            "astId": 20856,
            "contract": "contracts/facets/Bond/BondConfigFacet.sol:BondConfigFacet",
            "label": "isLiquidityBond",
            "offset": 0,
            "slot": "6",
            "type": "t_bool"
          }
        ],
        "numberOfBytes": "224"
      },
      "t_uint256": {
        "encoding": "inplace",
        "label": "uint256",
        "numberOfBytes": "32"
      }
    }
  }
}