{
  "address": "0xA7029559D3d6e34B84B15b19d68b2d4dfBd940F6",
  "abi": [
    {
      "inputs": [],
      "name": "distribute",
      "outputs": [
        {
          "internalType": "bool",
          "name": "",
          "type": "bool"
        }
      ],
      "stateMutability": "nonpayable",
      "type": "function"
    },
    {
      "inputs": [
        {
          "internalType": "uint256",
          "name": "_rate",
          "type": "uint256"
        }
      ],
      "name": "nextRewardAt",
      "outputs": [
        {
          "internalType": "uint256",
          "name": "",
          "type": "uint256"
        }
      ],
      "stateMutability": "view",
      "type": "function"
    },
    {
      "inputs": [
        {
          "internalType": "address",
          "name": "_recipient",
          "type": "address"
        }
      ],
      "name": "nextRewardFor",
      "outputs": [
        {
          "internalType": "uint256",
          "name": "",
          "type": "uint256"
        }
      ],
      "stateMutability": "view",
      "type": "function"
    }
  ],
  "transactionHash": "0xb2a0e4ac41d1e77c9f5c766773e22b42aa9b00594b1f869cf8d638d09b85ad97",
  "args": [],
  "solcInputHash": "6cb46e1129665aecf43fff40b13b2808",
  "bytecode": "0x608060405234801561001057600080fd5b50610b48806100206000396000f3fe608060405234801561001057600080fd5b50600436106100415760003560e01c806336d33f4414610046578063c9fa8b2a14610076578063e4fc6b6d146100a6575b600080fd5b610060600480360381019061005b91906107bd565b6100c4565b60405161006d9190610803565b60405180910390f35b610090600480360381019061008b919061084a565b6101a7565b60405161009d9190610803565b60405180910390f35b6100ae61026a565b6040516100bb9190610892565b60405180910390f35b60008060005b60006011018054905081101561019d578373ffffffffffffffffffffffffffffffffffffffff1660006011018281548110610108576101076108ad565b5b906000526020600020906002020160010160009054906101000a900473ffffffffffffffffffffffffffffffffffffffff1673ffffffffffffffffffffffffffffffffffffffff16141561018a57610187600060110182815481106101705761016f6108ad565b5b9060005260206000209060020201600001546101a7565b91505b80806101959061090b565b9150506100ca565b5080915050919050565b6000610263620f4240610255846000800160009054906101000a900473ffffffffffffffffffffffffffffffffffffffff1673ffffffffffffffffffffffffffffffffffffffff166318160ddd6040518163ffffffff1660e01b8152600401602060405180830381865afa158015610223573d6000803e3d6000fd5b505050506040513d601f19601f820116820180604052508101906102479190610969565b61048390919063ffffffff16565b61049990919063ffffffff16565b9050919050565b60008061027a60006008016104af565b905060006001905060005b8281101561047a57426000600f0160008381526020019081526020016000205411610462576102d86000601701546000600f016000848152602001908152602001600020546104c490919063ffffffff16565b6000600f0160008381526020019081526020016000208190555060005b60006011018054905081101561045c57600080601101828154811061031d5761031c6108ad565b5b906000526020600020906002020160000154111561044957600060040160009054906101000a900473ffffffffffffffffffffffffffffffffffffffff1673ffffffffffffffffffffffffffffffffffffffff16636a20de926000601101838154811061038d5761038c6108ad565b5b906000526020600020906002020160010160009054906101000a900473ffffffffffffffffffffffffffffffffffffffff166103f0600060110185815481106103d9576103d86108ad565b5b9060005260206000209060020201600001546101a7565b6040518363ffffffff1660e01b815260040161040d9291906109a5565b600060405180830381600087803b15801561042757600080fd5b505af115801561043b573d6000803e3d6000fd5b50505050610448816104da565b5b80806104549061090b565b9150506102f5565b50610467565b600091505b80806104729061090b565b915050610285565b50809250505090565b6000818361049191906109ce565b905092915050565b600081836104a79190610a57565b905092915050565b60006104bd82600001610733565b9050919050565b600081836104d29190610a88565b905092915050565b60008060120160008381526020019081526020016000209050600081600101541461072f578060000160009054906101000a900460ff16156105d857610555816001015460006011018481548110610535576105346108ad565b5b9060005260206000209060020201600001546104c490919063ffffffff16565b6000601101838154811061056c5761056b6108ad565b5b90600052602060002090600202016000018190555080600201546000601101838154811061059d5761059c6108ad565b5b906000526020600020906002020160000154106105d3576000806012016000848152602001908152602001600020600101819055505b61072e565b8060010154600060110183815481106105f4576105f36108ad565b5b906000526020600020906002020160000154111561067c5761064b81600101546000601101848154811061062b5761062a6108ad565b5b90600052602060002090600202016000015461074490919063ffffffff16565b60006011018381548110610662576106616108ad565b5b9060005260206000209060020201600001819055506106aa565b6000806011018381548110610694576106936108ad565b5b9060005260206000209060020201600001819055505b8060020154600060110183815481106106c6576106c56108ad565b5b9060005260206000209060020201600001541161072d57600080601201600084815260200190815260200160002060010181905550806002015460006011018381548110610717576107166108ad565b5b9060005260206000209060020201600001819055505b5b5b5050565b600081600001805490509050919050565b600081836107529190610ade565b905092915050565b600080fd5b600073ffffffffffffffffffffffffffffffffffffffff82169050919050565b600061078a8261075f565b9050919050565b61079a8161077f565b81146107a557600080fd5b50565b6000813590506107b781610791565b92915050565b6000602082840312156107d3576107d261075a565b5b60006107e1848285016107a8565b91505092915050565b6000819050919050565b6107fd816107ea565b82525050565b600060208201905061081860008301846107f4565b92915050565b610827816107ea565b811461083257600080fd5b50565b6000813590506108448161081e565b92915050565b6000602082840312156108605761085f61075a565b5b600061086e84828501610835565b91505092915050565b60008115159050919050565b61088c81610877565b82525050565b60006020820190506108a76000830184610883565b92915050565b7f4e487b7100000000000000000000000000000000000000000000000000000000600052603260045260246000fd5b7f4e487b7100000000000000000000000000000000000000000000000000000000600052601160045260246000fd5b6000610916826107ea565b91507fffffffffffffffffffffffffffffffffffffffffffffffffffffffffffffffff821415610949576109486108dc565b5b600182019050919050565b6000815190506109638161081e565b92915050565b60006020828403121561097f5761097e61075a565b5b600061098d84828501610954565b91505092915050565b61099f8161077f565b82525050565b60006040820190506109ba6000830185610996565b6109c760208301846107f4565b9392505050565b60006109d9826107ea565b91506109e4836107ea565b9250817fffffffffffffffffffffffffffffffffffffffffffffffffffffffffffffffff0483118215151615610a1d57610a1c6108dc565b5b828202905092915050565b7f4e487b7100000000000000000000000000000000000000000000000000000000600052601260045260246000fd5b6000610a62826107ea565b9150610a6d836107ea565b925082610a7d57610a7c610a28565b5b828204905092915050565b6000610a93826107ea565b9150610a9e836107ea565b9250827fffffffffffffffffffffffffffffffffffffffffffffffffffffffffffffffff03821115610ad357610ad26108dc565b5b828201905092915050565b6000610ae9826107ea565b9150610af4836107ea565b925082821015610b0757610b066108dc565b5b82820390509291505056fea26469706673582212202421a37387ac0ec857ad6bd4070e9938cd777b66a1e849e868b903b06aaee39864736f6c634300080a0033",
  "devdoc": {
    "kind": "dev",
    "methods": {
      "nextRewardAt(uint256)": {
        "params": {
          "_rate": "uint"
        },
        "returns": {
          "_0": "uint"
        }
      },
      "nextRewardFor(address)": {
        "params": {
          "_recipient": "address"
        },
        "returns": {
          "_0": "uint"
        }
      }
    },
    "version": 1
  },
  "userdoc": {
    "kind": "user",
    "methods": {
      "distribute()": {
        "notice": "send epoch reward to staking contract"
      },
      "nextRewardAt(uint256)": {
        "notice": "view function for next reward at given rate"
      },
      "nextRewardFor(address)": {
        "notice": "view function for next reward for specified address"
      }
    },
    "version": 1
  },
  "storageLayout": {
    "storage": [
      {
        "astId": 2261,
        "contract": "contracts/facets/Bond/DistributorFacet.sol:DistributorFacet",
        "label": "s",
        "offset": 0,
        "slot": "0",
        "type": "t_struct(Storage)5583_storage"
      }
    ],
    "types": {
      "t_address": {
        "encoding": "inplace",
        "label": "address",
        "numberOfBytes": "20"
      },
      "t_array(t_bytes32)dyn_storage": {
        "base": "t_bytes32",
        "encoding": "dynamic_array",
        "label": "bytes32[]",
        "numberOfBytes": "32"
      },
      "t_array(t_struct(Info)5437_storage)dyn_storage": {
        "base": "t_struct(Info)5437_storage",
        "encoding": "dynamic_array",
        "label": "struct LibBondStorage.Info[]",
        "numberOfBytes": "32"
      },
      "t_array(t_struct(Payout)5432_storage)dyn_storage": {
        "base": "t_struct(Payout)5432_storage",
        "encoding": "dynamic_array",
        "label": "struct LibBondStorage.Payout[]",
        "numberOfBytes": "32"
      },
      "t_bool": {
        "encoding": "inplace",
        "label": "bool",
        "numberOfBytes": "1"
      },
      "t_bytes32": {
        "encoding": "inplace",
        "label": "bytes32",
        "numberOfBytes": "32"
      },
      "t_mapping(t_address,t_mapping(t_uint256,t_struct(Bond)5468_storage))": {
        "encoding": "mapping",
        "key": "t_address",
        "label": "mapping(address => mapping(uint256 => struct LibBondStorage.Bond))",
        "numberOfBytes": "32",
        "value": "t_mapping(t_uint256,t_struct(Bond)5468_storage)"
      },
      "t_mapping(t_address,t_struct(Claim)5495_storage)": {
        "encoding": "mapping",
        "key": "t_address",
        "label": "mapping(address => struct LibBondStorage.Claim)",
        "numberOfBytes": "32",
        "value": "t_struct(Claim)5495_storage"
      },
      "t_mapping(t_bytes32,t_uint256)": {
        "encoding": "mapping",
        "key": "t_bytes32",
        "label": "mapping(bytes32 => uint256)",
        "numberOfBytes": "32",
        "value": "t_uint256"
      },
      "t_mapping(t_uint256,t_address)": {
        "encoding": "mapping",
        "key": "t_uint256",
        "label": "mapping(uint256 => address)",
        "numberOfBytes": "32",
        "value": "t_address"
      },
      "t_mapping(t_uint256,t_array(t_struct(Payout)5432_storage)dyn_storage)": {
        "encoding": "mapping",
        "key": "t_uint256",
        "label": "mapping(uint256 => struct LibBondStorage.Payout[])",
        "numberOfBytes": "32",
        "value": "t_array(t_struct(Payout)5432_storage)dyn_storage"
      },
      "t_mapping(t_uint256,t_struct(Bond)5468_storage)": {
        "encoding": "mapping",
        "key": "t_uint256",
        "label": "mapping(uint256 => struct LibBondStorage.Bond)",
        "numberOfBytes": "32",
        "value": "t_struct(Bond)5468_storage"
      },
      "t_mapping(t_uint256,t_struct(BondDepositoryAdjustment)5477_storage)": {
        "encoding": "mapping",
        "key": "t_uint256",
        "label": "mapping(uint256 => struct LibBondStorage.BondDepositoryAdjustment)",
        "numberOfBytes": "32",
        "value": "t_struct(BondDepositoryAdjustment)5477_storage"
      },
      "t_mapping(t_uint256,t_struct(DistributorAdjustment)5444_storage)": {
        "encoding": "mapping",
        "key": "t_uint256",
        "label": "mapping(uint256 => struct LibBondStorage.DistributorAdjustment)",
        "numberOfBytes": "32",
        "value": "t_struct(DistributorAdjustment)5444_storage"
      },
      "t_mapping(t_uint256,t_struct(Terms)5459_storage)": {
        "encoding": "mapping",
        "key": "t_uint256",
        "label": "mapping(uint256 => struct LibBondStorage.Terms)",
        "numberOfBytes": "32",
        "value": "t_struct(Terms)5459_storage"
      },
      "t_mapping(t_uint256,t_uint256)": {
        "encoding": "mapping",
        "key": "t_uint256",
        "label": "mapping(uint256 => uint256)",
        "numberOfBytes": "32",
        "value": "t_uint256"
      },
      "t_struct(AddressSet)1222_storage": {
        "encoding": "inplace",
        "label": "struct EnumerableSet.AddressSet",
        "members": [
          {
            "astId": 1221,
            "contract": "contracts/facets/Bond/DistributorFacet.sol:DistributorFacet",
            "label": "_inner",
            "offset": 0,
            "slot": "0",
            "type": "t_struct(Set)921_storage"
          }
        ],
        "numberOfBytes": "64"
      },
      "t_struct(Bond)5468_storage": {
        "encoding": "inplace",
        "label": "struct LibBondStorage.Bond",
        "members": [
          {
            "astId": 5461,
            "contract": "contracts/facets/Bond/DistributorFacet.sol:DistributorFacet",
            "label": "payout",
            "offset": 0,
            "slot": "0",
            "type": "t_uint256"
          },
          {
            "astId": 5463,
            "contract": "contracts/facets/Bond/DistributorFacet.sol:DistributorFacet",
            "label": "pricePaid",
            "offset": 0,
            "slot": "1",
            "type": "t_uint256"
          },
          {
            "astId": 5465,
            "contract": "contracts/facets/Bond/DistributorFacet.sol:DistributorFacet",
            "label": "lastTime",
            "offset": 0,
            "slot": "2",
            "type": "t_uint256"
          },
          {
            "astId": 5467,
            "contract": "contracts/facets/Bond/DistributorFacet.sol:DistributorFacet",
            "label": "vesting",
            "offset": 0,
            "slot": "3",
            "type": "t_uint256"
          }
        ],
        "numberOfBytes": "128"
      },
      "t_struct(BondDepositoryAdjustment)5477_storage": {
        "encoding": "inplace",
        "label": "struct LibBondStorage.BondDepositoryAdjustment",
        "members": [
          {
            "astId": 5470,
            "contract": "contracts/facets/Bond/DistributorFacet.sol:DistributorFacet",
            "label": "add",
            "offset": 0,
            "slot": "0",
            "type": "t_bool"
          },
          {
            "astId": 5472,
            "contract": "contracts/facets/Bond/DistributorFacet.sol:DistributorFacet",
            "label": "delta",
            "offset": 0,
            "slot": "1",
            "type": "t_uint256"
          },
          {
            "astId": 5474,
            "contract": "contracts/facets/Bond/DistributorFacet.sol:DistributorFacet",
            "label": "timeToTarget",
            "offset": 0,
            "slot": "2",
            "type": "t_uint256"
          },
          {
            "astId": 5476,
            "contract": "contracts/facets/Bond/DistributorFacet.sol:DistributorFacet",
            "label": "lastTime",
            "offset": 0,
            "slot": "3",
            "type": "t_uint256"
          }
        ],
        "numberOfBytes": "128"
      },
      "t_struct(Claim)5495_storage": {
        "encoding": "inplace",
        "label": "struct LibBondStorage.Claim",
        "members": [
          {
            "astId": 5488,
            "contract": "contracts/facets/Bond/DistributorFacet.sol:DistributorFacet",
            "label": "deposit",
            "offset": 0,
            "slot": "0",
            "type": "t_uint256"
          },
          {
            "astId": 5490,
            "contract": "contracts/facets/Bond/DistributorFacet.sol:DistributorFacet",
            "label": "gons",
            "offset": 0,
            "slot": "1",
            "type": "t_uint256"
          },
          {
            "astId": 5492,
            "contract": "contracts/facets/Bond/DistributorFacet.sol:DistributorFacet",
            "label": "expiry",
            "offset": 0,
            "slot": "2",
            "type": "t_uint256"
          },
          {
            "astId": 5494,
            "contract": "contracts/facets/Bond/DistributorFacet.sol:DistributorFacet",
            "label": "lock",
            "offset": 0,
            "slot": "3",
            "type": "t_bool"
          }
        ],
        "numberOfBytes": "128"
      },
      "t_struct(DistributorAdjustment)5444_storage": {
        "encoding": "inplace",
        "label": "struct LibBondStorage.DistributorAdjustment",
        "members": [
          {
            "astId": 5439,
            "contract": "contracts/facets/Bond/DistributorFacet.sol:DistributorFacet",
            "label": "add",
            "offset": 0,
            "slot": "0",
            "type": "t_bool"
          },
          {
            "astId": 5441,
            "contract": "contracts/facets/Bond/DistributorFacet.sol:DistributorFacet",
            "label": "rate",
            "offset": 0,
            "slot": "1",
            "type": "t_uint256"
          },
          {
            "astId": 5443,
            "contract": "contracts/facets/Bond/DistributorFacet.sol:DistributorFacet",
            "label": "target",
            "offset": 0,
            "slot": "2",
            "type": "t_uint256"
          }
        ],
        "numberOfBytes": "96"
      },
      "t_struct(Epoch)5486_storage": {
        "encoding": "inplace",
        "label": "struct LibBondStorage.Epoch",
        "members": [
          {
            "astId": 5479,
            "contract": "contracts/facets/Bond/DistributorFacet.sol:DistributorFacet",
            "label": "number",
            "offset": 0,
            "slot": "0",
            "type": "t_uint256"
          },
          {
            "astId": 5481,
            "contract": "contracts/facets/Bond/DistributorFacet.sol:DistributorFacet",
            "label": "distribute",
            "offset": 0,
            "slot": "1",
            "type": "t_uint256"
          },
          {
            "astId": 5483,
            "contract": "contracts/facets/Bond/DistributorFacet.sol:DistributorFacet",
            "label": "length",
            "offset": 0,
            "slot": "2",
            "type": "t_uint256"
          },
          {
            "astId": 5485,
            "contract": "contracts/facets/Bond/DistributorFacet.sol:DistributorFacet",
            "label": "endTime",
            "offset": 0,
            "slot": "3",
            "type": "t_uint256"
          }
        ],
        "numberOfBytes": "128"
      },
      "t_struct(Info)5437_storage": {
        "encoding": "inplace",
        "label": "struct LibBondStorage.Info",
        "members": [
          {
            "astId": 5434,
            "contract": "contracts/facets/Bond/DistributorFacet.sol:DistributorFacet",
            "label": "rate",
            "offset": 0,
            "slot": "0",
            "type": "t_uint256"
          },
          {
            "astId": 5436,
            "contract": "contracts/facets/Bond/DistributorFacet.sol:DistributorFacet",
            "label": "recipient",
            "offset": 0,
            "slot": "1",
            "type": "t_address"
          }
        ],
        "numberOfBytes": "64"
      },
      "t_struct(Payout)5432_storage": {
        "encoding": "inplace",
        "label": "struct LibBondStorage.Payout",
        "members": [
          {
            "astId": 5429,
            "contract": "contracts/facets/Bond/DistributorFacet.sol:DistributorFacet",
            "label": "amount",
            "offset": 0,
            "slot": "0",
            "type": "t_uint256"
          },
          {
            "astId": 5431,
            "contract": "contracts/facets/Bond/DistributorFacet.sol:DistributorFacet",
            "label": "blockTimestamp",
            "offset": 0,
            "slot": "1",
            "type": "t_uint256"
          }
        ],
        "numberOfBytes": "64"
      },
      "t_struct(Set)921_storage": {
        "encoding": "inplace",
        "label": "struct EnumerableSet.Set",
        "members": [
          {
            "astId": 916,
            "contract": "contracts/facets/Bond/DistributorFacet.sol:DistributorFacet",
            "label": "_values",
            "offset": 0,
            "slot": "0",
            "type": "t_array(t_bytes32)dyn_storage"
          },
          {
            "astId": 920,
            "contract": "contracts/facets/Bond/DistributorFacet.sol:DistributorFacet",
            "label": "_indexes",
            "offset": 0,
            "slot": "1",
            "type": "t_mapping(t_bytes32,t_uint256)"
          }
        ],
        "numberOfBytes": "64"
      },
      "t_struct(Storage)5583_storage": {
        "encoding": "inplace",
        "label": "struct LibBondStorage.Storage",
        "members": [
          {
            "astId": 5497,
            "contract": "contracts/facets/Bond/DistributorFacet.sol:DistributorFacet",
            "label": "Necc",
            "offset": 0,
            "slot": "0",
            "type": "t_address"
          },
          {
            "astId": 5499,
            "contract": "contracts/facets/Bond/DistributorFacet.sol:DistributorFacet",
            "label": "sNecc",
            "offset": 0,
            "slot": "1",
            "type": "t_address"
          },
          {
            "astId": 5501,
            "contract": "contracts/facets/Bond/DistributorFacet.sol:DistributorFacet",
            "label": "nNecc",
            "offset": 0,
            "slot": "2",
            "type": "t_address"
          },
          {
            "astId": 5503,
            "contract": "contracts/facets/Bond/DistributorFacet.sol:DistributorFacet",
            "label": "ndol",
            "offset": 0,
            "slot": "3",
            "type": "t_address"
          },
          {
            "astId": 5505,
            "contract": "contracts/facets/Bond/DistributorFacet.sol:DistributorFacet",
            "label": "treasury",
            "offset": 0,
            "slot": "4",
            "type": "t_address"
          },
          {
            "astId": 5507,
            "contract": "contracts/facets/Bond/DistributorFacet.sol:DistributorFacet",
            "label": "DAO",
            "offset": 0,
            "slot": "5",
            "type": "t_address"
          },
          {
            "astId": 5509,
            "contract": "contracts/facets/Bond/DistributorFacet.sol:DistributorFacet",
            "label": "farmDistributor",
            "offset": 0,
            "slot": "6",
            "type": "t_address"
          },
          {
            "astId": 5511,
            "contract": "contracts/facets/Bond/DistributorFacet.sol:DistributorFacet",
            "label": "staking",
            "offset": 0,
            "slot": "7",
            "type": "t_address"
          },
          {
            "astId": 5514,
            "contract": "contracts/facets/Bond/DistributorFacet.sol:DistributorFacet",
            "label": "principles",
            "offset": 0,
            "slot": "8",
            "type": "t_struct(AddressSet)1222_storage"
          },
          {
            "astId": 5519,
            "contract": "contracts/facets/Bond/DistributorFacet.sol:DistributorFacet",
            "label": "terms",
            "offset": 0,
            "slot": "10",
            "type": "t_mapping(t_uint256,t_struct(Terms)5459_storage)"
          },
          {
            "astId": 5524,
            "contract": "contracts/facets/Bond/DistributorFacet.sol:DistributorFacet",
            "label": "bondDepositoryAdjustment",
            "offset": 0,
            "slot": "11",
            "type": "t_mapping(t_uint256,t_struct(BondDepositoryAdjustment)5477_storage)"
          },
          {
            "astId": 5531,
            "contract": "contracts/facets/Bond/DistributorFacet.sol:DistributorFacet",
            "label": "bondInfo",
            "offset": 0,
            "slot": "12",
            "type": "t_mapping(t_address,t_mapping(t_uint256,t_struct(Bond)5468_storage))"
          },
          {
            "astId": 5535,
            "contract": "contracts/facets/Bond/DistributorFacet.sol:DistributorFacet",
            "label": "totalDebt",
            "offset": 0,
            "slot": "13",
            "type": "t_mapping(t_uint256,t_uint256)"
          },
          {
            "astId": 5539,
            "contract": "contracts/facets/Bond/DistributorFacet.sol:DistributorFacet",
            "label": "lastDecay",
            "offset": 0,
            "slot": "14",
            "type": "t_mapping(t_uint256,t_uint256)"
          },
          {
            "astId": 5543,
            "contract": "contracts/facets/Bond/DistributorFacet.sol:DistributorFacet",
            "label": "nextEpochTimestamp",
            "offset": 0,
            "slot": "15",
            "type": "t_mapping(t_uint256,t_uint256)"
          },
          {
            "astId": 5547,
            "contract": "contracts/facets/Bond/DistributorFacet.sol:DistributorFacet",
            "label": "priceFeeds",
            "offset": 0,
            "slot": "16",
            "type": "t_mapping(t_uint256,t_address)"
          },
          {
            "astId": 5551,
            "contract": "contracts/facets/Bond/DistributorFacet.sol:DistributorFacet",
            "label": "info",
            "offset": 0,
            "slot": "17",
            "type": "t_array(t_struct(Info)5437_storage)dyn_storage"
          },
          {
            "astId": 5556,
            "contract": "contracts/facets/Bond/DistributorFacet.sol:DistributorFacet",
            "label": "distributorAdjustments",
            "offset": 0,
            "slot": "18",
            "type": "t_mapping(t_uint256,t_struct(DistributorAdjustment)5444_storage)"
          },
          {
            "astId": 5559,
            "contract": "contracts/facets/Bond/DistributorFacet.sol:DistributorFacet",
            "label": "epoch",
            "offset": 0,
            "slot": "19",
            "type": "t_struct(Epoch)5486_storage"
          },
          {
            "astId": 5561,
            "contract": "contracts/facets/Bond/DistributorFacet.sol:DistributorFacet",
            "label": "epochLength",
            "offset": 0,
            "slot": "23",
            "type": "t_uint256"
          },
          {
            "astId": 5563,
            "contract": "contracts/facets/Bond/DistributorFacet.sol:DistributorFacet",
            "label": "distributor",
            "offset": 0,
            "slot": "24",
            "type": "t_address"
          },
          {
            "astId": 5565,
            "contract": "contracts/facets/Bond/DistributorFacet.sol:DistributorFacet",
            "label": "locker",
            "offset": 0,
            "slot": "25",
            "type": "t_address"
          },
          {
            "astId": 5567,
            "contract": "contracts/facets/Bond/DistributorFacet.sol:DistributorFacet",
            "label": "warmupPeriod",
            "offset": 0,
            "slot": "26",
            "type": "t_uint256"
          },
          {
            "astId": 5572,
            "contract": "contracts/facets/Bond/DistributorFacet.sol:DistributorFacet",
            "label": "warmupInfo",
            "offset": 0,
            "slot": "27",
            "type": "t_mapping(t_address,t_struct(Claim)5495_storage)"
          },
          {
            "astId": 5574,
            "contract": "contracts/facets/Bond/DistributorFacet.sol:DistributorFacet",
            "label": "targetSum",
            "offset": 0,
            "slot": "28",
            "type": "t_uint256"
          },
          {
            "astId": 5580,
            "contract": "contracts/facets/Bond/DistributorFacet.sol:DistributorFacet",
            "label": "payouts",
            "offset": 0,
            "slot": "29",
            "type": "t_mapping(t_uint256,t_array(t_struct(Payout)5432_storage)dyn_storage)"
          },
          {
            "astId": 5582,
            "contract": "contracts/facets/Bond/DistributorFacet.sol:DistributorFacet",
            "label": "gonsInWarmup",
            "offset": 0,
            "slot": "30",
            "type": "t_uint256"
          }
        ],
        "numberOfBytes": "992"
      },
      "t_struct(Terms)5459_storage": {
        "encoding": "inplace",
        "label": "struct LibBondStorage.Terms",
        "members": [
          {
            "astId": 5446,
            "contract": "contracts/facets/Bond/DistributorFacet.sol:DistributorFacet",
            "label": "controlVariable",
            "offset": 0,
            "slot": "0",
            "type": "t_uint256"
          },
          {
            "astId": 5448,
            "contract": "contracts/facets/Bond/DistributorFacet.sol:DistributorFacet",
            "label": "minimumPrice",
            "offset": 0,
            "slot": "1",
            "type": "t_uint256"
          },
          {
            "astId": 5450,
            "contract": "contracts/facets/Bond/DistributorFacet.sol:DistributorFacet",
            "label": "maxPayout",
            "offset": 0,
            "slot": "2",
            "type": "t_uint256"
          },
          {
            "astId": 5452,
            "contract": "contracts/facets/Bond/DistributorFacet.sol:DistributorFacet",
            "label": "fee",
            "offset": 0,
            "slot": "3",
            "type": "t_uint256"
          },
          {
            "astId": 5454,
            "contract": "contracts/facets/Bond/DistributorFacet.sol:DistributorFacet",
            "label": "maxDebt",
            "offset": 0,
            "slot": "4",
            "type": "t_uint256"
          },
          {
            "astId": 5456,
            "contract": "contracts/facets/Bond/DistributorFacet.sol:DistributorFacet",
            "label": "vestingTerm",
            "offset": 0,
            "slot": "5",
            "type": "t_uint256"
          },
          {
            "astId": 5458,
            "contract": "contracts/facets/Bond/DistributorFacet.sol:DistributorFacet",
            "label": "isLiquidityBond",
            "offset": 0,
            "slot": "6",
            "type": "t_bool"
          }
        ],
        "numberOfBytes": "224"
      },
      "t_uint256": {
        "encoding": "inplace",
        "label": "uint256",
        "numberOfBytes": "32"
      }
    }
  }
}