{
  "address": "0x0580cEd4F4d45591682223D655FEBE5A967C18a8",
  "abi": [
    {
      "inputs": [
        {
          "internalType": "contract IVault",
          "name": "",
          "type": "address"
        },
        {
          "internalType": "address",
          "name": "_tokenIn",
          "type": "address"
        },
        {
          "internalType": "address",
          "name": "_tokenOut",
          "type": "address"
        },
        {
          "internalType": "uint256",
          "name": "_amountIn",
          "type": "uint256"
        }
      ],
      "name": "getAmountOut",
      "outputs": [
        {
          "internalType": "uint256",
          "name": "",
          "type": "uint256"
        },
        {
          "internalType": "uint256",
          "name": "",
          "type": "uint256"
        }
      ],
      "stateMutability": "view",
      "type": "function"
    },
    {
      "inputs": [
        {
          "internalType": "address",
          "name": "",
          "type": "address"
        },
        {
          "internalType": "address[]",
          "name": "_tokens",
          "type": "address[]"
        }
      ],
      "name": "getFees",
      "outputs": [
        {
          "internalType": "uint256[]",
          "name": "",
          "type": "uint256[]"
        }
      ],
      "stateMutability": "view",
      "type": "function"
    },
    {
      "inputs": [
        {
          "internalType": "address",
          "name": "",
          "type": "address"
        },
        {
          "internalType": "address",
          "name": "_weth",
          "type": "address"
        },
        {
          "internalType": "address[]",
          "name": "_tokens",
          "type": "address[]"
        }
      ],
      "name": "getFundingRates",
      "outputs": [
        {
          "internalType": "uint256[]",
          "name": "",
          "type": "uint256[]"
        }
      ],
      "stateMutability": "view",
      "type": "function"
    },
    {
      "inputs": [
        {
          "internalType": "contract IVault",
          "name": "",
          "type": "address"
        },
        {
          "internalType": "address",
          "name": "_tokenIn",
          "type": "address"
        },
        {
          "internalType": "address",
          "name": "_tokenOut",
          "type": "address"
        }
      ],
      "name": "getMaxAmountIn",
      "outputs": [
        {
          "internalType": "uint256",
          "name": "",
          "type": "uint256"
        }
      ],
      "stateMutability": "view",
      "type": "function"
    },
    {
      "inputs": [
        {
          "internalType": "address",
          "name": "_factory",
          "type": "address"
        },
        {
          "internalType": "address[]",
          "name": "_tokens",
          "type": "address[]"
        }
      ],
      "name": "getPairInfo",
      "outputs": [
        {
          "internalType": "uint256[]",
          "name": "",
          "type": "uint256[]"
        }
      ],
      "stateMutability": "view",
      "type": "function"
    },
    {
      "inputs": [
        {
          "internalType": "address",
          "name": "",
          "type": "address"
        },
        {
          "internalType": "address",
          "name": "_account",
          "type": "address"
        },
        {
          "internalType": "address[]",
          "name": "_collateralTokens",
          "type": "address[]"
        },
        {
          "internalType": "address[]",
          "name": "_indexTokens",
          "type": "address[]"
        },
        {
          "internalType": "bool[]",
          "name": "_isLong",
          "type": "bool[]"
        }
      ],
      "name": "getPositions",
      "outputs": [
        {
          "internalType": "uint256[]",
          "name": "",
          "type": "uint256[]"
        }
      ],
      "stateMutability": "view",
      "type": "function"
    },
    {
      "inputs": [
        {
          "internalType": "address",
          "name": "_account",
          "type": "address"
        },
        {
          "internalType": "address[]",
          "name": "_tokens",
          "type": "address[]"
        }
      ],
      "name": "getTokenBalances",
      "outputs": [
        {
          "internalType": "uint256[]",
          "name": "",
          "type": "uint256[]"
        }
      ],
      "stateMutability": "view",
      "type": "function"
    },
    {
      "inputs": [
        {
          "internalType": "address",
          "name": "_account",
          "type": "address"
        },
        {
          "internalType": "address[]",
          "name": "_tokens",
          "type": "address[]"
        }
      ],
      "name": "getTokenBalancesWithSupplies",
      "outputs": [
        {
          "internalType": "uint256[]",
          "name": "",
          "type": "uint256[]"
        }
      ],
      "stateMutability": "view",
      "type": "function"
    },
    {
      "inputs": [
        {
          "internalType": "contract IERC20",
          "name": "_token",
          "type": "address"
        },
        {
          "internalType": "address[]",
          "name": "_excludedAccounts",
          "type": "address[]"
        }
      ],
      "name": "getTokenSupply",
      "outputs": [
        {
          "internalType": "uint256",
          "name": "",
          "type": "uint256"
        }
      ],
      "stateMutability": "view",
      "type": "function"
    },
    {
      "inputs": [
        {
          "internalType": "address",
          "name": "",
          "type": "address"
        },
        {
          "internalType": "address",
          "name": "_weth",
          "type": "address"
        },
        {
          "internalType": "uint256",
          "name": "_ndolAmount",
          "type": "uint256"
        },
        {
          "internalType": "address[]",
          "name": "_tokens",
          "type": "address[]"
        }
      ],
      "name": "getVaultTokenInfo",
      "outputs": [
        {
          "internalType": "uint256[]",
          "name": "",
          "type": "uint256[]"
        }
      ],
      "stateMutability": "view",
      "type": "function"
    }
  ],
  "transactionHash": "0x58e1ca5a7c0cae031c1cd8e44fc7b57f754832a100fd542079aabaac8b816779",
  "args": [],
  "solcInputHash": "b25fdb449e81246734de55deaa372783",
  "bytecode": "0x608060405234801561001057600080fd5b5060008060000160006101000a81548160ff021916908315150217905550612e9e8061003d6000396000f3fe608060405234801561001057600080fd5b506004361061009e5760003560e01c8063a4543ead11610066578063a4543ead14610193578063d7176ca9146101c3578063d802178e146101f4578063dc383cab14610224578063f3535e6c146102545761009e565b806320542568146100a35780632ac0184c146100d35780632e3e33421461010357806386d4d0f51461013357806395a7535a14610163575b600080fd5b6100bd60048036038101906100b89190612239565b610284565b6040516100ca919061237a565b60405180910390f35b6100ed60048036038101906100e891906123da565b610869565b6040516100fa9190612445565b60405180910390f35b61011d60048036038101906101189190612460565b6109bb565b60405161012a919061237a565b60405180910390f35b61014d60048036038101906101489190612460565b610c66565b60405161015a919061237a565b60405180910390f35b61017d600480360381019061017891906124bc565b610d5c565b60405161018a919061237a565b60405180910390f35b6101ad60048036038101906101a89190612460565b611016565b6040516101ba919061237a565b60405180910390f35b6101dd60048036038101906101d89190612569565b6112f6565b6040516101eb9291906125d0565b60405180910390f35b61020e60048036038101906102099190612460565b6113cd565b60405161021b919061237a565b60405180910390f35b61023e600480360381019061023991906126f4565b611573565b60405161024b919061237a565b60405180910390f35b61026e600480360381019061026991906127c3565b611a5e565b60405161027b9190612445565b60405180910390f35b60606000600990506000309050600030905060008386516102a59190612845565b67ffffffffffffffff8111156102be576102bd6120f6565b5b6040519080825280602002602001820160405280156102ec5781602001602082028036833780820191505090505b50905060005b86518110156108595760008782815181106103105761030f61289f565b5b60200260200101519050600073ffffffffffffffffffffffffffffffffffffffff168173ffffffffffffffffffffffffffffffffffffffff161415610353578990505b600060020160009054906101000a900473ffffffffffffffffffffffffffffffffffffffff1673ffffffffffffffffffffffffffffffffffffffff168173ffffffffffffffffffffffffffffffffffffffff1614610845576000600c0160008273ffffffffffffffffffffffffffffffffffffffff1673ffffffffffffffffffffffffffffffffffffffff168152602001908152602001600020548387846103fb9190612845565b8151811061040c5761040b61289f565b5b6020026020010181815250506000600d0160008273ffffffffffffffffffffffffffffffffffffffff1673ffffffffffffffffffffffffffffffffffffffff16815260200190815260200160002054836001888561046a9190612845565b61047491906128ce565b815181106104855761048461289f565b5b6020026020010181815250506000600b0160008273ffffffffffffffffffffffffffffffffffffffff1673ffffffffffffffffffffffffffffffffffffffff1681526020019081526020016000205483600288856104e39190612845565b6104ed91906128ce565b815181106104fe576104fd61289f565b5b6020026020010181815250508473ffffffffffffffffffffffffffffffffffffffff16632c668ec1828b6040518363ffffffff1660e01b8152600401610545929190612933565b602060405180830381865afa158015610562573d6000803e3d6000fd5b505050506040513d601f19601f820116820180604052508101906105869190612971565b83600388856105959190612845565b61059f91906128ce565b815181106105b0576105af61289f565b5b6020026020010181815250506105d881600060020160149054906101000a900460ff16611b87565b83600488856105e79190612845565b6105f191906128ce565b815181106106025761060161289f565b5b60200260200101818152505061062a81600060020160149054906101000a900460ff16611c10565b83600588856106399190612845565b61064391906128ce565b815181106106545761065361289f565b5b6020026020010181815250506000600e0160008273ffffffffffffffffffffffffffffffffffffffff1673ffffffffffffffffffffffffffffffffffffffff1681526020019081526020016000205483600688856106b29190612845565b6106bc91906128ce565b815181106106cd576106cc61289f565b5b6020026020010181815250508373ffffffffffffffffffffffffffffffffffffffff16635ae69163826000806040518463ffffffff1660e01b8152600401610717939291906129ad565b602060405180830381865afa158015610734573d6000803e3d6000fd5b505050506040513d601f19601f820116820180604052508101906107589190612971565b83600788856107679190612845565b61077191906128ce565b815181106107825761078161289f565b5b6020026020010181815250508373ffffffffffffffffffffffffffffffffffffffff16635ae6916382600160006040518463ffffffff1660e01b81526004016107cd939291906129ad565b602060405180830381865afa1580156107ea573d6000803e3d6000fd5b505050506040513d601f19601f8201168201806040525081019061080e9190612971565b836008888561081d9190612845565b61082791906128ce565b815181106108385761083761289f565b5b6020026020010181815250505b508080610851906129e4565b9150506102f2565b5080945050505050949350505050565b6000808373ffffffffffffffffffffffffffffffffffffffff166318160ddd6040518163ffffffff1660e01b8152600401602060405180830381865afa1580156108b7573d6000803e3d6000fd5b505050506040513d601f19601f820116820180604052508101906108db9190612971565b905060005b83518110156109b05760008482815181106108fe576108fd61289f565b5b6020026020010151905060008673ffffffffffffffffffffffffffffffffffffffff166370a08231836040518263ffffffff1660e01b81526004016109439190612a2d565b602060405180830381865afa158015610960573d6000803e3d6000fd5b505050506040513d601f19601f820116820180604052508101906109849190612971565b90506109998185611c9990919063ffffffff16565b9350505080806109a8906129e4565b9150506108e0565b508091505092915050565b606060006002905060008184516109d29190612845565b67ffffffffffffffff8111156109eb576109ea6120f6565b5b604051908082528060200260200182016040528015610a195781602001602082028036833780820191505090505b50905060005b8451811015610c5a576000858281518110610a3d57610a3c61289f565b5b60200260200101519050600073ffffffffffffffffffffffffffffffffffffffff168173ffffffffffffffffffffffffffffffffffffffff161415610afc578673ffffffffffffffffffffffffffffffffffffffff1631838584610aa19190612845565b81518110610ab257610ab161289f565b5b60200260200101818152505060008360018685610acf9190612845565b610ad991906128ce565b81518110610aea57610ae961289f565b5b60200260200101818152505050610c47565b8073ffffffffffffffffffffffffffffffffffffffff166370a08231886040518263ffffffff1660e01b8152600401610b359190612a2d565b602060405180830381865afa158015610b52573d6000803e3d6000fd5b505050506040513d601f19601f82011682018060405250810190610b769190612971565b838584610b839190612845565b81518110610b9457610b9361289f565b5b6020026020010181815250508073ffffffffffffffffffffffffffffffffffffffff166318160ddd6040518163ffffffff1660e01b8152600401602060405180830381865afa158015610beb573d6000803e3d6000fd5b505050506040513d601f19601f82011682018060405250810190610c0f9190612971565b8360018685610c1e9190612845565b610c2891906128ce565b81518110610c3957610c3861289f565b5b602002602001018181525050505b8080610c52906129e4565b915050610a1f565b50809250505092915050565b60606000825167ffffffffffffffff811115610c8557610c846120f6565b5b604051908082528060200260200182016040528015610cb35781602001602082028036833780820191505090505b50905060005b8351811015610d515760006011016000858381518110610cdc57610cdb61289f565b5b602002602001015173ffffffffffffffffffffffffffffffffffffffff1673ffffffffffffffffffffffffffffffffffffffff16815260200190815260200160002054828281518110610d3257610d3161289f565b5b6020026020010181815250508080610d49906129e4565b915050610cb9565b508091505092915050565b60606000600290506000818451610d739190612845565b67ffffffffffffffff811115610d8c57610d8b6120f6565b5b604051908082528060200260200182016040528015610dba5781602001602082028036833780820191505090505b50905060005b8451811015611009576000858281518110610dde57610ddd61289f565b5b60200260200101519050600073ffffffffffffffffffffffffffffffffffffffff168173ffffffffffffffffffffffffffffffffffffffff161415610e21578690505b600080600d0160008373ffffffffffffffffffffffffffffffffffffffff1673ffffffffffffffffffffffffffffffffffffffff168152602001908152602001600020549050600080600c0160008473ffffffffffffffffffffffffffffffffffffffff1673ffffffffffffffffffffffffffffffffffffffff1681526020019081526020016000205490506000811115610f0857610edd81610ecf84610258611caf90919063ffffffff16565b611cc590919063ffffffff16565b858786610eea9190612845565b81518110610efb57610efa61289f565b5b6020026020010181815250505b600080600f0160008573ffffffffffffffffffffffffffffffffffffffff1673ffffffffffffffffffffffffffffffffffffffff168152602001908152602001600020541115610ff3576000610f5f600085611cdb565b9050600080600f0160008673ffffffffffffffffffffffffffffffffffffffff1673ffffffffffffffffffffffffffffffffffffffff168152602001908152602001600020549050610fba8282611e8e90919063ffffffff16565b8760018a89610fc99190612845565b610fd391906128ce565b81518110610fe457610fe361289f565b5b60200260200101818152505050505b5050508080611001906129e4565b915050610dc0565b5080925050509392505050565b60606000600290506000600290506000818386516110349190612a77565b61103e9190612845565b67ffffffffffffffff811115611057576110566120f6565b5b6040519080825280602002602001820160405280156110855781602001602082028036833780820191505090505b50905060005b8386516110989190612a77565b8110156112e95760008685836110ae9190612845565b815181106110bf576110be61289f565b5b60200260200101519050600087600187856110da9190612845565b6110e491906128ce565b815181106110f5576110f461289f565b5b6020026020010151905060008973ffffffffffffffffffffffffffffffffffffffff1663e6a4390584846040518363ffffffff1660e01b815260040161113c929190612aa8565b602060405180830381865afa158015611159573d6000803e3d6000fd5b505050506040513d601f19601f8201168201806040525081019061117d9190612ae6565b90508273ffffffffffffffffffffffffffffffffffffffff166370a08231826040518263ffffffff1660e01b81526004016111b89190612a2d565b602060405180830381865afa1580156111d5573d6000803e3d6000fd5b505050506040513d601f19601f820116820180604052508101906111f99190612971565b8587866112069190612845565b815181106112175761121661289f565b5b6020026020010181815250508173ffffffffffffffffffffffffffffffffffffffff166370a08231826040518263ffffffff1660e01b815260040161125c9190612a2d565b602060405180830381865afa158015611279573d6000803e3d6000fd5b505050506040513d601f19601f8201168201806040525081019061129d9190612971565b85600188876112ac9190612845565b6112b691906128ce565b815181106112c7576112c661289f565b5b60200260200101818152505050505080806112e1906129e4565b91505061108b565b5080935050505092915050565b600080600061131786600060020160149054906101000a900460ff16611b87565b9050600061133786600060020160149054906101000a900460ff16611c10565b90506000611360826113528589611caf90919063ffffffff16565b611cc590919063ffffffff16565b905060006113a0612710611392611383601e612710611c9990919063ffffffff16565b85611caf90919063ffffffff16565b611cc590919063ffffffff16565b905060006113b78284611c9990919063ffffffff16565b9050818196509650505050505094509492505050565b60606000825167ffffffffffffffff8111156113ec576113eb6120f6565b5b60405190808252806020026020018201604052801561141a5781602001602082028036833780820191505090505b50905060005b835181101561156857600084828151811061143e5761143d61289f565b5b60200260200101519050600073ffffffffffffffffffffffffffffffffffffffff168173ffffffffffffffffffffffffffffffffffffffff1614156114ba578573ffffffffffffffffffffffffffffffffffffffff16318383815181106114a8576114a761289f565b5b60200260200101818152505050611555565b8073ffffffffffffffffffffffffffffffffffffffff166370a08231876040518263ffffffff1660e01b81526004016114f39190612a2d565b602060405180830381865afa158015611510573d6000803e3d6000fd5b505050506040513d601f19601f820116820180604052508101906115349190612971565b8383815181106115475761154661289f565b5b602002602001018181525050505b8080611560906129e4565b915050611420565b508091505092915050565b60606000600985516115859190612845565b67ffffffffffffffff81111561159e5761159d6120f6565b5b6040519080825280602002602001820160405280156115cc5781602001602082028036833780820191505090505b50905060005b8551811015611a505760008060008060008060003073ffffffffffffffffffffffffffffffffffffffff16634a3f088d8f8f8b815181106116165761161561289f565b5b60200260200101518f8c815181106116315761163061289f565b5b60200260200101518f8d8151811061164c5761164b61289f565b5b60200260200101516040518563ffffffff1660e01b81526004016116739493929190612b13565b61010060405180830381865afa158015611691573d6000803e3d6000fd5b505050506040513d601f19601f820116820180604052508101906116b59190612b6d565b975097509750509650965096509650868960098a6116d39190612845565b815181106116e4576116e361289f565b5b6020026020010181815250508589600160098b6117019190612845565b61170b91906128ce565b8151811061171c5761171b61289f565b5b6020026020010181815250508489600260098b6117399190612845565b61174391906128ce565b815181106117545761175361289f565b5b6020026020010181815250508389600360098b6117719190612845565b61177b91906128ce565b8151811061178c5761178b61289f565b5b602002602001018181525050816117a45760006117a7565b60015b60ff1689600460098b6117ba9190612845565b6117c491906128ce565b815181106117d5576117d461289f565b5b6020026020010181815250508289600560098b6117f29190612845565b6117fc91906128ce565b8151811061180d5761180c61289f565b5b6020026020010181815250508089600660098b61182a9190612845565b61183491906128ce565b815181106118455761184461289f565b5b602002602001018181525050505050505050506000826009836118689190612845565b815181106118795761187861289f565b5b6020026020010151905060008360026009856118959190612845565b61189f91906128ce565b815181106118b0576118af61289f565b5b6020026020010151905060008460066009866118cc9190612845565b6118d691906128ce565b815181106118e7576118e661289f565b5b602002602001015190506000821115611a3a576000803073ffffffffffffffffffffffffffffffffffffffff16635c07eaab8b888151811061192c5761192b61289f565b5b602002602001015187878d8b815181106119495761194861289f565b5b6020026020010151886040518663ffffffff1660e01b8152600401611972959493929190612c23565b6040805180830381865afa15801561198e573d6000803e3d6000fd5b505050506040513d601f19601f820116820180604052508101906119b29190612c76565b91509150816119c25760006119c5565b60015b60ff168760076009896119d89190612845565b6119e291906128ce565b815181106119f3576119f261289f565b5b60200260200101818152505080876008600989611a109190612845565b611a1a91906128ce565b81518110611a2b57611a2a61289f565b5b60200260200101818152505050505b5050508080611a48906129e4565b9150506115d2565b508091505095945050505050565b600080611a7d84600060020160149054906101000a900460ff16611b87565b90506000611a9d84600060020160149054906101000a900460ff16611c10565b9050600080600c0160008673ffffffffffffffffffffffffffffffffffffffff1673ffffffffffffffffffffffffffffffffffffffff168152602001908152602001600020549050600080600d0160008773ffffffffffffffffffffffffffffffffffffffff1673ffffffffffffffffffffffffffffffffffffffff1681526020019081526020016000205490506000611b408284611c9990919063ffffffff16565b90506000611b6986611b5b8785611caf90919063ffffffff16565b611cc590919063ffffffff16565b9050611b786000828a8c611ea4565b96505050505050509392505050565b60003073ffffffffffffffffffffffffffffffffffffffff16635ae69163846000856040518463ffffffff1660e01b8152600401611bc7939291906129ad565b602060405180830381865afa158015611be4573d6000803e3d6000fd5b505050506040513d601f19601f82011682018060405250810190611c089190612971565b905092915050565b60003073ffffffffffffffffffffffffffffffffffffffff16635ae69163846001856040518463ffffffff1660e01b8152600401611c50939291906129ad565b602060405180830381865afa158015611c6d573d6000803e3d6000fd5b505050506040513d601f19601f82011682018060405250810190611c919190612971565b905092915050565b60008183611ca79190612cb6565b905092915050565b60008183611cbd9190612845565b905092915050565b60008183611cd39190612a77565b905092915050565b600042611d346170808560100160008673ffffffffffffffffffffffffffffffffffffffff1673ffffffffffffffffffffffffffffffffffffffff16815260200190815260200160002054611e8e90919063ffffffff16565b1115611d435760009050611e88565b6000611dad617080611d9f8660100160008773ffffffffffffffffffffffffffffffffffffffff1673ffffffffffffffffffffffffffffffffffffffff1681526020019081526020016000205442611c9990919063ffffffff16565b611cc590919063ffffffff16565b9050600084600c0160008573ffffffffffffffffffffffffffffffffffffffff1673ffffffffffffffffffffffffffffffffffffffff1681526020019081526020016000205490506000811415611e0957600092505050611e88565b611e8381611e7584611e6789600d0160008a73ffffffffffffffffffffffffffffffffffffffff1673ffffffffffffffffffffffffffffffffffffffff16815260200190815260200160002054610258611caf90919063ffffffff16565b611caf90919063ffffffff16565b611cc590919063ffffffff16565b925050505b92915050565b60008183611e9c91906128ce565b905092915050565b6000808560020160009054906101000a900473ffffffffffffffffffffffffffffffffffffffff1673ffffffffffffffffffffffffffffffffffffffff168473ffffffffffffffffffffffffffffffffffffffff1614611f45578560070160008573ffffffffffffffffffffffffffffffffffffffff1673ffffffffffffffffffffffffffffffffffffffff16815260200190815260200160002054611f48565b60125b905060008660020160009054906101000a900473ffffffffffffffffffffffffffffffffffffffff1673ffffffffffffffffffffffffffffffffffffffff168473ffffffffffffffffffffffffffffffffffffffff1614611fea578660070160008573ffffffffffffffffffffffffffffffffffffffff1673ffffffffffffffffffffffffffffffffffffffff16815260200190815260200160002054611fed565b60125b905061202c82600a611fff9190612e1d565b61201e83600a61200f9190612e1d565b89611caf90919063ffffffff16565b611cc590919063ffffffff16565b92505050949350505050565b6000604051905090565b600080fd5b600080fd5b600073ffffffffffffffffffffffffffffffffffffffff82169050919050565b60006120778261204c565b9050919050565b6120878161206c565b811461209257600080fd5b50565b6000813590506120a48161207e565b92915050565b6000819050919050565b6120bd816120aa565b81146120c857600080fd5b50565b6000813590506120da816120b4565b92915050565b600080fd5b6000601f19601f8301169050919050565b7f4e487b7100000000000000000000000000000000000000000000000000000000600052604160045260246000fd5b61212e826120e5565b810181811067ffffffffffffffff8211171561214d5761214c6120f6565b5b80604052505050565b6000612160612038565b905061216c8282612125565b919050565b600067ffffffffffffffff82111561218c5761218b6120f6565b5b602082029050602081019050919050565b600080fd5b60006121b56121b084612171565b612156565b905080838252602082019050602084028301858111156121d8576121d761219d565b5b835b8181101561220157806121ed8882612095565b8452602084019350506020810190506121da565b5050509392505050565b600082601f8301126122205761221f6120e0565b5b81356122308482602086016121a2565b91505092915050565b6000806000806080858703121561225357612252612042565b5b600061226187828801612095565b945050602061227287828801612095565b9350506040612283878288016120cb565b925050606085013567ffffffffffffffff8111156122a4576122a3612047565b5b6122b08782880161220b565b91505092959194509250565b600081519050919050565b600082825260208201905092915050565b6000819050602082019050919050565b6122f1816120aa565b82525050565b600061230383836122e8565b60208301905092915050565b6000602082019050919050565b6000612327826122bc565b61233181856122c7565b935061233c836122d8565b8060005b8381101561236d57815161235488826122f7565b975061235f8361230f565b925050600181019050612340565b5085935050505092915050565b60006020820190508181036000830152612394818461231c565b905092915050565b60006123a78261206c565b9050919050565b6123b78161239c565b81146123c257600080fd5b50565b6000813590506123d4816123ae565b92915050565b600080604083850312156123f1576123f0612042565b5b60006123ff858286016123c5565b925050602083013567ffffffffffffffff8111156124205761241f612047565b5b61242c8582860161220b565b9150509250929050565b61243f816120aa565b82525050565b600060208201905061245a6000830184612436565b92915050565b6000806040838503121561247757612476612042565b5b600061248585828601612095565b925050602083013567ffffffffffffffff8111156124a6576124a5612047565b5b6124b28582860161220b565b9150509250929050565b6000806000606084860312156124d5576124d4612042565b5b60006124e386828701612095565b93505060206124f486828701612095565b925050604084013567ffffffffffffffff81111561251557612514612047565b5b6125218682870161220b565b9150509250925092565b60006125368261206c565b9050919050565b6125468161252b565b811461255157600080fd5b50565b6000813590506125638161253d565b92915050565b6000806000806080858703121561258357612582612042565b5b600061259187828801612554565b94505060206125a287828801612095565b93505060406125b387828801612095565b92505060606125c4878288016120cb565b91505092959194509250565b60006040820190506125e56000830185612436565b6125f26020830184612436565b9392505050565b600067ffffffffffffffff821115612614576126136120f6565b5b602082029050602081019050919050565b60008115159050919050565b61263a81612625565b811461264557600080fd5b50565b60008135905061265781612631565b92915050565b600061267061266b846125f9565b612156565b905080838252602082019050602084028301858111156126935761269261219d565b5b835b818110156126bc57806126a88882612648565b845260208401935050602081019050612695565b5050509392505050565b600082601f8301126126db576126da6120e0565b5b81356126eb84826020860161265d565b91505092915050565b600080600080600060a086880312156127105761270f612042565b5b600061271e88828901612095565b955050602061272f88828901612095565b945050604086013567ffffffffffffffff8111156127505761274f612047565b5b61275c8882890161220b565b935050606086013567ffffffffffffffff81111561277d5761277c612047565b5b6127898882890161220b565b925050608086013567ffffffffffffffff8111156127aa576127a9612047565b5b6127b6888289016126c6565b9150509295509295909350565b6000806000606084860312156127dc576127db612042565b5b60006127ea86828701612554565b93505060206127fb86828701612095565b925050604061280c86828701612095565b9150509250925092565b7f4e487b7100000000000000000000000000000000000000000000000000000000600052601160045260246000fd5b6000612850826120aa565b915061285b836120aa565b9250817fffffffffffffffffffffffffffffffffffffffffffffffffffffffffffffffff048311821515161561289457612893612816565b5b828202905092915050565b7f4e487b7100000000000000000000000000000000000000000000000000000000600052603260045260246000fd5b60006128d9826120aa565b91506128e4836120aa565b9250827fffffffffffffffffffffffffffffffffffffffffffffffffffffffffffffffff0382111561291957612918612816565b5b828201905092915050565b61292d8161206c565b82525050565b60006040820190506129486000830185612924565b6129556020830184612436565b9392505050565b60008151905061296b816120b4565b92915050565b60006020828403121561298757612986612042565b5b60006129958482850161295c565b91505092915050565b6129a781612625565b82525050565b60006060820190506129c26000830186612924565b6129cf602083018561299e565b6129dc604083018461299e565b949350505050565b60006129ef826120aa565b91507fffffffffffffffffffffffffffffffffffffffffffffffffffffffffffffffff821415612a2257612a21612816565b5b600182019050919050565b6000602082019050612a426000830184612924565b92915050565b7f4e487b7100000000000000000000000000000000000000000000000000000000600052601260045260246000fd5b6000612a82826120aa565b9150612a8d836120aa565b925082612a9d57612a9c612a48565b5b828204905092915050565b6000604082019050612abd6000830185612924565b612aca6020830184612924565b9392505050565b600081519050612ae08161207e565b92915050565b600060208284031215612afc57612afb612042565b5b6000612b0a84828501612ad1565b91505092915050565b6000608082019050612b286000830187612924565b612b356020830186612924565b612b426040830185612924565b612b4f606083018461299e565b95945050505050565b600081519050612b6781612631565b92915050565b600080600080600080600080610100898b031215612b8e57612b8d612042565b5b6000612b9c8b828c0161295c565b9850506020612bad8b828c0161295c565b9750506040612bbe8b828c0161295c565b9650506060612bcf8b828c0161295c565b9550506080612be08b828c0161295c565b94505060a0612bf18b828c0161295c565b93505060c0612c028b828c01612b58565b92505060e0612c138b828c0161295c565b9150509295985092959890939650565b600060a082019050612c386000830188612924565b612c456020830187612436565b612c526040830186612436565b612c5f606083018561299e565b612c6c6080830184612436565b9695505050505050565b60008060408385031215612c8d57612c8c612042565b5b6000612c9b85828601612b58565b9250506020612cac8582860161295c565b9150509250929050565b6000612cc1826120aa565b9150612ccc836120aa565b925082821015612cdf57612cde612816565b5b828203905092915050565b60008160011c9050919050565b6000808291508390505b6001851115612d4157808604811115612d1d57612d1c612816565b5b6001851615612d2c5780820291505b8081029050612d3a85612cea565b9450612d01565b94509492505050565b600082612d5a5760019050612e16565b81612d685760009050612e16565b8160018114612d7e5760028114612d8857612db7565b6001915050612e16565b60ff841115612d9a57612d99612816565b5b8360020a915084821115612db157612db0612816565b5b50612e16565b5060208310610133831016604e8410600b8410161715612dec5782820a905083811115612de757612de6612816565b5b612e16565b612df98484846001612cf7565b92509050818404811115612e1057612e0f612816565b5b81810290505b9392505050565b6000612e28826120aa565b9150612e33836120aa565b9250612e607fffffffffffffffffffffffffffffffffffffffffffffffffffffffffffffffff8484612d4a565b90509291505056fea2646970667358221220fecfdaff64d98d6875d303f00d04116f530f42acf668cf1dec8646abee61a49c64736f6c634300080a0033",
  "devdoc": {
    "kind": "dev",
    "methods": {},
    "version": 1
  },
  "userdoc": {
    "kind": "user",
    "methods": {},
    "version": 1
  },
  "storageLayout": {
    "storage": [
      {
        "astId": 12531,
        "contract": "contracts/facets/Reader/ReaderFacet.sol:ReaderFacet",
        "label": "s",
        "offset": 0,
        "slot": "0",
        "type": "t_struct(Storage)21042_storage"
      }
    ],
    "types": {
      "t_address": {
        "encoding": "inplace",
        "label": "address",
        "numberOfBytes": "20"
      },
      "t_array(t_bytes32)dyn_storage": {
        "base": "t_bytes32",
        "encoding": "dynamic_array",
        "label": "bytes32[]",
        "numberOfBytes": "32"
      },
      "t_bool": {
        "encoding": "inplace",
        "label": "bool",
        "numberOfBytes": "1"
      },
      "t_bytes32": {
        "encoding": "inplace",
        "label": "bytes32",
        "numberOfBytes": "32"
      },
      "t_int256": {
        "encoding": "inplace",
        "label": "int256",
        "numberOfBytes": "32"
      },
      "t_mapping(t_address,t_address)": {
        "encoding": "mapping",
        "key": "t_address",
        "label": "mapping(address => address)",
        "numberOfBytes": "32",
        "value": "t_address"
      },
      "t_mapping(t_address,t_bool)": {
        "encoding": "mapping",
        "key": "t_address",
        "label": "mapping(address => bool)",
        "numberOfBytes": "32",
        "value": "t_bool"
      },
      "t_mapping(t_address,t_int256)": {
        "encoding": "mapping",
        "key": "t_address",
        "label": "mapping(address => int256)",
        "numberOfBytes": "32",
        "value": "t_int256"
      },
      "t_mapping(t_address,t_mapping(t_address,t_int256))": {
        "encoding": "mapping",
        "key": "t_address",
        "label": "mapping(address => mapping(address => int256))",
        "numberOfBytes": "32",
        "value": "t_mapping(t_address,t_int256)"
      },
      "t_mapping(t_address,t_uint256)": {
        "encoding": "mapping",
        "key": "t_address",
        "label": "mapping(address => uint256)",
        "numberOfBytes": "32",
        "value": "t_uint256"
      },
      "t_mapping(t_bytes32,t_struct(Position)20927_storage)": {
        "encoding": "mapping",
        "key": "t_bytes32",
        "label": "mapping(bytes32 => struct LibExchangeStorage.Position)",
        "numberOfBytes": "32",
        "value": "t_struct(Position)20927_storage"
      },
      "t_mapping(t_bytes32,t_uint256)": {
        "encoding": "mapping",
        "key": "t_bytes32",
        "label": "mapping(bytes32 => uint256)",
        "numberOfBytes": "32",
        "value": "t_uint256"
      },
      "t_mapping(t_uint80,t_int256)": {
        "encoding": "mapping",
        "key": "t_uint80",
        "label": "mapping(uint80 => int256)",
        "numberOfBytes": "32",
        "value": "t_int256"
      },
      "t_struct(AddressSet)1348_storage": {
        "encoding": "inplace",
        "label": "struct EnumerableSet.AddressSet",
        "members": [
          {
            "astId": 1347,
            "contract": "contracts/facets/Reader/ReaderFacet.sol:ReaderFacet",
            "label": "_inner",
            "offset": 0,
            "slot": "0",
            "type": "t_struct(Set)1047_storage"
          }
        ],
        "numberOfBytes": "64"
      },
      "t_struct(Position)20927_storage": {
        "encoding": "inplace",
        "label": "struct LibExchangeStorage.Position",
        "members": [
          {
            "astId": 20914,
            "contract": "contracts/facets/Reader/ReaderFacet.sol:ReaderFacet",
            "label": "size",
            "offset": 0,
            "slot": "0",
            "type": "t_uint256"
          },
          {
            "astId": 20916,
            "contract": "contracts/facets/Reader/ReaderFacet.sol:ReaderFacet",
            "label": "collateral",
            "offset": 0,
            "slot": "1",
            "type": "t_uint256"
          },
          {
            "astId": 20918,
            "contract": "contracts/facets/Reader/ReaderFacet.sol:ReaderFacet",
            "label": "averagePrice",
            "offset": 0,
            "slot": "2",
            "type": "t_uint256"
          },
          {
            "astId": 20920,
            "contract": "contracts/facets/Reader/ReaderFacet.sol:ReaderFacet",
            "label": "entryFundingRate",
            "offset": 0,
            "slot": "3",
            "type": "t_uint256"
          },
          {
            "astId": 20922,
            "contract": "contracts/facets/Reader/ReaderFacet.sol:ReaderFacet",
            "label": "reserveAmount",
            "offset": 0,
            "slot": "4",
            "type": "t_uint256"
          },
          {
            "astId": 20924,
            "contract": "contracts/facets/Reader/ReaderFacet.sol:ReaderFacet",
            "label": "realisedPnl",
            "offset": 0,
            "slot": "5",
            "type": "t_int256"
          },
          {
            "astId": 20926,
            "contract": "contracts/facets/Reader/ReaderFacet.sol:ReaderFacet",
            "label": "lastIncreasedTime",
            "offset": 0,
            "slot": "6",
            "type": "t_uint256"
          }
        ],
        "numberOfBytes": "224"
      },
      "t_struct(Set)1047_storage": {
        "encoding": "inplace",
        "label": "struct EnumerableSet.Set",
        "members": [
          {
            "astId": 1042,
            "contract": "contracts/facets/Reader/ReaderFacet.sol:ReaderFacet",
            "label": "_values",
            "offset": 0,
            "slot": "0",
            "type": "t_array(t_bytes32)dyn_storage"
          },
          {
            "astId": 1046,
            "contract": "contracts/facets/Reader/ReaderFacet.sol:ReaderFacet",
            "label": "_indexes",
            "offset": 0,
            "slot": "1",
            "type": "t_mapping(t_bytes32,t_uint256)"
          }
        ],
        "numberOfBytes": "64"
      },
      "t_struct(Storage)21042_storage": {
        "encoding": "inplace",
        "label": "struct LibExchangeStorage.Storage",
        "members": [
          {
            "astId": 20929,
            "contract": "contracts/facets/Reader/ReaderFacet.sol:ReaderFacet",
            "label": "contractEntered",
            "offset": 0,
            "slot": "0",
            "type": "t_bool"
          },
          {
            "astId": 20931,
            "contract": "contracts/facets/Reader/ReaderFacet.sol:ReaderFacet",
            "label": "btc",
            "offset": 1,
            "slot": "0",
            "type": "t_address"
          },
          {
            "astId": 20933,
            "contract": "contracts/facets/Reader/ReaderFacet.sol:ReaderFacet",
            "label": "weth",
            "offset": 0,
            "slot": "1",
            "type": "t_address"
          },
          {
            "astId": 20935,
            "contract": "contracts/facets/Reader/ReaderFacet.sol:ReaderFacet",
            "label": "ndol",
            "offset": 0,
            "slot": "2",
            "type": "t_address"
          },
          {
            "astId": 20937,
            "contract": "contracts/facets/Reader/ReaderFacet.sol:ReaderFacet",
            "label": "includeAmmPrice",
            "offset": 20,
            "slot": "2",
            "type": "t_bool"
          },
          {
            "astId": 20939,
            "contract": "contracts/facets/Reader/ReaderFacet.sol:ReaderFacet",
            "label": "isInitialized",
            "offset": 21,
            "slot": "2",
            "type": "t_bool"
          },
          {
            "astId": 20942,
            "contract": "contracts/facets/Reader/ReaderFacet.sol:ReaderFacet",
            "label": "tokens",
            "offset": 0,
            "slot": "3",
            "type": "t_struct(AddressSet)1348_storage"
          },
          {
            "astId": 20946,
            "contract": "contracts/facets/Reader/ReaderFacet.sol:ReaderFacet",
            "label": "whitelistedTokens",
            "offset": 0,
            "slot": "5",
            "type": "t_mapping(t_address,t_bool)"
          },
          {
            "astId": 20951,
            "contract": "contracts/facets/Reader/ReaderFacet.sol:ReaderFacet",
            "label": "positions",
            "offset": 0,
            "slot": "6",
            "type": "t_mapping(t_bytes32,t_struct(Position)20927_storage)"
          },
          {
            "astId": 20955,
            "contract": "contracts/facets/Reader/ReaderFacet.sol:ReaderFacet",
            "label": "tokenDecimals",
            "offset": 0,
            "slot": "7",
            "type": "t_mapping(t_address,t_uint256)"
          },
          {
            "astId": 20959,
            "contract": "contracts/facets/Reader/ReaderFacet.sol:ReaderFacet",
            "label": "redemptionBasisPoints",
            "offset": 0,
            "slot": "8",
            "type": "t_mapping(t_address,t_uint256)"
          },
          {
            "astId": 20963,
            "contract": "contracts/facets/Reader/ReaderFacet.sol:ReaderFacet",
            "label": "minProfitBasisPoints",
            "offset": 0,
            "slot": "9",
            "type": "t_mapping(t_address,t_uint256)"
          },
          {
            "astId": 20967,
            "contract": "contracts/facets/Reader/ReaderFacet.sol:ReaderFacet",
            "label": "tokenBalances",
            "offset": 0,
            "slot": "10",
            "type": "t_mapping(t_address,t_uint256)"
          },
          {
            "astId": 20971,
            "contract": "contracts/facets/Reader/ReaderFacet.sol:ReaderFacet",
            "label": "ndolAmounts",
            "offset": 0,
            "slot": "11",
            "type": "t_mapping(t_address,t_uint256)"
          },
          {
            "astId": 20975,
            "contract": "contracts/facets/Reader/ReaderFacet.sol:ReaderFacet",
            "label": "poolAmounts",
            "offset": 0,
            "slot": "12",
            "type": "t_mapping(t_address,t_uint256)"
          },
          {
            "astId": 20979,
            "contract": "contracts/facets/Reader/ReaderFacet.sol:ReaderFacet",
            "label": "reservedAmounts",
            "offset": 0,
            "slot": "13",
            "type": "t_mapping(t_address,t_uint256)"
          },
          {
            "astId": 20983,
            "contract": "contracts/facets/Reader/ReaderFacet.sol:ReaderFacet",
            "label": "guaranteedUsd",
            "offset": 0,
            "slot": "14",
            "type": "t_mapping(t_address,t_uint256)"
          },
          {
            "astId": 20987,
            "contract": "contracts/facets/Reader/ReaderFacet.sol:ReaderFacet",
            "label": "cumulativeFundingRates",
            "offset": 0,
            "slot": "15",
            "type": "t_mapping(t_address,t_uint256)"
          },
          {
            "astId": 20991,
            "contract": "contracts/facets/Reader/ReaderFacet.sol:ReaderFacet",
            "label": "lastFundingTimes",
            "offset": 0,
            "slot": "16",
            "type": "t_mapping(t_address,t_uint256)"
          },
          {
            "astId": 20995,
            "contract": "contracts/facets/Reader/ReaderFacet.sol:ReaderFacet",
            "label": "feeReserves",
            "offset": 0,
            "slot": "17",
            "type": "t_mapping(t_address,t_uint256)"
          },
          {
            "astId": 20999,
            "contract": "contracts/facets/Reader/ReaderFacet.sol:ReaderFacet",
            "label": "tokenWeights",
            "offset": 0,
            "slot": "18",
            "type": "t_mapping(t_address,t_uint256)"
          },
          {
            "astId": 21001,
            "contract": "contracts/facets/Reader/ReaderFacet.sol:ReaderFacet",
            "label": "totalTokenWeight",
            "offset": 0,
            "slot": "19",
            "type": "t_uint256"
          },
          {
            "astId": 21005,
            "contract": "contracts/facets/Reader/ReaderFacet.sol:ReaderFacet",
            "label": "plugins",
            "offset": 0,
            "slot": "20",
            "type": "t_mapping(t_address,t_bool)"
          },
          {
            "astId": 21009,
            "contract": "contracts/facets/Reader/ReaderFacet.sol:ReaderFacet",
            "label": "priceFeeds",
            "offset": 0,
            "slot": "21",
            "type": "t_mapping(t_address,t_address)"
          },
          {
            "astId": 21013,
            "contract": "contracts/facets/Reader/ReaderFacet.sol:ReaderFacet",
            "label": "priceDecimals",
            "offset": 0,
            "slot": "22",
            "type": "t_mapping(t_address,t_uint256)"
          },
          {
            "astId": 21017,
            "contract": "contracts/facets/Reader/ReaderFacet.sol:ReaderFacet",
            "label": "priceSpreadBasisPoints",
            "offset": 0,
            "slot": "23",
            "type": "t_mapping(t_address,t_uint256)"
          },
          {
            "astId": 21021,
            "contract": "contracts/facets/Reader/ReaderFacet.sol:ReaderFacet",
            "label": "baseTokenPairs",
            "offset": 0,
            "slot": "24",
            "type": "t_mapping(t_address,t_address)"
          },
          {
            "astId": 21025,
            "contract": "contracts/facets/Reader/ReaderFacet.sol:ReaderFacet",
            "label": "tokenPairs",
            "offset": 0,
            "slot": "25",
            "type": "t_mapping(t_address,t_address)"
          },
          {
            "astId": 21027,
            "contract": "contracts/facets/Reader/ReaderFacet.sol:ReaderFacet",
            "label": "answer",
            "offset": 0,
            "slot": "26",
            "type": "t_int256"
          },
          {
            "astId": 21029,
            "contract": "contracts/facets/Reader/ReaderFacet.sol:ReaderFacet",
            "label": "roundId",
            "offset": 0,
            "slot": "27",
            "type": "t_uint80"
          },
          {
            "astId": 21033,
            "contract": "contracts/facets/Reader/ReaderFacet.sol:ReaderFacet",
            "label": "answers",
            "offset": 0,
            "slot": "28",
            "type": "t_mapping(t_uint80,t_int256)"
          },
          {
            "astId": 21035,
            "contract": "contracts/facets/Reader/ReaderFacet.sol:ReaderFacet",
            "label": "totalNDOLMinted",
            "offset": 0,
            "slot": "29",
            "type": "t_uint256"
          },
          {
            "astId": 21041,
            "contract": "contracts/facets/Reader/ReaderFacet.sol:ReaderFacet",
            "label": "ndolMinted",
            "offset": 0,
            "slot": "30",
            "type": "t_mapping(t_address,t_mapping(t_address,t_int256))"
          }
        ],
        "numberOfBytes": "992"
      },
      "t_uint256": {
        "encoding": "inplace",
        "label": "uint256",
        "numberOfBytes": "32"
      },
      "t_uint80": {
        "encoding": "inplace",
        "label": "uint80",
        "numberOfBytes": "10"
      }
    }
  }
}