{
  "address": "0xb39d4d72a4f2748876b1AcbC844e4298B6939314",
  "abi": [
    {
      "anonymous": false,
      "inputs": [
        {
          "indexed": false,
          "internalType": "address",
          "name": "account",
          "type": "address"
        },
        {
          "indexed": false,
          "internalType": "address",
          "name": "tokenIn",
          "type": "address"
        },
        {
          "indexed": false,
          "internalType": "address",
          "name": "tokenOut",
          "type": "address"
        },
        {
          "indexed": false,
          "internalType": "uint256",
          "name": "amountIn",
          "type": "uint256"
        },
        {
          "indexed": false,
          "internalType": "uint256",
          "name": "amountOut",
          "type": "uint256"
        }
      ],
      "name": "Swap",
      "type": "event"
    },
    {
      "inputs": [
        {
          "internalType": "address",
          "name": "_collateralToken",
          "type": "address"
        },
        {
          "internalType": "address",
          "name": "_indexToken",
          "type": "address"
        },
        {
          "internalType": "uint256",
          "name": "_collateralDelta",
          "type": "uint256"
        },
        {
          "internalType": "uint256",
          "name": "_sizeDelta",
          "type": "uint256"
        },
        {
          "internalType": "bool",
          "name": "_isLong",
          "type": "bool"
        },
        {
          "internalType": "address",
          "name": "_receiver",
          "type": "address"
        },
        {
          "internalType": "uint256",
          "name": "_price",
          "type": "uint256"
        }
      ],
      "name": "decreasePosition",
      "outputs": [],
      "stateMutability": "nonpayable",
      "type": "function"
    },
    {
      "inputs": [
        {
          "internalType": "address",
          "name": "_collateralToken",
          "type": "address"
        },
        {
          "internalType": "address",
          "name": "_indexToken",
          "type": "address"
        },
        {
          "internalType": "uint256",
          "name": "_collateralDelta",
          "type": "uint256"
        },
        {
          "internalType": "uint256",
          "name": "_sizeDelta",
          "type": "uint256"
        },
        {
          "internalType": "bool",
          "name": "_isLong",
          "type": "bool"
        },
        {
          "internalType": "address payable",
          "name": "_receiver",
          "type": "address"
        },
        {
          "internalType": "uint256",
          "name": "_price",
          "type": "uint256"
        }
      ],
      "name": "decreasePositionETH",
      "outputs": [],
      "stateMutability": "nonpayable",
      "type": "function"
    },
    {
      "inputs": [
        {
          "internalType": "address",
          "name": "_token",
          "type": "address"
        },
        {
          "internalType": "uint256",
          "name": "_amount",
          "type": "uint256"
        }
      ],
      "name": "directPoolDeposit",
      "outputs": [],
      "stateMutability": "nonpayable",
      "type": "function"
    },
    {
      "inputs": [
        {
          "internalType": "address[]",
          "name": "_path",
          "type": "address[]"
        },
        {
          "internalType": "address",
          "name": "_indexToken",
          "type": "address"
        },
        {
          "internalType": "uint256",
          "name": "_amountIn",
          "type": "uint256"
        },
        {
          "internalType": "uint256",
          "name": "_minOut",
          "type": "uint256"
        },
        {
          "internalType": "uint256",
          "name": "_sizeDelta",
          "type": "uint256"
        },
        {
          "internalType": "bool",
          "name": "_isLong",
          "type": "bool"
        },
        {
          "internalType": "uint256",
          "name": "_price",
          "type": "uint256"
        }
      ],
      "name": "increasePosition",
      "outputs": [],
      "stateMutability": "nonpayable",
      "type": "function"
    },
    {
      "inputs": [
        {
          "internalType": "address[]",
          "name": "_path",
          "type": "address[]"
        },
        {
          "internalType": "address",
          "name": "_indexToken",
          "type": "address"
        },
        {
          "internalType": "uint256",
          "name": "_minOut",
          "type": "uint256"
        },
        {
          "internalType": "uint256",
          "name": "_sizeDelta",
          "type": "uint256"
        },
        {
          "internalType": "bool",
          "name": "_isLong",
          "type": "bool"
        },
        {
          "internalType": "uint256",
          "name": "_price",
          "type": "uint256"
        }
      ],
      "name": "increasePositionETH",
      "outputs": [],
      "stateMutability": "payable",
      "type": "function"
    },
    {
      "inputs": [
        {
          "internalType": "address[]",
          "name": "_path",
          "type": "address[]"
        },
        {
          "internalType": "uint256",
          "name": "_amountIn",
          "type": "uint256"
        },
        {
          "internalType": "uint256",
          "name": "_minOut",
          "type": "uint256"
        },
        {
          "internalType": "address",
          "name": "_receiver",
          "type": "address"
        }
      ],
      "name": "swap",
      "outputs": [],
      "stateMutability": "nonpayable",
      "type": "function"
    },
    {
      "inputs": [
        {
          "internalType": "address[]",
          "name": "_path",
          "type": "address[]"
        },
        {
          "internalType": "uint256",
          "name": "_minOut",
          "type": "uint256"
        },
        {
          "internalType": "address",
          "name": "_receiver",
          "type": "address"
        }
      ],
      "name": "swapETHToTokens",
      "outputs": [],
      "stateMutability": "payable",
      "type": "function"
    },
    {
      "inputs": [
        {
          "internalType": "address[]",
          "name": "_path",
          "type": "address[]"
        },
        {
          "internalType": "uint256",
          "name": "_amountIn",
          "type": "uint256"
        },
        {
          "internalType": "uint256",
          "name": "_minOut",
          "type": "uint256"
        },
        {
          "internalType": "address payable",
          "name": "_receiver",
          "type": "address"
        }
      ],
      "name": "swapTokensToETH",
      "outputs": [],
      "stateMutability": "nonpayable",
      "type": "function"
    },
    {
      "stateMutability": "payable",
      "type": "receive"
    }
  ],
  "transactionHash": "0xaa26e44b893c257f484c2729692e4ba6f49cf609e267264b499f2034344b2332",
  "args": [],
  "solcInputHash": "51e0a29016eb8a808231ef727f964484",
  "bytecode": "0x608060405234801561001057600080fd5b5060008060000160006101000a81548160ff02191690831515021790555061283e8061003d6000396000f3fe60806040526004361061007f5760003560e01c806390b64ad31161004e57806390b64ad3146101c2578063abe68eaa146101eb578063b32755de14610207578063b7ddc9921461022357610119565b80632d4ba6a71461011e578063430ed37c146101475780636023e9661461017057806390205d8c1461019957610119565b3661011957600060010160009054906101000a900473ffffffffffffffffffffffffffffffffffffffff1673ffffffffffffffffffffffffffffffffffffffff163373ffffffffffffffffffffffffffffffffffffffff1614610117576040517f08c379a000000000000000000000000000000000000000000000000000000000815260040161010e906116f8565b60405180910390fd5b005b600080fd5b34801561012a57600080fd5b5061014560048036038101906101409190611957565b61024c565b005b34801561015357600080fd5b5061016e60048036038101906101699190611a12565b6103fa565b005b34801561017c57600080fd5b5061019760048036038101906101929190611ab4565b610425565b005b3480156101a557600080fd5b506101c060048036038101906101bb9190611b37565b61050d565b005b3480156101ce57600080fd5b506101e960048036038101906101e49190611bd9565b610528565b005b61020560048036038101906102009190611c19565b6105cb565b005b610221600480360381019061021c9190611c88565b61071b565b005b34801561022f57600080fd5b5061024a60048036038101906102459190611d31565b610896565b005b600060010160009054906101000a900473ffffffffffffffffffffffffffffffffffffffff1673ffffffffffffffffffffffffffffffffffffffff1684600186516102979190611e1e565b815181106102a8576102a7611e52565b5b602002602001015173ffffffffffffffffffffffffffffffffffffffff1614610306576040517f08c379a00000000000000000000000000000000000000000000000000000000081526004016102fd90611ecd565b60405180910390fd5b6103556103116109a9565b30858760008151811061032757610326611e52565b5b602002602001015173ffffffffffffffffffffffffffffffffffffffff166109b1909392919063ffffffff16565b60006103646000868530610a3a565b905061037260008284610adf565b7fcd3829a3813dc3cdd188fd3d01dcf3268c16be2fdd2dd21d0665418816e4606233866000815181106103a8576103a7611e52565b5b602002602001015187600189516103bf9190611e1e565b815181106103d0576103cf611e52565b5b602002602001015187856040516103eb959493929190611f0b565b60405180910390a15050505050565b600061040d600089898989893089610b7e565b905061041b60008285610adf565b5050505050505050565b6104746104306109a9565b30858760008151811061044657610445611e52565b5b602002602001015173ffffffffffffffffffffffffffffffffffffffff166109b1909392919063ffffffff16565b60006104836000868585610a3a565b90507fcd3829a3813dc3cdd188fd3d01dcf3268c16be2fdd2dd21d0665418816e4606233866000815181106104bb576104ba611e52565b5b602002602001015187600189516104d29190611e1e565b815181106104e3576104e2611e52565b5b602002602001015187856040516104fe959493929190611f0b565b60405180910390a15050505050565b61051e600088888888888888610b7e565b5050505050505050565b61055c6105336109a9565b30838573ffffffffffffffffffffffffffffffffffffffff166109b1909392919063ffffffff16565b3073ffffffffffffffffffffffffffffffffffffffff16635f7bc119836040518263ffffffff1660e01b81526004016105959190611f5e565b600060405180830381600087803b1580156105af57600080fd5b505af11580156105c3573d6000803e3d6000fd5b505050505050565b600060010160009054906101000a900473ffffffffffffffffffffffffffffffffffffffff1673ffffffffffffffffffffffffffffffffffffffff168360008151811061061b5761061a611e52565b5b602002602001015173ffffffffffffffffffffffffffffffffffffffff1614610679576040517f08c379a000000000000000000000000000000000000000000000000000000000815260040161067090611fc5565b60405180910390fd5b6106836000610ce9565b60006106926000858585610a3a565b90507fcd3829a3813dc3cdd188fd3d01dcf3268c16be2fdd2dd21d0665418816e4606233856000815181106106ca576106c9611e52565b5b602002602001015186600188516106e19190611e1e565b815181106106f2576106f1611e52565b5b6020026020010151348560405161070d959493929190611f0b565b60405180910390a150505050565b600060010160009054906101000a900473ffffffffffffffffffffffffffffffffffffffff1673ffffffffffffffffffffffffffffffffffffffff168660008151811061076b5761076a611e52565b5b602002602001015173ffffffffffffffffffffffffffffffffffffffff16146107c9576040517f08c379a00000000000000000000000000000000000000000000000000000000081526004016107c090611ecd565b60405180910390fd5b60003411156107dd576107dc6000610ce9565b5b600186511180156107ee5750600034115b156108585760006108026000888730610a3a565b905061085630828960018b516108189190611e1e565b8151811061082957610828611e52565b5b602002602001015173ffffffffffffffffffffffffffffffffffffffff16610dc09092919063ffffffff16565b505b61088e6000876001895161086c9190611e1e565b8151811061087d5761087c611e52565b5b602002602001015187868686610e46565b505050505050565b60008511156108ef576108ee6108aa6109a9565b30878a6000815181106108c0576108bf611e52565b5b602002602001015173ffffffffffffffffffffffffffffffffffffffff166109b1909392919063ffffffff16565b5b600187511180156109005750600085115b1561096a5760006109146000898730610a3a565b905061096830828a60018c5161092a9190611e1e565b8151811061093b5761093a611e52565b5b602002602001015173ffffffffffffffffffffffffffffffffffffffff16610dc09092919063ffffffff16565b505b6109a060008860018a5161097e9190611e1e565b8151811061098f5761098e611e52565b5b602002602001015188868686610e46565b50505050505050565b600033905090565b610a34846323b872dd60e01b8585856040516024016109d293929190611fe5565b604051602081830303815290604052907bffffffffffffffffffffffffffffffffffffffffffffffffffffffff19166020820180517bffffffffffffffffffffffffffffffffffffffffffffffffffffffff8381831617835250505050610f8e565b50505050565b6000600284511415610a9c57610a9584600081518110610a5d57610a5c611e52565b5b602002602001015185600181518110610a7957610a78611e52565b5b602002602001015185858961105590949392919063ffffffff16565b9050610ad7565b6040517f08c379a0000000000000000000000000000000000000000000000000000000008152600401610ace90612068565b60405180910390fd5b949350505050565b8260010160009054906101000a900473ffffffffffffffffffffffffffffffffffffffff1673ffffffffffffffffffffffffffffffffffffffff16632e1a7d4d836040518263ffffffff1660e01b8152600401610b3c9190612088565b600060405180830381600087803b158015610b5657600080fd5b505af1158015610b6a573d6000803e3d6000fd5b50505050610b798382846112e6565b505050565b60008315610be85781610ba2888b60020160149054906101000a900460ff166113db565b1015610be3576040517f08c379a0000000000000000000000000000000000000000000000000000000008152600401610bda90612115565b60405180910390fd5b610c46565b81610c04888b60020160149054906101000a900460ff16611464565b1115610c45576040517f08c379a0000000000000000000000000000000000000000000000000000000008152600401610c3c906121a7565b60405180910390fd5b5b60003073ffffffffffffffffffffffffffffffffffffffff166382a08490610c6c6114ed565b8b8b8b8b8b8b6040518863ffffffff1660e01b8152600401610c9497969594939291906121d6565b6020604051808303816000875af1158015610cb3573d6000803e3d6000fd5b505050506040513d601f19601f82011682018060405250810190610cd7919061225a565b90508091505098975050505050505050565b8060010160009054906101000a900473ffffffffffffffffffffffffffffffffffffffff1673ffffffffffffffffffffffffffffffffffffffff1663d0e30db0346040518263ffffffff1660e01b81526004016000604051808303818588803b158015610d5557600080fd5b505af1158015610d69573d6000803e3d6000fd5b5050505050610dbd30348360010160009054906101000a900473ffffffffffffffffffffffffffffffffffffffff1673ffffffffffffffffffffffffffffffffffffffff16610dc09092919063ffffffff16565b50565b610e418363a9059cbb60e01b8484604051602401610ddf929190612287565b604051602081830303815290604052907bffffffffffffffffffffffffffffffffffffffffffffffffffffffff19166020820180517bffffffffffffffffffffffffffffffffffffffffffffffffffffffff8381831617835250505050610f8e565b505050565b8115610eae5780610e68858860020160149054906101000a900460ff16611464565b1115610ea9576040517f08c379a0000000000000000000000000000000000000000000000000000000008152600401610ea0906121a7565b60405180910390fd5b610f0c565b80610eca858860020160149054906101000a900460ff166113db565b1015610f0b576040517f08c379a0000000000000000000000000000000000000000000000000000000008152600401610f0290612115565b60405180910390fd5b5b3073ffffffffffffffffffffffffffffffffffffffff166348d91abf610f306114ed565b878787876040518663ffffffff1660e01b8152600401610f549594939291906122b0565b600060405180830381600087803b158015610f6e57600080fd5b505af1158015610f82573d6000803e3d6000fd5b50505050505050505050565b6000610ff0826040518060400160405280602081526020017f5361666545524332303a206c6f772d6c6576656c2063616c6c206661696c65648152508573ffffffffffffffffffffffffffffffffffffffff166114f59092919063ffffffff16565b905060008151111561105057808060200190518101906110109190612318565b61104f576040517f08c379a0000000000000000000000000000000000000000000000000000000008152600401611046906123b7565b60405180910390fd5b5b505050565b6000808660020160009054906101000a900473ffffffffffffffffffffffffffffffffffffffff1673ffffffffffffffffffffffffffffffffffffffff168573ffffffffffffffffffffffffffffffffffffffff161415611135573073ffffffffffffffffffffffffffffffffffffffff1663ac1a91e487856040518363ffffffff1660e01b81526004016110eb9291906123d7565b6020604051808303816000875af115801561110a573d6000803e3d6000fd5b505050506040513d601f19601f8201168201806040525081019061112e919061225a565b9050611296565b8660020160009054906101000a900473ffffffffffffffffffffffffffffffffffffffff1673ffffffffffffffffffffffffffffffffffffffff168673ffffffffffffffffffffffffffffffffffffffff161415611212573073ffffffffffffffffffffffffffffffffffffffff16637c1fb31786856040518363ffffffff1660e01b81526004016111c89291906123d7565b6020604051808303816000875af11580156111e7573d6000803e3d6000fd5b505050506040513d601f19601f8201168201806040525081019061120b919061225a565b9050611295565b3073ffffffffffffffffffffffffffffffffffffffff1663933162128787866040518463ffffffff1660e01b815260040161124f93929190612400565b6020604051808303816000875af115801561126e573d6000803e3d6000fd5b505050506040513d601f19601f82011682018060405250810190611292919061225a565b90505b5b838110156112d9576040517f08c379a00000000000000000000000000000000000000000000000000000000081526004016112d090612483565b60405180910390fd5b8091505095945050505050565b80471015611329576040517f08c379a0000000000000000000000000000000000000000000000000000000008152600401611320906124ef565b60405180910390fd5b60008273ffffffffffffffffffffffffffffffffffffffff168260405161134f90612540565b60006040518083038185875af1925050503d806000811461138c576040519150601f19603f3d011682016040523d82523d6000602084013e611391565b606091505b50509050806113d5576040517f08c379a00000000000000000000000000000000000000000000000000000000081526004016113cc906125c7565b60405180910390fd5b50505050565b60003073ffffffffffffffffffffffffffffffffffffffff16635ae69163846000856040518463ffffffff1660e01b815260040161141b939291906125e7565b602060405180830381865afa158015611438573d6000803e3d6000fd5b505050506040513d601f19601f8201168201806040525081019061145c919061225a565b905092915050565b60003073ffffffffffffffffffffffffffffffffffffffff16635ae69163846001856040518463ffffffff1660e01b81526004016114a4939291906125e7565b602060405180830381865afa1580156114c1573d6000803e3d6000fd5b505050506040513d601f19601f820116820180604052508101906114e5919061225a565b905092915050565b600033905090565b6060611504848460008561150d565b90509392505050565b606082471015611552576040517f08c379a000000000000000000000000000000000000000000000000000000000815260040161154990612690565b60405180910390fd5b61155b85611621565b61159a576040517f08c379a0000000000000000000000000000000000000000000000000000000008152600401611591906126fc565b60405180910390fd5b6000808673ffffffffffffffffffffffffffffffffffffffff1685876040516115c3919061278b565b60006040518083038185875af1925050503d8060008114611600576040519150601f19603f3d011682016040523d82523d6000602084013e611605565b606091505b5091509150611615828286611634565b92505050949350505050565b600080823b905060008111915050919050565b6060831561164457829050611694565b6000835111156116575782518084602001fd5b816040517f08c379a000000000000000000000000000000000000000000000000000000000815260040161168b91906127e6565b60405180910390fd5b9392505050565b600082825260208201905092915050565b7f526f757465723a20696e76616c69642073656e64657200000000000000000000600082015250565b60006116e260168361169b565b91506116ed826116ac565b602082019050919050565b60006020820190508181036000830152611711816116d5565b9050919050565b6000604051905090565b600080fd5b600080fd5b600080fd5b6000601f19601f8301169050919050565b7f4e487b7100000000000000000000000000000000000000000000000000000000600052604160045260246000fd5b61177a82611731565b810181811067ffffffffffffffff8211171561179957611798611742565b5b80604052505050565b60006117ac611718565b90506117b88282611771565b919050565b600067ffffffffffffffff8211156117d8576117d7611742565b5b602082029050602081019050919050565b600080fd5b600073ffffffffffffffffffffffffffffffffffffffff82169050919050565b6000611819826117ee565b9050919050565b6118298161180e565b811461183457600080fd5b50565b60008135905061184681611820565b92915050565b600061185f61185a846117bd565b6117a2565b90508083825260208201905060208402830185811115611882576118816117e9565b5b835b818110156118ab57806118978882611837565b845260208401935050602081019050611884565b5050509392505050565b600082601f8301126118ca576118c961172c565b5b81356118da84826020860161184c565b91505092915050565b6000819050919050565b6118f6816118e3565b811461190157600080fd5b50565b600081359050611913816118ed565b92915050565b6000611924826117ee565b9050919050565b61193481611919565b811461193f57600080fd5b50565b6000813590506119518161192b565b92915050565b6000806000806080858703121561197157611970611722565b5b600085013567ffffffffffffffff81111561198f5761198e611727565b5b61199b878288016118b5565b94505060206119ac87828801611904565b93505060406119bd87828801611904565b92505060606119ce87828801611942565b91505092959194509250565b60008115159050919050565b6119ef816119da565b81146119fa57600080fd5b50565b600081359050611a0c816119e6565b92915050565b600080600080600080600060e0888a031215611a3157611a30611722565b5b6000611a3f8a828b01611837565b9750506020611a508a828b01611837565b9650506040611a618a828b01611904565b9550506060611a728a828b01611904565b9450506080611a838a828b016119fd565b93505060a0611a948a828b01611942565b92505060c0611aa58a828b01611904565b91505092959891949750929550565b60008060008060808587031215611ace57611acd611722565b5b600085013567ffffffffffffffff811115611aec57611aeb611727565b5b611af8878288016118b5565b9450506020611b0987828801611904565b9350506040611b1a87828801611904565b9250506060611b2b87828801611837565b91505092959194509250565b600080600080600080600060e0888a031215611b5657611b55611722565b5b6000611b648a828b01611837565b9750506020611b758a828b01611837565b9650506040611b868a828b01611904565b9550506060611b978a828b01611904565b9450506080611ba88a828b016119fd565b93505060a0611bb98a828b01611837565b92505060c0611bca8a828b01611904565b91505092959891949750929550565b60008060408385031215611bf057611bef611722565b5b6000611bfe85828601611837565b9250506020611c0f85828601611904565b9150509250929050565b600080600060608486031215611c3257611c31611722565b5b600084013567ffffffffffffffff811115611c5057611c4f611727565b5b611c5c868287016118b5565b9350506020611c6d86828701611904565b9250506040611c7e86828701611837565b9150509250925092565b60008060008060008060c08789031215611ca557611ca4611722565b5b600087013567ffffffffffffffff811115611cc357611cc2611727565b5b611ccf89828a016118b5565b9650506020611ce089828a01611837565b9550506040611cf189828a01611904565b9450506060611d0289828a01611904565b9350506080611d1389828a016119fd565b92505060a0611d2489828a01611904565b9150509295509295509295565b600080600080600080600060e0888a031215611d5057611d4f611722565b5b600088013567ffffffffffffffff811115611d6e57611d6d611727565b5b611d7a8a828b016118b5565b9750506020611d8b8a828b01611837565b9650506040611d9c8a828b01611904565b9550506060611dad8a828b01611904565b9450506080611dbe8a828b01611904565b93505060a0611dcf8a828b016119fd565b92505060c0611de08a828b01611904565b91505092959891949750929550565b7f4e487b7100000000000000000000000000000000000000000000000000000000600052601160045260246000fd5b6000611e29826118e3565b9150611e34836118e3565b925082821015611e4757611e46611def565b5b828203905092915050565b7f4e487b7100000000000000000000000000000000000000000000000000000000600052603260045260246000fd5b7f526f757465723a20696e76616c6964205f706174680000000000000000000000600082015250565b6000611eb760158361169b565b9150611ec282611e81565b602082019050919050565b60006020820190508181036000830152611ee681611eaa565b9050919050565b611ef68161180e565b82525050565b611f05816118e3565b82525050565b600060a082019050611f206000830188611eed565b611f2d6020830187611eed565b611f3a6040830186611eed565b611f476060830185611efc565b611f546080830184611efc565b9695505050505050565b6000602082019050611f736000830184611eed565b92915050565b7f526f757465723a2077657468206e6f7420666972737420696e205f7061746800600082015250565b6000611faf601f8361169b565b9150611fba82611f79565b602082019050919050565b60006020820190508181036000830152611fde81611fa2565b9050919050565b6000606082019050611ffa6000830186611eed565b6120076020830185611eed565b6120146040830184611efc565b949350505050565b7f526f757465723a20696e76616c6964205f706174682e6c656e67746800000000600082015250565b6000612052601c8361169b565b915061205d8261201c565b602082019050919050565b6000602082019050818103600083015261208181612045565b9050919050565b600060208201905061209d6000830184611efc565b92915050565b7f526f757465723a206d61726b207072696365206c6f776572207468616e206c6960008201527f6d69740000000000000000000000000000000000000000000000000000000000602082015250565b60006120ff60238361169b565b915061210a826120a3565b604082019050919050565b6000602082019050818103600083015261212e816120f2565b9050919050565b7f526f757465723a206d61726b20707269636520686967686572207468616e206c60008201527f696d697400000000000000000000000000000000000000000000000000000000602082015250565b600061219160248361169b565b915061219c82612135565b604082019050919050565b600060208201905081810360008301526121c081612184565b9050919050565b6121d0816119da565b82525050565b600060e0820190506121eb600083018a611eed565b6121f86020830189611eed565b6122056040830188611eed565b6122126060830187611efc565b61221f6080830186611efc565b61222c60a08301856121c7565b61223960c0830184611eed565b98975050505050505050565b600081519050612254816118ed565b92915050565b6000602082840312156122705761226f611722565b5b600061227e84828501612245565b91505092915050565b600060408201905061229c6000830185611eed565b6122a96020830184611efc565b9392505050565b600060a0820190506122c56000830188611eed565b6122d26020830187611eed565b6122df6040830186611eed565b6122ec6060830185611efc565b6122f960808301846121c7565b9695505050505050565b600081519050612312816119e6565b92915050565b60006020828403121561232e5761232d611722565b5b600061233c84828501612303565b91505092915050565b7f5361666545524332303a204552433230206f7065726174696f6e20646964206e60008201527f6f74207375636365656400000000000000000000000000000000000000000000602082015250565b60006123a1602a8361169b565b91506123ac82612345565b604082019050919050565b600060208201905081810360008301526123d081612394565b9050919050565b60006040820190506123ec6000830185611eed565b6123f96020830184611eed565b9392505050565b60006060820190506124156000830186611eed565b6124226020830185611eed565b61242f6040830184611eed565b949350505050565b7f526f757465723a20696e73756666696369656e7420616d6f756e744f75740000600082015250565b600061246d601e8361169b565b915061247882612437565b602082019050919050565b6000602082019050818103600083015261249c81612460565b9050919050565b7f416464726573733a20696e73756666696369656e742062616c616e6365000000600082015250565b60006124d9601d8361169b565b91506124e4826124a3565b602082019050919050565b60006020820190508181036000830152612508816124cc565b9050919050565b600081905092915050565b50565b600061252a60008361250f565b91506125358261251a565b600082019050919050565b600061254b8261251d565b9150819050919050565b7f416464726573733a20756e61626c6520746f2073656e642076616c75652c205f60008201527f63726563697069656e74206d6179206861766520726576657274656400000000602082015250565b60006125b1603c8361169b565b91506125bc82612555565b604082019050919050565b600060208201905081810360008301526125e0816125a4565b9050919050565b60006060820190506125fc6000830186611eed565b61260960208301856121c7565b61261660408301846121c7565b949350505050565b7f416464726573733a20696e73756666696369656e742062616c616e636520666f60008201527f722063616c6c0000000000000000000000000000000000000000000000000000602082015250565b600061267a60268361169b565b91506126858261261e565b604082019050919050565b600060208201905081810360008301526126a98161266d565b9050919050565b7f416464726573733a2063616c6c20746f206e6f6e2d636f6e7472616374000000600082015250565b60006126e6601d8361169b565b91506126f1826126b0565b602082019050919050565b60006020820190508181036000830152612715816126d9565b9050919050565b600081519050919050565b60005b8381101561274557808201518184015260208101905061272a565b83811115612754576000848401525b50505050565b60006127658261271c565b61276f818561250f565b935061277f818560208601612727565b80840191505092915050565b6000612797828461275a565b915081905092915050565b600081519050919050565b60006127b8826127a2565b6127c2818561169b565b93506127d2818560208601612727565b6127db81611731565b840191505092915050565b6000602082019050818103600083015261280081846127ad565b90509291505056fea2646970667358221220eff58999e718bb4fd6675c945b06fda8a8805a9aca56d9ce29c3282cc2adc91064736f6c634300080a0033",
  "devdoc": {
    "kind": "dev",
    "methods": {},
    "version": 1
  },
  "userdoc": {
    "kind": "user",
    "methods": {},
    "version": 1
  },
  "storageLayout": {
    "storage": [
      {
        "astId": 12605,
        "contract": "contracts/facets/Router/RouterFacet.sol:RouterFacet",
        "label": "s",
        "offset": 0,
        "slot": "0",
        "type": "t_struct(Storage)21244_storage"
      }
    ],
    "types": {
      "t_address": {
        "encoding": "inplace",
        "label": "address",
        "numberOfBytes": "20"
      },
      "t_array(t_bytes32)dyn_storage": {
        "base": "t_bytes32",
        "encoding": "dynamic_array",
        "label": "bytes32[]",
        "numberOfBytes": "32"
      },
      "t_bool": {
        "encoding": "inplace",
        "label": "bool",
        "numberOfBytes": "1"
      },
      "t_bytes32": {
        "encoding": "inplace",
        "label": "bytes32",
        "numberOfBytes": "32"
      },
      "t_int256": {
        "encoding": "inplace",
        "label": "int256",
        "numberOfBytes": "32"
      },
      "t_mapping(t_address,t_address)": {
        "encoding": "mapping",
        "key": "t_address",
        "label": "mapping(address => address)",
        "numberOfBytes": "32",
        "value": "t_address"
      },
      "t_mapping(t_address,t_bool)": {
        "encoding": "mapping",
        "key": "t_address",
        "label": "mapping(address => bool)",
        "numberOfBytes": "32",
        "value": "t_bool"
      },
      "t_mapping(t_address,t_int256)": {
        "encoding": "mapping",
        "key": "t_address",
        "label": "mapping(address => int256)",
        "numberOfBytes": "32",
        "value": "t_int256"
      },
      "t_mapping(t_address,t_mapping(t_address,t_int256))": {
        "encoding": "mapping",
        "key": "t_address",
        "label": "mapping(address => mapping(address => int256))",
        "numberOfBytes": "32",
        "value": "t_mapping(t_address,t_int256)"
      },
      "t_mapping(t_address,t_uint256)": {
        "encoding": "mapping",
        "key": "t_address",
        "label": "mapping(address => uint256)",
        "numberOfBytes": "32",
        "value": "t_uint256"
      },
      "t_mapping(t_bytes32,t_struct(Position)21129_storage)": {
        "encoding": "mapping",
        "key": "t_bytes32",
        "label": "mapping(bytes32 => struct LibExchangeStorage.Position)",
        "numberOfBytes": "32",
        "value": "t_struct(Position)21129_storage"
      },
      "t_mapping(t_bytes32,t_uint256)": {
        "encoding": "mapping",
        "key": "t_bytes32",
        "label": "mapping(bytes32 => uint256)",
        "numberOfBytes": "32",
        "value": "t_uint256"
      },
      "t_mapping(t_uint80,t_int256)": {
        "encoding": "mapping",
        "key": "t_uint80",
        "label": "mapping(uint80 => int256)",
        "numberOfBytes": "32",
        "value": "t_int256"
      },
      "t_struct(AddressSet)1348_storage": {
        "encoding": "inplace",
        "label": "struct EnumerableSet.AddressSet",
        "members": [
          {
            "astId": 1347,
            "contract": "contracts/facets/Router/RouterFacet.sol:RouterFacet",
            "label": "_inner",
            "offset": 0,
            "slot": "0",
            "type": "t_struct(Set)1047_storage"
          }
        ],
        "numberOfBytes": "64"
      },
      "t_struct(Position)21129_storage": {
        "encoding": "inplace",
        "label": "struct LibExchangeStorage.Position",
        "members": [
          {
            "astId": 21116,
            "contract": "contracts/facets/Router/RouterFacet.sol:RouterFacet",
            "label": "size",
            "offset": 0,
            "slot": "0",
            "type": "t_uint256"
          },
          {
            "astId": 21118,
            "contract": "contracts/facets/Router/RouterFacet.sol:RouterFacet",
            "label": "collateral",
            "offset": 0,
            "slot": "1",
            "type": "t_uint256"
          },
          {
            "astId": 21120,
            "contract": "contracts/facets/Router/RouterFacet.sol:RouterFacet",
            "label": "averagePrice",
            "offset": 0,
            "slot": "2",
            "type": "t_uint256"
          },
          {
            "astId": 21122,
            "contract": "contracts/facets/Router/RouterFacet.sol:RouterFacet",
            "label": "entryFundingRate",
            "offset": 0,
            "slot": "3",
            "type": "t_uint256"
          },
          {
            "astId": 21124,
            "contract": "contracts/facets/Router/RouterFacet.sol:RouterFacet",
            "label": "reserveAmount",
            "offset": 0,
            "slot": "4",
            "type": "t_uint256"
          },
          {
            "astId": 21126,
            "contract": "contracts/facets/Router/RouterFacet.sol:RouterFacet",
            "label": "realisedPnl",
            "offset": 0,
            "slot": "5",
            "type": "t_int256"
          },
          {
            "astId": 21128,
            "contract": "contracts/facets/Router/RouterFacet.sol:RouterFacet",
            "label": "lastIncreasedTime",
            "offset": 0,
            "slot": "6",
            "type": "t_uint256"
          }
        ],
        "numberOfBytes": "224"
      },
      "t_struct(Set)1047_storage": {
        "encoding": "inplace",
        "label": "struct EnumerableSet.Set",
        "members": [
          {
            "astId": 1042,
            "contract": "contracts/facets/Router/RouterFacet.sol:RouterFacet",
            "label": "_values",
            "offset": 0,
            "slot": "0",
            "type": "t_array(t_bytes32)dyn_storage"
          },
          {
            "astId": 1046,
            "contract": "contracts/facets/Router/RouterFacet.sol:RouterFacet",
            "label": "_indexes",
            "offset": 0,
            "slot": "1",
            "type": "t_mapping(t_bytes32,t_uint256)"
          }
        ],
        "numberOfBytes": "64"
      },
      "t_struct(Storage)21244_storage": {
        "encoding": "inplace",
        "label": "struct LibExchangeStorage.Storage",
        "members": [
          {
            "astId": 21131,
            "contract": "contracts/facets/Router/RouterFacet.sol:RouterFacet",
            "label": "contractEntered",
            "offset": 0,
            "slot": "0",
            "type": "t_bool"
          },
          {
            "astId": 21133,
            "contract": "contracts/facets/Router/RouterFacet.sol:RouterFacet",
            "label": "btc",
            "offset": 1,
            "slot": "0",
            "type": "t_address"
          },
          {
            "astId": 21135,
            "contract": "contracts/facets/Router/RouterFacet.sol:RouterFacet",
            "label": "weth",
            "offset": 0,
            "slot": "1",
            "type": "t_address"
          },
          {
            "astId": 21137,
            "contract": "contracts/facets/Router/RouterFacet.sol:RouterFacet",
            "label": "ndol",
            "offset": 0,
            "slot": "2",
            "type": "t_address"
          },
          {
            "astId": 21139,
            "contract": "contracts/facets/Router/RouterFacet.sol:RouterFacet",
            "label": "includeAmmPrice",
            "offset": 20,
            "slot": "2",
            "type": "t_bool"
          },
          {
            "astId": 21141,
            "contract": "contracts/facets/Router/RouterFacet.sol:RouterFacet",
            "label": "isInitialized",
            "offset": 21,
            "slot": "2",
            "type": "t_bool"
          },
          {
            "astId": 21144,
            "contract": "contracts/facets/Router/RouterFacet.sol:RouterFacet",
            "label": "tokens",
            "offset": 0,
            "slot": "3",
            "type": "t_struct(AddressSet)1348_storage"
          },
          {
            "astId": 21148,
            "contract": "contracts/facets/Router/RouterFacet.sol:RouterFacet",
            "label": "whitelistedTokens",
            "offset": 0,
            "slot": "5",
            "type": "t_mapping(t_address,t_bool)"
          },
          {
            "astId": 21153,
            "contract": "contracts/facets/Router/RouterFacet.sol:RouterFacet",
            "label": "positions",
            "offset": 0,
            "slot": "6",
            "type": "t_mapping(t_bytes32,t_struct(Position)21129_storage)"
          },
          {
            "astId": 21157,
            "contract": "contracts/facets/Router/RouterFacet.sol:RouterFacet",
            "label": "tokenDecimals",
            "offset": 0,
            "slot": "7",
            "type": "t_mapping(t_address,t_uint256)"
          },
          {
            "astId": 21161,
            "contract": "contracts/facets/Router/RouterFacet.sol:RouterFacet",
            "label": "redemptionBasisPoints",
            "offset": 0,
            "slot": "8",
            "type": "t_mapping(t_address,t_uint256)"
          },
          {
            "astId": 21165,
            "contract": "contracts/facets/Router/RouterFacet.sol:RouterFacet",
            "label": "minProfitBasisPoints",
            "offset": 0,
            "slot": "9",
            "type": "t_mapping(t_address,t_uint256)"
          },
          {
            "astId": 21169,
            "contract": "contracts/facets/Router/RouterFacet.sol:RouterFacet",
            "label": "tokenBalances",
            "offset": 0,
            "slot": "10",
            "type": "t_mapping(t_address,t_uint256)"
          },
          {
            "astId": 21173,
            "contract": "contracts/facets/Router/RouterFacet.sol:RouterFacet",
            "label": "ndolAmounts",
            "offset": 0,
            "slot": "11",
            "type": "t_mapping(t_address,t_uint256)"
          },
          {
            "astId": 21177,
            "contract": "contracts/facets/Router/RouterFacet.sol:RouterFacet",
            "label": "poolAmounts",
            "offset": 0,
            "slot": "12",
            "type": "t_mapping(t_address,t_uint256)"
          },
          {
            "astId": 21181,
            "contract": "contracts/facets/Router/RouterFacet.sol:RouterFacet",
            "label": "reservedAmounts",
            "offset": 0,
            "slot": "13",
            "type": "t_mapping(t_address,t_uint256)"
          },
          {
            "astId": 21185,
            "contract": "contracts/facets/Router/RouterFacet.sol:RouterFacet",
            "label": "guaranteedUsd",
            "offset": 0,
            "slot": "14",
            "type": "t_mapping(t_address,t_uint256)"
          },
          {
            "astId": 21189,
            "contract": "contracts/facets/Router/RouterFacet.sol:RouterFacet",
            "label": "cumulativeFundingRates",
            "offset": 0,
            "slot": "15",
            "type": "t_mapping(t_address,t_uint256)"
          },
          {
            "astId": 21193,
            "contract": "contracts/facets/Router/RouterFacet.sol:RouterFacet",
            "label": "lastFundingTimes",
            "offset": 0,
            "slot": "16",
            "type": "t_mapping(t_address,t_uint256)"
          },
          {
            "astId": 21197,
            "contract": "contracts/facets/Router/RouterFacet.sol:RouterFacet",
            "label": "feeReserves",
            "offset": 0,
            "slot": "17",
            "type": "t_mapping(t_address,t_uint256)"
          },
          {
            "astId": 21201,
            "contract": "contracts/facets/Router/RouterFacet.sol:RouterFacet",
            "label": "tokenWeights",
            "offset": 0,
            "slot": "18",
            "type": "t_mapping(t_address,t_uint256)"
          },
          {
            "astId": 21203,
            "contract": "contracts/facets/Router/RouterFacet.sol:RouterFacet",
            "label": "totalTokenWeight",
            "offset": 0,
            "slot": "19",
            "type": "t_uint256"
          },
          {
            "astId": 21207,
            "contract": "contracts/facets/Router/RouterFacet.sol:RouterFacet",
            "label": "plugins",
            "offset": 0,
            "slot": "20",
            "type": "t_mapping(t_address,t_bool)"
          },
          {
            "astId": 21211,
            "contract": "contracts/facets/Router/RouterFacet.sol:RouterFacet",
            "label": "priceFeeds",
            "offset": 0,
            "slot": "21",
            "type": "t_mapping(t_address,t_address)"
          },
          {
            "astId": 21215,
            "contract": "contracts/facets/Router/RouterFacet.sol:RouterFacet",
            "label": "priceDecimals",
            "offset": 0,
            "slot": "22",
            "type": "t_mapping(t_address,t_uint256)"
          },
          {
            "astId": 21219,
            "contract": "contracts/facets/Router/RouterFacet.sol:RouterFacet",
            "label": "priceSpreadBasisPoints",
            "offset": 0,
            "slot": "23",
            "type": "t_mapping(t_address,t_uint256)"
          },
          {
            "astId": 21223,
            "contract": "contracts/facets/Router/RouterFacet.sol:RouterFacet",
            "label": "baseTokenPairs",
            "offset": 0,
            "slot": "24",
            "type": "t_mapping(t_address,t_address)"
          },
          {
            "astId": 21227,
            "contract": "contracts/facets/Router/RouterFacet.sol:RouterFacet",
            "label": "tokenPairs",
            "offset": 0,
            "slot": "25",
            "type": "t_mapping(t_address,t_address)"
          },
          {
            "astId": 21229,
            "contract": "contracts/facets/Router/RouterFacet.sol:RouterFacet",
            "label": "answer",
            "offset": 0,
            "slot": "26",
            "type": "t_int256"
          },
          {
            "astId": 21231,
            "contract": "contracts/facets/Router/RouterFacet.sol:RouterFacet",
            "label": "roundId",
            "offset": 0,
            "slot": "27",
            "type": "t_uint80"
          },
          {
            "astId": 21235,
            "contract": "contracts/facets/Router/RouterFacet.sol:RouterFacet",
            "label": "answers",
            "offset": 0,
            "slot": "28",
            "type": "t_mapping(t_uint80,t_int256)"
          },
          {
            "astId": 21237,
            "contract": "contracts/facets/Router/RouterFacet.sol:RouterFacet",
            "label": "totalNDOLMinted",
            "offset": 0,
            "slot": "29",
            "type": "t_uint256"
          },
          {
            "astId": 21243,
            "contract": "contracts/facets/Router/RouterFacet.sol:RouterFacet",
            "label": "ndolMinted",
            "offset": 0,
            "slot": "30",
            "type": "t_mapping(t_address,t_mapping(t_address,t_int256))"
          }
        ],
        "numberOfBytes": "992"
      },
      "t_uint256": {
        "encoding": "inplace",
        "label": "uint256",
        "numberOfBytes": "32"
      },
      "t_uint80": {
        "encoding": "inplace",
        "label": "uint80",
        "numberOfBytes": "10"
      }
    }
  }
}