{
  "address": "0x73217673Ed0c22D30a0e99dDA6F38f7546ff28E2",
  "abi": [
    {
      "inputs": [
        {
          "internalType": "address",
          "name": "_recipient",
          "type": "address"
        }
      ],
      "name": "claim",
      "outputs": [],
      "stateMutability": "nonpayable",
      "type": "function"
    },
    {
      "inputs": [],
      "name": "contractBalance",
      "outputs": [
        {
          "internalType": "uint256",
          "name": "",
          "type": "uint256"
        }
      ],
      "stateMutability": "view",
      "type": "function"
    },
    {
      "inputs": [],
      "name": "epoch",
      "outputs": [
        {
          "components": [
            {
              "internalType": "uint256",
              "name": "number",
              "type": "uint256"
            },
            {
              "internalType": "uint256",
              "name": "distribute",
              "type": "uint256"
            },
            {
              "internalType": "uint256",
              "name": "length",
              "type": "uint256"
            },
            {
              "internalType": "uint256",
              "name": "endTime",
              "type": "uint256"
            }
          ],
          "internalType": "struct LibBondStorage.Epoch",
          "name": "",
          "type": "tuple"
        }
      ],
      "stateMutability": "view",
      "type": "function"
    },
    {
      "inputs": [],
      "name": "forfeit",
      "outputs": [],
      "stateMutability": "nonpayable",
      "type": "function"
    },
    {
      "inputs": [
        {
          "internalType": "uint256",
          "name": "_amount",
          "type": "uint256"
        }
      ],
      "name": "giveLockBonus",
      "outputs": [],
      "stateMutability": "nonpayable",
      "type": "function"
    },
    {
      "inputs": [],
      "name": "index",
      "outputs": [
        {
          "internalType": "uint256",
          "name": "",
          "type": "uint256"
        }
      ],
      "stateMutability": "view",
      "type": "function"
    },
    {
      "inputs": [],
      "name": "rebase",
      "outputs": [],
      "stateMutability": "nonpayable",
      "type": "function"
    },
    {
      "inputs": [
        {
          "internalType": "uint256",
          "name": "_amount",
          "type": "uint256"
        }
      ],
      "name": "returnLockBonus",
      "outputs": [],
      "stateMutability": "nonpayable",
      "type": "function"
    },
    {
      "inputs": [
        {
          "internalType": "uint256",
          "name": "_amount",
          "type": "uint256"
        },
        {
          "internalType": "address",
          "name": "_recipient",
          "type": "address"
        }
      ],
      "name": "stake",
      "outputs": [
        {
          "internalType": "bool",
          "name": "",
          "type": "bool"
        }
      ],
      "stateMutability": "nonpayable",
      "type": "function"
    },
    {
      "inputs": [],
      "name": "supplyInWarmup",
      "outputs": [
        {
          "internalType": "uint256",
          "name": "",
          "type": "uint256"
        }
      ],
      "stateMutability": "view",
      "type": "function"
    },
    {
      "inputs": [],
      "name": "totalStaked",
      "outputs": [
        {
          "internalType": "uint256",
          "name": "",
          "type": "uint256"
        }
      ],
      "stateMutability": "view",
      "type": "function"
    },
    {
      "inputs": [
        {
          "internalType": "uint256",
          "name": "_amount",
          "type": "uint256"
        },
        {
          "internalType": "bool",
          "name": "_trigger",
          "type": "bool"
        }
      ],
      "name": "unstake",
      "outputs": [],
      "stateMutability": "nonpayable",
      "type": "function"
    },
    {
      "inputs": [
        {
          "internalType": "address",
          "name": "_to",
          "type": "address"
        },
        {
          "internalType": "uint256",
          "name": "_amount",
          "type": "uint256"
        }
      ],
      "name": "unwrap",
      "outputs": [
        {
          "internalType": "uint256",
          "name": "sBalance_",
          "type": "uint256"
        }
      ],
      "stateMutability": "nonpayable",
      "type": "function"
    },
    {
      "inputs": [
        {
          "internalType": "address",
          "name": "_recipient",
          "type": "address"
        }
      ],
      "name": "warmupInfo",
      "outputs": [
        {
          "components": [
            {
              "internalType": "uint256",
              "name": "deposit",
              "type": "uint256"
            },
            {
              "internalType": "uint256",
              "name": "gons",
              "type": "uint256"
            },
            {
              "internalType": "uint256",
              "name": "expiry",
              "type": "uint256"
            },
            {
              "internalType": "bool",
              "name": "lock",
              "type": "bool"
            }
          ],
          "internalType": "struct LibBondStorage.Claim",
          "name": "",
          "type": "tuple"
        }
      ],
      "stateMutability": "view",
      "type": "function"
    },
    {
      "inputs": [
        {
          "internalType": "address",
          "name": "_to",
          "type": "address"
        },
        {
          "internalType": "uint256",
          "name": "_amount",
          "type": "uint256"
        }
      ],
      "name": "wrap",
      "outputs": [
        {
          "internalType": "uint256",
          "name": "sBalance_",
          "type": "uint256"
        }
      ],
      "stateMutability": "nonpayable",
      "type": "function"
    }
  ],
  "transactionHash": "0x66a1bb040fd233d029ea525b7c7186a6efb4586cdd6d127da37b7b2a19580db1",
  "args": [],
  "solcInputHash": "100e0ef6515919c85898ef6103d645a4",
  "bytecode": "0x608060405234801561001057600080fd5b50612308806100206000396000f3fe608060405234801561001057600080fd5b50600436106100f55760003560e01c8063817b1cd211610097578063af14052c11610066578063af14052c14610274578063bf376c7a1461027e578063f3d86e4a146102ae578063f62ae76a146102b8576100f5565b8063817b1cd2146101fe5780638b7afe2e1461021c578063900cf0cf1461023a5780639ebea88c14610258576100f5565b80632986c0e5116100d35780632986c0e51461015057806339f476931461016e5780636746f4c21461019e5780637acb7757146101ce576100f5565b806303c23670146100fa5780631e83409a146101165780632013864114610132575b600080fd5b610114600480360381019061010f91906119f0565b6102d4565b005b610130600480360381019061012b9190611a7b565b6103ca565b005b61013a610639565b6040516101479190611ab7565b60405180910390f35b6101586106e3565b6040516101659190611ab7565b60405180910390f35b61018860048036038101906101839190611ad2565b61077d565b6040516101959190611ab7565b60405180910390f35b6101b860048036038101906101b39190611a7b565b610907565b6040516101c59190611b91565b60405180910390f35b6101e860048036038101906101e39190611bac565b61099c565b6040516101f59190611bfb565b60405180910390f35b610206610d3d565b6040516102139190611ab7565b60405180910390f35b610224610dd7565b6040516102319190611ab7565b60405180910390f35b610242610e93565b60405161024f9190611c6b565b60405180910390f35b610272600480360381019061026d9190611cb2565b610ed8565b005b61027c610f8c565b005b61029860048036038101906102939190611ad2565b611166565b6040516102a59190611ab7565b60405180910390f35b6102b66112f3565b005b6102d260048036038101906102cd91906119f0565b611468565b005b600060190160009054906101000a900473ffffffffffffffffffffffffffffffffffffffff1673ffffffffffffffffffffffffffffffffffffffff163373ffffffffffffffffffffffffffffffffffffffff161461033157600080fd5b610349816000601a015461156090919063ffffffff16565b6000601a01819055506103c7600060190160009054906101000a900473ffffffffffffffffffffffffffffffffffffffff1682600060010160009054906101000a900473ffffffffffffffffffffffffffffffffffffffff1673ffffffffffffffffffffffffffffffffffffffff166115769092919063ffffffff16565b50565b600080601c0160008373ffffffffffffffffffffffffffffffffffffffff1673ffffffffffffffffffffffffffffffffffffffff1681526020019081526020016000206040518060800160405290816000820154815260200160018201548152602001600282015481526020016003820160009054906101000a900460ff161515151581525050905080606001516104cb573373ffffffffffffffffffffffffffffffffffffffff168273ffffffffffffffffffffffffffffffffffffffff16146104ca576040517f08c379a00000000000000000000000000000000000000000000000000000000081526004016104c190611d75565b60405180910390fd5b5b8060400151600060130160000154101580156104ec57506000816040015114155b15610635576000601c0160008373ffffffffffffffffffffffffffffffffffffffff1673ffffffffffffffffffffffffffffffffffffffff168152602001908152602001600020600080820160009055600182016000905560028201600090556003820160006101000a81549060ff0219169055505061057e81602001516000601f01546115fc90919063ffffffff16565b6000601f018190555061063382600060010160009054906101000a900473ffffffffffffffffffffffffffffffffffffffff1673ffffffffffffffffffffffffffffffffffffffff16637965d56d84602001516040518263ffffffff1660e01b81526004016105ed9190611ab7565b602060405180830381865afa15801561060a573d6000803e3d6000fd5b505050506040513d601f19601f8201168201806040525081019061062e9190611daa565b611612565b505b5050565b60008060010160009054906101000a900473ffffffffffffffffffffffffffffffffffffffff1673ffffffffffffffffffffffffffffffffffffffff16637965d56d6000601f01546040518263ffffffff1660e01b815260040161069d9190611ab7565b602060405180830381865afa1580156106ba573d6000803e3d6000fd5b505050506040513d601f19601f820116820180604052508101906106de9190611daa565b905090565b60008060010160009054906101000a900473ffffffffffffffffffffffffffffffffffffffff1673ffffffffffffffffffffffffffffffffffffffff16632986c0e56040518163ffffffff1660e01b8152600401602060405180830381865afa158015610754573d6000803e3d6000fd5b505050506040513d601f19601f820116820180604052508101906107789190611daa565b905090565b60008060020160009054906101000a900473ffffffffffffffffffffffffffffffffffffffff1673ffffffffffffffffffffffffffffffffffffffff16639dc29fac33846040518363ffffffff1660e01b81526004016107de929190611de6565b600060405180830381600087803b1580156107f857600080fd5b505af115801561080c573d6000803e3d6000fd5b50505050600060020160009054906101000a900473ffffffffffffffffffffffffffffffffffffffff1673ffffffffffffffffffffffffffffffffffffffff1663a8248768836040518263ffffffff1660e01b815260040161086e9190611ab7565b602060405180830381865afa15801561088b573d6000803e3d6000fd5b505050506040513d601f19601f820116820180604052508101906108af9190611daa565b90506109018382600060010160009054906101000a900473ffffffffffffffffffffffffffffffffffffffff1673ffffffffffffffffffffffffffffffffffffffff166115769092919063ffffffff16565b92915050565b61090f611963565b6000601c0160008373ffffffffffffffffffffffffffffffffffffffff1673ffffffffffffffffffffffffffffffffffffffff1681526020019081526020016000206040518060800160405290816000820154815260200160018201548152602001600282015481526020016003820160009054906101000a900460ff1615151515815250509050919050565b60006109a6610f8c565b6109f73330856000800160009054906101000a900473ffffffffffffffffffffffffffffffffffffffff1673ffffffffffffffffffffffffffffffffffffffff1661166d909392919063ffffffff16565b600080601b01541415610a1457610a0e8284611612565b50610d33565b600080601c0160008473ffffffffffffffffffffffffffffffffffffffff1673ffffffffffffffffffffffffffffffffffffffff1681526020019081526020016000206040518060800160405290816000820154815260200160018201548152602001600282015481526020016003820160009054906101000a900460ff1615151515815250509050806060015115610ae2576040517f08c379a0000000000000000000000000000000000000000000000000000000008152600401610ad990611e5b565b60405180910390fd5b6040518060800160405280610b0486846000015161156090919063ffffffff16565b8152602001610bbe600060010160009054906101000a900473ffffffffffffffffffffffffffffffffffffffff1673ffffffffffffffffffffffffffffffffffffffff16631bd39674886040518263ffffffff1660e01b8152600401610b6a9190611ab7565b602060405180830381865afa158015610b87573d6000803e3d6000fd5b505050506040513d601f19601f82011682018060405250810190610bab9190611daa565b846020015161156090919063ffffffff16565b8152602001610be36000601b015460006013016000015461156090919063ffffffff16565b8152602001600015158152506000601c0160008573ffffffffffffffffffffffffffffffffffffffff1673ffffffffffffffffffffffffffffffffffffffff16815260200190815260200160002060008201518160000155602082015181600101556040820151816002015560608201518160030160006101000a81548160ff021916908315150217905550905050610d28600060010160009054906101000a900473ffffffffffffffffffffffffffffffffffffffff1673ffffffffffffffffffffffffffffffffffffffff16631bd39674866040518263ffffffff1660e01b8152600401610cd39190611ab7565b602060405180830381865afa158015610cf0573d6000803e3d6000fd5b505050506040513d601f19601f82011682018060405250810190610d149190611daa565b6000601f015461156090919063ffffffff16565b6000601f0181905550505b6001905092915050565b60008060010160009054906101000a900473ffffffffffffffffffffffffffffffffffffffff1673ffffffffffffffffffffffffffffffffffffffff16639358928b6040518163ffffffff1660e01b8152600401602060405180830381865afa158015610dae573d6000803e3d6000fd5b505050506040513d601f19601f82011682018060405250810190610dd29190611daa565b905090565b6000610e8e6000601a01546000800160009054906101000a900473ffffffffffffffffffffffffffffffffffffffff1673ffffffffffffffffffffffffffffffffffffffff166370a08231306040518263ffffffff1660e01b8152600401610e3f9190611e7b565b602060405180830381865afa158015610e5c573d6000803e3d6000fd5b505050506040513d601f19601f82011682018060405250810190610e809190611daa565b61156090919063ffffffff16565b905090565b610e9b61198d565b6000601301604051806080016040529081600082015481526020016001820154815260200160028201548152602001600382015481525050905090565b8015610ee757610ee6610f8c565b5b610f39333084600060010160009054906101000a900473ffffffffffffffffffffffffffffffffffffffff1673ffffffffffffffffffffffffffffffffffffffff1661166d909392919063ffffffff16565b610f8833836000800160009054906101000a900473ffffffffffffffffffffffffffffffffffffffff1673ffffffffffffffffffffffffffffffffffffffff166115769092919063ffffffff16565b5050565b426000601301600301541161116457600060010160009054906101000a900473ffffffffffffffffffffffffffffffffffffffff1673ffffffffffffffffffffffffffffffffffffffff1663058ecdb46000601301600101546000601301600001546040518363ffffffff1660e01b815260040161100b929190611e96565b6020604051808303816000875af115801561102a573d6000803e3d6000fd5b505050506040513d601f19601f8201168201806040525081019061104e9190611daa565b5061107260006013016002015460006013016003015461156090919063ffffffff16565b6000601301600301819055506000601301600001600081548092919061109790611eee565b91905055503073ffffffffffffffffffffffffffffffffffffffff1663e4fc6b6d6040518163ffffffff1660e01b81526004016020604051808303816000875af11580156110e9573d6000803e3d6000fd5b505050506040513d601f19601f8201168201806040525081019061110d9190611daa565b50611116610d3d565b61111e610dd7565b116111355760008060130160010181905550611163565b611156611140610d3d565b611148610dd7565b6115fc90919063ffffffff16565b6000601301600101819055505b5b565b60006111ba333084600060010160009054906101000a900473ffffffffffffffffffffffffffffffffffffffff1673ffffffffffffffffffffffffffffffffffffffff1661166d909392919063ffffffff16565b600060020160009054906101000a900473ffffffffffffffffffffffffffffffffffffffff1673ffffffffffffffffffffffffffffffffffffffff166366a5236c836040518263ffffffff1660e01b81526004016112189190611ab7565b602060405180830381865afa158015611235573d6000803e3d6000fd5b505050506040513d601f19601f820116820180604052508101906112599190611daa565b9050600060020160009054906101000a900473ffffffffffffffffffffffffffffffffffffffff1673ffffffffffffffffffffffffffffffffffffffff166340c10f1984836040518363ffffffff1660e01b81526004016112bb929190611de6565b600060405180830381600087803b1580156112d557600080fd5b505af11580156112e9573d6000803e3d6000fd5b5050505092915050565b600080601c0160003373ffffffffffffffffffffffffffffffffffffffff1673ffffffffffffffffffffffffffffffffffffffff1681526020019081526020016000206040518060800160405290816000820154815260200160018201548152602001600282015481526020016003820160009054906101000a900460ff16151515158152505090506000601c0160003373ffffffffffffffffffffffffffffffffffffffff1673ffffffffffffffffffffffffffffffffffffffff168152602001908152602001600020600080820160009055600182016000905560028201600090556003820160006101000a81549060ff0219169055505061140981602001516000601f01546115fc90919063ffffffff16565b6000601f01819055506114653382600001516000800160009054906101000a900473ffffffffffffffffffffffffffffffffffffffff1673ffffffffffffffffffffffffffffffffffffffff166115769092919063ffffffff16565b50565b600060190160009054906101000a900473ffffffffffffffffffffffffffffffffffffffff1673ffffffffffffffffffffffffffffffffffffffff163373ffffffffffffffffffffffffffffffffffffffff16146114c557600080fd5b6114dd816000601a01546115fc90919063ffffffff16565b6000601a018190555061155d600060190160009054906101000a900473ffffffffffffffffffffffffffffffffffffffff163083600060010160009054906101000a900473ffffffffffffffffffffffffffffffffffffffff1673ffffffffffffffffffffffffffffffffffffffff1661166d909392919063ffffffff16565b50565b6000818361156e9190611f37565b905092915050565b6115f78363a9059cbb60e01b8484604051602401611595929190611de6565b604051602081830303815290604052907bffffffffffffffffffffffffffffffffffffffffffffffffffffffff19166020820180517bffffffffffffffffffffffffffffffffffffffffffffffffffffffff83818316178352505050506116f6565b505050565b6000818361160a9190611f8d565b905092915050565b60006116648383600060010160009054906101000a900473ffffffffffffffffffffffffffffffffffffffff1673ffffffffffffffffffffffffffffffffffffffff166115769092919063ffffffff16565b81905092915050565b6116f0846323b872dd60e01b85858560405160240161168e93929190611fc1565b604051602081830303815290604052907bffffffffffffffffffffffffffffffffffffffffffffffffffffffff19166020820180517bffffffffffffffffffffffffffffffffffffffffffffffffffffffff83818316178352505050506116f6565b50505050565b6000611758826040518060400160405280602081526020017f5361666545524332303a206c6f772d6c6576656c2063616c6c206661696c65648152508573ffffffffffffffffffffffffffffffffffffffff166117bd9092919063ffffffff16565b90506000815111156117b85780806020019051810190611778919061200d565b6117b7576040517f08c379a00000000000000000000000000000000000000000000000000000000081526004016117ae906120ac565b60405180910390fd5b5b505050565b60606117cc84846000856117d5565b90509392505050565b60608247101561181a576040517f08c379a00000000000000000000000000000000000000000000000000000000081526004016118119061213e565b60405180910390fd5b611823856118e9565b611862576040517f08c379a0000000000000000000000000000000000000000000000000000000008152600401611859906121aa565b60405180910390fd5b6000808673ffffffffffffffffffffffffffffffffffffffff16858760405161188b9190612244565b60006040518083038185875af1925050503d80600081146118c8576040519150601f19603f3d011682016040523d82523d6000602084013e6118cd565b606091505b50915091506118dd8282866118fc565b92505050949350505050565b600080823b905060008111915050919050565b6060831561190c5782905061195c565b60008351111561191f5782518084602001fd5b816040517f08c379a000000000000000000000000000000000000000000000000000000000815260040161195391906122b0565b60405180910390fd5b9392505050565b60405180608001604052806000815260200160008152602001600081526020016000151581525090565b6040518060800160405280600081526020016000815260200160008152602001600081525090565b600080fd5b6000819050919050565b6119cd816119ba565b81146119d857600080fd5b50565b6000813590506119ea816119c4565b92915050565b600060208284031215611a0657611a056119b5565b5b6000611a14848285016119db565b91505092915050565b600073ffffffffffffffffffffffffffffffffffffffff82169050919050565b6000611a4882611a1d565b9050919050565b611a5881611a3d565b8114611a6357600080fd5b50565b600081359050611a7581611a4f565b92915050565b600060208284031215611a9157611a906119b5565b5b6000611a9f84828501611a66565b91505092915050565b611ab1816119ba565b82525050565b6000602082019050611acc6000830184611aa8565b92915050565b60008060408385031215611ae957611ae86119b5565b5b6000611af785828601611a66565b9250506020611b08858286016119db565b9150509250929050565b611b1b816119ba565b82525050565b60008115159050919050565b611b3681611b21565b82525050565b608082016000820151611b526000850182611b12565b506020820151611b656020850182611b12565b506040820151611b786040850182611b12565b506060820151611b8b6060850182611b2d565b50505050565b6000608082019050611ba66000830184611b3c565b92915050565b60008060408385031215611bc357611bc26119b5565b5b6000611bd1858286016119db565b9250506020611be285828601611a66565b9150509250929050565b611bf581611b21565b82525050565b6000602082019050611c106000830184611bec565b92915050565b608082016000820151611c2c6000850182611b12565b506020820151611c3f6020850182611b12565b506040820151611c526040850182611b12565b506060820151611c656060850182611b12565b50505050565b6000608082019050611c806000830184611c16565b92915050565b611c8f81611b21565b8114611c9a57600080fd5b50565b600081359050611cac81611c86565b92915050565b60008060408385031215611cc957611cc86119b5565b5b6000611cd7858286016119db565b9250506020611ce885828601611c9d565b9150509250929050565b600082825260208201905092915050565b7f45787465726e616c20636c61696d7320666f72206163636f756e74206172652060008201527f6c6f636b65640000000000000000000000000000000000000000000000000000602082015250565b6000611d5f602683611cf2565b9150611d6a82611d03565b604082019050919050565b60006020820190508181036000830152611d8e81611d52565b9050919050565b600081519050611da4816119c4565b92915050565b600060208284031215611dc057611dbf6119b5565b5b6000611dce84828501611d95565b91505092915050565b611de081611a3d565b82525050565b6000604082019050611dfb6000830185611dd7565b611e086020830184611aa8565b9392505050565b7f4465706f7369747320666f72206163636f756e7420617265206c6f636b656400600082015250565b6000611e45601f83611cf2565b9150611e5082611e0f565b602082019050919050565b60006020820190508181036000830152611e7481611e38565b9050919050565b6000602082019050611e906000830184611dd7565b92915050565b6000604082019050611eab6000830185611aa8565b611eb86020830184611aa8565b9392505050565b7f4e487b7100000000000000000000000000000000000000000000000000000000600052601160045260246000fd5b6000611ef9826119ba565b91507fffffffffffffffffffffffffffffffffffffffffffffffffffffffffffffffff821415611f2c57611f2b611ebf565b5b600182019050919050565b6000611f42826119ba565b9150611f4d836119ba565b9250827fffffffffffffffffffffffffffffffffffffffffffffffffffffffffffffffff03821115611f8257611f81611ebf565b5b828201905092915050565b6000611f98826119ba565b9150611fa3836119ba565b925082821015611fb657611fb5611ebf565b5b828203905092915050565b6000606082019050611fd66000830186611dd7565b611fe36020830185611dd7565b611ff06040830184611aa8565b949350505050565b60008151905061200781611c86565b92915050565b600060208284031215612023576120226119b5565b5b600061203184828501611ff8565b91505092915050565b7f5361666545524332303a204552433230206f7065726174696f6e20646964206e60008201527f6f74207375636365656400000000000000000000000000000000000000000000602082015250565b6000612096602a83611cf2565b91506120a18261203a565b604082019050919050565b600060208201905081810360008301526120c581612089565b9050919050565b7f416464726573733a20696e73756666696369656e742062616c616e636520666f60008201527f722063616c6c0000000000000000000000000000000000000000000000000000602082015250565b6000612128602683611cf2565b9150612133826120cc565b604082019050919050565b600060208201905081810360008301526121578161211b565b9050919050565b7f416464726573733a2063616c6c20746f206e6f6e2d636f6e7472616374000000600082015250565b6000612194601d83611cf2565b915061219f8261215e565b602082019050919050565b600060208201905081810360008301526121c381612187565b9050919050565b600081519050919050565b600081905092915050565b60005b838110156121fe5780820151818401526020810190506121e3565b8381111561220d576000848401525b50505050565b600061221e826121ca565b61222881856121d5565b93506122388185602086016121e0565b80840191505092915050565b60006122508284612213565b915081905092915050565b600081519050919050565b6000601f19601f8301169050919050565b60006122828261225b565b61228c8185611cf2565b935061229c8185602086016121e0565b6122a581612266565b840191505092915050565b600060208201905081810360008301526122ca8184612277565b90509291505056fea2646970667358221220640f85394eae69698f42e29b9d28f36a59057ae657bc4860bde7b108295c715564736f6c634300080a0033",
  "devdoc": {
    "kind": "dev",
    "methods": {
      "claim(address)": {
        "params": {
          "_recipient": "address"
        }
      },
      "contractBalance()": {
        "returns": {
          "_0": "uint"
        }
      },
      "giveLockBonus(uint256)": {
        "params": {
          "_amount": "uint"
        }
      },
      "index()": {
        "returns": {
          "_0": "uint"
        }
      },
      "returnLockBonus(uint256)": {
        "params": {
          "_amount": "uint"
        }
      },
      "stake(uint256,address)": {
        "params": {
          "_amount": "uint"
        },
        "returns": {
          "_0": "bool"
        }
      },
      "unstake(uint256,bool)": {
        "params": {
          "_amount": "uint",
          "_trigger": "bool"
        }
      },
      "unwrap(address,uint256)": {
        "params": {
          "_amount": "uint",
          "_to": "address"
        },
        "returns": {
          "sBalance_": "uint"
        }
      },
      "wrap(address,uint256)": {
        "params": {
          "_amount": "uint",
          "_to": "address"
        },
        "returns": {
          "sBalance_": "uint"
        }
      }
    },
    "version": 1
  },
  "userdoc": {
    "kind": "user",
    "methods": {
      "claim(address)": {
        "notice": "retrieve nNecc from warmup"
      },
      "contractBalance()": {
        "notice": "returns contract Necc holdings, including bonuses provided"
      },
      "forfeit()": {
        "notice": "forfeit nNecc in warmup and retrieve Necc"
      },
      "giveLockBonus(uint256)": {
        "notice": "provide bonus to locked staking contract"
      },
      "index()": {
        "notice": "returns the nNecc index, which tracks rebase growth"
      },
      "rebase()": {
        "notice": "trigger rebase if epoch over"
      },
      "returnLockBonus(uint256)": {
        "notice": "reclaim bonus from locked staking contract"
      },
      "stake(uint256,address)": {
        "notice": "stake Necc to enter warmup"
      },
      "unstake(uint256,bool)": {
        "notice": "redeem nNecc for Necc"
      },
      "unwrap(address,uint256)": {
        "notice": "convert _amount s.sNecc into sBalance_ s.nNecc"
      },
      "wrap(address,uint256)": {
        "notice": "convert _amount nNecc into sBalance_ sNecc"
      }
    },
    "version": 1
  },
  "storageLayout": {
    "storage": [
      {
        "astId": 5702,
        "contract": "contracts/facets/Bond/StakingFacet.sol:StakingFacet",
        "label": "s",
        "offset": 0,
        "slot": "0",
        "type": "t_struct(Storage)8455_storage"
      }
    ],
    "types": {
      "t_address": {
        "encoding": "inplace",
        "label": "address",
        "numberOfBytes": "20"
      },
      "t_array(t_bytes32)dyn_storage": {
        "base": "t_bytes32",
        "encoding": "dynamic_array",
        "label": "bytes32[]",
        "numberOfBytes": "32"
      },
      "t_array(t_struct(Info)8307_storage)dyn_storage": {
        "base": "t_struct(Info)8307_storage",
        "encoding": "dynamic_array",
        "label": "struct LibBondStorage.Info[]",
        "numberOfBytes": "32"
      },
      "t_array(t_struct(Payout)8302_storage)dyn_storage": {
        "base": "t_struct(Payout)8302_storage",
        "encoding": "dynamic_array",
        "label": "struct LibBondStorage.Payout[]",
        "numberOfBytes": "32"
      },
      "t_bool": {
        "encoding": "inplace",
        "label": "bool",
        "numberOfBytes": "1"
      },
      "t_bytes32": {
        "encoding": "inplace",
        "label": "bytes32",
        "numberOfBytes": "32"
      },
      "t_mapping(t_address,t_mapping(t_uint256,t_struct(Bond)8338_storage))": {
        "encoding": "mapping",
        "key": "t_address",
        "label": "mapping(address => mapping(uint256 => struct LibBondStorage.Bond))",
        "numberOfBytes": "32",
        "value": "t_mapping(t_uint256,t_struct(Bond)8338_storage)"
      },
      "t_mapping(t_address,t_struct(Claim)8365_storage)": {
        "encoding": "mapping",
        "key": "t_address",
        "label": "mapping(address => struct LibBondStorage.Claim)",
        "numberOfBytes": "32",
        "value": "t_struct(Claim)8365_storage"
      },
      "t_mapping(t_bytes32,t_uint256)": {
        "encoding": "mapping",
        "key": "t_bytes32",
        "label": "mapping(bytes32 => uint256)",
        "numberOfBytes": "32",
        "value": "t_uint256"
      },
      "t_mapping(t_uint256,t_address)": {
        "encoding": "mapping",
        "key": "t_uint256",
        "label": "mapping(uint256 => address)",
        "numberOfBytes": "32",
        "value": "t_address"
      },
      "t_mapping(t_uint256,t_array(t_struct(Payout)8302_storage)dyn_storage)": {
        "encoding": "mapping",
        "key": "t_uint256",
        "label": "mapping(uint256 => struct LibBondStorage.Payout[])",
        "numberOfBytes": "32",
        "value": "t_array(t_struct(Payout)8302_storage)dyn_storage"
      },
      "t_mapping(t_uint256,t_struct(Bond)8338_storage)": {
        "encoding": "mapping",
        "key": "t_uint256",
        "label": "mapping(uint256 => struct LibBondStorage.Bond)",
        "numberOfBytes": "32",
        "value": "t_struct(Bond)8338_storage"
      },
      "t_mapping(t_uint256,t_struct(BondDepositoryAdjustment)8347_storage)": {
        "encoding": "mapping",
        "key": "t_uint256",
        "label": "mapping(uint256 => struct LibBondStorage.BondDepositoryAdjustment)",
        "numberOfBytes": "32",
        "value": "t_struct(BondDepositoryAdjustment)8347_storage"
      },
      "t_mapping(t_uint256,t_struct(DistributorAdjustment)8314_storage)": {
        "encoding": "mapping",
        "key": "t_uint256",
        "label": "mapping(uint256 => struct LibBondStorage.DistributorAdjustment)",
        "numberOfBytes": "32",
        "value": "t_struct(DistributorAdjustment)8314_storage"
      },
      "t_mapping(t_uint256,t_struct(Terms)8329_storage)": {
        "encoding": "mapping",
        "key": "t_uint256",
        "label": "mapping(uint256 => struct LibBondStorage.Terms)",
        "numberOfBytes": "32",
        "value": "t_struct(Terms)8329_storage"
      },
      "t_mapping(t_uint256,t_uint256)": {
        "encoding": "mapping",
        "key": "t_uint256",
        "label": "mapping(uint256 => uint256)",
        "numberOfBytes": "32",
        "value": "t_uint256"
      },
      "t_struct(AddressSet)1222_storage": {
        "encoding": "inplace",
        "label": "struct EnumerableSet.AddressSet",
        "members": [
          {
            "astId": 1221,
            "contract": "contracts/facets/Bond/StakingFacet.sol:StakingFacet",
            "label": "_inner",
            "offset": 0,
            "slot": "0",
            "type": "t_struct(Set)921_storage"
          }
        ],
        "numberOfBytes": "64"
      },
      "t_struct(Bond)8338_storage": {
        "encoding": "inplace",
        "label": "struct LibBondStorage.Bond",
        "members": [
          {
            "astId": 8331,
            "contract": "contracts/facets/Bond/StakingFacet.sol:StakingFacet",
            "label": "payout",
            "offset": 0,
            "slot": "0",
            "type": "t_uint256"
          },
          {
            "astId": 8333,
            "contract": "contracts/facets/Bond/StakingFacet.sol:StakingFacet",
            "label": "pricePaid",
            "offset": 0,
            "slot": "1",
            "type": "t_uint256"
          },
          {
            "astId": 8335,
            "contract": "contracts/facets/Bond/StakingFacet.sol:StakingFacet",
            "label": "lastTime",
            "offset": 0,
            "slot": "2",
            "type": "t_uint256"
          },
          {
            "astId": 8337,
            "contract": "contracts/facets/Bond/StakingFacet.sol:StakingFacet",
            "label": "vesting",
            "offset": 0,
            "slot": "3",
            "type": "t_uint256"
          }
        ],
        "numberOfBytes": "128"
      },
      "t_struct(BondDepositoryAdjustment)8347_storage": {
        "encoding": "inplace",
        "label": "struct LibBondStorage.BondDepositoryAdjustment",
        "members": [
          {
            "astId": 8340,
            "contract": "contracts/facets/Bond/StakingFacet.sol:StakingFacet",
            "label": "add",
            "offset": 0,
            "slot": "0",
            "type": "t_bool"
          },
          {
            "astId": 8342,
            "contract": "contracts/facets/Bond/StakingFacet.sol:StakingFacet",
            "label": "delta",
            "offset": 0,
            "slot": "1",
            "type": "t_uint256"
          },
          {
            "astId": 8344,
            "contract": "contracts/facets/Bond/StakingFacet.sol:StakingFacet",
            "label": "timeToTarget",
            "offset": 0,
            "slot": "2",
            "type": "t_uint256"
          },
          {
            "astId": 8346,
            "contract": "contracts/facets/Bond/StakingFacet.sol:StakingFacet",
            "label": "lastTime",
            "offset": 0,
            "slot": "3",
            "type": "t_uint256"
          }
        ],
        "numberOfBytes": "128"
      },
      "t_struct(Claim)8365_storage": {
        "encoding": "inplace",
        "label": "struct LibBondStorage.Claim",
        "members": [
          {
            "astId": 8358,
            "contract": "contracts/facets/Bond/StakingFacet.sol:StakingFacet",
            "label": "deposit",
            "offset": 0,
            "slot": "0",
            "type": "t_uint256"
          },
          {
            "astId": 8360,
            "contract": "contracts/facets/Bond/StakingFacet.sol:StakingFacet",
            "label": "gons",
            "offset": 0,
            "slot": "1",
            "type": "t_uint256"
          },
          {
            "astId": 8362,
            "contract": "contracts/facets/Bond/StakingFacet.sol:StakingFacet",
            "label": "expiry",
            "offset": 0,
            "slot": "2",
            "type": "t_uint256"
          },
          {
            "astId": 8364,
            "contract": "contracts/facets/Bond/StakingFacet.sol:StakingFacet",
            "label": "lock",
            "offset": 0,
            "slot": "3",
            "type": "t_bool"
          }
        ],
        "numberOfBytes": "128"
      },
      "t_struct(DistributorAdjustment)8314_storage": {
        "encoding": "inplace",
        "label": "struct LibBondStorage.DistributorAdjustment",
        "members": [
          {
            "astId": 8309,
            "contract": "contracts/facets/Bond/StakingFacet.sol:StakingFacet",
            "label": "add",
            "offset": 0,
            "slot": "0",
            "type": "t_bool"
          },
          {
            "astId": 8311,
            "contract": "contracts/facets/Bond/StakingFacet.sol:StakingFacet",
            "label": "rate",
            "offset": 0,
            "slot": "1",
            "type": "t_uint256"
          },
          {
            "astId": 8313,
            "contract": "contracts/facets/Bond/StakingFacet.sol:StakingFacet",
            "label": "target",
            "offset": 0,
            "slot": "2",
            "type": "t_uint256"
          }
        ],
        "numberOfBytes": "96"
      },
      "t_struct(Epoch)8356_storage": {
        "encoding": "inplace",
        "label": "struct LibBondStorage.Epoch",
        "members": [
          {
            "astId": 8349,
            "contract": "contracts/facets/Bond/StakingFacet.sol:StakingFacet",
            "label": "number",
            "offset": 0,
            "slot": "0",
            "type": "t_uint256"
          },
          {
            "astId": 8351,
            "contract": "contracts/facets/Bond/StakingFacet.sol:StakingFacet",
            "label": "distribute",
            "offset": 0,
            "slot": "1",
            "type": "t_uint256"
          },
          {
            "astId": 8353,
            "contract": "contracts/facets/Bond/StakingFacet.sol:StakingFacet",
            "label": "length",
            "offset": 0,
            "slot": "2",
            "type": "t_uint256"
          },
          {
            "astId": 8355,
            "contract": "contracts/facets/Bond/StakingFacet.sol:StakingFacet",
            "label": "endTime",
            "offset": 0,
            "slot": "3",
            "type": "t_uint256"
          }
        ],
        "numberOfBytes": "128"
      },
      "t_struct(Info)8307_storage": {
        "encoding": "inplace",
        "label": "struct LibBondStorage.Info",
        "members": [
          {
            "astId": 8304,
            "contract": "contracts/facets/Bond/StakingFacet.sol:StakingFacet",
            "label": "rate",
            "offset": 0,
            "slot": "0",
            "type": "t_uint256"
          },
          {
            "astId": 8306,
            "contract": "contracts/facets/Bond/StakingFacet.sol:StakingFacet",
            "label": "recipient",
            "offset": 0,
            "slot": "1",
            "type": "t_address"
          }
        ],
        "numberOfBytes": "64"
      },
      "t_struct(Payout)8302_storage": {
        "encoding": "inplace",
        "label": "struct LibBondStorage.Payout",
        "members": [
          {
            "astId": 8299,
            "contract": "contracts/facets/Bond/StakingFacet.sol:StakingFacet",
            "label": "amount",
            "offset": 0,
            "slot": "0",
            "type": "t_uint256"
          },
          {
            "astId": 8301,
            "contract": "contracts/facets/Bond/StakingFacet.sol:StakingFacet",
            "label": "blockTimestamp",
            "offset": 0,
            "slot": "1",
            "type": "t_uint256"
          }
        ],
        "numberOfBytes": "64"
      },
      "t_struct(Set)921_storage": {
        "encoding": "inplace",
        "label": "struct EnumerableSet.Set",
        "members": [
          {
            "astId": 916,
            "contract": "contracts/facets/Bond/StakingFacet.sol:StakingFacet",
            "label": "_values",
            "offset": 0,
            "slot": "0",
            "type": "t_array(t_bytes32)dyn_storage"
          },
          {
            "astId": 920,
            "contract": "contracts/facets/Bond/StakingFacet.sol:StakingFacet",
            "label": "_indexes",
            "offset": 0,
            "slot": "1",
            "type": "t_mapping(t_bytes32,t_uint256)"
          }
        ],
        "numberOfBytes": "64"
      },
      "t_struct(Storage)8455_storage": {
        "encoding": "inplace",
        "label": "struct LibBondStorage.Storage",
        "members": [
          {
            "astId": 8367,
            "contract": "contracts/facets/Bond/StakingFacet.sol:StakingFacet",
            "label": "Necc",
            "offset": 0,
            "slot": "0",
            "type": "t_address"
          },
          {
            "astId": 8369,
            "contract": "contracts/facets/Bond/StakingFacet.sol:StakingFacet",
            "label": "nNecc",
            "offset": 0,
            "slot": "1",
            "type": "t_address"
          },
          {
            "astId": 8371,
            "contract": "contracts/facets/Bond/StakingFacet.sol:StakingFacet",
            "label": "sNecc",
            "offset": 0,
            "slot": "2",
            "type": "t_address"
          },
          {
            "astId": 8373,
            "contract": "contracts/facets/Bond/StakingFacet.sol:StakingFacet",
            "label": "ndol",
            "offset": 0,
            "slot": "3",
            "type": "t_address"
          },
          {
            "astId": 8375,
            "contract": "contracts/facets/Bond/StakingFacet.sol:StakingFacet",
            "label": "treasury",
            "offset": 0,
            "slot": "4",
            "type": "t_address"
          },
          {
            "astId": 8377,
            "contract": "contracts/facets/Bond/StakingFacet.sol:StakingFacet",
            "label": "DAO",
            "offset": 0,
            "slot": "5",
            "type": "t_address"
          },
          {
            "astId": 8379,
            "contract": "contracts/facets/Bond/StakingFacet.sol:StakingFacet",
            "label": "farmDistributor",
            "offset": 0,
            "slot": "6",
            "type": "t_address"
          },
          {
            "astId": 8381,
            "contract": "contracts/facets/Bond/StakingFacet.sol:StakingFacet",
            "label": "staking",
            "offset": 0,
            "slot": "7",
            "type": "t_address"
          },
          {
            "astId": 8384,
            "contract": "contracts/facets/Bond/StakingFacet.sol:StakingFacet",
            "label": "principles",
            "offset": 0,
            "slot": "8",
            "type": "t_struct(AddressSet)1222_storage"
          },
          {
            "astId": 8389,
            "contract": "contracts/facets/Bond/StakingFacet.sol:StakingFacet",
            "label": "terms",
            "offset": 0,
            "slot": "10",
            "type": "t_mapping(t_uint256,t_struct(Terms)8329_storage)"
          },
          {
            "astId": 8394,
            "contract": "contracts/facets/Bond/StakingFacet.sol:StakingFacet",
            "label": "bondDepositoryAdjustment",
            "offset": 0,
            "slot": "11",
            "type": "t_mapping(t_uint256,t_struct(BondDepositoryAdjustment)8347_storage)"
          },
          {
            "astId": 8401,
            "contract": "contracts/facets/Bond/StakingFacet.sol:StakingFacet",
            "label": "bondInfo",
            "offset": 0,
            "slot": "12",
            "type": "t_mapping(t_address,t_mapping(t_uint256,t_struct(Bond)8338_storage))"
          },
          {
            "astId": 8405,
            "contract": "contracts/facets/Bond/StakingFacet.sol:StakingFacet",
            "label": "totalDebt",
            "offset": 0,
            "slot": "13",
            "type": "t_mapping(t_uint256,t_uint256)"
          },
          {
            "astId": 8409,
            "contract": "contracts/facets/Bond/StakingFacet.sol:StakingFacet",
            "label": "lastDecay",
            "offset": 0,
            "slot": "14",
            "type": "t_mapping(t_uint256,t_uint256)"
          },
          {
            "astId": 8413,
            "contract": "contracts/facets/Bond/StakingFacet.sol:StakingFacet",
            "label": "nextEpochTimestamp",
            "offset": 0,
            "slot": "15",
            "type": "t_mapping(t_uint256,t_uint256)"
          },
          {
            "astId": 8417,
            "contract": "contracts/facets/Bond/StakingFacet.sol:StakingFacet",
            "label": "priceFeeds",
            "offset": 0,
            "slot": "16",
            "type": "t_mapping(t_uint256,t_address)"
          },
          {
            "astId": 8421,
            "contract": "contracts/facets/Bond/StakingFacet.sol:StakingFacet",
            "label": "info",
            "offset": 0,
            "slot": "17",
            "type": "t_array(t_struct(Info)8307_storage)dyn_storage"
          },
          {
            "astId": 8426,
            "contract": "contracts/facets/Bond/StakingFacet.sol:StakingFacet",
            "label": "distributorAdjustments",
            "offset": 0,
            "slot": "18",
            "type": "t_mapping(t_uint256,t_struct(DistributorAdjustment)8314_storage)"
          },
          {
            "astId": 8429,
            "contract": "contracts/facets/Bond/StakingFacet.sol:StakingFacet",
            "label": "epoch",
            "offset": 0,
            "slot": "19",
            "type": "t_struct(Epoch)8356_storage"
          },
          {
            "astId": 8431,
            "contract": "contracts/facets/Bond/StakingFacet.sol:StakingFacet",
            "label": "epochLength",
            "offset": 0,
            "slot": "23",
            "type": "t_uint256"
          },
          {
            "astId": 8433,
            "contract": "contracts/facets/Bond/StakingFacet.sol:StakingFacet",
            "label": "distributor",
            "offset": 0,
            "slot": "24",
            "type": "t_address"
          },
          {
            "astId": 8435,
            "contract": "contracts/facets/Bond/StakingFacet.sol:StakingFacet",
            "label": "locker",
            "offset": 0,
            "slot": "25",
            "type": "t_address"
          },
          {
            "astId": 8437,
            "contract": "contracts/facets/Bond/StakingFacet.sol:StakingFacet",
            "label": "totalBonus",
            "offset": 0,
            "slot": "26",
            "type": "t_uint256"
          },
          {
            "astId": 8439,
            "contract": "contracts/facets/Bond/StakingFacet.sol:StakingFacet",
            "label": "warmupPeriod",
            "offset": 0,
            "slot": "27",
            "type": "t_uint256"
          },
          {
            "astId": 8444,
            "contract": "contracts/facets/Bond/StakingFacet.sol:StakingFacet",
            "label": "warmupInfo",
            "offset": 0,
            "slot": "28",
            "type": "t_mapping(t_address,t_struct(Claim)8365_storage)"
          },
          {
            "astId": 8446,
            "contract": "contracts/facets/Bond/StakingFacet.sol:StakingFacet",
            "label": "targetSum",
            "offset": 0,
            "slot": "29",
            "type": "t_uint256"
          },
          {
            "astId": 8452,
            "contract": "contracts/facets/Bond/StakingFacet.sol:StakingFacet",
            "label": "payouts",
            "offset": 0,
            "slot": "30",
            "type": "t_mapping(t_uint256,t_array(t_struct(Payout)8302_storage)dyn_storage)"
          },
          {
            "astId": 8454,
            "contract": "contracts/facets/Bond/StakingFacet.sol:StakingFacet",
            "label": "gonsInWarmup",
            "offset": 0,
            "slot": "31",
            "type": "t_uint256"
          }
        ],
        "numberOfBytes": "1024"
      },
      "t_struct(Terms)8329_storage": {
        "encoding": "inplace",
        "label": "struct LibBondStorage.Terms",
        "members": [
          {
            "astId": 8316,
            "contract": "contracts/facets/Bond/StakingFacet.sol:StakingFacet",
            "label": "controlVariable",
            "offset": 0,
            "slot": "0",
            "type": "t_uint256"
          },
          {
            "astId": 8318,
            "contract": "contracts/facets/Bond/StakingFacet.sol:StakingFacet",
            "label": "minimumPrice",
            "offset": 0,
            "slot": "1",
            "type": "t_uint256"
          },
          {
            "astId": 8320,
            "contract": "contracts/facets/Bond/StakingFacet.sol:StakingFacet",
            "label": "maxPayout",
            "offset": 0,
            "slot": "2",
            "type": "t_uint256"
          },
          {
            "astId": 8322,
            "contract": "contracts/facets/Bond/StakingFacet.sol:StakingFacet",
            "label": "fee",
            "offset": 0,
            "slot": "3",
            "type": "t_uint256"
          },
          {
            "astId": 8324,
            "contract": "contracts/facets/Bond/StakingFacet.sol:StakingFacet",
            "label": "maxDebt",
            "offset": 0,
            "slot": "4",
            "type": "t_uint256"
          },
          {
            "astId": 8326,
            "contract": "contracts/facets/Bond/StakingFacet.sol:StakingFacet",
            "label": "vestingTerm",
            "offset": 0,
            "slot": "5",
            "type": "t_uint256"
          },
          {
            "astId": 8328,
            "contract": "contracts/facets/Bond/StakingFacet.sol:StakingFacet",
            "label": "isLiquidityBond",
            "offset": 0,
            "slot": "6",
            "type": "t_bool"
          }
        ],
        "numberOfBytes": "224"
      },
      "t_uint256": {
        "encoding": "inplace",
        "label": "uint256",
        "numberOfBytes": "32"
      }
    }
  }
}