{
  "address": "0x1941d370ECD1e31BDc4095cf8F142430C6d564da",
  "abi": [
    {
      "inputs": [
        {
          "internalType": "address",
          "name": "_recipient",
          "type": "address"
        }
      ],
      "name": "claim",
      "outputs": [],
      "stateMutability": "nonpayable",
      "type": "function"
    },
    {
      "inputs": [],
      "name": "contractBalance",
      "outputs": [
        {
          "internalType": "uint256",
          "name": "",
          "type": "uint256"
        }
      ],
      "stateMutability": "view",
      "type": "function"
    },
    {
      "inputs": [],
      "name": "epoch",
      "outputs": [
        {
          "components": [
            {
              "internalType": "uint256",
              "name": "number",
              "type": "uint256"
            },
            {
              "internalType": "uint256",
              "name": "distribute",
              "type": "uint256"
            },
            {
              "internalType": "uint256",
              "name": "length",
              "type": "uint256"
            },
            {
              "internalType": "uint256",
              "name": "endTime",
              "type": "uint256"
            }
          ],
          "internalType": "struct LibBondStorage.Epoch",
          "name": "",
          "type": "tuple"
        }
      ],
      "stateMutability": "view",
      "type": "function"
    },
    {
      "inputs": [],
      "name": "forfeit",
      "outputs": [],
      "stateMutability": "nonpayable",
      "type": "function"
    },
    {
      "inputs": [],
      "name": "index",
      "outputs": [
        {
          "internalType": "uint256",
          "name": "",
          "type": "uint256"
        }
      ],
      "stateMutability": "view",
      "type": "function"
    },
    {
      "inputs": [],
      "name": "rebase",
      "outputs": [],
      "stateMutability": "nonpayable",
      "type": "function"
    },
    {
      "inputs": [
        {
          "internalType": "uint256",
          "name": "_amount",
          "type": "uint256"
        },
        {
          "internalType": "address",
          "name": "_recipient",
          "type": "address"
        }
      ],
      "name": "stake",
      "outputs": [
        {
          "internalType": "bool",
          "name": "",
          "type": "bool"
        }
      ],
      "stateMutability": "nonpayable",
      "type": "function"
    },
    {
      "inputs": [],
      "name": "supplyInWarmup",
      "outputs": [
        {
          "internalType": "uint256",
          "name": "",
          "type": "uint256"
        }
      ],
      "stateMutability": "view",
      "type": "function"
    },
    {
      "inputs": [],
      "name": "totalStaked",
      "outputs": [
        {
          "internalType": "uint256",
          "name": "",
          "type": "uint256"
        }
      ],
      "stateMutability": "view",
      "type": "function"
    },
    {
      "inputs": [
        {
          "internalType": "address",
          "name": "_recipient",
          "type": "address"
        }
      ],
      "name": "warmupInfo",
      "outputs": [
        {
          "components": [
            {
              "internalType": "uint256",
              "name": "deposit",
              "type": "uint256"
            },
            {
              "internalType": "uint256",
              "name": "gons",
              "type": "uint256"
            },
            {
              "internalType": "uint256",
              "name": "expiry",
              "type": "uint256"
            },
            {
              "internalType": "bool",
              "name": "lock",
              "type": "bool"
            }
          ],
          "internalType": "struct LibBondStorage.Claim",
          "name": "",
          "type": "tuple"
        }
      ],
      "stateMutability": "view",
      "type": "function"
    }
  ],
  "transactionHash": "0x44a52dc90da63ee2ceee65aa308624dc5b3c363861c305c098c03c433bc73499",
  "args": [],
  "solcInputHash": "51e0a29016eb8a808231ef727f964484",
  "bytecode": "0x608060405234801561001057600080fd5b50611ce8806100206000396000f3fe608060405234801561001057600080fd5b506004361061009e5760003560e01c8063817b1cd211610066578063817b1cd21461015b5780638b7afe2e14610179578063900cf0cf14610197578063af14052c146101b5578063f3d86e4a146101bf5761009e565b80631e83409a146100a357806320138641146100bf5780632986c0e5146100dd5780636746f4c2146100fb5780637acb77571461012b575b600080fd5b6100bd60048036038101906100b891906114ba565b6101c9565b005b6100c7610438565b6040516100d49190611500565b60405180910390f35b6100e56104e2565b6040516100f29190611500565b60405180910390f35b610115600480360381019061011091906114ba565b61057c565b604051610122919061159a565b60405180910390f35b610145600480360381019061014091906115e1565b610611565b6040516101529190611630565b60405180910390f35b6101636109b2565b6040516101709190611500565b60405180910390f35b610181610a4c565b60405161018e9190611500565b60405180910390f35b61019f610af1565b6040516101ac91906116a0565b60405180910390f35b6101bd610b36565b005b6101c7610d10565b005b600080601b0160008373ffffffffffffffffffffffffffffffffffffffff1673ffffffffffffffffffffffffffffffffffffffff1681526020019081526020016000206040518060800160405290816000820154815260200160018201548152602001600282015481526020016003820160009054906101000a900460ff161515151581525050905080606001516102ca573373ffffffffffffffffffffffffffffffffffffffff168273ffffffffffffffffffffffffffffffffffffffff16146102c9576040517f08c379a00000000000000000000000000000000000000000000000000000000081526004016102c09061173e565b60405180910390fd5b5b8060400151600060130160000154101580156102eb57506000816040015114155b15610434576000601b0160008373ffffffffffffffffffffffffffffffffffffffff1673ffffffffffffffffffffffffffffffffffffffff168152602001908152602001600020600080820160009055600182016000905560028201600090556003820160006101000a81549060ff0219169055505061037d81602001516000601e0154610e8590919063ffffffff16565b6000601e018190555061043282600060010160009054906101000a900473ffffffffffffffffffffffffffffffffffffffff1673ffffffffffffffffffffffffffffffffffffffff16637965d56d84602001516040518263ffffffff1660e01b81526004016103ec9190611500565b602060405180830381865afa158015610409573d6000803e3d6000fd5b505050506040513d601f19601f8201168201806040525081019061042d9190611773565b610e9b565b505b5050565b60008060010160009054906101000a900473ffffffffffffffffffffffffffffffffffffffff1673ffffffffffffffffffffffffffffffffffffffff16637965d56d6000601e01546040518263ffffffff1660e01b815260040161049c9190611500565b602060405180830381865afa1580156104b9573d6000803e3d6000fd5b505050506040513d601f19601f820116820180604052508101906104dd9190611773565b905090565b60008060010160009054906101000a900473ffffffffffffffffffffffffffffffffffffffff1673ffffffffffffffffffffffffffffffffffffffff16632986c0e56040518163ffffffff1660e01b8152600401602060405180830381865afa158015610553573d6000803e3d6000fd5b505050506040513d601f19601f820116820180604052508101906105779190611773565b905090565b610584611405565b6000601b0160008373ffffffffffffffffffffffffffffffffffffffff1673ffffffffffffffffffffffffffffffffffffffff1681526020019081526020016000206040518060800160405290816000820154815260200160018201548152602001600282015481526020016003820160009054906101000a900460ff1615151515815250509050919050565b600061061b610b36565b61066c3330856000800160009054906101000a900473ffffffffffffffffffffffffffffffffffffffff1673ffffffffffffffffffffffffffffffffffffffff16611073909392919063ffffffff16565b600080601a01541415610689576106838284610e9b565b506109a8565b600080601b0160008473ffffffffffffffffffffffffffffffffffffffff1673ffffffffffffffffffffffffffffffffffffffff1681526020019081526020016000206040518060800160405290816000820154815260200160018201548152602001600282015481526020016003820160009054906101000a900460ff1615151515815250509050806060015115610757576040517f08c379a000000000000000000000000000000000000000000000000000000000815260040161074e906117ec565b60405180910390fd5b60405180608001604052806107798684600001516110fc90919063ffffffff16565b8152602001610833600060010160009054906101000a900473ffffffffffffffffffffffffffffffffffffffff1673ffffffffffffffffffffffffffffffffffffffff16631bd39674886040518263ffffffff1660e01b81526004016107df9190611500565b602060405180830381865afa1580156107fc573d6000803e3d6000fd5b505050506040513d601f19601f820116820180604052508101906108209190611773565b84602001516110fc90919063ffffffff16565b81526020016108586000601a01546000601301600001546110fc90919063ffffffff16565b8152602001600015158152506000601b0160008573ffffffffffffffffffffffffffffffffffffffff1673ffffffffffffffffffffffffffffffffffffffff16815260200190815260200160002060008201518160000155602082015181600101556040820151816002015560608201518160030160006101000a81548160ff02191690831515021790555090505061099d600060010160009054906101000a900473ffffffffffffffffffffffffffffffffffffffff1673ffffffffffffffffffffffffffffffffffffffff16631bd39674866040518263ffffffff1660e01b81526004016109489190611500565b602060405180830381865afa158015610965573d6000803e3d6000fd5b505050506040513d601f19601f820116820180604052508101906109899190611773565b6000601e01546110fc90919063ffffffff16565b6000601e0181905550505b6001905092915050565b60008060010160009054906101000a900473ffffffffffffffffffffffffffffffffffffffff1673ffffffffffffffffffffffffffffffffffffffff16639358928b6040518163ffffffff1660e01b8152600401602060405180830381865afa158015610a23573d6000803e3d6000fd5b505050506040513d601f19601f82011682018060405250810190610a479190611773565b905090565b60008060000160009054906101000a900473ffffffffffffffffffffffffffffffffffffffff1673ffffffffffffffffffffffffffffffffffffffff166370a08231306040518263ffffffff1660e01b8152600401610aab919061181b565b602060405180830381865afa158015610ac8573d6000803e3d6000fd5b505050506040513d601f19601f82011682018060405250810190610aec9190611773565b905090565b610af961142f565b6000601301604051806080016040529081600082015481526020016001820154815260200160028201548152602001600382015481525050905090565b4260006013016003015411610d0e57600060010160009054906101000a900473ffffffffffffffffffffffffffffffffffffffff1673ffffffffffffffffffffffffffffffffffffffff1663058ecdb46000601301600101546000601301600001546040518363ffffffff1660e01b8152600401610bb5929190611836565b6020604051808303816000875af1158015610bd4573d6000803e3d6000fd5b505050506040513d601f19601f82011682018060405250810190610bf89190611773565b50610c1c6000601301600201546000601301600301546110fc90919063ffffffff16565b60006013016003018190555060006013016000016000815480929190610c419061188e565b91905055503073ffffffffffffffffffffffffffffffffffffffff1663e4fc6b6d6040518163ffffffff1660e01b81526004016020604051808303816000875af1158015610c93573d6000803e3d6000fd5b505050506040513d601f19601f82011682018060405250810190610cb79190611773565b50610cc06109b2565b610cc8610a4c565b11610cdf5760008060130160010181905550610d0d565b610d00610cea6109b2565b610cf2610a4c565b610e8590919063ffffffff16565b6000601301600101819055505b5b565b600080601b0160003373ffffffffffffffffffffffffffffffffffffffff1673ffffffffffffffffffffffffffffffffffffffff1681526020019081526020016000206040518060800160405290816000820154815260200160018201548152602001600282015481526020016003820160009054906101000a900460ff16151515158152505090506000601b0160003373ffffffffffffffffffffffffffffffffffffffff1673ffffffffffffffffffffffffffffffffffffffff168152602001908152602001600020600080820160009055600182016000905560028201600090556003820160006101000a81549060ff02191690555050610e2681602001516000601e0154610e8590919063ffffffff16565b6000601e0181905550610e823382600001516000800160009054906101000a900473ffffffffffffffffffffffffffffffffffffffff1673ffffffffffffffffffffffffffffffffffffffff166111129092919063ffffffff16565b50565b60008183610e9391906118d7565b905092915050565b60008060020160009054906101000a900473ffffffffffffffffffffffffffffffffffffffff1673ffffffffffffffffffffffffffffffffffffffff166340c10f1984600060020160009054906101000a900473ffffffffffffffffffffffffffffffffffffffff1673ffffffffffffffffffffffffffffffffffffffff166366a5236c866040518263ffffffff1660e01b8152600401610f3c9190611500565b602060405180830381865afa158015610f59573d6000803e3d6000fd5b505050506040513d601f19601f82011682018060405250810190610f7d9190611773565b6040518363ffffffff1660e01b8152600401610f9a92919061190b565b600060405180830381600087803b158015610fb457600080fd5b505af1158015610fc8573d6000803e3d6000fd5b50505050600060020160009054906101000a900473ffffffffffffffffffffffffffffffffffffffff1673ffffffffffffffffffffffffffffffffffffffff166366a5236c836040518263ffffffff1660e01b815260040161102a9190611500565b602060405180830381865afa158015611047573d6000803e3d6000fd5b505050506040513d601f19601f8201168201806040525081019061106b9190611773565b905092915050565b6110f6846323b872dd60e01b85858560405160240161109493929190611934565b604051602081830303815290604052907bffffffffffffffffffffffffffffffffffffffffffffffffffffffff19166020820180517bffffffffffffffffffffffffffffffffffffffffffffffffffffffff8381831617835250505050611198565b50505050565b6000818361110a919061196b565b905092915050565b6111938363a9059cbb60e01b848460405160240161113192919061190b565b604051602081830303815290604052907bffffffffffffffffffffffffffffffffffffffffffffffffffffffff19166020820180517bffffffffffffffffffffffffffffffffffffffffffffffffffffffff8381831617835250505050611198565b505050565b60006111fa826040518060400160405280602081526020017f5361666545524332303a206c6f772d6c6576656c2063616c6c206661696c65648152508573ffffffffffffffffffffffffffffffffffffffff1661125f9092919063ffffffff16565b905060008151111561125a578080602001905181019061121a91906119ed565b611259576040517f08c379a000000000000000000000000000000000000000000000000000000000815260040161125090611a8c565b60405180910390fd5b5b505050565b606061126e8484600085611277565b90509392505050565b6060824710156112bc576040517f08c379a00000000000000000000000000000000000000000000000000000000081526004016112b390611b1e565b60405180910390fd5b6112c58561138b565b611304576040517f08c379a00000000000000000000000000000000000000000000000000000000081526004016112fb90611b8a565b60405180910390fd5b6000808673ffffffffffffffffffffffffffffffffffffffff16858760405161132d9190611c24565b60006040518083038185875af1925050503d806000811461136a576040519150601f19603f3d011682016040523d82523d6000602084013e61136f565b606091505b509150915061137f82828661139e565b92505050949350505050565b600080823b905060008111915050919050565b606083156113ae578290506113fe565b6000835111156113c15782518084602001fd5b816040517f08c379a00000000000000000000000000000000000000000000000000000000081526004016113f59190611c90565b60405180910390fd5b9392505050565b60405180608001604052806000815260200160008152602001600081526020016000151581525090565b6040518060800160405280600081526020016000815260200160008152602001600081525090565b600080fd5b600073ffffffffffffffffffffffffffffffffffffffff82169050919050565b60006114878261145c565b9050919050565b6114978161147c565b81146114a257600080fd5b50565b6000813590506114b48161148e565b92915050565b6000602082840312156114d0576114cf611457565b5b60006114de848285016114a5565b91505092915050565b6000819050919050565b6114fa816114e7565b82525050565b600060208201905061151560008301846114f1565b92915050565b611524816114e7565b82525050565b60008115159050919050565b61153f8161152a565b82525050565b60808201600082015161155b600085018261151b565b50602082015161156e602085018261151b565b506040820151611581604085018261151b565b5060608201516115946060850182611536565b50505050565b60006080820190506115af6000830184611545565b92915050565b6115be816114e7565b81146115c957600080fd5b50565b6000813590506115db816115b5565b92915050565b600080604083850312156115f8576115f7611457565b5b6000611606858286016115cc565b9250506020611617858286016114a5565b9150509250929050565b61162a8161152a565b82525050565b60006020820190506116456000830184611621565b92915050565b608082016000820151611661600085018261151b565b506020820151611674602085018261151b565b506040820151611687604085018261151b565b50606082015161169a606085018261151b565b50505050565b60006080820190506116b5600083018461164b565b92915050565b600082825260208201905092915050565b7f45787465726e616c20636c61696d7320666f72206163636f756e74206172652060008201527f6c6f636b65640000000000000000000000000000000000000000000000000000602082015250565b60006117286026836116bb565b9150611733826116cc565b604082019050919050565b600060208201905081810360008301526117578161171b565b9050919050565b60008151905061176d816115b5565b92915050565b60006020828403121561178957611788611457565b5b60006117978482850161175e565b91505092915050565b7f4465706f7369747320666f72206163636f756e7420617265206c6f636b656400600082015250565b60006117d6601f836116bb565b91506117e1826117a0565b602082019050919050565b60006020820190508181036000830152611805816117c9565b9050919050565b6118158161147c565b82525050565b6000602082019050611830600083018461180c565b92915050565b600060408201905061184b60008301856114f1565b61185860208301846114f1565b9392505050565b7f4e487b7100000000000000000000000000000000000000000000000000000000600052601160045260246000fd5b6000611899826114e7565b91507fffffffffffffffffffffffffffffffffffffffffffffffffffffffffffffffff8214156118cc576118cb61185f565b5b600182019050919050565b60006118e2826114e7565b91506118ed836114e7565b925082821015611900576118ff61185f565b5b828203905092915050565b6000604082019050611920600083018561180c565b61192d60208301846114f1565b9392505050565b6000606082019050611949600083018661180c565b611956602083018561180c565b61196360408301846114f1565b949350505050565b6000611976826114e7565b9150611981836114e7565b9250827fffffffffffffffffffffffffffffffffffffffffffffffffffffffffffffffff038211156119b6576119b561185f565b5b828201905092915050565b6119ca8161152a565b81146119d557600080fd5b50565b6000815190506119e7816119c1565b92915050565b600060208284031215611a0357611a02611457565b5b6000611a11848285016119d8565b91505092915050565b7f5361666545524332303a204552433230206f7065726174696f6e20646964206e60008201527f6f74207375636365656400000000000000000000000000000000000000000000602082015250565b6000611a76602a836116bb565b9150611a8182611a1a565b604082019050919050565b60006020820190508181036000830152611aa581611a69565b9050919050565b7f416464726573733a20696e73756666696369656e742062616c616e636520666f60008201527f722063616c6c0000000000000000000000000000000000000000000000000000602082015250565b6000611b086026836116bb565b9150611b1382611aac565b604082019050919050565b60006020820190508181036000830152611b3781611afb565b9050919050565b7f416464726573733a2063616c6c20746f206e6f6e2d636f6e7472616374000000600082015250565b6000611b74601d836116bb565b9150611b7f82611b3e565b602082019050919050565b60006020820190508181036000830152611ba381611b67565b9050919050565b600081519050919050565b600081905092915050565b60005b83811015611bde578082015181840152602081019050611bc3565b83811115611bed576000848401525b50505050565b6000611bfe82611baa565b611c088185611bb5565b9350611c18818560208601611bc0565b80840191505092915050565b6000611c308284611bf3565b915081905092915050565b600081519050919050565b6000601f19601f8301169050919050565b6000611c6282611c3b565b611c6c81856116bb565b9350611c7c818560208601611bc0565b611c8581611c46565b840191505092915050565b60006020820190508181036000830152611caa8184611c57565b90509291505056fea26469706673582212205309fea1f55d16bf8ed4cf9c2483c6ffb7c6e3d1f1ecd7670190623368a942b164736f6c634300080a0033",
  "devdoc": {
    "kind": "dev",
    "methods": {
      "claim(address)": {
        "params": {
          "_recipient": "address"
        }
      },
      "contractBalance()": {
        "returns": {
          "_0": "uint"
        }
      },
      "index()": {
        "returns": {
          "_0": "uint"
        }
      },
      "stake(uint256,address)": {
        "params": {
          "_amount": "uint"
        },
        "returns": {
          "_0": "bool"
        }
      }
    },
    "version": 1
  },
  "userdoc": {
    "kind": "user",
    "methods": {
      "claim(address)": {
        "notice": "retrieve sNecc from warmup"
      },
      "contractBalance()": {
        "notice": "returns contract Necc holdings, including bonuses provided"
      },
      "forfeit()": {
        "notice": "forfeit sNecc in warmup and retrieve Necc"
      },
      "index()": {
        "notice": "returns the sNecc index, which tracks rebase growth"
      },
      "rebase()": {
        "notice": "trigger rebase if epoch over"
      },
      "stake(uint256,address)": {
        "notice": "stake Necc to enter warmup or for nNecc"
      }
    },
    "version": 1
  },
  "storageLayout": {
    "storage": [
      {
        "astId": 7102,
        "contract": "contracts/facets/Bond/StakingFacet.sol:StakingFacet",
        "label": "s",
        "offset": 0,
        "slot": "0",
        "type": "t_struct(Storage)20981_storage"
      }
    ],
    "types": {
      "t_address": {
        "encoding": "inplace",
        "label": "address",
        "numberOfBytes": "20"
      },
      "t_array(t_bytes32)dyn_storage": {
        "base": "t_bytes32",
        "encoding": "dynamic_array",
        "label": "bytes32[]",
        "numberOfBytes": "32"
      },
      "t_array(t_struct(Info)20835_storage)dyn_storage": {
        "base": "t_struct(Info)20835_storage",
        "encoding": "dynamic_array",
        "label": "struct LibBondStorage.Info[]",
        "numberOfBytes": "32"
      },
      "t_array(t_struct(Payout)20830_storage)dyn_storage": {
        "base": "t_struct(Payout)20830_storage",
        "encoding": "dynamic_array",
        "label": "struct LibBondStorage.Payout[]",
        "numberOfBytes": "32"
      },
      "t_bool": {
        "encoding": "inplace",
        "label": "bool",
        "numberOfBytes": "1"
      },
      "t_bytes32": {
        "encoding": "inplace",
        "label": "bytes32",
        "numberOfBytes": "32"
      },
      "t_mapping(t_address,t_mapping(t_uint256,t_struct(Bond)20866_storage))": {
        "encoding": "mapping",
        "key": "t_address",
        "label": "mapping(address => mapping(uint256 => struct LibBondStorage.Bond))",
        "numberOfBytes": "32",
        "value": "t_mapping(t_uint256,t_struct(Bond)20866_storage)"
      },
      "t_mapping(t_address,t_struct(Claim)20893_storage)": {
        "encoding": "mapping",
        "key": "t_address",
        "label": "mapping(address => struct LibBondStorage.Claim)",
        "numberOfBytes": "32",
        "value": "t_struct(Claim)20893_storage"
      },
      "t_mapping(t_bytes32,t_uint256)": {
        "encoding": "mapping",
        "key": "t_bytes32",
        "label": "mapping(bytes32 => uint256)",
        "numberOfBytes": "32",
        "value": "t_uint256"
      },
      "t_mapping(t_uint256,t_address)": {
        "encoding": "mapping",
        "key": "t_uint256",
        "label": "mapping(uint256 => address)",
        "numberOfBytes": "32",
        "value": "t_address"
      },
      "t_mapping(t_uint256,t_array(t_struct(Payout)20830_storage)dyn_storage)": {
        "encoding": "mapping",
        "key": "t_uint256",
        "label": "mapping(uint256 => struct LibBondStorage.Payout[])",
        "numberOfBytes": "32",
        "value": "t_array(t_struct(Payout)20830_storage)dyn_storage"
      },
      "t_mapping(t_uint256,t_struct(Bond)20866_storage)": {
        "encoding": "mapping",
        "key": "t_uint256",
        "label": "mapping(uint256 => struct LibBondStorage.Bond)",
        "numberOfBytes": "32",
        "value": "t_struct(Bond)20866_storage"
      },
      "t_mapping(t_uint256,t_struct(BondDepositoryAdjustment)20875_storage)": {
        "encoding": "mapping",
        "key": "t_uint256",
        "label": "mapping(uint256 => struct LibBondStorage.BondDepositoryAdjustment)",
        "numberOfBytes": "32",
        "value": "t_struct(BondDepositoryAdjustment)20875_storage"
      },
      "t_mapping(t_uint256,t_struct(DistributorAdjustment)20842_storage)": {
        "encoding": "mapping",
        "key": "t_uint256",
        "label": "mapping(uint256 => struct LibBondStorage.DistributorAdjustment)",
        "numberOfBytes": "32",
        "value": "t_struct(DistributorAdjustment)20842_storage"
      },
      "t_mapping(t_uint256,t_struct(Terms)20857_storage)": {
        "encoding": "mapping",
        "key": "t_uint256",
        "label": "mapping(uint256 => struct LibBondStorage.Terms)",
        "numberOfBytes": "32",
        "value": "t_struct(Terms)20857_storage"
      },
      "t_mapping(t_uint256,t_uint256)": {
        "encoding": "mapping",
        "key": "t_uint256",
        "label": "mapping(uint256 => uint256)",
        "numberOfBytes": "32",
        "value": "t_uint256"
      },
      "t_struct(AddressSet)1348_storage": {
        "encoding": "inplace",
        "label": "struct EnumerableSet.AddressSet",
        "members": [
          {
            "astId": 1347,
            "contract": "contracts/facets/Bond/StakingFacet.sol:StakingFacet",
            "label": "_inner",
            "offset": 0,
            "slot": "0",
            "type": "t_struct(Set)1047_storage"
          }
        ],
        "numberOfBytes": "64"
      },
      "t_struct(Bond)20866_storage": {
        "encoding": "inplace",
        "label": "struct LibBondStorage.Bond",
        "members": [
          {
            "astId": 20859,
            "contract": "contracts/facets/Bond/StakingFacet.sol:StakingFacet",
            "label": "payout",
            "offset": 0,
            "slot": "0",
            "type": "t_uint256"
          },
          {
            "astId": 20861,
            "contract": "contracts/facets/Bond/StakingFacet.sol:StakingFacet",
            "label": "pricePaid",
            "offset": 0,
            "slot": "1",
            "type": "t_uint256"
          },
          {
            "astId": 20863,
            "contract": "contracts/facets/Bond/StakingFacet.sol:StakingFacet",
            "label": "lastTime",
            "offset": 0,
            "slot": "2",
            "type": "t_uint256"
          },
          {
            "astId": 20865,
            "contract": "contracts/facets/Bond/StakingFacet.sol:StakingFacet",
            "label": "vesting",
            "offset": 0,
            "slot": "3",
            "type": "t_uint256"
          }
        ],
        "numberOfBytes": "128"
      },
      "t_struct(BondDepositoryAdjustment)20875_storage": {
        "encoding": "inplace",
        "label": "struct LibBondStorage.BondDepositoryAdjustment",
        "members": [
          {
            "astId": 20868,
            "contract": "contracts/facets/Bond/StakingFacet.sol:StakingFacet",
            "label": "add",
            "offset": 0,
            "slot": "0",
            "type": "t_bool"
          },
          {
            "astId": 20870,
            "contract": "contracts/facets/Bond/StakingFacet.sol:StakingFacet",
            "label": "delta",
            "offset": 0,
            "slot": "1",
            "type": "t_uint256"
          },
          {
            "astId": 20872,
            "contract": "contracts/facets/Bond/StakingFacet.sol:StakingFacet",
            "label": "timeToTarget",
            "offset": 0,
            "slot": "2",
            "type": "t_uint256"
          },
          {
            "astId": 20874,
            "contract": "contracts/facets/Bond/StakingFacet.sol:StakingFacet",
            "label": "lastTime",
            "offset": 0,
            "slot": "3",
            "type": "t_uint256"
          }
        ],
        "numberOfBytes": "128"
      },
      "t_struct(Claim)20893_storage": {
        "encoding": "inplace",
        "label": "struct LibBondStorage.Claim",
        "members": [
          {
            "astId": 20886,
            "contract": "contracts/facets/Bond/StakingFacet.sol:StakingFacet",
            "label": "deposit",
            "offset": 0,
            "slot": "0",
            "type": "t_uint256"
          },
          {
            "astId": 20888,
            "contract": "contracts/facets/Bond/StakingFacet.sol:StakingFacet",
            "label": "gons",
            "offset": 0,
            "slot": "1",
            "type": "t_uint256"
          },
          {
            "astId": 20890,
            "contract": "contracts/facets/Bond/StakingFacet.sol:StakingFacet",
            "label": "expiry",
            "offset": 0,
            "slot": "2",
            "type": "t_uint256"
          },
          {
            "astId": 20892,
            "contract": "contracts/facets/Bond/StakingFacet.sol:StakingFacet",
            "label": "lock",
            "offset": 0,
            "slot": "3",
            "type": "t_bool"
          }
        ],
        "numberOfBytes": "128"
      },
      "t_struct(DistributorAdjustment)20842_storage": {
        "encoding": "inplace",
        "label": "struct LibBondStorage.DistributorAdjustment",
        "members": [
          {
            "astId": 20837,
            "contract": "contracts/facets/Bond/StakingFacet.sol:StakingFacet",
            "label": "add",
            "offset": 0,
            "slot": "0",
            "type": "t_bool"
          },
          {
            "astId": 20839,
            "contract": "contracts/facets/Bond/StakingFacet.sol:StakingFacet",
            "label": "rate",
            "offset": 0,
            "slot": "1",
            "type": "t_uint256"
          },
          {
            "astId": 20841,
            "contract": "contracts/facets/Bond/StakingFacet.sol:StakingFacet",
            "label": "target",
            "offset": 0,
            "slot": "2",
            "type": "t_uint256"
          }
        ],
        "numberOfBytes": "96"
      },
      "t_struct(Epoch)20884_storage": {
        "encoding": "inplace",
        "label": "struct LibBondStorage.Epoch",
        "members": [
          {
            "astId": 20877,
            "contract": "contracts/facets/Bond/StakingFacet.sol:StakingFacet",
            "label": "number",
            "offset": 0,
            "slot": "0",
            "type": "t_uint256"
          },
          {
            "astId": 20879,
            "contract": "contracts/facets/Bond/StakingFacet.sol:StakingFacet",
            "label": "distribute",
            "offset": 0,
            "slot": "1",
            "type": "t_uint256"
          },
          {
            "astId": 20881,
            "contract": "contracts/facets/Bond/StakingFacet.sol:StakingFacet",
            "label": "length",
            "offset": 0,
            "slot": "2",
            "type": "t_uint256"
          },
          {
            "astId": 20883,
            "contract": "contracts/facets/Bond/StakingFacet.sol:StakingFacet",
            "label": "endTime",
            "offset": 0,
            "slot": "3",
            "type": "t_uint256"
          }
        ],
        "numberOfBytes": "128"
      },
      "t_struct(Info)20835_storage": {
        "encoding": "inplace",
        "label": "struct LibBondStorage.Info",
        "members": [
          {
            "astId": 20832,
            "contract": "contracts/facets/Bond/StakingFacet.sol:StakingFacet",
            "label": "rate",
            "offset": 0,
            "slot": "0",
            "type": "t_uint256"
          },
          {
            "astId": 20834,
            "contract": "contracts/facets/Bond/StakingFacet.sol:StakingFacet",
            "label": "recipient",
            "offset": 0,
            "slot": "1",
            "type": "t_address"
          }
        ],
        "numberOfBytes": "64"
      },
      "t_struct(Payout)20830_storage": {
        "encoding": "inplace",
        "label": "struct LibBondStorage.Payout",
        "members": [
          {
            "astId": 20827,
            "contract": "contracts/facets/Bond/StakingFacet.sol:StakingFacet",
            "label": "amount",
            "offset": 0,
            "slot": "0",
            "type": "t_uint256"
          },
          {
            "astId": 20829,
            "contract": "contracts/facets/Bond/StakingFacet.sol:StakingFacet",
            "label": "blockTimestamp",
            "offset": 0,
            "slot": "1",
            "type": "t_uint256"
          }
        ],
        "numberOfBytes": "64"
      },
      "t_struct(Set)1047_storage": {
        "encoding": "inplace",
        "label": "struct EnumerableSet.Set",
        "members": [
          {
            "astId": 1042,
            "contract": "contracts/facets/Bond/StakingFacet.sol:StakingFacet",
            "label": "_values",
            "offset": 0,
            "slot": "0",
            "type": "t_array(t_bytes32)dyn_storage"
          },
          {
            "astId": 1046,
            "contract": "contracts/facets/Bond/StakingFacet.sol:StakingFacet",
            "label": "_indexes",
            "offset": 0,
            "slot": "1",
            "type": "t_mapping(t_bytes32,t_uint256)"
          }
        ],
        "numberOfBytes": "64"
      },
      "t_struct(Storage)20981_storage": {
        "encoding": "inplace",
        "label": "struct LibBondStorage.Storage",
        "members": [
          {
            "astId": 20895,
            "contract": "contracts/facets/Bond/StakingFacet.sol:StakingFacet",
            "label": "Necc",
            "offset": 0,
            "slot": "0",
            "type": "t_address"
          },
          {
            "astId": 20897,
            "contract": "contracts/facets/Bond/StakingFacet.sol:StakingFacet",
            "label": "sNecc",
            "offset": 0,
            "slot": "1",
            "type": "t_address"
          },
          {
            "astId": 20899,
            "contract": "contracts/facets/Bond/StakingFacet.sol:StakingFacet",
            "label": "nNecc",
            "offset": 0,
            "slot": "2",
            "type": "t_address"
          },
          {
            "astId": 20901,
            "contract": "contracts/facets/Bond/StakingFacet.sol:StakingFacet",
            "label": "ndol",
            "offset": 0,
            "slot": "3",
            "type": "t_address"
          },
          {
            "astId": 20903,
            "contract": "contracts/facets/Bond/StakingFacet.sol:StakingFacet",
            "label": "treasury",
            "offset": 0,
            "slot": "4",
            "type": "t_address"
          },
          {
            "astId": 20905,
            "contract": "contracts/facets/Bond/StakingFacet.sol:StakingFacet",
            "label": "DAO",
            "offset": 0,
            "slot": "5",
            "type": "t_address"
          },
          {
            "astId": 20907,
            "contract": "contracts/facets/Bond/StakingFacet.sol:StakingFacet",
            "label": "farmDistributor",
            "offset": 0,
            "slot": "6",
            "type": "t_address"
          },
          {
            "astId": 20909,
            "contract": "contracts/facets/Bond/StakingFacet.sol:StakingFacet",
            "label": "staking",
            "offset": 0,
            "slot": "7",
            "type": "t_address"
          },
          {
            "astId": 20912,
            "contract": "contracts/facets/Bond/StakingFacet.sol:StakingFacet",
            "label": "principles",
            "offset": 0,
            "slot": "8",
            "type": "t_struct(AddressSet)1348_storage"
          },
          {
            "astId": 20917,
            "contract": "contracts/facets/Bond/StakingFacet.sol:StakingFacet",
            "label": "terms",
            "offset": 0,
            "slot": "10",
            "type": "t_mapping(t_uint256,t_struct(Terms)20857_storage)"
          },
          {
            "astId": 20922,
            "contract": "contracts/facets/Bond/StakingFacet.sol:StakingFacet",
            "label": "bondDepositoryAdjustment",
            "offset": 0,
            "slot": "11",
            "type": "t_mapping(t_uint256,t_struct(BondDepositoryAdjustment)20875_storage)"
          },
          {
            "astId": 20929,
            "contract": "contracts/facets/Bond/StakingFacet.sol:StakingFacet",
            "label": "bondInfo",
            "offset": 0,
            "slot": "12",
            "type": "t_mapping(t_address,t_mapping(t_uint256,t_struct(Bond)20866_storage))"
          },
          {
            "astId": 20933,
            "contract": "contracts/facets/Bond/StakingFacet.sol:StakingFacet",
            "label": "totalDebt",
            "offset": 0,
            "slot": "13",
            "type": "t_mapping(t_uint256,t_uint256)"
          },
          {
            "astId": 20937,
            "contract": "contracts/facets/Bond/StakingFacet.sol:StakingFacet",
            "label": "lastDecay",
            "offset": 0,
            "slot": "14",
            "type": "t_mapping(t_uint256,t_uint256)"
          },
          {
            "astId": 20941,
            "contract": "contracts/facets/Bond/StakingFacet.sol:StakingFacet",
            "label": "nextEpochTimestamp",
            "offset": 0,
            "slot": "15",
            "type": "t_mapping(t_uint256,t_uint256)"
          },
          {
            "astId": 20945,
            "contract": "contracts/facets/Bond/StakingFacet.sol:StakingFacet",
            "label": "priceFeeds",
            "offset": 0,
            "slot": "16",
            "type": "t_mapping(t_uint256,t_address)"
          },
          {
            "astId": 20949,
            "contract": "contracts/facets/Bond/StakingFacet.sol:StakingFacet",
            "label": "info",
            "offset": 0,
            "slot": "17",
            "type": "t_array(t_struct(Info)20835_storage)dyn_storage"
          },
          {
            "astId": 20954,
            "contract": "contracts/facets/Bond/StakingFacet.sol:StakingFacet",
            "label": "distributorAdjustments",
            "offset": 0,
            "slot": "18",
            "type": "t_mapping(t_uint256,t_struct(DistributorAdjustment)20842_storage)"
          },
          {
            "astId": 20957,
            "contract": "contracts/facets/Bond/StakingFacet.sol:StakingFacet",
            "label": "epoch",
            "offset": 0,
            "slot": "19",
            "type": "t_struct(Epoch)20884_storage"
          },
          {
            "astId": 20959,
            "contract": "contracts/facets/Bond/StakingFacet.sol:StakingFacet",
            "label": "epochLength",
            "offset": 0,
            "slot": "23",
            "type": "t_uint256"
          },
          {
            "astId": 20961,
            "contract": "contracts/facets/Bond/StakingFacet.sol:StakingFacet",
            "label": "distributor",
            "offset": 0,
            "slot": "24",
            "type": "t_address"
          },
          {
            "astId": 20963,
            "contract": "contracts/facets/Bond/StakingFacet.sol:StakingFacet",
            "label": "locker",
            "offset": 0,
            "slot": "25",
            "type": "t_address"
          },
          {
            "astId": 20965,
            "contract": "contracts/facets/Bond/StakingFacet.sol:StakingFacet",
            "label": "warmupPeriod",
            "offset": 0,
            "slot": "26",
            "type": "t_uint256"
          },
          {
            "astId": 20970,
            "contract": "contracts/facets/Bond/StakingFacet.sol:StakingFacet",
            "label": "warmupInfo",
            "offset": 0,
            "slot": "27",
            "type": "t_mapping(t_address,t_struct(Claim)20893_storage)"
          },
          {
            "astId": 20972,
            "contract": "contracts/facets/Bond/StakingFacet.sol:StakingFacet",
            "label": "targetSum",
            "offset": 0,
            "slot": "28",
            "type": "t_uint256"
          },
          {
            "astId": 20978,
            "contract": "contracts/facets/Bond/StakingFacet.sol:StakingFacet",
            "label": "payouts",
            "offset": 0,
            "slot": "29",
            "type": "t_mapping(t_uint256,t_array(t_struct(Payout)20830_storage)dyn_storage)"
          },
          {
            "astId": 20980,
            "contract": "contracts/facets/Bond/StakingFacet.sol:StakingFacet",
            "label": "gonsInWarmup",
            "offset": 0,
            "slot": "30",
            "type": "t_uint256"
          }
        ],
        "numberOfBytes": "992"
      },
      "t_struct(Terms)20857_storage": {
        "encoding": "inplace",
        "label": "struct LibBondStorage.Terms",
        "members": [
          {
            "astId": 20844,
            "contract": "contracts/facets/Bond/StakingFacet.sol:StakingFacet",
            "label": "controlVariable",
            "offset": 0,
            "slot": "0",
            "type": "t_uint256"
          },
          {
            "astId": 20846,
            "contract": "contracts/facets/Bond/StakingFacet.sol:StakingFacet",
            "label": "minimumPrice",
            "offset": 0,
            "slot": "1",
            "type": "t_uint256"
          },
          {
            "astId": 20848,
            "contract": "contracts/facets/Bond/StakingFacet.sol:StakingFacet",
            "label": "maxPayout",
            "offset": 0,
            "slot": "2",
            "type": "t_uint256"
          },
          {
            "astId": 20850,
            "contract": "contracts/facets/Bond/StakingFacet.sol:StakingFacet",
            "label": "fee",
            "offset": 0,
            "slot": "3",
            "type": "t_uint256"
          },
          {
            "astId": 20852,
            "contract": "contracts/facets/Bond/StakingFacet.sol:StakingFacet",
            "label": "maxDebt",
            "offset": 0,
            "slot": "4",
            "type": "t_uint256"
          },
          {
            "astId": 20854,
            "contract": "contracts/facets/Bond/StakingFacet.sol:StakingFacet",
            "label": "vestingTerm",
            "offset": 0,
            "slot": "5",
            "type": "t_uint256"
          },
          {
            "astId": 20856,
            "contract": "contracts/facets/Bond/StakingFacet.sol:StakingFacet",
            "label": "isLiquidityBond",
            "offset": 0,
            "slot": "6",
            "type": "t_bool"
          }
        ],
        "numberOfBytes": "224"
      },
      "t_uint256": {
        "encoding": "inplace",
        "label": "uint256",
        "numberOfBytes": "32"
      }
    }
  }
}