{
  "address": "0x248Fb82741C87FF38177B1DcF88599BeE9cc1f0B",
  "abi": [
    {
      "anonymous": false,
      "inputs": [
        {
          "indexed": true,
          "internalType": "enum TreasuryFacet.MANAGING",
          "name": "managing",
          "type": "uint8"
        },
        {
          "indexed": false,
          "internalType": "address",
          "name": "activated",
          "type": "address"
        },
        {
          "indexed": false,
          "internalType": "bool",
          "name": "result",
          "type": "bool"
        }
      ],
      "name": "ChangeActivated",
      "type": "event"
    },
    {
      "anonymous": false,
      "inputs": [
        {
          "indexed": true,
          "internalType": "enum TreasuryFacet.MANAGING",
          "name": "managing",
          "type": "uint8"
        },
        {
          "indexed": false,
          "internalType": "address",
          "name": "queued",
          "type": "address"
        }
      ],
      "name": "ChangeQueued",
      "type": "event"
    },
    {
      "anonymous": false,
      "inputs": [
        {
          "indexed": true,
          "internalType": "address",
          "name": "debtor",
          "type": "address"
        },
        {
          "indexed": true,
          "internalType": "address",
          "name": "token",
          "type": "address"
        },
        {
          "indexed": false,
          "internalType": "uint256",
          "name": "amount",
          "type": "uint256"
        },
        {
          "indexed": false,
          "internalType": "uint256",
          "name": "value",
          "type": "uint256"
        }
      ],
      "name": "CreateDebt",
      "type": "event"
    },
    {
      "anonymous": false,
      "inputs": [
        {
          "indexed": true,
          "internalType": "address",
          "name": "token",
          "type": "address"
        },
        {
          "indexed": false,
          "internalType": "uint256",
          "name": "amount",
          "type": "uint256"
        },
        {
          "indexed": false,
          "internalType": "uint256",
          "name": "value",
          "type": "uint256"
        }
      ],
      "name": "Deposit",
      "type": "event"
    },
    {
      "anonymous": false,
      "inputs": [
        {
          "indexed": true,
          "internalType": "address",
          "name": "debtor",
          "type": "address"
        },
        {
          "indexed": true,
          "internalType": "address",
          "name": "token",
          "type": "address"
        },
        {
          "indexed": false,
          "internalType": "uint256",
          "name": "amount",
          "type": "uint256"
        },
        {
          "indexed": false,
          "internalType": "uint256",
          "name": "value",
          "type": "uint256"
        }
      ],
      "name": "RepayDebt",
      "type": "event"
    },
    {
      "anonymous": false,
      "inputs": [
        {
          "indexed": true,
          "internalType": "uint256",
          "name": "totalReserves",
          "type": "uint256"
        }
      ],
      "name": "ReservesAudited",
      "type": "event"
    },
    {
      "anonymous": false,
      "inputs": [
        {
          "indexed": true,
          "internalType": "address",
          "name": "token",
          "type": "address"
        },
        {
          "indexed": false,
          "internalType": "uint256",
          "name": "amount",
          "type": "uint256"
        }
      ],
      "name": "ReservesManaged",
      "type": "event"
    },
    {
      "anonymous": false,
      "inputs": [
        {
          "indexed": true,
          "internalType": "uint256",
          "name": "totalReserves",
          "type": "uint256"
        }
      ],
      "name": "ReservesUpdated",
      "type": "event"
    },
    {
      "anonymous": false,
      "inputs": [
        {
          "indexed": true,
          "internalType": "address",
          "name": "caller",
          "type": "address"
        },
        {
          "indexed": true,
          "internalType": "address",
          "name": "recipient",
          "type": "address"
        },
        {
          "indexed": false,
          "internalType": "uint256",
          "name": "amount",
          "type": "uint256"
        }
      ],
      "name": "RewardsMinted",
      "type": "event"
    },
    {
      "anonymous": false,
      "inputs": [
        {
          "indexed": true,
          "internalType": "address",
          "name": "token",
          "type": "address"
        },
        {
          "indexed": false,
          "internalType": "uint256",
          "name": "amount",
          "type": "uint256"
        },
        {
          "indexed": false,
          "internalType": "uint256",
          "name": "value",
          "type": "uint256"
        }
      ],
      "name": "Withdrawal",
      "type": "event"
    },
    {
      "inputs": [],
      "name": "auditReserves",
      "outputs": [],
      "stateMutability": "nonpayable",
      "type": "function"
    },
    {
      "inputs": [
        {
          "internalType": "uint256",
          "name": "_amount",
          "type": "uint256"
        },
        {
          "internalType": "address",
          "name": "_token",
          "type": "address"
        },
        {
          "internalType": "uint256",
          "name": "_profit",
          "type": "uint256"
        }
      ],
      "name": "deposit",
      "outputs": [
        {
          "internalType": "uint256",
          "name": "send_",
          "type": "uint256"
        }
      ],
      "stateMutability": "nonpayable",
      "type": "function"
    },
    {
      "inputs": [],
      "name": "excessReserves",
      "outputs": [
        {
          "internalType": "uint256",
          "name": "",
          "type": "uint256"
        }
      ],
      "stateMutability": "view",
      "type": "function"
    },
    {
      "inputs": [
        {
          "internalType": "uint256",
          "name": "_amount",
          "type": "uint256"
        },
        {
          "internalType": "address",
          "name": "_token",
          "type": "address"
        }
      ],
      "name": "incurDebt",
      "outputs": [],
      "stateMutability": "nonpayable",
      "type": "function"
    },
    {
      "inputs": [
        {
          "internalType": "address",
          "name": "_Necc",
          "type": "address"
        },
        {
          "internalType": "address",
          "name": "_nNecc",
          "type": "address"
        },
        {
          "internalType": "address",
          "name": "_NDOL",
          "type": "address"
        },
        {
          "internalType": "uint256",
          "name": "_blocksNeededForQueue",
          "type": "uint256"
        }
      ],
      "name": "initializeTreasury",
      "outputs": [],
      "stateMutability": "nonpayable",
      "type": "function"
    },
    {
      "inputs": [
        {
          "internalType": "address",
          "name": "_token",
          "type": "address"
        },
        {
          "internalType": "uint256",
          "name": "_amount",
          "type": "uint256"
        }
      ],
      "name": "manage",
      "outputs": [],
      "stateMutability": "nonpayable",
      "type": "function"
    },
    {
      "inputs": [
        {
          "internalType": "address",
          "name": "_recipient",
          "type": "address"
        },
        {
          "internalType": "uint256",
          "name": "_amount",
          "type": "uint256"
        }
      ],
      "name": "mintRewards",
      "outputs": [],
      "stateMutability": "nonpayable",
      "type": "function"
    },
    {
      "inputs": [
        {
          "internalType": "enum TreasuryFacet.MANAGING",
          "name": "_managing",
          "type": "uint8"
        },
        {
          "internalType": "address",
          "name": "_address",
          "type": "address"
        }
      ],
      "name": "queue",
      "outputs": [
        {
          "internalType": "bool",
          "name": "",
          "type": "bool"
        }
      ],
      "stateMutability": "nonpayable",
      "type": "function"
    },
    {
      "inputs": [
        {
          "internalType": "uint256",
          "name": "_amount",
          "type": "uint256"
        }
      ],
      "name": "repayDebtWithNecc",
      "outputs": [],
      "stateMutability": "nonpayable",
      "type": "function"
    },
    {
      "inputs": [
        {
          "internalType": "uint256",
          "name": "_amount",
          "type": "uint256"
        },
        {
          "internalType": "address",
          "name": "_token",
          "type": "address"
        }
      ],
      "name": "repayDebtWithReserve",
      "outputs": [],
      "stateMutability": "nonpayable",
      "type": "function"
    },
    {
      "inputs": [
        {
          "internalType": "enum TreasuryFacet.MANAGING",
          "name": "_managing",
          "type": "uint8"
        },
        {
          "internalType": "address",
          "name": "_address",
          "type": "address"
        }
      ],
      "name": "toggle",
      "outputs": [
        {
          "internalType": "bool",
          "name": "",
          "type": "bool"
        }
      ],
      "stateMutability": "nonpayable",
      "type": "function"
    },
    {
      "inputs": [
        {
          "internalType": "address",
          "name": "_token",
          "type": "address"
        },
        {
          "internalType": "uint256",
          "name": "_amount",
          "type": "uint256"
        }
      ],
      "name": "valueOfToken",
      "outputs": [
        {
          "internalType": "uint256",
          "name": "_value",
          "type": "uint256"
        }
      ],
      "stateMutability": "view",
      "type": "function"
    },
    {
      "inputs": [
        {
          "internalType": "uint256",
          "name": "_amount",
          "type": "uint256"
        },
        {
          "internalType": "address",
          "name": "_token",
          "type": "address"
        }
      ],
      "name": "withdraw",
      "outputs": [],
      "stateMutability": "nonpayable",
      "type": "function"
    }
  ],
  "transactionHash": "0x2b24a01d96d9a9ae10c5f6c9de36c7b0b09064f6841e0f783383c3a5ccdd0e24",
  "args": [],
  "solcInputHash": "f711853f742528c82491f9fe84f0ad9b",
  "bytecode": "0x608060405234801561001057600080fd5b50614b55806100206000396000f3fe608060405234801561001057600080fd5b50600436106100ce5760003560e01c80637823f58e1161008c578063d1b317e511610066578063d1b317e5146101d3578063d5e8be0d14610203578063d796ffb814610233578063e83afee31461024f576100ce565b80637823f58e1461016b578063bc157ac114610187578063cad9311e146101b7576100ce565b8062f714ce146100d35780630b0eee30146100ef5780630c3513a81461010b57806312422d23146101295780632b7ce500146101455780636a20de921461014f575b600080fd5b6100ed60048036038101906100e89190613e21565b61027f565b005b61010960048036038101906101049190613e61565b610516565b005b6101136107b8565b6040516101209190613eb0565b60405180910390f35b610143600480360381019061013e9190613e21565b610880565b005b61014d610ce6565b005b61016960048036038101906101649190613e61565b610fda565b005b61018560048036038101906101809190613ecb565b6111ad565b005b6101a1600480360381019061019c9190613f32565b611381565b6040516101ae9190613eb0565b60405180910390f35b6101d160048036038101906101cc9190613f85565b61176d565b005b6101ed60048036038101906101e89190613e61565b6119d7565b6040516101fa9190613eb0565b60405180910390f35b61021d60048036038101906102189190613fd7565b611c4c565b60405161022a9190614032565b60405180910390f35b61024d60048036038101906102489190613e21565b612dc3565b005b61026960048036038101906102649190613fd7565b613097565b6040516102769190614032565b60405180910390f35b600060080160008273ffffffffffffffffffffffffffffffffffffffff1673ffffffffffffffffffffffffffffffffffffffff16815260200190815260200160002060009054906101000a900460ff1661030e576040517f08c379a0000000000000000000000000000000000000000000000000000000008152600401610305906140aa565b60405180910390fd5b600115156000600e0160003373ffffffffffffffffffffffffffffffffffffffff1673ffffffffffffffffffffffffffffffffffffffff16815260200190815260200160002060009054906101000a900460ff161515146103a4576040517f08c379a000000000000000000000000000000000000000000000000000000000815260040161039b90614116565b60405180910390fd5b60006103b082846119d7565b90506000800160009054906101000a900473ffffffffffffffffffffffffffffffffffffffff1673ffffffffffffffffffffffffffffffffffffffff166379cc679033836040518363ffffffff1660e01b8152600401610411929190614145565b600060405180830381600087803b15801561042b57600080fd5b505af115801561043f573d6000803e3d6000fd5b5050505061045b816000600601546136ca90919063ffffffff16565b6000600601819055506000600601547f93bb8edd35984706eee1b92541281f7f62d33c01c5b2ec0929a113603bd21d6660405160405180910390a26104c133848473ffffffffffffffffffffffffffffffffffffffff166136e09092919063ffffffff16565b8173ffffffffffffffffffffffffffffffffffffffff167fdf273cb619d95419a9cd0ec88123a0538c85064229baa6363788f743fff90deb848360405161050992919061416e565b60405180910390a2505050565b600060110160008373ffffffffffffffffffffffffffffffffffffffff1673ffffffffffffffffffffffffffffffffffffffff16815260200190815260200160002060009054906101000a900460ff16156105ff576000601a0160003373ffffffffffffffffffffffffffffffffffffffff1673ffffffffffffffffffffffffffffffffffffffff16815260200190815260200160002060009054906101000a900460ff166105fa576040517f08c379a00000000000000000000000000000000000000000000000000000000081526004016105f190614116565b60405180910390fd5b61068f565b600060170160003373ffffffffffffffffffffffffffffffffffffffff1673ffffffffffffffffffffffffffffffffffffffff16815260200190815260200160002060009054906101000a900460ff1661068e576040517f08c379a000000000000000000000000000000000000000000000000000000000815260040161068590614116565b60405180910390fd5b5b600061069b83836119d7565b90506106a56107b8565b8111156106e7576040517f08c379a00000000000000000000000000000000000000000000000000000000081526004016106de906141e3565b60405180910390fd5b6106ff816000600601546136ca90919063ffffffff16565b6000600601819055506000600601547f93bb8edd35984706eee1b92541281f7f62d33c01c5b2ec0929a113603bd21d6660405160405180910390a261076533838573ffffffffffffffffffffffffffffffffffffffff166136e09092919063ffffffff16565b8273ffffffffffffffffffffffffffffffffffffffff167f2bb2640731848fe9820ba48dbc978c1fc9bbd5f11b948bfab05b7dee3378fd80836040516107ab9190613eb0565b60405180910390a2505050565b600061087b6108676000600701546000800160009054906101000a900473ffffffffffffffffffffffffffffffffffffffff1673ffffffffffffffffffffffffffffffffffffffff166318160ddd6040518163ffffffff1660e01b8152600401602060405180830381865afa158015610835573d6000803e3d6000fd5b505050506040513d601f19601f820116820180604052508101906108599190614218565b6136ca90919063ffffffff16565b6000600601546136ca90919063ffffffff16565b905090565b6000601d0160003373ffffffffffffffffffffffffffffffffffffffff1673ffffffffffffffffffffffffffffffffffffffff16815260200190815260200160002060009054906101000a900460ff1661090f576040517f08c379a000000000000000000000000000000000000000000000000000000000815260040161090690614116565b60405180910390fd5b600060080160008273ffffffffffffffffffffffffffffffffffffffff1673ffffffffffffffffffffffffffffffffffffffff16815260200190815260200160002060009054906101000a900460ff1661099e576040517f08c379a0000000000000000000000000000000000000000000000000000000008152600401610995906140aa565b60405180910390fd5b60006109aa82846119d7565b905060008060020160009054906101000a900473ffffffffffffffffffffffffffffffffffffffff1673ffffffffffffffffffffffffffffffffffffffff166370a08231336040518263ffffffff1660e01b8152600401610a0b9190614245565b602060405180830381865afa158015610a28573d6000803e3d6000fd5b505050506040513d601f19601f82011682018060405250810190610a4c9190614218565b90506000610aa56000601f0160003373ffffffffffffffffffffffffffffffffffffffff1673ffffffffffffffffffffffffffffffffffffffff16815260200190815260200160002054836136ca90919063ffffffff16565b905080831115610aea576040517f08c379a0000000000000000000000000000000000000000000000000000000008152600401610ae1906142ac565b60405180910390fd5b610b3f836000601f0160003373ffffffffffffffffffffffffffffffffffffffff1673ffffffffffffffffffffffffffffffffffffffff1681526020019081526020016000205461376690919063ffffffff16565b6000601f0160003373ffffffffffffffffffffffffffffffffffffffff1673ffffffffffffffffffffffffffffffffffffffff16815260200190815260200160002081905550610b9d8360006007015461376690919063ffffffff16565b600060070181905550610bbe836000600601546136ca90919063ffffffff16565b6000600601819055506000600601547f93bb8edd35984706eee1b92541281f7f62d33c01c5b2ec0929a113603bd21d6660405160405180910390a28373ffffffffffffffffffffffffffffffffffffffff1663a9059cbb33876040518363ffffffff1660e01b8152600401610c34929190614145565b6020604051808303816000875af1158015610c53573d6000803e3d6000fd5b505050506040513d601f19601f82011682018060405250810190610c7791906142f8565b508373ffffffffffffffffffffffffffffffffffffffff163373ffffffffffffffffffffffffffffffffffffffff167f7e1a939bed137a819b5d2979822c67f877689f7a863d5e4cb57cdca97b2977d68786604051610cd792919061416e565b60405180910390a35050505050565b610cee61377c565b600080600090505b600060040180549050811015610e3257610e1d610e0e60006004018381548110610d2357610d22614325565b5b9060005260206000200160009054906101000a900473ffffffffffffffffffffffffffffffffffffffff1660006004018481548110610d6557610d64614325565b5b9060005260206000200160009054906101000a900473ffffffffffffffffffffffffffffffffffffffff1673ffffffffffffffffffffffffffffffffffffffff166370a08231306040518263ffffffff1660e01b8152600401610dc89190614245565b602060405180830381865afa158015610de5573d6000803e3d6000fd5b505050506040513d601f19601f82011682018060405250810190610e099190614218565b6119d7565b8361376690919063ffffffff16565b91508080610e2a90614383565b915050610cf6565b5060005b600060100180549050811015610f7257610f5d610f4e60006010018381548110610e6357610e62614325565b5b9060005260206000200160009054906101000a900473ffffffffffffffffffffffffffffffffffffffff1660006010018481548110610ea557610ea4614325565b5b9060005260206000200160009054906101000a900473ffffffffffffffffffffffffffffffffffffffff1673ffffffffffffffffffffffffffffffffffffffff166370a08231306040518263ffffffff1660e01b8152600401610f089190614245565b602060405180830381865afa158015610f25573d6000803e3d6000fd5b505050506040513d601f19601f82011682018060405250810190610f499190614218565b6119d7565b8361376690919063ffffffff16565b91508080610f6a90614383565b915050610e36565b5080600060060181905550807f93bb8edd35984706eee1b92541281f7f62d33c01c5b2ec0929a113603bd21d6660405160405180910390a2807fec691f09f6924b27932253f85caf99bacc30360cc0e50a1cc4d2acc24601446660405160405180910390a250565b600060210160003373ffffffffffffffffffffffffffffffffffffffff1673ffffffffffffffffffffffffffffffffffffffff16815260200190815260200160002060009054906101000a900460ff16611069576040517f08c379a000000000000000000000000000000000000000000000000000000000815260040161106090614116565b60405180910390fd5b6110716107b8565b8111156110b3576040517f08c379a00000000000000000000000000000000000000000000000000000000081526004016110aa906141e3565b60405180910390fd5b6000800160009054906101000a900473ffffffffffffffffffffffffffffffffffffffff1673ffffffffffffffffffffffffffffffffffffffff166340c10f1983836040518363ffffffff1660e01b8152600401611112929190614145565b600060405180830381600087803b15801561112c57600080fd5b505af1158015611140573d6000803e3d6000fd5b505050508173ffffffffffffffffffffffffffffffffffffffff163373ffffffffffffffffffffffffffffffffffffffff167ffa8ccab40e7da8146c2304cd0950334fd30a6ba093abe86261aa13911fed849c836040516111a19190613eb0565b60405180910390a35050565b6111b561377c565b600073ffffffffffffffffffffffffffffffffffffffff168473ffffffffffffffffffffffffffffffffffffffff1614156111ef57600080fd5b600073ffffffffffffffffffffffffffffffffffffffff168373ffffffffffffffffffffffffffffffffffffffff16141561122957600080fd5b82600060010160006101000a81548173ffffffffffffffffffffffffffffffffffffffff021916908373ffffffffffffffffffffffffffffffffffffffff160217905550836000800160006101000a81548173ffffffffffffffffffffffffffffffffffffffff021916908373ffffffffffffffffffffffffffffffffffffffff1602179055506001600060080160008473ffffffffffffffffffffffffffffffffffffffff1673ffffffffffffffffffffffffffffffffffffffff16815260200190815260200160002060006101000a81548160ff0219169083151502179055506000600401829080600181540180825580915050600190039060005260206000200160009091909190916101000a81548173ffffffffffffffffffffffffffffffffffffffff021916908373ffffffffffffffffffffffffffffffffffffffff1602179055508060006003018190555050505050565b60008060080160008473ffffffffffffffffffffffffffffffffffffffff1673ffffffffffffffffffffffffffffffffffffffff16815260200190815260200160002060009054906101000a900460ff16806114295750600060110160008473ffffffffffffffffffffffffffffffffffffffff1673ffffffffffffffffffffffffffffffffffffffff16815260200190815260200160002060009054906101000a900460ff165b611468576040517f08c379a000000000000000000000000000000000000000000000000000000000815260040161145f906140aa565b60405180910390fd5b6114953330868673ffffffffffffffffffffffffffffffffffffffff16613786909392919063ffffffff16565b600060080160008473ffffffffffffffffffffffffffffffffffffffff1673ffffffffffffffffffffffffffffffffffffffff16815260200190815260200160002060009054906101000a900460ff161561157e576000600b0160003373ffffffffffffffffffffffffffffffffffffffff1673ffffffffffffffffffffffffffffffffffffffff16815260200190815260200160002060009054906101000a900460ff16611579576040517f08c379a000000000000000000000000000000000000000000000000000000000815260040161157090614116565b60405180910390fd5b61160e565b600060140160003373ffffffffffffffffffffffffffffffffffffffff1673ffffffffffffffffffffffffffffffffffffffff16815260200190815260200160002060009054906101000a900460ff1661160d576040517f08c379a000000000000000000000000000000000000000000000000000000000815260040161160490614116565b60405180910390fd5b5b600061161a84866119d7565b905061162f83826136ca90919063ffffffff16565b91506000800160009054906101000a900473ffffffffffffffffffffffffffffffffffffffff1673ffffffffffffffffffffffffffffffffffffffff166340c10f1933846040518363ffffffff1660e01b8152600401611690929190614145565b600060405180830381600087803b1580156116aa57600080fd5b505af11580156116be573d6000803e3d6000fd5b505050506116da8160006006015461376690919063ffffffff16565b6000600601819055506000600601547f93bb8edd35984706eee1b92541281f7f62d33c01c5b2ec0929a113603bd21d6660405160405180910390a28373ffffffffffffffffffffffffffffffffffffffff167f90890809c654f11d6e72a28fa60149770a0d11ec6c92319d6ceb2bb0a4ea1a15868360405161175d92919061416e565b60405180910390a2509392505050565b6000601d0160003373ffffffffffffffffffffffffffffffffffffffff1673ffffffffffffffffffffffffffffffffffffffff16815260200190815260200160002060009054906101000a900460ff166117fc576040517f08c379a00000000000000000000000000000000000000000000000000000000081526004016117f390614116565b60405180910390fd5b6000800160009054906101000a900473ffffffffffffffffffffffffffffffffffffffff1673ffffffffffffffffffffffffffffffffffffffff166379cc679033836040518363ffffffff1660e01b815260040161185b929190614145565b600060405180830381600087803b15801561187557600080fd5b505af1158015611889573d6000803e3d6000fd5b505050506118e2816000601f0160003373ffffffffffffffffffffffffffffffffffffffff1673ffffffffffffffffffffffffffffffffffffffff168152602001908152602001600020546136ca90919063ffffffff16565b6000601f0160003373ffffffffffffffffffffffffffffffffffffffff1673ffffffffffffffffffffffffffffffffffffffff16815260200190815260200160002081905550611940816000600701546136ca90919063ffffffff16565b6000600701819055506000800160009054906101000a900473ffffffffffffffffffffffffffffffffffffffff1673ffffffffffffffffffffffffffffffffffffffff163373ffffffffffffffffffffffffffffffffffffffff167fc6d98eecfc9c78ab62c89a82950079b54874749f1f6f24090f7acc758bc2f30983846040516119cc92919061416e565b60405180910390a350565b60008060080160008473ffffffffffffffffffffffffffffffffffffffff1673ffffffffffffffffffffffffffffffffffffffff16815260200190815260200160002060009054906101000a900460ff1615611b7157611b6a8373ffffffffffffffffffffffffffffffffffffffff1663313ce5676040518163ffffffff1660e01b8152600401602060405180830381865afa158015611a7b573d6000803e3d6000fd5b505050506040513d601f19601f82011682018060405250810190611a9f9190614218565b600a611aab91906144ff565b611b5c6000800160009054906101000a900473ffffffffffffffffffffffffffffffffffffffff1673ffffffffffffffffffffffffffffffffffffffff1663313ce5676040518163ffffffff1660e01b8152600401602060405180830381865afa158015611b1d573d6000803e3d6000fd5b505050506040513d601f19601f82011682018060405250810190611b419190614218565b600a611b4d91906144ff565b8561380f90919063ffffffff16565b61382590919063ffffffff16565b9050611c46565b600060110160008473ffffffffffffffffffffffffffffffffffffffff1673ffffffffffffffffffffffffffffffffffffffff16815260200190815260200160002060009054906101000a900460ff1615611c45573073ffffffffffffffffffffffffffffffffffffffff16634249719f84846040518363ffffffff1660e01b8152600401611c01929190614145565b602060405180830381865afa158015611c1e573d6000803e3d6000fd5b505050506040513d601f19601f82011682018060405250810190611c429190614218565b90505b5b92915050565b6000611c5661377c565b600073ffffffffffffffffffffffffffffffffffffffff168273ffffffffffffffffffffffffffffffffffffffff161415611c9057600080fd5b6000806009811115611ca557611ca461454a565b5b846009811115611cb857611cb761454a565b5b1415611e4957611cd16000600c016000600b018561383b565b15611d9757600080600c0160008573ffffffffffffffffffffffffffffffffffffffff1673ffffffffffffffffffffffffffffffffffffffff16815260200190815260200160002081905550611d2b6000600a01846139a5565b611d96576000600a01839080600181540180825580915050600190039060005260206000200160009091909190916101000a81548173ffffffffffffffffffffffffffffffffffffffff021916908373ffffffffffffffffffffffffffffffffffffffff1602179055505b5b6000600b0160008473ffffffffffffffffffffffffffffffffffffffff1673ffffffffffffffffffffffffffffffffffffffff16815260200190815260200160002060009054906101000a900460ff16159050806000600b0160008573ffffffffffffffffffffffffffffffffffffffff1673ffffffffffffffffffffffffffffffffffffffff16815260200190815260200160002060006101000a81548160ff021916908315150217905550612d6b565b60016009811115611e5d57611e5c61454a565b5b846009811115611e7057611e6f61454a565b5b141561200157611e896000600f016000600e018561383b565b15611f4f57600080600f0160008573ffffffffffffffffffffffffffffffffffffffff1673ffffffffffffffffffffffffffffffffffffffff16815260200190815260200160002081905550611ee36000600d01846139a5565b611f4e576000600d01839080600181540180825580915050600190039060005260206000200160009091909190916101000a81548173ffffffffffffffffffffffffffffffffffffffff021916908373ffffffffffffffffffffffffffffffffffffffff1602179055505b5b6000600e0160008473ffffffffffffffffffffffffffffffffffffffff1673ffffffffffffffffffffffffffffffffffffffff16815260200190815260200160002060009054906101000a900460ff16159050806000600e0160008573ffffffffffffffffffffffffffffffffffffffff1673ffffffffffffffffffffffffffffffffffffffff16815260200190815260200160002060006101000a81548160ff021916908315150217905550612d6a565b600260098111156120155761201461454a565b5b8460098111156120285761202761454a565b5b14156121b957612041600060090160006008018561383b565b156121075760008060090160008573ffffffffffffffffffffffffffffffffffffffff1673ffffffffffffffffffffffffffffffffffffffff1681526020019081526020016000208190555061209b6000600401846139a5565b612106576000600401839080600181540180825580915050600190039060005260206000200160009091909190916101000a81548173ffffffffffffffffffffffffffffffffffffffff021916908373ffffffffffffffffffffffffffffffffffffffff1602179055505b5b600060080160008473ffffffffffffffffffffffffffffffffffffffff1673ffffffffffffffffffffffffffffffffffffffff16815260200190815260200160002060009054906101000a900460ff1615905080600060080160008573ffffffffffffffffffffffffffffffffffffffff1673ffffffffffffffffffffffffffffffffffffffff16815260200190815260200160002060006101000a81548160ff021916908315150217905550612d69565b600360098111156121cd576121cc61454a565b5b8460098111156121e0576121df61454a565b5b14156123d7576121f9600060180160006017018561383b565b15612325576000601601839080600181540180825580915050600190039060005260206000200160009091909190916101000a81548173ffffffffffffffffffffffffffffffffffffffff021916908373ffffffffffffffffffffffffffffffffffffffff16021790555060008060180160008573ffffffffffffffffffffffffffffffffffffffff1673ffffffffffffffffffffffffffffffffffffffff168152602001908152602001600020819055506122b96000601601846139a5565b612324576000601601839080600181540180825580915050600190039060005260206000200160009091909190916101000a81548173ffffffffffffffffffffffffffffffffffffffff021916908373ffffffffffffffffffffffffffffffffffffffff1602179055505b5b600060170160008473ffffffffffffffffffffffffffffffffffffffff1673ffffffffffffffffffffffffffffffffffffffff16815260200190815260200160002060009054906101000a900460ff1615905080600060170160008573ffffffffffffffffffffffffffffffffffffffff1673ffffffffffffffffffffffffffffffffffffffff16815260200190815260200160002060006101000a81548160ff021916908315150217905550612d68565b600460098111156123eb576123ea61454a565b5b8460098111156123fe576123fd61454a565b5b14156125f557612417600060150160006014018561383b565b15612543576000601301839080600181540180825580915050600190039060005260206000200160009091909190916101000a81548173ffffffffffffffffffffffffffffffffffffffff021916908373ffffffffffffffffffffffffffffffffffffffff16021790555060008060150160008573ffffffffffffffffffffffffffffffffffffffff1673ffffffffffffffffffffffffffffffffffffffff168152602001908152602001600020819055506124d76000601301846139a5565b612542576000601301839080600181540180825580915050600190039060005260206000200160009091909190916101000a81548173ffffffffffffffffffffffffffffffffffffffff021916908373ffffffffffffffffffffffffffffffffffffffff1602179055505b5b600060140160008473ffffffffffffffffffffffffffffffffffffffff1673ffffffffffffffffffffffffffffffffffffffff16815260200190815260200160002060009054906101000a900460ff1615905080600060140160008573ffffffffffffffffffffffffffffffffffffffff1673ffffffffffffffffffffffffffffffffffffffff16815260200190815260200160002060006101000a81548160ff021916908315150217905550612d67565b600560098111156126095761260861454a565b5b84600981111561261c5761261b61454a565b5b14156127ad57612635600060120160006011018561383b565b156126fb5760008060120160008573ffffffffffffffffffffffffffffffffffffffff1673ffffffffffffffffffffffffffffffffffffffff1681526020019081526020016000208190555061268f6000601001846139a5565b6126fa576000601001839080600181540180825580915050600190039060005260206000200160009091909190916101000a81548173ffffffffffffffffffffffffffffffffffffffff021916908373ffffffffffffffffffffffffffffffffffffffff1602179055505b5b600060110160008473ffffffffffffffffffffffffffffffffffffffff1673ffffffffffffffffffffffffffffffffffffffff16815260200190815260200160002060009054906101000a900460ff1615905080600060110160008573ffffffffffffffffffffffffffffffffffffffff1673ffffffffffffffffffffffffffffffffffffffff16815260200190815260200160002060006101000a81548160ff021916908315150217905550612d66565b600660098111156127c1576127c061454a565b5b8460098111156127d4576127d361454a565b5b1415612965576127ed6000601b016000601a018561383b565b156128b357600080601b0160008573ffffffffffffffffffffffffffffffffffffffff1673ffffffffffffffffffffffffffffffffffffffff168152602001908152602001600020819055506128476000601901846139a5565b6128b2576000601901839080600181540180825580915050600190039060005260206000200160009091909190916101000a81548173ffffffffffffffffffffffffffffffffffffffff021916908373ffffffffffffffffffffffffffffffffffffffff1602179055505b5b6000601a0160008473ffffffffffffffffffffffffffffffffffffffff1673ffffffffffffffffffffffffffffffffffffffff16815260200190815260200160002060009054906101000a900460ff16159050806000601a0160008573ffffffffffffffffffffffffffffffffffffffff1673ffffffffffffffffffffffffffffffffffffffff16815260200190815260200160002060006101000a81548160ff021916908315150217905550612d65565b600760098111156129795761297861454a565b5b84600981111561298c5761298b61454a565b5b1415612b1d576129a56000601e016000601d018561383b565b15612a6b57600080601e0160008573ffffffffffffffffffffffffffffffffffffffff1673ffffffffffffffffffffffffffffffffffffffff168152602001908152602001600020819055506129ff6000601c01846139a5565b612a6a576000601c01839080600181540180825580915050600190039060005260206000200160009091909190916101000a81548173ffffffffffffffffffffffffffffffffffffffff021916908373ffffffffffffffffffffffffffffffffffffffff1602179055505b5b6000601d0160008473ffffffffffffffffffffffffffffffffffffffff1673ffffffffffffffffffffffffffffffffffffffff16815260200190815260200160002060009054906101000a900460ff16159050806000601d0160008573ffffffffffffffffffffffffffffffffffffffff1673ffffffffffffffffffffffffffffffffffffffff16815260200190815260200160002060006101000a81548160ff021916908315150217905550612d64565b60086009811115612b3157612b3061454a565b5b846009811115612b4457612b4361454a565b5b1415612cd557612b5d600060220160006021018561383b565b15612c235760008060220160008573ffffffffffffffffffffffffffffffffffffffff1673ffffffffffffffffffffffffffffffffffffffff16815260200190815260200160002081905550612bb76000602001846139a5565b612c22576000602001839080600181540180825580915050600190039060005260206000200160009091909190916101000a81548173ffffffffffffffffffffffffffffffffffffffff021916908373ffffffffffffffffffffffffffffffffffffffff1602179055505b5b600060210160008473ffffffffffffffffffffffffffffffffffffffff1673ffffffffffffffffffffffffffffffffffffffff16815260200190815260200160002060009054906101000a900460ff1615905080600060210160008573ffffffffffffffffffffffffffffffffffffffff1673ffffffffffffffffffffffffffffffffffffffff16815260200190815260200160002060006101000a81548160ff021916908315150217905550612d63565b600980811115612ce857612ce761454a565b5b846009811115612cfb57612cfa61454a565b5b1415612d58576000806005018190555082600060020160006101000a81548173ffffffffffffffffffffffffffffffffffffffff021916908373ffffffffffffffffffffffffffffffffffffffff16021790555060019050612d62565b6000915050612dbd565b5b5b5b5b5b5b5b5b5b836009811115612d7e57612d7d61454a565b5b7f0dcacb7e392f3d6a216ed2660e3dcfd40b7793d33591db2ba185a6b8e44fc4778483604051612daf929190614579565b60405180910390a260019150505b92915050565b6000601d0160003373ffffffffffffffffffffffffffffffffffffffff1673ffffffffffffffffffffffffffffffffffffffff16815260200190815260200160002060009054906101000a900460ff16612e52576040517f08c379a0000000000000000000000000000000000000000000000000000000008152600401612e4990614116565b60405180910390fd5b600060080160008273ffffffffffffffffffffffffffffffffffffffff1673ffffffffffffffffffffffffffffffffffffffff16815260200190815260200160002060009054906101000a900460ff16612ee1576040517f08c379a0000000000000000000000000000000000000000000000000000000008152600401612ed8906140aa565b60405180910390fd5b612f0e3330848473ffffffffffffffffffffffffffffffffffffffff16613786909392919063ffffffff16565b6000612f1a82846119d7565b9050612f71816000601f0160003373ffffffffffffffffffffffffffffffffffffffff1673ffffffffffffffffffffffffffffffffffffffff168152602001908152602001600020546136ca90919063ffffffff16565b6000601f0160003373ffffffffffffffffffffffffffffffffffffffff1673ffffffffffffffffffffffffffffffffffffffff16815260200190815260200160002081905550612fcf816000600701546136ca90919063ffffffff16565b600060070181905550612ff08160006006015461376690919063ffffffff16565b6000600601819055506000600601547f93bb8edd35984706eee1b92541281f7f62d33c01c5b2ec0929a113603bd21d6660405160405180910390a28173ffffffffffffffffffffffffffffffffffffffff163373ffffffffffffffffffffffffffffffffffffffff167fc6d98eecfc9c78ab62c89a82950079b54874749f1f6f24090f7acc758bc2f309858460405161308a92919061416e565b60405180910390a3505050565b60006130a161377c565b600073ffffffffffffffffffffffffffffffffffffffff168273ffffffffffffffffffffffffffffffffffffffff1614156130db57600080fd5b600060098111156130ef576130ee61454a565b5b8360098111156131025761310161454a565b5b141561316b576131206000600301544361376690919063ffffffff16565b6000600c0160008473ffffffffffffffffffffffffffffffffffffffff1673ffffffffffffffffffffffffffffffffffffffff16815260200190815260200160002081905550613675565b6001600981111561317f5761317e61454a565b5b8360098111156131925761319161454a565b5b14156131fb576131b06000600301544361376690919063ffffffff16565b6000600f0160008473ffffffffffffffffffffffffffffffffffffffff1673ffffffffffffffffffffffffffffffffffffffff16815260200190815260200160002081905550613674565b6002600981111561320f5761320e61454a565b5b8360098111156132225761322161454a565b5b141561328b576132406000600301544361376690919063ffffffff16565b600060090160008473ffffffffffffffffffffffffffffffffffffffff1673ffffffffffffffffffffffffffffffffffffffff16815260200190815260200160002081905550613673565b6003600981111561329f5761329e61454a565b5b8360098111156132b2576132b161454a565b5b141561332e576132e36132d4600260006003015461380f90919063ffffffff16565b4361376690919063ffffffff16565b600060180160008473ffffffffffffffffffffffffffffffffffffffff1673ffffffffffffffffffffffffffffffffffffffff16815260200190815260200160002081905550613672565b600460098111156133425761334161454a565b5b8360098111156133555761335461454a565b5b14156133be576133736000600301544361376690919063ffffffff16565b600060150160008473ffffffffffffffffffffffffffffffffffffffff1673ffffffffffffffffffffffffffffffffffffffff16815260200190815260200160002081905550613671565b600560098111156133d2576133d161454a565b5b8360098111156133e5576133e461454a565b5b141561344e576134036000600301544361376690919063ffffffff16565b600060120160008473ffffffffffffffffffffffffffffffffffffffff1673ffffffffffffffffffffffffffffffffffffffff16815260200190815260200160002081905550613670565b600660098111156134625761346161454a565b5b8360098111156134755761347461454a565b5b14156134f1576134a6613497600260006003015461380f90919063ffffffff16565b4361376690919063ffffffff16565b6000601b0160008473ffffffffffffffffffffffffffffffffffffffff1673ffffffffffffffffffffffffffffffffffffffff1681526020019081526020016000208190555061366f565b600760098111156135055761350461454a565b5b8360098111156135185761351761454a565b5b1415613581576135366000600301544361376690919063ffffffff16565b6000601e0160008473ffffffffffffffffffffffffffffffffffffffff1673ffffffffffffffffffffffffffffffffffffffff1681526020019081526020016000208190555061366e565b600860098111156135955761359461454a565b5b8360098111156135a8576135a761454a565b5b1415613611576135c66000600301544361376690919063ffffffff16565b600060220160008473ffffffffffffffffffffffffffffffffffffffff1673ffffffffffffffffffffffffffffffffffffffff1681526020019081526020016000208190555061366d565b6009808111156136245761362361454a565b5b8360098111156136375761363661454a565b5b1415613663576136556000600301544361376690919063ffffffff16565b60006005018190555061366c565b600090506136c4565b5b5b5b5b5b5b5b5b5b8260098111156136885761368761454a565b5b7f0e4f2c4b5bc209d509bc3d49348c787fefadc66a79351b470599ac0f5be52eaf836040516136b79190614245565b60405180910390a2600190505b92915050565b600081836136d891906145a2565b905092915050565b6137618363a9059cbb60e01b84846040516024016136ff929190614145565b604051602081830303815290604052907bffffffffffffffffffffffffffffffffffffffffffffffffffffffff19166020820180517bffffffffffffffffffffffffffffffffffffffffffffffffffffffff8381831617835250505050613a53565b505050565b6000818361377491906145d6565b905092915050565b613784613b1a565b565b613809846323b872dd60e01b8585856040516024016137a79392919061462c565b604051602081830303815290604052907bffffffffffffffffffffffffffffffffffffffffffffffffffffffff19166020820180517bffffffffffffffffffffffffffffffffffffffffffffffffffffffff8381831617835250505050613a53565b50505050565b6000818361381d9190614663565b905092915050565b6000818361383391906146ec565b905092915050565b60008260008373ffffffffffffffffffffffffffffffffffffffff1673ffffffffffffffffffffffffffffffffffffffff16815260200190815260200160002060009054906101000a900460ff166139995760008460008473ffffffffffffffffffffffffffffffffffffffff1673ffffffffffffffffffffffffffffffffffffffff16815260200190815260200160002054141561390f576040517f08c379a000000000000000000000000000000000000000000000000000000000815260040161390690614769565b60405180910390fd5b438460008473ffffffffffffffffffffffffffffffffffffffff1673ffffffffffffffffffffffffffffffffffffffff168152602001908152602001600020541115613990576040517f08c379a0000000000000000000000000000000000000000000000000000000008152600401613987906147d5565b60405180910390fd5b6001905061399e565b600090505b9392505050565b600080600090505b8380549050811015613a47578273ffffffffffffffffffffffffffffffffffffffff168482815481106139e3576139e2614325565b5b9060005260206000200160009054906101000a900473ffffffffffffffffffffffffffffffffffffffff1673ffffffffffffffffffffffffffffffffffffffff161415613a34576001915050613a4d565b8080613a3f90614383565b9150506139ad565b50600090505b92915050565b6000613ab5826040518060400160405280602081526020017f5361666545524332303a206c6f772d6c6576656c2063616c6c206661696c65648152508573ffffffffffffffffffffffffffffffffffffffff16613bb59092919063ffffffff16565b9050600081511115613b155780806020019051810190613ad591906142f8565b613b14576040517f08c379a0000000000000000000000000000000000000000000000000000000008152600401613b0b90614867565b60405180910390fd5b5b505050565b613b22613bcd565b60040160009054906101000a900473ffffffffffffffffffffffffffffffffffffffff1673ffffffffffffffffffffffffffffffffffffffff163373ffffffffffffffffffffffffffffffffffffffff1614613bb3576040517f08c379a0000000000000000000000000000000000000000000000000000000008152600401613baa906148f9565b60405180910390fd5b565b6060613bc48484600085613bfa565b90509392505050565b6000807fc8fcad8db84d3cc18b4c41d551ea0ee66dd599cde068d998e57d5e09332c131c90508091505090565b606082471015613c3f576040517f08c379a0000000000000000000000000000000000000000000000000000000008152600401613c369061498b565b60405180910390fd5b613c4885613d0e565b613c87576040517f08c379a0000000000000000000000000000000000000000000000000000000008152600401613c7e906149f7565b60405180910390fd5b6000808673ffffffffffffffffffffffffffffffffffffffff168587604051613cb09190614a91565b60006040518083038185875af1925050503d8060008114613ced576040519150601f19603f3d011682016040523d82523d6000602084013e613cf2565b606091505b5091509150613d02828286613d21565b92505050949350505050565b600080823b905060008111915050919050565b60608315613d3157829050613d81565b600083511115613d445782518084602001fd5b816040517f08c379a0000000000000000000000000000000000000000000000000000000008152600401613d789190614afd565b60405180910390fd5b9392505050565b600080fd5b6000819050919050565b613da081613d8d565b8114613dab57600080fd5b50565b600081359050613dbd81613d97565b92915050565b600073ffffffffffffffffffffffffffffffffffffffff82169050919050565b6000613dee82613dc3565b9050919050565b613dfe81613de3565b8114613e0957600080fd5b50565b600081359050613e1b81613df5565b92915050565b60008060408385031215613e3857613e37613d88565b5b6000613e4685828601613dae565b9250506020613e5785828601613e0c565b9150509250929050565b60008060408385031215613e7857613e77613d88565b5b6000613e8685828601613e0c565b9250506020613e9785828601613dae565b9150509250929050565b613eaa81613d8d565b82525050565b6000602082019050613ec56000830184613ea1565b92915050565b60008060008060808587031215613ee557613ee4613d88565b5b6000613ef387828801613e0c565b9450506020613f0487828801613e0c565b9350506040613f1587828801613e0c565b9250506060613f2687828801613dae565b91505092959194509250565b600080600060608486031215613f4b57613f4a613d88565b5b6000613f5986828701613dae565b9350506020613f6a86828701613e0c565b9250506040613f7b86828701613dae565b9150509250925092565b600060208284031215613f9b57613f9a613d88565b5b6000613fa984828501613dae565b91505092915050565b600a8110613fbf57600080fd5b50565b600081359050613fd181613fb2565b92915050565b60008060408385031215613fee57613fed613d88565b5b6000613ffc85828601613fc2565b925050602061400d85828601613e0c565b9150509250929050565b60008115159050919050565b61402c81614017565b82525050565b60006020820190506140476000830184614023565b92915050565b600082825260208201905092915050565b7f54726561737572793a204e6f7420616363657074656400000000000000000000600082015250565b600061409460168361404d565b915061409f8261405e565b602082019050919050565b600060208201905081810360008301526140c381614087565b9050919050565b7f54726561737572793a204e6f7420617070726f76656400000000000000000000600082015250565b600061410060168361404d565b915061410b826140ca565b602082019050919050565b6000602082019050818103600083015261412f816140f3565b9050919050565b61413f81613de3565b82525050565b600060408201905061415a6000830185614136565b6141676020830184613ea1565b9392505050565b60006040820190506141836000830185613ea1565b6141906020830184613ea1565b9392505050565b7f54726561737572793a20496e73756666696369656e7420726573657276657300600082015250565b60006141cd601f8361404d565b91506141d882614197565b602082019050919050565b600060208201905081810360008301526141fc816141c0565b9050919050565b60008151905061421281613d97565b92915050565b60006020828403121561422e5761422d613d88565b5b600061423c84828501614203565b91505092915050565b600060208201905061425a6000830184614136565b92915050565b7f457863656564732064656274206c696d69740000000000000000000000000000600082015250565b600061429660128361404d565b91506142a182614260565b602082019050919050565b600060208201905081810360008301526142c581614289565b9050919050565b6142d581614017565b81146142e057600080fd5b50565b6000815190506142f2816142cc565b92915050565b60006020828403121561430e5761430d613d88565b5b600061431c848285016142e3565b91505092915050565b7f4e487b7100000000000000000000000000000000000000000000000000000000600052603260045260246000fd5b7f4e487b7100000000000000000000000000000000000000000000000000000000600052601160045260246000fd5b600061438e82613d8d565b91507fffffffffffffffffffffffffffffffffffffffffffffffffffffffffffffffff8214156143c1576143c0614354565b5b600182019050919050565b60008160011c9050919050565b6000808291508390505b6001851115614423578086048111156143ff576143fe614354565b5b600185161561440e5780820291505b808102905061441c856143cc565b94506143e3565b94509492505050565b60008261443c57600190506144f8565b8161444a57600090506144f8565b8160018114614460576002811461446a57614499565b60019150506144f8565b60ff84111561447c5761447b614354565b5b8360020a91508482111561449357614492614354565b5b506144f8565b5060208310610133831016604e8410600b84101617156144ce5782820a9050838111156144c9576144c8614354565b5b6144f8565b6144db84848460016143d9565b925090508184048111156144f2576144f1614354565b5b81810290505b9392505050565b600061450a82613d8d565b915061451583613d8d565b92506145427fffffffffffffffffffffffffffffffffffffffffffffffffffffffffffffffff848461442c565b905092915050565b7f4e487b7100000000000000000000000000000000000000000000000000000000600052602160045260246000fd5b600060408201905061458e6000830185614136565b61459b6020830184614023565b9392505050565b60006145ad82613d8d565b91506145b883613d8d565b9250828210156145cb576145ca614354565b5b828203905092915050565b60006145e182613d8d565b91506145ec83613d8d565b9250827fffffffffffffffffffffffffffffffffffffffffffffffffffffffffffffffff0382111561462157614620614354565b5b828201905092915050565b60006060820190506146416000830186614136565b61464e6020830185614136565b61465b6040830184613ea1565b949350505050565b600061466e82613d8d565b915061467983613d8d565b9250817fffffffffffffffffffffffffffffffffffffffffffffffffffffffffffffffff04831182151516156146b2576146b1614354565b5b828202905092915050565b7f4e487b7100000000000000000000000000000000000000000000000000000000600052601260045260246000fd5b60006146f782613d8d565b915061470283613d8d565b925082614712576147116146bd565b5b828204905092915050565b7f4d75737420717565756500000000000000000000000000000000000000000000600082015250565b6000614753600a8361404d565b915061475e8261471d565b602082019050919050565b6000602082019050818103600083015261478281614746565b9050919050565b7f5175657565206e6f742065787069726564000000000000000000000000000000600082015250565b60006147bf60118361404d565b91506147ca82614789565b602082019050919050565b600060208201905081810360008301526147ee816147b2565b9050919050565b7f5361666545524332303a204552433230206f7065726174696f6e20646964206e60008201527f6f74207375636365656400000000000000000000000000000000000000000000602082015250565b6000614851602a8361404d565b915061485c826147f5565b604082019050919050565b6000602082019050818103600083015261488081614844565b9050919050565b7f4c69624469616d6f6e643a20696e76616c696420636f6e7472616374206f776e60008201527f6572000000000000000000000000000000000000000000000000000000000000602082015250565b60006148e360228361404d565b91506148ee82614887565b604082019050919050565b60006020820190508181036000830152614912816148d6565b9050919050565b7f416464726573733a20696e73756666696369656e742062616c616e636520666f60008201527f722063616c6c0000000000000000000000000000000000000000000000000000602082015250565b600061497560268361404d565b915061498082614919565b604082019050919050565b600060208201905081810360008301526149a481614968565b9050919050565b7f416464726573733a2063616c6c20746f206e6f6e2d636f6e7472616374000000600082015250565b60006149e1601d8361404d565b91506149ec826149ab565b602082019050919050565b60006020820190508181036000830152614a10816149d4565b9050919050565b600081519050919050565b600081905092915050565b60005b83811015614a4b578082015181840152602081019050614a30565b83811115614a5a576000848401525b50505050565b6000614a6b82614a17565b614a758185614a22565b9350614a85818560208601614a2d565b80840191505092915050565b6000614a9d8284614a60565b915081905092915050565b600081519050919050565b6000601f19601f8301169050919050565b6000614acf82614aa8565b614ad9818561404d565b9350614ae9818560208601614a2d565b614af281614ab3565b840191505092915050565b60006020820190508181036000830152614b178184614ac4565b90509291505056fea2646970667358221220806da59d6bd813ca4b638f5bcc883e60928792a06e8182a5aa6aadf803df1b7564736f6c634300080a0033",
  "devdoc": {
    "kind": "dev",
    "methods": {
      "deposit(uint256,address,uint256)": {
        "params": {
          "_amount": "uint",
          "_profit": "uint",
          "_token": "address"
        },
        "returns": {
          "send_": "uint"
        }
      },
      "excessReserves()": {
        "returns": {
          "_0": "uint"
        }
      },
      "incurDebt(uint256,address)": {
        "params": {
          "_amount": "uint",
          "_token": "address"
        }
      },
      "manage(address,uint256)": {
        "params": {
          "_amount": "uint",
          "_token": "address"
        }
      },
      "queue(uint8,address)": {
        "params": {
          "_address": "address",
          "_managing": "MANAGING"
        },
        "returns": {
          "_0": "bool"
        }
      },
      "repayDebtWithNecc(uint256)": {
        "params": {
          "_amount": "uint"
        }
      },
      "repayDebtWithReserve(uint256,address)": {
        "params": {
          "_amount": "uint",
          "_token": "address"
        }
      },
      "toggle(uint8,address)": {
        "params": {
          "_address": "address",
          "_managing": "MANAGING"
        },
        "returns": {
          "_0": "bool"
        }
      },
      "valueOfToken(address,uint256)": {
        "params": {
          "_amount": "uint",
          "_token": "address"
        },
        "returns": {
          "_value": "uint"
        }
      },
      "withdraw(uint256,address)": {
        "params": {
          "_amount": "uint",
          "_token": "address"
        }
      }
    },
    "version": 1
  },
  "userdoc": {
    "kind": "user",
    "methods": {
      "auditReserves()": {
        "notice": "takes inventory of all tracked assetsalways consolidate to recognized reserves before audit"
      },
      "deposit(uint256,address,uint256)": {
        "notice": "allow approved address to deposit an asset for Necc"
      },
      "excessReserves()": {
        "notice": "returns excess reserves not backing tokens"
      },
      "incurDebt(uint256,address)": {
        "notice": "allow approved address to borrow reserves"
      },
      "manage(address,uint256)": {
        "notice": "allow approved address to withdraw assets"
      },
      "mintRewards(address,uint256)": {
        "notice": "send epoch reward to staking contract"
      },
      "queue(uint8,address)": {
        "notice": "queue address to change boolean in mapping"
      },
      "repayDebtWithNecc(uint256)": {
        "notice": "allow approved address to repay borrowed reserves with Necc"
      },
      "repayDebtWithReserve(uint256,address)": {
        "notice": "allow approved address to repay borrowed reserves with reserves"
      },
      "toggle(uint8,address)": {
        "notice": "verify queue then set boolean in mapping"
      },
      "valueOfToken(address,uint256)": {
        "notice": "returns Necc valuation of asset"
      },
      "withdraw(uint256,address)": {
        "notice": "allow approved address to burn Necc for reserves"
      }
    },
    "version": 1
  },
  "storageLayout": {
    "storage": [
      {
        "astId": 2332,
        "contract": "contracts/facets/Treasury/TreasuryFacet.sol:TreasuryFacet",
        "label": "s",
        "offset": 0,
        "slot": "0",
        "type": "t_struct(Storage)5141_storage"
      }
    ],
    "types": {
      "t_address": {
        "encoding": "inplace",
        "label": "address",
        "numberOfBytes": "20"
      },
      "t_array(t_address)dyn_storage": {
        "base": "t_address",
        "encoding": "dynamic_array",
        "label": "address[]",
        "numberOfBytes": "32"
      },
      "t_bool": {
        "encoding": "inplace",
        "label": "bool",
        "numberOfBytes": "1"
      },
      "t_mapping(t_address,t_bool)": {
        "encoding": "mapping",
        "key": "t_address",
        "label": "mapping(address => bool)",
        "numberOfBytes": "32",
        "value": "t_bool"
      },
      "t_mapping(t_address,t_uint256)": {
        "encoding": "mapping",
        "key": "t_address",
        "label": "mapping(address => uint256)",
        "numberOfBytes": "32",
        "value": "t_uint256"
      },
      "t_struct(Storage)5141_storage": {
        "encoding": "inplace",
        "label": "struct LibTreasuryStorage.Storage",
        "members": [
          {
            "astId": 5025,
            "contract": "contracts/facets/Treasury/TreasuryFacet.sol:TreasuryFacet",
            "label": "Necc",
            "offset": 0,
            "slot": "0",
            "type": "t_address"
          },
          {
            "astId": 5027,
            "contract": "contracts/facets/Treasury/TreasuryFacet.sol:TreasuryFacet",
            "label": "nNecc",
            "offset": 0,
            "slot": "1",
            "type": "t_address"
          },
          {
            "astId": 5029,
            "contract": "contracts/facets/Treasury/TreasuryFacet.sol:TreasuryFacet",
            "label": "sNecc",
            "offset": 0,
            "slot": "2",
            "type": "t_address"
          },
          {
            "astId": 5031,
            "contract": "contracts/facets/Treasury/TreasuryFacet.sol:TreasuryFacet",
            "label": "blocksNeededForQueue",
            "offset": 0,
            "slot": "3",
            "type": "t_uint256"
          },
          {
            "astId": 5034,
            "contract": "contracts/facets/Treasury/TreasuryFacet.sol:TreasuryFacet",
            "label": "reserveTokens",
            "offset": 0,
            "slot": "4",
            "type": "t_array(t_address)dyn_storage"
          },
          {
            "astId": 5036,
            "contract": "contracts/facets/Treasury/TreasuryFacet.sol:TreasuryFacet",
            "label": "sNeccQueue",
            "offset": 0,
            "slot": "5",
            "type": "t_uint256"
          },
          {
            "astId": 5038,
            "contract": "contracts/facets/Treasury/TreasuryFacet.sol:TreasuryFacet",
            "label": "totalReserves",
            "offset": 0,
            "slot": "6",
            "type": "t_uint256"
          },
          {
            "astId": 5040,
            "contract": "contracts/facets/Treasury/TreasuryFacet.sol:TreasuryFacet",
            "label": "totalDebt",
            "offset": 0,
            "slot": "7",
            "type": "t_uint256"
          },
          {
            "astId": 5044,
            "contract": "contracts/facets/Treasury/TreasuryFacet.sol:TreasuryFacet",
            "label": "isReserveToken",
            "offset": 0,
            "slot": "8",
            "type": "t_mapping(t_address,t_bool)"
          },
          {
            "astId": 5048,
            "contract": "contracts/facets/Treasury/TreasuryFacet.sol:TreasuryFacet",
            "label": "reserveTokenQueue",
            "offset": 0,
            "slot": "9",
            "type": "t_mapping(t_address,t_uint256)"
          },
          {
            "astId": 5051,
            "contract": "contracts/facets/Treasury/TreasuryFacet.sol:TreasuryFacet",
            "label": "reserveDepositors",
            "offset": 0,
            "slot": "10",
            "type": "t_array(t_address)dyn_storage"
          },
          {
            "astId": 5055,
            "contract": "contracts/facets/Treasury/TreasuryFacet.sol:TreasuryFacet",
            "label": "isReserveDepositor",
            "offset": 0,
            "slot": "11",
            "type": "t_mapping(t_address,t_bool)"
          },
          {
            "astId": 5059,
            "contract": "contracts/facets/Treasury/TreasuryFacet.sol:TreasuryFacet",
            "label": "reserveDepositorQueue",
            "offset": 0,
            "slot": "12",
            "type": "t_mapping(t_address,t_uint256)"
          },
          {
            "astId": 5062,
            "contract": "contracts/facets/Treasury/TreasuryFacet.sol:TreasuryFacet",
            "label": "reserveSpenders",
            "offset": 0,
            "slot": "13",
            "type": "t_array(t_address)dyn_storage"
          },
          {
            "astId": 5066,
            "contract": "contracts/facets/Treasury/TreasuryFacet.sol:TreasuryFacet",
            "label": "isReserveSpender",
            "offset": 0,
            "slot": "14",
            "type": "t_mapping(t_address,t_bool)"
          },
          {
            "astId": 5070,
            "contract": "contracts/facets/Treasury/TreasuryFacet.sol:TreasuryFacet",
            "label": "reserveSpenderQueue",
            "offset": 0,
            "slot": "15",
            "type": "t_mapping(t_address,t_uint256)"
          },
          {
            "astId": 5073,
            "contract": "contracts/facets/Treasury/TreasuryFacet.sol:TreasuryFacet",
            "label": "liquidityTokens",
            "offset": 0,
            "slot": "16",
            "type": "t_array(t_address)dyn_storage"
          },
          {
            "astId": 5077,
            "contract": "contracts/facets/Treasury/TreasuryFacet.sol:TreasuryFacet",
            "label": "isLiquidityToken",
            "offset": 0,
            "slot": "17",
            "type": "t_mapping(t_address,t_bool)"
          },
          {
            "astId": 5081,
            "contract": "contracts/facets/Treasury/TreasuryFacet.sol:TreasuryFacet",
            "label": "LiquidityTokenQueue",
            "offset": 0,
            "slot": "18",
            "type": "t_mapping(t_address,t_uint256)"
          },
          {
            "astId": 5084,
            "contract": "contracts/facets/Treasury/TreasuryFacet.sol:TreasuryFacet",
            "label": "liquidityDepositors",
            "offset": 0,
            "slot": "19",
            "type": "t_array(t_address)dyn_storage"
          },
          {
            "astId": 5088,
            "contract": "contracts/facets/Treasury/TreasuryFacet.sol:TreasuryFacet",
            "label": "isLiquidityDepositor",
            "offset": 0,
            "slot": "20",
            "type": "t_mapping(t_address,t_bool)"
          },
          {
            "astId": 5092,
            "contract": "contracts/facets/Treasury/TreasuryFacet.sol:TreasuryFacet",
            "label": "LiquidityDepositorQueue",
            "offset": 0,
            "slot": "21",
            "type": "t_mapping(t_address,t_uint256)"
          },
          {
            "astId": 5095,
            "contract": "contracts/facets/Treasury/TreasuryFacet.sol:TreasuryFacet",
            "label": "reserveManagers",
            "offset": 0,
            "slot": "22",
            "type": "t_array(t_address)dyn_storage"
          },
          {
            "astId": 5099,
            "contract": "contracts/facets/Treasury/TreasuryFacet.sol:TreasuryFacet",
            "label": "isReserveManager",
            "offset": 0,
            "slot": "23",
            "type": "t_mapping(t_address,t_bool)"
          },
          {
            "astId": 5103,
            "contract": "contracts/facets/Treasury/TreasuryFacet.sol:TreasuryFacet",
            "label": "ReserveManagerQueue",
            "offset": 0,
            "slot": "24",
            "type": "t_mapping(t_address,t_uint256)"
          },
          {
            "astId": 5106,
            "contract": "contracts/facets/Treasury/TreasuryFacet.sol:TreasuryFacet",
            "label": "liquidityManagers",
            "offset": 0,
            "slot": "25",
            "type": "t_array(t_address)dyn_storage"
          },
          {
            "astId": 5110,
            "contract": "contracts/facets/Treasury/TreasuryFacet.sol:TreasuryFacet",
            "label": "isLiquidityManager",
            "offset": 0,
            "slot": "26",
            "type": "t_mapping(t_address,t_bool)"
          },
          {
            "astId": 5114,
            "contract": "contracts/facets/Treasury/TreasuryFacet.sol:TreasuryFacet",
            "label": "LiquidityManagerQueue",
            "offset": 0,
            "slot": "27",
            "type": "t_mapping(t_address,t_uint256)"
          },
          {
            "astId": 5117,
            "contract": "contracts/facets/Treasury/TreasuryFacet.sol:TreasuryFacet",
            "label": "debtors",
            "offset": 0,
            "slot": "28",
            "type": "t_array(t_address)dyn_storage"
          },
          {
            "astId": 5121,
            "contract": "contracts/facets/Treasury/TreasuryFacet.sol:TreasuryFacet",
            "label": "isDebtor",
            "offset": 0,
            "slot": "29",
            "type": "t_mapping(t_address,t_bool)"
          },
          {
            "astId": 5125,
            "contract": "contracts/facets/Treasury/TreasuryFacet.sol:TreasuryFacet",
            "label": "debtorQueue",
            "offset": 0,
            "slot": "30",
            "type": "t_mapping(t_address,t_uint256)"
          },
          {
            "astId": 5129,
            "contract": "contracts/facets/Treasury/TreasuryFacet.sol:TreasuryFacet",
            "label": "debtorBalance",
            "offset": 0,
            "slot": "31",
            "type": "t_mapping(t_address,t_uint256)"
          },
          {
            "astId": 5132,
            "contract": "contracts/facets/Treasury/TreasuryFacet.sol:TreasuryFacet",
            "label": "rewardManagers",
            "offset": 0,
            "slot": "32",
            "type": "t_array(t_address)dyn_storage"
          },
          {
            "astId": 5136,
            "contract": "contracts/facets/Treasury/TreasuryFacet.sol:TreasuryFacet",
            "label": "isRewardManager",
            "offset": 0,
            "slot": "33",
            "type": "t_mapping(t_address,t_bool)"
          },
          {
            "astId": 5140,
            "contract": "contracts/facets/Treasury/TreasuryFacet.sol:TreasuryFacet",
            "label": "rewardManagerQueue",
            "offset": 0,
            "slot": "34",
            "type": "t_mapping(t_address,t_uint256)"
          }
        ],
        "numberOfBytes": "1120"
      },
      "t_uint256": {
        "encoding": "inplace",
        "label": "uint256",
        "numberOfBytes": "32"
      }
    }
  }
}