{
  "address": "0x770DbE732Ae3aB6804441aE80612d7951b74dF0e",
  "abi": [
    {
      "anonymous": false,
      "inputs": [
        {
          "indexed": true,
          "internalType": "enum TreasuryFacet.MANAGING",
          "name": "managing",
          "type": "uint8"
        },
        {
          "indexed": false,
          "internalType": "address",
          "name": "activated",
          "type": "address"
        },
        {
          "indexed": false,
          "internalType": "bool",
          "name": "result",
          "type": "bool"
        }
      ],
      "name": "ChangeActivated",
      "type": "event"
    },
    {
      "anonymous": false,
      "inputs": [
        {
          "indexed": true,
          "internalType": "enum TreasuryFacet.MANAGING",
          "name": "managing",
          "type": "uint8"
        },
        {
          "indexed": false,
          "internalType": "address",
          "name": "queued",
          "type": "address"
        }
      ],
      "name": "ChangeQueued",
      "type": "event"
    },
    {
      "anonymous": false,
      "inputs": [
        {
          "indexed": true,
          "internalType": "address",
          "name": "debtor",
          "type": "address"
        },
        {
          "indexed": true,
          "internalType": "address",
          "name": "token",
          "type": "address"
        },
        {
          "indexed": false,
          "internalType": "uint256",
          "name": "amount",
          "type": "uint256"
        },
        {
          "indexed": false,
          "internalType": "uint256",
          "name": "value",
          "type": "uint256"
        }
      ],
      "name": "CreateDebt",
      "type": "event"
    },
    {
      "anonymous": false,
      "inputs": [
        {
          "indexed": true,
          "internalType": "address",
          "name": "token",
          "type": "address"
        },
        {
          "indexed": false,
          "internalType": "uint256",
          "name": "amount",
          "type": "uint256"
        },
        {
          "indexed": false,
          "internalType": "uint256",
          "name": "value",
          "type": "uint256"
        }
      ],
      "name": "Deposit",
      "type": "event"
    },
    {
      "anonymous": false,
      "inputs": [
        {
          "indexed": true,
          "internalType": "address",
          "name": "debtor",
          "type": "address"
        },
        {
          "indexed": true,
          "internalType": "address",
          "name": "token",
          "type": "address"
        },
        {
          "indexed": false,
          "internalType": "uint256",
          "name": "amount",
          "type": "uint256"
        },
        {
          "indexed": false,
          "internalType": "uint256",
          "name": "value",
          "type": "uint256"
        }
      ],
      "name": "RepayDebt",
      "type": "event"
    },
    {
      "anonymous": false,
      "inputs": [
        {
          "indexed": true,
          "internalType": "uint256",
          "name": "totalReserves",
          "type": "uint256"
        }
      ],
      "name": "ReservesAudited",
      "type": "event"
    },
    {
      "anonymous": false,
      "inputs": [
        {
          "indexed": true,
          "internalType": "address",
          "name": "token",
          "type": "address"
        },
        {
          "indexed": false,
          "internalType": "uint256",
          "name": "amount",
          "type": "uint256"
        }
      ],
      "name": "ReservesManaged",
      "type": "event"
    },
    {
      "anonymous": false,
      "inputs": [
        {
          "indexed": true,
          "internalType": "uint256",
          "name": "totalReserves",
          "type": "uint256"
        }
      ],
      "name": "ReservesUpdated",
      "type": "event"
    },
    {
      "anonymous": false,
      "inputs": [
        {
          "indexed": true,
          "internalType": "address",
          "name": "caller",
          "type": "address"
        },
        {
          "indexed": true,
          "internalType": "address",
          "name": "recipient",
          "type": "address"
        },
        {
          "indexed": false,
          "internalType": "uint256",
          "name": "amount",
          "type": "uint256"
        }
      ],
      "name": "RewardsMinted",
      "type": "event"
    },
    {
      "anonymous": false,
      "inputs": [
        {
          "indexed": true,
          "internalType": "address",
          "name": "token",
          "type": "address"
        },
        {
          "indexed": false,
          "internalType": "uint256",
          "name": "amount",
          "type": "uint256"
        },
        {
          "indexed": false,
          "internalType": "uint256",
          "name": "value",
          "type": "uint256"
        }
      ],
      "name": "Withdrawal",
      "type": "event"
    },
    {
      "inputs": [],
      "name": "auditReserves",
      "outputs": [],
      "stateMutability": "nonpayable",
      "type": "function"
    },
    {
      "inputs": [
        {
          "internalType": "uint256",
          "name": "_amount",
          "type": "uint256"
        },
        {
          "internalType": "address",
          "name": "_token",
          "type": "address"
        },
        {
          "internalType": "uint256",
          "name": "_profit",
          "type": "uint256"
        }
      ],
      "name": "deposit",
      "outputs": [
        {
          "internalType": "uint256",
          "name": "send_",
          "type": "uint256"
        }
      ],
      "stateMutability": "nonpayable",
      "type": "function"
    },
    {
      "inputs": [],
      "name": "excessReserves",
      "outputs": [
        {
          "internalType": "uint256",
          "name": "",
          "type": "uint256"
        }
      ],
      "stateMutability": "view",
      "type": "function"
    },
    {
      "inputs": [
        {
          "internalType": "uint256",
          "name": "_amount",
          "type": "uint256"
        },
        {
          "internalType": "address",
          "name": "_token",
          "type": "address"
        }
      ],
      "name": "incurDebt",
      "outputs": [],
      "stateMutability": "nonpayable",
      "type": "function"
    },
    {
      "inputs": [
        {
          "internalType": "address",
          "name": "_Necc",
          "type": "address"
        },
        {
          "internalType": "address",
          "name": "_sNecc",
          "type": "address"
        },
        {
          "internalType": "address",
          "name": "_nNecc",
          "type": "address"
        },
        {
          "internalType": "address",
          "name": "_NDOL",
          "type": "address"
        },
        {
          "internalType": "uint256",
          "name": "_blocksNeededForQueue",
          "type": "uint256"
        }
      ],
      "name": "initializeTreasury",
      "outputs": [],
      "stateMutability": "nonpayable",
      "type": "function"
    },
    {
      "inputs": [
        {
          "internalType": "address",
          "name": "_depositor",
          "type": "address"
        }
      ],
      "name": "isReserveDepositor",
      "outputs": [
        {
          "internalType": "bool",
          "name": "",
          "type": "bool"
        }
      ],
      "stateMutability": "view",
      "type": "function"
    },
    {
      "inputs": [
        {
          "internalType": "address",
          "name": "_principle",
          "type": "address"
        }
      ],
      "name": "isReserveToken",
      "outputs": [
        {
          "internalType": "bool",
          "name": "",
          "type": "bool"
        }
      ],
      "stateMutability": "view",
      "type": "function"
    },
    {
      "inputs": [
        {
          "internalType": "address",
          "name": "_token",
          "type": "address"
        },
        {
          "internalType": "uint256",
          "name": "_amount",
          "type": "uint256"
        }
      ],
      "name": "manage",
      "outputs": [],
      "stateMutability": "nonpayable",
      "type": "function"
    },
    {
      "inputs": [
        {
          "internalType": "address",
          "name": "_recipient",
          "type": "address"
        },
        {
          "internalType": "uint256",
          "name": "_amount",
          "type": "uint256"
        }
      ],
      "name": "mintRewards",
      "outputs": [],
      "stateMutability": "nonpayable",
      "type": "function"
    },
    {
      "inputs": [
        {
          "internalType": "enum TreasuryFacet.MANAGING",
          "name": "_managing",
          "type": "uint8"
        },
        {
          "internalType": "address",
          "name": "_address",
          "type": "address"
        }
      ],
      "name": "queue",
      "outputs": [
        {
          "internalType": "bool",
          "name": "",
          "type": "bool"
        }
      ],
      "stateMutability": "nonpayable",
      "type": "function"
    },
    {
      "inputs": [
        {
          "internalType": "uint256",
          "name": "_amount",
          "type": "uint256"
        }
      ],
      "name": "repayDebtWithNecc",
      "outputs": [],
      "stateMutability": "nonpayable",
      "type": "function"
    },
    {
      "inputs": [
        {
          "internalType": "uint256",
          "name": "_amount",
          "type": "uint256"
        },
        {
          "internalType": "address",
          "name": "_token",
          "type": "address"
        }
      ],
      "name": "repayDebtWithReserve",
      "outputs": [],
      "stateMutability": "nonpayable",
      "type": "function"
    },
    {
      "inputs": [
        {
          "internalType": "enum TreasuryFacet.MANAGING",
          "name": "_managing",
          "type": "uint8"
        },
        {
          "internalType": "address",
          "name": "_address",
          "type": "address"
        }
      ],
      "name": "toggle",
      "outputs": [
        {
          "internalType": "bool",
          "name": "",
          "type": "bool"
        }
      ],
      "stateMutability": "nonpayable",
      "type": "function"
    },
    {
      "inputs": [
        {
          "internalType": "address",
          "name": "_token",
          "type": "address"
        },
        {
          "internalType": "uint256",
          "name": "_amount",
          "type": "uint256"
        }
      ],
      "name": "valueOfToken",
      "outputs": [
        {
          "internalType": "uint256",
          "name": "_value",
          "type": "uint256"
        }
      ],
      "stateMutability": "view",
      "type": "function"
    },
    {
      "inputs": [
        {
          "internalType": "uint256",
          "name": "_amount",
          "type": "uint256"
        },
        {
          "internalType": "address",
          "name": "_token",
          "type": "address"
        }
      ],
      "name": "withdraw",
      "outputs": [],
      "stateMutability": "nonpayable",
      "type": "function"
    }
  ],
  "transactionHash": "0xa88c616b6bf95591e658ded3ae2803278f505e0a08191a0501ad5d5f2ff2ce5f",
  "args": [],
  "solcInputHash": "041602a40822190744caf01e7e519ef6",
  "bytecode": "0x608060405234801561001057600080fd5b50614d4b806100206000396000f3fe608060405234801561001057600080fd5b50600436106100f45760003560e01c80636a20de9211610097578063d5e8be0d11610066578063d5e8be0d1461026d578063d796ffb81461029d578063e5f12b76146102b9578063e83afee3146102d5576100f4565b80636a20de92146101d5578063bc157ac1146101f1578063cad9311e14610221578063d1b317e51461023d576100f4565b8063124154ca116100d3578063124154ca1461014f57806312422d231461017f5780632b7ce5001461019b57806368c31dd5146101a5576100f4565b8062f714ce146100f95780630b0eee30146101155780630c3513a814610131575b600080fd5b610113600480360381019061010e9190613fd6565b610305565b005b61012f600480360381019061012a9190614016565b61059c565b005b61013961083e565b6040516101469190614065565b60405180910390f35b61016960048036038101906101649190614080565b610906565b60405161017691906140c8565b60405180910390f35b61019960048036038101906101949190613fd6565b61095e565b005b6101a3610dc4565b005b6101bf60048036038101906101ba9190614080565b6110b8565b6040516101cc91906140c8565b60405180910390f35b6101ef60048036038101906101ea9190614016565b611110565b005b61020b600480360381019061020691906140e3565b6112e3565b6040516102189190614065565b60405180910390f35b61023b60048036038101906102369190614136565b6116cf565b005b61025760048036038101906102529190614016565b611939565b6040516102649190614065565b60405180910390f35b61028760048036038101906102829190614188565b611bae565b60405161029491906140c8565b60405180910390f35b6102b760048036038101906102b29190613fd6565b612d25565b005b6102d360048036038101906102ce91906141c8565b612ff9565b005b6102ef60048036038101906102ea9190614188565b61324c565b6040516102fc91906140c8565b60405180910390f35b600060080160008273ffffffffffffffffffffffffffffffffffffffff1673ffffffffffffffffffffffffffffffffffffffff16815260200190815260200160002060009054906101000a900460ff16610394576040517f08c379a000000000000000000000000000000000000000000000000000000000815260040161038b906142a0565b60405180910390fd5b600115156000600e0160003373ffffffffffffffffffffffffffffffffffffffff1673ffffffffffffffffffffffffffffffffffffffff16815260200190815260200160002060009054906101000a900460ff1615151461042a576040517f08c379a00000000000000000000000000000000000000000000000000000000081526004016104219061430c565b60405180910390fd5b60006104368284611939565b90506000800160009054906101000a900473ffffffffffffffffffffffffffffffffffffffff1673ffffffffffffffffffffffffffffffffffffffff166379cc679033836040518363ffffffff1660e01b815260040161049792919061433b565b600060405180830381600087803b1580156104b157600080fd5b505af11580156104c5573d6000803e3d6000fd5b505050506104e18160006006015461387f90919063ffffffff16565b6000600601819055506000600601547f93bb8edd35984706eee1b92541281f7f62d33c01c5b2ec0929a113603bd21d6660405160405180910390a261054733848473ffffffffffffffffffffffffffffffffffffffff166138959092919063ffffffff16565b8173ffffffffffffffffffffffffffffffffffffffff167fdf273cb619d95419a9cd0ec88123a0538c85064229baa6363788f743fff90deb848360405161058f929190614364565b60405180910390a2505050565b600060110160008373ffffffffffffffffffffffffffffffffffffffff1673ffffffffffffffffffffffffffffffffffffffff16815260200190815260200160002060009054906101000a900460ff1615610685576000601a0160003373ffffffffffffffffffffffffffffffffffffffff1673ffffffffffffffffffffffffffffffffffffffff16815260200190815260200160002060009054906101000a900460ff16610680576040517f08c379a00000000000000000000000000000000000000000000000000000000081526004016106779061430c565b60405180910390fd5b610715565b600060170160003373ffffffffffffffffffffffffffffffffffffffff1673ffffffffffffffffffffffffffffffffffffffff16815260200190815260200160002060009054906101000a900460ff16610714576040517f08c379a000000000000000000000000000000000000000000000000000000000815260040161070b9061430c565b60405180910390fd5b5b60006107218383611939565b905061072b61083e565b81111561076d576040517f08c379a0000000000000000000000000000000000000000000000000000000008152600401610764906143d9565b60405180910390fd5b6107858160006006015461387f90919063ffffffff16565b6000600601819055506000600601547f93bb8edd35984706eee1b92541281f7f62d33c01c5b2ec0929a113603bd21d6660405160405180910390a26107eb33838573ffffffffffffffffffffffffffffffffffffffff166138959092919063ffffffff16565b8273ffffffffffffffffffffffffffffffffffffffff167f2bb2640731848fe9820ba48dbc978c1fc9bbd5f11b948bfab05b7dee3378fd80836040516108319190614065565b60405180910390a2505050565b60006109016108ed6000600701546000800160009054906101000a900473ffffffffffffffffffffffffffffffffffffffff1673ffffffffffffffffffffffffffffffffffffffff166318160ddd6040518163ffffffff1660e01b8152600401602060405180830381865afa1580156108bb573d6000803e3d6000fd5b505050506040513d601f19601f820116820180604052508101906108df919061440e565b61387f90919063ffffffff16565b60006006015461387f90919063ffffffff16565b905090565b600080600b0160008373ffffffffffffffffffffffffffffffffffffffff1673ffffffffffffffffffffffffffffffffffffffff16815260200190815260200160002060009054906101000a900460ff169050919050565b6000601d0160003373ffffffffffffffffffffffffffffffffffffffff1673ffffffffffffffffffffffffffffffffffffffff16815260200190815260200160002060009054906101000a900460ff166109ed576040517f08c379a00000000000000000000000000000000000000000000000000000000081526004016109e49061430c565b60405180910390fd5b600060080160008273ffffffffffffffffffffffffffffffffffffffff1673ffffffffffffffffffffffffffffffffffffffff16815260200190815260200160002060009054906101000a900460ff16610a7c576040517f08c379a0000000000000000000000000000000000000000000000000000000008152600401610a73906142a0565b60405180910390fd5b6000610a888284611939565b905060008060010160009054906101000a900473ffffffffffffffffffffffffffffffffffffffff1673ffffffffffffffffffffffffffffffffffffffff166370a08231336040518263ffffffff1660e01b8152600401610ae9919061443b565b602060405180830381865afa158015610b06573d6000803e3d6000fd5b505050506040513d601f19601f82011682018060405250810190610b2a919061440e565b90506000610b836000601f0160003373ffffffffffffffffffffffffffffffffffffffff1673ffffffffffffffffffffffffffffffffffffffff168152602001908152602001600020548361387f90919063ffffffff16565b905080831115610bc8576040517f08c379a0000000000000000000000000000000000000000000000000000000008152600401610bbf906144a2565b60405180910390fd5b610c1d836000601f0160003373ffffffffffffffffffffffffffffffffffffffff1673ffffffffffffffffffffffffffffffffffffffff1681526020019081526020016000205461391b90919063ffffffff16565b6000601f0160003373ffffffffffffffffffffffffffffffffffffffff1673ffffffffffffffffffffffffffffffffffffffff16815260200190815260200160002081905550610c7b8360006007015461391b90919063ffffffff16565b600060070181905550610c9c8360006006015461387f90919063ffffffff16565b6000600601819055506000600601547f93bb8edd35984706eee1b92541281f7f62d33c01c5b2ec0929a113603bd21d6660405160405180910390a28373ffffffffffffffffffffffffffffffffffffffff1663a9059cbb33876040518363ffffffff1660e01b8152600401610d1292919061433b565b6020604051808303816000875af1158015610d31573d6000803e3d6000fd5b505050506040513d601f19601f82011682018060405250810190610d5591906144ee565b508373ffffffffffffffffffffffffffffffffffffffff163373ffffffffffffffffffffffffffffffffffffffff167f7e1a939bed137a819b5d2979822c67f877689f7a863d5e4cb57cdca97b2977d68786604051610db5929190614364565b60405180910390a35050505050565b610dcc613931565b600080600090505b600060040180549050811015610f1057610efb610eec60006004018381548110610e0157610e0061451b565b5b9060005260206000200160009054906101000a900473ffffffffffffffffffffffffffffffffffffffff1660006004018481548110610e4357610e4261451b565b5b9060005260206000200160009054906101000a900473ffffffffffffffffffffffffffffffffffffffff1673ffffffffffffffffffffffffffffffffffffffff166370a08231306040518263ffffffff1660e01b8152600401610ea6919061443b565b602060405180830381865afa158015610ec3573d6000803e3d6000fd5b505050506040513d601f19601f82011682018060405250810190610ee7919061440e565b611939565b8361391b90919063ffffffff16565b91508080610f0890614579565b915050610dd4565b5060005b6000601001805490508110156110505761103b61102c60006010018381548110610f4157610f4061451b565b5b9060005260206000200160009054906101000a900473ffffffffffffffffffffffffffffffffffffffff1660006010018481548110610f8357610f8261451b565b5b9060005260206000200160009054906101000a900473ffffffffffffffffffffffffffffffffffffffff1673ffffffffffffffffffffffffffffffffffffffff166370a08231306040518263ffffffff1660e01b8152600401610fe6919061443b565b602060405180830381865afa158015611003573d6000803e3d6000fd5b505050506040513d601f19601f82011682018060405250810190611027919061440e565b611939565b8361391b90919063ffffffff16565b9150808061104890614579565b915050610f14565b5080600060060181905550807f93bb8edd35984706eee1b92541281f7f62d33c01c5b2ec0929a113603bd21d6660405160405180910390a2807fec691f09f6924b27932253f85caf99bacc30360cc0e50a1cc4d2acc24601446660405160405180910390a250565b60008060080160008373ffffffffffffffffffffffffffffffffffffffff1673ffffffffffffffffffffffffffffffffffffffff16815260200190815260200160002060009054906101000a900460ff169050919050565b600060210160003373ffffffffffffffffffffffffffffffffffffffff1673ffffffffffffffffffffffffffffffffffffffff16815260200190815260200160002060009054906101000a900460ff1661119f576040517f08c379a00000000000000000000000000000000000000000000000000000000081526004016111969061430c565b60405180910390fd5b6111a761083e565b8111156111e9576040517f08c379a00000000000000000000000000000000000000000000000000000000081526004016111e0906143d9565b60405180910390fd5b6000800160009054906101000a900473ffffffffffffffffffffffffffffffffffffffff1673ffffffffffffffffffffffffffffffffffffffff166340c10f1983836040518363ffffffff1660e01b815260040161124892919061433b565b600060405180830381600087803b15801561126257600080fd5b505af1158015611276573d6000803e3d6000fd5b505050508173ffffffffffffffffffffffffffffffffffffffff163373ffffffffffffffffffffffffffffffffffffffff167ffa8ccab40e7da8146c2304cd0950334fd30a6ba093abe86261aa13911fed849c836040516112d79190614065565b60405180910390a35050565b60008060080160008473ffffffffffffffffffffffffffffffffffffffff1673ffffffffffffffffffffffffffffffffffffffff16815260200190815260200160002060009054906101000a900460ff168061138b5750600060110160008473ffffffffffffffffffffffffffffffffffffffff1673ffffffffffffffffffffffffffffffffffffffff16815260200190815260200160002060009054906101000a900460ff165b6113ca576040517f08c379a00000000000000000000000000000000000000000000000000000000081526004016113c1906142a0565b60405180910390fd5b6113f73330868673ffffffffffffffffffffffffffffffffffffffff1661393b909392919063ffffffff16565b600060080160008473ffffffffffffffffffffffffffffffffffffffff1673ffffffffffffffffffffffffffffffffffffffff16815260200190815260200160002060009054906101000a900460ff16156114e0576000600b0160003373ffffffffffffffffffffffffffffffffffffffff1673ffffffffffffffffffffffffffffffffffffffff16815260200190815260200160002060009054906101000a900460ff166114db576040517f08c379a00000000000000000000000000000000000000000000000000000000081526004016114d29061430c565b60405180910390fd5b611570565b600060140160003373ffffffffffffffffffffffffffffffffffffffff1673ffffffffffffffffffffffffffffffffffffffff16815260200190815260200160002060009054906101000a900460ff1661156f576040517f08c379a00000000000000000000000000000000000000000000000000000000081526004016115669061430c565b60405180910390fd5b5b600061157c8486611939565b9050611591838261387f90919063ffffffff16565b91506000800160009054906101000a900473ffffffffffffffffffffffffffffffffffffffff1673ffffffffffffffffffffffffffffffffffffffff166340c10f1933846040518363ffffffff1660e01b81526004016115f292919061433b565b600060405180830381600087803b15801561160c57600080fd5b505af1158015611620573d6000803e3d6000fd5b5050505061163c8160006006015461391b90919063ffffffff16565b6000600601819055506000600601547f93bb8edd35984706eee1b92541281f7f62d33c01c5b2ec0929a113603bd21d6660405160405180910390a28373ffffffffffffffffffffffffffffffffffffffff167f90890809c654f11d6e72a28fa60149770a0d11ec6c92319d6ceb2bb0a4ea1a1586836040516116bf929190614364565b60405180910390a2509392505050565b6000601d0160003373ffffffffffffffffffffffffffffffffffffffff1673ffffffffffffffffffffffffffffffffffffffff16815260200190815260200160002060009054906101000a900460ff1661175e576040517f08c379a00000000000000000000000000000000000000000000000000000000081526004016117559061430c565b60405180910390fd5b6000800160009054906101000a900473ffffffffffffffffffffffffffffffffffffffff1673ffffffffffffffffffffffffffffffffffffffff166379cc679033836040518363ffffffff1660e01b81526004016117bd92919061433b565b600060405180830381600087803b1580156117d757600080fd5b505af11580156117eb573d6000803e3d6000fd5b50505050611844816000601f0160003373ffffffffffffffffffffffffffffffffffffffff1673ffffffffffffffffffffffffffffffffffffffff1681526020019081526020016000205461387f90919063ffffffff16565b6000601f0160003373ffffffffffffffffffffffffffffffffffffffff1673ffffffffffffffffffffffffffffffffffffffff168152602001908152602001600020819055506118a28160006007015461387f90919063ffffffff16565b6000600701819055506000800160009054906101000a900473ffffffffffffffffffffffffffffffffffffffff1673ffffffffffffffffffffffffffffffffffffffff163373ffffffffffffffffffffffffffffffffffffffff167fc6d98eecfc9c78ab62c89a82950079b54874749f1f6f24090f7acc758bc2f309838460405161192e929190614364565b60405180910390a350565b60008060080160008473ffffffffffffffffffffffffffffffffffffffff1673ffffffffffffffffffffffffffffffffffffffff16815260200190815260200160002060009054906101000a900460ff1615611ad357611acc8373ffffffffffffffffffffffffffffffffffffffff1663313ce5676040518163ffffffff1660e01b8152600401602060405180830381865afa1580156119dd573d6000803e3d6000fd5b505050506040513d601f19601f82011682018060405250810190611a01919061440e565b600a611a0d91906146f5565b611abe6000800160009054906101000a900473ffffffffffffffffffffffffffffffffffffffff1673ffffffffffffffffffffffffffffffffffffffff1663313ce5676040518163ffffffff1660e01b8152600401602060405180830381865afa158015611a7f573d6000803e3d6000fd5b505050506040513d601f19601f82011682018060405250810190611aa3919061440e565b600a611aaf91906146f5565b856139c490919063ffffffff16565b6139da90919063ffffffff16565b9050611ba8565b600060110160008473ffffffffffffffffffffffffffffffffffffffff1673ffffffffffffffffffffffffffffffffffffffff16815260200190815260200160002060009054906101000a900460ff1615611ba7573073ffffffffffffffffffffffffffffffffffffffff16634249719f84846040518363ffffffff1660e01b8152600401611b6392919061433b565b602060405180830381865afa158015611b80573d6000803e3d6000fd5b505050506040513d601f19601f82011682018060405250810190611ba4919061440e565b90505b5b92915050565b6000611bb8613931565b600073ffffffffffffffffffffffffffffffffffffffff168273ffffffffffffffffffffffffffffffffffffffff161415611bf257600080fd5b6000806009811115611c0757611c06614740565b5b846009811115611c1a57611c19614740565b5b1415611dab57611c336000600c016000600b01856139f0565b15611cf957600080600c0160008573ffffffffffffffffffffffffffffffffffffffff1673ffffffffffffffffffffffffffffffffffffffff16815260200190815260200160002081905550611c8d6000600a0184613b5a565b611cf8576000600a01839080600181540180825580915050600190039060005260206000200160009091909190916101000a81548173ffffffffffffffffffffffffffffffffffffffff021916908373ffffffffffffffffffffffffffffffffffffffff1602179055505b5b6000600b0160008473ffffffffffffffffffffffffffffffffffffffff1673ffffffffffffffffffffffffffffffffffffffff16815260200190815260200160002060009054906101000a900460ff16159050806000600b0160008573ffffffffffffffffffffffffffffffffffffffff1673ffffffffffffffffffffffffffffffffffffffff16815260200190815260200160002060006101000a81548160ff021916908315150217905550612ccd565b60016009811115611dbf57611dbe614740565b5b846009811115611dd257611dd1614740565b5b1415611f6357611deb6000600f016000600e01856139f0565b15611eb157600080600f0160008573ffffffffffffffffffffffffffffffffffffffff1673ffffffffffffffffffffffffffffffffffffffff16815260200190815260200160002081905550611e456000600d0184613b5a565b611eb0576000600d01839080600181540180825580915050600190039060005260206000200160009091909190916101000a81548173ffffffffffffffffffffffffffffffffffffffff021916908373ffffffffffffffffffffffffffffffffffffffff1602179055505b5b6000600e0160008473ffffffffffffffffffffffffffffffffffffffff1673ffffffffffffffffffffffffffffffffffffffff16815260200190815260200160002060009054906101000a900460ff16159050806000600e0160008573ffffffffffffffffffffffffffffffffffffffff1673ffffffffffffffffffffffffffffffffffffffff16815260200190815260200160002060006101000a81548160ff021916908315150217905550612ccc565b60026009811115611f7757611f76614740565b5b846009811115611f8a57611f89614740565b5b141561211b57611fa360006009016000600801856139f0565b156120695760008060090160008573ffffffffffffffffffffffffffffffffffffffff1673ffffffffffffffffffffffffffffffffffffffff16815260200190815260200160002081905550611ffd600060040184613b5a565b612068576000600401839080600181540180825580915050600190039060005260206000200160009091909190916101000a81548173ffffffffffffffffffffffffffffffffffffffff021916908373ffffffffffffffffffffffffffffffffffffffff1602179055505b5b600060080160008473ffffffffffffffffffffffffffffffffffffffff1673ffffffffffffffffffffffffffffffffffffffff16815260200190815260200160002060009054906101000a900460ff1615905080600060080160008573ffffffffffffffffffffffffffffffffffffffff1673ffffffffffffffffffffffffffffffffffffffff16815260200190815260200160002060006101000a81548160ff021916908315150217905550612ccb565b6003600981111561212f5761212e614740565b5b84600981111561214257612141614740565b5b14156123395761215b60006018016000601701856139f0565b15612287576000601601839080600181540180825580915050600190039060005260206000200160009091909190916101000a81548173ffffffffffffffffffffffffffffffffffffffff021916908373ffffffffffffffffffffffffffffffffffffffff16021790555060008060180160008573ffffffffffffffffffffffffffffffffffffffff1673ffffffffffffffffffffffffffffffffffffffff1681526020019081526020016000208190555061221b600060160184613b5a565b612286576000601601839080600181540180825580915050600190039060005260206000200160009091909190916101000a81548173ffffffffffffffffffffffffffffffffffffffff021916908373ffffffffffffffffffffffffffffffffffffffff1602179055505b5b600060170160008473ffffffffffffffffffffffffffffffffffffffff1673ffffffffffffffffffffffffffffffffffffffff16815260200190815260200160002060009054906101000a900460ff1615905080600060170160008573ffffffffffffffffffffffffffffffffffffffff1673ffffffffffffffffffffffffffffffffffffffff16815260200190815260200160002060006101000a81548160ff021916908315150217905550612cca565b6004600981111561234d5761234c614740565b5b8460098111156123605761235f614740565b5b14156125575761237960006015016000601401856139f0565b156124a5576000601301839080600181540180825580915050600190039060005260206000200160009091909190916101000a81548173ffffffffffffffffffffffffffffffffffffffff021916908373ffffffffffffffffffffffffffffffffffffffff16021790555060008060150160008573ffffffffffffffffffffffffffffffffffffffff1673ffffffffffffffffffffffffffffffffffffffff16815260200190815260200160002081905550612439600060130184613b5a565b6124a4576000601301839080600181540180825580915050600190039060005260206000200160009091909190916101000a81548173ffffffffffffffffffffffffffffffffffffffff021916908373ffffffffffffffffffffffffffffffffffffffff1602179055505b5b600060140160008473ffffffffffffffffffffffffffffffffffffffff1673ffffffffffffffffffffffffffffffffffffffff16815260200190815260200160002060009054906101000a900460ff1615905080600060140160008573ffffffffffffffffffffffffffffffffffffffff1673ffffffffffffffffffffffffffffffffffffffff16815260200190815260200160002060006101000a81548160ff021916908315150217905550612cc9565b6005600981111561256b5761256a614740565b5b84600981111561257e5761257d614740565b5b141561270f5761259760006012016000601101856139f0565b1561265d5760008060120160008573ffffffffffffffffffffffffffffffffffffffff1673ffffffffffffffffffffffffffffffffffffffff168152602001908152602001600020819055506125f1600060100184613b5a565b61265c576000601001839080600181540180825580915050600190039060005260206000200160009091909190916101000a81548173ffffffffffffffffffffffffffffffffffffffff021916908373ffffffffffffffffffffffffffffffffffffffff1602179055505b5b600060110160008473ffffffffffffffffffffffffffffffffffffffff1673ffffffffffffffffffffffffffffffffffffffff16815260200190815260200160002060009054906101000a900460ff1615905080600060110160008573ffffffffffffffffffffffffffffffffffffffff1673ffffffffffffffffffffffffffffffffffffffff16815260200190815260200160002060006101000a81548160ff021916908315150217905550612cc8565b6006600981111561272357612722614740565b5b84600981111561273657612735614740565b5b14156128c75761274f6000601b016000601a01856139f0565b1561281557600080601b0160008573ffffffffffffffffffffffffffffffffffffffff1673ffffffffffffffffffffffffffffffffffffffff168152602001908152602001600020819055506127a9600060190184613b5a565b612814576000601901839080600181540180825580915050600190039060005260206000200160009091909190916101000a81548173ffffffffffffffffffffffffffffffffffffffff021916908373ffffffffffffffffffffffffffffffffffffffff1602179055505b5b6000601a0160008473ffffffffffffffffffffffffffffffffffffffff1673ffffffffffffffffffffffffffffffffffffffff16815260200190815260200160002060009054906101000a900460ff16159050806000601a0160008573ffffffffffffffffffffffffffffffffffffffff1673ffffffffffffffffffffffffffffffffffffffff16815260200190815260200160002060006101000a81548160ff021916908315150217905550612cc7565b600760098111156128db576128da614740565b5b8460098111156128ee576128ed614740565b5b1415612a7f576129076000601e016000601d01856139f0565b156129cd57600080601e0160008573ffffffffffffffffffffffffffffffffffffffff1673ffffffffffffffffffffffffffffffffffffffff168152602001908152602001600020819055506129616000601c0184613b5a565b6129cc576000601c01839080600181540180825580915050600190039060005260206000200160009091909190916101000a81548173ffffffffffffffffffffffffffffffffffffffff021916908373ffffffffffffffffffffffffffffffffffffffff1602179055505b5b6000601d0160008473ffffffffffffffffffffffffffffffffffffffff1673ffffffffffffffffffffffffffffffffffffffff16815260200190815260200160002060009054906101000a900460ff16159050806000601d0160008573ffffffffffffffffffffffffffffffffffffffff1673ffffffffffffffffffffffffffffffffffffffff16815260200190815260200160002060006101000a81548160ff021916908315150217905550612cc6565b60086009811115612a9357612a92614740565b5b846009811115612aa657612aa5614740565b5b1415612c3757612abf60006022016000602101856139f0565b15612b855760008060220160008573ffffffffffffffffffffffffffffffffffffffff1673ffffffffffffffffffffffffffffffffffffffff16815260200190815260200160002081905550612b19600060200184613b5a565b612b84576000602001839080600181540180825580915050600190039060005260206000200160009091909190916101000a81548173ffffffffffffffffffffffffffffffffffffffff021916908373ffffffffffffffffffffffffffffffffffffffff1602179055505b5b600060210160008473ffffffffffffffffffffffffffffffffffffffff1673ffffffffffffffffffffffffffffffffffffffff16815260200190815260200160002060009054906101000a900460ff1615905080600060210160008573ffffffffffffffffffffffffffffffffffffffff1673ffffffffffffffffffffffffffffffffffffffff16815260200190815260200160002060006101000a81548160ff021916908315150217905550612cc5565b600980811115612c4a57612c49614740565b5b846009811115612c5d57612c5c614740565b5b1415612cba576000806005018190555082600060010160006101000a81548173ffffffffffffffffffffffffffffffffffffffff021916908373ffffffffffffffffffffffffffffffffffffffff16021790555060019050612cc4565b6000915050612d1f565b5b5b5b5b5b5b5b5b5b836009811115612ce057612cdf614740565b5b7f0dcacb7e392f3d6a216ed2660e3dcfd40b7793d33591db2ba185a6b8e44fc4778483604051612d1192919061476f565b60405180910390a260019150505b92915050565b6000601d0160003373ffffffffffffffffffffffffffffffffffffffff1673ffffffffffffffffffffffffffffffffffffffff16815260200190815260200160002060009054906101000a900460ff16612db4576040517f08c379a0000000000000000000000000000000000000000000000000000000008152600401612dab9061430c565b60405180910390fd5b600060080160008273ffffffffffffffffffffffffffffffffffffffff1673ffffffffffffffffffffffffffffffffffffffff16815260200190815260200160002060009054906101000a900460ff16612e43576040517f08c379a0000000000000000000000000000000000000000000000000000000008152600401612e3a906142a0565b60405180910390fd5b612e703330848473ffffffffffffffffffffffffffffffffffffffff1661393b909392919063ffffffff16565b6000612e7c8284611939565b9050612ed3816000601f0160003373ffffffffffffffffffffffffffffffffffffffff1673ffffffffffffffffffffffffffffffffffffffff1681526020019081526020016000205461387f90919063ffffffff16565b6000601f0160003373ffffffffffffffffffffffffffffffffffffffff1673ffffffffffffffffffffffffffffffffffffffff16815260200190815260200160002081905550612f318160006007015461387f90919063ffffffff16565b600060070181905550612f528160006006015461391b90919063ffffffff16565b6000600601819055506000600601547f93bb8edd35984706eee1b92541281f7f62d33c01c5b2ec0929a113603bd21d6660405160405180910390a28173ffffffffffffffffffffffffffffffffffffffff163373ffffffffffffffffffffffffffffffffffffffff167fc6d98eecfc9c78ab62c89a82950079b54874749f1f6f24090f7acc758bc2f3098584604051612fec929190614364565b60405180910390a3505050565b613001613931565b600073ffffffffffffffffffffffffffffffffffffffff168573ffffffffffffffffffffffffffffffffffffffff16141561303b57600080fd5b600073ffffffffffffffffffffffffffffffffffffffff168473ffffffffffffffffffffffffffffffffffffffff16141561307557600080fd5b600073ffffffffffffffffffffffffffffffffffffffff168373ffffffffffffffffffffffffffffffffffffffff1614156130af57600080fd5b846000800160006101000a81548173ffffffffffffffffffffffffffffffffffffffff021916908373ffffffffffffffffffffffffffffffffffffffff16021790555083600060010160006101000a81548173ffffffffffffffffffffffffffffffffffffffff021916908373ffffffffffffffffffffffffffffffffffffffff16021790555082600060020160006101000a81548173ffffffffffffffffffffffffffffffffffffffff021916908373ffffffffffffffffffffffffffffffffffffffff1602179055506001600060080160008473ffffffffffffffffffffffffffffffffffffffff1673ffffffffffffffffffffffffffffffffffffffff16815260200190815260200160002060006101000a81548160ff0219169083151502179055506000600401829080600181540180825580915050600190039060005260206000200160009091909190916101000a81548173ffffffffffffffffffffffffffffffffffffffff021916908373ffffffffffffffffffffffffffffffffffffffff160217905550806000600301819055505050505050565b6000613256613931565b600073ffffffffffffffffffffffffffffffffffffffff168273ffffffffffffffffffffffffffffffffffffffff16141561329057600080fd5b600060098111156132a4576132a3614740565b5b8360098111156132b7576132b6614740565b5b1415613320576132d56000600301544361391b90919063ffffffff16565b6000600c0160008473ffffffffffffffffffffffffffffffffffffffff1673ffffffffffffffffffffffffffffffffffffffff1681526020019081526020016000208190555061382a565b6001600981111561333457613333614740565b5b83600981111561334757613346614740565b5b14156133b0576133656000600301544361391b90919063ffffffff16565b6000600f0160008473ffffffffffffffffffffffffffffffffffffffff1673ffffffffffffffffffffffffffffffffffffffff16815260200190815260200160002081905550613829565b600260098111156133c4576133c3614740565b5b8360098111156133d7576133d6614740565b5b1415613440576133f56000600301544361391b90919063ffffffff16565b600060090160008473ffffffffffffffffffffffffffffffffffffffff1673ffffffffffffffffffffffffffffffffffffffff16815260200190815260200160002081905550613828565b6003600981111561345457613453614740565b5b83600981111561346757613466614740565b5b14156134e35761349861348960026000600301546139c490919063ffffffff16565b4361391b90919063ffffffff16565b600060180160008473ffffffffffffffffffffffffffffffffffffffff1673ffffffffffffffffffffffffffffffffffffffff16815260200190815260200160002081905550613827565b600460098111156134f7576134f6614740565b5b83600981111561350a57613509614740565b5b1415613573576135286000600301544361391b90919063ffffffff16565b600060150160008473ffffffffffffffffffffffffffffffffffffffff1673ffffffffffffffffffffffffffffffffffffffff16815260200190815260200160002081905550613826565b6005600981111561358757613586614740565b5b83600981111561359a57613599614740565b5b1415613603576135b86000600301544361391b90919063ffffffff16565b600060120160008473ffffffffffffffffffffffffffffffffffffffff1673ffffffffffffffffffffffffffffffffffffffff16815260200190815260200160002081905550613825565b6006600981111561361757613616614740565b5b83600981111561362a57613629614740565b5b14156136a65761365b61364c60026000600301546139c490919063ffffffff16565b4361391b90919063ffffffff16565b6000601b0160008473ffffffffffffffffffffffffffffffffffffffff1673ffffffffffffffffffffffffffffffffffffffff16815260200190815260200160002081905550613824565b600760098111156136ba576136b9614740565b5b8360098111156136cd576136cc614740565b5b1415613736576136eb6000600301544361391b90919063ffffffff16565b6000601e0160008473ffffffffffffffffffffffffffffffffffffffff1673ffffffffffffffffffffffffffffffffffffffff16815260200190815260200160002081905550613823565b6008600981111561374a57613749614740565b5b83600981111561375d5761375c614740565b5b14156137c65761377b6000600301544361391b90919063ffffffff16565b600060220160008473ffffffffffffffffffffffffffffffffffffffff1673ffffffffffffffffffffffffffffffffffffffff16815260200190815260200160002081905550613822565b6009808111156137d9576137d8614740565b5b8360098111156137ec576137eb614740565b5b14156138185761380a6000600301544361391b90919063ffffffff16565b600060050181905550613821565b60009050613879565b5b5b5b5b5b5b5b5b5b82600981111561383d5761383c614740565b5b7f0e4f2c4b5bc209d509bc3d49348c787fefadc66a79351b470599ac0f5be52eaf8360405161386c919061443b565b60405180910390a2600190505b92915050565b6000818361388d9190614798565b905092915050565b6139168363a9059cbb60e01b84846040516024016138b492919061433b565b604051602081830303815290604052907bffffffffffffffffffffffffffffffffffffffffffffffffffffffff19166020820180517bffffffffffffffffffffffffffffffffffffffffffffffffffffffff8381831617835250505050613c08565b505050565b6000818361392991906147cc565b905092915050565b613939613ccf565b565b6139be846323b872dd60e01b85858560405160240161395c93929190614822565b604051602081830303815290604052907bffffffffffffffffffffffffffffffffffffffffffffffffffffffff19166020820180517bffffffffffffffffffffffffffffffffffffffffffffffffffffffff8381831617835250505050613c08565b50505050565b600081836139d29190614859565b905092915050565b600081836139e891906148e2565b905092915050565b60008260008373ffffffffffffffffffffffffffffffffffffffff1673ffffffffffffffffffffffffffffffffffffffff16815260200190815260200160002060009054906101000a900460ff16613b4e5760008460008473ffffffffffffffffffffffffffffffffffffffff1673ffffffffffffffffffffffffffffffffffffffff168152602001908152602001600020541415613ac4576040517f08c379a0000000000000000000000000000000000000000000000000000000008152600401613abb9061495f565b60405180910390fd5b438460008473ffffffffffffffffffffffffffffffffffffffff1673ffffffffffffffffffffffffffffffffffffffff168152602001908152602001600020541115613b45576040517f08c379a0000000000000000000000000000000000000000000000000000000008152600401613b3c906149cb565b60405180910390fd5b60019050613b53565b600090505b9392505050565b600080600090505b8380549050811015613bfc578273ffffffffffffffffffffffffffffffffffffffff16848281548110613b9857613b9761451b565b5b9060005260206000200160009054906101000a900473ffffffffffffffffffffffffffffffffffffffff1673ffffffffffffffffffffffffffffffffffffffff161415613be9576001915050613c02565b8080613bf490614579565b915050613b62565b50600090505b92915050565b6000613c6a826040518060400160405280602081526020017f5361666545524332303a206c6f772d6c6576656c2063616c6c206661696c65648152508573ffffffffffffffffffffffffffffffffffffffff16613d6a9092919063ffffffff16565b9050600081511115613cca5780806020019051810190613c8a91906144ee565b613cc9576040517f08c379a0000000000000000000000000000000000000000000000000000000008152600401613cc090614a5d565b60405180910390fd5b5b505050565b613cd7613d82565b60040160009054906101000a900473ffffffffffffffffffffffffffffffffffffffff1673ffffffffffffffffffffffffffffffffffffffff163373ffffffffffffffffffffffffffffffffffffffff1614613d68576040517f08c379a0000000000000000000000000000000000000000000000000000000008152600401613d5f90614aef565b60405180910390fd5b565b6060613d798484600085613daf565b90509392505050565b6000807fc8fcad8db84d3cc18b4c41d551ea0ee66dd599cde068d998e57d5e09332c131c90508091505090565b606082471015613df4576040517f08c379a0000000000000000000000000000000000000000000000000000000008152600401613deb90614b81565b60405180910390fd5b613dfd85613ec3565b613e3c576040517f08c379a0000000000000000000000000000000000000000000000000000000008152600401613e3390614bed565b60405180910390fd5b6000808673ffffffffffffffffffffffffffffffffffffffff168587604051613e659190614c87565b60006040518083038185875af1925050503d8060008114613ea2576040519150601f19603f3d011682016040523d82523d6000602084013e613ea7565b606091505b5091509150613eb7828286613ed6565b92505050949350505050565b600080823b905060008111915050919050565b60608315613ee657829050613f36565b600083511115613ef95782518084602001fd5b816040517f08c379a0000000000000000000000000000000000000000000000000000000008152600401613f2d9190614cf3565b60405180910390fd5b9392505050565b600080fd5b6000819050919050565b613f5581613f42565b8114613f6057600080fd5b50565b600081359050613f7281613f4c565b92915050565b600073ffffffffffffffffffffffffffffffffffffffff82169050919050565b6000613fa382613f78565b9050919050565b613fb381613f98565b8114613fbe57600080fd5b50565b600081359050613fd081613faa565b92915050565b60008060408385031215613fed57613fec613f3d565b5b6000613ffb85828601613f63565b925050602061400c85828601613fc1565b9150509250929050565b6000806040838503121561402d5761402c613f3d565b5b600061403b85828601613fc1565b925050602061404c85828601613f63565b9150509250929050565b61405f81613f42565b82525050565b600060208201905061407a6000830184614056565b92915050565b60006020828403121561409657614095613f3d565b5b60006140a484828501613fc1565b91505092915050565b60008115159050919050565b6140c2816140ad565b82525050565b60006020820190506140dd60008301846140b9565b92915050565b6000806000606084860312156140fc576140fb613f3d565b5b600061410a86828701613f63565b935050602061411b86828701613fc1565b925050604061412c86828701613f63565b9150509250925092565b60006020828403121561414c5761414b613f3d565b5b600061415a84828501613f63565b91505092915050565b600a811061417057600080fd5b50565b60008135905061418281614163565b92915050565b6000806040838503121561419f5761419e613f3d565b5b60006141ad85828601614173565b92505060206141be85828601613fc1565b9150509250929050565b600080600080600060a086880312156141e4576141e3613f3d565b5b60006141f288828901613fc1565b955050602061420388828901613fc1565b945050604061421488828901613fc1565b935050606061422588828901613fc1565b925050608061423688828901613f63565b9150509295509295909350565b600082825260208201905092915050565b7f54726561737572793a204e6f7420616363657074656400000000000000000000600082015250565b600061428a601683614243565b915061429582614254565b602082019050919050565b600060208201905081810360008301526142b98161427d565b9050919050565b7f54726561737572793a204e6f7420617070726f76656400000000000000000000600082015250565b60006142f6601683614243565b9150614301826142c0565b602082019050919050565b60006020820190508181036000830152614325816142e9565b9050919050565b61433581613f98565b82525050565b6000604082019050614350600083018561432c565b61435d6020830184614056565b9392505050565b60006040820190506143796000830185614056565b6143866020830184614056565b9392505050565b7f54726561737572793a20496e73756666696369656e7420726573657276657300600082015250565b60006143c3601f83614243565b91506143ce8261438d565b602082019050919050565b600060208201905081810360008301526143f2816143b6565b9050919050565b60008151905061440881613f4c565b92915050565b60006020828403121561442457614423613f3d565b5b6000614432848285016143f9565b91505092915050565b6000602082019050614450600083018461432c565b92915050565b7f457863656564732064656274206c696d69740000000000000000000000000000600082015250565b600061448c601283614243565b915061449782614456565b602082019050919050565b600060208201905081810360008301526144bb8161447f565b9050919050565b6144cb816140ad565b81146144d657600080fd5b50565b6000815190506144e8816144c2565b92915050565b60006020828403121561450457614503613f3d565b5b6000614512848285016144d9565b91505092915050565b7f4e487b7100000000000000000000000000000000000000000000000000000000600052603260045260246000fd5b7f4e487b7100000000000000000000000000000000000000000000000000000000600052601160045260246000fd5b600061458482613f42565b91507fffffffffffffffffffffffffffffffffffffffffffffffffffffffffffffffff8214156145b7576145b661454a565b5b600182019050919050565b60008160011c9050919050565b6000808291508390505b6001851115614619578086048111156145f5576145f461454a565b5b60018516156146045780820291505b8081029050614612856145c2565b94506145d9565b94509492505050565b60008261463257600190506146ee565b8161464057600090506146ee565b816001811461465657600281146146605761468f565b60019150506146ee565b60ff8411156146725761467161454a565b5b8360020a9150848211156146895761468861454a565b5b506146ee565b5060208310610133831016604e8410600b84101617156146c45782820a9050838111156146bf576146be61454a565b5b6146ee565b6146d184848460016145cf565b925090508184048111156146e8576146e761454a565b5b81810290505b9392505050565b600061470082613f42565b915061470b83613f42565b92506147387fffffffffffffffffffffffffffffffffffffffffffffffffffffffffffffffff8484614622565b905092915050565b7f4e487b7100000000000000000000000000000000000000000000000000000000600052602160045260246000fd5b6000604082019050614784600083018561432c565b61479160208301846140b9565b9392505050565b60006147a382613f42565b91506147ae83613f42565b9250828210156147c1576147c061454a565b5b828203905092915050565b60006147d782613f42565b91506147e283613f42565b9250827fffffffffffffffffffffffffffffffffffffffffffffffffffffffffffffffff038211156148175761481661454a565b5b828201905092915050565b6000606082019050614837600083018661432c565b614844602083018561432c565b6148516040830184614056565b949350505050565b600061486482613f42565b915061486f83613f42565b9250817fffffffffffffffffffffffffffffffffffffffffffffffffffffffffffffffff04831182151516156148a8576148a761454a565b5b828202905092915050565b7f4e487b7100000000000000000000000000000000000000000000000000000000600052601260045260246000fd5b60006148ed82613f42565b91506148f883613f42565b925082614908576149076148b3565b5b828204905092915050565b7f4d75737420717565756500000000000000000000000000000000000000000000600082015250565b6000614949600a83614243565b915061495482614913565b602082019050919050565b600060208201905081810360008301526149788161493c565b9050919050565b7f5175657565206e6f742065787069726564000000000000000000000000000000600082015250565b60006149b5601183614243565b91506149c08261497f565b602082019050919050565b600060208201905081810360008301526149e4816149a8565b9050919050565b7f5361666545524332303a204552433230206f7065726174696f6e20646964206e60008201527f6f74207375636365656400000000000000000000000000000000000000000000602082015250565b6000614a47602a83614243565b9150614a52826149eb565b604082019050919050565b60006020820190508181036000830152614a7681614a3a565b9050919050565b7f4c69624469616d6f6e643a20696e76616c696420636f6e7472616374206f776e60008201527f6572000000000000000000000000000000000000000000000000000000000000602082015250565b6000614ad9602283614243565b9150614ae482614a7d565b604082019050919050565b60006020820190508181036000830152614b0881614acc565b9050919050565b7f416464726573733a20696e73756666696369656e742062616c616e636520666f60008201527f722063616c6c0000000000000000000000000000000000000000000000000000602082015250565b6000614b6b602683614243565b9150614b7682614b0f565b604082019050919050565b60006020820190508181036000830152614b9a81614b5e565b9050919050565b7f416464726573733a2063616c6c20746f206e6f6e2d636f6e7472616374000000600082015250565b6000614bd7601d83614243565b9150614be282614ba1565b602082019050919050565b60006020820190508181036000830152614c0681614bca565b9050919050565b600081519050919050565b600081905092915050565b60005b83811015614c41578082015181840152602081019050614c26565b83811115614c50576000848401525b50505050565b6000614c6182614c0d565b614c6b8185614c18565b9350614c7b818560208601614c23565b80840191505092915050565b6000614c938284614c56565b915081905092915050565b600081519050919050565b6000601f19601f8301169050919050565b6000614cc582614c9e565b614ccf8185614243565b9350614cdf818560208601614c23565b614ce881614ca9565b840191505092915050565b60006020820190508181036000830152614d0d8184614cba565b90509291505056fea2646970667358221220dbcc856796d3e36b980c52a7ec2345083b50db817cd9424c8fa04b0b3aa68d8264736f6c634300080a0033",
  "devdoc": {
    "kind": "dev",
    "methods": {
      "deposit(uint256,address,uint256)": {
        "params": {
          "_amount": "uint",
          "_profit": "uint",
          "_token": "address"
        },
        "returns": {
          "send_": "uint"
        }
      },
      "excessReserves()": {
        "returns": {
          "_0": "uint"
        }
      },
      "incurDebt(uint256,address)": {
        "params": {
          "_amount": "uint",
          "_token": "address"
        }
      },
      "manage(address,uint256)": {
        "params": {
          "_amount": "uint",
          "_token": "address"
        }
      },
      "queue(uint8,address)": {
        "params": {
          "_address": "address",
          "_managing": "MANAGING"
        },
        "returns": {
          "_0": "bool"
        }
      },
      "repayDebtWithNecc(uint256)": {
        "params": {
          "_amount": "uint"
        }
      },
      "repayDebtWithReserve(uint256,address)": {
        "params": {
          "_amount": "uint",
          "_token": "address"
        }
      },
      "toggle(uint8,address)": {
        "params": {
          "_address": "address",
          "_managing": "MANAGING"
        },
        "returns": {
          "_0": "bool"
        }
      },
      "valueOfToken(address,uint256)": {
        "params": {
          "_amount": "uint",
          "_token": "address"
        },
        "returns": {
          "_value": "uint"
        }
      },
      "withdraw(uint256,address)": {
        "params": {
          "_amount": "uint",
          "_token": "address"
        }
      }
    },
    "version": 1
  },
  "userdoc": {
    "kind": "user",
    "methods": {
      "auditReserves()": {
        "notice": "takes inventory of all tracked assetsalways consolidate to recognized reserves before audit"
      },
      "deposit(uint256,address,uint256)": {
        "notice": "allow approved address to deposit an asset for Necc"
      },
      "excessReserves()": {
        "notice": "returns excess reserves not backing tokens"
      },
      "incurDebt(uint256,address)": {
        "notice": "allow approved address to borrow reserves"
      },
      "manage(address,uint256)": {
        "notice": "allow approved address to withdraw assets"
      },
      "mintRewards(address,uint256)": {
        "notice": "send epoch reward to staking contract"
      },
      "queue(uint8,address)": {
        "notice": "queue address to change boolean in mapping"
      },
      "repayDebtWithNecc(uint256)": {
        "notice": "allow approved address to repay borrowed reserves with Necc"
      },
      "repayDebtWithReserve(uint256,address)": {
        "notice": "allow approved address to repay borrowed reserves with reserves"
      },
      "toggle(uint8,address)": {
        "notice": "verify queue then set boolean in mapping"
      },
      "valueOfToken(address,uint256)": {
        "notice": "returns Necc valuation of asset"
      },
      "withdraw(uint256,address)": {
        "notice": "allow approved address to burn Necc for reserves"
      }
    },
    "version": 1
  },
  "storageLayout": {
    "storage": [
      {
        "astId": 2361,
        "contract": "contracts/facets/Treasury/TreasuryFacet.sol:TreasuryFacet",
        "label": "s",
        "offset": 0,
        "slot": "0",
        "type": "t_struct(Storage)5213_storage"
      }
    ],
    "types": {
      "t_address": {
        "encoding": "inplace",
        "label": "address",
        "numberOfBytes": "20"
      },
      "t_array(t_address)dyn_storage": {
        "base": "t_address",
        "encoding": "dynamic_array",
        "label": "address[]",
        "numberOfBytes": "32"
      },
      "t_bool": {
        "encoding": "inplace",
        "label": "bool",
        "numberOfBytes": "1"
      },
      "t_mapping(t_address,t_bool)": {
        "encoding": "mapping",
        "key": "t_address",
        "label": "mapping(address => bool)",
        "numberOfBytes": "32",
        "value": "t_bool"
      },
      "t_mapping(t_address,t_uint256)": {
        "encoding": "mapping",
        "key": "t_address",
        "label": "mapping(address => uint256)",
        "numberOfBytes": "32",
        "value": "t_uint256"
      },
      "t_struct(Storage)5213_storage": {
        "encoding": "inplace",
        "label": "struct LibTreasuryStorage.Storage",
        "members": [
          {
            "astId": 5097,
            "contract": "contracts/facets/Treasury/TreasuryFacet.sol:TreasuryFacet",
            "label": "Necc",
            "offset": 0,
            "slot": "0",
            "type": "t_address"
          },
          {
            "astId": 5099,
            "contract": "contracts/facets/Treasury/TreasuryFacet.sol:TreasuryFacet",
            "label": "sNecc",
            "offset": 0,
            "slot": "1",
            "type": "t_address"
          },
          {
            "astId": 5101,
            "contract": "contracts/facets/Treasury/TreasuryFacet.sol:TreasuryFacet",
            "label": "nNecc",
            "offset": 0,
            "slot": "2",
            "type": "t_address"
          },
          {
            "astId": 5103,
            "contract": "contracts/facets/Treasury/TreasuryFacet.sol:TreasuryFacet",
            "label": "blocksNeededForQueue",
            "offset": 0,
            "slot": "3",
            "type": "t_uint256"
          },
          {
            "astId": 5106,
            "contract": "contracts/facets/Treasury/TreasuryFacet.sol:TreasuryFacet",
            "label": "reserveTokens",
            "offset": 0,
            "slot": "4",
            "type": "t_array(t_address)dyn_storage"
          },
          {
            "astId": 5108,
            "contract": "contracts/facets/Treasury/TreasuryFacet.sol:TreasuryFacet",
            "label": "sNeccQueue",
            "offset": 0,
            "slot": "5",
            "type": "t_uint256"
          },
          {
            "astId": 5110,
            "contract": "contracts/facets/Treasury/TreasuryFacet.sol:TreasuryFacet",
            "label": "totalReserves",
            "offset": 0,
            "slot": "6",
            "type": "t_uint256"
          },
          {
            "astId": 5112,
            "contract": "contracts/facets/Treasury/TreasuryFacet.sol:TreasuryFacet",
            "label": "totalDebt",
            "offset": 0,
            "slot": "7",
            "type": "t_uint256"
          },
          {
            "astId": 5116,
            "contract": "contracts/facets/Treasury/TreasuryFacet.sol:TreasuryFacet",
            "label": "isReserveToken",
            "offset": 0,
            "slot": "8",
            "type": "t_mapping(t_address,t_bool)"
          },
          {
            "astId": 5120,
            "contract": "contracts/facets/Treasury/TreasuryFacet.sol:TreasuryFacet",
            "label": "reserveTokenQueue",
            "offset": 0,
            "slot": "9",
            "type": "t_mapping(t_address,t_uint256)"
          },
          {
            "astId": 5123,
            "contract": "contracts/facets/Treasury/TreasuryFacet.sol:TreasuryFacet",
            "label": "reserveDepositors",
            "offset": 0,
            "slot": "10",
            "type": "t_array(t_address)dyn_storage"
          },
          {
            "astId": 5127,
            "contract": "contracts/facets/Treasury/TreasuryFacet.sol:TreasuryFacet",
            "label": "isReserveDepositor",
            "offset": 0,
            "slot": "11",
            "type": "t_mapping(t_address,t_bool)"
          },
          {
            "astId": 5131,
            "contract": "contracts/facets/Treasury/TreasuryFacet.sol:TreasuryFacet",
            "label": "reserveDepositorQueue",
            "offset": 0,
            "slot": "12",
            "type": "t_mapping(t_address,t_uint256)"
          },
          {
            "astId": 5134,
            "contract": "contracts/facets/Treasury/TreasuryFacet.sol:TreasuryFacet",
            "label": "reserveSpenders",
            "offset": 0,
            "slot": "13",
            "type": "t_array(t_address)dyn_storage"
          },
          {
            "astId": 5138,
            "contract": "contracts/facets/Treasury/TreasuryFacet.sol:TreasuryFacet",
            "label": "isReserveSpender",
            "offset": 0,
            "slot": "14",
            "type": "t_mapping(t_address,t_bool)"
          },
          {
            "astId": 5142,
            "contract": "contracts/facets/Treasury/TreasuryFacet.sol:TreasuryFacet",
            "label": "reserveSpenderQueue",
            "offset": 0,
            "slot": "15",
            "type": "t_mapping(t_address,t_uint256)"
          },
          {
            "astId": 5145,
            "contract": "contracts/facets/Treasury/TreasuryFacet.sol:TreasuryFacet",
            "label": "liquidityTokens",
            "offset": 0,
            "slot": "16",
            "type": "t_array(t_address)dyn_storage"
          },
          {
            "astId": 5149,
            "contract": "contracts/facets/Treasury/TreasuryFacet.sol:TreasuryFacet",
            "label": "isLiquidityToken",
            "offset": 0,
            "slot": "17",
            "type": "t_mapping(t_address,t_bool)"
          },
          {
            "astId": 5153,
            "contract": "contracts/facets/Treasury/TreasuryFacet.sol:TreasuryFacet",
            "label": "LiquidityTokenQueue",
            "offset": 0,
            "slot": "18",
            "type": "t_mapping(t_address,t_uint256)"
          },
          {
            "astId": 5156,
            "contract": "contracts/facets/Treasury/TreasuryFacet.sol:TreasuryFacet",
            "label": "liquidityDepositors",
            "offset": 0,
            "slot": "19",
            "type": "t_array(t_address)dyn_storage"
          },
          {
            "astId": 5160,
            "contract": "contracts/facets/Treasury/TreasuryFacet.sol:TreasuryFacet",
            "label": "isLiquidityDepositor",
            "offset": 0,
            "slot": "20",
            "type": "t_mapping(t_address,t_bool)"
          },
          {
            "astId": 5164,
            "contract": "contracts/facets/Treasury/TreasuryFacet.sol:TreasuryFacet",
            "label": "LiquidityDepositorQueue",
            "offset": 0,
            "slot": "21",
            "type": "t_mapping(t_address,t_uint256)"
          },
          {
            "astId": 5167,
            "contract": "contracts/facets/Treasury/TreasuryFacet.sol:TreasuryFacet",
            "label": "reserveManagers",
            "offset": 0,
            "slot": "22",
            "type": "t_array(t_address)dyn_storage"
          },
          {
            "astId": 5171,
            "contract": "contracts/facets/Treasury/TreasuryFacet.sol:TreasuryFacet",
            "label": "isReserveManager",
            "offset": 0,
            "slot": "23",
            "type": "t_mapping(t_address,t_bool)"
          },
          {
            "astId": 5175,
            "contract": "contracts/facets/Treasury/TreasuryFacet.sol:TreasuryFacet",
            "label": "ReserveManagerQueue",
            "offset": 0,
            "slot": "24",
            "type": "t_mapping(t_address,t_uint256)"
          },
          {
            "astId": 5178,
            "contract": "contracts/facets/Treasury/TreasuryFacet.sol:TreasuryFacet",
            "label": "liquidityManagers",
            "offset": 0,
            "slot": "25",
            "type": "t_array(t_address)dyn_storage"
          },
          {
            "astId": 5182,
            "contract": "contracts/facets/Treasury/TreasuryFacet.sol:TreasuryFacet",
            "label": "isLiquidityManager",
            "offset": 0,
            "slot": "26",
            "type": "t_mapping(t_address,t_bool)"
          },
          {
            "astId": 5186,
            "contract": "contracts/facets/Treasury/TreasuryFacet.sol:TreasuryFacet",
            "label": "LiquidityManagerQueue",
            "offset": 0,
            "slot": "27",
            "type": "t_mapping(t_address,t_uint256)"
          },
          {
            "astId": 5189,
            "contract": "contracts/facets/Treasury/TreasuryFacet.sol:TreasuryFacet",
            "label": "debtors",
            "offset": 0,
            "slot": "28",
            "type": "t_array(t_address)dyn_storage"
          },
          {
            "astId": 5193,
            "contract": "contracts/facets/Treasury/TreasuryFacet.sol:TreasuryFacet",
            "label": "isDebtor",
            "offset": 0,
            "slot": "29",
            "type": "t_mapping(t_address,t_bool)"
          },
          {
            "astId": 5197,
            "contract": "contracts/facets/Treasury/TreasuryFacet.sol:TreasuryFacet",
            "label": "debtorQueue",
            "offset": 0,
            "slot": "30",
            "type": "t_mapping(t_address,t_uint256)"
          },
          {
            "astId": 5201,
            "contract": "contracts/facets/Treasury/TreasuryFacet.sol:TreasuryFacet",
            "label": "debtorBalance",
            "offset": 0,
            "slot": "31",
            "type": "t_mapping(t_address,t_uint256)"
          },
          {
            "astId": 5204,
            "contract": "contracts/facets/Treasury/TreasuryFacet.sol:TreasuryFacet",
            "label": "rewardManagers",
            "offset": 0,
            "slot": "32",
            "type": "t_array(t_address)dyn_storage"
          },
          {
            "astId": 5208,
            "contract": "contracts/facets/Treasury/TreasuryFacet.sol:TreasuryFacet",
            "label": "isRewardManager",
            "offset": 0,
            "slot": "33",
            "type": "t_mapping(t_address,t_bool)"
          },
          {
            "astId": 5212,
            "contract": "contracts/facets/Treasury/TreasuryFacet.sol:TreasuryFacet",
            "label": "rewardManagerQueue",
            "offset": 0,
            "slot": "34",
            "type": "t_mapping(t_address,t_uint256)"
          }
        ],
        "numberOfBytes": "1120"
      },
      "t_uint256": {
        "encoding": "inplace",
        "label": "uint256",
        "numberOfBytes": "32"
      }
    }
  }
}