{
  "address": "0xB870f28265b67d9E10B3B7A6d8301b5083dE02B3",
  "abi": [
    {
      "anonymous": false,
      "inputs": [
        {
          "indexed": false,
          "internalType": "address",
          "name": "account",
          "type": "address"
        },
        {
          "indexed": false,
          "internalType": "address",
          "name": "token",
          "type": "address"
        },
        {
          "indexed": false,
          "internalType": "uint256",
          "name": "tokenAmount",
          "type": "uint256"
        },
        {
          "indexed": false,
          "internalType": "uint256",
          "name": "ndolAmount",
          "type": "uint256"
        }
      ],
      "name": "BuyNDOL",
      "type": "event"
    },
    {
      "anonymous": false,
      "inputs": [
        {
          "indexed": false,
          "internalType": "address",
          "name": "account",
          "type": "address"
        },
        {
          "indexed": false,
          "internalType": "address",
          "name": "token",
          "type": "address"
        },
        {
          "indexed": false,
          "internalType": "uint256",
          "name": "ndolAmount",
          "type": "uint256"
        },
        {
          "indexed": false,
          "internalType": "uint256",
          "name": "tokenAmount",
          "type": "uint256"
        }
      ],
      "name": "SellNDOL",
      "type": "event"
    },
    {
      "anonymous": false,
      "inputs": [
        {
          "indexed": false,
          "internalType": "address",
          "name": "account",
          "type": "address"
        },
        {
          "indexed": false,
          "internalType": "address",
          "name": "tokenIn",
          "type": "address"
        },
        {
          "indexed": false,
          "internalType": "address",
          "name": "tokenOut",
          "type": "address"
        },
        {
          "indexed": false,
          "internalType": "uint256",
          "name": "amountIn",
          "type": "uint256"
        },
        {
          "indexed": false,
          "internalType": "uint256",
          "name": "amountOut",
          "type": "uint256"
        }
      ],
      "name": "Swap",
      "type": "event"
    },
    {
      "inputs": [
        {
          "internalType": "address",
          "name": "_token",
          "type": "address"
        }
      ],
      "name": "availableReserve",
      "outputs": [
        {
          "internalType": "uint256",
          "name": "",
          "type": "uint256"
        }
      ],
      "stateMutability": "view",
      "type": "function"
    },
    {
      "inputs": [
        {
          "internalType": "address",
          "name": "_token",
          "type": "address"
        },
        {
          "internalType": "address",
          "name": "_receiver",
          "type": "address"
        }
      ],
      "name": "buyNDOL",
      "outputs": [
        {
          "internalType": "uint256",
          "name": "",
          "type": "uint256"
        }
      ],
      "stateMutability": "nonpayable",
      "type": "function"
    },
    {
      "inputs": [
        {
          "internalType": "address",
          "name": "_token",
          "type": "address"
        }
      ],
      "name": "feeReserves",
      "outputs": [
        {
          "internalType": "uint256",
          "name": "",
          "type": "uint256"
        }
      ],
      "stateMutability": "view",
      "type": "function"
    },
    {
      "inputs": [
        {
          "internalType": "address",
          "name": "_token",
          "type": "address"
        },
        {
          "internalType": "uint256",
          "name": "_ndolAmount",
          "type": "uint256"
        }
      ],
      "name": "getRedemptionAmount",
      "outputs": [
        {
          "internalType": "uint256",
          "name": "",
          "type": "uint256"
        }
      ],
      "stateMutability": "view",
      "type": "function"
    },
    {
      "inputs": [
        {
          "internalType": "address",
          "name": "_token",
          "type": "address"
        }
      ],
      "name": "getRedemptionBasisPoints",
      "outputs": [
        {
          "internalType": "uint256",
          "name": "",
          "type": "uint256"
        }
      ],
      "stateMutability": "view",
      "type": "function"
    },
    {
      "inputs": [
        {
          "internalType": "address",
          "name": "_token",
          "type": "address"
        }
      ],
      "name": "getRedemptionCollateral",
      "outputs": [
        {
          "internalType": "uint256",
          "name": "",
          "type": "uint256"
        }
      ],
      "stateMutability": "view",
      "type": "function"
    },
    {
      "inputs": [
        {
          "internalType": "address",
          "name": "_token",
          "type": "address"
        }
      ],
      "name": "getRedemptionCollateralUsd",
      "outputs": [
        {
          "internalType": "uint256",
          "name": "",
          "type": "uint256"
        }
      ],
      "stateMutability": "view",
      "type": "function"
    },
    {
      "inputs": [
        {
          "internalType": "address",
          "name": "_token",
          "type": "address"
        },
        {
          "internalType": "uint256",
          "name": "_fee",
          "type": "uint256"
        }
      ],
      "name": "getTargetAdjustedFee",
      "outputs": [
        {
          "internalType": "uint256",
          "name": "",
          "type": "uint256"
        }
      ],
      "stateMutability": "view",
      "type": "function"
    },
    {
      "inputs": [
        {
          "internalType": "address",
          "name": "_token",
          "type": "address"
        }
      ],
      "name": "guaranteedUsd",
      "outputs": [
        {
          "internalType": "uint256",
          "name": "",
          "type": "uint256"
        }
      ],
      "stateMutability": "view",
      "type": "function"
    },
    {
      "inputs": [],
      "name": "ndol",
      "outputs": [
        {
          "internalType": "address",
          "name": "",
          "type": "address"
        }
      ],
      "stateMutability": "view",
      "type": "function"
    },
    {
      "inputs": [
        {
          "internalType": "address",
          "name": "_token",
          "type": "address"
        }
      ],
      "name": "ndolAmounts",
      "outputs": [
        {
          "internalType": "uint256",
          "name": "",
          "type": "uint256"
        }
      ],
      "stateMutability": "view",
      "type": "function"
    },
    {
      "inputs": [
        {
          "internalType": "address",
          "name": "_token",
          "type": "address"
        }
      ],
      "name": "poolAmounts",
      "outputs": [
        {
          "internalType": "uint256",
          "name": "",
          "type": "uint256"
        }
      ],
      "stateMutability": "view",
      "type": "function"
    },
    {
      "inputs": [
        {
          "internalType": "address",
          "name": "_token",
          "type": "address"
        }
      ],
      "name": "reservedAmounts",
      "outputs": [
        {
          "internalType": "uint256",
          "name": "",
          "type": "uint256"
        }
      ],
      "stateMutability": "view",
      "type": "function"
    },
    {
      "inputs": [
        {
          "internalType": "address",
          "name": "_token",
          "type": "address"
        },
        {
          "internalType": "address",
          "name": "_receiver",
          "type": "address"
        }
      ],
      "name": "sellNDOL",
      "outputs": [
        {
          "internalType": "uint256",
          "name": "",
          "type": "uint256"
        }
      ],
      "stateMutability": "nonpayable",
      "type": "function"
    },
    {
      "inputs": [
        {
          "internalType": "address",
          "name": "_tokenIn",
          "type": "address"
        },
        {
          "internalType": "address",
          "name": "_tokenOut",
          "type": "address"
        },
        {
          "internalType": "address",
          "name": "_receiver",
          "type": "address"
        }
      ],
      "name": "swap",
      "outputs": [
        {
          "internalType": "uint256",
          "name": "",
          "type": "uint256"
        }
      ],
      "stateMutability": "nonpayable",
      "type": "function"
    },
    {
      "inputs": [],
      "name": "swapFeeBasisPoints",
      "outputs": [
        {
          "internalType": "uint256",
          "name": "",
          "type": "uint256"
        }
      ],
      "stateMutability": "pure",
      "type": "function"
    }
  ],
  "transactionHash": "0xef7f5405987294f2c29b6a1575c43f2818b947862259c4a36ee8036e48162c8d",
  "args": [],
  "solcInputHash": "b437087eed193de6e0d6e1605137156c",
  "bytecode": "0x608060405234801561001057600080fd5b5060008060000160006101000a81548160ff0219169083151502179055506138c68061003d6000396000f3fe608060405234801561001057600080fd5b50600436106101005760003560e01c8063a22f239211610097578063b319ce0f11610066578063b319ce0f14610321578063c3c7b9e914610351578063e62b398014610381578063f07456ce146103b157610100565b8063a22f239214610285578063aa406656146102a3578063ac1a91e4146102c1578063b136ca49146102f157610100565b80637c1fb317116100d35780637c1fb317146101c5578063815b3c74146101f55780639331621214610225578063960e9ec71461025557610100565b80631ce9cb8f1461010557806329ff9615146101355780632c668ec11461016557806352f55eed14610195575b600080fd5b61011f600480360381019061011a9190612b4f565b6103e1565b60405161012c9190612b95565b60405180910390f35b61014f600480360381019061014a9190612b4f565b61042c565b60405161015c9190612b95565b60405180910390f35b61017f600480360381019061017a9190612bdc565b610449565b60405161018c9190612b95565b60405180910390f35b6101af60048036038101906101aa9190612b4f565b6104d6565b6040516101bc9190612b95565b60405180910390f35b6101df60048036038101906101da9190612c1c565b610521565b6040516101ec9190612b95565b60405180910390f35b61020f600480360381019061020a9190612b4f565b610795565b60405161021c9190612b95565b60405180910390f35b61023f600480360381019061023a9190612c5c565b610871565b60405161024c9190612b95565b60405180910390f35b61026f600480360381019061026a9190612b4f565b610b44565b60405161027c9190612b95565b60405180910390f35b61028d610b8f565b60405161029a9190612b95565b60405180910390f35b6102ab610b98565b6040516102b89190612cbe565b60405180910390f35b6102db60048036038101906102d69190612c1c565b610bc4565b6040516102e89190612b95565b60405180910390f35b61030b60048036038101906103069190612b4f565b610e62565b6040516103189190612b95565b60405180910390f35b61033b60048036038101906103369190612bdc565b610f66565b6040516103489190612b95565b60405180910390f35b61036b60048036038101906103669190612b4f565b61101d565b6040516103789190612b95565b60405180910390f35b61039b60048036038101906103969190612b4f565b611068565b6040516103a89190612b95565b60405180910390f35b6103cb60048036038101906103c69190612b4f565b6110b3565b6040516103d89190612b95565b60405180910390f35b60008060110160008373ffffffffffffffffffffffffffffffffffffffff1673ffffffffffffffffffffffffffffffffffffffff168152602001908152602001600020549050919050565b600061044260008361043d85610e62565b6110fe565b9050919050565b60008061046884600060020160149054906101000a900460ff166111b3565b90506104cd60006104a1836104936c0c9f2c9cd04674edea400000008861123c90919063ffffffff16565b61125290919063ffffffff16565b600060020160009054906101000a900473ffffffffffffffffffffffffffffffffffffffff1687611268565b91505092915050565b600080600c0160008373ffffffffffffffffffffffffffffffffffffffff1673ffffffffffffffffffffffffffffffffffffffff168152602001908152602001600020549050919050565b600061052b6113fc565b61053660008461146d565b600061056760008060020160009054906101000a900473ffffffffffffffffffffffffffffffffffffffff166114ff565b9050600081116105ac576040517f08c379a00000000000000000000000000000000000000000000000000000000081526004016105a390612d36565b60405180910390fd5b6105b7600085611627565b60006105c38583610449565b905060008111610608576040517f08c379a00000000000000000000000000000000000000000000000000000000081526004016105ff90612da2565b60405180910390fd5b610614600086836118db565b610620600086846119fd565b600060020160009054906101000a900473ffffffffffffffffffffffffffffffffffffffff1673ffffffffffffffffffffffffffffffffffffffff16639dc29fac30846040518363ffffffff1660e01b8152600401610680929190612dc2565b600060405180830381600087803b15801561069a57600080fd5b505af11580156106ae573d6000803e3d6000fd5b505050506106e160008060020160009054906101000a900473ffffffffffffffffffffffffffffffffffffffff16611b68565b60006106f1600087846000611c31565b91505060008111610737576040517f08c379a000000000000000000000000000000000000000000000000000000000815260040161072e90612e37565b60405180910390fd5b7f6594c085ce57a04be39674da8f13d46fc935b31a90473a5e89173d32e8f3c5258587858460405161076c9493929190612e57565b60405180910390a16107816000878388611d97565b610789611e99565b80935050505092915050565b6000808273ffffffffffffffffffffffffffffffffffffffff166370a08231306040518263ffffffff1660e01b81526004016107d19190612cbe565b602060405180830381865afa1580156107ee573d6000803e3d6000fd5b505050506040513d601f19601f820116820180604052508101906108129190612eb1565b90506108696000600d0160008573ffffffffffffffffffffffffffffffffffffffff1673ffffffffffffffffffffffffffffffffffffffff1681526020019081526020016000205482611eb890919063ffffffff16565b915050919050565b600061087b6113fc565b600060020160159054906101000a900460ff166108cd576040517f08c379a00000000000000000000000000000000000000000000000000000000081526004016108c490612f2a565b60405180910390fd5b8273ffffffffffffffffffffffffffffffffffffffff168473ffffffffffffffffffffffffffffffffffffffff16141561093c576040517f08c379a000000000000000000000000000000000000000000000000000000000815260040161093390612f96565b60405180910390fd5b61094760008561146d565b61095260008461146d565b61095d600085611627565b610968600084611627565b60006109756000866114ff565b9050600081116109ba576040517f08c379a00000000000000000000000000000000000000000000000000000000081526004016109b190613002565b60405180910390fd5b60006109d886600060020160149054906101000a900460ff16611ece565b905060006109f886600060020160149054906101000a900460ff166111b3565b90506000610a2182610a13858761123c90919063ffffffff16565b61125290919063ffffffff16565b9050610a306000828a8a611268565b90506000610a42600089846000611c31565b9150506000610a796c0c9f2c9cd04674edea40000000610a6b878961123c90919063ffffffff16565b61125290919063ffffffff16565b9050610aad6000828c600060020160009054906101000a900473ffffffffffffffffffffffffffffffffffffffff16611268565b9050610abb60008b83611f57565b610ac760008a836119fd565b610ad360008b8861202e565b50610ae060008a856118db565b7fcd3829a3813dc3cdd188fd3d01dcf3268c16be2fdd2dd21d0665418816e46062888b8b8986604051610b17959493929190613022565b60405180910390a1610b2c60008a848b611d97565b610b34611e99565b8196505050505050509392505050565b600080600b0160008373ffffffffffffffffffffffffffffffffffffffff1673ffffffffffffffffffffffffffffffffffffffff168152602001908152602001600020549050919050565b6000601e905090565b60008060020160009054906101000a900473ffffffffffffffffffffffffffffffffffffffff16905090565b6000610bce6113fc565b600060020160159054906101000a900460ff16610c20576040517f08c379a0000000000000000000000000000000000000000000000000000000008152600401610c1790612f2a565b60405180910390fd5b610c2b60008461146d565b6000610c4984600060020160149054906101000a900460ff16611ece565b90506000610c586000866114ff565b905060008111610c9d576040517f08c379a0000000000000000000000000000000000000000000000000000000008152600401610c9490612e37565b60405180910390fd5b610ca8600086611627565b6000610cb8600087846001611c31565b9150506000610d206000610cf46c0c9f2c9cd04674edea40000000610ce6888761123c90919063ffffffff16565b61125290919063ffffffff16565b89600060020160009054906101000a900473ffffffffffffffffffffffffffffffffffffffff16611268565b905060008111610d65576040517f08c379a0000000000000000000000000000000000000000000000000000000008152600401610d5c90612d36565b60405180910390fd5b610d716000888461202e565b50610d7e60008883611f57565b7f6dfa09b69ab61b0cb6354b7d2934207d73ea106cba99e489a1a2728862009d9186888584604051610db39493929190612e57565b60405180910390a1600060020160009054906101000a900473ffffffffffffffffffffffffffffffffffffffff1673ffffffffffffffffffffffffffffffffffffffff166340c10f1987836040518363ffffffff1660e01b8152600401610e1b929190612dc2565b600060405180830381600087803b158015610e3557600080fd5b505af1158015610e49573d6000803e3d6000fd5b50505050610e55611e99565b8094505050505092915050565b600080610eb36000846000600e0160008773ffffffffffffffffffffffffffffffffffffffff1673ffffffffffffffffffffffffffffffffffffffff16815260200190815260200160002054612157565b9050610f5e6000600d0160008573ffffffffffffffffffffffffffffffffffffffff1673ffffffffffffffffffffffffffffffffffffffff16815260200190815260200160002054610f506000600c0160008773ffffffffffffffffffffffffffffffffffffffff1673ffffffffffffffffffffffffffffffffffffffff168152602001908152602001600020548461219a90919063ffffffff16565b611eb890919063ffffffff16565b915050919050565b6000806000600b0160008573ffffffffffffffffffffffffffffffffffffffff1673ffffffffffffffffffffffffffffffffffffffff1681526020019081526020016000205490506000610fbb6000866121b0565b90506000811480610fcc5750600082145b15610fdb578392505050611017565b80821115610fed578392505050611017565b61101281611004848761123c90919063ffffffff16565b61125290919063ffffffff16565b925050505b92915050565b600080600d0160008373ffffffffffffffffffffffffffffffffffffffff1673ffffffffffffffffffffffffffffffffffffffff168152602001908152602001600020549050919050565b60008060080160008373ffffffffffffffffffffffffffffffffffffffff1673ffffffffffffffffffffffffffffffffffffffff168152602001908152602001600020549050919050565b600080600e0160008373ffffffffffffffffffffffffffffffffffffffff1673ffffffffffffffffffffffffffffffffffffffff168152602001908152602001600020549050919050565b60008082141561111157600090506111ac565b600061112e848660020160149054906101000a900460ff16611ece565b905060008560070160008673ffffffffffffffffffffffffffffffffffffffff1673ffffffffffffffffffffffffffffffffffffffff1681526020019081526020016000205490506111a781600a61118691906131d7565b611199848761123c90919063ffffffff16565b61125290919063ffffffff16565b925050505b9392505050565b60003073ffffffffffffffffffffffffffffffffffffffff16635ae69163846001856040518463ffffffff1660e01b81526004016111f39392919061323d565b602060405180830381865afa158015611210573d6000803e3d6000fd5b505050506040513d601f19601f820116820180604052508101906112349190612eb1565b905092915050565b6000818361124a9190613274565b905092915050565b6000818361126091906132fd565b905092915050565b6000808560020160009054906101000a900473ffffffffffffffffffffffffffffffffffffffff1673ffffffffffffffffffffffffffffffffffffffff168473ffffffffffffffffffffffffffffffffffffffff1614611309578560070160008573ffffffffffffffffffffffffffffffffffffffff1673ffffffffffffffffffffffffffffffffffffffff1681526020019081526020016000205461130c565b60125b905060008660020160009054906101000a900473ffffffffffffffffffffffffffffffffffffffff1673ffffffffffffffffffffffffffffffffffffffff168473ffffffffffffffffffffffffffffffffffffffff16146113ae578660070160008573ffffffffffffffffffffffffffffffffffffffff1673ffffffffffffffffffffffffffffffffffffffff168152602001908152602001600020546113b1565b60125b90506113f082600a6113c391906131d7565b6113e283600a6113d391906131d7565b8961123c90919063ffffffff16565b61125290919063ffffffff16565b92505050949350505050565b6000800160009054906101000a900460ff161561144e576040517f08c379a00000000000000000000000000000000000000000000000000000000081526004016114459061337a565b60405180910390fd5b60016000800160006101000a81548160ff021916908315150217905550565b8160050160008273ffffffffffffffffffffffffffffffffffffffff1673ffffffffffffffffffffffffffffffffffffffff16815260200190815260200160002060009054906101000a900460ff166114fb576040517f08c379a00000000000000000000000000000000000000000000000000000000081526004016114f2906133e6565b60405180910390fd5b5050565b60008083600a0160008473ffffffffffffffffffffffffffffffffffffffff1673ffffffffffffffffffffffffffffffffffffffff16815260200190815260200160002054905060008373ffffffffffffffffffffffffffffffffffffffff166370a08231306040518263ffffffff1660e01b81526004016115819190612cbe565b602060405180830381865afa15801561159e573d6000803e3d6000fd5b505050506040513d601f19601f820116820180604052508101906115c29190612eb1565b90508085600a0160008673ffffffffffffffffffffffffffffffffffffffff1673ffffffffffffffffffffffffffffffffffffffff1681526020019081526020016000208190555061161d8282611eb890919063ffffffff16565b9250505092915050565b60008260100160008373ffffffffffffffffffffffffffffffffffffffff1673ffffffffffffffffffffffffffffffffffffffff1681526020019081526020016000205414156116e45761169a61708061168c6170804261125290919063ffffffff16565b61123c90919063ffffffff16565b8260100160008373ffffffffffffffffffffffffffffffffffffffff1673ffffffffffffffffffffffffffffffffffffffff168152602001908152602001600020819055506118d7565b4261173b6170808460100160008573ffffffffffffffffffffffffffffffffffffffff1673ffffffffffffffffffffffffffffffffffffffff1681526020019081526020016000205461219a90919063ffffffff16565b1115611746576118d7565b600061175283836122d5565b90506117a88184600f0160008573ffffffffffffffffffffffffffffffffffffffff1673ffffffffffffffffffffffffffffffffffffffff1681526020019081526020016000205461219a90919063ffffffff16565b83600f0160008473ffffffffffffffffffffffffffffffffffffffff1673ffffffffffffffffffffffffffffffffffffffff168152602001908152602001600020819055506118166170806118086170804261125290919063ffffffff16565b61123c90919063ffffffff16565b8360100160008473ffffffffffffffffffffffffffffffffffffffff1673ffffffffffffffffffffffffffffffffffffffff168152602001908152602001600020819055507fa146fc154e1913322e9817d49f0d5c37466c24326e15de10e739a948be815eab8284600f0160008573ffffffffffffffffffffffffffffffffffffffff1673ffffffffffffffffffffffffffffffffffffffff168152602001908152602001600020546040516118cd929190612dc2565b60405180910390a1505b5050565b611966816040518060400160405280601a81526020017f5661756c743a20706f6f6c416d6f756e7420657863656564656400000000000081525085600c0160008673ffffffffffffffffffffffffffffffffffffffff1673ffffffffffffffffffffffffffffffffffffffff168152602001908152602001600020546124889092919063ffffffff16565b83600c0160008473ffffffffffffffffffffffffffffffffffffffff1673ffffffffffffffffffffffffffffffffffffffff168152602001908152602001600020819055506119b583836124dd565b6119bf83836125a6565b7f112726233fbeaeed0f5b1dba5cb0b2b81883dee49fb35ff99fd98ed9f6d31eb082826040516119f0929190612dc2565b60405180910390a1505050565b600083600b0160008473ffffffffffffffffffffffffffffffffffffffff1673ffffffffffffffffffffffffffffffffffffffff168152602001908152602001600020549050818111611ad057600084600b0160008573ffffffffffffffffffffffffffffffffffffffff1673ffffffffffffffffffffffffffffffffffffffff168152602001908152602001600020819055507f448c2068e908f5ee25d962e13bc05be4d5d07b1a3845458d3b927d843df4b2ff8382604051611ac2929190612dc2565b60405180910390a150611b63565b611ae38282611eb890919063ffffffff16565b84600b0160008573ffffffffffffffffffffffffffffffffffffffff1673ffffffffffffffffffffffffffffffffffffffff168152602001908152602001600020819055507f448c2068e908f5ee25d962e13bc05be4d5d07b1a3845458d3b927d843df4b2ff8383604051611b59929190612dc2565b60405180910390a1505b505050565b60008173ffffffffffffffffffffffffffffffffffffffff166370a08231306040518263ffffffff1660e01b8152600401611ba39190612cbe565b602060405180830381865afa158015611bc0573d6000803e3d6000fd5b505050506040513d601f19601f82011682018060405250810190611be49190612eb1565b90508083600a0160008473ffffffffffffffffffffffffffffffffffffffff1673ffffffffffffffffffffffffffffffffffffffff16815260200190815260200160002081905550505050565b6000806000611c428787601e6126ad565b90506000611c8e612710611c80611c7188611c5e57601e611c60565b855b612710611eb890919063ffffffff16565b8961123c90919063ffffffff16565b61125290919063ffffffff16565b90506000611ca58288611eb890919063ffffffff16565b9050611cfb818a60110160008b73ffffffffffffffffffffffffffffffffffffffff1673ffffffffffffffffffffffffffffffffffffffff1681526020019081526020016000205461219a90919063ffffffff16565b8960110160008a73ffffffffffffffffffffffffffffffffffffffff1673ffffffffffffffffffffffffffffffffffffffff168152602001908152602001600020819055507f47cd9dda0e50ce30bcaaacd0488452b596221c07ac402a581cfae4d3933cac2b88611d6d8b8b856110fe565b83604051611d7d93929190613406565b60405180910390a180829450945050505094509492505050565b611e23828473ffffffffffffffffffffffffffffffffffffffff166370a08231306040518263ffffffff1660e01b8152600401611dd49190612cbe565b602060405180830381865afa158015611df1573d6000803e3d6000fd5b505050506040513d601f19601f82011682018060405250810190611e159190612eb1565b611eb890919063ffffffff16565b84600a0160008573ffffffffffffffffffffffffffffffffffffffff1673ffffffffffffffffffffffffffffffffffffffff16815260200190815260200160002081905550611e9381838573ffffffffffffffffffffffffffffffffffffffff166127639092919063ffffffff16565b50505050565b60008060000160006101000a81548160ff021916908315150217905550565b60008183611ec6919061343d565b905092915050565b60003073ffffffffffffffffffffffffffffffffffffffff16635ae69163846000856040518463ffffffff1660e01b8152600401611f0e9392919061323d565b602060405180830381865afa158015611f2b573d6000803e3d6000fd5b505050506040513d601f19601f82011682018060405250810190611f4f9190612eb1565b905092915050565b611fab8184600b0160008573ffffffffffffffffffffffffffffffffffffffff1673ffffffffffffffffffffffffffffffffffffffff1681526020019081526020016000205461219a90919063ffffffff16565b83600b0160008473ffffffffffffffffffffffffffffffffffffffff1673ffffffffffffffffffffffffffffffffffffffff168152602001908152602001600020819055507f71258b0cda4926ee0d520b5f10d744d448b8a0fca6c03a7aab232331fc65ad5b8282604051612021929190612dc2565b60405180910390a1505050565b60006120848285600c0160008673ffffffffffffffffffffffffffffffffffffffff1673ffffffffffffffffffffffffffffffffffffffff1681526020019081526020016000205461219a90919063ffffffff16565b84600c0160008573ffffffffffffffffffffffffffffffffffffffff1673ffffffffffffffffffffffffffffffffffffffff168152602001908152602001600020819055506120d384846125a6565b7f976177fbe09a15e5e43f848844963a42b41ef919ef17ff21a17a5421de8f47378383604051612104929190612dc2565b60405180910390a183600c0160008473ffffffffffffffffffffffffffffffffffffffff1673ffffffffffffffffffffffffffffffffffffffff1681526020019081526020016000205490509392505050565b60008082141561216a5760009050612193565b61219084848461218b878960020160149054906101000a900460ff166111b3565b6127e9565b90505b9392505050565b600081836121a89190613471565b905092915050565b6000808360020160009054906101000a900473ffffffffffffffffffffffffffffffffffffffff1673ffffffffffffffffffffffffffffffffffffffff166318160ddd6040518163ffffffff1660e01b8152600401602060405180830381865afa158015612222573d6000803e3d6000fd5b505050506040513d601f19601f820116820180604052508101906122469190612eb1565b9050600081141561225b5760009150506122cf565b60008460120160008573ffffffffffffffffffffffffffffffffffffffff1673ffffffffffffffffffffffffffffffffffffffff1681526020019081526020016000205490506122ca85601301546122bc838561123c90919063ffffffff16565b61125290919063ffffffff16565b925050505b92915050565b60004261232e6170808560100160008673ffffffffffffffffffffffffffffffffffffffff1673ffffffffffffffffffffffffffffffffffffffff1681526020019081526020016000205461219a90919063ffffffff16565b111561233d5760009050612482565b60006123a76170806123998660100160008773ffffffffffffffffffffffffffffffffffffffff1673ffffffffffffffffffffffffffffffffffffffff1681526020019081526020016000205442611eb890919063ffffffff16565b61125290919063ffffffff16565b9050600084600c0160008573ffffffffffffffffffffffffffffffffffffffff1673ffffffffffffffffffffffffffffffffffffffff168152602001908152602001600020549050600081141561240357600092505050612482565b61247d8161246f8461246189600d0160008a73ffffffffffffffffffffffffffffffffffffffff1673ffffffffffffffffffffffffffffffffffffffff1681526020019081526020016000205461025861123c90919063ffffffff16565b61123c90919063ffffffff16565b61125290919063ffffffff16565b925050505b92915050565b60008383111582906124d0576040517f08c379a00000000000000000000000000000000000000000000000000000000081526004016124c7919061354f565b60405180910390fd5b5082840390509392505050565b81600c0160008273ffffffffffffffffffffffffffffffffffffffff1673ffffffffffffffffffffffffffffffffffffffff1681526020019081526020016000205482600d0160008373ffffffffffffffffffffffffffffffffffffffff1673ffffffffffffffffffffffffffffffffffffffff1681526020019081526020016000205411156125a2576040517f08c379a0000000000000000000000000000000000000000000000000000000008152600401612599906135bd565b60405180910390fd5b5050565b60008173ffffffffffffffffffffffffffffffffffffffff166370a08231306040518263ffffffff1660e01b81526004016125e19190612cbe565b602060405180830381865afa1580156125fe573d6000803e3d6000fd5b505050506040513d601f19601f820116820180604052508101906126229190612eb1565b90508083600c0160008473ffffffffffffffffffffffffffffffffffffffff1673ffffffffffffffffffffffffffffffffffffffff1681526020019081526020016000205411156126a8576040517f08c379a000000000000000000000000000000000000000000000000000000000815260040161269f90613629565b60405180910390fd5b505050565b60008084600b0160008573ffffffffffffffffffffffffffffffffffffffff1673ffffffffffffffffffffffffffffffffffffffff168152602001908152602001600020549050600061270086866121b0565b905060008114806127115750600082145b1561272057839250505061275c565b8082111561273257839250505061275c565b61275781612749848761123c90919063ffffffff16565b61125290919063ffffffff16565b925050505b9392505050565b6127e48363a9059cbb60e01b8484604051602401612782929190612dc2565b604051602081830303815290604052907bffffffffffffffffffffffffffffffffffffffffffffffffffffffff19166020820180517bffffffffffffffffffffffffffffffffffffffffffffffffffffffff838183161783525050505061287f565b505050565b6000808314156127fc5760009050612877565b60008560070160008673ffffffffffffffffffffffffffffffffffffffff1673ffffffffffffffffffffffffffffffffffffffff1681526020019081526020016000205490506128738361286583600a61285691906131d7565b8761123c90919063ffffffff16565b61125290919063ffffffff16565b9150505b949350505050565b60006128e1826040518060400160405280602081526020017f5361666545524332303a206c6f772d6c6576656c2063616c6c206661696c65648152508573ffffffffffffffffffffffffffffffffffffffff166129469092919063ffffffff16565b905060008151111561294157808060200190518101906129019190613675565b612940576040517f08c379a000000000000000000000000000000000000000000000000000000000815260040161293790613714565b60405180910390fd5b5b505050565b6060612955848460008561295e565b90509392505050565b6060824710156129a3576040517f08c379a000000000000000000000000000000000000000000000000000000000815260040161299a906137a6565b60405180910390fd5b6129ac85612a72565b6129eb576040517f08c379a00000000000000000000000000000000000000000000000000000000081526004016129e290613812565b60405180910390fd5b6000808673ffffffffffffffffffffffffffffffffffffffff168587604051612a149190613879565b60006040518083038185875af1925050503d8060008114612a51576040519150601f19603f3d011682016040523d82523d6000602084013e612a56565b606091505b5091509150612a66828286612a85565b92505050949350505050565b600080823b905060008111915050919050565b60608315612a9557829050612ae5565b600083511115612aa85782518084602001fd5b816040517f08c379a0000000000000000000000000000000000000000000000000000000008152600401612adc919061354f565b60405180910390fd5b9392505050565b600080fd5b600073ffffffffffffffffffffffffffffffffffffffff82169050919050565b6000612b1c82612af1565b9050919050565b612b2c81612b11565b8114612b3757600080fd5b50565b600081359050612b4981612b23565b92915050565b600060208284031215612b6557612b64612aec565b5b6000612b7384828501612b3a565b91505092915050565b6000819050919050565b612b8f81612b7c565b82525050565b6000602082019050612baa6000830184612b86565b92915050565b612bb981612b7c565b8114612bc457600080fd5b50565b600081359050612bd681612bb0565b92915050565b60008060408385031215612bf357612bf2612aec565b5b6000612c0185828601612b3a565b9250506020612c1285828601612bc7565b9150509250929050565b60008060408385031215612c3357612c32612aec565b5b6000612c4185828601612b3a565b9250506020612c5285828601612b3a565b9150509250929050565b600080600060608486031215612c7557612c74612aec565b5b6000612c8386828701612b3a565b9350506020612c9486828701612b3a565b9250506040612ca586828701612b3a565b9150509250925092565b612cb881612b11565b82525050565b6000602082019050612cd36000830184612caf565b92915050565b600082825260208201905092915050565b7f5661756c743a20696e76616c6964206e646f6c416d6f756e7400000000000000600082015250565b6000612d20601983612cd9565b9150612d2b82612cea565b602082019050919050565b60006020820190508181036000830152612d4f81612d13565b9050919050565b7f5661756c743a20696e76616c696420726564656d7074696f6e416d6f756e7400600082015250565b6000612d8c601f83612cd9565b9150612d9782612d56565b602082019050919050565b60006020820190508181036000830152612dbb81612d7f565b9050919050565b6000604082019050612dd76000830185612caf565b612de46020830184612b86565b9392505050565b7f5661756c743a20696e76616c696420746f6b656e416d6f756e74000000000000600082015250565b6000612e21601a83612cd9565b9150612e2c82612deb565b602082019050919050565b60006020820190508181036000830152612e5081612e14565b9050919050565b6000608082019050612e6c6000830187612caf565b612e796020830186612caf565b612e866040830185612b86565b612e936060830184612b86565b95945050505050565b600081519050612eab81612bb0565b92915050565b600060208284031215612ec757612ec6612aec565b5b6000612ed584828501612e9c565b91505092915050565b7f5661756c743a206e6f7420696e697469616c697a656400000000000000000000600082015250565b6000612f14601683612cd9565b9150612f1f82612ede565b602082019050919050565b60006020820190508181036000830152612f4381612f07565b9050919050565b7f5661756c743a20696e76616c696420746f6b656e730000000000000000000000600082015250565b6000612f80601583612cd9565b9150612f8b82612f4a565b602082019050919050565b60006020820190508181036000830152612faf81612f73565b9050919050565b7f5661756c743a20696e76616c696420616d6f756e74496e000000000000000000600082015250565b6000612fec601783612cd9565b9150612ff782612fb6565b602082019050919050565b6000602082019050818103600083015261301b81612fdf565b9050919050565b600060a0820190506130376000830188612caf565b6130446020830187612caf565b6130516040830186612caf565b61305e6060830185612b86565b61306b6080830184612b86565b9695505050505050565b7f4e487b7100000000000000000000000000000000000000000000000000000000600052601160045260246000fd5b60008160011c9050919050565b6000808291508390505b60018511156130fb578086048111156130d7576130d6613075565b5b60018516156130e65780820291505b80810290506130f4856130a4565b94506130bb565b94509492505050565b60008261311457600190506131d0565b8161312257600090506131d0565b8160018114613138576002811461314257613171565b60019150506131d0565b60ff84111561315457613153613075565b5b8360020a91508482111561316b5761316a613075565b5b506131d0565b5060208310610133831016604e8410600b84101617156131a65782820a9050838111156131a1576131a0613075565b5b6131d0565b6131b384848460016130b1565b925090508184048111156131ca576131c9613075565b5b81810290505b9392505050565b60006131e282612b7c565b91506131ed83612b7c565b925061321a7fffffffffffffffffffffffffffffffffffffffffffffffffffffffffffffffff8484613104565b905092915050565b60008115159050919050565b61323781613222565b82525050565b60006060820190506132526000830186612caf565b61325f602083018561322e565b61326c604083018461322e565b949350505050565b600061327f82612b7c565b915061328a83612b7c565b9250817fffffffffffffffffffffffffffffffffffffffffffffffffffffffffffffffff04831182151516156132c3576132c2613075565b5b828202905092915050565b7f4e487b7100000000000000000000000000000000000000000000000000000000600052601260045260246000fd5b600061330882612b7c565b915061331383612b7c565b925082613323576133226132ce565b5b828204905092915050565b7f436f6e747261637420616c726561647920656e74657265640000000000000000600082015250565b6000613364601883612cd9565b915061336f8261332e565b602082019050919050565b6000602082019050818103600083015261339381613357565b9050919050565b7f5661756c743a20746f6b656e206e6f742077686974656c697374656400000000600082015250565b60006133d0601c83612cd9565b91506133db8261339a565b602082019050919050565b600060208201905081810360008301526133ff816133c3565b9050919050565b600060608201905061341b6000830186612caf565b6134286020830185612b86565b6134356040830184612b86565b949350505050565b600061344882612b7c565b915061345383612b7c565b92508282101561346657613465613075565b5b828203905092915050565b600061347c82612b7c565b915061348783612b7c565b9250827fffffffffffffffffffffffffffffffffffffffffffffffffffffffffffffffff038211156134bc576134bb613075565b5b828201905092915050565b600081519050919050565b60005b838110156134f05780820151818401526020810190506134d5565b838111156134ff576000848401525b50505050565b6000601f19601f8301169050919050565b6000613521826134c7565b61352b8185612cd9565b935061353b8185602086016134d2565b61354481613505565b840191505092915050565b600060208201905081810360008301526135698184613516565b905092915050565b7f5661756c743a2072657365727665206578636565647320706f6f6c0000000000600082015250565b60006135a7601b83612cd9565b91506135b282613571565b602082019050919050565b600060208201905081810360008301526135d68161359a565b9050919050565b7f5661756c743a20696e76616c696420696e637265617365000000000000000000600082015250565b6000613613601783612cd9565b915061361e826135dd565b602082019050919050565b6000602082019050818103600083015261364281613606565b9050919050565b61365281613222565b811461365d57600080fd5b50565b60008151905061366f81613649565b92915050565b60006020828403121561368b5761368a612aec565b5b600061369984828501613660565b91505092915050565b7f5361666545524332303a204552433230206f7065726174696f6e20646964206e60008201527f6f74207375636365656400000000000000000000000000000000000000000000602082015250565b60006136fe602a83612cd9565b9150613709826136a2565b604082019050919050565b6000602082019050818103600083015261372d816136f1565b9050919050565b7f416464726573733a20696e73756666696369656e742062616c616e636520666f60008201527f722063616c6c0000000000000000000000000000000000000000000000000000602082015250565b6000613790602683612cd9565b915061379b82613734565b604082019050919050565b600060208201905081810360008301526137bf81613783565b9050919050565b7f416464726573733a2063616c6c20746f206e6f6e2d636f6e7472616374000000600082015250565b60006137fc601d83612cd9565b9150613807826137c6565b602082019050919050565b6000602082019050818103600083015261382b816137ef565b9050919050565b600081519050919050565b600081905092915050565b600061385382613832565b61385d818561383d565b935061386d8185602086016134d2565b80840191505092915050565b60006138858284613848565b91508190509291505056fea2646970667358221220a7d76f2c33b057630b53f056f2fba1e6a90b399a8f87ca81284b60710908898564736f6c634300080a0033",
  "devdoc": {
    "kind": "dev",
    "methods": {},
    "version": 1
  },
  "userdoc": {
    "kind": "user",
    "methods": {},
    "version": 1
  },
  "storageLayout": {
    "storage": [
      {
        "astId": 12757,
        "contract": "contracts/facets/Vault/VaultNdolFacet.sol:VaultNdolFacet",
        "label": "s",
        "offset": 0,
        "slot": "0",
        "type": "t_struct(Storage)21151_storage"
      }
    ],
    "types": {
      "t_address": {
        "encoding": "inplace",
        "label": "address",
        "numberOfBytes": "20"
      },
      "t_array(t_bytes32)dyn_storage": {
        "base": "t_bytes32",
        "encoding": "dynamic_array",
        "label": "bytes32[]",
        "numberOfBytes": "32"
      },
      "t_bool": {
        "encoding": "inplace",
        "label": "bool",
        "numberOfBytes": "1"
      },
      "t_bytes32": {
        "encoding": "inplace",
        "label": "bytes32",
        "numberOfBytes": "32"
      },
      "t_int256": {
        "encoding": "inplace",
        "label": "int256",
        "numberOfBytes": "32"
      },
      "t_mapping(t_address,t_address)": {
        "encoding": "mapping",
        "key": "t_address",
        "label": "mapping(address => address)",
        "numberOfBytes": "32",
        "value": "t_address"
      },
      "t_mapping(t_address,t_bool)": {
        "encoding": "mapping",
        "key": "t_address",
        "label": "mapping(address => bool)",
        "numberOfBytes": "32",
        "value": "t_bool"
      },
      "t_mapping(t_address,t_int256)": {
        "encoding": "mapping",
        "key": "t_address",
        "label": "mapping(address => int256)",
        "numberOfBytes": "32",
        "value": "t_int256"
      },
      "t_mapping(t_address,t_mapping(t_address,t_int256))": {
        "encoding": "mapping",
        "key": "t_address",
        "label": "mapping(address => mapping(address => int256))",
        "numberOfBytes": "32",
        "value": "t_mapping(t_address,t_int256)"
      },
      "t_mapping(t_address,t_uint256)": {
        "encoding": "mapping",
        "key": "t_address",
        "label": "mapping(address => uint256)",
        "numberOfBytes": "32",
        "value": "t_uint256"
      },
      "t_mapping(t_bytes32,t_struct(Position)21036_storage)": {
        "encoding": "mapping",
        "key": "t_bytes32",
        "label": "mapping(bytes32 => struct LibExchangeStorage.Position)",
        "numberOfBytes": "32",
        "value": "t_struct(Position)21036_storage"
      },
      "t_mapping(t_bytes32,t_uint256)": {
        "encoding": "mapping",
        "key": "t_bytes32",
        "label": "mapping(bytes32 => uint256)",
        "numberOfBytes": "32",
        "value": "t_uint256"
      },
      "t_mapping(t_uint80,t_int256)": {
        "encoding": "mapping",
        "key": "t_uint80",
        "label": "mapping(uint80 => int256)",
        "numberOfBytes": "32",
        "value": "t_int256"
      },
      "t_struct(AddressSet)1348_storage": {
        "encoding": "inplace",
        "label": "struct EnumerableSet.AddressSet",
        "members": [
          {
            "astId": 1347,
            "contract": "contracts/facets/Vault/VaultNdolFacet.sol:VaultNdolFacet",
            "label": "_inner",
            "offset": 0,
            "slot": "0",
            "type": "t_struct(Set)1047_storage"
          }
        ],
        "numberOfBytes": "64"
      },
      "t_struct(Position)21036_storage": {
        "encoding": "inplace",
        "label": "struct LibExchangeStorage.Position",
        "members": [
          {
            "astId": 21023,
            "contract": "contracts/facets/Vault/VaultNdolFacet.sol:VaultNdolFacet",
            "label": "size",
            "offset": 0,
            "slot": "0",
            "type": "t_uint256"
          },
          {
            "astId": 21025,
            "contract": "contracts/facets/Vault/VaultNdolFacet.sol:VaultNdolFacet",
            "label": "collateral",
            "offset": 0,
            "slot": "1",
            "type": "t_uint256"
          },
          {
            "astId": 21027,
            "contract": "contracts/facets/Vault/VaultNdolFacet.sol:VaultNdolFacet",
            "label": "averagePrice",
            "offset": 0,
            "slot": "2",
            "type": "t_uint256"
          },
          {
            "astId": 21029,
            "contract": "contracts/facets/Vault/VaultNdolFacet.sol:VaultNdolFacet",
            "label": "entryFundingRate",
            "offset": 0,
            "slot": "3",
            "type": "t_uint256"
          },
          {
            "astId": 21031,
            "contract": "contracts/facets/Vault/VaultNdolFacet.sol:VaultNdolFacet",
            "label": "reserveAmount",
            "offset": 0,
            "slot": "4",
            "type": "t_uint256"
          },
          {
            "astId": 21033,
            "contract": "contracts/facets/Vault/VaultNdolFacet.sol:VaultNdolFacet",
            "label": "realisedPnl",
            "offset": 0,
            "slot": "5",
            "type": "t_int256"
          },
          {
            "astId": 21035,
            "contract": "contracts/facets/Vault/VaultNdolFacet.sol:VaultNdolFacet",
            "label": "lastIncreasedTime",
            "offset": 0,
            "slot": "6",
            "type": "t_uint256"
          }
        ],
        "numberOfBytes": "224"
      },
      "t_struct(Set)1047_storage": {
        "encoding": "inplace",
        "label": "struct EnumerableSet.Set",
        "members": [
          {
            "astId": 1042,
            "contract": "contracts/facets/Vault/VaultNdolFacet.sol:VaultNdolFacet",
            "label": "_values",
            "offset": 0,
            "slot": "0",
            "type": "t_array(t_bytes32)dyn_storage"
          },
          {
            "astId": 1046,
            "contract": "contracts/facets/Vault/VaultNdolFacet.sol:VaultNdolFacet",
            "label": "_indexes",
            "offset": 0,
            "slot": "1",
            "type": "t_mapping(t_bytes32,t_uint256)"
          }
        ],
        "numberOfBytes": "64"
      },
      "t_struct(Storage)21151_storage": {
        "encoding": "inplace",
        "label": "struct LibExchangeStorage.Storage",
        "members": [
          {
            "astId": 21038,
            "contract": "contracts/facets/Vault/VaultNdolFacet.sol:VaultNdolFacet",
            "label": "contractEntered",
            "offset": 0,
            "slot": "0",
            "type": "t_bool"
          },
          {
            "astId": 21040,
            "contract": "contracts/facets/Vault/VaultNdolFacet.sol:VaultNdolFacet",
            "label": "btc",
            "offset": 1,
            "slot": "0",
            "type": "t_address"
          },
          {
            "astId": 21042,
            "contract": "contracts/facets/Vault/VaultNdolFacet.sol:VaultNdolFacet",
            "label": "weth",
            "offset": 0,
            "slot": "1",
            "type": "t_address"
          },
          {
            "astId": 21044,
            "contract": "contracts/facets/Vault/VaultNdolFacet.sol:VaultNdolFacet",
            "label": "ndol",
            "offset": 0,
            "slot": "2",
            "type": "t_address"
          },
          {
            "astId": 21046,
            "contract": "contracts/facets/Vault/VaultNdolFacet.sol:VaultNdolFacet",
            "label": "includeAmmPrice",
            "offset": 20,
            "slot": "2",
            "type": "t_bool"
          },
          {
            "astId": 21048,
            "contract": "contracts/facets/Vault/VaultNdolFacet.sol:VaultNdolFacet",
            "label": "isInitialized",
            "offset": 21,
            "slot": "2",
            "type": "t_bool"
          },
          {
            "astId": 21051,
            "contract": "contracts/facets/Vault/VaultNdolFacet.sol:VaultNdolFacet",
            "label": "tokens",
            "offset": 0,
            "slot": "3",
            "type": "t_struct(AddressSet)1348_storage"
          },
          {
            "astId": 21055,
            "contract": "contracts/facets/Vault/VaultNdolFacet.sol:VaultNdolFacet",
            "label": "whitelistedTokens",
            "offset": 0,
            "slot": "5",
            "type": "t_mapping(t_address,t_bool)"
          },
          {
            "astId": 21060,
            "contract": "contracts/facets/Vault/VaultNdolFacet.sol:VaultNdolFacet",
            "label": "positions",
            "offset": 0,
            "slot": "6",
            "type": "t_mapping(t_bytes32,t_struct(Position)21036_storage)"
          },
          {
            "astId": 21064,
            "contract": "contracts/facets/Vault/VaultNdolFacet.sol:VaultNdolFacet",
            "label": "tokenDecimals",
            "offset": 0,
            "slot": "7",
            "type": "t_mapping(t_address,t_uint256)"
          },
          {
            "astId": 21068,
            "contract": "contracts/facets/Vault/VaultNdolFacet.sol:VaultNdolFacet",
            "label": "redemptionBasisPoints",
            "offset": 0,
            "slot": "8",
            "type": "t_mapping(t_address,t_uint256)"
          },
          {
            "astId": 21072,
            "contract": "contracts/facets/Vault/VaultNdolFacet.sol:VaultNdolFacet",
            "label": "minProfitBasisPoints",
            "offset": 0,
            "slot": "9",
            "type": "t_mapping(t_address,t_uint256)"
          },
          {
            "astId": 21076,
            "contract": "contracts/facets/Vault/VaultNdolFacet.sol:VaultNdolFacet",
            "label": "tokenBalances",
            "offset": 0,
            "slot": "10",
            "type": "t_mapping(t_address,t_uint256)"
          },
          {
            "astId": 21080,
            "contract": "contracts/facets/Vault/VaultNdolFacet.sol:VaultNdolFacet",
            "label": "ndolAmounts",
            "offset": 0,
            "slot": "11",
            "type": "t_mapping(t_address,t_uint256)"
          },
          {
            "astId": 21084,
            "contract": "contracts/facets/Vault/VaultNdolFacet.sol:VaultNdolFacet",
            "label": "poolAmounts",
            "offset": 0,
            "slot": "12",
            "type": "t_mapping(t_address,t_uint256)"
          },
          {
            "astId": 21088,
            "contract": "contracts/facets/Vault/VaultNdolFacet.sol:VaultNdolFacet",
            "label": "reservedAmounts",
            "offset": 0,
            "slot": "13",
            "type": "t_mapping(t_address,t_uint256)"
          },
          {
            "astId": 21092,
            "contract": "contracts/facets/Vault/VaultNdolFacet.sol:VaultNdolFacet",
            "label": "guaranteedUsd",
            "offset": 0,
            "slot": "14",
            "type": "t_mapping(t_address,t_uint256)"
          },
          {
            "astId": 21096,
            "contract": "contracts/facets/Vault/VaultNdolFacet.sol:VaultNdolFacet",
            "label": "cumulativeFundingRates",
            "offset": 0,
            "slot": "15",
            "type": "t_mapping(t_address,t_uint256)"
          },
          {
            "astId": 21100,
            "contract": "contracts/facets/Vault/VaultNdolFacet.sol:VaultNdolFacet",
            "label": "lastFundingTimes",
            "offset": 0,
            "slot": "16",
            "type": "t_mapping(t_address,t_uint256)"
          },
          {
            "astId": 21104,
            "contract": "contracts/facets/Vault/VaultNdolFacet.sol:VaultNdolFacet",
            "label": "feeReserves",
            "offset": 0,
            "slot": "17",
            "type": "t_mapping(t_address,t_uint256)"
          },
          {
            "astId": 21108,
            "contract": "contracts/facets/Vault/VaultNdolFacet.sol:VaultNdolFacet",
            "label": "tokenWeights",
            "offset": 0,
            "slot": "18",
            "type": "t_mapping(t_address,t_uint256)"
          },
          {
            "astId": 21110,
            "contract": "contracts/facets/Vault/VaultNdolFacet.sol:VaultNdolFacet",
            "label": "totalTokenWeight",
            "offset": 0,
            "slot": "19",
            "type": "t_uint256"
          },
          {
            "astId": 21114,
            "contract": "contracts/facets/Vault/VaultNdolFacet.sol:VaultNdolFacet",
            "label": "plugins",
            "offset": 0,
            "slot": "20",
            "type": "t_mapping(t_address,t_bool)"
          },
          {
            "astId": 21118,
            "contract": "contracts/facets/Vault/VaultNdolFacet.sol:VaultNdolFacet",
            "label": "priceFeeds",
            "offset": 0,
            "slot": "21",
            "type": "t_mapping(t_address,t_address)"
          },
          {
            "astId": 21122,
            "contract": "contracts/facets/Vault/VaultNdolFacet.sol:VaultNdolFacet",
            "label": "priceDecimals",
            "offset": 0,
            "slot": "22",
            "type": "t_mapping(t_address,t_uint256)"
          },
          {
            "astId": 21126,
            "contract": "contracts/facets/Vault/VaultNdolFacet.sol:VaultNdolFacet",
            "label": "priceSpreadBasisPoints",
            "offset": 0,
            "slot": "23",
            "type": "t_mapping(t_address,t_uint256)"
          },
          {
            "astId": 21130,
            "contract": "contracts/facets/Vault/VaultNdolFacet.sol:VaultNdolFacet",
            "label": "baseTokenPairs",
            "offset": 0,
            "slot": "24",
            "type": "t_mapping(t_address,t_address)"
          },
          {
            "astId": 21134,
            "contract": "contracts/facets/Vault/VaultNdolFacet.sol:VaultNdolFacet",
            "label": "tokenPairs",
            "offset": 0,
            "slot": "25",
            "type": "t_mapping(t_address,t_address)"
          },
          {
            "astId": 21136,
            "contract": "contracts/facets/Vault/VaultNdolFacet.sol:VaultNdolFacet",
            "label": "answer",
            "offset": 0,
            "slot": "26",
            "type": "t_int256"
          },
          {
            "astId": 21138,
            "contract": "contracts/facets/Vault/VaultNdolFacet.sol:VaultNdolFacet",
            "label": "roundId",
            "offset": 0,
            "slot": "27",
            "type": "t_uint80"
          },
          {
            "astId": 21142,
            "contract": "contracts/facets/Vault/VaultNdolFacet.sol:VaultNdolFacet",
            "label": "answers",
            "offset": 0,
            "slot": "28",
            "type": "t_mapping(t_uint80,t_int256)"
          },
          {
            "astId": 21144,
            "contract": "contracts/facets/Vault/VaultNdolFacet.sol:VaultNdolFacet",
            "label": "totalNDOLMinted",
            "offset": 0,
            "slot": "29",
            "type": "t_uint256"
          },
          {
            "astId": 21150,
            "contract": "contracts/facets/Vault/VaultNdolFacet.sol:VaultNdolFacet",
            "label": "ndolMinted",
            "offset": 0,
            "slot": "30",
            "type": "t_mapping(t_address,t_mapping(t_address,t_int256))"
          }
        ],
        "numberOfBytes": "992"
      },
      "t_uint256": {
        "encoding": "inplace",
        "label": "uint256",
        "numberOfBytes": "32"
      },
      "t_uint80": {
        "encoding": "inplace",
        "label": "uint80",
        "numberOfBytes": "10"
      }
    }
  }
}