{
  "address": "0x396f2F45ea6e14FffeC5f875b349a108f95Eee7d",
  "abi": [
    {
      "inputs": [
        {
          "internalType": "address",
          "name": "_principle",
          "type": "address"
        }
      ],
      "name": "InvalidPrinciple",
      "type": "error"
    },
    {
      "anonymous": false,
      "inputs": [
        {
          "indexed": false,
          "internalType": "uint256",
          "name": "deposit",
          "type": "uint256"
        },
        {
          "indexed": true,
          "internalType": "uint256",
          "name": "payout",
          "type": "uint256"
        },
        {
          "indexed": true,
          "internalType": "uint256",
          "name": "expires",
          "type": "uint256"
        },
        {
          "indexed": true,
          "internalType": "uint256",
          "name": "priceInUSD",
          "type": "uint256"
        }
      ],
      "name": "BondCreated",
      "type": "event"
    },
    {
      "anonymous": false,
      "inputs": [
        {
          "indexed": true,
          "internalType": "uint256",
          "name": "priceInUSD",
          "type": "uint256"
        },
        {
          "indexed": true,
          "internalType": "uint256",
          "name": "internalPrice",
          "type": "uint256"
        },
        {
          "indexed": true,
          "internalType": "uint256",
          "name": "debtRatio",
          "type": "uint256"
        }
      ],
      "name": "BondPriceChanged",
      "type": "event"
    },
    {
      "anonymous": false,
      "inputs": [
        {
          "indexed": true,
          "internalType": "address",
          "name": "recipient",
          "type": "address"
        },
        {
          "indexed": false,
          "internalType": "uint256",
          "name": "payout",
          "type": "uint256"
        },
        {
          "indexed": false,
          "internalType": "uint256",
          "name": "remaining",
          "type": "uint256"
        }
      ],
      "name": "BondRedeemed",
      "type": "event"
    },
    {
      "anonymous": false,
      "inputs": [
        {
          "indexed": false,
          "internalType": "uint256",
          "name": "initialBCV",
          "type": "uint256"
        },
        {
          "indexed": false,
          "internalType": "uint256",
          "name": "newBCV",
          "type": "uint256"
        },
        {
          "indexed": false,
          "internalType": "uint256",
          "name": "adjustment",
          "type": "uint256"
        },
        {
          "indexed": false,
          "internalType": "bool",
          "name": "addition",
          "type": "bool"
        }
      ],
      "name": "ControlVariableAdjustment",
      "type": "event"
    },
    {
      "inputs": [
        {
          "internalType": "address",
          "name": "_principle",
          "type": "address"
        }
      ],
      "name": "BCV",
      "outputs": [
        {
          "internalType": "uint256",
          "name": "BCV_",
          "type": "uint256"
        }
      ],
      "stateMutability": "view",
      "type": "function"
    },
    {
      "inputs": [],
      "name": "DAO",
      "outputs": [
        {
          "internalType": "address",
          "name": "",
          "type": "address"
        }
      ],
      "stateMutability": "view",
      "type": "function"
    },
    {
      "inputs": [
        {
          "internalType": "address",
          "name": "_recipient",
          "type": "address"
        }
      ],
      "name": "bondFees",
      "outputs": [
        {
          "internalType": "uint256",
          "name": "",
          "type": "uint256"
        }
      ],
      "stateMutability": "view",
      "type": "function"
    },
    {
      "inputs": [
        {
          "internalType": "address",
          "name": "_depositor",
          "type": "address"
        },
        {
          "internalType": "address",
          "name": "_principle",
          "type": "address"
        }
      ],
      "name": "bondInfo",
      "outputs": [
        {
          "components": [
            {
              "internalType": "uint256",
              "name": "payout",
              "type": "uint256"
            },
            {
              "internalType": "uint256",
              "name": "pricePaid",
              "type": "uint256"
            },
            {
              "internalType": "uint256",
              "name": "lastTime",
              "type": "uint256"
            },
            {
              "internalType": "uint256",
              "name": "vesting",
              "type": "uint256"
            }
          ],
          "internalType": "struct LibBondStorage.Bond",
          "name": "",
          "type": "tuple"
        }
      ],
      "stateMutability": "view",
      "type": "function"
    },
    {
      "inputs": [
        {
          "internalType": "address",
          "name": "_principle",
          "type": "address"
        }
      ],
      "name": "bondPrice",
      "outputs": [
        {
          "internalType": "uint256",
          "name": "price_",
          "type": "uint256"
        }
      ],
      "stateMutability": "view",
      "type": "function"
    },
    {
      "inputs": [
        {
          "internalType": "address",
          "name": "_principle",
          "type": "address"
        }
      ],
      "name": "bondPriceInUSD",
      "outputs": [
        {
          "internalType": "uint256",
          "name": "price_",
          "type": "uint256"
        }
      ],
      "stateMutability": "view",
      "type": "function"
    },
    {
      "inputs": [
        {
          "internalType": "address",
          "name": "_principle",
          "type": "address"
        }
      ],
      "name": "currentDebt",
      "outputs": [
        {
          "internalType": "uint256",
          "name": "",
          "type": "uint256"
        }
      ],
      "stateMutability": "view",
      "type": "function"
    },
    {
      "inputs": [
        {
          "internalType": "address",
          "name": "_principle",
          "type": "address"
        }
      ],
      "name": "debtDecay",
      "outputs": [
        {
          "internalType": "uint256",
          "name": "decay_",
          "type": "uint256"
        }
      ],
      "stateMutability": "view",
      "type": "function"
    },
    {
      "inputs": [
        {
          "internalType": "address",
          "name": "_principle",
          "type": "address"
        }
      ],
      "name": "debtRatio",
      "outputs": [
        {
          "internalType": "uint256",
          "name": "debtRatio_",
          "type": "uint256"
        }
      ],
      "stateMutability": "view",
      "type": "function"
    },
    {
      "inputs": [
        {
          "internalType": "uint256",
          "name": "_amount",
          "type": "uint256"
        },
        {
          "internalType": "uint256",
          "name": "_maxPrice",
          "type": "uint256"
        },
        {
          "internalType": "address",
          "name": "_depositor",
          "type": "address"
        },
        {
          "internalType": "address",
          "name": "_principle",
          "type": "address"
        }
      ],
      "name": "deposit",
      "outputs": [
        {
          "internalType": "uint256",
          "name": "",
          "type": "uint256"
        }
      ],
      "stateMutability": "nonpayable",
      "type": "function"
    },
    {
      "inputs": [],
      "name": "distributeFees",
      "outputs": [],
      "stateMutability": "nonpayable",
      "type": "function"
    },
    {
      "inputs": [],
      "name": "farmDistributor",
      "outputs": [
        {
          "internalType": "address",
          "name": "",
          "type": "address"
        }
      ],
      "stateMutability": "view",
      "type": "function"
    },
    {
      "inputs": [
        {
          "internalType": "address",
          "name": "_principle",
          "type": "address"
        }
      ],
      "name": "maxPayout",
      "outputs": [
        {
          "internalType": "uint256",
          "name": "",
          "type": "uint256"
        }
      ],
      "stateMutability": "view",
      "type": "function"
    },
    {
      "inputs": [
        {
          "internalType": "uint256",
          "name": "_value",
          "type": "uint256"
        },
        {
          "internalType": "address",
          "name": "_principle",
          "type": "address"
        }
      ],
      "name": "payoutFor",
      "outputs": [
        {
          "internalType": "uint256",
          "name": "",
          "type": "uint256"
        }
      ],
      "stateMutability": "view",
      "type": "function"
    },
    {
      "inputs": [
        {
          "internalType": "address",
          "name": "_depositor",
          "type": "address"
        },
        {
          "internalType": "address",
          "name": "_principle",
          "type": "address"
        }
      ],
      "name": "pendingPayoutFor",
      "outputs": [
        {
          "internalType": "uint256",
          "name": "pendingPayout_",
          "type": "uint256"
        }
      ],
      "stateMutability": "view",
      "type": "function"
    },
    {
      "inputs": [
        {
          "internalType": "address",
          "name": "_depositor",
          "type": "address"
        },
        {
          "internalType": "address",
          "name": "_principle",
          "type": "address"
        }
      ],
      "name": "percentVestedFor",
      "outputs": [
        {
          "internalType": "uint256",
          "name": "percentVested_",
          "type": "uint256"
        }
      ],
      "stateMutability": "view",
      "type": "function"
    },
    {
      "inputs": [
        {
          "internalType": "address",
          "name": "_recipient",
          "type": "address"
        },
        {
          "internalType": "address",
          "name": "_principle",
          "type": "address"
        }
      ],
      "name": "redeem",
      "outputs": [
        {
          "internalType": "uint256",
          "name": "",
          "type": "uint256"
        }
      ],
      "stateMutability": "nonpayable",
      "type": "function"
    },
    {
      "inputs": [
        {
          "internalType": "address",
          "name": "_principle",
          "type": "address"
        }
      ],
      "name": "standardizedDebtRatio",
      "outputs": [
        {
          "internalType": "uint256",
          "name": "",
          "type": "uint256"
        }
      ],
      "stateMutability": "view",
      "type": "function"
    },
    {
      "inputs": [
        {
          "internalType": "address",
          "name": "_principle",
          "type": "address"
        }
      ],
      "name": "terms",
      "outputs": [
        {
          "components": [
            {
              "internalType": "uint256",
              "name": "controlVariable",
              "type": "uint256"
            },
            {
              "internalType": "uint256",
              "name": "minimumPrice",
              "type": "uint256"
            },
            {
              "internalType": "uint256",
              "name": "maxPayout",
              "type": "uint256"
            },
            {
              "internalType": "uint256",
              "name": "fee",
              "type": "uint256"
            },
            {
              "internalType": "uint256",
              "name": "maxDebt",
              "type": "uint256"
            },
            {
              "internalType": "uint256",
              "name": "vestingTerm",
              "type": "uint256"
            },
            {
              "internalType": "bool",
              "name": "isLiquidityBond",
              "type": "bool"
            }
          ],
          "internalType": "struct LibBondStorage.Terms",
          "name": "",
          "type": "tuple"
        }
      ],
      "stateMutability": "view",
      "type": "function"
    },
    {
      "inputs": [],
      "name": "treasury",
      "outputs": [
        {
          "internalType": "address",
          "name": "",
          "type": "address"
        }
      ],
      "stateMutability": "view",
      "type": "function"
    }
  ],
  "transactionHash": "0x5cee0ab5e1846f2a0499846816b1ed97b6736db6e6bc8ad1c323106cc6111486",
  "args": [],
  "solcInputHash": "f89c32e9a806b5ab848e67e64b8073a0",
  "bytecode": "0x608060405234801561001057600080fd5b506125da806100206000396000f3fe608060405234801561001057600080fd5b506004361061016c5760003560e01c806398fabd3a116100cd578063bba06f2711610081578063dc1d35a211610066578063dc1d35a21461036d578063de8d970814610380578063e300e98b1461039357600080fd5b8063bba06f27146102ef578063c8c819ac1461030257600080fd5b8063ad5fe5eb116100b2578063ad5fe5eb1461028c578063b11512e2146102d2578063bb57ad20146102e557600080fd5b806398fabd3a14610268578063aa5883451461027957600080fd5b80635eaffc7f116101245780636fcb5622116101095780636fcb56221461022f57806384715b1114610242578063884719f21461025557600080fd5b80635eaffc7f146101f557806361d027b31461021e57600080fd5b80632ddc1465116101555780632ddc1465146101bc5780632f74f461146101cf578063415d9f65146101e257600080fd5b80630523f1c31461017157806321d8d12314610197575b600080fd5b61018461017f36600461223e565b6103a6565b6040519081526020015b60405180910390f35b6006546001600160a01b03165b6040516001600160a01b03909116815260200161018e565b6101846101ca36600461226a565b6103dc565b6101846101dd36600461226a565b61051a565b6101846101f0366004612285565b6105c3565b61018461020336600461226a565b6001600160a01b03166000908152601f602052604090205490565b6004546001600160a01b03166101a4565b61018461023d366004612285565b610632565b6101846102503660046122af565b6106d1565b61018461026336600461226a565b610def565b6005546001600160a01b03166101a4565b61018461028736600461226a565b610e1f565b61029f61029a366004612285565b610eaf565b60405161018e91908151815260208083015190820152604080830151908201526060918201519181019190915260800190565b6101846102e036600461226a565b610f43565b6102ed610fbc565b005b6101846102fd366004612285565b611194565b61031561031036600461226a565b6113a7565b60405161018e9190600060e082019050825182526020830151602083015260408301516040830152606083015160608301526080830151608083015260a083015160a083015260c0830151151560c083015292915050565b61018461037b36600461226a565b611460565b61018461038e36600461226a565b6115b9565b6101846103a136600461226a565b611645565b60006103d3662386f26fc100006103cd6103c8866103c387610f43565b6116fb565b611882565b906118b7565b90505b92915050565b6000806103e981846118c3565b6000818152600a602052604090206006015490915060ff16156104b357600480546040517f32da80a30000000000000000000000000000000000000000000000000000000081526001600160a01b03868116938201939093526104ac92633b9aca00926103cd929116906332da80a390602401602060405180830381865afa158015610479573d6000803e3d6000fd5b505050506040513d601f19601f8201168201806040525081019061049d91906122f5565b6104a68761051a565b90611928565b9392505050565b6003546001600160a01b03848116911614156104d2576104ac8361051a565b6040517fcacddcb30000000000000000000000000000000000000000000000000000000081526001600160a01b03841660048201526024015b60405180910390fd5b50919050565b60006103d6670de0b6b3a76400006103cd6103c861053f633b9aca006104a688610def565b60048054604080517f860f504800000000000000000000000000000000000000000000000000000000815290516001600160a01b039092169263860f50489282820192602092908290030181865afa15801561059f573d6000803e3d6000fd5b505050506040513d601f19601f820116820180604052508101906103c391906122f5565b6000806105d081846118c3565b905060006105de8585610632565b6001600160a01b0386166000908152600c60209081526040808320868452909152902054909150612710821061061657809350610629565b6106266127106103cd8385611928565b93505b50505092915050565b60008061063f81846118c3565b6001600160a01b0385166000908152600c60209081526040808320848452825280832081516080810183528154815260018201549381019390935260028101549183018290526003015460608301529293509161069d904290611934565b606083015190915080156106c2576106bb816103cd84612710611928565b94506106c7565b600094505b5050505092915050565b60006001600160a01b0383166107295760405162461bcd60e51b815260206004820152600f60248201527f496e76616c696420616464726573730000000000000000000000000000000000604482015260640161050b565b600061073581846118c3565b6000818152600a6020908152604091829020825160e081018452815481526001820154928101929092526002810154928201929092526003820154606082015260048201546080820152600582015460a082015260069091015460ff16151560c08201529091506107a584611940565b60808101516000838152600d602052604090205411156108075760405162461bcd60e51b815260206004820152601460248201527f4d61782063617061636974792072656163686564000000000000000000000000604482015260640161050b565b6000806108138661197b565b90508088101561088b5760405162461bcd60e51b815260206004820152602360248201527f536c697070616765206c696d69743a206d6f7265207468616e206d617820707260448201527f6963650000000000000000000000000000000000000000000000000000000000606482015260840161050b565b600480546040517fd1b317e50000000000000000000000000000000000000000000000000000000081526001600160a01b0389811693820193909352602481018c90526000929091169063d1b317e590604401602060405180830381865afa1580156108fb573d6000803e3d6000fd5b505050506040513d601f19601f8201168201806040525081019061091f91906122f5565b9050600061092d82896103a6565b9050629896808110156109825760405162461bcd60e51b815260206004820152600e60248201527f426f6e6420746f6f20736d616c6c000000000000000000000000000000000000604482015260640161050b565b61098b88611645565b8111156109da5760405162461bcd60e51b815260206004820152600e60248201527f426f6e6420746f6f206c61726765000000000000000000000000000000000000604482015260640161050b565b60006109f96127106103cd88606001518561192890919063ffffffff16565b90506000610a078383611934565b1115610cb2578b9450610a1a898d611a08565b6000878152600a602052604090206006015460ff1615610ae95760045492945084926001600160a01b031663082db9d78d8b86610a6186610a5b838a611934565b90611934565b6040517fffffffff0000000000000000000000000000000000000000000000000000000060e087901b16815260048101949094526001600160a01b03909216602484015260448301526064820152608401600060405180830381600087803b158015610acc57600080fd5b505af1158015610ae0573d6000803e3d6000fd5b50505050610bfe565b6003546001600160a01b038a811691161415610bc157610b0889611460565b6004549095506001600160a01b031663bc157ac18d8b610b2c85610a5b8989611934565b6040517fffffffff0000000000000000000000000000000000000000000000000000000060e086901b16815260048101939093526001600160a01b03909116602483015260448201526064016020604051808303816000875af1158015610b97573d6000803e3d6000fd5b505050506040513d601f19601f82011682018060405250810190610bbb91906122f5565b50610bfe565b6040517fcacddcb30000000000000000000000000000000000000000000000000000000081526001600160a01b038a16600482015260240161050b565b6005546001600160a01b031615610c50576005546001600160a01b03166000908152601f6020526040902054610c349082611ab4565b6005546001600160a01b03166000908152601f60205260409020555b6006546001600160a01b031615610cb257610c96610c756127106103cd856064611928565b6006546001600160a01b03166000908152601f602052604090205490611ab4565b6006546001600160a01b03166000908152601f60205260409020555b6000878152600d6020526040902054610ccb9084611ab4565b6000888152600d602090815260408083209390935582516080810184526001600160a01b038e168352600c82528383208b8452909152919020548190610d119085611ab4565b81526020018681526020014281526020018760a001518152506000600c0160008c6001600160a01b03166001600160a01b0316815260200190815260200160002060008981526020019081526020016000206000820151816000015560208201518160010155604082015181600201556060820151816003015590505084610da68760a0015142611ab490919063ffffffff16565b837f1fec6dc81f140574bf43f6b1e420ae1dd47928b9d57db8cbd7b8611063b85ae58f604051610dd891815260200190565b60405180910390a4509a9950505050505050505050565b600080610dfc81846118c3565b90506104ac610e0a846115b9565b6000838152600d602052604090205490611934565b600080610e2c81846118c3565b6000818152600b60205260408120919250610e4685611ac0565b825490915060ff1615610e73576000838152600a6020526040902054610e6c9082611ab4565b9350610ea7565b6000838152600a6020526040902054811015610ea2576000838152600a6020526040902054610e6c9082611934565b600193505b505050919050565b610eda6040518060800160405280600081526020016000815260200160008152602001600081525090565b6000610ee681846118c3565b6001600160a01b0385166000908152600c6020908152604080832093835292815290829020825160808101845281548152600182015492810192909252600281015492820192909252600390910154606082015291505092915050565b600080610f5081846118c3565b9050610f88629896806103cd633b9aca00610f82610f6d8861051a565b6000878152600a602052604090205490611928565b90611ab4565b6000828152600a6020526040902060010154909250821015610514576000908152600a602052604090206001015492915050565b6005546001600160a01b031615801590610fef57506005546001600160a01b03166000908152601f602052604090205415155b156110a7576005546001600160a01b03166000818152601f60205260409020546110199190611b5c565b61108b5760405162461bcd60e51b815260206004820152602160248201527f4661696c656420746f2064697374726962757465206665657320666f7220444160448201527f4f00000000000000000000000000000000000000000000000000000000000000606482015260840161050b565b6005546001600160a01b03166000908152601f60205260408120555b6006546001600160a01b0316158015906110da57506006546001600160a01b03166000908152601f602052604090205415155b15611192576006546001600160a01b03166000818152601f60205260409020546111049190611b5c565b6111765760405162461bcd60e51b815260206004820152602260248201527f4661696c656420746f2064697374726962757465206665657320666f7220666160448201527f726d000000000000000000000000000000000000000000000000000000000000606482015260840161050b565b6006546001600160a01b03166000908152601f60205260408120555b565b6000806111a181846118c3565b6001600160a01b0385166000908152600c6020908152604080832084845282528083208151608081018352815481526001820154938101939093526002810154918301919091526003015460608201529192506111fe8686610632565b9050612710811061129b576001600160a01b0386166000818152600c602090815260408083208784529091528082208281556001810183905560028101839055600301829055845190517f51c99f515c87b0d95ba97f616edd182e8f161c4932eac17c6fefe9dab58b77b19261127b928252602082015260400190565b60405180910390a2611291868360000151611b5c565b93505050506103d6565b81516000906112b290612710906103cd9085611928565b905060405180608001604052806112d683866000015161193490919063ffffffff16565b81526020018460200151815260200142815260200161131061130586604001514261193490919063ffffffff16565b606087015190611934565b90526001600160a01b0388166000818152600c60209081526040808320898452825291829020845180825585830151600183015585840151600283015560609095015160039091015581518581529081019390935290917f51c99f515c87b0d95ba97f616edd182e8f161c4932eac17c6fefe9dab58b77b1910160405180910390a261139c8782611b5c565b9450505050506103d6565b6113e96040518060e001604052806000815260200160008152602001600081526020016000815260200160008152602001600081526020016000151581525090565b60006113f581846118c3565b6000908152600a6020908152604091829020825160e081018452815481526001820154928101929092526002810154928201929092526003820154606082015260048201546080820152600582015460a082015260069091015460ff16151560c08201529392505050565b60008061146d81846118c3565b6000818152600a602052604090206006015490915060ff161561152e57600480546040517f32da80a30000000000000000000000000000000000000000000000000000000081526001600160a01b0386811693820193909352611527926064926103cd929116906332da80a390602401602060405180830381865afa1580156114fa573d6000803e3d6000fd5b505050506040513d601f19601f8201168201806040525081019061151e91906122f5565b6104a687610f43565b9150610514565b6003546001600160a01b03848116911614156104d25761152760646103cd856001600160a01b031663313ce5676040518163ffffffff1660e01b8152600401602060405180830381865afa15801561158a573d6000803e3d6000fd5b505050506040513d601f19601f820116820180604052508101906115ae919061230e565b61151e90600a612423565b6000806115c681846118c3565b6000818152600e6020526040812054919250906115e4904290611934565b6000838152600a6020908152604080832060050154600d90925290912054919250611613916103cd9084611928565b6000838152600d602052604090205490935083111561163e576000828152600d602052604090205492505b5050919050565b60008061165281846118c3565b6000818152600a6020908152604091829020600201546004805484517f860f504800000000000000000000000000000000000000000000000000000000815294519596506104ac95620186a0956103cd956001600160a01b039093169363860f5048938282019390929091908290030181865afa1580156116d7573d6000803e3d6000fd5b505050506040513d601f19601f820116820180604052508101906104a691906122f5565b604080516020810190915260008152600082116117805760405162461bcd60e51b815260206004820152602660248201527f4669786564506f696e743a3a6672616374696f6e3a206469766973696f6e206260448201527f79207a65726f0000000000000000000000000000000000000000000000000000606482015260840161050b565b8261179a57506040805160208101909152600081526103d6565b71ffffffffffffffffffffffffffffffffffff83116118665760006117c383607086901b612448565b90507bffffffffffffffffffffffffffffffffffffffffffffffffffffffff8111156118315760405162461bcd60e51b815260206004820152601e60248201527f4669786564506f696e743a3a6672616374696f6e3a206f766572666c6f770000604482015260640161050b565b6040518060200160405280827bffffffffffffffffffffffffffffffffffffffffffffffffffffffff168152509150506103d6565b60006117c3846e01000000000000000000000000000085611c7e565b80516000906103d6906612725dd1d243ab907bffffffffffffffffffffffffffffffffffffffffffffffffffffffff16612448565b60006103d38284612448565b6000806118d284600801611d2d565b905060005b8181101561192057836001600160a01b03166118f68660080183611d37565b6001600160a01b0316141561190e5791506103d69050565b806119188161246a565b9150506118d7565b505092915050565b60006103d38284612485565b60006103d382846124a4565b600061194c81836118c3565b905061195a610e0a836115b9565b6000918252600d6020908152604080842092909255600e9052902042905550565b60008061198881846118c3565b90506119a5629896806103cd633b9aca00610f82610f6d8861051a565b6000828152600a60205260409020600101549092508210156119da576000818152600a60205260409020600101549150610514565b6000818152600a602052604090206001015415610514576000908152600a6020526040812060010155919050565b611a1d6001600160a01b038316333084611d43565b600480546040517f095ea7b30000000000000000000000000000000000000000000000000000000081526001600160a01b03918216928101929092526024820183905283169063095ea7b3906044016020604051808303816000875af1158015611a8b573d6000803e3d6000fd5b505050506040513d601f19601f82011682018060405250810190611aaf91906124bb565b505050565b60006103d382846124dd565b600080611acd81846118c3565b6000818152600b602090815260408083208151608081018352815460ff1615158152600182015493810193909352600281015491830191909152600301546060820181905292935091611b21904290611934565b9050611b4282604001516103cd83856020015161192890919063ffffffff16565b93508160200151841115610ea75750602001519392505050565b600080546040517f095ea7b3000000000000000000000000000000000000000000000000000000008152306004820152602481018490526001600160a01b039091169063095ea7b3906044016020604051808303816000875af1158015611bc7573d6000803e3d6000fd5b505050506040513d601f19601f82011682018060405250810190611beb91906124bb565b506040517f7acb7757000000000000000000000000000000000000000000000000000000008152600481018390526001600160a01b03841660248201523090637acb7757906044016020604051808303816000875af1158015611c52573d6000803e3d6000fd5b505050506040513d601f19601f82011682018060405250810190611c7691906124bb565b509092915050565b6000806000611c8d8686611dd1565b9150915060008480611ca157611ca1612432565b868809905082811115611cbc57611cb96001836124a4565b91505b611cc681846124a4565b9250848210611d175760405162461bcd60e51b815260206004820152601a60248201527f46756c6c4d6174683a3a6d756c4469763a206f766572666c6f77000000000000604482015260640161050b565b611d22838387611e13565b979650505050505050565b60006103d6825490565b60006103d38383611f94565b604080516001600160a01b0385811660248301528416604482015260648082018490528251808303909101815260849091019091526020810180517bffffffffffffffffffffffffffffffffffffffffffffffffffffffff167f23b872dd00000000000000000000000000000000000000000000000000000000179052611dcb908590611fbe565b50505050565b600080806000198486099050611de78486612485565b9250611df383826124a4565b915082811015611e0b57611e086001836124a4565b91505b509250929050565b600080611e22831960016124dd565b83169050611e308184612448565b9250611e3c8186612448565b945080611e4b811960016124dd565b611e559190612448565b611e609060016124dd565b611e6a9085612485565b611e7490866124dd565b94506001611e828185612485565b611e8d9060026124a4565b611e979082612485565b9050611ea38185612485565b611eae9060026124a4565b611eb89082612485565b9050611ec48185612485565b611ecf9060026124a4565b611ed99082612485565b9050611ee58185612485565b611ef09060026124a4565b611efa9082612485565b9050611f068185612485565b611f119060026124a4565b611f1b9082612485565b9050611f278185612485565b611f329060026124a4565b611f3c9082612485565b9050611f488185612485565b611f539060026124a4565b611f5d9082612485565b9050611f698185612485565b611f749060026124a4565b611f7e9082612485565b9050611f8a8187612485565b9695505050505050565b6000826000018281548110611fab57611fab6124f5565b9060005260206000200154905092915050565b6000612013826040518060400160405280602081526020017f5361666545524332303a206c6f772d6c6576656c2063616c6c206661696c6564815250856001600160a01b03166120a39092919063ffffffff16565b805190915015611aaf578080602001905181019061203191906124bb565b611aaf5760405162461bcd60e51b815260206004820152602a60248201527f5361666545524332303a204552433230206f7065726174696f6e20646964206e60448201527f6f74207375636365656400000000000000000000000000000000000000000000606482015260840161050b565b60606120b284846000856120ba565b949350505050565b6060824710156121325760405162461bcd60e51b815260206004820152602660248201527f416464726573733a20696e73756666696369656e742062616c616e636520666f60448201527f722063616c6c0000000000000000000000000000000000000000000000000000606482015260840161050b565b843b6121805760405162461bcd60e51b815260206004820152601d60248201527f416464726573733a2063616c6c20746f206e6f6e2d636f6e7472616374000000604482015260640161050b565b600080866001600160a01b0316858760405161219c9190612537565b60006040518083038185875af1925050503d80600081146121d9576040519150601f19603f3d011682016040523d82523d6000602084013e6121de565b606091505b5091509150611d22828286606083156121f85750816104ac565b8251156122085782518084602001fd5b8160405162461bcd60e51b815260040161050b9190612553565b80356001600160a01b038116811461223957600080fd5b919050565b6000806040838503121561225157600080fd5b8235915061226160208401612222565b90509250929050565b60006020828403121561227c57600080fd5b6103d382612222565b6000806040838503121561229857600080fd5b6122a183612222565b915061226160208401612222565b600080600080608085870312156122c557600080fd5b84359350602085013592506122dc60408601612222565b91506122ea60608601612222565b905092959194509250565b60006020828403121561230757600080fd5b5051919050565b60006020828403121561232057600080fd5b815160ff811681146104ac57600080fd5b634e487b7160e01b600052601160045260246000fd5b600181815b80851115611e0b57816000190482111561236857612368612331565b8085161561237557918102915b93841c939080029061234c565b600082612391575060016103d6565b8161239e575060006103d6565b81600181146123b457600281146123be576123da565b60019150506103d6565b60ff8411156123cf576123cf612331565b50506001821b6103d6565b5060208310610133831016604e8410600b84101617156123fd575081810a6103d6565b6124078383612347565b806000190482111561241b5761241b612331565b029392505050565b60006103d360ff841683612382565b634e487b7160e01b600052601260045260246000fd5b60008261246557634e487b7160e01b600052601260045260246000fd5b500490565b600060001982141561247e5761247e612331565b5060010190565b600081600019048311821515161561249f5761249f612331565b500290565b6000828210156124b6576124b6612331565b500390565b6000602082840312156124cd57600080fd5b815180151581146104ac57600080fd5b600082198211156124f0576124f0612331565b500190565b634e487b7160e01b600052603260045260246000fd5b60005b8381101561252657818101518382015260200161250e565b83811115611dcb5750506000910152565b6000825161254981846020870161250b565b9190910192915050565b602081526000825180602084015261257281604085016020870161250b565b601f017fffffffffffffffffffffffffffffffffffffffffffffffffffffffffffffffe016919091016040019291505056fea2646970667358221220e05bf6ec5b5c978b39ac72da253c80dece6ba43d78f8738e7604b85ea6cc73ca64736f6c634300080a0033",
  "devdoc": {
    "kind": "dev",
    "methods": {
      "bondPrice(address)": {
        "returns": {
          "price_": "uint"
        }
      },
      "bondPriceInUSD(address)": {
        "returns": {
          "price_": "uint"
        }
      },
      "currentDebt(address)": {
        "returns": {
          "_0": "uint"
        }
      },
      "debtDecay(address)": {
        "returns": {
          "decay_": "uint"
        }
      },
      "debtRatio(address)": {
        "returns": {
          "debtRatio_": "uint"
        }
      },
      "deposit(uint256,uint256,address,address)": {
        "params": {
          "_amount": "uint",
          "_depositor": "address",
          "_maxPrice": "uint"
        },
        "returns": {
          "_0": "uint"
        }
      },
      "maxPayout(address)": {
        "returns": {
          "_0": "uint"
        }
      },
      "payoutFor(uint256,address)": {
        "params": {
          "_value": "uint"
        },
        "returns": {
          "_0": "uint"
        }
      },
      "pendingPayoutFor(address,address)": {
        "params": {
          "_depositor": "address"
        },
        "returns": {
          "pendingPayout_": "uint"
        }
      },
      "percentVestedFor(address,address)": {
        "params": {
          "_depositor": "address"
        },
        "returns": {
          "percentVested_": "uint"
        }
      },
      "redeem(address,address)": {
        "params": {
          "_principle": "address",
          "_recipient": "address"
        },
        "returns": {
          "_0": "uint"
        }
      },
      "standardizedDebtRatio(address)": {
        "returns": {
          "_0": "uint"
        }
      }
    },
    "version": 1
  },
  "userdoc": {
    "kind": "user",
    "methods": {
      "bondPrice(address)": {
        "notice": "calculate current bond premium"
      },
      "bondPriceInUSD(address)": {
        "notice": "converts bond price to DAI value"
      },
      "currentDebt(address)": {
        "notice": "calculate debt factoring in decay"
      },
      "debtDecay(address)": {
        "notice": "amount to decay total debt by"
      },
      "debtRatio(address)": {
        "notice": "calculate current ratio of debt to Necc supply"
      },
      "deposit(uint256,uint256,address,address)": {
        "notice": "deposit bond"
      },
      "maxPayout(address)": {
        "notice": "determine maximum bond size"
      },
      "payoutFor(uint256,address)": {
        "notice": "calculate interest due for new bond"
      },
      "pendingPayoutFor(address,address)": {
        "notice": "calculate amount of Necc available for claim by depositor"
      },
      "percentVestedFor(address,address)": {
        "notice": "calculate how far into vesting a depositor is"
      },
      "redeem(address,address)": {
        "notice": "redeem bond for user"
      },
      "standardizedDebtRatio(address)": {
        "notice": "debt ratio in same terms for reserve or liquidity bonds"
      }
    },
    "version": 1
  },
  "storageLayout": {
    "storage": [
      {
        "astId": 6865,
        "contract": "contracts/facets/Bond/BondDepositoryFacet.sol:BondDepositoryFacet",
        "label": "s",
        "offset": 0,
        "slot": "0",
        "type": "t_struct(Storage)20688_storage"
      }
    ],
    "types": {
      "t_address": {
        "encoding": "inplace",
        "label": "address",
        "numberOfBytes": "20"
      },
      "t_array(t_bytes32)dyn_storage": {
        "base": "t_bytes32",
        "encoding": "dynamic_array",
        "label": "bytes32[]",
        "numberOfBytes": "32"
      },
      "t_array(t_struct(Info)20538_storage)dyn_storage": {
        "base": "t_struct(Info)20538_storage",
        "encoding": "dynamic_array",
        "label": "struct LibBondStorage.Info[]",
        "numberOfBytes": "32"
      },
      "t_array(t_struct(Payout)20533_storage)dyn_storage": {
        "base": "t_struct(Payout)20533_storage",
        "encoding": "dynamic_array",
        "label": "struct LibBondStorage.Payout[]",
        "numberOfBytes": "32"
      },
      "t_bool": {
        "encoding": "inplace",
        "label": "bool",
        "numberOfBytes": "1"
      },
      "t_bytes32": {
        "encoding": "inplace",
        "label": "bytes32",
        "numberOfBytes": "32"
      },
      "t_mapping(t_address,t_mapping(t_uint256,t_struct(Bond)20569_storage))": {
        "encoding": "mapping",
        "key": "t_address",
        "label": "mapping(address => mapping(uint256 => struct LibBondStorage.Bond))",
        "numberOfBytes": "32",
        "value": "t_mapping(t_uint256,t_struct(Bond)20569_storage)"
      },
      "t_mapping(t_address,t_struct(Claim)20596_storage)": {
        "encoding": "mapping",
        "key": "t_address",
        "label": "mapping(address => struct LibBondStorage.Claim)",
        "numberOfBytes": "32",
        "value": "t_struct(Claim)20596_storage"
      },
      "t_mapping(t_address,t_uint256)": {
        "encoding": "mapping",
        "key": "t_address",
        "label": "mapping(address => uint256)",
        "numberOfBytes": "32",
        "value": "t_uint256"
      },
      "t_mapping(t_bytes32,t_uint256)": {
        "encoding": "mapping",
        "key": "t_bytes32",
        "label": "mapping(bytes32 => uint256)",
        "numberOfBytes": "32",
        "value": "t_uint256"
      },
      "t_mapping(t_uint256,t_address)": {
        "encoding": "mapping",
        "key": "t_uint256",
        "label": "mapping(uint256 => address)",
        "numberOfBytes": "32",
        "value": "t_address"
      },
      "t_mapping(t_uint256,t_array(t_struct(Payout)20533_storage)dyn_storage)": {
        "encoding": "mapping",
        "key": "t_uint256",
        "label": "mapping(uint256 => struct LibBondStorage.Payout[])",
        "numberOfBytes": "32",
        "value": "t_array(t_struct(Payout)20533_storage)dyn_storage"
      },
      "t_mapping(t_uint256,t_struct(Bond)20569_storage)": {
        "encoding": "mapping",
        "key": "t_uint256",
        "label": "mapping(uint256 => struct LibBondStorage.Bond)",
        "numberOfBytes": "32",
        "value": "t_struct(Bond)20569_storage"
      },
      "t_mapping(t_uint256,t_struct(BondDepositoryAdjustment)20578_storage)": {
        "encoding": "mapping",
        "key": "t_uint256",
        "label": "mapping(uint256 => struct LibBondStorage.BondDepositoryAdjustment)",
        "numberOfBytes": "32",
        "value": "t_struct(BondDepositoryAdjustment)20578_storage"
      },
      "t_mapping(t_uint256,t_struct(DistributorAdjustment)20545_storage)": {
        "encoding": "mapping",
        "key": "t_uint256",
        "label": "mapping(uint256 => struct LibBondStorage.DistributorAdjustment)",
        "numberOfBytes": "32",
        "value": "t_struct(DistributorAdjustment)20545_storage"
      },
      "t_mapping(t_uint256,t_struct(Terms)20560_storage)": {
        "encoding": "mapping",
        "key": "t_uint256",
        "label": "mapping(uint256 => struct LibBondStorage.Terms)",
        "numberOfBytes": "32",
        "value": "t_struct(Terms)20560_storage"
      },
      "t_mapping(t_uint256,t_uint256)": {
        "encoding": "mapping",
        "key": "t_uint256",
        "label": "mapping(uint256 => uint256)",
        "numberOfBytes": "32",
        "value": "t_uint256"
      },
      "t_struct(AddressSet)1348_storage": {
        "encoding": "inplace",
        "label": "struct EnumerableSet.AddressSet",
        "members": [
          {
            "astId": 1347,
            "contract": "contracts/facets/Bond/BondDepositoryFacet.sol:BondDepositoryFacet",
            "label": "_inner",
            "offset": 0,
            "slot": "0",
            "type": "t_struct(Set)1047_storage"
          }
        ],
        "numberOfBytes": "64"
      },
      "t_struct(Bond)20569_storage": {
        "encoding": "inplace",
        "label": "struct LibBondStorage.Bond",
        "members": [
          {
            "astId": 20562,
            "contract": "contracts/facets/Bond/BondDepositoryFacet.sol:BondDepositoryFacet",
            "label": "payout",
            "offset": 0,
            "slot": "0",
            "type": "t_uint256"
          },
          {
            "astId": 20564,
            "contract": "contracts/facets/Bond/BondDepositoryFacet.sol:BondDepositoryFacet",
            "label": "pricePaid",
            "offset": 0,
            "slot": "1",
            "type": "t_uint256"
          },
          {
            "astId": 20566,
            "contract": "contracts/facets/Bond/BondDepositoryFacet.sol:BondDepositoryFacet",
            "label": "lastTime",
            "offset": 0,
            "slot": "2",
            "type": "t_uint256"
          },
          {
            "astId": 20568,
            "contract": "contracts/facets/Bond/BondDepositoryFacet.sol:BondDepositoryFacet",
            "label": "vesting",
            "offset": 0,
            "slot": "3",
            "type": "t_uint256"
          }
        ],
        "numberOfBytes": "128"
      },
      "t_struct(BondDepositoryAdjustment)20578_storage": {
        "encoding": "inplace",
        "label": "struct LibBondStorage.BondDepositoryAdjustment",
        "members": [
          {
            "astId": 20571,
            "contract": "contracts/facets/Bond/BondDepositoryFacet.sol:BondDepositoryFacet",
            "label": "add",
            "offset": 0,
            "slot": "0",
            "type": "t_bool"
          },
          {
            "astId": 20573,
            "contract": "contracts/facets/Bond/BondDepositoryFacet.sol:BondDepositoryFacet",
            "label": "delta",
            "offset": 0,
            "slot": "1",
            "type": "t_uint256"
          },
          {
            "astId": 20575,
            "contract": "contracts/facets/Bond/BondDepositoryFacet.sol:BondDepositoryFacet",
            "label": "timeToTarget",
            "offset": 0,
            "slot": "2",
            "type": "t_uint256"
          },
          {
            "astId": 20577,
            "contract": "contracts/facets/Bond/BondDepositoryFacet.sol:BondDepositoryFacet",
            "label": "lastTime",
            "offset": 0,
            "slot": "3",
            "type": "t_uint256"
          }
        ],
        "numberOfBytes": "128"
      },
      "t_struct(Claim)20596_storage": {
        "encoding": "inplace",
        "label": "struct LibBondStorage.Claim",
        "members": [
          {
            "astId": 20589,
            "contract": "contracts/facets/Bond/BondDepositoryFacet.sol:BondDepositoryFacet",
            "label": "deposit",
            "offset": 0,
            "slot": "0",
            "type": "t_uint256"
          },
          {
            "astId": 20591,
            "contract": "contracts/facets/Bond/BondDepositoryFacet.sol:BondDepositoryFacet",
            "label": "gons",
            "offset": 0,
            "slot": "1",
            "type": "t_uint256"
          },
          {
            "astId": 20593,
            "contract": "contracts/facets/Bond/BondDepositoryFacet.sol:BondDepositoryFacet",
            "label": "expiry",
            "offset": 0,
            "slot": "2",
            "type": "t_uint256"
          },
          {
            "astId": 20595,
            "contract": "contracts/facets/Bond/BondDepositoryFacet.sol:BondDepositoryFacet",
            "label": "lock",
            "offset": 0,
            "slot": "3",
            "type": "t_bool"
          }
        ],
        "numberOfBytes": "128"
      },
      "t_struct(DistributorAdjustment)20545_storage": {
        "encoding": "inplace",
        "label": "struct LibBondStorage.DistributorAdjustment",
        "members": [
          {
            "astId": 20540,
            "contract": "contracts/facets/Bond/BondDepositoryFacet.sol:BondDepositoryFacet",
            "label": "add",
            "offset": 0,
            "slot": "0",
            "type": "t_bool"
          },
          {
            "astId": 20542,
            "contract": "contracts/facets/Bond/BondDepositoryFacet.sol:BondDepositoryFacet",
            "label": "rate",
            "offset": 0,
            "slot": "1",
            "type": "t_uint256"
          },
          {
            "astId": 20544,
            "contract": "contracts/facets/Bond/BondDepositoryFacet.sol:BondDepositoryFacet",
            "label": "target",
            "offset": 0,
            "slot": "2",
            "type": "t_uint256"
          }
        ],
        "numberOfBytes": "96"
      },
      "t_struct(Epoch)20587_storage": {
        "encoding": "inplace",
        "label": "struct LibBondStorage.Epoch",
        "members": [
          {
            "astId": 20580,
            "contract": "contracts/facets/Bond/BondDepositoryFacet.sol:BondDepositoryFacet",
            "label": "number",
            "offset": 0,
            "slot": "0",
            "type": "t_uint256"
          },
          {
            "astId": 20582,
            "contract": "contracts/facets/Bond/BondDepositoryFacet.sol:BondDepositoryFacet",
            "label": "distribute",
            "offset": 0,
            "slot": "1",
            "type": "t_uint256"
          },
          {
            "astId": 20584,
            "contract": "contracts/facets/Bond/BondDepositoryFacet.sol:BondDepositoryFacet",
            "label": "length",
            "offset": 0,
            "slot": "2",
            "type": "t_uint256"
          },
          {
            "astId": 20586,
            "contract": "contracts/facets/Bond/BondDepositoryFacet.sol:BondDepositoryFacet",
            "label": "endTime",
            "offset": 0,
            "slot": "3",
            "type": "t_uint256"
          }
        ],
        "numberOfBytes": "128"
      },
      "t_struct(Info)20538_storage": {
        "encoding": "inplace",
        "label": "struct LibBondStorage.Info",
        "members": [
          {
            "astId": 20535,
            "contract": "contracts/facets/Bond/BondDepositoryFacet.sol:BondDepositoryFacet",
            "label": "rate",
            "offset": 0,
            "slot": "0",
            "type": "t_uint256"
          },
          {
            "astId": 20537,
            "contract": "contracts/facets/Bond/BondDepositoryFacet.sol:BondDepositoryFacet",
            "label": "recipient",
            "offset": 0,
            "slot": "1",
            "type": "t_address"
          }
        ],
        "numberOfBytes": "64"
      },
      "t_struct(Payout)20533_storage": {
        "encoding": "inplace",
        "label": "struct LibBondStorage.Payout",
        "members": [
          {
            "astId": 20530,
            "contract": "contracts/facets/Bond/BondDepositoryFacet.sol:BondDepositoryFacet",
            "label": "amount",
            "offset": 0,
            "slot": "0",
            "type": "t_uint256"
          },
          {
            "astId": 20532,
            "contract": "contracts/facets/Bond/BondDepositoryFacet.sol:BondDepositoryFacet",
            "label": "blockTimestamp",
            "offset": 0,
            "slot": "1",
            "type": "t_uint256"
          }
        ],
        "numberOfBytes": "64"
      },
      "t_struct(Set)1047_storage": {
        "encoding": "inplace",
        "label": "struct EnumerableSet.Set",
        "members": [
          {
            "astId": 1042,
            "contract": "contracts/facets/Bond/BondDepositoryFacet.sol:BondDepositoryFacet",
            "label": "_values",
            "offset": 0,
            "slot": "0",
            "type": "t_array(t_bytes32)dyn_storage"
          },
          {
            "astId": 1046,
            "contract": "contracts/facets/Bond/BondDepositoryFacet.sol:BondDepositoryFacet",
            "label": "_indexes",
            "offset": 0,
            "slot": "1",
            "type": "t_mapping(t_bytes32,t_uint256)"
          }
        ],
        "numberOfBytes": "64"
      },
      "t_struct(Storage)20688_storage": {
        "encoding": "inplace",
        "label": "struct LibBondStorage.Storage",
        "members": [
          {
            "astId": 20598,
            "contract": "contracts/facets/Bond/BondDepositoryFacet.sol:BondDepositoryFacet",
            "label": "Necc",
            "offset": 0,
            "slot": "0",
            "type": "t_address"
          },
          {
            "astId": 20600,
            "contract": "contracts/facets/Bond/BondDepositoryFacet.sol:BondDepositoryFacet",
            "label": "sNecc",
            "offset": 0,
            "slot": "1",
            "type": "t_address"
          },
          {
            "astId": 20602,
            "contract": "contracts/facets/Bond/BondDepositoryFacet.sol:BondDepositoryFacet",
            "label": "nNecc",
            "offset": 0,
            "slot": "2",
            "type": "t_address"
          },
          {
            "astId": 20604,
            "contract": "contracts/facets/Bond/BondDepositoryFacet.sol:BondDepositoryFacet",
            "label": "ndol",
            "offset": 0,
            "slot": "3",
            "type": "t_address"
          },
          {
            "astId": 20606,
            "contract": "contracts/facets/Bond/BondDepositoryFacet.sol:BondDepositoryFacet",
            "label": "treasury",
            "offset": 0,
            "slot": "4",
            "type": "t_address"
          },
          {
            "astId": 20608,
            "contract": "contracts/facets/Bond/BondDepositoryFacet.sol:BondDepositoryFacet",
            "label": "DAO",
            "offset": 0,
            "slot": "5",
            "type": "t_address"
          },
          {
            "astId": 20610,
            "contract": "contracts/facets/Bond/BondDepositoryFacet.sol:BondDepositoryFacet",
            "label": "farmDistributor",
            "offset": 0,
            "slot": "6",
            "type": "t_address"
          },
          {
            "astId": 20612,
            "contract": "contracts/facets/Bond/BondDepositoryFacet.sol:BondDepositoryFacet",
            "label": "staking",
            "offset": 0,
            "slot": "7",
            "type": "t_address"
          },
          {
            "astId": 20615,
            "contract": "contracts/facets/Bond/BondDepositoryFacet.sol:BondDepositoryFacet",
            "label": "principles",
            "offset": 0,
            "slot": "8",
            "type": "t_struct(AddressSet)1348_storage"
          },
          {
            "astId": 20620,
            "contract": "contracts/facets/Bond/BondDepositoryFacet.sol:BondDepositoryFacet",
            "label": "terms",
            "offset": 0,
            "slot": "10",
            "type": "t_mapping(t_uint256,t_struct(Terms)20560_storage)"
          },
          {
            "astId": 20625,
            "contract": "contracts/facets/Bond/BondDepositoryFacet.sol:BondDepositoryFacet",
            "label": "bondDepositoryAdjustment",
            "offset": 0,
            "slot": "11",
            "type": "t_mapping(t_uint256,t_struct(BondDepositoryAdjustment)20578_storage)"
          },
          {
            "astId": 20632,
            "contract": "contracts/facets/Bond/BondDepositoryFacet.sol:BondDepositoryFacet",
            "label": "bondInfo",
            "offset": 0,
            "slot": "12",
            "type": "t_mapping(t_address,t_mapping(t_uint256,t_struct(Bond)20569_storage))"
          },
          {
            "astId": 20636,
            "contract": "contracts/facets/Bond/BondDepositoryFacet.sol:BondDepositoryFacet",
            "label": "totalDebt",
            "offset": 0,
            "slot": "13",
            "type": "t_mapping(t_uint256,t_uint256)"
          },
          {
            "astId": 20640,
            "contract": "contracts/facets/Bond/BondDepositoryFacet.sol:BondDepositoryFacet",
            "label": "lastDecay",
            "offset": 0,
            "slot": "14",
            "type": "t_mapping(t_uint256,t_uint256)"
          },
          {
            "astId": 20644,
            "contract": "contracts/facets/Bond/BondDepositoryFacet.sol:BondDepositoryFacet",
            "label": "nextEpochTimestamp",
            "offset": 0,
            "slot": "15",
            "type": "t_mapping(t_uint256,t_uint256)"
          },
          {
            "astId": 20648,
            "contract": "contracts/facets/Bond/BondDepositoryFacet.sol:BondDepositoryFacet",
            "label": "priceFeeds",
            "offset": 0,
            "slot": "16",
            "type": "t_mapping(t_uint256,t_address)"
          },
          {
            "astId": 20652,
            "contract": "contracts/facets/Bond/BondDepositoryFacet.sol:BondDepositoryFacet",
            "label": "info",
            "offset": 0,
            "slot": "17",
            "type": "t_array(t_struct(Info)20538_storage)dyn_storage"
          },
          {
            "astId": 20657,
            "contract": "contracts/facets/Bond/BondDepositoryFacet.sol:BondDepositoryFacet",
            "label": "distributorAdjustments",
            "offset": 0,
            "slot": "18",
            "type": "t_mapping(t_uint256,t_struct(DistributorAdjustment)20545_storage)"
          },
          {
            "astId": 20660,
            "contract": "contracts/facets/Bond/BondDepositoryFacet.sol:BondDepositoryFacet",
            "label": "epoch",
            "offset": 0,
            "slot": "19",
            "type": "t_struct(Epoch)20587_storage"
          },
          {
            "astId": 20662,
            "contract": "contracts/facets/Bond/BondDepositoryFacet.sol:BondDepositoryFacet",
            "label": "epochLength",
            "offset": 0,
            "slot": "23",
            "type": "t_uint256"
          },
          {
            "astId": 20664,
            "contract": "contracts/facets/Bond/BondDepositoryFacet.sol:BondDepositoryFacet",
            "label": "distributor",
            "offset": 0,
            "slot": "24",
            "type": "t_address"
          },
          {
            "astId": 20666,
            "contract": "contracts/facets/Bond/BondDepositoryFacet.sol:BondDepositoryFacet",
            "label": "locker",
            "offset": 0,
            "slot": "25",
            "type": "t_address"
          },
          {
            "astId": 20668,
            "contract": "contracts/facets/Bond/BondDepositoryFacet.sol:BondDepositoryFacet",
            "label": "warmupPeriod",
            "offset": 0,
            "slot": "26",
            "type": "t_uint256"
          },
          {
            "astId": 20673,
            "contract": "contracts/facets/Bond/BondDepositoryFacet.sol:BondDepositoryFacet",
            "label": "warmupInfo",
            "offset": 0,
            "slot": "27",
            "type": "t_mapping(t_address,t_struct(Claim)20596_storage)"
          },
          {
            "astId": 20675,
            "contract": "contracts/facets/Bond/BondDepositoryFacet.sol:BondDepositoryFacet",
            "label": "targetSum",
            "offset": 0,
            "slot": "28",
            "type": "t_uint256"
          },
          {
            "astId": 20681,
            "contract": "contracts/facets/Bond/BondDepositoryFacet.sol:BondDepositoryFacet",
            "label": "payouts",
            "offset": 0,
            "slot": "29",
            "type": "t_mapping(t_uint256,t_array(t_struct(Payout)20533_storage)dyn_storage)"
          },
          {
            "astId": 20683,
            "contract": "contracts/facets/Bond/BondDepositoryFacet.sol:BondDepositoryFacet",
            "label": "gonsInWarmup",
            "offset": 0,
            "slot": "30",
            "type": "t_uint256"
          },
          {
            "astId": 20687,
            "contract": "contracts/facets/Bond/BondDepositoryFacet.sol:BondDepositoryFacet",
            "label": "bondFees",
            "offset": 0,
            "slot": "31",
            "type": "t_mapping(t_address,t_uint256)"
          }
        ],
        "numberOfBytes": "1024"
      },
      "t_struct(Terms)20560_storage": {
        "encoding": "inplace",
        "label": "struct LibBondStorage.Terms",
        "members": [
          {
            "astId": 20547,
            "contract": "contracts/facets/Bond/BondDepositoryFacet.sol:BondDepositoryFacet",
            "label": "controlVariable",
            "offset": 0,
            "slot": "0",
            "type": "t_uint256"
          },
          {
            "astId": 20549,
            "contract": "contracts/facets/Bond/BondDepositoryFacet.sol:BondDepositoryFacet",
            "label": "minimumPrice",
            "offset": 0,
            "slot": "1",
            "type": "t_uint256"
          },
          {
            "astId": 20551,
            "contract": "contracts/facets/Bond/BondDepositoryFacet.sol:BondDepositoryFacet",
            "label": "maxPayout",
            "offset": 0,
            "slot": "2",
            "type": "t_uint256"
          },
          {
            "astId": 20553,
            "contract": "contracts/facets/Bond/BondDepositoryFacet.sol:BondDepositoryFacet",
            "label": "fee",
            "offset": 0,
            "slot": "3",
            "type": "t_uint256"
          },
          {
            "astId": 20555,
            "contract": "contracts/facets/Bond/BondDepositoryFacet.sol:BondDepositoryFacet",
            "label": "maxDebt",
            "offset": 0,
            "slot": "4",
            "type": "t_uint256"
          },
          {
            "astId": 20557,
            "contract": "contracts/facets/Bond/BondDepositoryFacet.sol:BondDepositoryFacet",
            "label": "vestingTerm",
            "offset": 0,
            "slot": "5",
            "type": "t_uint256"
          },
          {
            "astId": 20559,
            "contract": "contracts/facets/Bond/BondDepositoryFacet.sol:BondDepositoryFacet",
            "label": "isLiquidityBond",
            "offset": 0,
            "slot": "6",
            "type": "t_bool"
          }
        ],
        "numberOfBytes": "224"
      },
      "t_uint256": {
        "encoding": "inplace",
        "label": "uint256",
        "numberOfBytes": "32"
      }
    }
  }
}