{
  "address": "0xa277b12751793ddc9961EE28042C4e2852CbdafD",
  "abi": [
    {
      "inputs": [
        {
          "internalType": "address",
          "name": "_recipient",
          "type": "address"
        },
        {
          "internalType": "uint256",
          "name": "_rewardRate",
          "type": "uint256"
        }
      ],
      "name": "addRecipient",
      "outputs": [],
      "stateMutability": "nonpayable",
      "type": "function"
    },
    {
      "inputs": [
        {
          "internalType": "address",
          "name": "_ndol",
          "type": "address"
        },
        {
          "internalType": "address",
          "name": "_Necc",
          "type": "address"
        },
        {
          "internalType": "address",
          "name": "_treasury",
          "type": "address"
        },
        {
          "internalType": "address",
          "name": "_DAO",
          "type": "address"
        }
      ],
      "name": "initializeBondDepository",
      "outputs": [],
      "stateMutability": "nonpayable",
      "type": "function"
    },
    {
      "inputs": [
        {
          "internalType": "uint256",
          "name": "_controlVariable",
          "type": "uint256"
        },
        {
          "internalType": "uint256",
          "name": "_minimumPrice",
          "type": "uint256"
        },
        {
          "internalType": "uint256",
          "name": "_maxPayout",
          "type": "uint256"
        },
        {
          "internalType": "uint256",
          "name": "_fee",
          "type": "uint256"
        },
        {
          "internalType": "uint256",
          "name": "_maxDebt",
          "type": "uint256"
        },
        {
          "internalType": "uint256",
          "name": "_initialDebt",
          "type": "uint256"
        },
        {
          "internalType": "uint256",
          "name": "_vestingTerm",
          "type": "uint256"
        },
        {
          "internalType": "bool",
          "name": "_isLiquidityBond",
          "type": "bool"
        },
        {
          "internalType": "address",
          "name": "_priceFeed",
          "type": "address"
        },
        {
          "internalType": "address",
          "name": "_principle",
          "type": "address"
        }
      ],
      "name": "initializeBondTerms",
      "outputs": [],
      "stateMutability": "nonpayable",
      "type": "function"
    },
    {
      "inputs": [
        {
          "internalType": "uint256",
          "name": "_epochLength",
          "type": "uint256"
        },
        {
          "internalType": "uint256",
          "name": "_nextEpochTimestamp",
          "type": "uint256"
        },
        {
          "internalType": "address",
          "name": "_principle",
          "type": "address"
        }
      ],
      "name": "initializeDistributor",
      "outputs": [],
      "stateMutability": "nonpayable",
      "type": "function"
    },
    {
      "inputs": [
        {
          "internalType": "uint256",
          "name": "_firstEpochNumber",
          "type": "uint256"
        },
        {
          "internalType": "uint32",
          "name": "_firstEpochTime",
          "type": "uint32"
        },
        {
          "internalType": "address",
          "name": "_sNecc",
          "type": "address"
        },
        {
          "internalType": "address",
          "name": "_nNecc",
          "type": "address"
        }
      ],
      "name": "initializeStaking",
      "outputs": [],
      "stateMutability": "nonpayable",
      "type": "function"
    },
    {
      "inputs": [
        {
          "internalType": "address",
          "name": "_token",
          "type": "address"
        }
      ],
      "name": "recoverLostToken",
      "outputs": [
        {
          "internalType": "bool",
          "name": "",
          "type": "bool"
        }
      ],
      "stateMutability": "nonpayable",
      "type": "function"
    },
    {
      "inputs": [
        {
          "internalType": "uint256",
          "name": "_index",
          "type": "uint256"
        },
        {
          "internalType": "address",
          "name": "_recipient",
          "type": "address"
        }
      ],
      "name": "removeRecipient",
      "outputs": [],
      "stateMutability": "nonpayable",
      "type": "function"
    },
    {
      "inputs": [
        {
          "internalType": "bool",
          "name": "_addition",
          "type": "bool"
        },
        {
          "internalType": "uint256",
          "name": "_delta",
          "type": "uint256"
        },
        {
          "internalType": "uint256",
          "name": "_timeToTargetInSeconds",
          "type": "uint256"
        },
        {
          "internalType": "address",
          "name": "_principle",
          "type": "address"
        }
      ],
      "name": "setAdjustment",
      "outputs": [],
      "stateMutability": "nonpayable",
      "type": "function"
    },
    {
      "inputs": [
        {
          "internalType": "uint256",
          "name": "_index",
          "type": "uint256"
        },
        {
          "internalType": "bool",
          "name": "_add",
          "type": "bool"
        },
        {
          "internalType": "uint256",
          "name": "_rate",
          "type": "uint256"
        },
        {
          "internalType": "uint256",
          "name": "_target",
          "type": "uint256"
        }
      ],
      "name": "setAdjustment",
      "outputs": [],
      "stateMutability": "nonpayable",
      "type": "function"
    },
    {
      "inputs": [
        {
          "internalType": "enum PARAMETER",
          "name": "_parameter",
          "type": "uint8"
        },
        {
          "internalType": "uint256",
          "name": "_input",
          "type": "uint256"
        },
        {
          "internalType": "address",
          "name": "_principle",
          "type": "address"
        }
      ],
      "name": "setBondTerms",
      "outputs": [],
      "stateMutability": "nonpayable",
      "type": "function"
    },
    {
      "inputs": [
        {
          "internalType": "enum CONTRACTS",
          "name": "_contract",
          "type": "uint8"
        },
        {
          "internalType": "address",
          "name": "_address",
          "type": "address"
        }
      ],
      "name": "setContract",
      "outputs": [],
      "stateMutability": "nonpayable",
      "type": "function"
    },
    {
      "inputs": [
        {
          "internalType": "address",
          "name": "_farmDistributor",
          "type": "address"
        }
      ],
      "name": "setFarmDistributor",
      "outputs": [],
      "stateMutability": "nonpayable",
      "type": "function"
    },
    {
      "inputs": [
        {
          "internalType": "uint256",
          "name": "_warmupPeriod",
          "type": "uint256"
        }
      ],
      "name": "setWarmup",
      "outputs": [],
      "stateMutability": "nonpayable",
      "type": "function"
    },
    {
      "inputs": [
        {
          "internalType": "address",
          "name": "_maliciousDepositor",
          "type": "address"
        }
      ],
      "name": "toggleDepositLock",
      "outputs": [],
      "stateMutability": "nonpayable",
      "type": "function"
    }
  ],
  "transactionHash": "0x6dda9d142c9a944f6a26c8784dbd2328405aff8c7356bcb8454736929f08eafb",
  "args": [],
  "solcInputHash": "105a89e669e5b493702832bde348889f",
  "bytecode": "0x608060405234801561001057600080fd5b5061298a806100206000396000f3fe608060405234801561001057600080fd5b50600436106100ea5760003560e01c8063b00785cc1161008c578063d247cfe911610066578063d247cfe91461021b578063f54fef4014610237578063f798224314610253578063fe3fbbad1461026f576100ea565b8063b00785cc146101b3578063b4abccba146101cf578063c9f464ff146101ff576100ea565b80634a30c463116100c85780634a30c463146101435780635db854b01461015f578063865e6fd31461017b5780638e9068e614610197576100ea565b806307cafdfc146100ef578063128bae671461010b57806319b59e9714610127575b600080fd5b61010960048036038101906101049190611a34565b61028b565b005b61012560048036038101906101209190611acf565b6102da565b005b610141600480360381019061013c9190611b72565b6104a4565b005b61015d60048036038101906101589190611bd9565b61060b565b005b61017960048036038101906101749190611c40565b610810565b005b61019560048036038101906101909190611ccc565b6109a2565b005b6101b160048036038101906101ac9190611a34565b610ab3565b005b6101cd60048036038101906101c89190611d0c565b610b6e565b005b6101e960048036038101906101e49190611a34565b610d70565b6040516101f69190611dfa565b60405180910390f35b61021960048036038101906102149190611e15565b610eb9565b005b61023560048036038101906102309190611e42565b610ece565b005b610251600480360381019061024c9190611eba565b610f19565b005b61026d60048036038101906102689190611f0d565b61119e565b005b61028960048036038101906102849190611f4d565b6112d6565b005b61029361142c565b80600060060160006101000a81548173ffffffffffffffffffffffffffffffffffffffff021916908373ffffffffffffffffffffffffffffffffffffffff16021790555050565b60006102e4611436565b90503073ffffffffffffffffffffffffffffffffffffffff163373ffffffffffffffffffffffffffffffffffffffff16148061036f57508060040160009054906101000a900473ffffffffffffffffffffffffffffffffffffffff1673ffffffffffffffffffffffffffffffffffffffff163373ffffffffffffffffffffffffffffffffffffffff16145b6103ae576040517f08c379a00000000000000000000000000000000000000000000000000000000081526004016103a590612010565b60405180910390fd5b60006103c483600061146390919063ffffffff16565b90506000600a01600080815260200190815260200160002060050154841015610422576040517f08c379a00000000000000000000000000000000000000000000000000000000081526004016104199061207c565b60405180910390fd5b60405180608001604052808715158152602001868152602001858152602001428152506000600b01600083815260200190815260200160002060008201518160000160006101000a81548160ff021916908315150217905550602082015181600101556040820151816002015560608201518160030155905050505050505050565b6104ac61142c565b600073ffffffffffffffffffffffffffffffffffffffff168273ffffffffffffffffffffffffffffffffffffffff1614156104e657600080fd5b600073ffffffffffffffffffffffffffffffffffffffff168173ffffffffffffffffffffffffffffffffffffffff16141561052057600080fd5b81600060010160006101000a81548173ffffffffffffffffffffffffffffffffffffffff021916908373ffffffffffffffffffffffffffffffffffffffff16021790555080600060020160006101000a81548173ffffffffffffffffffffffffffffffffffffffff021916908373ffffffffffffffffffffffffffffffffffffffff16021790555060405180608001604052808581526020016000815260200160006017015481526020018463ffffffff1681525060006013016000820151816000015560208201518160010155604082015181600201556060820151816003015590505050505050565b61061361142c565b600073ffffffffffffffffffffffffffffffffffffffff168373ffffffffffffffffffffffffffffffffffffffff16141561064d57600080fd5b826000800160006101000a81548173ffffffffffffffffffffffffffffffffffffffff021916908373ffffffffffffffffffffffffffffffffffffffff160217905550600073ffffffffffffffffffffffffffffffffffffffff168273ffffffffffffffffffffffffffffffffffffffff1614156106ca57600080fd5b81600060040160006101000a81548173ffffffffffffffffffffffffffffffffffffffff021916908373ffffffffffffffffffffffffffffffffffffffff160217905550600073ffffffffffffffffffffffffffffffffffffffff168173ffffffffffffffffffffffffffffffffffffffff16141561074857600080fd5b80600060050160006101000a81548173ffffffffffffffffffffffffffffffffffffffff021916908373ffffffffffffffffffffffffffffffffffffffff160217905550600073ffffffffffffffffffffffffffffffffffffffff168473ffffffffffffffffffffffffffffffffffffffff1614156107c657600080fd5b83600060030160006101000a81548173ffffffffffffffffffffffffffffffffffffffff021916908373ffffffffffffffffffffffffffffffffffffffff16021790555050505050565b61081861142c565b6000601101848154811061082f5761082e61209c565b5b906000526020600020906002020160010160009054906101000a900473ffffffffffffffffffffffffffffffffffffffff1673ffffffffffffffffffffffffffffffffffffffff16600073ffffffffffffffffffffffffffffffffffffffff1614156108d0576040517f08c379a00000000000000000000000000000000000000000000000000000000081526004016108c790612117565b60405180910390fd5b82610932576000601201600085815260200190815260200160002060010154821115610931576040517f08c379a000000000000000000000000000000000000000000000000000000000815260040161092890612183565b60405180910390fd5b5b60405180606001604052808415158152602001838152602001828152506000601201600086815260200190815260200160002060008201518160000160006101000a81548160ff021916908315150217905550602082015181600101556040820151816002015590505050505050565b6109aa61142c565b6002808111156109bd576109bc6121a3565b5b8260028111156109d0576109cf6121a3565b5b1415610aaf57600073ffffffffffffffffffffffffffffffffffffffff16600060190160009054906101000a900473ffffffffffffffffffffffffffffffffffffffff1673ffffffffffffffffffffffffffffffffffffffff1614610a6a576040517f08c379a0000000000000000000000000000000000000000000000000000000008152600401610a6190612244565b60405180910390fd5b80600060190160006101000a81548173ffffffffffffffffffffffffffffffffffffffff021916908373ffffffffffffffffffffffffffffffffffffffff1602179055505b5050565b610abb61142c565b6000601b0160008273ffffffffffffffffffffffffffffffffffffffff1673ffffffffffffffffffffffffffffffffffffffff16815260200190815260200160002060030160009054906101000a900460ff16156000601b0160008373ffffffffffffffffffffffffffffffffffffffff1673ffffffffffffffffffffffffffffffffffffffff16815260200190815260200160002060030160006101000a81548160ff02191690831515021790555050565b610b7661142c565b610b846000600801826114e5565b506000610b9b82600061146390919063ffffffff16565b9050600080600a016000838152602001908152602001600020600001541015610bf9576040517f08c379a0000000000000000000000000000000000000000000000000000000008152600401610bf0906122b0565b60405180910390fd5b6040518060e001604052808c81526020018b81526020018a81526020018981526020018881526020018681526020018515158152506000600a016000838152602001908152602001600020600082015181600001556020820151816001015560408201518160020155606082015181600301556080820151816004015560a0820151816005015560c08201518160060160006101000a81548160ff021916908315150217905550905050856000600d01600083815260200190815260200160002081905550426000600e01600083815260200190815260200160002081905550600073ffffffffffffffffffffffffffffffffffffffff168373ffffffffffffffffffffffffffffffffffffffff1614610d6357826000601001600083815260200190815260200160002060006101000a81548173ffffffffffffffffffffffffffffffffffffffff021916908373ffffffffffffffffffffffffffffffffffffffff1602179055505b5050505050505050505050565b60008060000160009054906101000a900473ffffffffffffffffffffffffffffffffffffffff1673ffffffffffffffffffffffffffffffffffffffff168273ffffffffffffffffffffffffffffffffffffffff161415610dcf57600080fd5b610ddd600060080183611515565b15610de757600080fd5b610eb0600060050160009054906101000a900473ffffffffffffffffffffffffffffffffffffffff168373ffffffffffffffffffffffffffffffffffffffff166370a08231306040518263ffffffff1660e01b8152600401610e4991906122df565b602060405180830381865afa158015610e66573d6000803e3d6000fd5b505050506040513d601f19601f82011682018060405250810190610e8a919061230f565b8473ffffffffffffffffffffffffffffffffffffffff166115459092919063ffffffff16565b60019050919050565b610ec161142c565b806000601a018190555050565b610ed661142c565b6000610eec82600061146390919063ffffffff16565b905083600060170181905550826000600f0160008381526020019081526020016000208190555050505050565b610f2161142c565b6000610f3782600061146390919063ffffffff16565b905060006004811115610f4d57610f4c6121a3565b5b846004811115610f6057610f5f6121a3565b5b1415610fcf576201fa40831015610fac576040517f08c379a0000000000000000000000000000000000000000000000000000000008152600401610fa3906123ae565b60405180910390fd5b826000600a01600083815260200190815260200160002060050181905550611198565b60016004811115610fe357610fe26121a3565b5b846004811115610ff657610ff56121a3565b5b1415611064576103e8831115611041576040517f08c379a00000000000000000000000000000000000000000000000000000000081526004016110389061241a565b60405180910390fd5b826000600a01600083815260200190815260200160002060020181905550611197565b60026004811115611078576110776121a3565b5b84600481111561108b5761108a6121a3565b5b14156110f9576127108311156110d6576040517f08c379a00000000000000000000000000000000000000000000000000000000081526004016110cd90612486565b60405180910390fd5b826000600a01600083815260200190815260200160002060030181905550611196565b6003600481111561110d5761110c6121a3565b5b8460048111156111205761111f6121a3565b5b141561114957826000600a01600083815260200190815260200160002060040181905550611195565b60048081111561115c5761115b6121a3565b5b84600481111561116f5761116e6121a3565b5b141561119457826000600a016000838152602001908152602001600020600101819055505b5b5b5b5b50505050565b6111a661142c565b600073ffffffffffffffffffffffffffffffffffffffff168273ffffffffffffffffffffffffffffffffffffffff1614156111e057600080fd5b620f4240811115611226576040517f08c379a000000000000000000000000000000000000000000000000000000000815260040161121d90612518565b60405180910390fd5b600060110160405180604001604052808381526020018473ffffffffffffffffffffffffffffffffffffffff1681525090806001815401808255809150506001900390600052602060002090600202016000909190919091506000820151816000015560208201518160010160006101000a81548173ffffffffffffffffffffffffffffffffffffffff021916908373ffffffffffffffffffffffffffffffffffffffff16021790555050505050565b6112de61142c565b600060110182815481106112f5576112f461209c565b5b906000526020600020906002020160010160009054906101000a900473ffffffffffffffffffffffffffffffffffffffff1673ffffffffffffffffffffffffffffffffffffffff168173ffffffffffffffffffffffffffffffffffffffff1614611394576040517f08c379a000000000000000000000000000000000000000000000000000000000815260040161138b90612117565b60405180910390fd5b60008060110183815481106113ac576113ab61209c565b5b906000526020600020906002020160010160006101000a81548173ffffffffffffffffffffffffffffffffffffffff021916908373ffffffffffffffffffffffffffffffffffffffff16021790555060008060110183815481106114135761141261209c565b5b9060005260206000209060020201600001819055505050565b6114346115cb565b565b6000807fc8fcad8db84d3cc18b4c41d551ea0ee66dd599cde068d998e57d5e09332c131c90508091505090565b60008061147284600801611666565b905060005b818110156114dc578373ffffffffffffffffffffffffffffffffffffffff166114a3866008018361167b565b73ffffffffffffffffffffffffffffffffffffffff1614156114c95780925050506114df565b80806114d490612567565b915050611477565b50505b92915050565b600061150d836000018373ffffffffffffffffffffffffffffffffffffffff1660001b611695565b905092915050565b600061153d836000018373ffffffffffffffffffffffffffffffffffffffff1660001b611705565b905092915050565b6115c68363a9059cbb60e01b84846040516024016115649291906125bf565b604051602081830303815290604052907bffffffffffffffffffffffffffffffffffffffffffffffffffffffff19166020820180517bffffffffffffffffffffffffffffffffffffffffffffffffffffffff8381831617835250505050611728565b505050565b6115d3611436565b60040160009054906101000a900473ffffffffffffffffffffffffffffffffffffffff1673ffffffffffffffffffffffffffffffffffffffff163373ffffffffffffffffffffffffffffffffffffffff1614611664576040517f08c379a000000000000000000000000000000000000000000000000000000000815260040161165b9061265a565b60405180910390fd5b565b6000611674826000016117ef565b9050919050565b600061168a8360000183611800565b60001c905092915050565b60006116a18383611705565b6116fa5782600001829080600181540180825580915050600190039060005260206000200160009091909190915055826000018054905083600101600084815260200190815260200160002081905550600190506116ff565b600090505b92915050565b600080836001016000848152602001908152602001600020541415905092915050565b600061178a826040518060400160405280602081526020017f5361666545524332303a206c6f772d6c6576656c2063616c6c206661696c65648152508573ffffffffffffffffffffffffffffffffffffffff1661182b9092919063ffffffff16565b90506000815111156117ea57808060200190518101906117aa919061268f565b6117e9576040517f08c379a00000000000000000000000000000000000000000000000000000000081526004016117e09061272e565b60405180910390fd5b5b505050565b600081600001805490509050919050565b60008260000182815481106118185761181761209c565b5b9060005260206000200154905092915050565b606061183a8484600085611843565b90509392505050565b606082471015611888576040517f08c379a000000000000000000000000000000000000000000000000000000000815260040161187f906127c0565b60405180910390fd5b61189185611957565b6118d0576040517f08c379a00000000000000000000000000000000000000000000000000000000081526004016118c79061282c565b60405180910390fd5b6000808673ffffffffffffffffffffffffffffffffffffffff1685876040516118f991906128c6565b60006040518083038185875af1925050503d8060008114611936576040519150601f19603f3d011682016040523d82523d6000602084013e61193b565b606091505b509150915061194b82828661196a565b92505050949350505050565b600080823b905060008111915050919050565b6060831561197a578290506119ca565b60008351111561198d5782518084602001fd5b816040517f08c379a00000000000000000000000000000000000000000000000000000000081526004016119c19190612932565b60405180910390fd5b9392505050565b600080fd5b600073ffffffffffffffffffffffffffffffffffffffff82169050919050565b6000611a01826119d6565b9050919050565b611a11816119f6565b8114611a1c57600080fd5b50565b600081359050611a2e81611a08565b92915050565b600060208284031215611a4a57611a496119d1565b5b6000611a5884828501611a1f565b91505092915050565b60008115159050919050565b611a7681611a61565b8114611a8157600080fd5b50565b600081359050611a9381611a6d565b92915050565b6000819050919050565b611aac81611a99565b8114611ab757600080fd5b50565b600081359050611ac981611aa3565b92915050565b60008060008060808587031215611ae957611ae86119d1565b5b6000611af787828801611a84565b9450506020611b0887828801611aba565b9350506040611b1987828801611aba565b9250506060611b2a87828801611a1f565b91505092959194509250565b600063ffffffff82169050919050565b611b4f81611b36565b8114611b5a57600080fd5b50565b600081359050611b6c81611b46565b92915050565b60008060008060808587031215611b8c57611b8b6119d1565b5b6000611b9a87828801611aba565b9450506020611bab87828801611b5d565b9350506040611bbc87828801611a1f565b9250506060611bcd87828801611a1f565b91505092959194509250565b60008060008060808587031215611bf357611bf26119d1565b5b6000611c0187828801611a1f565b9450506020611c1287828801611a1f565b9350506040611c2387828801611a1f565b9250506060611c3487828801611a1f565b91505092959194509250565b60008060008060808587031215611c5a57611c596119d1565b5b6000611c6887828801611aba565b9450506020611c7987828801611a84565b9350506040611c8a87828801611aba565b9250506060611c9b87828801611aba565b91505092959194509250565b60038110611cb457600080fd5b50565b600081359050611cc681611ca7565b92915050565b60008060408385031215611ce357611ce26119d1565b5b6000611cf185828601611cb7565b9250506020611d0285828601611a1f565b9150509250929050565b6000806000806000806000806000806101408b8d031215611d3057611d2f6119d1565b5b6000611d3e8d828e01611aba565b9a50506020611d4f8d828e01611aba565b9950506040611d608d828e01611aba565b9850506060611d718d828e01611aba565b9750506080611d828d828e01611aba565b96505060a0611d938d828e01611aba565b95505060c0611da48d828e01611aba565b94505060e0611db58d828e01611a84565b935050610100611dc78d828e01611a1f565b925050610120611dd98d828e01611a1f565b9150509295989b9194979a5092959850565b611df481611a61565b82525050565b6000602082019050611e0f6000830184611deb565b92915050565b600060208284031215611e2b57611e2a6119d1565b5b6000611e3984828501611aba565b91505092915050565b600080600060608486031215611e5b57611e5a6119d1565b5b6000611e6986828701611aba565b9350506020611e7a86828701611aba565b9250506040611e8b86828701611a1f565b9150509250925092565b60058110611ea257600080fd5b50565b600081359050611eb481611e95565b92915050565b600080600060608486031215611ed357611ed26119d1565b5b6000611ee186828701611ea5565b9350506020611ef286828701611aba565b9250506040611f0386828701611a1f565b9150509250925092565b60008060408385031215611f2457611f236119d1565b5b6000611f3285828601611a1f565b9250506020611f4385828601611aba565b9150509250929050565b60008060408385031215611f6457611f636119d1565b5b6000611f7285828601611aba565b9250506020611f8385828601611a1f565b9150509250929050565b600082825260208201905092915050565b7f426f6e644465706f7369746f72793a20496e76616c696420636f6e747261637460008201527f206f776e65720000000000000000000000000000000000000000000000000000602082015250565b6000611ffa602683611f8d565b915061200582611f9e565b604082019050919050565b6000602082019050818103600083015261202981611fed565b9050919050565b7f41646a7573746d656e743a204368616e676520746f6f20666173740000000000600082015250565b6000612066601b83611f8d565b915061207182612030565b602082019050919050565b6000602082019050818103600083015261209581612059565b9050919050565b7f4e487b7100000000000000000000000000000000000000000000000000000000600052603260045260246000fd5b7f496e76616c696420726563697069656e74000000000000000000000000000000600082015250565b6000612101601183611f8d565b915061210c826120cb565b602082019050919050565b60006020820190508181036000830152612130816120f4565b9050919050565b7f43616e6e6f742064656372656173652072617465000000000000000000000000600082015250565b600061216d601483611f8d565b915061217882612137565b602082019050919050565b6000602082019050818103600083015261219c81612160565b9050919050565b7f4e487b7100000000000000000000000000000000000000000000000000000000600052602160045260246000fd5b7f4c6f636b65722063616e6e6f7420626520736574206d6f7265207468616e206f60008201527f6e63650000000000000000000000000000000000000000000000000000000000602082015250565b600061222e602383611f8d565b9150612239826121d2565b604082019050919050565b6000602082019050818103600083015261225d81612221565b9050919050565b7f426f6e6473206d75737420626520696e697469616c697a65642066726f6d2030600082015250565b600061229a602083611f8d565b91506122a582612264565b602082019050919050565b600060208201905081810360008301526122c98161228d565b9050919050565b6122d9816119f6565b82525050565b60006020820190506122f460008301846122d0565b92915050565b60008151905061230981611aa3565b92915050565b600060208284031215612325576123246119d1565b5b6000612333848285016122fa565b91505092915050565b7f56657374696e67206d757374206265206c6f6e676572207468616e203336206860008201527f6f75727300000000000000000000000000000000000000000000000000000000602082015250565b6000612398602483611f8d565b91506123a38261233c565b604082019050919050565b600060208201905081810360008301526123c78161238b565b9050919050565b7f5061796f75742063616e6e6f742062652061626f766520312070657263656e74600082015250565b6000612404602083611f8d565b915061240f826123ce565b602082019050919050565b60006020820190508181036000830152612433816123f7565b9050919050565b7f44414f206665652063616e6e6f7420657863656564207061796f757400000000600082015250565b6000612470601c83611f8d565b915061247b8261243a565b602082019050919050565b6000602082019050818103600083015261249f81612463565b9050919050565b7f52657761726420526174652063616e6e6f74206578636565642064656e6f6d6960008201527f6e61746f72000000000000000000000000000000000000000000000000000000602082015250565b6000612502602583611f8d565b915061250d826124a6565b604082019050919050565b60006020820190508181036000830152612531816124f5565b9050919050565b7f4e487b7100000000000000000000000000000000000000000000000000000000600052601160045260246000fd5b600061257282611a99565b91507fffffffffffffffffffffffffffffffffffffffffffffffffffffffffffffffff8214156125a5576125a4612538565b5b600182019050919050565b6125b981611a99565b82525050565b60006040820190506125d460008301856122d0565b6125e160208301846125b0565b9392505050565b7f4c69624469616d6f6e643a20696e76616c696420636f6e7472616374206f776e60008201527f6572000000000000000000000000000000000000000000000000000000000000602082015250565b6000612644602283611f8d565b915061264f826125e8565b604082019050919050565b6000602082019050818103600083015261267381612637565b9050919050565b60008151905061268981611a6d565b92915050565b6000602082840312156126a5576126a46119d1565b5b60006126b38482850161267a565b91505092915050565b7f5361666545524332303a204552433230206f7065726174696f6e20646964206e60008201527f6f74207375636365656400000000000000000000000000000000000000000000602082015250565b6000612718602a83611f8d565b9150612723826126bc565b604082019050919050565b600060208201905081810360008301526127478161270b565b9050919050565b7f416464726573733a20696e73756666696369656e742062616c616e636520666f60008201527f722063616c6c0000000000000000000000000000000000000000000000000000602082015250565b60006127aa602683611f8d565b91506127b58261274e565b604082019050919050565b600060208201905081810360008301526127d98161279d565b9050919050565b7f416464726573733a2063616c6c20746f206e6f6e2d636f6e7472616374000000600082015250565b6000612816601d83611f8d565b9150612821826127e0565b602082019050919050565b6000602082019050818103600083015261284581612809565b9050919050565b600081519050919050565b600081905092915050565b60005b83811015612880578082015181840152602081019050612865565b8381111561288f576000848401525b50505050565b60006128a08261284c565b6128aa8185612857565b93506128ba818560208601612862565b80840191505092915050565b60006128d28284612895565b915081905092915050565b600081519050919050565b6000601f19601f8301169050919050565b6000612904826128dd565b61290e8185611f8d565b935061291e818560208601612862565b612927816128e8565b840191505092915050565b6000602082019050818103600083015261294c81846128f9565b90509291505056fea26469706673582212209677ce97569f685614d8753694c374504378fcd81ad198d2822232021444d82a64736f6c634300080a0033",
  "devdoc": {
    "kind": "dev",
    "methods": {
      "addRecipient(address,uint256)": {
        "params": {
          "_recipient": "address",
          "_rewardRate": "uint"
        }
      },
      "recoverLostToken(address)": {
        "returns": {
          "_0": "bool"
        }
      },
      "removeRecipient(uint256,address)": {
        "params": {
          "_index": "uint",
          "_recipient": "address"
        }
      },
      "setAdjustment(uint256,bool,uint256,uint256)": {
        "params": {
          "_add": "bool",
          "_index": "uint",
          "_rate": "uint",
          "_target": "uint"
        }
      },
      "setBondTerms(uint8,uint256,address)": {
        "params": {
          "_input": "uint",
          "_parameter": "PARAMETER"
        }
      },
      "setContract(uint8,address)": {
        "params": {
          "_contract": "address"
        }
      },
      "setWarmup(uint256)": {
        "params": {
          "_warmupPeriod": "uint"
        }
      }
    },
    "version": 1
  },
  "userdoc": {
    "kind": "user",
    "methods": {
      "addRecipient(address,uint256)": {
        "notice": "adds recipient for distributions"
      },
      "initializeBondTerms(uint256,uint256,uint256,uint256,uint256,uint256,uint256,bool,address,address)": {
        "notice": "initializes bond parameters"
      },
      "recoverLostToken(address)": {
        "notice": "allow anyone to send lost tokens (excluding principle or Necc) to the DAO"
      },
      "removeRecipient(uint256,address)": {
        "notice": "removes recipient for distributions"
      },
      "setAdjustment(uint256,bool,uint256,uint256)": {
        "notice": "set adjustment info for a collector's reward rate"
      },
      "setBondTerms(uint8,uint256,address)": {
        "notice": "set parameters for new bonds"
      },
      "setContract(uint8,address)": {
        "notice": "sets the contract address for LP staking"
      },
      "setWarmup(uint256)": {
        "notice": "set warmup period in epoch's numbers for new stakers"
      },
      "toggleDepositLock(address)": {
        "notice": "prevent new deposits to address (protection from malicious activity)"
      }
    },
    "version": 1
  },
  "storageLayout": {
    "storage": [
      {
        "astId": 2333,
        "contract": "contracts/facets/Bond/BondConfigFacet.sol:BondConfigFacet",
        "label": "s",
        "offset": 0,
        "slot": "0",
        "type": "t_struct(Storage)2520_storage"
      }
    ],
    "types": {
      "t_address": {
        "encoding": "inplace",
        "label": "address",
        "numberOfBytes": "20"
      },
      "t_array(t_bytes32)dyn_storage": {
        "base": "t_bytes32",
        "encoding": "dynamic_array",
        "label": "bytes32[]",
        "numberOfBytes": "32"
      },
      "t_array(t_struct(Info)2374_storage)dyn_storage": {
        "base": "t_struct(Info)2374_storage",
        "encoding": "dynamic_array",
        "label": "struct LibBondStorage.Info[]",
        "numberOfBytes": "32"
      },
      "t_array(t_struct(Payout)2369_storage)dyn_storage": {
        "base": "t_struct(Payout)2369_storage",
        "encoding": "dynamic_array",
        "label": "struct LibBondStorage.Payout[]",
        "numberOfBytes": "32"
      },
      "t_bool": {
        "encoding": "inplace",
        "label": "bool",
        "numberOfBytes": "1"
      },
      "t_bytes32": {
        "encoding": "inplace",
        "label": "bytes32",
        "numberOfBytes": "32"
      },
      "t_mapping(t_address,t_mapping(t_uint256,t_struct(Bond)2405_storage))": {
        "encoding": "mapping",
        "key": "t_address",
        "label": "mapping(address => mapping(uint256 => struct LibBondStorage.Bond))",
        "numberOfBytes": "32",
        "value": "t_mapping(t_uint256,t_struct(Bond)2405_storage)"
      },
      "t_mapping(t_address,t_struct(Claim)2432_storage)": {
        "encoding": "mapping",
        "key": "t_address",
        "label": "mapping(address => struct LibBondStorage.Claim)",
        "numberOfBytes": "32",
        "value": "t_struct(Claim)2432_storage"
      },
      "t_mapping(t_bytes32,t_uint256)": {
        "encoding": "mapping",
        "key": "t_bytes32",
        "label": "mapping(bytes32 => uint256)",
        "numberOfBytes": "32",
        "value": "t_uint256"
      },
      "t_mapping(t_uint256,t_address)": {
        "encoding": "mapping",
        "key": "t_uint256",
        "label": "mapping(uint256 => address)",
        "numberOfBytes": "32",
        "value": "t_address"
      },
      "t_mapping(t_uint256,t_array(t_struct(Payout)2369_storage)dyn_storage)": {
        "encoding": "mapping",
        "key": "t_uint256",
        "label": "mapping(uint256 => struct LibBondStorage.Payout[])",
        "numberOfBytes": "32",
        "value": "t_array(t_struct(Payout)2369_storage)dyn_storage"
      },
      "t_mapping(t_uint256,t_struct(Bond)2405_storage)": {
        "encoding": "mapping",
        "key": "t_uint256",
        "label": "mapping(uint256 => struct LibBondStorage.Bond)",
        "numberOfBytes": "32",
        "value": "t_struct(Bond)2405_storage"
      },
      "t_mapping(t_uint256,t_struct(BondDepositoryAdjustment)2414_storage)": {
        "encoding": "mapping",
        "key": "t_uint256",
        "label": "mapping(uint256 => struct LibBondStorage.BondDepositoryAdjustment)",
        "numberOfBytes": "32",
        "value": "t_struct(BondDepositoryAdjustment)2414_storage"
      },
      "t_mapping(t_uint256,t_struct(DistributorAdjustment)2381_storage)": {
        "encoding": "mapping",
        "key": "t_uint256",
        "label": "mapping(uint256 => struct LibBondStorage.DistributorAdjustment)",
        "numberOfBytes": "32",
        "value": "t_struct(DistributorAdjustment)2381_storage"
      },
      "t_mapping(t_uint256,t_struct(Terms)2396_storage)": {
        "encoding": "mapping",
        "key": "t_uint256",
        "label": "mapping(uint256 => struct LibBondStorage.Terms)",
        "numberOfBytes": "32",
        "value": "t_struct(Terms)2396_storage"
      },
      "t_mapping(t_uint256,t_uint256)": {
        "encoding": "mapping",
        "key": "t_uint256",
        "label": "mapping(uint256 => uint256)",
        "numberOfBytes": "32",
        "value": "t_uint256"
      },
      "t_struct(AddressSet)1222_storage": {
        "encoding": "inplace",
        "label": "struct EnumerableSet.AddressSet",
        "members": [
          {
            "astId": 1221,
            "contract": "contracts/facets/Bond/BondConfigFacet.sol:BondConfigFacet",
            "label": "_inner",
            "offset": 0,
            "slot": "0",
            "type": "t_struct(Set)921_storage"
          }
        ],
        "numberOfBytes": "64"
      },
      "t_struct(Bond)2405_storage": {
        "encoding": "inplace",
        "label": "struct LibBondStorage.Bond",
        "members": [
          {
            "astId": 2398,
            "contract": "contracts/facets/Bond/BondConfigFacet.sol:BondConfigFacet",
            "label": "payout",
            "offset": 0,
            "slot": "0",
            "type": "t_uint256"
          },
          {
            "astId": 2400,
            "contract": "contracts/facets/Bond/BondConfigFacet.sol:BondConfigFacet",
            "label": "pricePaid",
            "offset": 0,
            "slot": "1",
            "type": "t_uint256"
          },
          {
            "astId": 2402,
            "contract": "contracts/facets/Bond/BondConfigFacet.sol:BondConfigFacet",
            "label": "lastTime",
            "offset": 0,
            "slot": "2",
            "type": "t_uint256"
          },
          {
            "astId": 2404,
            "contract": "contracts/facets/Bond/BondConfigFacet.sol:BondConfigFacet",
            "label": "vesting",
            "offset": 0,
            "slot": "3",
            "type": "t_uint256"
          }
        ],
        "numberOfBytes": "128"
      },
      "t_struct(BondDepositoryAdjustment)2414_storage": {
        "encoding": "inplace",
        "label": "struct LibBondStorage.BondDepositoryAdjustment",
        "members": [
          {
            "astId": 2407,
            "contract": "contracts/facets/Bond/BondConfigFacet.sol:BondConfigFacet",
            "label": "add",
            "offset": 0,
            "slot": "0",
            "type": "t_bool"
          },
          {
            "astId": 2409,
            "contract": "contracts/facets/Bond/BondConfigFacet.sol:BondConfigFacet",
            "label": "delta",
            "offset": 0,
            "slot": "1",
            "type": "t_uint256"
          },
          {
            "astId": 2411,
            "contract": "contracts/facets/Bond/BondConfigFacet.sol:BondConfigFacet",
            "label": "timeToTarget",
            "offset": 0,
            "slot": "2",
            "type": "t_uint256"
          },
          {
            "astId": 2413,
            "contract": "contracts/facets/Bond/BondConfigFacet.sol:BondConfigFacet",
            "label": "lastTime",
            "offset": 0,
            "slot": "3",
            "type": "t_uint256"
          }
        ],
        "numberOfBytes": "128"
      },
      "t_struct(Claim)2432_storage": {
        "encoding": "inplace",
        "label": "struct LibBondStorage.Claim",
        "members": [
          {
            "astId": 2425,
            "contract": "contracts/facets/Bond/BondConfigFacet.sol:BondConfigFacet",
            "label": "deposit",
            "offset": 0,
            "slot": "0",
            "type": "t_uint256"
          },
          {
            "astId": 2427,
            "contract": "contracts/facets/Bond/BondConfigFacet.sol:BondConfigFacet",
            "label": "gons",
            "offset": 0,
            "slot": "1",
            "type": "t_uint256"
          },
          {
            "astId": 2429,
            "contract": "contracts/facets/Bond/BondConfigFacet.sol:BondConfigFacet",
            "label": "expiry",
            "offset": 0,
            "slot": "2",
            "type": "t_uint256"
          },
          {
            "astId": 2431,
            "contract": "contracts/facets/Bond/BondConfigFacet.sol:BondConfigFacet",
            "label": "lock",
            "offset": 0,
            "slot": "3",
            "type": "t_bool"
          }
        ],
        "numberOfBytes": "128"
      },
      "t_struct(DistributorAdjustment)2381_storage": {
        "encoding": "inplace",
        "label": "struct LibBondStorage.DistributorAdjustment",
        "members": [
          {
            "astId": 2376,
            "contract": "contracts/facets/Bond/BondConfigFacet.sol:BondConfigFacet",
            "label": "add",
            "offset": 0,
            "slot": "0",
            "type": "t_bool"
          },
          {
            "astId": 2378,
            "contract": "contracts/facets/Bond/BondConfigFacet.sol:BondConfigFacet",
            "label": "rate",
            "offset": 0,
            "slot": "1",
            "type": "t_uint256"
          },
          {
            "astId": 2380,
            "contract": "contracts/facets/Bond/BondConfigFacet.sol:BondConfigFacet",
            "label": "target",
            "offset": 0,
            "slot": "2",
            "type": "t_uint256"
          }
        ],
        "numberOfBytes": "96"
      },
      "t_struct(Epoch)2423_storage": {
        "encoding": "inplace",
        "label": "struct LibBondStorage.Epoch",
        "members": [
          {
            "astId": 2416,
            "contract": "contracts/facets/Bond/BondConfigFacet.sol:BondConfigFacet",
            "label": "number",
            "offset": 0,
            "slot": "0",
            "type": "t_uint256"
          },
          {
            "astId": 2418,
            "contract": "contracts/facets/Bond/BondConfigFacet.sol:BondConfigFacet",
            "label": "distribute",
            "offset": 0,
            "slot": "1",
            "type": "t_uint256"
          },
          {
            "astId": 2420,
            "contract": "contracts/facets/Bond/BondConfigFacet.sol:BondConfigFacet",
            "label": "length",
            "offset": 0,
            "slot": "2",
            "type": "t_uint256"
          },
          {
            "astId": 2422,
            "contract": "contracts/facets/Bond/BondConfigFacet.sol:BondConfigFacet",
            "label": "endTime",
            "offset": 0,
            "slot": "3",
            "type": "t_uint256"
          }
        ],
        "numberOfBytes": "128"
      },
      "t_struct(Info)2374_storage": {
        "encoding": "inplace",
        "label": "struct LibBondStorage.Info",
        "members": [
          {
            "astId": 2371,
            "contract": "contracts/facets/Bond/BondConfigFacet.sol:BondConfigFacet",
            "label": "rate",
            "offset": 0,
            "slot": "0",
            "type": "t_uint256"
          },
          {
            "astId": 2373,
            "contract": "contracts/facets/Bond/BondConfigFacet.sol:BondConfigFacet",
            "label": "recipient",
            "offset": 0,
            "slot": "1",
            "type": "t_address"
          }
        ],
        "numberOfBytes": "64"
      },
      "t_struct(Payout)2369_storage": {
        "encoding": "inplace",
        "label": "struct LibBondStorage.Payout",
        "members": [
          {
            "astId": 2366,
            "contract": "contracts/facets/Bond/BondConfigFacet.sol:BondConfigFacet",
            "label": "amount",
            "offset": 0,
            "slot": "0",
            "type": "t_uint256"
          },
          {
            "astId": 2368,
            "contract": "contracts/facets/Bond/BondConfigFacet.sol:BondConfigFacet",
            "label": "blockTimestamp",
            "offset": 0,
            "slot": "1",
            "type": "t_uint256"
          }
        ],
        "numberOfBytes": "64"
      },
      "t_struct(Set)921_storage": {
        "encoding": "inplace",
        "label": "struct EnumerableSet.Set",
        "members": [
          {
            "astId": 916,
            "contract": "contracts/facets/Bond/BondConfigFacet.sol:BondConfigFacet",
            "label": "_values",
            "offset": 0,
            "slot": "0",
            "type": "t_array(t_bytes32)dyn_storage"
          },
          {
            "astId": 920,
            "contract": "contracts/facets/Bond/BondConfigFacet.sol:BondConfigFacet",
            "label": "_indexes",
            "offset": 0,
            "slot": "1",
            "type": "t_mapping(t_bytes32,t_uint256)"
          }
        ],
        "numberOfBytes": "64"
      },
      "t_struct(Storage)2520_storage": {
        "encoding": "inplace",
        "label": "struct LibBondStorage.Storage",
        "members": [
          {
            "astId": 2434,
            "contract": "contracts/facets/Bond/BondConfigFacet.sol:BondConfigFacet",
            "label": "Necc",
            "offset": 0,
            "slot": "0",
            "type": "t_address"
          },
          {
            "astId": 2436,
            "contract": "contracts/facets/Bond/BondConfigFacet.sol:BondConfigFacet",
            "label": "sNecc",
            "offset": 0,
            "slot": "1",
            "type": "t_address"
          },
          {
            "astId": 2438,
            "contract": "contracts/facets/Bond/BondConfigFacet.sol:BondConfigFacet",
            "label": "nNecc",
            "offset": 0,
            "slot": "2",
            "type": "t_address"
          },
          {
            "astId": 2440,
            "contract": "contracts/facets/Bond/BondConfigFacet.sol:BondConfigFacet",
            "label": "ndol",
            "offset": 0,
            "slot": "3",
            "type": "t_address"
          },
          {
            "astId": 2442,
            "contract": "contracts/facets/Bond/BondConfigFacet.sol:BondConfigFacet",
            "label": "treasury",
            "offset": 0,
            "slot": "4",
            "type": "t_address"
          },
          {
            "astId": 2444,
            "contract": "contracts/facets/Bond/BondConfigFacet.sol:BondConfigFacet",
            "label": "DAO",
            "offset": 0,
            "slot": "5",
            "type": "t_address"
          },
          {
            "astId": 2446,
            "contract": "contracts/facets/Bond/BondConfigFacet.sol:BondConfigFacet",
            "label": "farmDistributor",
            "offset": 0,
            "slot": "6",
            "type": "t_address"
          },
          {
            "astId": 2448,
            "contract": "contracts/facets/Bond/BondConfigFacet.sol:BondConfigFacet",
            "label": "staking",
            "offset": 0,
            "slot": "7",
            "type": "t_address"
          },
          {
            "astId": 2451,
            "contract": "contracts/facets/Bond/BondConfigFacet.sol:BondConfigFacet",
            "label": "principles",
            "offset": 0,
            "slot": "8",
            "type": "t_struct(AddressSet)1222_storage"
          },
          {
            "astId": 2456,
            "contract": "contracts/facets/Bond/BondConfigFacet.sol:BondConfigFacet",
            "label": "terms",
            "offset": 0,
            "slot": "10",
            "type": "t_mapping(t_uint256,t_struct(Terms)2396_storage)"
          },
          {
            "astId": 2461,
            "contract": "contracts/facets/Bond/BondConfigFacet.sol:BondConfigFacet",
            "label": "bondDepositoryAdjustment",
            "offset": 0,
            "slot": "11",
            "type": "t_mapping(t_uint256,t_struct(BondDepositoryAdjustment)2414_storage)"
          },
          {
            "astId": 2468,
            "contract": "contracts/facets/Bond/BondConfigFacet.sol:BondConfigFacet",
            "label": "bondInfo",
            "offset": 0,
            "slot": "12",
            "type": "t_mapping(t_address,t_mapping(t_uint256,t_struct(Bond)2405_storage))"
          },
          {
            "astId": 2472,
            "contract": "contracts/facets/Bond/BondConfigFacet.sol:BondConfigFacet",
            "label": "totalDebt",
            "offset": 0,
            "slot": "13",
            "type": "t_mapping(t_uint256,t_uint256)"
          },
          {
            "astId": 2476,
            "contract": "contracts/facets/Bond/BondConfigFacet.sol:BondConfigFacet",
            "label": "lastDecay",
            "offset": 0,
            "slot": "14",
            "type": "t_mapping(t_uint256,t_uint256)"
          },
          {
            "astId": 2480,
            "contract": "contracts/facets/Bond/BondConfigFacet.sol:BondConfigFacet",
            "label": "nextEpochTimestamp",
            "offset": 0,
            "slot": "15",
            "type": "t_mapping(t_uint256,t_uint256)"
          },
          {
            "astId": 2484,
            "contract": "contracts/facets/Bond/BondConfigFacet.sol:BondConfigFacet",
            "label": "priceFeeds",
            "offset": 0,
            "slot": "16",
            "type": "t_mapping(t_uint256,t_address)"
          },
          {
            "astId": 2488,
            "contract": "contracts/facets/Bond/BondConfigFacet.sol:BondConfigFacet",
            "label": "info",
            "offset": 0,
            "slot": "17",
            "type": "t_array(t_struct(Info)2374_storage)dyn_storage"
          },
          {
            "astId": 2493,
            "contract": "contracts/facets/Bond/BondConfigFacet.sol:BondConfigFacet",
            "label": "distributorAdjustments",
            "offset": 0,
            "slot": "18",
            "type": "t_mapping(t_uint256,t_struct(DistributorAdjustment)2381_storage)"
          },
          {
            "astId": 2496,
            "contract": "contracts/facets/Bond/BondConfigFacet.sol:BondConfigFacet",
            "label": "epoch",
            "offset": 0,
            "slot": "19",
            "type": "t_struct(Epoch)2423_storage"
          },
          {
            "astId": 2498,
            "contract": "contracts/facets/Bond/BondConfigFacet.sol:BondConfigFacet",
            "label": "epochLength",
            "offset": 0,
            "slot": "23",
            "type": "t_uint256"
          },
          {
            "astId": 2500,
            "contract": "contracts/facets/Bond/BondConfigFacet.sol:BondConfigFacet",
            "label": "distributor",
            "offset": 0,
            "slot": "24",
            "type": "t_address"
          },
          {
            "astId": 2502,
            "contract": "contracts/facets/Bond/BondConfigFacet.sol:BondConfigFacet",
            "label": "locker",
            "offset": 0,
            "slot": "25",
            "type": "t_address"
          },
          {
            "astId": 2504,
            "contract": "contracts/facets/Bond/BondConfigFacet.sol:BondConfigFacet",
            "label": "warmupPeriod",
            "offset": 0,
            "slot": "26",
            "type": "t_uint256"
          },
          {
            "astId": 2509,
            "contract": "contracts/facets/Bond/BondConfigFacet.sol:BondConfigFacet",
            "label": "warmupInfo",
            "offset": 0,
            "slot": "27",
            "type": "t_mapping(t_address,t_struct(Claim)2432_storage)"
          },
          {
            "astId": 2511,
            "contract": "contracts/facets/Bond/BondConfigFacet.sol:BondConfigFacet",
            "label": "targetSum",
            "offset": 0,
            "slot": "28",
            "type": "t_uint256"
          },
          {
            "astId": 2517,
            "contract": "contracts/facets/Bond/BondConfigFacet.sol:BondConfigFacet",
            "label": "payouts",
            "offset": 0,
            "slot": "29",
            "type": "t_mapping(t_uint256,t_array(t_struct(Payout)2369_storage)dyn_storage)"
          },
          {
            "astId": 2519,
            "contract": "contracts/facets/Bond/BondConfigFacet.sol:BondConfigFacet",
            "label": "gonsInWarmup",
            "offset": 0,
            "slot": "30",
            "type": "t_uint256"
          }
        ],
        "numberOfBytes": "992"
      },
      "t_struct(Terms)2396_storage": {
        "encoding": "inplace",
        "label": "struct LibBondStorage.Terms",
        "members": [
          {
            "astId": 2383,
            "contract": "contracts/facets/Bond/BondConfigFacet.sol:BondConfigFacet",
            "label": "controlVariable",
            "offset": 0,
            "slot": "0",
            "type": "t_uint256"
          },
          {
            "astId": 2385,
            "contract": "contracts/facets/Bond/BondConfigFacet.sol:BondConfigFacet",
            "label": "minimumPrice",
            "offset": 0,
            "slot": "1",
            "type": "t_uint256"
          },
          {
            "astId": 2387,
            "contract": "contracts/facets/Bond/BondConfigFacet.sol:BondConfigFacet",
            "label": "maxPayout",
            "offset": 0,
            "slot": "2",
            "type": "t_uint256"
          },
          {
            "astId": 2389,
            "contract": "contracts/facets/Bond/BondConfigFacet.sol:BondConfigFacet",
            "label": "fee",
            "offset": 0,
            "slot": "3",
            "type": "t_uint256"
          },
          {
            "astId": 2391,
            "contract": "contracts/facets/Bond/BondConfigFacet.sol:BondConfigFacet",
            "label": "maxDebt",
            "offset": 0,
            "slot": "4",
            "type": "t_uint256"
          },
          {
            "astId": 2393,
            "contract": "contracts/facets/Bond/BondConfigFacet.sol:BondConfigFacet",
            "label": "vestingTerm",
            "offset": 0,
            "slot": "5",
            "type": "t_uint256"
          },
          {
            "astId": 2395,
            "contract": "contracts/facets/Bond/BondConfigFacet.sol:BondConfigFacet",
            "label": "isLiquidityBond",
            "offset": 0,
            "slot": "6",
            "type": "t_bool"
          }
        ],
        "numberOfBytes": "224"
      },
      "t_uint256": {
        "encoding": "inplace",
        "label": "uint256",
        "numberOfBytes": "32"
      }
    }
  }
}