{
  "address": "0x539CEaAcbC52314d3DfB299Bbf7ad26EC0caF4c0",
  "abi": [
    {
      "inputs": [
        {
          "internalType": "address",
          "name": "_principle",
          "type": "address"
        }
      ],
      "name": "InvalidPrinciple",
      "type": "error"
    },
    {
      "anonymous": false,
      "inputs": [
        {
          "indexed": false,
          "internalType": "uint256",
          "name": "deposit",
          "type": "uint256"
        },
        {
          "indexed": true,
          "internalType": "uint256",
          "name": "payout",
          "type": "uint256"
        },
        {
          "indexed": true,
          "internalType": "uint256",
          "name": "expires",
          "type": "uint256"
        },
        {
          "indexed": true,
          "internalType": "uint256",
          "name": "priceInUSD",
          "type": "uint256"
        }
      ],
      "name": "BondCreated",
      "type": "event"
    },
    {
      "anonymous": false,
      "inputs": [
        {
          "indexed": true,
          "internalType": "uint256",
          "name": "priceInUSD",
          "type": "uint256"
        },
        {
          "indexed": true,
          "internalType": "uint256",
          "name": "internalPrice",
          "type": "uint256"
        },
        {
          "indexed": true,
          "internalType": "uint256",
          "name": "debtRatio",
          "type": "uint256"
        }
      ],
      "name": "BondPriceChanged",
      "type": "event"
    },
    {
      "anonymous": false,
      "inputs": [
        {
          "indexed": true,
          "internalType": "address",
          "name": "recipient",
          "type": "address"
        },
        {
          "indexed": false,
          "internalType": "uint256",
          "name": "payout",
          "type": "uint256"
        },
        {
          "indexed": false,
          "internalType": "uint256",
          "name": "remaining",
          "type": "uint256"
        }
      ],
      "name": "BondRedeemed",
      "type": "event"
    },
    {
      "anonymous": false,
      "inputs": [
        {
          "indexed": false,
          "internalType": "uint256",
          "name": "initialBCV",
          "type": "uint256"
        },
        {
          "indexed": false,
          "internalType": "uint256",
          "name": "newBCV",
          "type": "uint256"
        },
        {
          "indexed": false,
          "internalType": "uint256",
          "name": "adjustment",
          "type": "uint256"
        },
        {
          "indexed": false,
          "internalType": "bool",
          "name": "addition",
          "type": "bool"
        }
      ],
      "name": "ControlVariableAdjustment",
      "type": "event"
    },
    {
      "inputs": [
        {
          "internalType": "address",
          "name": "_principle",
          "type": "address"
        }
      ],
      "name": "BCV",
      "outputs": [
        {
          "internalType": "uint256",
          "name": "BCV_",
          "type": "uint256"
        }
      ],
      "stateMutability": "view",
      "type": "function"
    },
    {
      "inputs": [],
      "name": "DAO",
      "outputs": [
        {
          "internalType": "address",
          "name": "",
          "type": "address"
        }
      ],
      "stateMutability": "view",
      "type": "function"
    },
    {
      "inputs": [
        {
          "internalType": "address",
          "name": "_recipient",
          "type": "address"
        }
      ],
      "name": "bondFees",
      "outputs": [
        {
          "internalType": "uint256",
          "name": "",
          "type": "uint256"
        }
      ],
      "stateMutability": "view",
      "type": "function"
    },
    {
      "inputs": [
        {
          "internalType": "address",
          "name": "_depositor",
          "type": "address"
        },
        {
          "internalType": "address",
          "name": "_principle",
          "type": "address"
        }
      ],
      "name": "bondInfo",
      "outputs": [
        {
          "components": [
            {
              "internalType": "uint256",
              "name": "payout",
              "type": "uint256"
            },
            {
              "internalType": "uint256",
              "name": "pricePaid",
              "type": "uint256"
            },
            {
              "internalType": "uint256",
              "name": "lastTime",
              "type": "uint256"
            },
            {
              "internalType": "uint256",
              "name": "vesting",
              "type": "uint256"
            }
          ],
          "internalType": "struct LibBondStorage.Bond",
          "name": "",
          "type": "tuple"
        }
      ],
      "stateMutability": "view",
      "type": "function"
    },
    {
      "inputs": [
        {
          "internalType": "address",
          "name": "_principle",
          "type": "address"
        }
      ],
      "name": "bondPrice",
      "outputs": [
        {
          "internalType": "uint256",
          "name": "price_",
          "type": "uint256"
        }
      ],
      "stateMutability": "view",
      "type": "function"
    },
    {
      "inputs": [
        {
          "internalType": "address",
          "name": "_principle",
          "type": "address"
        }
      ],
      "name": "bondPriceInUSD",
      "outputs": [
        {
          "internalType": "uint256",
          "name": "price_",
          "type": "uint256"
        }
      ],
      "stateMutability": "view",
      "type": "function"
    },
    {
      "inputs": [
        {
          "internalType": "address",
          "name": "_principle",
          "type": "address"
        }
      ],
      "name": "currentDebt",
      "outputs": [
        {
          "internalType": "uint256",
          "name": "",
          "type": "uint256"
        }
      ],
      "stateMutability": "view",
      "type": "function"
    },
    {
      "inputs": [
        {
          "internalType": "address",
          "name": "_principle",
          "type": "address"
        }
      ],
      "name": "debtDecay",
      "outputs": [
        {
          "internalType": "uint256",
          "name": "decay_",
          "type": "uint256"
        }
      ],
      "stateMutability": "view",
      "type": "function"
    },
    {
      "inputs": [
        {
          "internalType": "address",
          "name": "_principle",
          "type": "address"
        }
      ],
      "name": "debtRatio",
      "outputs": [
        {
          "internalType": "uint256",
          "name": "debtRatio_",
          "type": "uint256"
        }
      ],
      "stateMutability": "view",
      "type": "function"
    },
    {
      "inputs": [
        {
          "internalType": "uint256",
          "name": "_amount",
          "type": "uint256"
        },
        {
          "internalType": "uint256",
          "name": "_maxPrice",
          "type": "uint256"
        },
        {
          "internalType": "address",
          "name": "_depositor",
          "type": "address"
        },
        {
          "internalType": "address",
          "name": "_principle",
          "type": "address"
        }
      ],
      "name": "deposit",
      "outputs": [
        {
          "internalType": "uint256",
          "name": "",
          "type": "uint256"
        }
      ],
      "stateMutability": "nonpayable",
      "type": "function"
    },
    {
      "inputs": [],
      "name": "distributeFees",
      "outputs": [],
      "stateMutability": "nonpayable",
      "type": "function"
    },
    {
      "inputs": [],
      "name": "farmDistributor",
      "outputs": [
        {
          "internalType": "address",
          "name": "",
          "type": "address"
        }
      ],
      "stateMutability": "view",
      "type": "function"
    },
    {
      "inputs": [
        {
          "internalType": "address",
          "name": "_principle",
          "type": "address"
        }
      ],
      "name": "maxPayout",
      "outputs": [
        {
          "internalType": "uint256",
          "name": "",
          "type": "uint256"
        }
      ],
      "stateMutability": "view",
      "type": "function"
    },
    {
      "inputs": [
        {
          "internalType": "uint256",
          "name": "_value",
          "type": "uint256"
        },
        {
          "internalType": "address",
          "name": "_principle",
          "type": "address"
        }
      ],
      "name": "payoutFor",
      "outputs": [
        {
          "internalType": "uint256",
          "name": "",
          "type": "uint256"
        }
      ],
      "stateMutability": "view",
      "type": "function"
    },
    {
      "inputs": [
        {
          "internalType": "address",
          "name": "_depositor",
          "type": "address"
        },
        {
          "internalType": "address",
          "name": "_principle",
          "type": "address"
        }
      ],
      "name": "pendingPayoutFor",
      "outputs": [
        {
          "internalType": "uint256",
          "name": "pendingPayout_",
          "type": "uint256"
        }
      ],
      "stateMutability": "view",
      "type": "function"
    },
    {
      "inputs": [
        {
          "internalType": "address",
          "name": "_depositor",
          "type": "address"
        },
        {
          "internalType": "address",
          "name": "_principle",
          "type": "address"
        }
      ],
      "name": "percentVestedFor",
      "outputs": [
        {
          "internalType": "uint256",
          "name": "percentVested_",
          "type": "uint256"
        }
      ],
      "stateMutability": "view",
      "type": "function"
    },
    {
      "inputs": [
        {
          "internalType": "address",
          "name": "_recipient",
          "type": "address"
        },
        {
          "internalType": "address",
          "name": "_principle",
          "type": "address"
        }
      ],
      "name": "redeem",
      "outputs": [
        {
          "internalType": "uint256",
          "name": "",
          "type": "uint256"
        }
      ],
      "stateMutability": "nonpayable",
      "type": "function"
    },
    {
      "inputs": [
        {
          "internalType": "address",
          "name": "_principle",
          "type": "address"
        }
      ],
      "name": "standardizedDebtRatio",
      "outputs": [
        {
          "internalType": "uint256",
          "name": "",
          "type": "uint256"
        }
      ],
      "stateMutability": "view",
      "type": "function"
    },
    {
      "inputs": [
        {
          "internalType": "address",
          "name": "_principle",
          "type": "address"
        }
      ],
      "name": "terms",
      "outputs": [
        {
          "components": [
            {
              "internalType": "uint256",
              "name": "controlVariable",
              "type": "uint256"
            },
            {
              "internalType": "uint256",
              "name": "minimumPrice",
              "type": "uint256"
            },
            {
              "internalType": "uint256",
              "name": "maxPayout",
              "type": "uint256"
            },
            {
              "internalType": "uint256",
              "name": "fee",
              "type": "uint256"
            },
            {
              "internalType": "uint256",
              "name": "maxDebt",
              "type": "uint256"
            },
            {
              "internalType": "uint256",
              "name": "vestingTerm",
              "type": "uint256"
            },
            {
              "internalType": "bool",
              "name": "isLiquidityBond",
              "type": "bool"
            }
          ],
          "internalType": "struct LibBondStorage.Terms",
          "name": "",
          "type": "tuple"
        }
      ],
      "stateMutability": "view",
      "type": "function"
    },
    {
      "inputs": [],
      "name": "treasury",
      "outputs": [
        {
          "internalType": "address",
          "name": "",
          "type": "address"
        }
      ],
      "stateMutability": "view",
      "type": "function"
    }
  ],
  "transactionHash": "0x17c34b99a550a81dbd088d07738c6448e18d155539f0969620500868b5d485e2",
  "args": [],
  "solcInputHash": "b97acf35458f8448dd507dc0f6c3cdad",
  "bytecode": "0x608060405234801561001057600080fd5b50612754806100206000396000f3fe608060405234801561001057600080fd5b506004361061016c5760003560e01c806398fabd3a116100cd578063bba06f2711610081578063dc1d35a211610066578063dc1d35a21461036d578063de8d970814610380578063e300e98b1461039357600080fd5b8063bba06f27146102ef578063c8c819ac1461030257600080fd5b8063ad5fe5eb116100b2578063ad5fe5eb1461028c578063b11512e2146102d2578063bb57ad20146102e557600080fd5b806398fabd3a14610268578063aa5883451461027957600080fd5b80635eaffc7f116101245780636fcb5622116101095780636fcb56221461022f57806384715b1114610242578063884719f21461025557600080fd5b80635eaffc7f146101f557806361d027b31461021e57600080fd5b80632ddc1465116101555780632ddc1465146101bc5780632f74f461146101cf578063415d9f65146101e257600080fd5b80630523f1c31461017157806321d8d12314610197575b600080fd5b61018461017f3660046123b8565b6103a6565b6040519081526020015b60405180910390f35b6006546001600160a01b03165b6040516001600160a01b03909116815260200161018e565b6101846101ca3660046123e4565b61047c565b6101846101dd3660046123e4565b610578565b6101846101f03660046123ff565b610621565b6101846102033660046123e4565b6001600160a01b03166000908152601f602052604090205490565b6004546001600160a01b03166101a4565b61018461023d3660046123ff565b610690565b610184610250366004612429565b61072f565b6101846102633660046123e4565b610f83565b6005546001600160a01b03166101a4565b6101846102873660046123e4565b610fb3565b61029f61029a3660046123ff565b611043565b60405161018e91908151815260208083015190820152604080830151908201526060918201519181019190915260800190565b6101846102e03660046123e4565b6110d7565b6102ed6111a3565b005b6101846102fd3660046123ff565b61137b565b6103156103103660046123e4565b61158e565b60405161018e9190600060e082019050825182526020830151602083015260408301516040830152606083015160608301526080830151608083015260a083015160a083015260c0830151151560c083015292915050565b61018461037b3660046123e4565b611647565b61018461038e3660046123e4565b6117a0565b6101846103a13660046123e4565b61182c565b6000806103b381846118e2565b6000818152600a602052604090206006015490915060ff1615610403576103fb662386f26fc100006103f56103f0876103eb886110d7565b611947565b611ace565b90611b03565b915050610476565b6003546001600160a01b0384811691161415610434576103fb662386f26fc100006103f56103f0876103eb886110d7565b6040517fcacddcb30000000000000000000000000000000000000000000000000000000081526001600160a01b03841660048201526024015b60405180910390fd5b92915050565b60008061048981846118e2565b6000818152600a602052604090206006015490915060ff161561055357600480546040517f32da80a30000000000000000000000000000000000000000000000000000000081526001600160a01b038681169382019390935261054c92633b9aca00926103f5929116906332da80a390602401602060405180830381865afa158015610519573d6000803e3d6000fd5b505050506040513d601f19601f8201168201806040525081019061053d919061246f565b61054687610578565b90611b0f565b9392505050565b6003546001600160a01b03848116911614156104345761054c83610578565b50919050565b6000610476670de0b6b3a76400006103f56103f061059d633b9aca0061054688610f83565b60048054604080517f860f504800000000000000000000000000000000000000000000000000000000815290516001600160a01b039092169263860f50489282820192602092908290030181865afa1580156105fd573d6000803e3d6000fd5b505050506040513d601f19601f820116820180604052508101906103eb919061246f565b60008061062e81846118e2565b9050600061063c8585610690565b6001600160a01b0386166000908152600c60209081526040808320868452909152902054909150612710821061067457809350610687565b6106846127106103f58385611b0f565b93505b50505092915050565b60008061069d81846118e2565b6001600160a01b0385166000908152600c6020908152604080832084845282528083208151608081018352815481526001820154938101939093526002810154918301829052600301546060830152929350916106fb904290611b1b565b6060830151909150801561072057610719816103f584612710611b0f565b9450610725565b600094505b5050505092915050565b60006001600160a01b0383166107875760405162461bcd60e51b815260206004820152600f60248201527f496e76616c696420616464726573730000000000000000000000000000000000604482015260640161046d565b600061079381846118e2565b6000818152600a6020908152604091829020825160e081018452815481526001820154928101929092526002810154928201929092526003820154606082015260048201546080820152600582015460a082015260069091015460ff16151560c082015290915061080384611b27565b60808101516000838152600d602052604090205411156108655760405162461bcd60e51b815260206004820152601460248201527f4d61782063617061636974792072656163686564000000000000000000000000604482015260640161046d565b600061087085611647565b9050600061087d86611b62565b9050808810156108f55760405162461bcd60e51b815260206004820152602360248201527f536c697070616765206c696d69743a206d6f7265207468616e206d617820707260448201527f6963650000000000000000000000000000000000000000000000000000000000606482015260840161046d565b600480546040517fd1b317e50000000000000000000000000000000000000000000000000000000081526001600160a01b0389811693820193909352602481018c90526000929091169063d1b317e590604401602060405180830381865afa158015610965573d6000803e3d6000fd5b505050506040513d601f19601f82011682018060405250810190610989919061246f565b9050600061099782896103a6565b9050629896808110156109ec5760405162461bcd60e51b815260206004820152600e60248201527f426f6e6420746f6f20736d616c6c000000000000000000000000000000000000604482015260640161046d565b6109f58861182c565b811115610a445760405162461bcd60e51b815260206004820152600e60248201527f426f6e6420746f6f206c61726765000000000000000000000000000000000000604482015260640161046d565b6000610a6d610a666127106103f5896060015186611b0f90919063ffffffff16565b8390611b1b565b1115610e71576000868152600a602052604090206006015460ff1615610beb57610aa26001600160a01b03891633308e611c42565b6004805460405163095ea7b360e01b81526001600160a01b0391821692810192909252602482018d905289169063095ea7b3906044016020604051808303816000875af1158015610af7573d6000803e3d6000fd5b505050506040513d601f19601f82011682018060405250810190610b1b9190612488565b5060045460608601516001600160a01b039091169063082db9d7908d908b908690610b6390610b5390612710906103f5908a90611b0f565b610b5d8989611b1b565b90611b1b565b6040517fffffffff0000000000000000000000000000000000000000000000000000000060e087901b16815260048101949094526001600160a01b03909216602484015260448301526064820152608401600060405180830381600087803b158015610bce57600080fd5b505af1158015610be2573d6000803e3d6000fd5b50505050610da1565b6003546001600160a01b0389811691161415610d6457610c166001600160a01b03891633308e611c42565b6004805460405163095ea7b360e01b81526001600160a01b0391821692810192909252602482018d905289169063095ea7b3906044016020604051808303816000875af1158015610c6b573d6000803e3d6000fd5b505050506040513d601f19601f82011682018060405250810190610c8f9190612488565b5060045460608601516001600160a01b039091169063bc157ac1908d908b90610ccf90610cc590612710906103f5908990611b0f565b610b5d8888611b1b565b6040517fffffffff0000000000000000000000000000000000000000000000000000000060e086901b16815260048101939093526001600160a01b03909116602483015260448201526064016020604051808303816000875af1158015610d3a573d6000803e3d6000fd5b505050506040513d601f19601f82011682018060405250810190610d5e919061246f565b50610da1565b6040517fcacddcb30000000000000000000000000000000000000000000000000000000081526001600160a01b038916600482015260240161046d565b6005546001600160a01b031615610e0f57610df3610dd26127106103f5886060015185611b0f90919063ffffffff16565b6005546001600160a01b03166000908152601f602052604090205490611cd0565b6005546001600160a01b03166000908152601f60205260409020555b6006546001600160a01b031615610e7157610e55610e346127106103f5846064611b0f565b6006546001600160a01b03166000908152601f602052604090205490611cd0565b6006546001600160a01b03166000908152601f60205260409020555b6000868152600d6020526040902054610e8a9083611cd0565b6000878152600d602090815260408083209390935582516080810184526001600160a01b038d168352600c82528383208a8452909152919020548190610ed09084611cd0565b8152602080820187905242604080840182905260a08a0180516060958601526001600160a01b038f166000908152600c85528281208d8252855282902086518155938601516001850155908501516002840155939092015160039091015590518591610f3b91611cd0565b827f1fec6dc81f140574bf43f6b1e420ae1dd47928b9d57db8cbd7b8611063b85ae58e604051610f6d91815260200190565b60405180910390a49a9950505050505050505050565b600080610f9081846118e2565b905061054c610f9e846117a0565b6000838152600d602052604090205490611b1b565b600080610fc081846118e2565b6000818152600b60205260408120919250610fda85611cdc565b825490915060ff1615611007576000838152600a60205260409020546110009082611cd0565b935061103b565b6000838152600a6020526040902054811015611036576000838152600a60205260409020546110009082611b1b565b600193505b505050919050565b61106e6040518060800160405280600081526020016000815260200160008152602001600081525090565b600061107a81846118e2565b6001600160a01b0385166000908152600c6020908152604080832093835292815290829020825160808101845281548152600182015492810192909252600281015492820192909252600390910154606082015291505092915050565b6000806110e481846118e2565b6000818152600a602052604090206006015490915060ff161561113e57611137629896806103f5633b9aca0061113161111c88610578565b6000878152600a602052604090205490611b0f565b90611cd0565b9150611172565b6003546001600160a01b03848116911614156111725761116f629896806103f5633b9aca0061113161111c88610578565b91505b6000818152600a6020526040902060010154821015610572576000908152600a602052604090206001015492915050565b6005546001600160a01b0316158015906111d657506005546001600160a01b03166000908152601f602052604090205415155b1561128e576005546001600160a01b03166000818152601f60205260409020546112009190611d78565b6112725760405162461bcd60e51b815260206004820152602160248201527f4661696c656420746f2064697374726962757465206665657320666f7220444160448201527f4f00000000000000000000000000000000000000000000000000000000000000606482015260840161046d565b6005546001600160a01b03166000908152601f60205260408120555b6006546001600160a01b0316158015906112c157506006546001600160a01b03166000908152601f602052604090205415155b15611379576006546001600160a01b03166000818152601f60205260409020546112eb9190611d78565b61135d5760405162461bcd60e51b815260206004820152602260248201527f4661696c656420746f2064697374726962757465206665657320666f7220666160448201527f726d000000000000000000000000000000000000000000000000000000000000606482015260840161046d565b6006546001600160a01b03166000908152601f60205260408120555b565b60008061138881846118e2565b6001600160a01b0385166000908152600c6020908152604080832084845282528083208151608081018352815481526001820154938101939093526002810154918301919091526003015460608201529192506113e58686610690565b90506127108110611482576001600160a01b0386166000818152600c602090815260408083208784529091528082208281556001810183905560028101839055600301829055845190517f51c99f515c87b0d95ba97f616edd182e8f161c4932eac17c6fefe9dab58b77b192611462928252602082015260400190565b60405180910390a2611478868360000151611d78565b9350505050610476565b815160009061149990612710906103f59085611b0f565b905060405180608001604052806114bd838660000151611b1b90919063ffffffff16565b8152602001846020015181526020014281526020016114f76114ec866040015142611b1b90919063ffffffff16565b606087015190611b1b565b90526001600160a01b0388166000818152600c60209081526040808320898452825291829020845180825585830151600183015585840151600283015560609095015160039091015581518581529081019390935290917f51c99f515c87b0d95ba97f616edd182e8f161c4932eac17c6fefe9dab58b77b1910160405180910390a26115838782611d78565b945050505050610476565b6115d06040518060e001604052806000815260200160008152602001600081526020016000815260200160008152602001600081526020016000151581525090565b60006115dc81846118e2565b6000908152600a6020908152604091829020825160e081018452815481526001820154928101929092526002810154928201929092526003820154606082015260048201546080820152600582015460a082015260069091015460ff16151560c08201529392505050565b60008061165481846118e2565b6000818152600a602052604090206006015490915060ff161561171557600480546040517f32da80a30000000000000000000000000000000000000000000000000000000081526001600160a01b038681169382019390935261170e926064926103f5929116906332da80a390602401602060405180830381865afa1580156116e1573d6000803e3d6000fd5b505050506040513d601f19601f82011682018060405250810190611705919061246f565b610546876110d7565b9150610572565b6003546001600160a01b03848116911614156104345761170e60646103f5856001600160a01b031663313ce5676040518163ffffffff1660e01b8152600401602060405180830381865afa158015611771573d6000803e3d6000fd5b505050506040513d601f19601f8201168201806040525081019061179591906124aa565b61170590600a6125bf565b6000806117ad81846118e2565b6000818152600e6020526040812054919250906117cb904290611b1b565b6000838152600a6020908152604080832060050154600d909252909120549192506117fa916103f59084611b0f565b6000838152600d6020526040902054909350831115611825576000828152600d602052604090205492505b5050919050565b60008061183981846118e2565b6000818152600a6020908152604091829020600201546004805484517f860f5048000000000000000000000000000000000000000000000000000000008152945195965061054c95620186a0956103f5956001600160a01b039093169363860f5048938282019390929091908290030181865afa1580156118be573d6000803e3d6000fd5b505050506040513d601f19601f82011682018060405250810190610546919061246f565b6000806118f184600801611e81565b905060005b8181101561193f57836001600160a01b03166119158660080183611e8b565b6001600160a01b0316141561192d5791506104769050565b80611937816125ce565b9150506118f6565b505092915050565b604080516020810190915260008152600082116119cc5760405162461bcd60e51b815260206004820152602660248201527f4669786564506f696e743a3a6672616374696f6e3a206469766973696f6e206260448201527f79207a65726f0000000000000000000000000000000000000000000000000000606482015260840161046d565b826119e65750604080516020810190915260008152610476565b71ffffffffffffffffffffffffffffffffffff8311611ab2576000611a0f83607086901b6125ff565b90507bffffffffffffffffffffffffffffffffffffffffffffffffffffffff811115611a7d5760405162461bcd60e51b815260206004820152601e60248201527f4669786564506f696e743a3a6672616374696f6e3a206f766572666c6f770000604482015260640161046d565b6040518060200160405280827bffffffffffffffffffffffffffffffffffffffffffffffffffffffff16815250915050610476565b6000611a0f846e01000000000000000000000000000085611e97565b8051600090610476906612725dd1d243ab907bffffffffffffffffffffffffffffffffffffffffffffffffffffffff166125ff565b600061054c82846125ff565b600061054c8284612621565b600061054c8284612640565b6000611b3381836118e2565b9050611b41610f9e836117a0565b6000918252600d6020908152604080842092909255600e9052902042905550565b600080611b6f81846118e2565b6000818152600a602052604090206006015490915060ff1615611bae57611ba7629896806103f5633b9aca0061113161111c88610578565b9150611be2565b6003546001600160a01b0384811691161415611be257611bdf629896806103f5633b9aca0061113161111c88610578565b91505b6000818152600a6020526040902060010154821015611c14576000818152600a60205260409020600101549150610572565b6000818152600a602052604090206001015415610572576000908152600a6020526040812060010155919050565b604080516001600160a01b0385811660248301528416604482015260648082018490528251808303909101815260849091019091526020810180517bffffffffffffffffffffffffffffffffffffffffffffffffffffffff167f23b872dd00000000000000000000000000000000000000000000000000000000179052611cca908590611f46565b50505050565b600061054c8284612657565b600080611ce981846118e2565b6000818152600b602090815260408083208151608081018352815460ff1615158152600182015493810193909352600281015491830191909152600301546060820181905292935091611d3d904290611b1b565b9050611d5e82604001516103f5838560200151611b0f90919063ffffffff16565b9350816020015184111561103b5750602001519392505050565b6000805460405163095ea7b360e01b8152306004820152602481018490526001600160a01b039091169063095ea7b3906044016020604051808303816000875af1158015611dca573d6000803e3d6000fd5b505050506040513d601f19601f82011682018060405250810190611dee9190612488565b506040517f7acb7757000000000000000000000000000000000000000000000000000000008152600481018390526001600160a01b03841660248201523090637acb7757906044016020604051808303816000875af1158015611e55573d6000803e3d6000fd5b505050506040513d601f19601f82011682018060405250810190611e799190612488565b509092915050565b6000610476825490565b600061054c8383612030565b6000806000611ea6868661205a565b9150915060008480611eba57611eba6125e9565b868809905082811115611ed557611ed2600183612640565b91505b611edf8184612640565b9250848210611f305760405162461bcd60e51b815260206004820152601a60248201527f46756c6c4d6174683a3a6d756c4469763a206f766572666c6f77000000000000604482015260640161046d565b611f3b83838761209c565b979650505050505050565b6000611f9b826040518060400160405280602081526020017f5361666545524332303a206c6f772d6c6576656c2063616c6c206661696c6564815250856001600160a01b031661221d9092919063ffffffff16565b80519091501561202b5780806020019051810190611fb99190612488565b61202b5760405162461bcd60e51b815260206004820152602a60248201527f5361666545524332303a204552433230206f7065726174696f6e20646964206e60448201527f6f74207375636365656400000000000000000000000000000000000000000000606482015260840161046d565b505050565b60008260000182815481106120475761204761266f565b9060005260206000200154905092915050565b6000808060001984860990506120708486612621565b925061207c8382612640565b91508281101561209457612091600183612640565b91505b509250929050565b6000806120ab83196001612657565b831690506120b981846125ff565b92506120c581866125ff565b9450806120d481196001612657565b6120de91906125ff565b6120e9906001612657565b6120f39085612621565b6120fd9086612657565b9450600161210b8185612621565b612116906002612640565b6121209082612621565b905061212c8185612621565b612137906002612640565b6121419082612621565b905061214d8185612621565b612158906002612640565b6121629082612621565b905061216e8185612621565b612179906002612640565b6121839082612621565b905061218f8185612621565b61219a906002612640565b6121a49082612621565b90506121b08185612621565b6121bb906002612640565b6121c59082612621565b90506121d18185612621565b6121dc906002612640565b6121e69082612621565b90506121f28185612621565b6121fd906002612640565b6122079082612621565b90506122138187612621565b9695505050505050565b606061222c8484600085612234565b949350505050565b6060824710156122ac5760405162461bcd60e51b815260206004820152602660248201527f416464726573733a20696e73756666696369656e742062616c616e636520666f60448201527f722063616c6c0000000000000000000000000000000000000000000000000000606482015260840161046d565b843b6122fa5760405162461bcd60e51b815260206004820152601d60248201527f416464726573733a2063616c6c20746f206e6f6e2d636f6e7472616374000000604482015260640161046d565b600080866001600160a01b0316858760405161231691906126b1565b60006040518083038185875af1925050503d8060008114612353576040519150601f19603f3d011682016040523d82523d6000602084013e612358565b606091505b5091509150611f3b8282866060831561237257508161054c565b8251156123825782518084602001fd5b8160405162461bcd60e51b815260040161046d91906126cd565b80356001600160a01b03811681146123b357600080fd5b919050565b600080604083850312156123cb57600080fd5b823591506123db6020840161239c565b90509250929050565b6000602082840312156123f657600080fd5b61054c8261239c565b6000806040838503121561241257600080fd5b61241b8361239c565b91506123db6020840161239c565b6000806000806080858703121561243f57600080fd5b84359350602085013592506124566040860161239c565b91506124646060860161239c565b905092959194509250565b60006020828403121561248157600080fd5b5051919050565b60006020828403121561249a57600080fd5b8151801515811461054c57600080fd5b6000602082840312156124bc57600080fd5b815160ff8116811461054c57600080fd5b634e487b7160e01b600052601160045260246000fd5b600181815b80851115612094578160001904821115612504576125046124cd565b8085161561251157918102915b93841c93908002906124e8565b60008261252d57506001610476565b8161253a57506000610476565b8160018114612550576002811461255a57612576565b6001915050610476565b60ff84111561256b5761256b6124cd565b50506001821b610476565b5060208310610133831016604e8410600b8410161715612599575081810a610476565b6125a383836124e3565b80600019048211156125b7576125b76124cd565b029392505050565b600061054c60ff84168361251e565b60006000198214156125e2576125e26124cd565b5060010190565b634e487b7160e01b600052601260045260246000fd5b60008261261c57634e487b7160e01b600052601260045260246000fd5b500490565b600081600019048311821515161561263b5761263b6124cd565b500290565b600082821015612652576126526124cd565b500390565b6000821982111561266a5761266a6124cd565b500190565b634e487b7160e01b600052603260045260246000fd5b60005b838110156126a0578181015183820152602001612688565b83811115611cca5750506000910152565b600082516126c3818460208701612685565b9190910192915050565b60208152600082518060208401526126ec816040850160208701612685565b601f017fffffffffffffffffffffffffffffffffffffffffffffffffffffffffffffffe016919091016040019291505056fea2646970667358221220f1c3868137fad80ef6dcc24165f4c51ba6b1e04818841a83db20525554bcee7b64736f6c634300080a0033",
  "devdoc": {
    "kind": "dev",
    "methods": {
      "bondPrice(address)": {
        "returns": {
          "price_": "uint"
        }
      },
      "bondPriceInUSD(address)": {
        "returns": {
          "price_": "uint"
        }
      },
      "currentDebt(address)": {
        "returns": {
          "_0": "uint"
        }
      },
      "debtDecay(address)": {
        "returns": {
          "decay_": "uint"
        }
      },
      "debtRatio(address)": {
        "returns": {
          "debtRatio_": "uint"
        }
      },
      "deposit(uint256,uint256,address,address)": {
        "params": {
          "_amount": "uint",
          "_depositor": "address",
          "_maxPrice": "uint"
        },
        "returns": {
          "_0": "uint"
        }
      },
      "maxPayout(address)": {
        "returns": {
          "_0": "uint"
        }
      },
      "payoutFor(uint256,address)": {
        "params": {
          "_value": "uint"
        },
        "returns": {
          "_0": "uint"
        }
      },
      "pendingPayoutFor(address,address)": {
        "params": {
          "_depositor": "address"
        },
        "returns": {
          "pendingPayout_": "uint"
        }
      },
      "percentVestedFor(address,address)": {
        "params": {
          "_depositor": "address"
        },
        "returns": {
          "percentVested_": "uint"
        }
      },
      "redeem(address,address)": {
        "params": {
          "_principle": "address",
          "_recipient": "address"
        },
        "returns": {
          "_0": "uint"
        }
      },
      "standardizedDebtRatio(address)": {
        "returns": {
          "_0": "uint"
        }
      }
    },
    "version": 1
  },
  "userdoc": {
    "kind": "user",
    "methods": {
      "bondPrice(address)": {
        "notice": "calculate current bond premium"
      },
      "bondPriceInUSD(address)": {
        "notice": "converts bond price to DAI value"
      },
      "currentDebt(address)": {
        "notice": "calculate debt factoring in decay"
      },
      "debtDecay(address)": {
        "notice": "amount to decay total debt by"
      },
      "debtRatio(address)": {
        "notice": "calculate current ratio of debt to Necc supply"
      },
      "deposit(uint256,uint256,address,address)": {
        "notice": "deposit bond"
      },
      "maxPayout(address)": {
        "notice": "determine maximum bond size"
      },
      "payoutFor(uint256,address)": {
        "notice": "calculate interest due for new bond"
      },
      "pendingPayoutFor(address,address)": {
        "notice": "calculate amount of Necc available for claim by depositor"
      },
      "percentVestedFor(address,address)": {
        "notice": "calculate how far into vesting a depositor is"
      },
      "redeem(address,address)": {
        "notice": "redeem bond for user"
      },
      "standardizedDebtRatio(address)": {
        "notice": "debt ratio in same terms for reserve or liquidity bonds"
      }
    },
    "version": 1
  },
  "storageLayout": {
    "storage": [
      {
        "astId": 6983,
        "contract": "contracts/facets/Bond/BondDepositoryFacet.sol:BondDepositoryFacet",
        "label": "s",
        "offset": 0,
        "slot": "0",
        "type": "t_struct(Storage)20847_storage"
      }
    ],
    "types": {
      "t_address": {
        "encoding": "inplace",
        "label": "address",
        "numberOfBytes": "20"
      },
      "t_array(t_bytes32)dyn_storage": {
        "base": "t_bytes32",
        "encoding": "dynamic_array",
        "label": "bytes32[]",
        "numberOfBytes": "32"
      },
      "t_array(t_struct(Info)20697_storage)dyn_storage": {
        "base": "t_struct(Info)20697_storage",
        "encoding": "dynamic_array",
        "label": "struct LibBondStorage.Info[]",
        "numberOfBytes": "32"
      },
      "t_array(t_struct(Payout)20692_storage)dyn_storage": {
        "base": "t_struct(Payout)20692_storage",
        "encoding": "dynamic_array",
        "label": "struct LibBondStorage.Payout[]",
        "numberOfBytes": "32"
      },
      "t_bool": {
        "encoding": "inplace",
        "label": "bool",
        "numberOfBytes": "1"
      },
      "t_bytes32": {
        "encoding": "inplace",
        "label": "bytes32",
        "numberOfBytes": "32"
      },
      "t_mapping(t_address,t_mapping(t_uint256,t_struct(Bond)20728_storage))": {
        "encoding": "mapping",
        "key": "t_address",
        "label": "mapping(address => mapping(uint256 => struct LibBondStorage.Bond))",
        "numberOfBytes": "32",
        "value": "t_mapping(t_uint256,t_struct(Bond)20728_storage)"
      },
      "t_mapping(t_address,t_struct(Claim)20755_storage)": {
        "encoding": "mapping",
        "key": "t_address",
        "label": "mapping(address => struct LibBondStorage.Claim)",
        "numberOfBytes": "32",
        "value": "t_struct(Claim)20755_storage"
      },
      "t_mapping(t_address,t_uint256)": {
        "encoding": "mapping",
        "key": "t_address",
        "label": "mapping(address => uint256)",
        "numberOfBytes": "32",
        "value": "t_uint256"
      },
      "t_mapping(t_bytes32,t_uint256)": {
        "encoding": "mapping",
        "key": "t_bytes32",
        "label": "mapping(bytes32 => uint256)",
        "numberOfBytes": "32",
        "value": "t_uint256"
      },
      "t_mapping(t_uint256,t_address)": {
        "encoding": "mapping",
        "key": "t_uint256",
        "label": "mapping(uint256 => address)",
        "numberOfBytes": "32",
        "value": "t_address"
      },
      "t_mapping(t_uint256,t_array(t_struct(Payout)20692_storage)dyn_storage)": {
        "encoding": "mapping",
        "key": "t_uint256",
        "label": "mapping(uint256 => struct LibBondStorage.Payout[])",
        "numberOfBytes": "32",
        "value": "t_array(t_struct(Payout)20692_storage)dyn_storage"
      },
      "t_mapping(t_uint256,t_struct(Bond)20728_storage)": {
        "encoding": "mapping",
        "key": "t_uint256",
        "label": "mapping(uint256 => struct LibBondStorage.Bond)",
        "numberOfBytes": "32",
        "value": "t_struct(Bond)20728_storage"
      },
      "t_mapping(t_uint256,t_struct(BondDepositoryAdjustment)20737_storage)": {
        "encoding": "mapping",
        "key": "t_uint256",
        "label": "mapping(uint256 => struct LibBondStorage.BondDepositoryAdjustment)",
        "numberOfBytes": "32",
        "value": "t_struct(BondDepositoryAdjustment)20737_storage"
      },
      "t_mapping(t_uint256,t_struct(DistributorAdjustment)20704_storage)": {
        "encoding": "mapping",
        "key": "t_uint256",
        "label": "mapping(uint256 => struct LibBondStorage.DistributorAdjustment)",
        "numberOfBytes": "32",
        "value": "t_struct(DistributorAdjustment)20704_storage"
      },
      "t_mapping(t_uint256,t_struct(Terms)20719_storage)": {
        "encoding": "mapping",
        "key": "t_uint256",
        "label": "mapping(uint256 => struct LibBondStorage.Terms)",
        "numberOfBytes": "32",
        "value": "t_struct(Terms)20719_storage"
      },
      "t_mapping(t_uint256,t_uint256)": {
        "encoding": "mapping",
        "key": "t_uint256",
        "label": "mapping(uint256 => uint256)",
        "numberOfBytes": "32",
        "value": "t_uint256"
      },
      "t_struct(AddressSet)1348_storage": {
        "encoding": "inplace",
        "label": "struct EnumerableSet.AddressSet",
        "members": [
          {
            "astId": 1347,
            "contract": "contracts/facets/Bond/BondDepositoryFacet.sol:BondDepositoryFacet",
            "label": "_inner",
            "offset": 0,
            "slot": "0",
            "type": "t_struct(Set)1047_storage"
          }
        ],
        "numberOfBytes": "64"
      },
      "t_struct(Bond)20728_storage": {
        "encoding": "inplace",
        "label": "struct LibBondStorage.Bond",
        "members": [
          {
            "astId": 20721,
            "contract": "contracts/facets/Bond/BondDepositoryFacet.sol:BondDepositoryFacet",
            "label": "payout",
            "offset": 0,
            "slot": "0",
            "type": "t_uint256"
          },
          {
            "astId": 20723,
            "contract": "contracts/facets/Bond/BondDepositoryFacet.sol:BondDepositoryFacet",
            "label": "pricePaid",
            "offset": 0,
            "slot": "1",
            "type": "t_uint256"
          },
          {
            "astId": 20725,
            "contract": "contracts/facets/Bond/BondDepositoryFacet.sol:BondDepositoryFacet",
            "label": "lastTime",
            "offset": 0,
            "slot": "2",
            "type": "t_uint256"
          },
          {
            "astId": 20727,
            "contract": "contracts/facets/Bond/BondDepositoryFacet.sol:BondDepositoryFacet",
            "label": "vesting",
            "offset": 0,
            "slot": "3",
            "type": "t_uint256"
          }
        ],
        "numberOfBytes": "128"
      },
      "t_struct(BondDepositoryAdjustment)20737_storage": {
        "encoding": "inplace",
        "label": "struct LibBondStorage.BondDepositoryAdjustment",
        "members": [
          {
            "astId": 20730,
            "contract": "contracts/facets/Bond/BondDepositoryFacet.sol:BondDepositoryFacet",
            "label": "add",
            "offset": 0,
            "slot": "0",
            "type": "t_bool"
          },
          {
            "astId": 20732,
            "contract": "contracts/facets/Bond/BondDepositoryFacet.sol:BondDepositoryFacet",
            "label": "delta",
            "offset": 0,
            "slot": "1",
            "type": "t_uint256"
          },
          {
            "astId": 20734,
            "contract": "contracts/facets/Bond/BondDepositoryFacet.sol:BondDepositoryFacet",
            "label": "timeToTarget",
            "offset": 0,
            "slot": "2",
            "type": "t_uint256"
          },
          {
            "astId": 20736,
            "contract": "contracts/facets/Bond/BondDepositoryFacet.sol:BondDepositoryFacet",
            "label": "lastTime",
            "offset": 0,
            "slot": "3",
            "type": "t_uint256"
          }
        ],
        "numberOfBytes": "128"
      },
      "t_struct(Claim)20755_storage": {
        "encoding": "inplace",
        "label": "struct LibBondStorage.Claim",
        "members": [
          {
            "astId": 20748,
            "contract": "contracts/facets/Bond/BondDepositoryFacet.sol:BondDepositoryFacet",
            "label": "deposit",
            "offset": 0,
            "slot": "0",
            "type": "t_uint256"
          },
          {
            "astId": 20750,
            "contract": "contracts/facets/Bond/BondDepositoryFacet.sol:BondDepositoryFacet",
            "label": "gons",
            "offset": 0,
            "slot": "1",
            "type": "t_uint256"
          },
          {
            "astId": 20752,
            "contract": "contracts/facets/Bond/BondDepositoryFacet.sol:BondDepositoryFacet",
            "label": "expiry",
            "offset": 0,
            "slot": "2",
            "type": "t_uint256"
          },
          {
            "astId": 20754,
            "contract": "contracts/facets/Bond/BondDepositoryFacet.sol:BondDepositoryFacet",
            "label": "lock",
            "offset": 0,
            "slot": "3",
            "type": "t_bool"
          }
        ],
        "numberOfBytes": "128"
      },
      "t_struct(DistributorAdjustment)20704_storage": {
        "encoding": "inplace",
        "label": "struct LibBondStorage.DistributorAdjustment",
        "members": [
          {
            "astId": 20699,
            "contract": "contracts/facets/Bond/BondDepositoryFacet.sol:BondDepositoryFacet",
            "label": "add",
            "offset": 0,
            "slot": "0",
            "type": "t_bool"
          },
          {
            "astId": 20701,
            "contract": "contracts/facets/Bond/BondDepositoryFacet.sol:BondDepositoryFacet",
            "label": "rate",
            "offset": 0,
            "slot": "1",
            "type": "t_uint256"
          },
          {
            "astId": 20703,
            "contract": "contracts/facets/Bond/BondDepositoryFacet.sol:BondDepositoryFacet",
            "label": "target",
            "offset": 0,
            "slot": "2",
            "type": "t_uint256"
          }
        ],
        "numberOfBytes": "96"
      },
      "t_struct(Epoch)20746_storage": {
        "encoding": "inplace",
        "label": "struct LibBondStorage.Epoch",
        "members": [
          {
            "astId": 20739,
            "contract": "contracts/facets/Bond/BondDepositoryFacet.sol:BondDepositoryFacet",
            "label": "number",
            "offset": 0,
            "slot": "0",
            "type": "t_uint256"
          },
          {
            "astId": 20741,
            "contract": "contracts/facets/Bond/BondDepositoryFacet.sol:BondDepositoryFacet",
            "label": "distribute",
            "offset": 0,
            "slot": "1",
            "type": "t_uint256"
          },
          {
            "astId": 20743,
            "contract": "contracts/facets/Bond/BondDepositoryFacet.sol:BondDepositoryFacet",
            "label": "length",
            "offset": 0,
            "slot": "2",
            "type": "t_uint256"
          },
          {
            "astId": 20745,
            "contract": "contracts/facets/Bond/BondDepositoryFacet.sol:BondDepositoryFacet",
            "label": "endTime",
            "offset": 0,
            "slot": "3",
            "type": "t_uint256"
          }
        ],
        "numberOfBytes": "128"
      },
      "t_struct(Info)20697_storage": {
        "encoding": "inplace",
        "label": "struct LibBondStorage.Info",
        "members": [
          {
            "astId": 20694,
            "contract": "contracts/facets/Bond/BondDepositoryFacet.sol:BondDepositoryFacet",
            "label": "rate",
            "offset": 0,
            "slot": "0",
            "type": "t_uint256"
          },
          {
            "astId": 20696,
            "contract": "contracts/facets/Bond/BondDepositoryFacet.sol:BondDepositoryFacet",
            "label": "recipient",
            "offset": 0,
            "slot": "1",
            "type": "t_address"
          }
        ],
        "numberOfBytes": "64"
      },
      "t_struct(Payout)20692_storage": {
        "encoding": "inplace",
        "label": "struct LibBondStorage.Payout",
        "members": [
          {
            "astId": 20689,
            "contract": "contracts/facets/Bond/BondDepositoryFacet.sol:BondDepositoryFacet",
            "label": "amount",
            "offset": 0,
            "slot": "0",
            "type": "t_uint256"
          },
          {
            "astId": 20691,
            "contract": "contracts/facets/Bond/BondDepositoryFacet.sol:BondDepositoryFacet",
            "label": "blockTimestamp",
            "offset": 0,
            "slot": "1",
            "type": "t_uint256"
          }
        ],
        "numberOfBytes": "64"
      },
      "t_struct(Set)1047_storage": {
        "encoding": "inplace",
        "label": "struct EnumerableSet.Set",
        "members": [
          {
            "astId": 1042,
            "contract": "contracts/facets/Bond/BondDepositoryFacet.sol:BondDepositoryFacet",
            "label": "_values",
            "offset": 0,
            "slot": "0",
            "type": "t_array(t_bytes32)dyn_storage"
          },
          {
            "astId": 1046,
            "contract": "contracts/facets/Bond/BondDepositoryFacet.sol:BondDepositoryFacet",
            "label": "_indexes",
            "offset": 0,
            "slot": "1",
            "type": "t_mapping(t_bytes32,t_uint256)"
          }
        ],
        "numberOfBytes": "64"
      },
      "t_struct(Storage)20847_storage": {
        "encoding": "inplace",
        "label": "struct LibBondStorage.Storage",
        "members": [
          {
            "astId": 20757,
            "contract": "contracts/facets/Bond/BondDepositoryFacet.sol:BondDepositoryFacet",
            "label": "Necc",
            "offset": 0,
            "slot": "0",
            "type": "t_address"
          },
          {
            "astId": 20759,
            "contract": "contracts/facets/Bond/BondDepositoryFacet.sol:BondDepositoryFacet",
            "label": "sNecc",
            "offset": 0,
            "slot": "1",
            "type": "t_address"
          },
          {
            "astId": 20761,
            "contract": "contracts/facets/Bond/BondDepositoryFacet.sol:BondDepositoryFacet",
            "label": "nNecc",
            "offset": 0,
            "slot": "2",
            "type": "t_address"
          },
          {
            "astId": 20763,
            "contract": "contracts/facets/Bond/BondDepositoryFacet.sol:BondDepositoryFacet",
            "label": "ndol",
            "offset": 0,
            "slot": "3",
            "type": "t_address"
          },
          {
            "astId": 20765,
            "contract": "contracts/facets/Bond/BondDepositoryFacet.sol:BondDepositoryFacet",
            "label": "treasury",
            "offset": 0,
            "slot": "4",
            "type": "t_address"
          },
          {
            "astId": 20767,
            "contract": "contracts/facets/Bond/BondDepositoryFacet.sol:BondDepositoryFacet",
            "label": "DAO",
            "offset": 0,
            "slot": "5",
            "type": "t_address"
          },
          {
            "astId": 20769,
            "contract": "contracts/facets/Bond/BondDepositoryFacet.sol:BondDepositoryFacet",
            "label": "farmDistributor",
            "offset": 0,
            "slot": "6",
            "type": "t_address"
          },
          {
            "astId": 20771,
            "contract": "contracts/facets/Bond/BondDepositoryFacet.sol:BondDepositoryFacet",
            "label": "staking",
            "offset": 0,
            "slot": "7",
            "type": "t_address"
          },
          {
            "astId": 20774,
            "contract": "contracts/facets/Bond/BondDepositoryFacet.sol:BondDepositoryFacet",
            "label": "principles",
            "offset": 0,
            "slot": "8",
            "type": "t_struct(AddressSet)1348_storage"
          },
          {
            "astId": 20779,
            "contract": "contracts/facets/Bond/BondDepositoryFacet.sol:BondDepositoryFacet",
            "label": "terms",
            "offset": 0,
            "slot": "10",
            "type": "t_mapping(t_uint256,t_struct(Terms)20719_storage)"
          },
          {
            "astId": 20784,
            "contract": "contracts/facets/Bond/BondDepositoryFacet.sol:BondDepositoryFacet",
            "label": "bondDepositoryAdjustment",
            "offset": 0,
            "slot": "11",
            "type": "t_mapping(t_uint256,t_struct(BondDepositoryAdjustment)20737_storage)"
          },
          {
            "astId": 20791,
            "contract": "contracts/facets/Bond/BondDepositoryFacet.sol:BondDepositoryFacet",
            "label": "bondInfo",
            "offset": 0,
            "slot": "12",
            "type": "t_mapping(t_address,t_mapping(t_uint256,t_struct(Bond)20728_storage))"
          },
          {
            "astId": 20795,
            "contract": "contracts/facets/Bond/BondDepositoryFacet.sol:BondDepositoryFacet",
            "label": "totalDebt",
            "offset": 0,
            "slot": "13",
            "type": "t_mapping(t_uint256,t_uint256)"
          },
          {
            "astId": 20799,
            "contract": "contracts/facets/Bond/BondDepositoryFacet.sol:BondDepositoryFacet",
            "label": "lastDecay",
            "offset": 0,
            "slot": "14",
            "type": "t_mapping(t_uint256,t_uint256)"
          },
          {
            "astId": 20803,
            "contract": "contracts/facets/Bond/BondDepositoryFacet.sol:BondDepositoryFacet",
            "label": "nextEpochTimestamp",
            "offset": 0,
            "slot": "15",
            "type": "t_mapping(t_uint256,t_uint256)"
          },
          {
            "astId": 20807,
            "contract": "contracts/facets/Bond/BondDepositoryFacet.sol:BondDepositoryFacet",
            "label": "priceFeeds",
            "offset": 0,
            "slot": "16",
            "type": "t_mapping(t_uint256,t_address)"
          },
          {
            "astId": 20811,
            "contract": "contracts/facets/Bond/BondDepositoryFacet.sol:BondDepositoryFacet",
            "label": "info",
            "offset": 0,
            "slot": "17",
            "type": "t_array(t_struct(Info)20697_storage)dyn_storage"
          },
          {
            "astId": 20816,
            "contract": "contracts/facets/Bond/BondDepositoryFacet.sol:BondDepositoryFacet",
            "label": "distributorAdjustments",
            "offset": 0,
            "slot": "18",
            "type": "t_mapping(t_uint256,t_struct(DistributorAdjustment)20704_storage)"
          },
          {
            "astId": 20819,
            "contract": "contracts/facets/Bond/BondDepositoryFacet.sol:BondDepositoryFacet",
            "label": "epoch",
            "offset": 0,
            "slot": "19",
            "type": "t_struct(Epoch)20746_storage"
          },
          {
            "astId": 20821,
            "contract": "contracts/facets/Bond/BondDepositoryFacet.sol:BondDepositoryFacet",
            "label": "epochLength",
            "offset": 0,
            "slot": "23",
            "type": "t_uint256"
          },
          {
            "astId": 20823,
            "contract": "contracts/facets/Bond/BondDepositoryFacet.sol:BondDepositoryFacet",
            "label": "distributor",
            "offset": 0,
            "slot": "24",
            "type": "t_address"
          },
          {
            "astId": 20825,
            "contract": "contracts/facets/Bond/BondDepositoryFacet.sol:BondDepositoryFacet",
            "label": "locker",
            "offset": 0,
            "slot": "25",
            "type": "t_address"
          },
          {
            "astId": 20827,
            "contract": "contracts/facets/Bond/BondDepositoryFacet.sol:BondDepositoryFacet",
            "label": "warmupPeriod",
            "offset": 0,
            "slot": "26",
            "type": "t_uint256"
          },
          {
            "astId": 20832,
            "contract": "contracts/facets/Bond/BondDepositoryFacet.sol:BondDepositoryFacet",
            "label": "warmupInfo",
            "offset": 0,
            "slot": "27",
            "type": "t_mapping(t_address,t_struct(Claim)20755_storage)"
          },
          {
            "astId": 20834,
            "contract": "contracts/facets/Bond/BondDepositoryFacet.sol:BondDepositoryFacet",
            "label": "targetSum",
            "offset": 0,
            "slot": "28",
            "type": "t_uint256"
          },
          {
            "astId": 20840,
            "contract": "contracts/facets/Bond/BondDepositoryFacet.sol:BondDepositoryFacet",
            "label": "payouts",
            "offset": 0,
            "slot": "29",
            "type": "t_mapping(t_uint256,t_array(t_struct(Payout)20692_storage)dyn_storage)"
          },
          {
            "astId": 20842,
            "contract": "contracts/facets/Bond/BondDepositoryFacet.sol:BondDepositoryFacet",
            "label": "gonsInWarmup",
            "offset": 0,
            "slot": "30",
            "type": "t_uint256"
          },
          {
            "astId": 20846,
            "contract": "contracts/facets/Bond/BondDepositoryFacet.sol:BondDepositoryFacet",
            "label": "bondFees",
            "offset": 0,
            "slot": "31",
            "type": "t_mapping(t_address,t_uint256)"
          }
        ],
        "numberOfBytes": "1024"
      },
      "t_struct(Terms)20719_storage": {
        "encoding": "inplace",
        "label": "struct LibBondStorage.Terms",
        "members": [
          {
            "astId": 20706,
            "contract": "contracts/facets/Bond/BondDepositoryFacet.sol:BondDepositoryFacet",
            "label": "controlVariable",
            "offset": 0,
            "slot": "0",
            "type": "t_uint256"
          },
          {
            "astId": 20708,
            "contract": "contracts/facets/Bond/BondDepositoryFacet.sol:BondDepositoryFacet",
            "label": "minimumPrice",
            "offset": 0,
            "slot": "1",
            "type": "t_uint256"
          },
          {
            "astId": 20710,
            "contract": "contracts/facets/Bond/BondDepositoryFacet.sol:BondDepositoryFacet",
            "label": "maxPayout",
            "offset": 0,
            "slot": "2",
            "type": "t_uint256"
          },
          {
            "astId": 20712,
            "contract": "contracts/facets/Bond/BondDepositoryFacet.sol:BondDepositoryFacet",
            "label": "fee",
            "offset": 0,
            "slot": "3",
            "type": "t_uint256"
          },
          {
            "astId": 20714,
            "contract": "contracts/facets/Bond/BondDepositoryFacet.sol:BondDepositoryFacet",
            "label": "maxDebt",
            "offset": 0,
            "slot": "4",
            "type": "t_uint256"
          },
          {
            "astId": 20716,
            "contract": "contracts/facets/Bond/BondDepositoryFacet.sol:BondDepositoryFacet",
            "label": "vestingTerm",
            "offset": 0,
            "slot": "5",
            "type": "t_uint256"
          },
          {
            "astId": 20718,
            "contract": "contracts/facets/Bond/BondDepositoryFacet.sol:BondDepositoryFacet",
            "label": "isLiquidityBond",
            "offset": 0,
            "slot": "6",
            "type": "t_bool"
          }
        ],
        "numberOfBytes": "224"
      },
      "t_uint256": {
        "encoding": "inplace",
        "label": "uint256",
        "numberOfBytes": "32"
      }
    }
  }
}