{
  "address": "0x7317D3F0437b25679be8993338E35F4672474D6a",
  "abi": [
    {
      "inputs": [
        {
          "internalType": "address",
          "name": "_recipient",
          "type": "address"
        },
        {
          "internalType": "uint256",
          "name": "_rewardRate",
          "type": "uint256"
        }
      ],
      "name": "addRecipient",
      "outputs": [],
      "stateMutability": "nonpayable",
      "type": "function"
    },
    {
      "inputs": [
        {
          "internalType": "address",
          "name": "_ndol",
          "type": "address"
        },
        {
          "internalType": "address",
          "name": "_Necc",
          "type": "address"
        },
        {
          "internalType": "address",
          "name": "_treasury",
          "type": "address"
        },
        {
          "internalType": "address",
          "name": "_DAO",
          "type": "address"
        }
      ],
      "name": "initializeBondDepository",
      "outputs": [],
      "stateMutability": "nonpayable",
      "type": "function"
    },
    {
      "inputs": [
        {
          "internalType": "uint256",
          "name": "_controlVariable",
          "type": "uint256"
        },
        {
          "internalType": "uint256",
          "name": "_minimumPrice",
          "type": "uint256"
        },
        {
          "internalType": "uint256",
          "name": "_maxPayout",
          "type": "uint256"
        },
        {
          "internalType": "uint256",
          "name": "_fee",
          "type": "uint256"
        },
        {
          "internalType": "uint256",
          "name": "_maxDebt",
          "type": "uint256"
        },
        {
          "internalType": "uint256",
          "name": "_initialDebt",
          "type": "uint256"
        },
        {
          "internalType": "uint256",
          "name": "_vestingTerm",
          "type": "uint256"
        },
        {
          "internalType": "bool",
          "name": "_isLiquidityBond",
          "type": "bool"
        },
        {
          "internalType": "address",
          "name": "_priceFeed",
          "type": "address"
        },
        {
          "internalType": "address",
          "name": "_principle",
          "type": "address"
        }
      ],
      "name": "initializeBondTerms",
      "outputs": [],
      "stateMutability": "nonpayable",
      "type": "function"
    },
    {
      "inputs": [
        {
          "internalType": "uint256",
          "name": "_epochLength",
          "type": "uint256"
        },
        {
          "internalType": "uint256",
          "name": "_nextEpochTimestamp",
          "type": "uint256"
        },
        {
          "internalType": "address",
          "name": "_principle",
          "type": "address"
        }
      ],
      "name": "initializeDistributor",
      "outputs": [],
      "stateMutability": "nonpayable",
      "type": "function"
    },
    {
      "inputs": [
        {
          "internalType": "uint256",
          "name": "_firstEpochNumber",
          "type": "uint256"
        },
        {
          "internalType": "uint32",
          "name": "_firstEpochTime",
          "type": "uint32"
        },
        {
          "internalType": "address",
          "name": "_sNecc",
          "type": "address"
        },
        {
          "internalType": "address",
          "name": "_nNecc",
          "type": "address"
        }
      ],
      "name": "initializeStaking",
      "outputs": [],
      "stateMutability": "nonpayable",
      "type": "function"
    },
    {
      "inputs": [
        {
          "internalType": "address",
          "name": "_token",
          "type": "address"
        }
      ],
      "name": "recoverLostToken",
      "outputs": [
        {
          "internalType": "bool",
          "name": "",
          "type": "bool"
        }
      ],
      "stateMutability": "nonpayable",
      "type": "function"
    },
    {
      "inputs": [
        {
          "internalType": "uint256",
          "name": "_index",
          "type": "uint256"
        },
        {
          "internalType": "address",
          "name": "_recipient",
          "type": "address"
        }
      ],
      "name": "removeRecipient",
      "outputs": [],
      "stateMutability": "nonpayable",
      "type": "function"
    },
    {
      "inputs": [
        {
          "internalType": "bool",
          "name": "_addition",
          "type": "bool"
        },
        {
          "internalType": "uint256",
          "name": "_delta",
          "type": "uint256"
        },
        {
          "internalType": "uint256",
          "name": "_timeToTargetInSeconds",
          "type": "uint256"
        },
        {
          "internalType": "address",
          "name": "_principle",
          "type": "address"
        }
      ],
      "name": "setAdjustment",
      "outputs": [],
      "stateMutability": "nonpayable",
      "type": "function"
    },
    {
      "inputs": [
        {
          "internalType": "uint256",
          "name": "_index",
          "type": "uint256"
        },
        {
          "internalType": "bool",
          "name": "_add",
          "type": "bool"
        },
        {
          "internalType": "uint256",
          "name": "_rate",
          "type": "uint256"
        },
        {
          "internalType": "uint256",
          "name": "_target",
          "type": "uint256"
        }
      ],
      "name": "setAdjustment",
      "outputs": [],
      "stateMutability": "nonpayable",
      "type": "function"
    },
    {
      "inputs": [
        {
          "internalType": "enum PARAMETER",
          "name": "_parameter",
          "type": "uint8"
        },
        {
          "internalType": "uint256",
          "name": "_input",
          "type": "uint256"
        },
        {
          "internalType": "address",
          "name": "_principle",
          "type": "address"
        }
      ],
      "name": "setBondTerms",
      "outputs": [],
      "stateMutability": "nonpayable",
      "type": "function"
    },
    {
      "inputs": [
        {
          "internalType": "enum CONTRACTS",
          "name": "_contract",
          "type": "uint8"
        },
        {
          "internalType": "address",
          "name": "_address",
          "type": "address"
        }
      ],
      "name": "setContract",
      "outputs": [],
      "stateMutability": "nonpayable",
      "type": "function"
    },
    {
      "inputs": [
        {
          "internalType": "address",
          "name": "_DAO",
          "type": "address"
        }
      ],
      "name": "setDAO",
      "outputs": [],
      "stateMutability": "nonpayable",
      "type": "function"
    },
    {
      "inputs": [
        {
          "internalType": "address",
          "name": "_farmDistributor",
          "type": "address"
        }
      ],
      "name": "setFarmDistributor",
      "outputs": [],
      "stateMutability": "nonpayable",
      "type": "function"
    },
    {
      "inputs": [
        {
          "internalType": "address",
          "name": "_treasury",
          "type": "address"
        }
      ],
      "name": "setTreasury",
      "outputs": [],
      "stateMutability": "nonpayable",
      "type": "function"
    },
    {
      "inputs": [
        {
          "internalType": "uint256",
          "name": "_warmupPeriod",
          "type": "uint256"
        }
      ],
      "name": "setWarmup",
      "outputs": [],
      "stateMutability": "nonpayable",
      "type": "function"
    },
    {
      "inputs": [
        {
          "internalType": "address",
          "name": "_maliciousDepositor",
          "type": "address"
        }
      ],
      "name": "toggleDepositLock",
      "outputs": [],
      "stateMutability": "nonpayable",
      "type": "function"
    }
  ],
  "transactionHash": "0xf6ef6cfc4bb5df39d40cab3b5df98e50ff0d339eafc522cd6cfb5aa764d68011",
  "args": [],
  "solcInputHash": "a264ad70ad5cb05850813662c40e641c",
  "bytecode": "0x608060405234801561001057600080fd5b50611773806100206000396000f3fe608060405234801561001057600080fd5b50600436106101005760003560e01c8063b4abccba11610097578063f0f4426011610066578063f0f44260146101ff578063f54fef4014610212578063f798224314610225578063fe3fbbad1461023857600080fd5b8063b4abccba1461019f578063c9f464ff146101c6578063d247cfe9146101d9578063e73a914c146101ec57600080fd5b80635db854b0116100d35780635db854b014610153578063865e6fd3146101665780638e9068e614610179578063b00785cc1461018c57600080fd5b806307cafdfc14610105578063128bae671461011a57806319b59e971461012d5780634a30c46314610140575b600080fd5b610118610113366004611338565b61024b565b005b610118610128366004611364565b610275565b61011861013b3660046113ac565b610407565b61011861014e3660046113f9565b6104a4565b610118610161366004611426565b610566565b610118610174366004611463565b610698565b610118610187366004611338565b610759565b61011861019a36600461149c565b61078d565b6101b26101ad366004611338565b610886565b604051901515815260200160405180910390f35b6101186101d4366004611527565b61095d565b6101186101e7366004611540565b61096a565b6101186101fa366004611338565b610998565b61011861020d366004611338565b6109c2565b610118610220366004611575565b6109ec565b6101186102333660046115ae565b610c1f565b6101186102463660046115d8565b610d48565b610253610e44565b600680546001600160a01b0319166001600160a01b0392909216919091179055565b7fc8fcad8db84d3cc18b4c41d551ea0ee66dd599cde068d998e57d5e09332c131c303314806102b0575060048101546001600160a01b031633145b6103275760405162461bcd60e51b815260206004820152602660248201527f426f6e644465706f7369746f72793a20496e76616c696420636f6e747261637460448201527f206f776e6572000000000000000000000000000000000000000000000000000060648201526084015b60405180910390fd5b60006103338184610e4e565b60008052600a6020527f13da86008ba1c6922daee3e07db95305ef49ebced9f5467a0b8613fcc6b343e8549091508410156103b05760405162461bcd60e51b815260206004820152601b60248201527f41646a7573746d656e743a204368616e676520746f6f20666173740000000000604482015260640161031e565b604080516080810182529615158752602080880196875287820195865242606089019081526000938452600b90915291209551865460ff191690151517865593516001860155505051600283015551600390910155565b61040f610e44565b6001600160a01b03821661042257600080fd5b6001600160a01b03811661043557600080fd5b600180546001600160a01b039384166001600160a01b031991821617909155600280549290931691161790556040805160808101825283815260006020820181905260175492820183905263ffffffff9093166060909101819052601393909355601491909155601555601655565b6104ac610e44565b6001600160a01b0383166104bf57600080fd5b600080546001600160a01b0319166001600160a01b038581169190911790915582166104ea57600080fd5b600480546001600160a01b0319166001600160a01b0384811691909117909155811661051557600080fd5b600580546001600160a01b0319166001600160a01b0383811691909117909155841661054057600080fd5b5050600380546001600160a01b0319166001600160a01b03939093169290921790915550565b61056e610e44565b6011805485908110610582576105826115fb565b60009182526020909120600160029092020101546001600160a01b03166105eb5760405162461bcd60e51b815260206004820152601160248201527f496e76616c696420726563697069656e74000000000000000000000000000000604482015260640161031e565b82610651576000848152601260205260409020600101548211156106515760405162461bcd60e51b815260206004820152601460248201527f43616e6e6f742064656372656173652072617465000000000000000000000000604482015260640161031e565b60408051606081018252931515845260208085019384528482019283526000958652601290529093209151825460ff19169015151782555160018201559051600290910155565b6106a0610e44565b60028260028111156106b4576106b4611611565b1415610755576019546001600160a01b0316156107395760405162461bcd60e51b815260206004820152602360248201527f4c6f636b65722063616e6e6f7420626520736574206d6f7265207468616e206f60448201527f6e63650000000000000000000000000000000000000000000000000000000000606482015260840161031e565b601980546001600160a01b0319166001600160a01b0383161790555b5050565b610761610e44565b6001600160a01b03166000908152601b60205260409020600301805460ff19811660ff90911615179055565b610795610e44565b6107a0600882610eb4565b5060006107ad8183610e4e565b6040805160e0810182528d815260208082018e81528284018e8152606084018e8152608085018e815260a086018d81528c151560c0880190815260008a8152600a885289812098518955955160018901559351600288015591516003870155516004860155516005850155516006909301805460ff191693151593909317909255600d81528282208a9055600e90522042905590506001600160a01b0383161561087957600081815260106020526040902080546001600160a01b0319166001600160a01b0385161790555b5050505050505050505050565b600080546001600160a01b03838116911614156108a257600080fd5b6108ad600883610ed0565b156108b757600080fd5b6005546040517f70a08231000000000000000000000000000000000000000000000000000000008152306004820152610955916001600160a01b0390811691908516906370a0823190602401602060405180830381865afa158015610920573d6000803e3d6000fd5b505050506040513d601f19601f820116820180604052508101906109449190611627565b6001600160a01b0385169190610ef2565b506001919050565b610965610e44565b601a55565b610972610e44565b600061097e8183610e4e565b60179490945550506000918252600f602052604090912055565b6109a0610e44565b600580546001600160a01b0319166001600160a01b0392909216919091179055565b6109ca610e44565b600480546001600160a01b0319166001600160a01b0392909216919091179055565b6109f4610e44565b6000610a008183610e4e565b90506000846004811115610a1657610a16611611565b1415610aad576201fa40831015610a945760405162461bcd60e51b8152602060048201526024808201527f56657374696e67206d757374206265206c6f6e676572207468616e203336206860448201527f6f75727300000000000000000000000000000000000000000000000000000000606482015260840161031e565b6000818152600a60205260409020600501839055610c19565b6001846004811115610ac157610ac1611611565b1415610b32576103e8831115610b195760405162461bcd60e51b815260206004820181905260248201527f5061796f75742063616e6e6f742062652061626f766520312070657263656e74604482015260640161031e565b6000818152600a60205260409020600201839055610c19565b6002846004811115610b4657610b46611611565b1415610bb757612710831115610b9e5760405162461bcd60e51b815260206004820152601c60248201527f44414f206665652063616e6e6f7420657863656564207061796f757400000000604482015260640161031e565b6000818152600a60205260409020600301839055610c19565b6003846004811115610bcb57610bcb611611565b1415610bea576000818152600a60205260409020600401839055610c19565b6004846004811115610bfe57610bfe611611565b1415610c19576000818152600a602052604090206001018390555b50505050565b610c27610e44565b6001600160a01b038216610c3a57600080fd5b620f4240811115610cb35760405162461bcd60e51b815260206004820152602560248201527f52657761726420526174652063616e6e6f74206578636565642064656e6f6d6960448201527f6e61746f72000000000000000000000000000000000000000000000000000000606482015260840161031e565b604080518082019091529081526001600160a01b03918216602082019081526011805460018101825560009190915291517f31ecc21a745e3968a04e9570e4425bc18fa8019c68028196b546d1669c200c68600290930292830155517f31ecc21a745e3968a04e9570e4425bc18fa8019c68028196b546d1669c200c6990910180546001600160a01b03191691909216179055565b610d50610e44565b6011805483908110610d6457610d646115fb565b60009182526020909120600160029092020101546001600160a01b03828116911614610dd25760405162461bcd60e51b815260206004820152601160248201527f496e76616c696420726563697069656e74000000000000000000000000000000604482015260640161031e565b6000806011018381548110610de957610de96115fb565b6000918252602082206002919091020160010180546001600160a01b0319166001600160a01b0393909316929092179091556011805484908110610e2f57610e2f6115fb565b60009182526020909120600290910201555050565b610e4c610f77565b565b600080610e5d84600801611019565b905060005b81811015610eab57836001600160a01b0316610e818660080183611023565b6001600160a01b03161415610e99579150610eae9050565b80610ea381611640565b915050610e62565b50505b92915050565b6000610ec9836001600160a01b03841661102f565b9392505050565b6001600160a01b03811660009081526001830160205260408120541515610ec9565b604080516001600160a01b038416602482015260448082018490528251808303909101815260649091019091526020810180517bffffffffffffffffffffffffffffffffffffffffffffffffffffffff167fa9059cbb00000000000000000000000000000000000000000000000000000000179052610f7290849061107e565b505050565b7fc8fcad8db84d3cc18b4c41d551ea0ee66dd599cde068d998e57d5e09332c131c600401546001600160a01b03163314610e4c5760405162461bcd60e51b815260206004820152602260248201527f4c69624469616d6f6e643a20696e76616c696420636f6e7472616374206f776e60448201527f6572000000000000000000000000000000000000000000000000000000000000606482015260840161031e565b6000610eae825490565b6000610ec98383611163565b600081815260018301602052604081205461107657508154600181810184556000848152602080822090930184905584548482528286019093526040902091909155610eae565b506000610eae565b60006110d3826040518060400160405280602081526020017f5361666545524332303a206c6f772d6c6576656c2063616c6c206661696c6564815250856001600160a01b031661118d9092919063ffffffff16565b805190915015610f7257808060200190518101906110f19190611687565b610f725760405162461bcd60e51b815260206004820152602a60248201527f5361666545524332303a204552433230206f7065726174696f6e20646964206e60448201527f6f74207375636365656400000000000000000000000000000000000000000000606482015260840161031e565b600082600001828154811061117a5761117a6115fb565b9060005260206000200154905092915050565b606061119c84846000856111a4565b949350505050565b60608247101561121c5760405162461bcd60e51b815260206004820152602660248201527f416464726573733a20696e73756666696369656e742062616c616e636520666f60448201527f722063616c6c0000000000000000000000000000000000000000000000000000606482015260840161031e565b843b61126a5760405162461bcd60e51b815260206004820152601d60248201527f416464726573733a2063616c6c20746f206e6f6e2d636f6e7472616374000000604482015260640161031e565b600080866001600160a01b0316858760405161128691906116d0565b60006040518083038185875af1925050503d80600081146112c3576040519150601f19603f3d011682016040523d82523d6000602084013e6112c8565b606091505b50915091506112d88282866112e3565b979650505050505050565b606083156112f2575081610ec9565b8251156113025782518084602001fd5b8160405162461bcd60e51b815260040161031e91906116ec565b80356001600160a01b038116811461133357600080fd5b919050565b60006020828403121561134a57600080fd5b610ec98261131c565b801515811461136157600080fd5b50565b6000806000806080858703121561137a57600080fd5b843561138581611353565b935060208501359250604085013591506113a16060860161131c565b905092959194509250565b600080600080608085870312156113c257600080fd5b84359350602085013563ffffffff811681146113dd57600080fd5b92506113eb6040860161131c565b91506113a16060860161131c565b6000806000806080858703121561140f57600080fd5b6114188561131c565b93506113dd6020860161131c565b6000806000806080858703121561143c57600080fd5b84359350602085013561144e81611353565b93969395505050506040820135916060013590565b6000806040838503121561147657600080fd5b82356003811061148557600080fd5b91506114936020840161131c565b90509250929050565b6000806000806000806000806000806101408b8d0312156114bc57600080fd5b8a35995060208b0135985060408b0135975060608b0135965060808b0135955060a08b0135945060c08b0135935060e08b01356114f881611353565b92506115076101008c0161131c565b91506115166101208c0161131c565b90509295989b9194979a5092959850565b60006020828403121561153957600080fd5b5035919050565b60008060006060848603121561155557600080fd5b833592506020840135915061156c6040850161131c565b90509250925092565b60008060006060848603121561158a57600080fd5b83356005811061159957600080fd5b92506020840135915061156c6040850161131c565b600080604083850312156115c157600080fd5b6115ca8361131c565b946020939093013593505050565b600080604083850312156115eb57600080fd5b823591506114936020840161131c565b634e487b7160e01b600052603260045260246000fd5b634e487b7160e01b600052602160045260246000fd5b60006020828403121561163957600080fd5b5051919050565b60007fffffffffffffffffffffffffffffffffffffffffffffffffffffffffffffffff82141561168057634e487b7160e01b600052601160045260246000fd5b5060010190565b60006020828403121561169957600080fd5b8151610ec981611353565b60005b838110156116bf5781810151838201526020016116a7565b83811115610c195750506000910152565b600082516116e28184602087016116a4565b9190910192915050565b602081526000825180602084015261170b8160408501602087016116a4565b601f017fffffffffffffffffffffffffffffffffffffffffffffffffffffffffffffffe016919091016040019291505056fea2646970667358221220ebf5c3c667f62801b97d5197287e9453f6536b4f59f314fc4aa275a85b60183664736f6c634300080a0033",
  "devdoc": {
    "kind": "dev",
    "methods": {
      "addRecipient(address,uint256)": {
        "params": {
          "_recipient": "address",
          "_rewardRate": "uint"
        }
      },
      "recoverLostToken(address)": {
        "returns": {
          "_0": "bool"
        }
      },
      "removeRecipient(uint256,address)": {
        "params": {
          "_index": "uint",
          "_recipient": "address"
        }
      },
      "setAdjustment(uint256,bool,uint256,uint256)": {
        "params": {
          "_add": "bool",
          "_index": "uint",
          "_rate": "uint",
          "_target": "uint"
        }
      },
      "setBondTerms(uint8,uint256,address)": {
        "params": {
          "_input": "uint",
          "_parameter": "PARAMETER"
        }
      },
      "setContract(uint8,address)": {
        "params": {
          "_contract": "address"
        }
      },
      "setWarmup(uint256)": {
        "params": {
          "_warmupPeriod": "uint"
        }
      }
    },
    "version": 1
  },
  "userdoc": {
    "kind": "user",
    "methods": {
      "addRecipient(address,uint256)": {
        "notice": "adds recipient for distributions"
      },
      "initializeBondTerms(uint256,uint256,uint256,uint256,uint256,uint256,uint256,bool,address,address)": {
        "notice": "initializes bond parameters"
      },
      "recoverLostToken(address)": {
        "notice": "allow anyone to send lost tokens (excluding principle or Necc) to the DAO"
      },
      "removeRecipient(uint256,address)": {
        "notice": "removes recipient for distributions"
      },
      "setAdjustment(uint256,bool,uint256,uint256)": {
        "notice": "set adjustment info for a collector's reward rate"
      },
      "setBondTerms(uint8,uint256,address)": {
        "notice": "set parameters for new bonds"
      },
      "setContract(uint8,address)": {
        "notice": "sets the contract address for LP staking"
      },
      "setWarmup(uint256)": {
        "notice": "set warmup period in epoch's numbers for new stakers"
      },
      "toggleDepositLock(address)": {
        "notice": "prevent new deposits to address (protection from malicious activity)"
      }
    },
    "version": 1
  },
  "storageLayout": {
    "storage": [
      {
        "astId": 6974,
        "contract": "contracts/facets/Bond/BondConfigFacet.sol:BondConfigFacet",
        "label": "s",
        "offset": 0,
        "slot": "0",
        "type": "t_struct(Storage)20669_storage"
      }
    ],
    "types": {
      "t_address": {
        "encoding": "inplace",
        "label": "address",
        "numberOfBytes": "20"
      },
      "t_array(t_bytes32)dyn_storage": {
        "base": "t_bytes32",
        "encoding": "dynamic_array",
        "label": "bytes32[]",
        "numberOfBytes": "32"
      },
      "t_array(t_struct(Info)20519_storage)dyn_storage": {
        "base": "t_struct(Info)20519_storage",
        "encoding": "dynamic_array",
        "label": "struct LibBondStorage.Info[]",
        "numberOfBytes": "32"
      },
      "t_array(t_struct(Payout)20514_storage)dyn_storage": {
        "base": "t_struct(Payout)20514_storage",
        "encoding": "dynamic_array",
        "label": "struct LibBondStorage.Payout[]",
        "numberOfBytes": "32"
      },
      "t_bool": {
        "encoding": "inplace",
        "label": "bool",
        "numberOfBytes": "1"
      },
      "t_bytes32": {
        "encoding": "inplace",
        "label": "bytes32",
        "numberOfBytes": "32"
      },
      "t_mapping(t_address,t_mapping(t_uint256,t_struct(Bond)20550_storage))": {
        "encoding": "mapping",
        "key": "t_address",
        "label": "mapping(address => mapping(uint256 => struct LibBondStorage.Bond))",
        "numberOfBytes": "32",
        "value": "t_mapping(t_uint256,t_struct(Bond)20550_storage)"
      },
      "t_mapping(t_address,t_struct(Claim)20577_storage)": {
        "encoding": "mapping",
        "key": "t_address",
        "label": "mapping(address => struct LibBondStorage.Claim)",
        "numberOfBytes": "32",
        "value": "t_struct(Claim)20577_storage"
      },
      "t_mapping(t_address,t_uint256)": {
        "encoding": "mapping",
        "key": "t_address",
        "label": "mapping(address => uint256)",
        "numberOfBytes": "32",
        "value": "t_uint256"
      },
      "t_mapping(t_bytes32,t_uint256)": {
        "encoding": "mapping",
        "key": "t_bytes32",
        "label": "mapping(bytes32 => uint256)",
        "numberOfBytes": "32",
        "value": "t_uint256"
      },
      "t_mapping(t_uint256,t_address)": {
        "encoding": "mapping",
        "key": "t_uint256",
        "label": "mapping(uint256 => address)",
        "numberOfBytes": "32",
        "value": "t_address"
      },
      "t_mapping(t_uint256,t_array(t_struct(Payout)20514_storage)dyn_storage)": {
        "encoding": "mapping",
        "key": "t_uint256",
        "label": "mapping(uint256 => struct LibBondStorage.Payout[])",
        "numberOfBytes": "32",
        "value": "t_array(t_struct(Payout)20514_storage)dyn_storage"
      },
      "t_mapping(t_uint256,t_struct(Bond)20550_storage)": {
        "encoding": "mapping",
        "key": "t_uint256",
        "label": "mapping(uint256 => struct LibBondStorage.Bond)",
        "numberOfBytes": "32",
        "value": "t_struct(Bond)20550_storage"
      },
      "t_mapping(t_uint256,t_struct(BondDepositoryAdjustment)20559_storage)": {
        "encoding": "mapping",
        "key": "t_uint256",
        "label": "mapping(uint256 => struct LibBondStorage.BondDepositoryAdjustment)",
        "numberOfBytes": "32",
        "value": "t_struct(BondDepositoryAdjustment)20559_storage"
      },
      "t_mapping(t_uint256,t_struct(DistributorAdjustment)20526_storage)": {
        "encoding": "mapping",
        "key": "t_uint256",
        "label": "mapping(uint256 => struct LibBondStorage.DistributorAdjustment)",
        "numberOfBytes": "32",
        "value": "t_struct(DistributorAdjustment)20526_storage"
      },
      "t_mapping(t_uint256,t_struct(Terms)20541_storage)": {
        "encoding": "mapping",
        "key": "t_uint256",
        "label": "mapping(uint256 => struct LibBondStorage.Terms)",
        "numberOfBytes": "32",
        "value": "t_struct(Terms)20541_storage"
      },
      "t_mapping(t_uint256,t_uint256)": {
        "encoding": "mapping",
        "key": "t_uint256",
        "label": "mapping(uint256 => uint256)",
        "numberOfBytes": "32",
        "value": "t_uint256"
      },
      "t_struct(AddressSet)1348_storage": {
        "encoding": "inplace",
        "label": "struct EnumerableSet.AddressSet",
        "members": [
          {
            "astId": 1347,
            "contract": "contracts/facets/Bond/BondConfigFacet.sol:BondConfigFacet",
            "label": "_inner",
            "offset": 0,
            "slot": "0",
            "type": "t_struct(Set)1047_storage"
          }
        ],
        "numberOfBytes": "64"
      },
      "t_struct(Bond)20550_storage": {
        "encoding": "inplace",
        "label": "struct LibBondStorage.Bond",
        "members": [
          {
            "astId": 20543,
            "contract": "contracts/facets/Bond/BondConfigFacet.sol:BondConfigFacet",
            "label": "payout",
            "offset": 0,
            "slot": "0",
            "type": "t_uint256"
          },
          {
            "astId": 20545,
            "contract": "contracts/facets/Bond/BondConfigFacet.sol:BondConfigFacet",
            "label": "pricePaid",
            "offset": 0,
            "slot": "1",
            "type": "t_uint256"
          },
          {
            "astId": 20547,
            "contract": "contracts/facets/Bond/BondConfigFacet.sol:BondConfigFacet",
            "label": "lastTime",
            "offset": 0,
            "slot": "2",
            "type": "t_uint256"
          },
          {
            "astId": 20549,
            "contract": "contracts/facets/Bond/BondConfigFacet.sol:BondConfigFacet",
            "label": "vesting",
            "offset": 0,
            "slot": "3",
            "type": "t_uint256"
          }
        ],
        "numberOfBytes": "128"
      },
      "t_struct(BondDepositoryAdjustment)20559_storage": {
        "encoding": "inplace",
        "label": "struct LibBondStorage.BondDepositoryAdjustment",
        "members": [
          {
            "astId": 20552,
            "contract": "contracts/facets/Bond/BondConfigFacet.sol:BondConfigFacet",
            "label": "add",
            "offset": 0,
            "slot": "0",
            "type": "t_bool"
          },
          {
            "astId": 20554,
            "contract": "contracts/facets/Bond/BondConfigFacet.sol:BondConfigFacet",
            "label": "delta",
            "offset": 0,
            "slot": "1",
            "type": "t_uint256"
          },
          {
            "astId": 20556,
            "contract": "contracts/facets/Bond/BondConfigFacet.sol:BondConfigFacet",
            "label": "timeToTarget",
            "offset": 0,
            "slot": "2",
            "type": "t_uint256"
          },
          {
            "astId": 20558,
            "contract": "contracts/facets/Bond/BondConfigFacet.sol:BondConfigFacet",
            "label": "lastTime",
            "offset": 0,
            "slot": "3",
            "type": "t_uint256"
          }
        ],
        "numberOfBytes": "128"
      },
      "t_struct(Claim)20577_storage": {
        "encoding": "inplace",
        "label": "struct LibBondStorage.Claim",
        "members": [
          {
            "astId": 20570,
            "contract": "contracts/facets/Bond/BondConfigFacet.sol:BondConfigFacet",
            "label": "deposit",
            "offset": 0,
            "slot": "0",
            "type": "t_uint256"
          },
          {
            "astId": 20572,
            "contract": "contracts/facets/Bond/BondConfigFacet.sol:BondConfigFacet",
            "label": "gons",
            "offset": 0,
            "slot": "1",
            "type": "t_uint256"
          },
          {
            "astId": 20574,
            "contract": "contracts/facets/Bond/BondConfigFacet.sol:BondConfigFacet",
            "label": "expiry",
            "offset": 0,
            "slot": "2",
            "type": "t_uint256"
          },
          {
            "astId": 20576,
            "contract": "contracts/facets/Bond/BondConfigFacet.sol:BondConfigFacet",
            "label": "lock",
            "offset": 0,
            "slot": "3",
            "type": "t_bool"
          }
        ],
        "numberOfBytes": "128"
      },
      "t_struct(DistributorAdjustment)20526_storage": {
        "encoding": "inplace",
        "label": "struct LibBondStorage.DistributorAdjustment",
        "members": [
          {
            "astId": 20521,
            "contract": "contracts/facets/Bond/BondConfigFacet.sol:BondConfigFacet",
            "label": "add",
            "offset": 0,
            "slot": "0",
            "type": "t_bool"
          },
          {
            "astId": 20523,
            "contract": "contracts/facets/Bond/BondConfigFacet.sol:BondConfigFacet",
            "label": "rate",
            "offset": 0,
            "slot": "1",
            "type": "t_uint256"
          },
          {
            "astId": 20525,
            "contract": "contracts/facets/Bond/BondConfigFacet.sol:BondConfigFacet",
            "label": "target",
            "offset": 0,
            "slot": "2",
            "type": "t_uint256"
          }
        ],
        "numberOfBytes": "96"
      },
      "t_struct(Epoch)20568_storage": {
        "encoding": "inplace",
        "label": "struct LibBondStorage.Epoch",
        "members": [
          {
            "astId": 20561,
            "contract": "contracts/facets/Bond/BondConfigFacet.sol:BondConfigFacet",
            "label": "number",
            "offset": 0,
            "slot": "0",
            "type": "t_uint256"
          },
          {
            "astId": 20563,
            "contract": "contracts/facets/Bond/BondConfigFacet.sol:BondConfigFacet",
            "label": "distribute",
            "offset": 0,
            "slot": "1",
            "type": "t_uint256"
          },
          {
            "astId": 20565,
            "contract": "contracts/facets/Bond/BondConfigFacet.sol:BondConfigFacet",
            "label": "length",
            "offset": 0,
            "slot": "2",
            "type": "t_uint256"
          },
          {
            "astId": 20567,
            "contract": "contracts/facets/Bond/BondConfigFacet.sol:BondConfigFacet",
            "label": "endTime",
            "offset": 0,
            "slot": "3",
            "type": "t_uint256"
          }
        ],
        "numberOfBytes": "128"
      },
      "t_struct(Info)20519_storage": {
        "encoding": "inplace",
        "label": "struct LibBondStorage.Info",
        "members": [
          {
            "astId": 20516,
            "contract": "contracts/facets/Bond/BondConfigFacet.sol:BondConfigFacet",
            "label": "rate",
            "offset": 0,
            "slot": "0",
            "type": "t_uint256"
          },
          {
            "astId": 20518,
            "contract": "contracts/facets/Bond/BondConfigFacet.sol:BondConfigFacet",
            "label": "recipient",
            "offset": 0,
            "slot": "1",
            "type": "t_address"
          }
        ],
        "numberOfBytes": "64"
      },
      "t_struct(Payout)20514_storage": {
        "encoding": "inplace",
        "label": "struct LibBondStorage.Payout",
        "members": [
          {
            "astId": 20511,
            "contract": "contracts/facets/Bond/BondConfigFacet.sol:BondConfigFacet",
            "label": "amount",
            "offset": 0,
            "slot": "0",
            "type": "t_uint256"
          },
          {
            "astId": 20513,
            "contract": "contracts/facets/Bond/BondConfigFacet.sol:BondConfigFacet",
            "label": "blockTimestamp",
            "offset": 0,
            "slot": "1",
            "type": "t_uint256"
          }
        ],
        "numberOfBytes": "64"
      },
      "t_struct(Set)1047_storage": {
        "encoding": "inplace",
        "label": "struct EnumerableSet.Set",
        "members": [
          {
            "astId": 1042,
            "contract": "contracts/facets/Bond/BondConfigFacet.sol:BondConfigFacet",
            "label": "_values",
            "offset": 0,
            "slot": "0",
            "type": "t_array(t_bytes32)dyn_storage"
          },
          {
            "astId": 1046,
            "contract": "contracts/facets/Bond/BondConfigFacet.sol:BondConfigFacet",
            "label": "_indexes",
            "offset": 0,
            "slot": "1",
            "type": "t_mapping(t_bytes32,t_uint256)"
          }
        ],
        "numberOfBytes": "64"
      },
      "t_struct(Storage)20669_storage": {
        "encoding": "inplace",
        "label": "struct LibBondStorage.Storage",
        "members": [
          {
            "astId": 20579,
            "contract": "contracts/facets/Bond/BondConfigFacet.sol:BondConfigFacet",
            "label": "Necc",
            "offset": 0,
            "slot": "0",
            "type": "t_address"
          },
          {
            "astId": 20581,
            "contract": "contracts/facets/Bond/BondConfigFacet.sol:BondConfigFacet",
            "label": "sNecc",
            "offset": 0,
            "slot": "1",
            "type": "t_address"
          },
          {
            "astId": 20583,
            "contract": "contracts/facets/Bond/BondConfigFacet.sol:BondConfigFacet",
            "label": "nNecc",
            "offset": 0,
            "slot": "2",
            "type": "t_address"
          },
          {
            "astId": 20585,
            "contract": "contracts/facets/Bond/BondConfigFacet.sol:BondConfigFacet",
            "label": "ndol",
            "offset": 0,
            "slot": "3",
            "type": "t_address"
          },
          {
            "astId": 20587,
            "contract": "contracts/facets/Bond/BondConfigFacet.sol:BondConfigFacet",
            "label": "treasury",
            "offset": 0,
            "slot": "4",
            "type": "t_address"
          },
          {
            "astId": 20589,
            "contract": "contracts/facets/Bond/BondConfigFacet.sol:BondConfigFacet",
            "label": "DAO",
            "offset": 0,
            "slot": "5",
            "type": "t_address"
          },
          {
            "astId": 20591,
            "contract": "contracts/facets/Bond/BondConfigFacet.sol:BondConfigFacet",
            "label": "farmDistributor",
            "offset": 0,
            "slot": "6",
            "type": "t_address"
          },
          {
            "astId": 20593,
            "contract": "contracts/facets/Bond/BondConfigFacet.sol:BondConfigFacet",
            "label": "staking",
            "offset": 0,
            "slot": "7",
            "type": "t_address"
          },
          {
            "astId": 20596,
            "contract": "contracts/facets/Bond/BondConfigFacet.sol:BondConfigFacet",
            "label": "principles",
            "offset": 0,
            "slot": "8",
            "type": "t_struct(AddressSet)1348_storage"
          },
          {
            "astId": 20601,
            "contract": "contracts/facets/Bond/BondConfigFacet.sol:BondConfigFacet",
            "label": "terms",
            "offset": 0,
            "slot": "10",
            "type": "t_mapping(t_uint256,t_struct(Terms)20541_storage)"
          },
          {
            "astId": 20606,
            "contract": "contracts/facets/Bond/BondConfigFacet.sol:BondConfigFacet",
            "label": "bondDepositoryAdjustment",
            "offset": 0,
            "slot": "11",
            "type": "t_mapping(t_uint256,t_struct(BondDepositoryAdjustment)20559_storage)"
          },
          {
            "astId": 20613,
            "contract": "contracts/facets/Bond/BondConfigFacet.sol:BondConfigFacet",
            "label": "bondInfo",
            "offset": 0,
            "slot": "12",
            "type": "t_mapping(t_address,t_mapping(t_uint256,t_struct(Bond)20550_storage))"
          },
          {
            "astId": 20617,
            "contract": "contracts/facets/Bond/BondConfigFacet.sol:BondConfigFacet",
            "label": "totalDebt",
            "offset": 0,
            "slot": "13",
            "type": "t_mapping(t_uint256,t_uint256)"
          },
          {
            "astId": 20621,
            "contract": "contracts/facets/Bond/BondConfigFacet.sol:BondConfigFacet",
            "label": "lastDecay",
            "offset": 0,
            "slot": "14",
            "type": "t_mapping(t_uint256,t_uint256)"
          },
          {
            "astId": 20625,
            "contract": "contracts/facets/Bond/BondConfigFacet.sol:BondConfigFacet",
            "label": "nextEpochTimestamp",
            "offset": 0,
            "slot": "15",
            "type": "t_mapping(t_uint256,t_uint256)"
          },
          {
            "astId": 20629,
            "contract": "contracts/facets/Bond/BondConfigFacet.sol:BondConfigFacet",
            "label": "priceFeeds",
            "offset": 0,
            "slot": "16",
            "type": "t_mapping(t_uint256,t_address)"
          },
          {
            "astId": 20633,
            "contract": "contracts/facets/Bond/BondConfigFacet.sol:BondConfigFacet",
            "label": "info",
            "offset": 0,
            "slot": "17",
            "type": "t_array(t_struct(Info)20519_storage)dyn_storage"
          },
          {
            "astId": 20638,
            "contract": "contracts/facets/Bond/BondConfigFacet.sol:BondConfigFacet",
            "label": "distributorAdjustments",
            "offset": 0,
            "slot": "18",
            "type": "t_mapping(t_uint256,t_struct(DistributorAdjustment)20526_storage)"
          },
          {
            "astId": 20641,
            "contract": "contracts/facets/Bond/BondConfigFacet.sol:BondConfigFacet",
            "label": "epoch",
            "offset": 0,
            "slot": "19",
            "type": "t_struct(Epoch)20568_storage"
          },
          {
            "astId": 20643,
            "contract": "contracts/facets/Bond/BondConfigFacet.sol:BondConfigFacet",
            "label": "epochLength",
            "offset": 0,
            "slot": "23",
            "type": "t_uint256"
          },
          {
            "astId": 20645,
            "contract": "contracts/facets/Bond/BondConfigFacet.sol:BondConfigFacet",
            "label": "distributor",
            "offset": 0,
            "slot": "24",
            "type": "t_address"
          },
          {
            "astId": 20647,
            "contract": "contracts/facets/Bond/BondConfigFacet.sol:BondConfigFacet",
            "label": "locker",
            "offset": 0,
            "slot": "25",
            "type": "t_address"
          },
          {
            "astId": 20649,
            "contract": "contracts/facets/Bond/BondConfigFacet.sol:BondConfigFacet",
            "label": "warmupPeriod",
            "offset": 0,
            "slot": "26",
            "type": "t_uint256"
          },
          {
            "astId": 20654,
            "contract": "contracts/facets/Bond/BondConfigFacet.sol:BondConfigFacet",
            "label": "warmupInfo",
            "offset": 0,
            "slot": "27",
            "type": "t_mapping(t_address,t_struct(Claim)20577_storage)"
          },
          {
            "astId": 20656,
            "contract": "contracts/facets/Bond/BondConfigFacet.sol:BondConfigFacet",
            "label": "targetSum",
            "offset": 0,
            "slot": "28",
            "type": "t_uint256"
          },
          {
            "astId": 20662,
            "contract": "contracts/facets/Bond/BondConfigFacet.sol:BondConfigFacet",
            "label": "payouts",
            "offset": 0,
            "slot": "29",
            "type": "t_mapping(t_uint256,t_array(t_struct(Payout)20514_storage)dyn_storage)"
          },
          {
            "astId": 20664,
            "contract": "contracts/facets/Bond/BondConfigFacet.sol:BondConfigFacet",
            "label": "gonsInWarmup",
            "offset": 0,
            "slot": "30",
            "type": "t_uint256"
          },
          {
            "astId": 20668,
            "contract": "contracts/facets/Bond/BondConfigFacet.sol:BondConfigFacet",
            "label": "bondFees",
            "offset": 0,
            "slot": "31",
            "type": "t_mapping(t_address,t_uint256)"
          }
        ],
        "numberOfBytes": "1024"
      },
      "t_struct(Terms)20541_storage": {
        "encoding": "inplace",
        "label": "struct LibBondStorage.Terms",
        "members": [
          {
            "astId": 20528,
            "contract": "contracts/facets/Bond/BondConfigFacet.sol:BondConfigFacet",
            "label": "controlVariable",
            "offset": 0,
            "slot": "0",
            "type": "t_uint256"
          },
          {
            "astId": 20530,
            "contract": "contracts/facets/Bond/BondConfigFacet.sol:BondConfigFacet",
            "label": "minimumPrice",
            "offset": 0,
            "slot": "1",
            "type": "t_uint256"
          },
          {
            "astId": 20532,
            "contract": "contracts/facets/Bond/BondConfigFacet.sol:BondConfigFacet",
            "label": "maxPayout",
            "offset": 0,
            "slot": "2",
            "type": "t_uint256"
          },
          {
            "astId": 20534,
            "contract": "contracts/facets/Bond/BondConfigFacet.sol:BondConfigFacet",
            "label": "fee",
            "offset": 0,
            "slot": "3",
            "type": "t_uint256"
          },
          {
            "astId": 20536,
            "contract": "contracts/facets/Bond/BondConfigFacet.sol:BondConfigFacet",
            "label": "maxDebt",
            "offset": 0,
            "slot": "4",
            "type": "t_uint256"
          },
          {
            "astId": 20538,
            "contract": "contracts/facets/Bond/BondConfigFacet.sol:BondConfigFacet",
            "label": "vestingTerm",
            "offset": 0,
            "slot": "5",
            "type": "t_uint256"
          },
          {
            "astId": 20540,
            "contract": "contracts/facets/Bond/BondConfigFacet.sol:BondConfigFacet",
            "label": "isLiquidityBond",
            "offset": 0,
            "slot": "6",
            "type": "t_bool"
          }
        ],
        "numberOfBytes": "224"
      },
      "t_uint256": {
        "encoding": "inplace",
        "label": "uint256",
        "numberOfBytes": "32"
      }
    }
  }
}