{
  "address": "0xafAC19EbC8ca796f12ff93bd56fA27161663a594",
  "abi": [
    {
      "inputs": [
        {
          "internalType": "address",
          "name": "_pair",
          "type": "address"
        }
      ],
      "name": "getKValue",
      "outputs": [
        {
          "internalType": "uint256",
          "name": "k_",
          "type": "uint256"
        }
      ],
      "stateMutability": "view",
      "type": "function"
    },
    {
      "inputs": [
        {
          "internalType": "address",
          "name": "_pair",
          "type": "address"
        }
      ],
      "name": "getTotalValue",
      "outputs": [
        {
          "internalType": "uint256",
          "name": "_value",
          "type": "uint256"
        }
      ],
      "stateMutability": "view",
      "type": "function"
    },
    {
      "inputs": [
        {
          "internalType": "address",
          "name": "_pair",
          "type": "address"
        }
      ],
      "name": "markdown",
      "outputs": [
        {
          "internalType": "uint256",
          "name": "",
          "type": "uint256"
        }
      ],
      "stateMutability": "view",
      "type": "function"
    },
    {
      "inputs": [
        {
          "internalType": "address",
          "name": "_pair",
          "type": "address"
        },
        {
          "internalType": "uint256",
          "name": "amount_",
          "type": "uint256"
        }
      ],
      "name": "valuation",
      "outputs": [
        {
          "internalType": "uint256",
          "name": "_value",
          "type": "uint256"
        }
      ],
      "stateMutability": "view",
      "type": "function"
    }
  ],
  "transactionHash": "0x7eace3794cdf8d29e9ca569558d1d53a94bc1e82ed78f6a9d9145ce22a6e631f",
  "args": [],
  "solcInputHash": "1e1d71d1d35658663bd84c1a8a77fb39",
  "bytecode": "0x608060405234801561001057600080fd5b506110cc806100206000396000f3fe608060405234801561001057600080fd5b506004361061004c5760003560e01c806332da80a3146100515780634249719f14610076578063490084ef14610089578063686375491461009c575b600080fd5b61006461005f366004610d80565b6100af565b60405190815260200160405180910390f35b610064610084366004610d9d565b610385565b610064610097366004610d80565b610421565b6100646100aa366004610d80565b6106d2565b6000806000836001600160a01b0316630902f1ac6040518163ffffffff1660e01b8152600401606060405180830381865afa1580156100f2573d6000803e3d6000fd5b505050506040513d601f19601f820116820180604052508101906101169190610de7565b506dffffffffffffffffffffffffffff1691506dffffffffffffffffffffffffffff16915060008060020160009054906101000a90046001600160a01b03166001600160a01b0316856001600160a01b0316630dfe16816040518163ffffffff1660e01b8152600401602060405180830381865afa15801561019c573d6000803e3d6000fd5b505050506040513d601f19601f820116820180604052508101906101c09190610e37565b6001600160a01b031614156101d65750806102bd565b600254604080517fd21220a700000000000000000000000000000000000000000000000000000000815290516001600160a01b039283169288169163d21220a79160048083019260209291908290030181865afa15801561023b573d6000803e3d6000fd5b505050506040513d601f19601f8201168201806040525081019061025f9190610e37565b6001600160a01b0316146102ba5760405162461bcd60e51b815260206004820152600c60248201527f496e76616c69642070616972000000000000000000000000000000000000000060448201526064015b60405180910390fd5b50815b61037c633b9aca006103766102d1886106d2565b600254604080517f313ce5670000000000000000000000000000000000000000000000000000000081529051610376926001600160a01b03169163313ce5679160048083019260209291908290030181865afa158015610335573d6000803e3d6000fd5b505050506040513d601f19601f820116820180604052508101906103599190610e54565b61036490600a610f69565b61036f906002610f78565b86906106f6565b90610798565b95945050505050565b600080610391846106d2565b90506000846001600160a01b03166318160ddd6040518163ffffffff1660e01b8152600401602060405180830381865afa1580156103d3573d6000803e3d6000fd5b505050506040513d601f19601f820116820180604052508101906103f79190610f97565b905061037c670de0b6b3a764000061037661041a61041588866107da565b610961565b85906106f6565b600080826001600160a01b0316630dfe16816040518163ffffffff1660e01b8152600401602060405180830381865afa158015610462573d6000803e3d6000fd5b505050506040513d601f19601f820116820180604052508101906104869190610e37565b6001600160a01b031663313ce5676040518163ffffffff1660e01b8152600401602060405180830381865afa1580156104c3573d6000803e3d6000fd5b505050506040513d601f19601f820116820180604052508101906104e79190610e54565b60ff1690506000836001600160a01b031663d21220a76040518163ffffffff1660e01b8152600401602060405180830381865afa15801561052c573d6000803e3d6000fd5b505050506040513d601f19601f820116820180604052508101906105509190610e37565b6001600160a01b031663313ce5676040518163ffffffff1660e01b8152600401602060405180830381865afa15801561058d573d6000803e3d6000fd5b505050506040513d601f19601f820116820180604052508101906105b19190610e54565b60ff1690506000610630856001600160a01b031663313ce5676040518163ffffffff1660e01b8152600401602060405180830381865afa1580156105f9573d6000803e3d6000fd5b505050506040513d601f19601f8201168201806040525081019061061d9190610e54565b60ff1661062a8585610996565b906109f5565b9050600080866001600160a01b0316630902f1ac6040518163ffffffff1660e01b8152600401606060405180830381865afa158015610673573d6000803e3d6000fd5b505050506040513d601f19601f820116820180604052508101906106979190610de7565b506dffffffffffffffffffffffffffff91821693501690506106c76106bd84600a610fb0565b61037684846106f6565b979650505050505050565b60006106f060026106ea6106e585610421565b610a37565b906106f6565b92915050565b600082610705575060006106f0565b60006107118385610f78565b90508261071e8583610fd2565b146107915760405162461bcd60e51b815260206004820152602160248201527f536166654d6174683a206d756c7469706c69636174696f6e206f766572666c6f60448201527f770000000000000000000000000000000000000000000000000000000000000060648201526084016102b1565b9392505050565b600061079183836040518060400160405280601a81526020017f536166654d6174683a206469766973696f6e206279207a65726f000000000000815250610aa2565b6040805160208101909152600081526000821161085f5760405162461bcd60e51b815260206004820152602660248201527f4669786564506f696e743a3a6672616374696f6e3a206469766973696f6e206260448201527f79207a65726f000000000000000000000000000000000000000000000000000060648201526084016102b1565b8261087957506040805160208101909152600081526106f0565b71ffffffffffffffffffffffffffffffffffff83116109455760006108a283607086901b610fd2565b90507bffffffffffffffffffffffffffffffffffffffffffffffffffffffff8111156109105760405162461bcd60e51b815260206004820152601e60248201527f4669786564506f696e743a3a6672616374696f6e3a206f766572666c6f77000060448201526064016102b1565b6040518060200160405280827bffffffffffffffffffffffffffffffffffffffffffffffffffffffff168152509150506106f0565b60006108a2846e01000000000000000000000000000085610ad0565b80516000906106f0906612725dd1d243ab907bffffffffffffffffffffffffffffffffffffffffffffffffffffffff16610fd2565b6000806109a38385610ff4565b9050838110156107915760405162461bcd60e51b815260206004820152601b60248201527f536166654d6174683a206164646974696f6e206f766572666c6f77000000000060448201526064016102b1565b600061079183836040518060400160405280601e81526020017f536166654d6174683a207375627472616374696f6e206f766572666c6f770000815250610b74565b60006003821115610a935750806000610a5b610a54836002610798565b6001610996565b90505b81811015610a8d57809150610a86610a7f610a798584610798565b83610996565b6002610798565b9050610a5e565b50919050565b8115610a9d575060015b919050565b60008183610ac35760405162461bcd60e51b81526004016102b1919061100c565b50600061037c8486610fd2565b6000806000610adf8686610ba5565b9150915060008480610af357610af3610fbc565b868809905082811115610b0e57610b0b60018361107f565b91505b610b18818461107f565b9250848210610b695760405162461bcd60e51b815260206004820152601a60248201527f46756c6c4d6174683a3a6d756c4469763a206f766572666c6f7700000000000060448201526064016102b1565b6106c7838387610be7565b60008184841115610b985760405162461bcd60e51b81526004016102b1919061100c565b50600061037c848661107f565b600080806000198486099050610bbb8486610f78565b9250610bc7838261107f565b915082811015610bdf57610bdc60018361107f565b91505b509250929050565b600080610bf683196001610ff4565b83169050610c048184610fd2565b9250610c108186610fd2565b945080610c1f81196001610ff4565b610c299190610fd2565b610c34906001610ff4565b610c3e9085610f78565b610c489086610ff4565b94506001610c568185610f78565b610c6190600261107f565b610c6b9082610f78565b9050610c778185610f78565b610c8290600261107f565b610c8c9082610f78565b9050610c988185610f78565b610ca390600261107f565b610cad9082610f78565b9050610cb98185610f78565b610cc490600261107f565b610cce9082610f78565b9050610cda8185610f78565b610ce590600261107f565b610cef9082610f78565b9050610cfb8185610f78565b610d0690600261107f565b610d109082610f78565b9050610d1c8185610f78565b610d2790600261107f565b610d319082610f78565b9050610d3d8185610f78565b610d4890600261107f565b610d529082610f78565b9050610d5e8187610f78565b9695505050505050565b6001600160a01b0381168114610d7d57600080fd5b50565b600060208284031215610d9257600080fd5b813561079181610d68565b60008060408385031215610db057600080fd5b8235610dbb81610d68565b946020939093013593505050565b80516dffffffffffffffffffffffffffff81168114610a9d57600080fd5b600080600060608486031215610dfc57600080fd5b610e0584610dc9565b9250610e1360208501610dc9565b9150604084015163ffffffff81168114610e2c57600080fd5b809150509250925092565b600060208284031215610e4957600080fd5b815161079181610d68565b600060208284031215610e6657600080fd5b815160ff8116811461079157600080fd5b634e487b7160e01b600052601160045260246000fd5b600181815b80851115610bdf578160001904821115610eae57610eae610e77565b80851615610ebb57918102915b93841c9390800290610e92565b600082610ed7575060016106f0565b81610ee4575060006106f0565b8160018114610efa5760028114610f0457610f20565b60019150506106f0565b60ff841115610f1557610f15610e77565b50506001821b6106f0565b5060208310610133831016604e8410600b8410161715610f43575081810a6106f0565b610f4d8383610e8d565b8060001904821115610f6157610f61610e77565b029392505050565b600061079160ff841683610ec8565b6000816000190483118215151615610f9257610f92610e77565b500290565b600060208284031215610fa957600080fd5b5051919050565b60006107918383610ec8565b634e487b7160e01b600052601260045260246000fd5b600082610fef57634e487b7160e01b600052601260045260246000fd5b500490565b6000821982111561100757611007610e77565b500190565b600060208083528351808285015260005b818110156110395785810183015185820160400152820161101d565b8181111561104b576000604083870101525b50601f017fffffffffffffffffffffffffffffffffffffffffffffffffffffffffffffffe016929092016040019392505050565b60008282101561109157611091610e77565b50039056fea264697066735822122049364043efc5e545c2ee5e1185d44273e9f6860af4ad97f8c991c77e300f6c0f64736f6c634300080a0033",
  "devdoc": {
    "kind": "dev",
    "methods": {},
    "version": 1
  },
  "userdoc": {
    "kind": "user",
    "methods": {},
    "version": 1
  },
  "storageLayout": {
    "storage": [
      {
        "astId": 10528,
        "contract": "contracts/facets/Treasury/BondingCalculatorFacet.sol:BondingCalculatorFacet",
        "label": "s",
        "offset": 0,
        "slot": "0",
        "type": "t_struct(Storage)21498_storage"
      }
    ],
    "types": {
      "t_address": {
        "encoding": "inplace",
        "label": "address",
        "numberOfBytes": "20"
      },
      "t_array(t_address)dyn_storage": {
        "base": "t_address",
        "encoding": "dynamic_array",
        "label": "address[]",
        "numberOfBytes": "32"
      },
      "t_bool": {
        "encoding": "inplace",
        "label": "bool",
        "numberOfBytes": "1"
      },
      "t_mapping(t_address,t_bool)": {
        "encoding": "mapping",
        "key": "t_address",
        "label": "mapping(address => bool)",
        "numberOfBytes": "32",
        "value": "t_bool"
      },
      "t_mapping(t_address,t_uint256)": {
        "encoding": "mapping",
        "key": "t_address",
        "label": "mapping(address => uint256)",
        "numberOfBytes": "32",
        "value": "t_uint256"
      },
      "t_struct(Storage)21498_storage": {
        "encoding": "inplace",
        "label": "struct LibTreasuryStorage.Storage",
        "members": [
          {
            "astId": 21384,
            "contract": "contracts/facets/Treasury/BondingCalculatorFacet.sol:BondingCalculatorFacet",
            "label": "Necc",
            "offset": 0,
            "slot": "0",
            "type": "t_address"
          },
          {
            "astId": 21386,
            "contract": "contracts/facets/Treasury/BondingCalculatorFacet.sol:BondingCalculatorFacet",
            "label": "sNecc",
            "offset": 0,
            "slot": "1",
            "type": "t_address"
          },
          {
            "astId": 21388,
            "contract": "contracts/facets/Treasury/BondingCalculatorFacet.sol:BondingCalculatorFacet",
            "label": "nNecc",
            "offset": 0,
            "slot": "2",
            "type": "t_address"
          },
          {
            "astId": 21390,
            "contract": "contracts/facets/Treasury/BondingCalculatorFacet.sol:BondingCalculatorFacet",
            "label": "blocksNeededForQueue",
            "offset": 0,
            "slot": "3",
            "type": "t_uint256"
          },
          {
            "astId": 21393,
            "contract": "contracts/facets/Treasury/BondingCalculatorFacet.sol:BondingCalculatorFacet",
            "label": "reserveTokens",
            "offset": 0,
            "slot": "4",
            "type": "t_array(t_address)dyn_storage"
          },
          {
            "astId": 21395,
            "contract": "contracts/facets/Treasury/BondingCalculatorFacet.sol:BondingCalculatorFacet",
            "label": "sNeccQueue",
            "offset": 0,
            "slot": "5",
            "type": "t_uint256"
          },
          {
            "astId": 21397,
            "contract": "contracts/facets/Treasury/BondingCalculatorFacet.sol:BondingCalculatorFacet",
            "label": "totalReserves",
            "offset": 0,
            "slot": "6",
            "type": "t_uint256"
          },
          {
            "astId": 21399,
            "contract": "contracts/facets/Treasury/BondingCalculatorFacet.sol:BondingCalculatorFacet",
            "label": "totalDebt",
            "offset": 0,
            "slot": "7",
            "type": "t_uint256"
          },
          {
            "astId": 21401,
            "contract": "contracts/facets/Treasury/BondingCalculatorFacet.sol:BondingCalculatorFacet",
            "label": "neccDebt",
            "offset": 0,
            "slot": "8",
            "type": "t_uint256"
          },
          {
            "astId": 21405,
            "contract": "contracts/facets/Treasury/BondingCalculatorFacet.sol:BondingCalculatorFacet",
            "label": "isReserveToken",
            "offset": 0,
            "slot": "9",
            "type": "t_mapping(t_address,t_bool)"
          },
          {
            "astId": 21409,
            "contract": "contracts/facets/Treasury/BondingCalculatorFacet.sol:BondingCalculatorFacet",
            "label": "reserveTokenQueue",
            "offset": 0,
            "slot": "10",
            "type": "t_mapping(t_address,t_uint256)"
          },
          {
            "astId": 21412,
            "contract": "contracts/facets/Treasury/BondingCalculatorFacet.sol:BondingCalculatorFacet",
            "label": "reserveDepositors",
            "offset": 0,
            "slot": "11",
            "type": "t_array(t_address)dyn_storage"
          },
          {
            "astId": 21416,
            "contract": "contracts/facets/Treasury/BondingCalculatorFacet.sol:BondingCalculatorFacet",
            "label": "isReserveDepositor",
            "offset": 0,
            "slot": "12",
            "type": "t_mapping(t_address,t_bool)"
          },
          {
            "astId": 21420,
            "contract": "contracts/facets/Treasury/BondingCalculatorFacet.sol:BondingCalculatorFacet",
            "label": "reserveDepositorQueue",
            "offset": 0,
            "slot": "13",
            "type": "t_mapping(t_address,t_uint256)"
          },
          {
            "astId": 21423,
            "contract": "contracts/facets/Treasury/BondingCalculatorFacet.sol:BondingCalculatorFacet",
            "label": "reserveSpenders",
            "offset": 0,
            "slot": "14",
            "type": "t_array(t_address)dyn_storage"
          },
          {
            "astId": 21427,
            "contract": "contracts/facets/Treasury/BondingCalculatorFacet.sol:BondingCalculatorFacet",
            "label": "isReserveSpender",
            "offset": 0,
            "slot": "15",
            "type": "t_mapping(t_address,t_bool)"
          },
          {
            "astId": 21431,
            "contract": "contracts/facets/Treasury/BondingCalculatorFacet.sol:BondingCalculatorFacet",
            "label": "reserveSpenderQueue",
            "offset": 0,
            "slot": "16",
            "type": "t_mapping(t_address,t_uint256)"
          },
          {
            "astId": 21434,
            "contract": "contracts/facets/Treasury/BondingCalculatorFacet.sol:BondingCalculatorFacet",
            "label": "liquidityTokens",
            "offset": 0,
            "slot": "17",
            "type": "t_array(t_address)dyn_storage"
          },
          {
            "astId": 21438,
            "contract": "contracts/facets/Treasury/BondingCalculatorFacet.sol:BondingCalculatorFacet",
            "label": "isLiquidityToken",
            "offset": 0,
            "slot": "18",
            "type": "t_mapping(t_address,t_bool)"
          },
          {
            "astId": 21442,
            "contract": "contracts/facets/Treasury/BondingCalculatorFacet.sol:BondingCalculatorFacet",
            "label": "LiquidityTokenQueue",
            "offset": 0,
            "slot": "19",
            "type": "t_mapping(t_address,t_uint256)"
          },
          {
            "astId": 21445,
            "contract": "contracts/facets/Treasury/BondingCalculatorFacet.sol:BondingCalculatorFacet",
            "label": "liquidityDepositors",
            "offset": 0,
            "slot": "20",
            "type": "t_array(t_address)dyn_storage"
          },
          {
            "astId": 21449,
            "contract": "contracts/facets/Treasury/BondingCalculatorFacet.sol:BondingCalculatorFacet",
            "label": "isLiquidityDepositor",
            "offset": 0,
            "slot": "21",
            "type": "t_mapping(t_address,t_bool)"
          },
          {
            "astId": 21453,
            "contract": "contracts/facets/Treasury/BondingCalculatorFacet.sol:BondingCalculatorFacet",
            "label": "LiquidityDepositorQueue",
            "offset": 0,
            "slot": "22",
            "type": "t_mapping(t_address,t_uint256)"
          },
          {
            "astId": 21456,
            "contract": "contracts/facets/Treasury/BondingCalculatorFacet.sol:BondingCalculatorFacet",
            "label": "reserveManagers",
            "offset": 0,
            "slot": "23",
            "type": "t_array(t_address)dyn_storage"
          },
          {
            "astId": 21460,
            "contract": "contracts/facets/Treasury/BondingCalculatorFacet.sol:BondingCalculatorFacet",
            "label": "isReserveManager",
            "offset": 0,
            "slot": "24",
            "type": "t_mapping(t_address,t_bool)"
          },
          {
            "astId": 21464,
            "contract": "contracts/facets/Treasury/BondingCalculatorFacet.sol:BondingCalculatorFacet",
            "label": "ReserveManagerQueue",
            "offset": 0,
            "slot": "25",
            "type": "t_mapping(t_address,t_uint256)"
          },
          {
            "astId": 21467,
            "contract": "contracts/facets/Treasury/BondingCalculatorFacet.sol:BondingCalculatorFacet",
            "label": "liquidityManagers",
            "offset": 0,
            "slot": "26",
            "type": "t_array(t_address)dyn_storage"
          },
          {
            "astId": 21471,
            "contract": "contracts/facets/Treasury/BondingCalculatorFacet.sol:BondingCalculatorFacet",
            "label": "isLiquidityManager",
            "offset": 0,
            "slot": "27",
            "type": "t_mapping(t_address,t_bool)"
          },
          {
            "astId": 21475,
            "contract": "contracts/facets/Treasury/BondingCalculatorFacet.sol:BondingCalculatorFacet",
            "label": "LiquidityManagerQueue",
            "offset": 0,
            "slot": "28",
            "type": "t_mapping(t_address,t_uint256)"
          },
          {
            "astId": 21478,
            "contract": "contracts/facets/Treasury/BondingCalculatorFacet.sol:BondingCalculatorFacet",
            "label": "debtors",
            "offset": 0,
            "slot": "29",
            "type": "t_array(t_address)dyn_storage"
          },
          {
            "astId": 21482,
            "contract": "contracts/facets/Treasury/BondingCalculatorFacet.sol:BondingCalculatorFacet",
            "label": "isDebtor",
            "offset": 0,
            "slot": "30",
            "type": "t_mapping(t_address,t_bool)"
          },
          {
            "astId": 21486,
            "contract": "contracts/facets/Treasury/BondingCalculatorFacet.sol:BondingCalculatorFacet",
            "label": "debtorQueue",
            "offset": 0,
            "slot": "31",
            "type": "t_mapping(t_address,t_uint256)"
          },
          {
            "astId": 21489,
            "contract": "contracts/facets/Treasury/BondingCalculatorFacet.sol:BondingCalculatorFacet",
            "label": "rewardManagers",
            "offset": 0,
            "slot": "32",
            "type": "t_array(t_address)dyn_storage"
          },
          {
            "astId": 21493,
            "contract": "contracts/facets/Treasury/BondingCalculatorFacet.sol:BondingCalculatorFacet",
            "label": "isRewardManager",
            "offset": 0,
            "slot": "33",
            "type": "t_mapping(t_address,t_bool)"
          },
          {
            "astId": 21497,
            "contract": "contracts/facets/Treasury/BondingCalculatorFacet.sol:BondingCalculatorFacet",
            "label": "rewardManagerQueue",
            "offset": 0,
            "slot": "34",
            "type": "t_mapping(t_address,t_uint256)"
          }
        ],
        "numberOfBytes": "1120"
      },
      "t_uint256": {
        "encoding": "inplace",
        "label": "uint256",
        "numberOfBytes": "32"
      }
    }
  }
}