{
  "address": "0x0a85E3c4ea19c0Fb6c2EB93D4Ad3D8201b168abD",
  "abi": [
    {
      "inputs": [],
      "name": "distribute",
      "outputs": [
        {
          "internalType": "bool",
          "name": "",
          "type": "bool"
        }
      ],
      "stateMutability": "nonpayable",
      "type": "function"
    },
    {
      "inputs": [
        {
          "internalType": "uint256",
          "name": "_rate",
          "type": "uint256"
        }
      ],
      "name": "nextRewardAt",
      "outputs": [
        {
          "internalType": "uint256",
          "name": "",
          "type": "uint256"
        }
      ],
      "stateMutability": "view",
      "type": "function"
    },
    {
      "inputs": [
        {
          "internalType": "address",
          "name": "_recipient",
          "type": "address"
        }
      ],
      "name": "nextRewardFor",
      "outputs": [
        {
          "internalType": "uint256",
          "name": "",
          "type": "uint256"
        }
      ],
      "stateMutability": "view",
      "type": "function"
    }
  ],
  "transactionHash": "0x8c7e88778f0c9849f4303c8a20047f64137e3298da7b61bb08e994f86606dfef",
  "args": [],
  "solcInputHash": "c3493f29f7682f85d0fb505a57323f0a",
  "bytecode": "0x608060405234801561001057600080fd5b5061076a806100206000396000f3fe608060405234801561001057600080fd5b50600436106100415760003560e01c806336d33f4414610046578063c9fa8b2a1461006c578063e4fc6b6d1461007f575b600080fd5b610059610054366004610615565b610097565b6040519081526020015b60405180910390f35b61005961007a36600461064b565b61015a565b61008761020d565b6040519015158152602001610063565b60008060005b601154811015610153578373ffffffffffffffffffffffffffffffffffffffff16600060110182815481106100d4576100d4610664565b600091825260209091206001600290920201015473ffffffffffffffffffffffffffffffffffffffff1614156101415761013e6101376000601101838154811061012057610120610664565b90600052602060002090600202016000015461015a565b83906103e7565b91505b8061014b81610690565b91505061009d565b5092915050565b60008054604080517f18160ddd000000000000000000000000000000000000000000000000000000008152905161020792620f42409261020192879273ffffffffffffffffffffffffffffffffffffffff16916318160ddd9160048083019260209291908290030181865afa1580156101d7573d6000803e3d6000fd5b505050506040513d601f19601f820116820180604052508101906101fb91906106ab565b906103fa565b90610406565b92915050565b60008061021a6008610412565b9050600160005b82811015610284576000818152600f6020526040902054421061026d576017546000828152600f6020526040902054610259916103e7565b6000828152600f6020526040902055610272565b600091505b8061027c81610690565b915050610221565b5080156102075760005b6011548110156101535760008060110182815481106102af576102af610664565b90600052602060002090600202016000015411156103d5576004546011805473ffffffffffffffffffffffffffffffffffffffff90921691636a20de929190849081106102fe576102fe610664565b906000526020600020906002020160010160009054906101000a900473ffffffffffffffffffffffffffffffffffffffff166103496000601101858154811061012057610120610664565b6040517fffffffff0000000000000000000000000000000000000000000000000000000060e085901b16815273ffffffffffffffffffffffffffffffffffffffff90921660048301526024820152604401600060405180830381600087803b1580156103b457600080fd5b505af11580156103c8573d6000803e3d6000fd5b505050506103d58161041c565b806103df81610690565b91505061028e565b60006103f382846106c4565b9392505050565b60006103f382846106dc565b60006103f382846106fb565b6000610207825490565b60008181526012602052604090206001810154156104dc57805460ff16156104e05761047381600101546000601101848154811061045c5761045c610664565b6000918252602090912060029091020154906103e7565b601180548490811061048757610487610664565b600091825260209091206002918202019190915581015460118054849081106104b2576104b2610664565b906000526020600020906002020160000154106104dc576000828152601260205260408120600101555b5050565b600181015460118054849081106104f9576104f9610664565b90600052602060002090600202016000015411156105705761054681600101546000601101848154811061052f5761052f610664565b600091825260209091206002909102015490610609565b601180548490811061055a5761055a610664565b6000918252602090912060029091020155610599565b600080601101838154811061058757610587610664565b60009182526020909120600290910201555b600281015460118054849081106105b2576105b2610664565b906000526020600020906002020160000154116104dc57600082815260126020526040812060010155600281015460118054849081106105f4576105f4610664565b60009182526020909120600290910201555050565b60006103f3828461071d565b60006020828403121561062757600080fd5b813573ffffffffffffffffffffffffffffffffffffffff811681146103f357600080fd5b60006020828403121561065d57600080fd5b5035919050565b634e487b7160e01b600052603260045260246000fd5b634e487b7160e01b600052601160045260246000fd5b60006000198214156106a4576106a461067a565b5060010190565b6000602082840312156106bd57600080fd5b5051919050565b600082198211156106d7576106d761067a565b500190565b60008160001904831182151516156106f6576106f661067a565b500290565b60008261071857634e487b7160e01b600052601260045260246000fd5b500490565b60008282101561072f5761072f61067a565b50039056fea2646970667358221220a25a52380729d2d06edc1752feaf11c76354686059fac7a173e138e5ae9bfe4c64736f6c634300080a0033",
  "devdoc": {
    "kind": "dev",
    "methods": {
      "nextRewardAt(uint256)": {
        "params": {
          "_rate": "uint"
        },
        "returns": {
          "_0": "uint"
        }
      },
      "nextRewardFor(address)": {
        "params": {
          "_recipient": "address"
        },
        "returns": {
          "_0": "uint"
        }
      }
    },
    "version": 1
  },
  "userdoc": {
    "kind": "user",
    "methods": {
      "distribute()": {
        "notice": "send epoch reward to staking contract"
      },
      "nextRewardAt(uint256)": {
        "notice": "view function for next reward at given rate"
      },
      "nextRewardFor(address)": {
        "notice": "view function for next reward for specified address"
      }
    },
    "version": 1
  },
  "storageLayout": {
    "storage": [
      {
        "astId": 6812,
        "contract": "contracts/facets/Bond/DistributorFacet.sol:DistributorFacet",
        "label": "s",
        "offset": 0,
        "slot": "0",
        "type": "t_struct(Storage)20697_storage"
      }
    ],
    "types": {
      "t_address": {
        "encoding": "inplace",
        "label": "address",
        "numberOfBytes": "20"
      },
      "t_array(t_bytes32)dyn_storage": {
        "base": "t_bytes32",
        "encoding": "dynamic_array",
        "label": "bytes32[]",
        "numberOfBytes": "32"
      },
      "t_array(t_struct(Info)20547_storage)dyn_storage": {
        "base": "t_struct(Info)20547_storage",
        "encoding": "dynamic_array",
        "label": "struct LibBondStorage.Info[]",
        "numberOfBytes": "32"
      },
      "t_array(t_struct(Payout)20542_storage)dyn_storage": {
        "base": "t_struct(Payout)20542_storage",
        "encoding": "dynamic_array",
        "label": "struct LibBondStorage.Payout[]",
        "numberOfBytes": "32"
      },
      "t_bool": {
        "encoding": "inplace",
        "label": "bool",
        "numberOfBytes": "1"
      },
      "t_bytes32": {
        "encoding": "inplace",
        "label": "bytes32",
        "numberOfBytes": "32"
      },
      "t_mapping(t_address,t_mapping(t_uint256,t_struct(Bond)20578_storage))": {
        "encoding": "mapping",
        "key": "t_address",
        "label": "mapping(address => mapping(uint256 => struct LibBondStorage.Bond))",
        "numberOfBytes": "32",
        "value": "t_mapping(t_uint256,t_struct(Bond)20578_storage)"
      },
      "t_mapping(t_address,t_struct(Claim)20605_storage)": {
        "encoding": "mapping",
        "key": "t_address",
        "label": "mapping(address => struct LibBondStorage.Claim)",
        "numberOfBytes": "32",
        "value": "t_struct(Claim)20605_storage"
      },
      "t_mapping(t_address,t_uint256)": {
        "encoding": "mapping",
        "key": "t_address",
        "label": "mapping(address => uint256)",
        "numberOfBytes": "32",
        "value": "t_uint256"
      },
      "t_mapping(t_bytes32,t_uint256)": {
        "encoding": "mapping",
        "key": "t_bytes32",
        "label": "mapping(bytes32 => uint256)",
        "numberOfBytes": "32",
        "value": "t_uint256"
      },
      "t_mapping(t_uint256,t_address)": {
        "encoding": "mapping",
        "key": "t_uint256",
        "label": "mapping(uint256 => address)",
        "numberOfBytes": "32",
        "value": "t_address"
      },
      "t_mapping(t_uint256,t_array(t_struct(Payout)20542_storage)dyn_storage)": {
        "encoding": "mapping",
        "key": "t_uint256",
        "label": "mapping(uint256 => struct LibBondStorage.Payout[])",
        "numberOfBytes": "32",
        "value": "t_array(t_struct(Payout)20542_storage)dyn_storage"
      },
      "t_mapping(t_uint256,t_struct(Bond)20578_storage)": {
        "encoding": "mapping",
        "key": "t_uint256",
        "label": "mapping(uint256 => struct LibBondStorage.Bond)",
        "numberOfBytes": "32",
        "value": "t_struct(Bond)20578_storage"
      },
      "t_mapping(t_uint256,t_struct(BondDepositoryAdjustment)20587_storage)": {
        "encoding": "mapping",
        "key": "t_uint256",
        "label": "mapping(uint256 => struct LibBondStorage.BondDepositoryAdjustment)",
        "numberOfBytes": "32",
        "value": "t_struct(BondDepositoryAdjustment)20587_storage"
      },
      "t_mapping(t_uint256,t_struct(DistributorAdjustment)20554_storage)": {
        "encoding": "mapping",
        "key": "t_uint256",
        "label": "mapping(uint256 => struct LibBondStorage.DistributorAdjustment)",
        "numberOfBytes": "32",
        "value": "t_struct(DistributorAdjustment)20554_storage"
      },
      "t_mapping(t_uint256,t_struct(Terms)20569_storage)": {
        "encoding": "mapping",
        "key": "t_uint256",
        "label": "mapping(uint256 => struct LibBondStorage.Terms)",
        "numberOfBytes": "32",
        "value": "t_struct(Terms)20569_storage"
      },
      "t_mapping(t_uint256,t_uint256)": {
        "encoding": "mapping",
        "key": "t_uint256",
        "label": "mapping(uint256 => uint256)",
        "numberOfBytes": "32",
        "value": "t_uint256"
      },
      "t_struct(AddressSet)1348_storage": {
        "encoding": "inplace",
        "label": "struct EnumerableSet.AddressSet",
        "members": [
          {
            "astId": 1347,
            "contract": "contracts/facets/Bond/DistributorFacet.sol:DistributorFacet",
            "label": "_inner",
            "offset": 0,
            "slot": "0",
            "type": "t_struct(Set)1047_storage"
          }
        ],
        "numberOfBytes": "64"
      },
      "t_struct(Bond)20578_storage": {
        "encoding": "inplace",
        "label": "struct LibBondStorage.Bond",
        "members": [
          {
            "astId": 20571,
            "contract": "contracts/facets/Bond/DistributorFacet.sol:DistributorFacet",
            "label": "payout",
            "offset": 0,
            "slot": "0",
            "type": "t_uint256"
          },
          {
            "astId": 20573,
            "contract": "contracts/facets/Bond/DistributorFacet.sol:DistributorFacet",
            "label": "pricePaid",
            "offset": 0,
            "slot": "1",
            "type": "t_uint256"
          },
          {
            "astId": 20575,
            "contract": "contracts/facets/Bond/DistributorFacet.sol:DistributorFacet",
            "label": "lastTime",
            "offset": 0,
            "slot": "2",
            "type": "t_uint256"
          },
          {
            "astId": 20577,
            "contract": "contracts/facets/Bond/DistributorFacet.sol:DistributorFacet",
            "label": "vesting",
            "offset": 0,
            "slot": "3",
            "type": "t_uint256"
          }
        ],
        "numberOfBytes": "128"
      },
      "t_struct(BondDepositoryAdjustment)20587_storage": {
        "encoding": "inplace",
        "label": "struct LibBondStorage.BondDepositoryAdjustment",
        "members": [
          {
            "astId": 20580,
            "contract": "contracts/facets/Bond/DistributorFacet.sol:DistributorFacet",
            "label": "add",
            "offset": 0,
            "slot": "0",
            "type": "t_bool"
          },
          {
            "astId": 20582,
            "contract": "contracts/facets/Bond/DistributorFacet.sol:DistributorFacet",
            "label": "delta",
            "offset": 0,
            "slot": "1",
            "type": "t_uint256"
          },
          {
            "astId": 20584,
            "contract": "contracts/facets/Bond/DistributorFacet.sol:DistributorFacet",
            "label": "timeToTarget",
            "offset": 0,
            "slot": "2",
            "type": "t_uint256"
          },
          {
            "astId": 20586,
            "contract": "contracts/facets/Bond/DistributorFacet.sol:DistributorFacet",
            "label": "lastTime",
            "offset": 0,
            "slot": "3",
            "type": "t_uint256"
          }
        ],
        "numberOfBytes": "128"
      },
      "t_struct(Claim)20605_storage": {
        "encoding": "inplace",
        "label": "struct LibBondStorage.Claim",
        "members": [
          {
            "astId": 20598,
            "contract": "contracts/facets/Bond/DistributorFacet.sol:DistributorFacet",
            "label": "deposit",
            "offset": 0,
            "slot": "0",
            "type": "t_uint256"
          },
          {
            "astId": 20600,
            "contract": "contracts/facets/Bond/DistributorFacet.sol:DistributorFacet",
            "label": "gons",
            "offset": 0,
            "slot": "1",
            "type": "t_uint256"
          },
          {
            "astId": 20602,
            "contract": "contracts/facets/Bond/DistributorFacet.sol:DistributorFacet",
            "label": "expiry",
            "offset": 0,
            "slot": "2",
            "type": "t_uint256"
          },
          {
            "astId": 20604,
            "contract": "contracts/facets/Bond/DistributorFacet.sol:DistributorFacet",
            "label": "lock",
            "offset": 0,
            "slot": "3",
            "type": "t_bool"
          }
        ],
        "numberOfBytes": "128"
      },
      "t_struct(DistributorAdjustment)20554_storage": {
        "encoding": "inplace",
        "label": "struct LibBondStorage.DistributorAdjustment",
        "members": [
          {
            "astId": 20549,
            "contract": "contracts/facets/Bond/DistributorFacet.sol:DistributorFacet",
            "label": "add",
            "offset": 0,
            "slot": "0",
            "type": "t_bool"
          },
          {
            "astId": 20551,
            "contract": "contracts/facets/Bond/DistributorFacet.sol:DistributorFacet",
            "label": "rate",
            "offset": 0,
            "slot": "1",
            "type": "t_uint256"
          },
          {
            "astId": 20553,
            "contract": "contracts/facets/Bond/DistributorFacet.sol:DistributorFacet",
            "label": "target",
            "offset": 0,
            "slot": "2",
            "type": "t_uint256"
          }
        ],
        "numberOfBytes": "96"
      },
      "t_struct(Epoch)20596_storage": {
        "encoding": "inplace",
        "label": "struct LibBondStorage.Epoch",
        "members": [
          {
            "astId": 20589,
            "contract": "contracts/facets/Bond/DistributorFacet.sol:DistributorFacet",
            "label": "number",
            "offset": 0,
            "slot": "0",
            "type": "t_uint256"
          },
          {
            "astId": 20591,
            "contract": "contracts/facets/Bond/DistributorFacet.sol:DistributorFacet",
            "label": "distribute",
            "offset": 0,
            "slot": "1",
            "type": "t_uint256"
          },
          {
            "astId": 20593,
            "contract": "contracts/facets/Bond/DistributorFacet.sol:DistributorFacet",
            "label": "length",
            "offset": 0,
            "slot": "2",
            "type": "t_uint256"
          },
          {
            "astId": 20595,
            "contract": "contracts/facets/Bond/DistributorFacet.sol:DistributorFacet",
            "label": "endTime",
            "offset": 0,
            "slot": "3",
            "type": "t_uint256"
          }
        ],
        "numberOfBytes": "128"
      },
      "t_struct(Info)20547_storage": {
        "encoding": "inplace",
        "label": "struct LibBondStorage.Info",
        "members": [
          {
            "astId": 20544,
            "contract": "contracts/facets/Bond/DistributorFacet.sol:DistributorFacet",
            "label": "rate",
            "offset": 0,
            "slot": "0",
            "type": "t_uint256"
          },
          {
            "astId": 20546,
            "contract": "contracts/facets/Bond/DistributorFacet.sol:DistributorFacet",
            "label": "recipient",
            "offset": 0,
            "slot": "1",
            "type": "t_address"
          }
        ],
        "numberOfBytes": "64"
      },
      "t_struct(Payout)20542_storage": {
        "encoding": "inplace",
        "label": "struct LibBondStorage.Payout",
        "members": [
          {
            "astId": 20539,
            "contract": "contracts/facets/Bond/DistributorFacet.sol:DistributorFacet",
            "label": "amount",
            "offset": 0,
            "slot": "0",
            "type": "t_uint256"
          },
          {
            "astId": 20541,
            "contract": "contracts/facets/Bond/DistributorFacet.sol:DistributorFacet",
            "label": "blockTimestamp",
            "offset": 0,
            "slot": "1",
            "type": "t_uint256"
          }
        ],
        "numberOfBytes": "64"
      },
      "t_struct(Set)1047_storage": {
        "encoding": "inplace",
        "label": "struct EnumerableSet.Set",
        "members": [
          {
            "astId": 1042,
            "contract": "contracts/facets/Bond/DistributorFacet.sol:DistributorFacet",
            "label": "_values",
            "offset": 0,
            "slot": "0",
            "type": "t_array(t_bytes32)dyn_storage"
          },
          {
            "astId": 1046,
            "contract": "contracts/facets/Bond/DistributorFacet.sol:DistributorFacet",
            "label": "_indexes",
            "offset": 0,
            "slot": "1",
            "type": "t_mapping(t_bytes32,t_uint256)"
          }
        ],
        "numberOfBytes": "64"
      },
      "t_struct(Storage)20697_storage": {
        "encoding": "inplace",
        "label": "struct LibBondStorage.Storage",
        "members": [
          {
            "astId": 20607,
            "contract": "contracts/facets/Bond/DistributorFacet.sol:DistributorFacet",
            "label": "Necc",
            "offset": 0,
            "slot": "0",
            "type": "t_address"
          },
          {
            "astId": 20609,
            "contract": "contracts/facets/Bond/DistributorFacet.sol:DistributorFacet",
            "label": "sNecc",
            "offset": 0,
            "slot": "1",
            "type": "t_address"
          },
          {
            "astId": 20611,
            "contract": "contracts/facets/Bond/DistributorFacet.sol:DistributorFacet",
            "label": "nNecc",
            "offset": 0,
            "slot": "2",
            "type": "t_address"
          },
          {
            "astId": 20613,
            "contract": "contracts/facets/Bond/DistributorFacet.sol:DistributorFacet",
            "label": "ndol",
            "offset": 0,
            "slot": "3",
            "type": "t_address"
          },
          {
            "astId": 20615,
            "contract": "contracts/facets/Bond/DistributorFacet.sol:DistributorFacet",
            "label": "treasury",
            "offset": 0,
            "slot": "4",
            "type": "t_address"
          },
          {
            "astId": 20617,
            "contract": "contracts/facets/Bond/DistributorFacet.sol:DistributorFacet",
            "label": "DAO",
            "offset": 0,
            "slot": "5",
            "type": "t_address"
          },
          {
            "astId": 20619,
            "contract": "contracts/facets/Bond/DistributorFacet.sol:DistributorFacet",
            "label": "farmDistributor",
            "offset": 0,
            "slot": "6",
            "type": "t_address"
          },
          {
            "astId": 20621,
            "contract": "contracts/facets/Bond/DistributorFacet.sol:DistributorFacet",
            "label": "staking",
            "offset": 0,
            "slot": "7",
            "type": "t_address"
          },
          {
            "astId": 20624,
            "contract": "contracts/facets/Bond/DistributorFacet.sol:DistributorFacet",
            "label": "principles",
            "offset": 0,
            "slot": "8",
            "type": "t_struct(AddressSet)1348_storage"
          },
          {
            "astId": 20629,
            "contract": "contracts/facets/Bond/DistributorFacet.sol:DistributorFacet",
            "label": "terms",
            "offset": 0,
            "slot": "10",
            "type": "t_mapping(t_uint256,t_struct(Terms)20569_storage)"
          },
          {
            "astId": 20634,
            "contract": "contracts/facets/Bond/DistributorFacet.sol:DistributorFacet",
            "label": "bondDepositoryAdjustment",
            "offset": 0,
            "slot": "11",
            "type": "t_mapping(t_uint256,t_struct(BondDepositoryAdjustment)20587_storage)"
          },
          {
            "astId": 20641,
            "contract": "contracts/facets/Bond/DistributorFacet.sol:DistributorFacet",
            "label": "bondInfo",
            "offset": 0,
            "slot": "12",
            "type": "t_mapping(t_address,t_mapping(t_uint256,t_struct(Bond)20578_storage))"
          },
          {
            "astId": 20645,
            "contract": "contracts/facets/Bond/DistributorFacet.sol:DistributorFacet",
            "label": "totalDebt",
            "offset": 0,
            "slot": "13",
            "type": "t_mapping(t_uint256,t_uint256)"
          },
          {
            "astId": 20649,
            "contract": "contracts/facets/Bond/DistributorFacet.sol:DistributorFacet",
            "label": "lastDecay",
            "offset": 0,
            "slot": "14",
            "type": "t_mapping(t_uint256,t_uint256)"
          },
          {
            "astId": 20653,
            "contract": "contracts/facets/Bond/DistributorFacet.sol:DistributorFacet",
            "label": "nextEpochTimestamp",
            "offset": 0,
            "slot": "15",
            "type": "t_mapping(t_uint256,t_uint256)"
          },
          {
            "astId": 20657,
            "contract": "contracts/facets/Bond/DistributorFacet.sol:DistributorFacet",
            "label": "priceFeeds",
            "offset": 0,
            "slot": "16",
            "type": "t_mapping(t_uint256,t_address)"
          },
          {
            "astId": 20661,
            "contract": "contracts/facets/Bond/DistributorFacet.sol:DistributorFacet",
            "label": "info",
            "offset": 0,
            "slot": "17",
            "type": "t_array(t_struct(Info)20547_storage)dyn_storage"
          },
          {
            "astId": 20666,
            "contract": "contracts/facets/Bond/DistributorFacet.sol:DistributorFacet",
            "label": "distributorAdjustments",
            "offset": 0,
            "slot": "18",
            "type": "t_mapping(t_uint256,t_struct(DistributorAdjustment)20554_storage)"
          },
          {
            "astId": 20669,
            "contract": "contracts/facets/Bond/DistributorFacet.sol:DistributorFacet",
            "label": "epoch",
            "offset": 0,
            "slot": "19",
            "type": "t_struct(Epoch)20596_storage"
          },
          {
            "astId": 20671,
            "contract": "contracts/facets/Bond/DistributorFacet.sol:DistributorFacet",
            "label": "epochLength",
            "offset": 0,
            "slot": "23",
            "type": "t_uint256"
          },
          {
            "astId": 20673,
            "contract": "contracts/facets/Bond/DistributorFacet.sol:DistributorFacet",
            "label": "distributor",
            "offset": 0,
            "slot": "24",
            "type": "t_address"
          },
          {
            "astId": 20675,
            "contract": "contracts/facets/Bond/DistributorFacet.sol:DistributorFacet",
            "label": "locker",
            "offset": 0,
            "slot": "25",
            "type": "t_address"
          },
          {
            "astId": 20677,
            "contract": "contracts/facets/Bond/DistributorFacet.sol:DistributorFacet",
            "label": "warmupPeriod",
            "offset": 0,
            "slot": "26",
            "type": "t_uint256"
          },
          {
            "astId": 20682,
            "contract": "contracts/facets/Bond/DistributorFacet.sol:DistributorFacet",
            "label": "warmupInfo",
            "offset": 0,
            "slot": "27",
            "type": "t_mapping(t_address,t_struct(Claim)20605_storage)"
          },
          {
            "astId": 20684,
            "contract": "contracts/facets/Bond/DistributorFacet.sol:DistributorFacet",
            "label": "targetSum",
            "offset": 0,
            "slot": "28",
            "type": "t_uint256"
          },
          {
            "astId": 20690,
            "contract": "contracts/facets/Bond/DistributorFacet.sol:DistributorFacet",
            "label": "payouts",
            "offset": 0,
            "slot": "29",
            "type": "t_mapping(t_uint256,t_array(t_struct(Payout)20542_storage)dyn_storage)"
          },
          {
            "astId": 20692,
            "contract": "contracts/facets/Bond/DistributorFacet.sol:DistributorFacet",
            "label": "gonsInWarmup",
            "offset": 0,
            "slot": "30",
            "type": "t_uint256"
          },
          {
            "astId": 20696,
            "contract": "contracts/facets/Bond/DistributorFacet.sol:DistributorFacet",
            "label": "bondFees",
            "offset": 0,
            "slot": "31",
            "type": "t_mapping(t_address,t_uint256)"
          }
        ],
        "numberOfBytes": "1024"
      },
      "t_struct(Terms)20569_storage": {
        "encoding": "inplace",
        "label": "struct LibBondStorage.Terms",
        "members": [
          {
            "astId": 20556,
            "contract": "contracts/facets/Bond/DistributorFacet.sol:DistributorFacet",
            "label": "controlVariable",
            "offset": 0,
            "slot": "0",
            "type": "t_uint256"
          },
          {
            "astId": 20558,
            "contract": "contracts/facets/Bond/DistributorFacet.sol:DistributorFacet",
            "label": "minimumPrice",
            "offset": 0,
            "slot": "1",
            "type": "t_uint256"
          },
          {
            "astId": 20560,
            "contract": "contracts/facets/Bond/DistributorFacet.sol:DistributorFacet",
            "label": "maxPayout",
            "offset": 0,
            "slot": "2",
            "type": "t_uint256"
          },
          {
            "astId": 20562,
            "contract": "contracts/facets/Bond/DistributorFacet.sol:DistributorFacet",
            "label": "fee",
            "offset": 0,
            "slot": "3",
            "type": "t_uint256"
          },
          {
            "astId": 20564,
            "contract": "contracts/facets/Bond/DistributorFacet.sol:DistributorFacet",
            "label": "maxDebt",
            "offset": 0,
            "slot": "4",
            "type": "t_uint256"
          },
          {
            "astId": 20566,
            "contract": "contracts/facets/Bond/DistributorFacet.sol:DistributorFacet",
            "label": "vestingTerm",
            "offset": 0,
            "slot": "5",
            "type": "t_uint256"
          },
          {
            "astId": 20568,
            "contract": "contracts/facets/Bond/DistributorFacet.sol:DistributorFacet",
            "label": "isLiquidityBond",
            "offset": 0,
            "slot": "6",
            "type": "t_bool"
          }
        ],
        "numberOfBytes": "224"
      },
      "t_uint256": {
        "encoding": "inplace",
        "label": "uint256",
        "numberOfBytes": "32"
      }
    }
  }
}