{
  "address": "0x281f74665B570D10a98b73dD5A997BAC7C48Cf0D",
  "abi": [
    {
      "inputs": [
        {
          "internalType": "contract IVault",
          "name": "",
          "type": "address"
        },
        {
          "internalType": "address",
          "name": "_tokenIn",
          "type": "address"
        },
        {
          "internalType": "address",
          "name": "_tokenOut",
          "type": "address"
        },
        {
          "internalType": "uint256",
          "name": "_amountIn",
          "type": "uint256"
        }
      ],
      "name": "getAmountOut",
      "outputs": [
        {
          "internalType": "uint256",
          "name": "",
          "type": "uint256"
        },
        {
          "internalType": "uint256",
          "name": "",
          "type": "uint256"
        }
      ],
      "stateMutability": "view",
      "type": "function"
    },
    {
      "inputs": [
        {
          "internalType": "address",
          "name": "",
          "type": "address"
        },
        {
          "internalType": "address[]",
          "name": "_tokens",
          "type": "address[]"
        }
      ],
      "name": "getFees",
      "outputs": [
        {
          "internalType": "uint256[]",
          "name": "",
          "type": "uint256[]"
        }
      ],
      "stateMutability": "view",
      "type": "function"
    },
    {
      "inputs": [
        {
          "internalType": "address",
          "name": "",
          "type": "address"
        },
        {
          "internalType": "address",
          "name": "_weth",
          "type": "address"
        },
        {
          "internalType": "address[]",
          "name": "_tokens",
          "type": "address[]"
        }
      ],
      "name": "getFundingRates",
      "outputs": [
        {
          "internalType": "uint256[]",
          "name": "",
          "type": "uint256[]"
        }
      ],
      "stateMutability": "view",
      "type": "function"
    },
    {
      "inputs": [
        {
          "internalType": "contract IVault",
          "name": "",
          "type": "address"
        },
        {
          "internalType": "address",
          "name": "_tokenIn",
          "type": "address"
        },
        {
          "internalType": "address",
          "name": "_tokenOut",
          "type": "address"
        }
      ],
      "name": "getMaxAmountIn",
      "outputs": [
        {
          "internalType": "uint256",
          "name": "",
          "type": "uint256"
        }
      ],
      "stateMutability": "view",
      "type": "function"
    },
    {
      "inputs": [
        {
          "internalType": "address",
          "name": "_factory",
          "type": "address"
        },
        {
          "internalType": "address[]",
          "name": "_tokens",
          "type": "address[]"
        }
      ],
      "name": "getPairInfo",
      "outputs": [
        {
          "internalType": "uint256[]",
          "name": "",
          "type": "uint256[]"
        }
      ],
      "stateMutability": "view",
      "type": "function"
    },
    {
      "inputs": [
        {
          "internalType": "address",
          "name": "",
          "type": "address"
        },
        {
          "internalType": "address",
          "name": "_account",
          "type": "address"
        },
        {
          "internalType": "address[]",
          "name": "_collateralTokens",
          "type": "address[]"
        },
        {
          "internalType": "address[]",
          "name": "_indexTokens",
          "type": "address[]"
        },
        {
          "internalType": "bool[]",
          "name": "_isLong",
          "type": "bool[]"
        }
      ],
      "name": "getPositions",
      "outputs": [
        {
          "internalType": "uint256[]",
          "name": "",
          "type": "uint256[]"
        }
      ],
      "stateMutability": "view",
      "type": "function"
    },
    {
      "inputs": [
        {
          "internalType": "address",
          "name": "_account",
          "type": "address"
        },
        {
          "internalType": "address[]",
          "name": "_tokens",
          "type": "address[]"
        }
      ],
      "name": "getTokenBalances",
      "outputs": [
        {
          "internalType": "uint256[]",
          "name": "",
          "type": "uint256[]"
        }
      ],
      "stateMutability": "view",
      "type": "function"
    },
    {
      "inputs": [
        {
          "internalType": "address",
          "name": "_account",
          "type": "address"
        },
        {
          "internalType": "address[]",
          "name": "_tokens",
          "type": "address[]"
        }
      ],
      "name": "getTokenBalancesWithSupplies",
      "outputs": [
        {
          "internalType": "uint256[]",
          "name": "",
          "type": "uint256[]"
        }
      ],
      "stateMutability": "view",
      "type": "function"
    },
    {
      "inputs": [
        {
          "internalType": "contract IERC20",
          "name": "_token",
          "type": "address"
        },
        {
          "internalType": "address[]",
          "name": "_excludedAccounts",
          "type": "address[]"
        }
      ],
      "name": "getTokenSupply",
      "outputs": [
        {
          "internalType": "uint256",
          "name": "",
          "type": "uint256"
        }
      ],
      "stateMutability": "view",
      "type": "function"
    },
    {
      "inputs": [
        {
          "internalType": "address",
          "name": "",
          "type": "address"
        },
        {
          "internalType": "address",
          "name": "_weth",
          "type": "address"
        },
        {
          "internalType": "uint256",
          "name": "_ndolAmount",
          "type": "uint256"
        },
        {
          "internalType": "address[]",
          "name": "_tokens",
          "type": "address[]"
        }
      ],
      "name": "getVaultTokenInfo",
      "outputs": [
        {
          "internalType": "uint256[]",
          "name": "",
          "type": "uint256[]"
        }
      ],
      "stateMutability": "view",
      "type": "function"
    }
  ],
  "transactionHash": "0xbd983ff1c6b7d7b638786169d21dc2ac7d5627e8fd76fe35363cf01c6384a1fc",
  "args": [],
  "solcInputHash": "45c0bcabd398f21d9b9795e0f0ad806c",
  "bytecode": "0x608060405234801561001057600080fd5b506000805460ff19169055611fdd8061002a6000396000f3fe608060405234801561001057600080fd5b50600436106100be5760003560e01c8063a4543ead11610076578063d802178e1161005b578063d802178e14610181578063dc383cab14610194578063f3535e6c146101a757600080fd5b8063a4543ead14610146578063d7176ca91461015957600080fd5b80632e3e3342116100a75780632e3e33421461010d57806386d4d0f51461012057806395a7535a1461013357600080fd5b806320542568146100c35780632ac0184c146100ec575b600080fd5b6100d66100d1366004611a19565b6101ba565b6040516100e39190611a85565b60405180910390f35b6100ff6100fa366004611ac9565b61065f565b6040519081526020016100e3565b6100d661011b366004611ac9565b61078e565b6100d661012e366004611ac9565b6109db565b6100d6610141366004611b19565b610aa2565b6100d6610154366004611ac9565b610c54565b61016c610167366004611b7b565b610f06565b604080519283526020830191909152016100e3565b6100d661018f366004611ac9565b610f96565b6100d66101a2366004611bda565b6110f0565b6100ff6101b5366004611ce7565b6115fd565b8051606090600990309081906000906101d4908590611d48565b67ffffffffffffffff8111156101ec576101ec611927565b604051908082528060200260200182016040528015610215578160200160208202803683370190505b50905060005b865181101561065257600087828151811061023857610238611d67565b6020026020010151905060006001600160a01b0316816001600160a01b031614156102605750885b6002546001600160a01b0382811691161461063f576001600160a01b0381166000908152600c6020526040902054836102998885611d48565b815181106102a9576102a9611d67565b6020908102919091018101919091526001600160a01b0382166000908152600d9091526040902054836102dc8885611d48565b6102e7906001611d7d565b815181106102f7576102f7611d67565b6020908102919091018101919091526001600160a01b0382166000908152600b90915260409020548361032a8885611d48565b610335906002611d7d565b8151811061034557610345611d67565b60209081029190910101526040517f2c668ec10000000000000000000000000000000000000000000000000000000081526001600160a01b038281166004830152602482018b9052861690632c668ec190604401602060405180830381865afa1580156103b6573d6000803e3d6000fd5b505050506040513d601f19601f820116820180604052508101906103da9190611d95565b836103e58885611d48565b6103f0906003611d7d565b8151811061040057610400611d67565b6020908102919091010152600254610423908290600160a01b900460ff1661169a565b8361042e8885611d48565b610439906004611d7d565b8151811061044957610449611d67565b602090810291909101015260025461046c908290600160a01b900460ff1661171c565b836104778885611d48565b610482906005611d7d565b8151811061049257610492611d67565b6020908102919091018101919091526001600160a01b0382166000908152600e9091526040902054836104c58885611d48565b6104d0906006611d7d565b815181106104e0576104e0611d67565b6020908102919091010152604051635ae6916360e01b81526001600160a01b0382811660048301526000602483018190526044830152851690635ae6916390606401602060405180830381865afa15801561053f573d6000803e3d6000fd5b505050506040513d601f19601f820116820180604052508101906105639190611d95565b8361056e8885611d48565b610579906007611d7d565b8151811061058957610589611d67565b6020908102919091010152604051635ae6916360e01b81526001600160a01b0382811660048301526001602483015260006044830152851690635ae6916390606401602060405180830381865afa1580156105e8573d6000803e3d6000fd5b505050506040513d601f19601f8201168201806040525081019061060c9190611d95565b836106178885611d48565b610622906008611d7d565b8151811061063257610632611d67565b6020026020010181815250505b508061064a81611dae565b91505061021b565b5098975050505050505050565b600080836001600160a01b03166318160ddd6040518163ffffffff1660e01b8152600401602060405180830381865afa1580156106a0573d6000803e3d6000fd5b505050506040513d601f19601f820116820180604052508101906106c49190611d95565b905060005b83518110156107845760008482815181106106e6576106e6611d67565b60209081029190910101516040516370a0823160e01b81526001600160a01b0380831660048301529192506000918816906370a0823190602401602060405180830381865afa15801561073d573d6000803e3d6000fd5b505050506040513d601f19601f820116820180604052508101906107619190611d95565b905061076d848261175a565b93505050808061077c90611dae565b9150506106c9565b5090505b92915050565b606060006002905060008184516107a59190611d48565b67ffffffffffffffff8111156107bd576107bd611927565b6040519080825280602002602001820160405280156107e6578160200160208202803683370190505b50905060005b84518110156109d257600085828151811061080957610809611d67565b6020026020010151905060006001600160a01b0316816001600160a01b03161415610899576001600160a01b03871631836108448685611d48565b8151811061085457610854611d67565b602090810291909101015260008361086c8685611d48565b610877906001611d7d565b8151811061088757610887611d67565b602002602001018181525050506109c0565b6040516370a0823160e01b81526001600160a01b0388811660048301528216906370a0823190602401602060405180830381865afa1580156108df573d6000803e3d6000fd5b505050506040513d601f19601f820116820180604052508101906109039190611d95565b8361090e8685611d48565b8151811061091e5761091e611d67565b602002602001018181525050806001600160a01b03166318160ddd6040518163ffffffff1660e01b8152600401602060405180830381865afa158015610968573d6000803e3d6000fd5b505050506040513d601f19601f8201168201806040525081019061098c9190611d95565b836109978685611d48565b6109a2906001611d7d565b815181106109b2576109b2611d67565b602002602001018181525050505b806109ca81611dae565b9150506107ec565b50949350505050565b60606000825167ffffffffffffffff8111156109f9576109f9611927565b604051908082528060200260200182016040528015610a22578160200160208202803683370190505b50905060005b83518110156107845760006011016000858381518110610a4a57610a4a611d67565b60200260200101516001600160a01b03166001600160a01b0316815260200190815260200160002054828281518110610a8557610a85611d67565b602090810291909101015280610a9a81611dae565b915050610a28565b60606000600290506000818451610ab99190611d48565b67ffffffffffffffff811115610ad157610ad1611927565b604051908082528060200260200182016040528015610afa578160200160208202803683370190505b50905060005b8451811015610c4a576000858281518110610b1d57610b1d611d67565b6020026020010151905060006001600160a01b0316816001600160a01b03161415610b455750855b6001600160a01b0381166000908152600d6020908152604080832054600c909252909120548015610bae57610b8681610b8061025885611766565b90611772565b85610b918887611d48565b81518110610ba157610ba1611d67565b6020026020010181815250505b6001600160a01b0383166000908152600f602052604090205415610c34576000610bd960008561177e565b6001600160a01b0385166000908152600f6020526040902054909150610bff8183611854565b87610c0a8a89611d48565b610c15906001611d7d565b81518110610c2557610c25611d67565b60200260200101818152505050505b5050508080610c4290611dae565b915050610b00565b5095945050505050565b805160609060029081906000908290610c6e908290611dc9565b610c789190611d48565b67ffffffffffffffff811115610c9057610c90611927565b604051908082528060200260200182016040528015610cb9578160200160208202803683370190505b50905060005b838651610ccc9190611dc9565b811015610c4a57600086610ce08684611d48565b81518110610cf057610cf0611d67565b602002602001015190506000878684610d099190611d48565b610d14906001611d7d565b81518110610d2457610d24611d67565b60209081029190910101516040517fe6a439050000000000000000000000000000000000000000000000000000000081526001600160a01b03848116600483015280831660248301529192506000918b169063e6a4390590604401602060405180830381865afa158015610d9c573d6000803e3d6000fd5b505050506040513d601f19601f82011682018060405250810190610dc09190611deb565b6040516370a0823160e01b81526001600160a01b038083166004830152919250908416906370a0823190602401602060405180830381865afa158015610e0a573d6000803e3d6000fd5b505050506040513d601f19601f82011682018060405250810190610e2e9190611d95565b85610e398887611d48565b81518110610e4957610e49611d67565b60209081029190910101526040516370a0823160e01b81526001600160a01b0382811660048301528316906370a0823190602401602060405180830381865afa158015610e9a573d6000803e3d6000fd5b505050506040513d601f19601f82011682018060405250810190610ebe9190611d95565b85610ec98887611d48565b610ed4906001611d7d565b81518110610ee457610ee4611d67565b6020026020010181815250505050508080610efe90611dae565b915050610cbf565b6000806000610f2786600060020160149054906101000a900460ff1661169a565b600254909150600090610f45908790600160a01b900460ff1661171c565b90506000610f5782610b808886611766565b90506000610f76612710610b80610f6f82601e61175a565b8590611766565b90506000610f84838361175a565b919b919a509098505050505050505050565b60606000825167ffffffffffffffff811115610fb457610fb4611927565b604051908082528060200260200182016040528015610fdd578160200160208202803683370190505b50905060005b835181101561078457600084828151811061100057611000611d67565b6020026020010151905060006001600160a01b0316816001600160a01b0316141561105457856001600160a01b03163183838151811061104257611042611d67565b602002602001018181525050506110de565b6040516370a0823160e01b81526001600160a01b0387811660048301528216906370a0823190602401602060405180830381865afa15801561109a573d6000803e3d6000fd5b505050506040513d601f19601f820116820180604052508101906110be9190611d95565b8383815181106110d0576110d0611d67565b602002602001018181525050505b806110e881611dae565b915050610fe3565b60606000600985516111029190611d48565b67ffffffffffffffff81111561111a5761111a611927565b604051908082528060200260200182016040528015611143578160200160208202803683370190505b50905060005b85518110156115f2576000806000806000806000306001600160a01b0316634a3f088d8f8f8b8151811061117f5761117f611d67565b60200260200101518f8c8151811061119957611199611d67565b60200260200101518f8d815181106111b3576111b3611d67565b60209081029190910101516040517fffffffff0000000000000000000000000000000000000000000000000000000060e087901b1681526001600160a01b039485166004820152928416602484015292166044820152901515606482015260840161010060405180830381865afa158015611232573d6000803e3d6000fd5b505050506040513d601f19601f820116820180604052508101906112569190611e08565b975097509750509650965096509650868960098a6112749190611d48565b8151811061128457611284611d67565b6020908102919091010152858961129c60098b611d48565b6112a7906001611d7d565b815181106112b7576112b7611d67565b602090810291909101015284896112cf60098b611d48565b6112da906002611d7d565b815181106112ea576112ea611d67565b6020908102919091010152838961130260098b611d48565b61130d906003611d7d565b8151811061131d5761131d611d67565b60200260200101818152505081611335576000611338565b60015b60ff168961134760098b611d48565b611352906004611d7d565b8151811061136257611362611d67565b6020908102919091010152828961137a60098b611d48565b611385906005611d7d565b8151811061139557611395611d67565b602090810291909101015280896113ad60098b611d48565b6113b8906006611d7d565b815181106113c8576113c8611d67565b602002602001018181525050505050505050506000826009836113eb9190611d48565b815181106113fb576113fb611d67565b602002602001015190506000836009846114159190611d48565b611420906002611d7d565b8151811061143057611430611d67565b6020026020010151905060008460098561144a9190611d48565b611455906006611d7d565b8151811061146557611465611d67565b6020026020010151905060008211156115dc57600080306001600160a01b0316635c07eaab8b888151811061149c5761149c611d67565b602002602001015187878d8b815181106114b8576114b8611d67565b60209081029190910101516040517fffffffff0000000000000000000000000000000000000000000000000000000060e087901b1681526001600160a01b03909416600485015260248401929092526044830152151560648201526084810186905260a4016040805180830381865afa158015611539573d6000803e3d6000fd5b505050506040513d601f19601f8201168201806040525081019061155d9190611e72565b915091508161156d576000611570565b60015b60ff168761157f600989611d48565b61158a906007611d7d565b8151811061159a5761159a611d67565b602090810291909101015280876115b2600989611d48565b6115bd906008611d7d565b815181106115cd576115cd611d67565b60200260200101818152505050505b50505080806115ea90611dae565b915050611149565b509695505050505050565b600254600090819061161a908590600160a01b900460ff1661169a565b600254909150600090611638908590600160a01b900460ff1661171c565b6001600160a01b0385166000908152600c6020908152604080832054600d909252822054929350919061166b838361175a565b9050600061167d86610b808488611766565b905061168c6000828a8c611860565b9a9950505050505050505050565b604051635ae6916360e01b81526001600160a01b03831660048201526000602482018190528215156044830152903090635ae69163906064015b602060405180830381865afa1580156116f1573d6000803e3d6000fd5b505050506040513d601f19601f820116820180604052508101906117159190611d95565b9392505050565b604051635ae6916360e01b81526001600160a01b03831660048201526001602482015281151560448201526000903090635ae69163906064016116d4565b60006117158284611ea0565b60006117158284611d48565b60006117158284611dc9565b6001600160a01b038116600090815260108301602052604081205442906117a790617080611854565b11156117b557506000610788565b6001600160a01b03821660009081526010840160205260408120546117e39061708090610b8090429061175a565b6001600160a01b0384166000908152600c860160205260409020549091508061181157600092505050610788565b6001600160a01b0384166000908152600d8601602052604090205461184b908290610b809085906118459061025890611766565b90611766565b95945050505050565b60006117158284611d7d565b600284015460009081906001600160a01b0385811691161461189c576001600160a01b038416600090815260078701602052604090205461189f565b60125b60028701549091506000906001600160a01b038581169116146118dc576001600160a01b03841660009081526007880160205260409020546118df565b60125b90506119046118ef83600a611f9b565b610b806118fd84600a611f9b565b8990611766565b979650505050505050565b6001600160a01b038116811461192457600080fd5b50565b634e487b7160e01b600052604160045260246000fd5b604051601f82017fffffffffffffffffffffffffffffffffffffffffffffffffffffffffffffffe016810167ffffffffffffffff8111828210171561198457611984611927565b604052919050565b600067ffffffffffffffff8211156119a6576119a6611927565b5060051b60200190565b600082601f8301126119c157600080fd5b813560206119d66119d18361198c565b61193d565b82815260059290921b840181019181810190868411156119f557600080fd5b8286015b848110156115f2578035611a0c8161190f565b83529183019183016119f9565b60008060008060808587031215611a2f57600080fd5b8435611a3a8161190f565b93506020850135611a4a8161190f565b925060408501359150606085013567ffffffffffffffff811115611a6d57600080fd5b611a79878288016119b0565b91505092959194509250565b6020808252825182820181905260009190848201906040850190845b81811015611abd57835183529284019291840191600101611aa1565b50909695505050505050565b60008060408385031215611adc57600080fd5b8235611ae78161190f565b9150602083013567ffffffffffffffff811115611b0357600080fd5b611b0f858286016119b0565b9150509250929050565b600080600060608486031215611b2e57600080fd5b8335611b398161190f565b92506020840135611b498161190f565b9150604084013567ffffffffffffffff811115611b6557600080fd5b611b71868287016119b0565b9150509250925092565b60008060008060808587031215611b9157600080fd5b8435611b9c8161190f565b93506020850135611bac8161190f565b92506040850135611bbc8161190f565b9396929550929360600135925050565b801515811461192457600080fd5b600080600080600060a08688031215611bf257600080fd5b8535611bfd8161190f565b9450602086810135611c0e8161190f565b9450604087013567ffffffffffffffff80821115611c2b57600080fd5b611c378a838b016119b0565b95506060890135915080821115611c4d57600080fd5b611c598a838b016119b0565b94506080890135915080821115611c6f57600080fd5b508701601f81018913611c8157600080fd5b8035611c8f6119d18261198c565b81815260059190911b8201830190838101908b831115611cae57600080fd5b928401925b82841015611cd5578335611cc681611bcc565b82529284019290840190611cb3565b80955050505050509295509295909350565b600080600060608486031215611cfc57600080fd5b8335611d078161190f565b92506020840135611d178161190f565b91506040840135611d278161190f565b809150509250925092565b634e487b7160e01b600052601160045260246000fd5b6000816000190483118215151615611d6257611d62611d32565b500290565b634e487b7160e01b600052603260045260246000fd5b60008219821115611d9057611d90611d32565b500190565b600060208284031215611da757600080fd5b5051919050565b6000600019821415611dc257611dc2611d32565b5060010190565b600082611de657634e487b7160e01b600052601260045260246000fd5b500490565b600060208284031215611dfd57600080fd5b81516117158161190f565b600080600080600080600080610100898b031215611e2557600080fd5b885197506020890151965060408901519550606089015194506080890151935060a0890151925060c0890151611e5a81611bcc565b8092505060e089015190509295985092959890939650565b60008060408385031215611e8557600080fd5b8251611e9081611bcc565b6020939093015192949293505050565b600082821015611eb257611eb2611d32565b500390565b600181815b80851115611ef2578160001904821115611ed857611ed8611d32565b80851615611ee557918102915b93841c9390800290611ebc565b509250929050565b600082611f0957506001610788565b81611f1657506000610788565b8160018114611f2c5760028114611f3657611f52565b6001915050610788565b60ff841115611f4757611f47611d32565b50506001821b610788565b5060208310610133831016604e8410600b8410161715611f75575081810a610788565b611f7f8383611eb7565b8060001904821115611f9357611f93611d32565b029392505050565b60006117158383611efa56fea2646970667358221220c40e00759e938fc5a01f36b366e99a9beeb023ff57220c6aa864d27b2d83fbc064736f6c634300080a0033"
}