{
  "address": "0x3BF50Ab3d7798991C3b792E80c658989dA358404",
  "abi": [
    {
      "anonymous": false,
      "inputs": [
        {
          "indexed": false,
          "internalType": "address",
          "name": "_depositor",
          "type": "address"
        },
        {
          "indexed": false,
          "internalType": "uint256",
          "name": "_amount",
          "type": "uint256"
        }
      ],
      "name": "DepositWETH",
      "type": "event"
    },
    {
      "anonymous": false,
      "inputs": [
        {
          "indexed": false,
          "internalType": "address",
          "name": "_redeemer",
          "type": "address"
        },
        {
          "indexed": false,
          "internalType": "address",
          "name": "_ndol",
          "type": "address"
        },
        {
          "indexed": false,
          "internalType": "uint256",
          "name": "_redemptionAmount",
          "type": "uint256"
        },
        {
          "indexed": false,
          "internalType": "address",
          "name": "_weth",
          "type": "address"
        },
        {
          "indexed": false,
          "internalType": "uint256",
          "name": "_wethReturned",
          "type": "uint256"
        }
      ],
      "name": "RedeemNdol",
      "type": "event"
    },
    {
      "anonymous": false,
      "inputs": [
        {
          "indexed": false,
          "internalType": "address",
          "name": "_redeemer",
          "type": "address"
        },
        {
          "indexed": false,
          "internalType": "address",
          "name": "_nNecc",
          "type": "address"
        },
        {
          "indexed": false,
          "internalType": "uint256",
          "name": "_redemptionAmount",
          "type": "uint256"
        },
        {
          "indexed": false,
          "internalType": "address",
          "name": "_weth",
          "type": "address"
        },
        {
          "indexed": false,
          "internalType": "uint256",
          "name": "_wethReturned",
          "type": "uint256"
        }
      ],
      "name": "RedeemnNecc",
      "type": "event"
    },
    {
      "anonymous": false,
      "inputs": [
        {
          "indexed": false,
          "internalType": "address",
          "name": "_withdrawer",
          "type": "address"
        },
        {
          "indexed": false,
          "internalType": "uint256",
          "name": "_amount",
          "type": "uint256"
        }
      ],
      "name": "WithdrawWETH",
      "type": "event"
    },
    {
      "inputs": [
        {
          "internalType": "uint256",
          "name": "_amount",
          "type": "uint256"
        }
      ],
      "name": "depositWETH",
      "outputs": [],
      "stateMutability": "nonpayable",
      "type": "function"
    },
    {
      "inputs": [
        {
          "internalType": "address",
          "name": "_weth",
          "type": "address"
        },
        {
          "internalType": "address",
          "name": "_ndol",
          "type": "address"
        },
        {
          "internalType": "address",
          "name": "_nNecc",
          "type": "address"
        },
        {
          "internalType": "uint256",
          "name": "_ndolRedemptionRatio",
          "type": "uint256"
        },
        {
          "internalType": "uint256",
          "name": "_nNeccFloorPrice",
          "type": "uint256"
        },
        {
          "internalType": "uint256",
          "name": "_wethPrice",
          "type": "uint256"
        }
      ],
      "name": "initialize",
      "outputs": [],
      "stateMutability": "nonpayable",
      "type": "function"
    },
    {
      "inputs": [
        {
          "internalType": "uint256",
          "name": "_redemptionAmount",
          "type": "uint256"
        }
      ],
      "name": "redeemNdol",
      "outputs": [],
      "stateMutability": "nonpayable",
      "type": "function"
    },
    {
      "inputs": [
        {
          "internalType": "uint256",
          "name": "_redemptionAmount",
          "type": "uint256"
        }
      ],
      "name": "redeemnNecc",
      "outputs": [],
      "stateMutability": "nonpayable",
      "type": "function"
    },
    {
      "inputs": [
        {
          "internalType": "uint256",
          "name": "_amount",
          "type": "uint256"
        }
      ],
      "name": "withdrawWETH",
      "outputs": [],
      "stateMutability": "nonpayable",
      "type": "function"
    }
  ],
  "transactionHash": "0x14034ee20b1b17d5ad0bd3a595d6a8156d4ca0928afd65ccae64cf0d9a16b6f0",
  "args": [],
  "solcInputHash": "c93f29f2fdbfdca48ba330a736e3acc3",
  "bytecode": "0x608060405234801561001057600080fd5b5061133e806100206000396000f3fe608060405234801561001057600080fd5b50600436106100675760003560e01c8063728cdbca11610050578063728cdbca14610094578063f09e9705146100a7578063fc4dd333146100ba57600080fd5b8063010460791461006c57806366dd0f2414610081575b600080fd5b61007f61007a36600461101f565b6100cd565b005b61007f61008f36600461101f565b6102b0565b61007f6100a2366004611054565b6104b2565b61007f6100b536600461101f565b610866565b61007f6100c836600461101f565b610a2f565b7f28be8ffbb5311693bc0912cb60de0eac746012ab1c52ae14c4c8d2a8dc77dfe7547f28be8ffbb5311693bc0912cb60de0eac746012ab1c52ae14c4c8d2a8dc77dfe590610126906001600160a01b0316333085610bd7565b600061014a600a610144846005015486610c8e90919063ffffffff16565b90610ca3565b90506000610165836003015483610ca390919063ffffffff16565b83546040516370a0823160e01b815230600482015291925082916001600160a01b03909116906370a0823190602401602060405180830381865afa1580156101b1573d6000803e3d6000fd5b505050506040513d601f19601f820116820180604052508101906101d591906110b3565b10156102345760405162461bcd60e51b815260206004820152602360248201527f526564656d7074696f6e3a206661696c656420746f207472616e73666572205760448201526208aa8960eb1b60648201526084015b60405180910390fd5b825461024a906001600160a01b03163383610caf565b60028301548354604080513381526001600160a01b03938416602082015290810187905291166060820152608081018290527f7e641c1a934dcb7da5bb4558875c6d84d8721ba7561ced13f72de61a03e8b0999060a0015b60405180910390a150505050565b6102b8610cfd565b7f28be8ffbb5311693bc0912cb60de0eac746012ab1c52ae14c4c8d2a8dc77dfe58054604080517f313ce5670000000000000000000000000000000000000000000000000000000081529051600092610378926001600160a01b039091169163313ce567916004808201926020929091908290030181865afa158015610342573d6000803e3d6000fd5b505050506040513d601f19601f8201168201806040525081019061036691906110cc565b61037190600a611202565b8490610c8e565b82546040516370a0823160e01b815233600482015291925082916001600160a01b03909116906370a0823190602401602060405180830381865afa1580156103c4573d6000803e3d6000fd5b505050506040513d601f19601f820116820180604052508101906103e891906110b3565b101561045c5760405162461bcd60e51b815260206004820152602260248201527f526564656d7074696f6e3a206661696c656420746f206465706f73697420574560448201527f5448000000000000000000000000000000000000000000000000000000000000606482015260840161022b565b8154610473906001600160a01b0316333084610bd7565b60408051338152602081018390527fcfb322fad1e2497f3594a6acc3399f4389fac8d73b7e41090ddced771b13199b91015b60405180910390a1505050565b6104ba610cfd565b6001600160a01b0386166105105760405162461bcd60e51b815260206004820181905260248201527f526564656d7074696f6e3a20696e76616c696420574554482061646472657373604482015260640161022b565b6001600160a01b03851661058c5760405162461bcd60e51b815260206004820152602160248201527f526564656d7074696f6e3a20696e76616c6964205f6e646f6c2061646472657360448201527f7300000000000000000000000000000000000000000000000000000000000000606482015260840161022b565b6001600160a01b0384166106085760405162461bcd60e51b815260206004820152602260248201527f526564656d7074696f6e3a20696e76616c6964205f6e4e65636320616464726560448201527f7373000000000000000000000000000000000000000000000000000000000000606482015260840161022b565b600a831061067e5760405162461bcd60e51b815260206004820152602760248201527f526564656d7074696f6e3a20696e76616c6964206e646f6c526564656d70746960448201527f6f6e526174696f00000000000000000000000000000000000000000000000000606482015260840161022b565b6103e882106106f45760405162461bcd60e51b8152602060048201526024808201527f526564656d7074696f6e3a20696e76616c6964205f6e4e656363466c6f6f725060448201527f7269636500000000000000000000000000000000000000000000000000000000606482015260840161022b565b610fa081106107455760405162461bcd60e51b815260206004820152601e60248201527f526564656d7074696f6e3a20696e76616c6964205f7765746850726963650000604482015260640161022b565b7f28be8ffbb5311693bc0912cb60de0eac746012ab1c52ae14c4c8d2a8dc77dfe580547fffffffffffffffffffffffff00000000000000000000000000000000000000009081166001600160a01b03988916179091557f28be8ffbb5311693bc0912cb60de0eac746012ab1c52ae14c4c8d2a8dc77dfe780548216968816969096179095557f28be8ffbb5311693bc0912cb60de0eac746012ab1c52ae14c4c8d2a8dc77dfe6805490951693909516929092179092557f28be8ffbb5311693bc0912cb60de0eac746012ab1c52ae14c4c8d2a8dc77dfea919091557f28be8ffbb5311693bc0912cb60de0eac746012ab1c52ae14c4c8d2a8dc77dfe9557f28be8ffbb5311693bc0912cb60de0eac746012ab1c52ae14c4c8d2a8dc77dfe855565b7f28be8ffbb5311693bc0912cb60de0eac746012ab1c52ae14c4c8d2a8dc77dfe6547f28be8ffbb5311693bc0912cb60de0eac746012ab1c52ae14c4c8d2a8dc77dfe5906108bf906001600160a01b0316333085610bd7565b60006108d8826004015484610c8e90919063ffffffff16565b905060006108f3836003015483610ca390919063ffffffff16565b83546040516370a0823160e01b815230600482015291925082916001600160a01b03909116906370a0823190602401602060405180830381865afa15801561093f573d6000803e3d6000fd5b505050506040513d601f19601f8201168201806040525081019061096391906110b3565b10156109bd5760405162461bcd60e51b815260206004820152602360248201527f526564656d7074696f6e3a206661696c656420746f207472616e73666572205760448201526208aa8960eb1b606482015260840161022b565b82546109d3906001600160a01b03163383610caf565b60018301548354604080513381526001600160a01b03938416602082015290810187905291166060820152608081018290527ff837d91dc519c4ecbd2ab29629fffde1d30129bd0b978e3b605bc96c6096dcb89060a0016102a2565b610a37610cfd565b7f28be8ffbb5311693bc0912cb60de0eac746012ab1c52ae14c4c8d2a8dc77dfe58054604080517f313ce5670000000000000000000000000000000000000000000000000000000081529051600092610ac1926001600160a01b039091169163313ce567916004808201926020929091908290030181865afa158015610342573d6000803e3d6000fd5b82546040516370a0823160e01b815230600482015291925082916001600160a01b03909116906370a0823190602401602060405180830381865afa158015610b0d573d6000803e3d6000fd5b505050506040513d601f19601f82011682018060405250810190610b3191906110b3565b1015610b8b5760405162461bcd60e51b815260206004820152602360248201527f526564656d7074696f6e3a206661696c656420746f207769746864726177205760448201526208aa8960eb1b606482015260840161022b565b8154610ba1906001600160a01b03163383610caf565b60408051338152602081018390527f3bf4596a6f108248534598ed9782e48c7abd1ff9398b5ffef44b7764936a4b1b91016104a5565b6040516001600160a01b0380851660248301528316604482015260648101829052610c889085907f23b872dd00000000000000000000000000000000000000000000000000000000906084015b60408051601f198184030181529190526020810180517bffffffffffffffffffffffffffffffffffffffffffffffffffffffff167fffffffff0000000000000000000000000000000000000000000000000000000090931692909217909152610d07565b50505050565b6000610c9a8284611211565b90505b92915050565b6000610c9a8284611230565b6040516001600160a01b038316602482015260448101829052610cf89084907fa9059cbb0000000000000000000000000000000000000000000000000000000090606401610c24565b505050565b610d05610dec565b565b6000610d5c826040518060400160405280602081526020017f5361666545524332303a206c6f772d6c6576656c2063616c6c206661696c6564815250856001600160a01b0316610e8e9092919063ffffffff16565b805190915015610cf85780806020019051810190610d7a919061126b565b610cf85760405162461bcd60e51b815260206004820152602a60248201527f5361666545524332303a204552433230206f7065726174696f6e20646964206e60448201527f6f74207375636365656400000000000000000000000000000000000000000000606482015260840161022b565b7fc8fcad8db84d3cc18b4c41d551ea0ee66dd599cde068d998e57d5e09332c131c600401546001600160a01b03163314610d055760405162461bcd60e51b815260206004820152602260248201527f4c69624469616d6f6e643a20696e76616c696420636f6e7472616374206f776e60448201527f6572000000000000000000000000000000000000000000000000000000000000606482015260840161022b565b6060610e9d8484600085610ea7565b90505b9392505050565b606082471015610f1f5760405162461bcd60e51b815260206004820152602660248201527f416464726573733a20696e73756666696369656e742062616c616e636520666f60448201527f722063616c6c0000000000000000000000000000000000000000000000000000606482015260840161022b565b843b610f6d5760405162461bcd60e51b815260206004820152601d60248201527f416464726573733a2063616c6c20746f206e6f6e2d636f6e7472616374000000604482015260640161022b565b600080866001600160a01b03168587604051610f8991906112b9565b60006040518083038185875af1925050503d8060008114610fc6576040519150601f19603f3d011682016040523d82523d6000602084013e610fcb565b606091505b5091509150610fdb828286610fe6565b979650505050505050565b60608315610ff5575081610ea0565b8251156110055782518084602001fd5b8160405162461bcd60e51b815260040161022b91906112d5565b60006020828403121561103157600080fd5b5035919050565b80356001600160a01b038116811461104f57600080fd5b919050565b60008060008060008060c0878903121561106d57600080fd5b61107687611038565b955061108460208801611038565b945061109260408801611038565b9350606087013592506080870135915060a087013590509295509295509295565b6000602082840312156110c557600080fd5b5051919050565b6000602082840312156110de57600080fd5b815160ff81168114610ea057600080fd5b7f4e487b7100000000000000000000000000000000000000000000000000000000600052601160045260246000fd5b600181815b8085111561115957816000190482111561113f5761113f6110ef565b8085161561114c57918102915b93841c9390800290611123565b509250929050565b60008261117057506001610c9d565b8161117d57506000610c9d565b8160018114611193576002811461119d576111b9565b6001915050610c9d565b60ff8411156111ae576111ae6110ef565b50506001821b610c9d565b5060208310610133831016604e8410600b84101617156111dc575081810a610c9d565b6111e6838361111e565b80600019048211156111fa576111fa6110ef565b029392505050565b6000610c9a60ff841683611161565b600081600019048311821515161561122b5761122b6110ef565b500290565b600082611266577f4e487b7100000000000000000000000000000000000000000000000000000000600052601260045260246000fd5b500490565b60006020828403121561127d57600080fd5b81518015158114610ea057600080fd5b60005b838110156112a8578181015183820152602001611290565b83811115610c885750506000910152565b600082516112cb81846020870161128d565b9190910192915050565b60208152600082518060208401526112f481604085016020870161128d565b601f01601f1916919091016040019291505056fea2646970667358221220524b41d6c54e0d1d29b43af3fb64f2ab6eb1c12021d5d4cfe1a2c92ec83cf9ca64736f6c634300080a0033",
  "devdoc": {
    "kind": "dev",
    "methods": {},
    "version": 1
  },
  "userdoc": {
    "kind": "user",
    "methods": {},
    "version": 1
  },
  "storageLayout": {
    "storage": [],
    "types": null
  }
}