{
  "address": "0xB23D8eccCa2Ee2d096EAF488f85e005DdDA0A6f8",
  "abi": [
    {
      "anonymous": false,
      "inputs": [
        {
          "indexed": false,
          "internalType": "address",
          "name": "account",
          "type": "address"
        },
        {
          "indexed": false,
          "internalType": "address",
          "name": "tokenIn",
          "type": "address"
        },
        {
          "indexed": false,
          "internalType": "address",
          "name": "tokenOut",
          "type": "address"
        },
        {
          "indexed": false,
          "internalType": "uint256",
          "name": "amountIn",
          "type": "uint256"
        },
        {
          "indexed": false,
          "internalType": "uint256",
          "name": "amountOut",
          "type": "uint256"
        }
      ],
      "name": "Swap",
      "type": "event"
    },
    {
      "inputs": [
        {
          "internalType": "address",
          "name": "_collateralToken",
          "type": "address"
        },
        {
          "internalType": "address",
          "name": "_indexToken",
          "type": "address"
        },
        {
          "internalType": "uint256",
          "name": "_collateralDelta",
          "type": "uint256"
        },
        {
          "internalType": "uint256",
          "name": "_sizeDelta",
          "type": "uint256"
        },
        {
          "internalType": "bool",
          "name": "_isLong",
          "type": "bool"
        },
        {
          "internalType": "address",
          "name": "_receiver",
          "type": "address"
        },
        {
          "internalType": "uint256",
          "name": "_price",
          "type": "uint256"
        }
      ],
      "name": "decreasePosition",
      "outputs": [],
      "stateMutability": "nonpayable",
      "type": "function"
    },
    {
      "inputs": [
        {
          "internalType": "address",
          "name": "_collateralToken",
          "type": "address"
        },
        {
          "internalType": "address",
          "name": "_indexToken",
          "type": "address"
        },
        {
          "internalType": "uint256",
          "name": "_collateralDelta",
          "type": "uint256"
        },
        {
          "internalType": "uint256",
          "name": "_sizeDelta",
          "type": "uint256"
        },
        {
          "internalType": "bool",
          "name": "_isLong",
          "type": "bool"
        },
        {
          "internalType": "address payable",
          "name": "_receiver",
          "type": "address"
        },
        {
          "internalType": "uint256",
          "name": "_price",
          "type": "uint256"
        }
      ],
      "name": "decreasePositionETH",
      "outputs": [],
      "stateMutability": "nonpayable",
      "type": "function"
    },
    {
      "inputs": [
        {
          "internalType": "address",
          "name": "_token",
          "type": "address"
        },
        {
          "internalType": "uint256",
          "name": "_amount",
          "type": "uint256"
        }
      ],
      "name": "directPoolDeposit",
      "outputs": [],
      "stateMutability": "nonpayable",
      "type": "function"
    },
    {
      "inputs": [
        {
          "internalType": "address[]",
          "name": "_path",
          "type": "address[]"
        },
        {
          "internalType": "address",
          "name": "_indexToken",
          "type": "address"
        },
        {
          "internalType": "uint256",
          "name": "_amountIn",
          "type": "uint256"
        },
        {
          "internalType": "uint256",
          "name": "_minOut",
          "type": "uint256"
        },
        {
          "internalType": "uint256",
          "name": "_sizeDelta",
          "type": "uint256"
        },
        {
          "internalType": "bool",
          "name": "_isLong",
          "type": "bool"
        },
        {
          "internalType": "uint256",
          "name": "_price",
          "type": "uint256"
        }
      ],
      "name": "increasePosition",
      "outputs": [],
      "stateMutability": "nonpayable",
      "type": "function"
    },
    {
      "inputs": [
        {
          "internalType": "address[]",
          "name": "_path",
          "type": "address[]"
        },
        {
          "internalType": "address",
          "name": "_indexToken",
          "type": "address"
        },
        {
          "internalType": "uint256",
          "name": "_minOut",
          "type": "uint256"
        },
        {
          "internalType": "uint256",
          "name": "_sizeDelta",
          "type": "uint256"
        },
        {
          "internalType": "bool",
          "name": "_isLong",
          "type": "bool"
        },
        {
          "internalType": "uint256",
          "name": "_price",
          "type": "uint256"
        }
      ],
      "name": "increasePositionETH",
      "outputs": [],
      "stateMutability": "payable",
      "type": "function"
    },
    {
      "inputs": [
        {
          "internalType": "address[]",
          "name": "_path",
          "type": "address[]"
        },
        {
          "internalType": "uint256",
          "name": "_amountIn",
          "type": "uint256"
        },
        {
          "internalType": "uint256",
          "name": "_minOut",
          "type": "uint256"
        },
        {
          "internalType": "address",
          "name": "_receiver",
          "type": "address"
        }
      ],
      "name": "swap",
      "outputs": [],
      "stateMutability": "nonpayable",
      "type": "function"
    },
    {
      "inputs": [
        {
          "internalType": "address[]",
          "name": "_path",
          "type": "address[]"
        },
        {
          "internalType": "uint256",
          "name": "_minOut",
          "type": "uint256"
        },
        {
          "internalType": "address",
          "name": "_receiver",
          "type": "address"
        }
      ],
      "name": "swapETHToTokens",
      "outputs": [],
      "stateMutability": "payable",
      "type": "function"
    },
    {
      "inputs": [
        {
          "internalType": "address[]",
          "name": "_path",
          "type": "address[]"
        },
        {
          "internalType": "uint256",
          "name": "_amountIn",
          "type": "uint256"
        },
        {
          "internalType": "uint256",
          "name": "_minOut",
          "type": "uint256"
        },
        {
          "internalType": "address payable",
          "name": "_receiver",
          "type": "address"
        }
      ],
      "name": "swapTokensToETH",
      "outputs": [],
      "stateMutability": "nonpayable",
      "type": "function"
    },
    {
      "stateMutability": "payable",
      "type": "receive"
    }
  ],
  "transactionHash": "0x6e5ab9e7206cea8e332b216c0ed29e9123dd2bace30d7c453101257a04b65d2e",
  "args": [],
  "solcInputHash": "3eaa60900aa3645d33da66d6a3192a13",
  "bytecode": "0x608060405234801561001057600080fd5b506000805460ff191690556118718061002a6000396000f3fe60806040526004361061007f5760003560e01c806390b64ad31161004e57806390b64ad31461016a578063abe68eaa1461018a578063b32755de1461019d578063b7ddc992146101b057600080fd5b80632d4ba6a7146100ea578063430ed37c1461010a5780636023e9661461012a57806390205d8c1461014a57600080fd5b366100e5576001546001600160a01b031633146100e35760405162461bcd60e51b815260206004820152601660248201527f526f757465723a20696e76616c69642073656e6465720000000000000000000060448201526064015b60405180910390fd5b005b600080fd5b3480156100f657600080fd5b506100e36101053660046114e8565b6101d0565b34801561011657600080fd5b506100e3610125366004611559565b610369565b34801561013657600080fd5b506100e36101453660046114e8565b610394565b34801561015657600080fd5b506100e3610165366004611559565b6103e3565b34801561017657600080fd5b506100e36101853660046115d4565b6103f4565b6100e3610198366004611600565b61047f565b6100e36101ab36600461165b565b6105ce565b3480156101bc57600080fd5b506100e36101cb3660046116db565b610700565b6001805485516001600160a01b039091169186916101ee919061174f565b815181106101fe576101fe611774565b60200260200101516001600160a01b03161461025c5760405162461bcd60e51b815260206004820152601560248201527f526f757465723a20696e76616c6964205f70617468000000000000000000000060448201526064016100da565b610297335b30858760008151811061027657610276611774565b60200260200101516001600160a01b031661079a909392919063ffffffff16565b60006102a66000868530610851565b90506102b460008284610901565b7fcd3829a3813dc3cdd188fd3d01dcf3268c16be2fdd2dd21d0665418816e4606233866000815181106102e9576102e9611774565b60200260200101518760018951610300919061174f565b8151811061031057610310611774565b6020026020010151878560405161035a9594939291906001600160a01b03958616815293851660208501529190931660408301526060820192909252608081019190915260a00190565b60405180910390a15050505050565b600061037c60008989898989308961098a565b905061038a60008285610901565b5050505050505050565b61039d33610261565b60006103ac6000868585610851565b90507fcd3829a3813dc3cdd188fd3d01dcf3268c16be2fdd2dd21d0665418816e4606233866000815181106102e9576102e9611774565b61038a60008888888888888861098a565b6104096001600160a01b03831633308461079a565b6040517f5f7bc1190000000000000000000000000000000000000000000000000000000081526001600160a01b03831660048201523090635f7bc11990602401600060405180830381600087803b15801561046357600080fd5b505af1158015610477573d6000803e3d6000fd5b505050505050565b60015483516001600160a01b039091169084906000906104a1576104a1611774565b60200260200101516001600160a01b0316146104ff5760405162461bcd60e51b815260206004820152601f60248201527f526f757465723a2077657468206e6f7420666972737420696e205f706174680060448201526064016100da565b6105096000610b7d565b60006105186000858585610851565b90507fcd3829a3813dc3cdd188fd3d01dcf3268c16be2fdd2dd21d0665418816e46062338560008151811061054f5761054f611774565b60200260200101518660018851610566919061174f565b8151811061057657610576611774565b602002602001015134856040516105c09594939291906001600160a01b03958616815293851660208501529190931660408301526060820192909252608081019190915260a00190565b60405180910390a150505050565b60015486516001600160a01b039091169087906000906105f0576105f0611774565b60200260200101516001600160a01b03161461064e5760405162461bcd60e51b815260206004820152601560248201527f526f757465723a20696e76616c6964205f70617468000000000000000000000060448201526064016100da565b341561065e5761065e6000610b7d565b6001865111801561066f5750600034115b156106cb5760006106836000888730610851565b90506106c930828960018b51610699919061174f565b815181106106a9576106a9611774565b60200260200101516001600160a01b0316610c049092919063ffffffff16565b505b610477600087600189516106df919061174f565b815181106106ef576106ef611774565b602002602001015187868686610c4d565b841561071f5761071f3330878a60008151811061027657610276611774565b600187511180156107305750600085115b1561075c5760006107446000898730610851565b905061075a30828a60018c51610699919061174f565b505b61079160008860018a51610770919061174f565b8151811061078057610780611774565b602002602001015188868686610c4d565b50505050505050565b6040516001600160a01b038085166024830152831660448201526064810182905261084b9085907f23b872dd00000000000000000000000000000000000000000000000000000000906084015b60408051601f198184030181529190526020810180517bffffffffffffffffffffffffffffffffffffffffffffffffffffffff167fffffffff0000000000000000000000000000000000000000000000000000000090931692909217909152610e16565b50505050565b60008351600214156108b1576108aa8460008151811061087357610873611774565b60200260200101518560018151811061088e5761088e611774565b6020026020010151858589610efb90949392919063ffffffff16565b90506108f9565b60405162461bcd60e51b815260206004820152601c60248201527f526f757465723a20696e76616c6964205f706174682e6c656e6774680000000060448201526064016100da565b949350505050565b60018301546040517f2e1a7d4d000000000000000000000000000000000000000000000000000000008152600481018490526001600160a01b0390911690632e1a7d4d90602401600060405180830381600087803b15801561096257600080fd5b505af1158015610976573d6000803e3d6000fd5b50505050610985838284611100565b505050565b60008315610a2757816109ae888b60020160149054906101000a900460ff16611219565b1015610a225760405162461bcd60e51b815260206004820152602360248201527f526f757465723a206d61726b207072696365206c6f776572207468616e206c6960448201527f6d6974000000000000000000000000000000000000000000000000000000000060648201526084016100da565b610ab6565b81610a43888b60020160149054906101000a900460ff166112b4565b1115610ab65760405162461bcd60e51b8152602060048201526024808201527f526f757465723a206d61726b20707269636520686967686572207468616e206c60448201527f696d69740000000000000000000000000000000000000000000000000000000060648201526084016100da565b6000306382a08490336040517fffffffff0000000000000000000000000000000000000000000000000000000060e084901b1681526001600160a01b039182166004820152818d166024820152818c166044820152606481018b9052608481018a905288151560a482015290871660c482015260e4016020604051808303816000875af1158015610b4b573d6000803e3d6000fd5b505050506040513d601f19601f82011682018060405250810190610b6f919061178a565b9a9950505050505050505050565b8060010160009054906101000a90046001600160a01b03166001600160a01b031663d0e30db0346040518263ffffffff1660e01b81526004016000604051808303818588803b158015610bcf57600080fd5b505af1158015610be3573d6000803e3d6000fd5b505050506001820154610c0191506001600160a01b03163034610c04565b50565b6040516001600160a01b0383166024820152604481018290526109859084907fa9059cbb00000000000000000000000000000000000000000000000000000000906064016107e7565b8115610ce75780610c6f858860020160149054906101000a900460ff166112b4565b1115610ce25760405162461bcd60e51b8152602060048201526024808201527f526f757465723a206d61726b20707269636520686967686572207468616e206c60448201527f696d69740000000000000000000000000000000000000000000000000000000060648201526084016100da565b610d77565b80610d03858860020160149054906101000a900460ff16611219565b1015610d775760405162461bcd60e51b815260206004820152602360248201527f526f757465723a206d61726b207072696365206c6f776572207468616e206c6960448201527f6d6974000000000000000000000000000000000000000000000000000000000060648201526084016100da565b306348d91abf336040517fffffffff0000000000000000000000000000000000000000000000000000000060e084901b1681526001600160a01b0391821660048201528189166024820152908716604482015260648101869052841515608482015260a401600060405180830381600087803b158015610df657600080fd5b505af1158015610e0a573d6000803e3d6000fd5b50505050505050505050565b6000610e6b826040518060400160405280602081526020017f5361666545524332303a206c6f772d6c6576656c2063616c6c206661696c6564815250856001600160a01b031661130b9092919063ffffffff16565b8051909150156109855780806020019051810190610e8991906117a3565b6109855760405162461bcd60e51b815260206004820152602a60248201527f5361666545524332303a204552433230206f7065726174696f6e20646964206e60448201527f6f7420737563636565640000000000000000000000000000000000000000000060648201526084016100da565b600285015460009081906001600160a01b0386811691161415610fab576040517fac1a91e40000000000000000000000000000000000000000000000000000000081526001600160a01b03808816600483015284166024820152309063ac1a91e4906044015b6020604051808303816000875af1158015610f80573d6000803e3d6000fd5b505050506040513d601f19601f82011682018060405250810190610fa4919061178a565b90506110a6565b60028701546001600160a01b0387811691161415611010576040517f7c1fb3170000000000000000000000000000000000000000000000000000000081526001600160a01b038087166004830152841660248201523090637c1fb31790604401610f61565b6040517f933162120000000000000000000000000000000000000000000000000000000081526001600160a01b03808816600483015280871660248301528416604482015230906393316212906064016020604051808303816000875af115801561107f573d6000803e3d6000fd5b505050506040513d601f19601f820116820180604052508101906110a3919061178a565b90505b838110156110f65760405162461bcd60e51b815260206004820152601e60248201527f526f757465723a20696e73756666696369656e7420616d6f756e744f7574000060448201526064016100da565b9695505050505050565b804710156111505760405162461bcd60e51b815260206004820152601d60248201527f416464726573733a20696e73756666696369656e742062616c616e636500000060448201526064016100da565b6000826001600160a01b03168260405160006040518083038185875af1925050503d806000811461119d576040519150601f19603f3d011682016040523d82523d6000602084013e6111a2565b606091505b505090508061084b5760405162461bcd60e51b815260206004820152603c60248201527f416464726573733a20756e61626c6520746f2073656e642076616c75652c205f60448201527f63726563697069656e74206d617920686176652072657665727465640000000060648201526084016100da565b6040517f5ae691630000000000000000000000000000000000000000000000000000000081526001600160a01b03831660048201526000602482018190528215156044830152903090635ae69163906064015b602060405180830381865afa158015611289573d6000803e3d6000fd5b505050506040513d601f19601f820116820180604052508101906112ad919061178a565b9392505050565b6040517f5ae691630000000000000000000000000000000000000000000000000000000081526001600160a01b03831660048201526001602482015281151560448201526000903090635ae691639060640161126c565b60606108f9848460008585843b6113645760405162461bcd60e51b815260206004820152601d60248201527f416464726573733a2063616c6c20746f206e6f6e2d636f6e747261637400000060448201526064016100da565b600080866001600160a01b0316858760405161138091906117ec565b60006040518083038185875af1925050503d80600081146113bd576040519150601f19603f3d011682016040523d82523d6000602084013e6113c2565b606091505b50915091506113d28282866113dd565b979650505050505050565b606083156113ec5750816112ad565b8251156113fc5782518084602001fd5b8160405162461bcd60e51b81526004016100da9190611808565b634e487b7160e01b600052604160045260246000fd5b6001600160a01b0381168114610c0157600080fd5b803561144c8161142c565b919050565b600082601f83011261146257600080fd5b8135602067ffffffffffffffff8083111561147f5761147f611416565b8260051b604051601f19603f830116810181811084821117156114a4576114a4611416565b6040529384528581018301938381019250878511156114c257600080fd5b83870191505b848210156113d2576114d982611441565b835291830191908301906114c8565b600080600080608085870312156114fe57600080fd5b843567ffffffffffffffff81111561151557600080fd5b61152187828801611451565b945050602085013592506040850135915060608501356115408161142c565b939692955090935050565b8015158114610c0157600080fd5b600080600080600080600060e0888a03121561157457600080fd5b873561157f8161142c565b9650602088013561158f8161142c565b9550604088013594506060880135935060808801356115ad8161154b565b925060a08801356115bd8161142c565b8092505060c0880135905092959891949750929550565b600080604083850312156115e757600080fd5b82356115f28161142c565b946020939093013593505050565b60008060006060848603121561161557600080fd5b833567ffffffffffffffff81111561162c57600080fd5b61163886828701611451565b9350506020840135915060408401356116508161142c565b809150509250925092565b60008060008060008060c0878903121561167457600080fd5b863567ffffffffffffffff81111561168b57600080fd5b61169789828a01611451565b96505060208701356116a88161142c565b9450604087013593506060870135925060808701356116c68161154b565b8092505060a087013590509295509295509295565b600080600080600080600060e0888a0312156116f657600080fd5b873567ffffffffffffffff81111561170d57600080fd5b6117198a828b01611451565b975050602088013561172a8161142c565b955060408801359450606088013593506080880135925060a08801356115bd8161154b565b60008282101561176f57634e487b7160e01b600052601160045260246000fd5b500390565b634e487b7160e01b600052603260045260246000fd5b60006020828403121561179c57600080fd5b5051919050565b6000602082840312156117b557600080fd5b81516112ad8161154b565b60005b838110156117db5781810151838201526020016117c3565b8381111561084b5750506000910152565b600082516117fe8184602087016117c0565b9190910192915050565b60208152600082518060208401526118278160408501602087016117c0565b601f01601f1916919091016040019291505056fea26469706673582212207570a07d0c0cdf85ecb5ca49715a7bb1c546a33d8004d0356c3fcff797e1ff0a64736f6c634300080a0033"
}