{
  "address": "0x8fc2f0ccA64d7e232aeCd405B9c9AdEc7E6fa9b7",
  "abi": [
    {
      "inputs": [
        {
          "internalType": "address",
          "name": "_recipient",
          "type": "address"
        }
      ],
      "name": "claim",
      "outputs": [],
      "stateMutability": "nonpayable",
      "type": "function"
    },
    {
      "inputs": [],
      "name": "contractBalance",
      "outputs": [
        {
          "internalType": "uint256",
          "name": "",
          "type": "uint256"
        }
      ],
      "stateMutability": "view",
      "type": "function"
    },
    {
      "inputs": [],
      "name": "epoch",
      "outputs": [
        {
          "components": [
            {
              "internalType": "uint256",
              "name": "number",
              "type": "uint256"
            },
            {
              "internalType": "uint256",
              "name": "distribute",
              "type": "uint256"
            },
            {
              "internalType": "uint256",
              "name": "length",
              "type": "uint256"
            },
            {
              "internalType": "uint256",
              "name": "endTime",
              "type": "uint256"
            }
          ],
          "internalType": "struct LibBondStorage.Epoch",
          "name": "",
          "type": "tuple"
        }
      ],
      "stateMutability": "view",
      "type": "function"
    },
    {
      "inputs": [],
      "name": "forfeit",
      "outputs": [],
      "stateMutability": "nonpayable",
      "type": "function"
    },
    {
      "inputs": [],
      "name": "index",
      "outputs": [
        {
          "internalType": "uint256",
          "name": "",
          "type": "uint256"
        }
      ],
      "stateMutability": "view",
      "type": "function"
    },
    {
      "inputs": [],
      "name": "rebase",
      "outputs": [],
      "stateMutability": "nonpayable",
      "type": "function"
    },
    {
      "inputs": [
        {
          "internalType": "uint256",
          "name": "_amount",
          "type": "uint256"
        },
        {
          "internalType": "address",
          "name": "_recipient",
          "type": "address"
        }
      ],
      "name": "stake",
      "outputs": [
        {
          "internalType": "bool",
          "name": "",
          "type": "bool"
        }
      ],
      "stateMutability": "nonpayable",
      "type": "function"
    },
    {
      "inputs": [],
      "name": "supplyInWarmup",
      "outputs": [
        {
          "internalType": "uint256",
          "name": "",
          "type": "uint256"
        }
      ],
      "stateMutability": "view",
      "type": "function"
    },
    {
      "inputs": [],
      "name": "totalStaked",
      "outputs": [
        {
          "internalType": "uint256",
          "name": "",
          "type": "uint256"
        }
      ],
      "stateMutability": "view",
      "type": "function"
    },
    {
      "inputs": [
        {
          "internalType": "uint256",
          "name": "_amount",
          "type": "uint256"
        },
        {
          "internalType": "address",
          "name": "_recipient",
          "type": "address"
        }
      ],
      "name": "unstake",
      "outputs": [
        {
          "internalType": "uint256",
          "name": "amount_",
          "type": "uint256"
        }
      ],
      "stateMutability": "nonpayable",
      "type": "function"
    },
    {
      "inputs": [
        {
          "internalType": "address",
          "name": "_recipient",
          "type": "address"
        }
      ],
      "name": "warmupInfo",
      "outputs": [
        {
          "components": [
            {
              "internalType": "uint256",
              "name": "deposit",
              "type": "uint256"
            },
            {
              "internalType": "uint256",
              "name": "gons",
              "type": "uint256"
            },
            {
              "internalType": "uint256",
              "name": "expiry",
              "type": "uint256"
            },
            {
              "internalType": "bool",
              "name": "lock",
              "type": "bool"
            }
          ],
          "internalType": "struct LibBondStorage.Claim",
          "name": "",
          "type": "tuple"
        }
      ],
      "stateMutability": "view",
      "type": "function"
    }
  ],
  "transactionHash": "0x9f16e2317453b86cfa85401749a87d59486d792457a8fc5700989a91fcbf0bbb",
  "args": [],
  "solcInputHash": "00bf78e0b4cf7e7809f0756aa271ebf8",
  "bytecode": "0x608060405234801561001057600080fd5b506112e7806100206000396000f3fe608060405234801561001057600080fd5b50600436106100c95760003560e01c8063817b1cd211610081578063900cf0cf1161005b578063900cf0cf14610194578063af14052c146101cf578063f3d86e4a146101d757600080fd5b8063817b1cd2146101715780638381e182146101795780638b7afe2e1461018c57600080fd5b80632986c0e5116100b25780632986c0e5146100fe5780636746f4c2146101065780637acb77571461014e57600080fd5b80631e83409a146100ce57806320138641146100e3575b600080fd5b6100e16100dc36600461111d565b6101df565b005b6100eb6103c3565b6040519081526020015b60405180910390f35b6100eb610454565b61011961011436600461111d565b6104b7565b6040516100f5919081518152602080830151908201526040808301519082015260609182015115159181019190915260800190565b61016161015c366004611138565b610537565b60405190151581526020016100f5565b6100eb6107bf565b6100eb610187366004611138565b610822565b6100eb610948565b61019c610992565b6040516100f591908151815260208083015190820152604080830151908201526060918201519181019190915260800190565b6100e16109ea565b6100e1610b4f565b6001600160a01b0381166000908152601b602090815260409182902082516080810184528154815260018201549281019290925260028101549282019290925260039091015460ff161515606082018190526102b8576001600160a01b03821633146102b85760405162461bcd60e51b815260206004820152602660248201527f45787465726e616c20636c61696d7320666f72206163636f756e74206172652060448201527f6c6f636b6564000000000000000000000000000000000000000000000000000060648201526084015b60405180910390fd5b6040810151601354108015906102d15750604081015115155b156103bf576001600160a01b0382166000908152601b6020908152604082208281556001810183905560028101929092556003909101805460ff19169055810151601e5461031e91610be1565b601e5560015460208201516040517f7965d56d0000000000000000000000000000000000000000000000000000000081526103bd9285926001600160a01b0390911691637965d56d916103779160040190815260200190565b602060405180830381865afa158015610394573d6000803e3d6000fd5b505050506040513d601f19601f820116820180604052508101906103b89190611164565b610bf4565b505b5050565b600154601e546040517f7965d56d00000000000000000000000000000000000000000000000000000000815260048101919091526000916001600160a01b031690637965d56d906024015b602060405180830381865afa15801561042b573d6000803e3d6000fd5b505050506040513d601f19601f8201168201806040525081019061044f9190611164565b905090565b600154604080517f2986c0e500000000000000000000000000000000000000000000000000000000815290516000926001600160a01b031691632986c0e59160048083019260209291908290030181865afa15801561042b573d6000803e3d6000fd5b6104e460405180608001604052806000815260200160008152602001600081526020016000151581525090565b506001600160a01b03166000908152601b602090815260409182902082516080810184528154815260018201549281019290925260028101549282019290925260039091015460ff161515606082015290565b60008054610550906001600160a01b0316333086610d81565b601a54610567576105618284610bf4565b506107b5565b6001600160a01b0382166000908152601b602090815260409182902082516080810184528154815260018201549281019290925260028101549282019290925260039091015460ff1615801560608301526106045760405162461bcd60e51b815260206004820152601f60248201527f4465706f7369747320666f72206163636f756e7420617265206c6f636b65640060448201526064016102af565b60408051608081019091528151819061061d9087610e38565b81526001546040517f1bd39674000000000000000000000000000000000000000000000000000000008152600481018890526020909201916106b8916001600160a01b031690631bd3967490602401602060405180830381865afa158015610689573d6000803e3d6000fd5b505050506040513d601f19601f820116820180604052508101906106ad9190611164565b602085015190610e38565b8152601a546013546020909201916106cf91610e38565b8152600060209182018190526001600160a01b038681168252601b835260409182902084518155928401516001808501919091558483015160028501556060909401516003909301805460ff191693151593909317909255915491517f1bd39674000000000000000000000000000000000000000000000000000000008152600481018790526107b09290911690631bd3967490602401602060405180830381865afa158015610783573d6000803e3d6000fd5b505050506040513d601f19601f820116820180604052508101906107a79190611164565b601e5490610e38565b601e55505b5060015b92915050565b600154604080517f9358928b00000000000000000000000000000000000000000000000000000000815290516000926001600160a01b031691639358928b9160048083019260209291908290030181865afa15801561042b573d6000803e3d6000fd5b8161082b6109ea565b6002546040517f9dc29fac000000000000000000000000000000000000000000000000000000008152336004820152602481018590526001600160a01b0390911690639dc29fac90604401600060405180830381600087803b15801561089057600080fd5b505af11580156108a4573d6000803e3d6000fd5b50506002546040517fa8248768000000000000000000000000000000000000000000000000000000008152600481018590526001600160a01b03909116925063a82487689150602401602060405180830381865afa15801561090a573d6000803e3d6000fd5b505050506040513d601f19601f8201168201806040525081019061092e9190611164565b6000549091506107b9906001600160a01b03168383610e44565b600080546040517f70a082310000000000000000000000000000000000000000000000000000000081523060048201526001600160a01b03909116906370a082319060240161040e565b6109bd6040518060800160405280600081526020016000815260200160008152602001600081525090565b50604080516080810182526013548152601454602082015260155491810191909152601654606082015290565b6016544210610b4d576001546014546013546040517f058ecdb4000000000000000000000000000000000000000000000000000000008152600481019290925260248201526001600160a01b039091169063058ecdb4906044016020604051808303816000875af1158015610a63573d6000803e3d6000fd5b505050506040513d601f19601f82011682018060405250810190610a879190611164565b50601554601654610a9791610e38565b60165560138054906000610aaa836111ac565b9190505550306001600160a01b031663e4fc6b6d6040518163ffffffff1660e01b81526004016020604051808303816000875af1158015610aef573d6000803e3d6000fd5b505050506040513d601f19601f82011682018060405250810190610b139190611164565b50610b1c6107bf565b610b24610948565b11610b30576000601455565b610b49610b3b6107bf565b610b43610948565b90610be1565b6014555b565b336000818152601b602081815260408084208151608081018352815481526001820180548286019081526002840180549584019590955260038401805460ff81161515606086015299895296909552918690559085905593905560ff1990931690559051601e54610bbf91610be1565b601e558051600054610bde916001600160a01b03909116903390610e44565b50565b6000610bed82846111e5565b9392505050565b6002546040517f66a5236c000000000000000000000000000000000000000000000000000000008152600481018390526000916001600160a01b0316906340c10f1990859083906366a5236c90602401602060405180830381865afa158015610c61573d6000803e3d6000fd5b505050506040513d601f19601f82011682018060405250810190610c859190611164565b6040517fffffffff0000000000000000000000000000000000000000000000000000000060e085901b1681526001600160a01b0390921660048301526024820152604401600060405180830381600087803b158015610ce357600080fd5b505af1158015610cf7573d6000803e3d6000fd5b50506002546040517f66a5236c000000000000000000000000000000000000000000000000000000008152600481018690526001600160a01b0390911692506366a5236c9150602401602060405180830381865afa158015610d5d573d6000803e3d6000fd5b505050506040513d601f19601f82011682018060405250810190610bed9190611164565b6040516001600160a01b0380851660248301528316604482015260648101829052610e329085907f23b872dd00000000000000000000000000000000000000000000000000000000906084015b60408051601f198184030181529190526020810180517bffffffffffffffffffffffffffffffffffffffffffffffffffffffff167fffffffff0000000000000000000000000000000000000000000000000000000090931692909217909152610e8d565b50505050565b6000610bed82846111fc565b6040516001600160a01b0383166024820152604481018290526103bd9084907fa9059cbb0000000000000000000000000000000000000000000000000000000090606401610dce565b6000610ee2826040518060400160405280602081526020017f5361666545524332303a206c6f772d6c6576656c2063616c6c206661696c6564815250856001600160a01b0316610f729092919063ffffffff16565b8051909150156103bd5780806020019051810190610f009190611214565b6103bd5760405162461bcd60e51b815260206004820152602a60248201527f5361666545524332303a204552433230206f7065726174696f6e20646964206e60448201527f6f7420737563636565640000000000000000000000000000000000000000000060648201526084016102af565b6060610f818484600085610f89565b949350505050565b6060824710156110015760405162461bcd60e51b815260206004820152602660248201527f416464726573733a20696e73756666696369656e742062616c616e636520666f60448201527f722063616c6c000000000000000000000000000000000000000000000000000060648201526084016102af565b843b61104f5760405162461bcd60e51b815260206004820152601d60248201527f416464726573733a2063616c6c20746f206e6f6e2d636f6e747261637400000060448201526064016102af565b600080866001600160a01b0316858760405161106b9190611262565b60006040518083038185875af1925050503d80600081146110a8576040519150601f19603f3d011682016040523d82523d6000602084013e6110ad565b606091505b50915091506110bd8282866110c8565b979650505050505050565b606083156110d7575081610bed565b8251156110e75782518084602001fd5b8160405162461bcd60e51b81526004016102af919061127e565b80356001600160a01b038116811461111857600080fd5b919050565b60006020828403121561112f57600080fd5b610bed82611101565b6000806040838503121561114b57600080fd5b8235915061115b60208401611101565b90509250929050565b60006020828403121561117657600080fd5b5051919050565b7f4e487b7100000000000000000000000000000000000000000000000000000000600052601160045260246000fd5b60007fffffffffffffffffffffffffffffffffffffffffffffffffffffffffffffffff8214156111de576111de61117d565b5060010190565b6000828210156111f7576111f761117d565b500390565b6000821982111561120f5761120f61117d565b500190565b60006020828403121561122657600080fd5b81518015158114610bed57600080fd5b60005b83811015611251578181015183820152602001611239565b83811115610e325750506000910152565b60008251611274818460208701611236565b9190910192915050565b602081526000825180602084015261129d816040850160208701611236565b601f01601f1916919091016040019291505056fea264697066735822122083193d488b9161f181323b448fd3b2b27cd7c42247861dac267dc6604d40b7ad64736f6c634300080a0033",
  "devdoc": {
    "kind": "dev",
    "methods": {
      "claim(address)": {
        "params": {
          "_recipient": "address"
        }
      },
      "contractBalance()": {
        "returns": {
          "_0": "uint"
        }
      },
      "index()": {
        "returns": {
          "_0": "uint"
        }
      },
      "stake(uint256,address)": {
        "params": {
          "_amount": "uint"
        },
        "returns": {
          "_0": "bool"
        }
      },
      "unstake(uint256,address)": {
        "params": {
          "_amount": "uint256",
          "_recipient": "address"
        }
      }
    },
    "version": 1
  },
  "userdoc": {
    "kind": "user",
    "methods": {
      "claim(address)": {
        "notice": "retrieve sNecc from warmup"
      },
      "contractBalance()": {
        "notice": "returns contract Necc holdings, including bonuses provided"
      },
      "forfeit()": {
        "notice": "forfeit sNecc in warmup and retrieve Necc"
      },
      "index()": {
        "notice": "returns the sNecc index, which tracks rebase growth"
      },
      "rebase()": {
        "notice": "trigger rebase if epoch over"
      },
      "stake(uint256,address)": {
        "notice": "stake Necc to enter warmup or for nNecc"
      },
      "unstake(uint256,address)": {
        "notice": "redeem sNecc for Necc"
      }
    },
    "version": 1
  },
  "storageLayout": {
    "storage": [
      {
        "astId": 6974,
        "contract": "contracts/facets/Bond/StakingFacet.sol:StakingFacet",
        "label": "s",
        "offset": 0,
        "slot": "0",
        "type": "t_struct(Storage)20933_storage"
      }
    ],
    "types": {
      "t_address": {
        "encoding": "inplace",
        "label": "address",
        "numberOfBytes": "20"
      },
      "t_array(t_bytes32)dyn_storage": {
        "base": "t_bytes32",
        "encoding": "dynamic_array",
        "label": "bytes32[]",
        "numberOfBytes": "32"
      },
      "t_array(t_struct(Info)20783_storage)dyn_storage": {
        "base": "t_struct(Info)20783_storage",
        "encoding": "dynamic_array",
        "label": "struct LibBondStorage.Info[]",
        "numberOfBytes": "32"
      },
      "t_array(t_struct(Payout)20778_storage)dyn_storage": {
        "base": "t_struct(Payout)20778_storage",
        "encoding": "dynamic_array",
        "label": "struct LibBondStorage.Payout[]",
        "numberOfBytes": "32"
      },
      "t_bool": {
        "encoding": "inplace",
        "label": "bool",
        "numberOfBytes": "1"
      },
      "t_bytes32": {
        "encoding": "inplace",
        "label": "bytes32",
        "numberOfBytes": "32"
      },
      "t_mapping(t_address,t_mapping(t_uint256,t_struct(Bond)20814_storage))": {
        "encoding": "mapping",
        "key": "t_address",
        "label": "mapping(address => mapping(uint256 => struct LibBondStorage.Bond))",
        "numberOfBytes": "32",
        "value": "t_mapping(t_uint256,t_struct(Bond)20814_storage)"
      },
      "t_mapping(t_address,t_struct(Claim)20841_storage)": {
        "encoding": "mapping",
        "key": "t_address",
        "label": "mapping(address => struct LibBondStorage.Claim)",
        "numberOfBytes": "32",
        "value": "t_struct(Claim)20841_storage"
      },
      "t_mapping(t_address,t_uint256)": {
        "encoding": "mapping",
        "key": "t_address",
        "label": "mapping(address => uint256)",
        "numberOfBytes": "32",
        "value": "t_uint256"
      },
      "t_mapping(t_bytes32,t_uint256)": {
        "encoding": "mapping",
        "key": "t_bytes32",
        "label": "mapping(bytes32 => uint256)",
        "numberOfBytes": "32",
        "value": "t_uint256"
      },
      "t_mapping(t_uint256,t_address)": {
        "encoding": "mapping",
        "key": "t_uint256",
        "label": "mapping(uint256 => address)",
        "numberOfBytes": "32",
        "value": "t_address"
      },
      "t_mapping(t_uint256,t_array(t_struct(Payout)20778_storage)dyn_storage)": {
        "encoding": "mapping",
        "key": "t_uint256",
        "label": "mapping(uint256 => struct LibBondStorage.Payout[])",
        "numberOfBytes": "32",
        "value": "t_array(t_struct(Payout)20778_storage)dyn_storage"
      },
      "t_mapping(t_uint256,t_struct(Bond)20814_storage)": {
        "encoding": "mapping",
        "key": "t_uint256",
        "label": "mapping(uint256 => struct LibBondStorage.Bond)",
        "numberOfBytes": "32",
        "value": "t_struct(Bond)20814_storage"
      },
      "t_mapping(t_uint256,t_struct(BondDepositoryAdjustment)20823_storage)": {
        "encoding": "mapping",
        "key": "t_uint256",
        "label": "mapping(uint256 => struct LibBondStorage.BondDepositoryAdjustment)",
        "numberOfBytes": "32",
        "value": "t_struct(BondDepositoryAdjustment)20823_storage"
      },
      "t_mapping(t_uint256,t_struct(DistributorAdjustment)20790_storage)": {
        "encoding": "mapping",
        "key": "t_uint256",
        "label": "mapping(uint256 => struct LibBondStorage.DistributorAdjustment)",
        "numberOfBytes": "32",
        "value": "t_struct(DistributorAdjustment)20790_storage"
      },
      "t_mapping(t_uint256,t_struct(Terms)20805_storage)": {
        "encoding": "mapping",
        "key": "t_uint256",
        "label": "mapping(uint256 => struct LibBondStorage.Terms)",
        "numberOfBytes": "32",
        "value": "t_struct(Terms)20805_storage"
      },
      "t_mapping(t_uint256,t_uint256)": {
        "encoding": "mapping",
        "key": "t_uint256",
        "label": "mapping(uint256 => uint256)",
        "numberOfBytes": "32",
        "value": "t_uint256"
      },
      "t_struct(AddressSet)1348_storage": {
        "encoding": "inplace",
        "label": "struct EnumerableSet.AddressSet",
        "members": [
          {
            "astId": 1347,
            "contract": "contracts/facets/Bond/StakingFacet.sol:StakingFacet",
            "label": "_inner",
            "offset": 0,
            "slot": "0",
            "type": "t_struct(Set)1047_storage"
          }
        ],
        "numberOfBytes": "64"
      },
      "t_struct(Bond)20814_storage": {
        "encoding": "inplace",
        "label": "struct LibBondStorage.Bond",
        "members": [
          {
            "astId": 20807,
            "contract": "contracts/facets/Bond/StakingFacet.sol:StakingFacet",
            "label": "payout",
            "offset": 0,
            "slot": "0",
            "type": "t_uint256"
          },
          {
            "astId": 20809,
            "contract": "contracts/facets/Bond/StakingFacet.sol:StakingFacet",
            "label": "pricePaid",
            "offset": 0,
            "slot": "1",
            "type": "t_uint256"
          },
          {
            "astId": 20811,
            "contract": "contracts/facets/Bond/StakingFacet.sol:StakingFacet",
            "label": "lastTime",
            "offset": 0,
            "slot": "2",
            "type": "t_uint256"
          },
          {
            "astId": 20813,
            "contract": "contracts/facets/Bond/StakingFacet.sol:StakingFacet",
            "label": "vesting",
            "offset": 0,
            "slot": "3",
            "type": "t_uint256"
          }
        ],
        "numberOfBytes": "128"
      },
      "t_struct(BondDepositoryAdjustment)20823_storage": {
        "encoding": "inplace",
        "label": "struct LibBondStorage.BondDepositoryAdjustment",
        "members": [
          {
            "astId": 20816,
            "contract": "contracts/facets/Bond/StakingFacet.sol:StakingFacet",
            "label": "add",
            "offset": 0,
            "slot": "0",
            "type": "t_bool"
          },
          {
            "astId": 20818,
            "contract": "contracts/facets/Bond/StakingFacet.sol:StakingFacet",
            "label": "delta",
            "offset": 0,
            "slot": "1",
            "type": "t_uint256"
          },
          {
            "astId": 20820,
            "contract": "contracts/facets/Bond/StakingFacet.sol:StakingFacet",
            "label": "timeToTarget",
            "offset": 0,
            "slot": "2",
            "type": "t_uint256"
          },
          {
            "astId": 20822,
            "contract": "contracts/facets/Bond/StakingFacet.sol:StakingFacet",
            "label": "lastTime",
            "offset": 0,
            "slot": "3",
            "type": "t_uint256"
          }
        ],
        "numberOfBytes": "128"
      },
      "t_struct(Claim)20841_storage": {
        "encoding": "inplace",
        "label": "struct LibBondStorage.Claim",
        "members": [
          {
            "astId": 20834,
            "contract": "contracts/facets/Bond/StakingFacet.sol:StakingFacet",
            "label": "deposit",
            "offset": 0,
            "slot": "0",
            "type": "t_uint256"
          },
          {
            "astId": 20836,
            "contract": "contracts/facets/Bond/StakingFacet.sol:StakingFacet",
            "label": "gons",
            "offset": 0,
            "slot": "1",
            "type": "t_uint256"
          },
          {
            "astId": 20838,
            "contract": "contracts/facets/Bond/StakingFacet.sol:StakingFacet",
            "label": "expiry",
            "offset": 0,
            "slot": "2",
            "type": "t_uint256"
          },
          {
            "astId": 20840,
            "contract": "contracts/facets/Bond/StakingFacet.sol:StakingFacet",
            "label": "lock",
            "offset": 0,
            "slot": "3",
            "type": "t_bool"
          }
        ],
        "numberOfBytes": "128"
      },
      "t_struct(DistributorAdjustment)20790_storage": {
        "encoding": "inplace",
        "label": "struct LibBondStorage.DistributorAdjustment",
        "members": [
          {
            "astId": 20785,
            "contract": "contracts/facets/Bond/StakingFacet.sol:StakingFacet",
            "label": "add",
            "offset": 0,
            "slot": "0",
            "type": "t_bool"
          },
          {
            "astId": 20787,
            "contract": "contracts/facets/Bond/StakingFacet.sol:StakingFacet",
            "label": "rate",
            "offset": 0,
            "slot": "1",
            "type": "t_uint256"
          },
          {
            "astId": 20789,
            "contract": "contracts/facets/Bond/StakingFacet.sol:StakingFacet",
            "label": "target",
            "offset": 0,
            "slot": "2",
            "type": "t_uint256"
          }
        ],
        "numberOfBytes": "96"
      },
      "t_struct(Epoch)20832_storage": {
        "encoding": "inplace",
        "label": "struct LibBondStorage.Epoch",
        "members": [
          {
            "astId": 20825,
            "contract": "contracts/facets/Bond/StakingFacet.sol:StakingFacet",
            "label": "number",
            "offset": 0,
            "slot": "0",
            "type": "t_uint256"
          },
          {
            "astId": 20827,
            "contract": "contracts/facets/Bond/StakingFacet.sol:StakingFacet",
            "label": "distribute",
            "offset": 0,
            "slot": "1",
            "type": "t_uint256"
          },
          {
            "astId": 20829,
            "contract": "contracts/facets/Bond/StakingFacet.sol:StakingFacet",
            "label": "length",
            "offset": 0,
            "slot": "2",
            "type": "t_uint256"
          },
          {
            "astId": 20831,
            "contract": "contracts/facets/Bond/StakingFacet.sol:StakingFacet",
            "label": "endTime",
            "offset": 0,
            "slot": "3",
            "type": "t_uint256"
          }
        ],
        "numberOfBytes": "128"
      },
      "t_struct(Info)20783_storage": {
        "encoding": "inplace",
        "label": "struct LibBondStorage.Info",
        "members": [
          {
            "astId": 20780,
            "contract": "contracts/facets/Bond/StakingFacet.sol:StakingFacet",
            "label": "rate",
            "offset": 0,
            "slot": "0",
            "type": "t_uint256"
          },
          {
            "astId": 20782,
            "contract": "contracts/facets/Bond/StakingFacet.sol:StakingFacet",
            "label": "recipient",
            "offset": 0,
            "slot": "1",
            "type": "t_address"
          }
        ],
        "numberOfBytes": "64"
      },
      "t_struct(Payout)20778_storage": {
        "encoding": "inplace",
        "label": "struct LibBondStorage.Payout",
        "members": [
          {
            "astId": 20775,
            "contract": "contracts/facets/Bond/StakingFacet.sol:StakingFacet",
            "label": "amount",
            "offset": 0,
            "slot": "0",
            "type": "t_uint256"
          },
          {
            "astId": 20777,
            "contract": "contracts/facets/Bond/StakingFacet.sol:StakingFacet",
            "label": "blockTimestamp",
            "offset": 0,
            "slot": "1",
            "type": "t_uint256"
          }
        ],
        "numberOfBytes": "64"
      },
      "t_struct(Set)1047_storage": {
        "encoding": "inplace",
        "label": "struct EnumerableSet.Set",
        "members": [
          {
            "astId": 1042,
            "contract": "contracts/facets/Bond/StakingFacet.sol:StakingFacet",
            "label": "_values",
            "offset": 0,
            "slot": "0",
            "type": "t_array(t_bytes32)dyn_storage"
          },
          {
            "astId": 1046,
            "contract": "contracts/facets/Bond/StakingFacet.sol:StakingFacet",
            "label": "_indexes",
            "offset": 0,
            "slot": "1",
            "type": "t_mapping(t_bytes32,t_uint256)"
          }
        ],
        "numberOfBytes": "64"
      },
      "t_struct(Storage)20933_storage": {
        "encoding": "inplace",
        "label": "struct LibBondStorage.Storage",
        "members": [
          {
            "astId": 20843,
            "contract": "contracts/facets/Bond/StakingFacet.sol:StakingFacet",
            "label": "Necc",
            "offset": 0,
            "slot": "0",
            "type": "t_address"
          },
          {
            "astId": 20845,
            "contract": "contracts/facets/Bond/StakingFacet.sol:StakingFacet",
            "label": "sNecc",
            "offset": 0,
            "slot": "1",
            "type": "t_address"
          },
          {
            "astId": 20847,
            "contract": "contracts/facets/Bond/StakingFacet.sol:StakingFacet",
            "label": "nNecc",
            "offset": 0,
            "slot": "2",
            "type": "t_address"
          },
          {
            "astId": 20849,
            "contract": "contracts/facets/Bond/StakingFacet.sol:StakingFacet",
            "label": "ndol",
            "offset": 0,
            "slot": "3",
            "type": "t_address"
          },
          {
            "astId": 20851,
            "contract": "contracts/facets/Bond/StakingFacet.sol:StakingFacet",
            "label": "treasury",
            "offset": 0,
            "slot": "4",
            "type": "t_address"
          },
          {
            "astId": 20853,
            "contract": "contracts/facets/Bond/StakingFacet.sol:StakingFacet",
            "label": "DAO",
            "offset": 0,
            "slot": "5",
            "type": "t_address"
          },
          {
            "astId": 20855,
            "contract": "contracts/facets/Bond/StakingFacet.sol:StakingFacet",
            "label": "farmDistributor",
            "offset": 0,
            "slot": "6",
            "type": "t_address"
          },
          {
            "astId": 20857,
            "contract": "contracts/facets/Bond/StakingFacet.sol:StakingFacet",
            "label": "staking",
            "offset": 0,
            "slot": "7",
            "type": "t_address"
          },
          {
            "astId": 20860,
            "contract": "contracts/facets/Bond/StakingFacet.sol:StakingFacet",
            "label": "principles",
            "offset": 0,
            "slot": "8",
            "type": "t_struct(AddressSet)1348_storage"
          },
          {
            "astId": 20865,
            "contract": "contracts/facets/Bond/StakingFacet.sol:StakingFacet",
            "label": "terms",
            "offset": 0,
            "slot": "10",
            "type": "t_mapping(t_uint256,t_struct(Terms)20805_storage)"
          },
          {
            "astId": 20870,
            "contract": "contracts/facets/Bond/StakingFacet.sol:StakingFacet",
            "label": "bondDepositoryAdjustment",
            "offset": 0,
            "slot": "11",
            "type": "t_mapping(t_uint256,t_struct(BondDepositoryAdjustment)20823_storage)"
          },
          {
            "astId": 20877,
            "contract": "contracts/facets/Bond/StakingFacet.sol:StakingFacet",
            "label": "bondInfo",
            "offset": 0,
            "slot": "12",
            "type": "t_mapping(t_address,t_mapping(t_uint256,t_struct(Bond)20814_storage))"
          },
          {
            "astId": 20881,
            "contract": "contracts/facets/Bond/StakingFacet.sol:StakingFacet",
            "label": "totalDebt",
            "offset": 0,
            "slot": "13",
            "type": "t_mapping(t_uint256,t_uint256)"
          },
          {
            "astId": 20885,
            "contract": "contracts/facets/Bond/StakingFacet.sol:StakingFacet",
            "label": "lastDecay",
            "offset": 0,
            "slot": "14",
            "type": "t_mapping(t_uint256,t_uint256)"
          },
          {
            "astId": 20889,
            "contract": "contracts/facets/Bond/StakingFacet.sol:StakingFacet",
            "label": "nextEpochTimestamp",
            "offset": 0,
            "slot": "15",
            "type": "t_mapping(t_uint256,t_uint256)"
          },
          {
            "astId": 20893,
            "contract": "contracts/facets/Bond/StakingFacet.sol:StakingFacet",
            "label": "priceFeeds",
            "offset": 0,
            "slot": "16",
            "type": "t_mapping(t_uint256,t_address)"
          },
          {
            "astId": 20897,
            "contract": "contracts/facets/Bond/StakingFacet.sol:StakingFacet",
            "label": "info",
            "offset": 0,
            "slot": "17",
            "type": "t_array(t_struct(Info)20783_storage)dyn_storage"
          },
          {
            "astId": 20902,
            "contract": "contracts/facets/Bond/StakingFacet.sol:StakingFacet",
            "label": "distributorAdjustments",
            "offset": 0,
            "slot": "18",
            "type": "t_mapping(t_uint256,t_struct(DistributorAdjustment)20790_storage)"
          },
          {
            "astId": 20905,
            "contract": "contracts/facets/Bond/StakingFacet.sol:StakingFacet",
            "label": "epoch",
            "offset": 0,
            "slot": "19",
            "type": "t_struct(Epoch)20832_storage"
          },
          {
            "astId": 20907,
            "contract": "contracts/facets/Bond/StakingFacet.sol:StakingFacet",
            "label": "epochLength",
            "offset": 0,
            "slot": "23",
            "type": "t_uint256"
          },
          {
            "astId": 20909,
            "contract": "contracts/facets/Bond/StakingFacet.sol:StakingFacet",
            "label": "distributor",
            "offset": 0,
            "slot": "24",
            "type": "t_address"
          },
          {
            "astId": 20911,
            "contract": "contracts/facets/Bond/StakingFacet.sol:StakingFacet",
            "label": "locker",
            "offset": 0,
            "slot": "25",
            "type": "t_address"
          },
          {
            "astId": 20913,
            "contract": "contracts/facets/Bond/StakingFacet.sol:StakingFacet",
            "label": "warmupPeriod",
            "offset": 0,
            "slot": "26",
            "type": "t_uint256"
          },
          {
            "astId": 20918,
            "contract": "contracts/facets/Bond/StakingFacet.sol:StakingFacet",
            "label": "warmupInfo",
            "offset": 0,
            "slot": "27",
            "type": "t_mapping(t_address,t_struct(Claim)20841_storage)"
          },
          {
            "astId": 20920,
            "contract": "contracts/facets/Bond/StakingFacet.sol:StakingFacet",
            "label": "targetSum",
            "offset": 0,
            "slot": "28",
            "type": "t_uint256"
          },
          {
            "astId": 20926,
            "contract": "contracts/facets/Bond/StakingFacet.sol:StakingFacet",
            "label": "payouts",
            "offset": 0,
            "slot": "29",
            "type": "t_mapping(t_uint256,t_array(t_struct(Payout)20778_storage)dyn_storage)"
          },
          {
            "astId": 20928,
            "contract": "contracts/facets/Bond/StakingFacet.sol:StakingFacet",
            "label": "gonsInWarmup",
            "offset": 0,
            "slot": "30",
            "type": "t_uint256"
          },
          {
            "astId": 20932,
            "contract": "contracts/facets/Bond/StakingFacet.sol:StakingFacet",
            "label": "bondFees",
            "offset": 0,
            "slot": "31",
            "type": "t_mapping(t_address,t_uint256)"
          }
        ],
        "numberOfBytes": "1024"
      },
      "t_struct(Terms)20805_storage": {
        "encoding": "inplace",
        "label": "struct LibBondStorage.Terms",
        "members": [
          {
            "astId": 20792,
            "contract": "contracts/facets/Bond/StakingFacet.sol:StakingFacet",
            "label": "controlVariable",
            "offset": 0,
            "slot": "0",
            "type": "t_uint256"
          },
          {
            "astId": 20794,
            "contract": "contracts/facets/Bond/StakingFacet.sol:StakingFacet",
            "label": "minimumPrice",
            "offset": 0,
            "slot": "1",
            "type": "t_uint256"
          },
          {
            "astId": 20796,
            "contract": "contracts/facets/Bond/StakingFacet.sol:StakingFacet",
            "label": "maxPayout",
            "offset": 0,
            "slot": "2",
            "type": "t_uint256"
          },
          {
            "astId": 20798,
            "contract": "contracts/facets/Bond/StakingFacet.sol:StakingFacet",
            "label": "fee",
            "offset": 0,
            "slot": "3",
            "type": "t_uint256"
          },
          {
            "astId": 20800,
            "contract": "contracts/facets/Bond/StakingFacet.sol:StakingFacet",
            "label": "maxDebt",
            "offset": 0,
            "slot": "4",
            "type": "t_uint256"
          },
          {
            "astId": 20802,
            "contract": "contracts/facets/Bond/StakingFacet.sol:StakingFacet",
            "label": "vestingTerm",
            "offset": 0,
            "slot": "5",
            "type": "t_uint256"
          },
          {
            "astId": 20804,
            "contract": "contracts/facets/Bond/StakingFacet.sol:StakingFacet",
            "label": "isLiquidityBond",
            "offset": 0,
            "slot": "6",
            "type": "t_bool"
          }
        ],
        "numberOfBytes": "224"
      },
      "t_uint256": {
        "encoding": "inplace",
        "label": "uint256",
        "numberOfBytes": "32"
      }
    }
  }
}