{
  "address": "0x2264B05caa162308FA4938dbf6aaC4220a319580",
  "abi": [
    {
      "inputs": [
        {
          "internalType": "address",
          "name": "_token",
          "type": "address"
        }
      ],
      "name": "InvalidToken",
      "type": "error"
    },
    {
      "anonymous": false,
      "inputs": [
        {
          "indexed": true,
          "internalType": "enum TreasuryFacet.MANAGING",
          "name": "managing",
          "type": "uint8"
        },
        {
          "indexed": false,
          "internalType": "address",
          "name": "activated",
          "type": "address"
        },
        {
          "indexed": false,
          "internalType": "bool",
          "name": "result",
          "type": "bool"
        }
      ],
      "name": "ChangeActivated",
      "type": "event"
    },
    {
      "anonymous": false,
      "inputs": [
        {
          "indexed": true,
          "internalType": "enum TreasuryFacet.MANAGING",
          "name": "managing",
          "type": "uint8"
        },
        {
          "indexed": false,
          "internalType": "address",
          "name": "queued",
          "type": "address"
        }
      ],
      "name": "ChangeQueued",
      "type": "event"
    },
    {
      "anonymous": false,
      "inputs": [
        {
          "indexed": true,
          "internalType": "address",
          "name": "debtor",
          "type": "address"
        },
        {
          "indexed": true,
          "internalType": "address",
          "name": "token",
          "type": "address"
        },
        {
          "indexed": false,
          "internalType": "uint256",
          "name": "amount",
          "type": "uint256"
        },
        {
          "indexed": false,
          "internalType": "uint256",
          "name": "value",
          "type": "uint256"
        }
      ],
      "name": "CreateDebt",
      "type": "event"
    },
    {
      "anonymous": false,
      "inputs": [
        {
          "indexed": true,
          "internalType": "address",
          "name": "token",
          "type": "address"
        },
        {
          "indexed": false,
          "internalType": "uint256",
          "name": "amount",
          "type": "uint256"
        },
        {
          "indexed": false,
          "internalType": "uint256",
          "name": "value",
          "type": "uint256"
        }
      ],
      "name": "Deposit",
      "type": "event"
    },
    {
      "anonymous": false,
      "inputs": [
        {
          "indexed": true,
          "internalType": "address",
          "name": "debtor",
          "type": "address"
        },
        {
          "indexed": true,
          "internalType": "address",
          "name": "token",
          "type": "address"
        },
        {
          "indexed": false,
          "internalType": "uint256",
          "name": "amount",
          "type": "uint256"
        },
        {
          "indexed": false,
          "internalType": "uint256",
          "name": "value",
          "type": "uint256"
        }
      ],
      "name": "RepayDebt",
      "type": "event"
    },
    {
      "anonymous": false,
      "inputs": [
        {
          "indexed": true,
          "internalType": "uint256",
          "name": "totalReserves",
          "type": "uint256"
        }
      ],
      "name": "ReservesAudited",
      "type": "event"
    },
    {
      "anonymous": false,
      "inputs": [
        {
          "indexed": true,
          "internalType": "address",
          "name": "token",
          "type": "address"
        },
        {
          "indexed": false,
          "internalType": "uint256",
          "name": "amount",
          "type": "uint256"
        }
      ],
      "name": "ReservesManaged",
      "type": "event"
    },
    {
      "anonymous": false,
      "inputs": [
        {
          "indexed": true,
          "internalType": "uint256",
          "name": "totalReserves",
          "type": "uint256"
        }
      ],
      "name": "ReservesUpdated",
      "type": "event"
    },
    {
      "anonymous": false,
      "inputs": [
        {
          "indexed": true,
          "internalType": "address",
          "name": "caller",
          "type": "address"
        },
        {
          "indexed": true,
          "internalType": "address",
          "name": "recipient",
          "type": "address"
        },
        {
          "indexed": false,
          "internalType": "uint256",
          "name": "amount",
          "type": "uint256"
        }
      ],
      "name": "RewardsMinted",
      "type": "event"
    },
    {
      "anonymous": false,
      "inputs": [
        {
          "indexed": true,
          "internalType": "address",
          "name": "token",
          "type": "address"
        },
        {
          "indexed": false,
          "internalType": "uint256",
          "name": "amount",
          "type": "uint256"
        },
        {
          "indexed": false,
          "internalType": "uint256",
          "name": "value",
          "type": "uint256"
        }
      ],
      "name": "Withdrawal",
      "type": "event"
    },
    {
      "inputs": [],
      "name": "auditReserves",
      "outputs": [],
      "stateMutability": "nonpayable",
      "type": "function"
    },
    {
      "inputs": [],
      "name": "baseSupply",
      "outputs": [
        {
          "internalType": "uint256",
          "name": "",
          "type": "uint256"
        }
      ],
      "stateMutability": "view",
      "type": "function"
    },
    {
      "inputs": [
        {
          "internalType": "uint256",
          "name": "_amount",
          "type": "uint256"
        },
        {
          "internalType": "address",
          "name": "_token",
          "type": "address"
        },
        {
          "internalType": "uint256",
          "name": "_profit",
          "type": "uint256"
        }
      ],
      "name": "deposit",
      "outputs": [
        {
          "internalType": "uint256",
          "name": "send_",
          "type": "uint256"
        }
      ],
      "stateMutability": "nonpayable",
      "type": "function"
    },
    {
      "inputs": [
        {
          "internalType": "uint256",
          "name": "_amount",
          "type": "uint256"
        },
        {
          "internalType": "address",
          "name": "_token",
          "type": "address"
        },
        {
          "internalType": "uint256",
          "name": "_value",
          "type": "uint256"
        },
        {
          "internalType": "uint256",
          "name": "_profit",
          "type": "uint256"
        }
      ],
      "name": "depositLP",
      "outputs": [],
      "stateMutability": "nonpayable",
      "type": "function"
    },
    {
      "inputs": [],
      "name": "excessReserves",
      "outputs": [
        {
          "internalType": "uint256",
          "name": "",
          "type": "uint256"
        }
      ],
      "stateMutability": "view",
      "type": "function"
    },
    {
      "inputs": [
        {
          "internalType": "uint256",
          "name": "_amount",
          "type": "uint256"
        },
        {
          "internalType": "address",
          "name": "_token",
          "type": "address"
        }
      ],
      "name": "incurDebt",
      "outputs": [],
      "stateMutability": "nonpayable",
      "type": "function"
    },
    {
      "inputs": [
        {
          "internalType": "address",
          "name": "_Necc",
          "type": "address"
        },
        {
          "internalType": "address",
          "name": "_sNecc",
          "type": "address"
        },
        {
          "internalType": "address",
          "name": "_nNecc",
          "type": "address"
        },
        {
          "internalType": "address",
          "name": "_NDOL",
          "type": "address"
        },
        {
          "internalType": "uint256",
          "name": "_blocksNeededForQueue",
          "type": "uint256"
        }
      ],
      "name": "initializeTreasury",
      "outputs": [],
      "stateMutability": "nonpayable",
      "type": "function"
    },
    {
      "inputs": [
        {
          "internalType": "address",
          "name": "_depositor",
          "type": "address"
        }
      ],
      "name": "isReserveDepositor",
      "outputs": [
        {
          "internalType": "bool",
          "name": "",
          "type": "bool"
        }
      ],
      "stateMutability": "view",
      "type": "function"
    },
    {
      "inputs": [
        {
          "internalType": "address",
          "name": "_principle",
          "type": "address"
        }
      ],
      "name": "isReserveToken",
      "outputs": [
        {
          "internalType": "bool",
          "name": "",
          "type": "bool"
        }
      ],
      "stateMutability": "view",
      "type": "function"
    },
    {
      "inputs": [
        {
          "internalType": "address",
          "name": "_token",
          "type": "address"
        },
        {
          "internalType": "uint256",
          "name": "_amount",
          "type": "uint256"
        }
      ],
      "name": "manage",
      "outputs": [],
      "stateMutability": "nonpayable",
      "type": "function"
    },
    {
      "inputs": [
        {
          "internalType": "address",
          "name": "_recipient",
          "type": "address"
        },
        {
          "internalType": "uint256",
          "name": "_amount",
          "type": "uint256"
        }
      ],
      "name": "mintRewards",
      "outputs": [],
      "stateMutability": "nonpayable",
      "type": "function"
    },
    {
      "inputs": [
        {
          "internalType": "enum TreasuryFacet.MANAGING",
          "name": "_managing",
          "type": "uint8"
        },
        {
          "internalType": "address",
          "name": "_address",
          "type": "address"
        }
      ],
      "name": "queue",
      "outputs": [
        {
          "internalType": "bool",
          "name": "",
          "type": "bool"
        }
      ],
      "stateMutability": "nonpayable",
      "type": "function"
    },
    {
      "inputs": [
        {
          "internalType": "uint256",
          "name": "_amount",
          "type": "uint256"
        }
      ],
      "name": "repayDebtWithNecc",
      "outputs": [],
      "stateMutability": "nonpayable",
      "type": "function"
    },
    {
      "inputs": [
        {
          "internalType": "uint256",
          "name": "_amount",
          "type": "uint256"
        },
        {
          "internalType": "address",
          "name": "_token",
          "type": "address"
        }
      ],
      "name": "repayDebtWithReserve",
      "outputs": [],
      "stateMutability": "nonpayable",
      "type": "function"
    },
    {
      "inputs": [
        {
          "internalType": "enum TreasuryFacet.MANAGING",
          "name": "_managing",
          "type": "uint8"
        },
        {
          "internalType": "address",
          "name": "_address",
          "type": "address"
        }
      ],
      "name": "toggle",
      "outputs": [
        {
          "internalType": "bool",
          "name": "",
          "type": "bool"
        }
      ],
      "stateMutability": "nonpayable",
      "type": "function"
    },
    {
      "inputs": [
        {
          "internalType": "address",
          "name": "_token",
          "type": "address"
        },
        {
          "internalType": "uint256",
          "name": "_amount",
          "type": "uint256"
        }
      ],
      "name": "valueOfToken",
      "outputs": [
        {
          "internalType": "uint256",
          "name": "_value",
          "type": "uint256"
        }
      ],
      "stateMutability": "view",
      "type": "function"
    },
    {
      "inputs": [
        {
          "internalType": "uint256",
          "name": "_amount",
          "type": "uint256"
        },
        {
          "internalType": "address",
          "name": "_token",
          "type": "address"
        }
      ],
      "name": "withdraw",
      "outputs": [],
      "stateMutability": "nonpayable",
      "type": "function"
    }
  ],
  "transactionHash": "0xe6006eb9d0791e67ce2bdba841be586565010c5a86d407aba5133886a594351a",
  "args": [],
  "solcInputHash": "d5dfcdabb4ff70ae37f8e06cae8c7a24",
  "bytecode": "0x608060405234801561001057600080fd5b50612ea7806100206000396000f3fe608060405234801561001057600080fd5b506004361061011a5760003560e01c80636a20de92116100b2578063d1b317e511610081578063d796ffb811610066578063d796ffb81461025f578063e5f12b7614610272578063e83afee31461028557600080fd5b8063d1b317e514610239578063d5e8be0d1461024c57600080fd5b80636a20de92146101f8578063860f50481461020b578063bc157ac114610213578063cad9311e1461022657600080fd5b8063124154ca116100ee578063124154ca1461017557806312422d23146101b15780632b7ce500146101c457806368c31dd5146101cc57600080fd5b8062f714ce1461011f578063082db9d7146101345780630b0eee30146101475780630c3513a81461015a575b600080fd5b61013261012d366004612a78565b610298565b005b610132610142366004612aa4565b61048c565b610132610155366004612adf565b61067b565b6101626108a1565b6040519081526020015b60405180910390f35b6101a1610183366004612b09565b6001600160a01b03166000908152600c602052604090205460ff1690565b604051901515815260200161016c565b6101326101bf366004612a78565b61093c565b610132610c7b565b6101a16101da366004612b09565b6001600160a01b031660009081526009602052604090205460ff1690565b610132610206366004612adf565b610e4b565b610162610fd1565b610162610221366004612b24565b611069565b610132610234366004612b59565b611289565b610162610247366004612adf565b61143e565b6101a161025a366004612b72565b611628565b61013261026d366004612a78565b611ebd565b610132610280366004612ba2565b6120a0565b6101a1610293366004612b72565b612177565b6001600160a01b03811660009081526009602052604090205460ff166103055760405162461bcd60e51b815260206004820152601660248201527f54726561737572793a204e6f742061636365707465640000000000000000000060448201526064015b60405180910390fd5b336000908152600f602052604090205460ff1615156001146103695760405162461bcd60e51b815260206004820152601660248201527f54726561737572793a204e6f7420617070726f7665640000000000000000000060448201526064016102fc565b6000610375828461143e565b6000546040517f79cc6790000000000000000000000000000000000000000000000000000000008152336004820152602481018390529192506001600160a01b0316906379cc679090604401600060405180830381600087803b1580156103db57600080fd5b505af11580156103ef573d6000803e3d6000fd5b505060065461040192509050826124a8565b60068190556040517f93bb8edd35984706eee1b92541281f7f62d33c01c5b2ec0929a113603bd21d6690600090a26104436001600160a01b03831633856124b4565b60408051848152602081018390526001600160a01b038416917fdf273cb619d95419a9cd0ec88123a0538c85064229baa6363788f743fff90deb910160405180910390a2505050565b6001600160a01b03831660009081526012602052604090205460ff1615610511573360009081526015602052604090205460ff1661050c5760405162461bcd60e51b815260206004820152601660248201527f54726561737572793a204e6f7420617070726f7665640000000000000000000060448201526064016102fc565b61054e565b6040517f961c9a4f0000000000000000000000000000000000000000000000000000000081526001600160a01b03841660048201526024016102fc565b6105636001600160a01b038416333087612562565b6000546001600160a01b03166340c10f193361057f85856124a8565b6040517fffffffff0000000000000000000000000000000000000000000000000000000060e085901b1681526001600160a01b0390921660048301526024820152604401600060405180830381600087803b1580156105dd57600080fd5b505af11580156105f1573d6000803e3d6000fd5b505060065461060392509050836125b9565b60068190556040517f93bb8edd35984706eee1b92541281f7f62d33c01c5b2ec0929a113603bd21d6690600090a260408051858152602081018490526001600160a01b038516917f90890809c654f11d6e72a28fa60149770a0d11ec6c92319d6ceb2bb0a4ea1a15910160405180910390a250505050565b6001600160a01b03821660009081526012602052604090205460ff161561070057336000908152601b602052604090205460ff166106fb5760405162461bcd60e51b815260206004820152601660248201527f54726561737572793a204e6f7420617070726f7665640000000000000000000060448201526064016102fc565b61075f565b3360009081526018602052604090205460ff1661075f5760405162461bcd60e51b815260206004820152601660248201527f54726561737572793a204e6f7420617070726f7665640000000000000000000060448201526064016102fc565b6001600160a01b03821660009081526012602052604090205460ff168061079e57506001600160a01b03821660009081526009602052604090205460ff165b1561081a5760006107af838361143e565b90506107b96108a1565b8111156108085760405162461bcd60e51b815260206004820152601f60248201527f54726561737572793a20496e73756666696369656e742072657365727665730060448201526064016102fc565b60065461081590826124a8565b600655505b6006546040517f93bb8edd35984706eee1b92541281f7f62d33c01c5b2ec0929a113603bd21d6690600090a261085a6001600160a01b03831633836124b4565b816001600160a01b03167f2bb2640731848fe9820ba48dbc978c1fc9bbd5f11b948bfab05b7dee3378fd808260405161089591815260200190565b60405180910390a25050565b600061093761092e6000600701546000800160009054906101000a90046001600160a01b03166001600160a01b03166318160ddd6040518163ffffffff1660e01b8152600401602060405180830381865afa158015610904573d6000803e3d6000fd5b505050506040513d601f19601f820116820180604052508101906109289190612bfe565b906124a8565b600654906124a8565b905090565b600080546001600160a01b03838116911614156109b957336000908152600c602052604090205460ff166109b25760405162461bcd60e51b815260206004820152601d60248201527f54726561737572793a20446562746f72204e6f7420617070726f76656400000060448201526064016102fc565b5081610ab2565b336000908152600c602052604090205460ff16610a185760405162461bcd60e51b815260206004820152601d60248201527f54726561737572793a20446562746f72204e6f7420617070726f76656400000060448201526064016102fc565b6001600160a01b03821660009081526009602052604090205460ff16610aa55760405162461bcd60e51b8152602060048201526024808201527f54726561737572793a205265736572766520546f6b656e204e6f74206170707260448201527f6f7665640000000000000000000000000000000000000000000000000000000060648201526084016102fc565b610aaf828461143e565b90505b80610aff5760405162461bcd60e51b815260206004820152601760248201527f54726561737572793a20496e76616c696420746f6b656e00000000000000000060448201526064016102fc565b6001805460405163ae5c6cd360e01b81526004810184905233602482015260448101929092526001600160a01b03169063ae5c6cd390606401600060405180830381600087803b158015610b5257600080fd5b505af1158015610b66573d6000803e3d6000fd5b5050600754610b7892509050826125b9565b6007556000546001600160a01b0383811691161415610c0b576000546040516340c10f1960e01b8152336004820152602481018390526001600160a01b03909116906340c10f1990604401600060405180830381600087803b158015610bdd57600080fd5b505af1158015610bf1573d6000803e3d6000fd5b5050600854610c0392509050826125b9565b600855610c2f565b600654610c1890826124a8565b600655610c2f6001600160a01b03831633856124b4565b60408051848152602081018390526001600160a01b0384169133917f7e1a939bed137a819b5d2979822c67f877689f7a863d5e4cb57cdca97b2977d691015b60405180910390a3505050565b610c836125c5565b6000805b600454811015610d8257610d6e610d6760006004018381548110610cad57610cad612c17565b600091825260209091200154600480546001600160a01b039092169185908110610cd957610cd9612c17565b6000918252602090912001546040517f70a082310000000000000000000000000000000000000000000000000000000081523060048201526001600160a01b03909116906370a0823190602401602060405180830381865afa158015610d43573d6000803e3d6000fd5b505050506040513d601f19601f820116820180604052508101906102479190612bfe565b83906125b9565b915080610d7a81612c43565b915050610c87565b5060005b601154811015610dec57610dd8610d6760006011018381548110610dac57610dac612c17565b600091825260209091200154601180546001600160a01b039092169185908110610cd957610cd9612c17565b915080610de481612c43565b915050610d86565b50600681905560405181907f93bb8edd35984706eee1b92541281f7f62d33c01c5b2ec0929a113603bd21d6690600090a260405181907fec691f09f6924b27932253f85caf99bacc30360cc0e50a1cc4d2acc24601446690600090a250565b3360009081526021602052604090205460ff16610ed05760405162461bcd60e51b815260206004820152602560248201527f54726561737572793a20526577617264204d616e61676572204e6f742061707060448201527f726f76656400000000000000000000000000000000000000000000000000000060648201526084016102fc565b610ed86108a1565b811115610f275760405162461bcd60e51b815260206004820152601f60248201527f54726561737572793a20496e73756666696369656e742072657365727665730060448201526064016102fc565b6000546040516340c10f1960e01b81526001600160a01b03848116600483015260248201849052909116906340c10f1990604401600060405180830381600087803b158015610f7557600080fd5b505af1158015610f89573d6000803e3d6000fd5b50506040518381526001600160a01b03851692503391507ffa8ccab40e7da8146c2304cd0950334fd30a6ba093abe86261aa13911fed849c9060200160405180910390a35050565b60085460008054604080517f18160ddd00000000000000000000000000000000000000000000000000000000815290519293926001600160a01b03909216916318160ddd916004808201926020929091908290030181865afa15801561103b573d6000803e3d6000fd5b505050506040513d601f19601f8201168201806040525081019061105f9190612bfe565b6109379190612c5e565b6001600160a01b03821660009081526009602052604081205460ff16156110ee57336000908152600c602052604090205460ff166110e95760405162461bcd60e51b815260206004820152601660248201527f54726561737572793a204e6f7420617070726f7665640000000000000000000060448201526064016102fc565b61116e565b6001600160a01b03831660009081526012602052604090205460ff1615610511573360009081526015602052604090205460ff166110e95760405162461bcd60e51b815260206004820152601660248201527f54726561737572793a204e6f7420617070726f7665640000000000000000000060448201526064016102fc565b6111836001600160a01b038416333087612562565b600061118f848661143e565b905061119b81846124a8565b6000546040516340c10f1960e01b8152336004820152602481018390529193506001600160a01b0316906340c10f1990604401600060405180830381600087803b1580156111e857600080fd5b505af11580156111fc573d6000803e3d6000fd5b505060065461120e92509050826125b9565b60068190556040517f93bb8edd35984706eee1b92541281f7f62d33c01c5b2ec0929a113603bd21d6690600090a260408051868152602081018390526001600160a01b038616917f90890809c654f11d6e72a28fa60149770a0d11ec6c92319d6ceb2bb0a4ea1a15910160405180910390a2505b9392505050565b336000908152601e602052604090205460ff166112e85760405162461bcd60e51b815260206004820152601660248201527f54726561737572793a204e6f7420617070726f7665640000000000000000000060448201526064016102fc565b6000546040517f79cc6790000000000000000000000000000000000000000000000000000000008152336004820152602481018390526001600160a01b03909116906379cc679090604401600060405180830381600087803b15801561134d57600080fd5b505af1158015611361573d6000803e3d6000fd5b505060015460405163ae5c6cd360e01b815260048101859052336024820152600060448201526001600160a01b03909116925063ae5c6cd39150606401600060405180830381600087803b1580156113b857600080fd5b505af11580156113cc573d6000803e3d6000fd5b50506007546113de92509050826124a8565b6007556008546113ee90826124a8565b60085560005460408051838152602081018490526001600160a01b039092169133917fc6d98eecfc9c78ab62c89a82950079b54874749f1f6f24090f7acc758bc2f309910160405180910390a350565b6001600160a01b03821660009081526009602052604081205460ff16156115765761156f836001600160a01b031663313ce5676040518163ffffffff1660e01b8152600401602060405180830381865afa1580156114a0573d6000803e3d6000fd5b505050506040513d601f19601f820116820180604052508101906114c49190612bfe565b6114cf90600a612d59565b600054604080517f313ce5670000000000000000000000000000000000000000000000000000000081529051611569926001600160a01b03169163313ce5679160048083019260209291908290030181865afa158015611533573d6000803e3d6000fd5b505050506040513d601f19601f820116820180604052508101906115579190612bfe565b61156290600a612d59565b85906125cf565b906125db565b9050611622565b6001600160a01b03831660009081526012602052604090205460ff1615611622576040517f4249719f0000000000000000000000000000000000000000000000000000000081526001600160a01b0384166004820152602481018390523090634249719f90604401602060405180830381865afa1580156115fb573d6000803e3d6000fd5b505050506040513d601f19601f8201168201806040525081019061161f9190612bfe565b90505b92915050565b60006116326125c5565b6001600160a01b03821661164557600080fd5b60008084600981111561165a5761165a612d65565b14156117165761166d600d600c856125e7565b156116e6576001600160a01b0383166000908152600d6020526040812055611696600b846126e6565b6116e657600b80546001810182556000919091527f0175b7a638427703f0dbe7bb9bbf987a2551717b34e79f33b5b1008d1fa01db90180546001600160a01b0319166001600160a01b0385161790555b506001600160a01b0382166000908152600c60205260409020805460ff81161560ff199091168117909155611e5e565b600184600981111561172a5761172a612d65565b14156117e65761173d6010600f856125e7565b156117b6576001600160a01b038316600090815260106020526040812055611766600e846126e6565b6117b657600e80546001810182556000919091527fbb7b4a454dc3493923482f07822329ed19e8244eff582cc204f8554c3620c3fd0180546001600160a01b0319166001600160a01b0385161790555b506001600160a01b0382166000908152600f60205260409020805460ff81161560ff199091168117909155611e5e565b60028460098111156117fa576117fa612d65565b14156118b65761180d600a6009856125e7565b15611886576001600160a01b0383166000908152600a60205260408120556118366004846126e6565b61188657600480546001810182556000919091527f8a35acfbc15ff81a39ae7d344fd709f28e8600b4aa8c65c6b64bfe7fe36bd19b0180546001600160a01b0319166001600160a01b0385161790555b506001600160a01b0382166000908152600960205260409020805460ff81161560ff199091168117909155611e5e565b60038460098111156118ca576118ca612d65565b14156119c3576118dd60196018856125e7565b1561199357601780546001810182557fc624b66cc0138b8fabc209247f72d758e1cf3343756d543badbf24212bed8c150180546001600160a01b0319166001600160a01b03861690811790915560009081526019602052604081205561194390846126e6565b61199357601780546001810182556000919091527fc624b66cc0138b8fabc209247f72d758e1cf3343756d543badbf24212bed8c150180546001600160a01b0319166001600160a01b0385161790555b506001600160a01b0382166000908152601860205260409020805460ff81161560ff199091168117909155611e5e565b60048460098111156119d7576119d7612d65565b1415611ad0576119ea60166015856125e7565b15611aa057601480546001810182557fce6d7b5282bd9a3661ae061feed1dbda4e52ab073b1f9285be6e155d9c38d4ec0180546001600160a01b0319166001600160a01b038616908117909155600090815260166020526040812055611a5090846126e6565b611aa057601480546001810182556000919091527fce6d7b5282bd9a3661ae061feed1dbda4e52ab073b1f9285be6e155d9c38d4ec0180546001600160a01b0319166001600160a01b0385161790555b506001600160a01b0382166000908152601560205260409020805460ff81161560ff199091168117909155611e5e565b6005846009811115611ae457611ae4612d65565b1415611ba057611af760136012856125e7565b15611b70576001600160a01b038316600090815260136020526040812055611b206011846126e6565b611b7057601180546001810182556000919091527f31ecc21a745e3968a04e9570e4425bc18fa8019c68028196b546d1669c200c680180546001600160a01b0319166001600160a01b0385161790555b506001600160a01b0382166000908152601260205260409020805460ff81161560ff199091168117909155611e5e565b6006846009811115611bb457611bb4612d65565b1415611c7057611bc7601c601b856125e7565b15611c40576001600160a01b0383166000908152601c6020526040812055611bf0601a846126e6565b611c4057601a80546001810182556000919091527f057c384a7d1c54f3a1b2e5e67b2617b8224fdfd1ea7234eea573a6ff665ff63e0180546001600160a01b0319166001600160a01b0385161790555b506001600160a01b0382166000908152601b60205260409020805460ff81161560ff199091168117909155611e5e565b6007846009811115611c8457611c84612d65565b1415611d4057611c97601f601e856125e7565b15611d10576001600160a01b0383166000908152601f6020526040812055611cc0601d846126e6565b611d1057601d80546001810182556000919091527f6d4407e7be21f808e6509aa9fa9143369579dd7d760fe20a2c09680fc146134f0180546001600160a01b0319166001600160a01b0385161790555b506001600160a01b0382166000908152601e60205260409020805460ff81161560ff199091168117909155611e5e565b6008846009811115611d5457611d54612d65565b1415611e1457611d6760226021856125e7565b15611de4576001600160a01b0383166000908152602260209081526040822091909155611d9490846126e6565b611de457602080546001810182556000919091527fc97bfaf2f8ee708c303a06d134f5ecd8389ae0432af62dc132a24118292866bb0180546001600160a01b0319166001600160a01b0385161790555b506001600160a01b0382166000908152602160205260409020805460ff81161560ff199091168117909155611e5e565b6009846009811115611e2857611e28612d65565b1415611e5457506000600555600180546001600160a01b0319166001600160a01b038416178155611e5e565b6000915050611622565b836009811115611e7057611e70612d65565b604080516001600160a01b038616815283151560208201527f0dcacb7e392f3d6a216ed2660e3dcfd40b7793d33591db2ba185a6b8e44fc477910160405180910390a25060019392505050565b336000908152601e602052604090205460ff16611f1c5760405162461bcd60e51b815260206004820152601660248201527f54726561737572793a204e6f7420617070726f7665640000000000000000000060448201526064016102fc565b6001600160a01b03811660009081526009602052604090205460ff16611f845760405162461bcd60e51b815260206004820152601660248201527f54726561737572793a204e6f742061636365707465640000000000000000000060448201526064016102fc565b611f996001600160a01b038216333085612562565b6000611fa5828461143e565b60015460405163ae5c6cd360e01b815260048101839052336024820152600060448201529192506001600160a01b03169063ae5c6cd390606401600060405180830381600087803b158015611ff957600080fd5b505af115801561200d573d6000803e3d6000fd5b505060075461201f92509050826124a8565b60075560065461202f90826125b9565b60068190556040517f93bb8edd35984706eee1b92541281f7f62d33c01c5b2ec0929a113603bd21d6690600090a260408051848152602081018390526001600160a01b0384169133917fc6d98eecfc9c78ab62c89a82950079b54874749f1f6f24090f7acc758bc2f3099101610c6e565b6120a86125c5565b6001600160a01b0385166120bb57600080fd5b6001600160a01b0384166120ce57600080fd5b6001600160a01b0383166120e157600080fd5b600080546001600160a01b03199081166001600160a01b039788161782556001805482169688169690961786556002805482169588169590951790945591909416808252600960205260408220805460ff1916851790556004805494850181559091527f8a35acfbc15ff81a39ae7d344fd709f28e8600b4aa8c65c6b64bfe7fe36bd19b90920180549091169091179055600355565b60006121816125c5565b6001600160a01b03821661219457600080fd5b60008360098111156121a8576121a8612d65565b14156121da576003546121bc9043906125b9565b6001600160a01b0383166000908152600d6020526040902055612451565b60018360098111156121ee576121ee612d65565b1415612220576003546122029043906125b9565b6001600160a01b038316600090815260106020526040902055612451565b600283600981111561223457612234612d65565b1415612266576003546122489043906125b9565b6001600160a01b0383166000908152600a6020526040902055612451565b600383600981111561227a5761227a612d65565b14156122b757600354612299906122929060026125cf565b43906125b9565b6001600160a01b038316600090815260196020526040902055612451565b60048360098111156122cb576122cb612d65565b14156122fd576003546122df9043906125b9565b6001600160a01b038316600090815260166020526040902055612451565b600583600981111561231157612311612d65565b1415612343576003546123259043906125b9565b6001600160a01b038316600090815260136020526040902055612451565b600683600981111561235757612357612d65565b141561238d5760035461236f906122929060026125cf565b6001600160a01b0383166000908152601c6020526040902055612451565b60078360098111156123a1576123a1612d65565b14156123d3576003546123b59043906125b9565b6001600160a01b0383166000908152601f6020526040902055612451565b60088360098111156123e7576123e7612d65565b1415612419576003546123fb9043906125b9565b6001600160a01b038316600090815260226020526040902055612451565b600983600981111561242d5761242d612d65565b1415612449576003546124419043906125b9565b600555612451565b506000611622565b82600981111561246357612463612d65565b6040516001600160a01b03841681527f0e4f2c4b5bc209d509bc3d49348c787fefadc66a79351b470599ac0f5be52eaf9060200160405180910390a250600192915050565b600061161f8284612c5e565b6040516001600160a01b03831660248201526044810182905261255d9084907fa9059cbb00000000000000000000000000000000000000000000000000000000906064015b60408051601f198184030181529190526020810180517bffffffffffffffffffffffffffffffffffffffffffffffffffffffff167fffffffff0000000000000000000000000000000000000000000000000000000090931692909217909152612746565b505050565b6040516001600160a01b03808516602483015283166044820152606481018290526125b39085907f23b872dd00000000000000000000000000000000000000000000000000000000906084016124f9565b50505050565b600061161f8284612d7b565b6125cd61282b565b565b600061161f8284612d93565b600061161f8284612db2565b6001600160a01b03811660009081526020839052604081205460ff166126dc576001600160a01b03821660009081526020859052604090205461266c5760405162461bcd60e51b815260206004820152600a60248201527f4d7573742071756575650000000000000000000000000000000000000000000060448201526064016102fc565b6001600160a01b0382166000908152602085905260409020544310156126d45760405162461bcd60e51b815260206004820152601160248201527f5175657565206e6f74206578706972656400000000000000000000000000000060448201526064016102fc565b506001611282565b5060009392505050565b6000805b83548110156126dc57826001600160a01b031684828154811061270f5761270f612c17565b6000918252602090912001546001600160a01b03161415612734576001915050611622565b8061273e81612c43565b9150506126ea565b600061279b826040518060400160405280602081526020017f5361666545524332303a206c6f772d6c6576656c2063616c6c206661696c6564815250856001600160a01b03166128cd9092919063ffffffff16565b80519091501561255d57808060200190518101906127b99190612dd4565b61255d5760405162461bcd60e51b815260206004820152602a60248201527f5361666545524332303a204552433230206f7065726174696f6e20646964206e60448201527f6f7420737563636565640000000000000000000000000000000000000000000060648201526084016102fc565b7fc8fcad8db84d3cc18b4c41d551ea0ee66dd599cde068d998e57d5e09332c131c600401546001600160a01b031633146125cd5760405162461bcd60e51b815260206004820152602260248201527f4c69624469616d6f6e643a20696e76616c696420636f6e7472616374206f776e60448201527f657200000000000000000000000000000000000000000000000000000000000060648201526084016102fc565b60606128dc84846000856128e4565b949350505050565b60608247101561295c5760405162461bcd60e51b815260206004820152602660248201527f416464726573733a20696e73756666696369656e742062616c616e636520666f60448201527f722063616c6c000000000000000000000000000000000000000000000000000060648201526084016102fc565b843b6129aa5760405162461bcd60e51b815260206004820152601d60248201527f416464726573733a2063616c6c20746f206e6f6e2d636f6e747261637400000060448201526064016102fc565b600080866001600160a01b031685876040516129c69190612e22565b60006040518083038185875af1925050503d8060008114612a03576040519150601f19603f3d011682016040523d82523d6000602084013e612a08565b606091505b5091509150612a18828286612a23565b979650505050505050565b60608315612a32575081611282565b825115612a425782518084602001fd5b8160405162461bcd60e51b81526004016102fc9190612e3e565b80356001600160a01b0381168114612a7357600080fd5b919050565b60008060408385031215612a8b57600080fd5b82359150612a9b60208401612a5c565b90509250929050565b60008060008060808587031215612aba57600080fd5b84359350612aca60208601612a5c565b93969395505050506040820135916060013590565b60008060408385031215612af257600080fd5b612afb83612a5c565b946020939093013593505050565b600060208284031215612b1b57600080fd5b61161f82612a5c565b600080600060608486031215612b3957600080fd5b83359250612b4960208501612a5c565b9150604084013590509250925092565b600060208284031215612b6b57600080fd5b5035919050565b60008060408385031215612b8557600080fd5b8235600a8110612b9457600080fd5b9150612a9b60208401612a5c565b600080600080600060a08688031215612bba57600080fd5b612bc386612a5c565b9450612bd160208701612a5c565b9350612bdf60408701612a5c565b9250612bed60608701612a5c565b949793965091946080013592915050565b600060208284031215612c1057600080fd5b5051919050565b634e487b7160e01b600052603260045260246000fd5b634e487b7160e01b600052601160045260246000fd5b6000600019821415612c5757612c57612c2d565b5060010190565b600082821015612c7057612c70612c2d565b500390565b600181815b80851115612cb0578160001904821115612c9657612c96612c2d565b80851615612ca357918102915b93841c9390800290612c7a565b509250929050565b600082612cc757506001611622565b81612cd457506000611622565b8160018114612cea5760028114612cf457612d10565b6001915050611622565b60ff841115612d0557612d05612c2d565b50506001821b611622565b5060208310610133831016604e8410600b8410161715612d33575081810a611622565b612d3d8383612c75565b8060001904821115612d5157612d51612c2d565b029392505050565b600061161f8383612cb8565b634e487b7160e01b600052602160045260246000fd5b60008219821115612d8e57612d8e612c2d565b500190565b6000816000190483118215151615612dad57612dad612c2d565b500290565b600082612dcf57634e487b7160e01b600052601260045260246000fd5b500490565b600060208284031215612de657600080fd5b8151801515811461128257600080fd5b60005b83811015612e11578181015183820152602001612df9565b838111156125b35750506000910152565b60008251612e34818460208701612df6565b9190910192915050565b6020815260008251806020840152612e5d816040850160208701612df6565b601f01601f1916919091016040019291505056fea26469706673582212202ce481dd9aacc40a6456f6a785ba58241fbc55e23e6a8460e03f129dfe9d77ca64736f6c634300080a0033",
  "devdoc": {
    "kind": "dev",
    "methods": {
      "baseSupply()": {
        "details": "use this any time you need to query supply"
      },
      "deposit(uint256,address,uint256)": {
        "params": {
          "_amount": "uint",
          "_profit": "uint",
          "_token": "address"
        },
        "returns": {
          "send_": "uint"
        }
      },
      "depositLP(uint256,address,uint256,uint256)": {
        "params": {
          "_amount": "uint",
          "_profit": "uint",
          "_token": "address",
          "_value": "uint"
        }
      },
      "excessReserves()": {
        "returns": {
          "_0": "uint"
        }
      },
      "incurDebt(uint256,address)": {
        "params": {
          "_amount": "uint",
          "_token": "address"
        }
      },
      "manage(address,uint256)": {
        "params": {
          "_amount": "uint",
          "_token": "address"
        }
      },
      "queue(uint8,address)": {
        "params": {
          "_address": "address",
          "_managing": "MANAGING"
        },
        "returns": {
          "_0": "bool"
        }
      },
      "repayDebtWithNecc(uint256)": {
        "params": {
          "_amount": "uint"
        }
      },
      "repayDebtWithReserve(uint256,address)": {
        "params": {
          "_amount": "uint",
          "_token": "address"
        }
      },
      "toggle(uint8,address)": {
        "params": {
          "_address": "address",
          "_managing": "MANAGING"
        },
        "returns": {
          "_0": "bool"
        }
      },
      "valueOfToken(address,uint256)": {
        "params": {
          "_amount": "uint",
          "_token": "address"
        },
        "returns": {
          "_value": "uint"
        }
      },
      "withdraw(uint256,address)": {
        "params": {
          "_amount": "uint",
          "_token": "address"
        }
      }
    },
    "version": 1
  },
  "userdoc": {
    "kind": "user",
    "methods": {
      "auditReserves()": {
        "notice": "takes inventory of all tracked assetsalways consolidate to recognized reserves before audit"
      },
      "baseSupply()": {
        "notice": "returns supply metric that cannot be manipulated by debt"
      },
      "deposit(uint256,address,uint256)": {
        "notice": "allow approved address to deposit an asset for Necc"
      },
      "depositLP(uint256,address,uint256,uint256)": {
        "notice": "allow approved address to deposit an asset for Necc"
      },
      "excessReserves()": {
        "notice": "returns excess reserves not backing tokens"
      },
      "incurDebt(uint256,address)": {
        "notice": "allow approved address to borrow reserves"
      },
      "manage(address,uint256)": {
        "notice": "allow approved address to withdraw assets"
      },
      "mintRewards(address,uint256)": {
        "notice": "send epoch reward to staking contract"
      },
      "queue(uint8,address)": {
        "notice": "queue address to change boolean in mapping"
      },
      "repayDebtWithNecc(uint256)": {
        "notice": "allow approved address to repay borrowed reserves with Necc"
      },
      "repayDebtWithReserve(uint256,address)": {
        "notice": "allow approved address to repay borrowed reserves with reserves"
      },
      "toggle(uint8,address)": {
        "notice": "verify queue then set boolean in mapping"
      },
      "valueOfToken(address,uint256)": {
        "notice": "returns Necc valuation of asset"
      },
      "withdraw(uint256,address)": {
        "notice": "allow approved address to burn Necc for reserves"
      }
    },
    "version": 1
  },
  "storageLayout": {
    "storage": [
      {
        "astId": 10398,
        "contract": "contracts/facets/Treasury/TreasuryFacet.sol:TreasuryFacet",
        "label": "s",
        "offset": 0,
        "slot": "0",
        "type": "t_struct(Storage)21368_storage"
      }
    ],
    "types": {
      "t_address": {
        "encoding": "inplace",
        "label": "address",
        "numberOfBytes": "20"
      },
      "t_array(t_address)dyn_storage": {
        "base": "t_address",
        "encoding": "dynamic_array",
        "label": "address[]",
        "numberOfBytes": "32"
      },
      "t_bool": {
        "encoding": "inplace",
        "label": "bool",
        "numberOfBytes": "1"
      },
      "t_mapping(t_address,t_bool)": {
        "encoding": "mapping",
        "key": "t_address",
        "label": "mapping(address => bool)",
        "numberOfBytes": "32",
        "value": "t_bool"
      },
      "t_mapping(t_address,t_uint256)": {
        "encoding": "mapping",
        "key": "t_address",
        "label": "mapping(address => uint256)",
        "numberOfBytes": "32",
        "value": "t_uint256"
      },
      "t_struct(Storage)21368_storage": {
        "encoding": "inplace",
        "label": "struct LibTreasuryStorage.Storage",
        "members": [
          {
            "astId": 21254,
            "contract": "contracts/facets/Treasury/TreasuryFacet.sol:TreasuryFacet",
            "label": "Necc",
            "offset": 0,
            "slot": "0",
            "type": "t_address"
          },
          {
            "astId": 21256,
            "contract": "contracts/facets/Treasury/TreasuryFacet.sol:TreasuryFacet",
            "label": "sNecc",
            "offset": 0,
            "slot": "1",
            "type": "t_address"
          },
          {
            "astId": 21258,
            "contract": "contracts/facets/Treasury/TreasuryFacet.sol:TreasuryFacet",
            "label": "nNecc",
            "offset": 0,
            "slot": "2",
            "type": "t_address"
          },
          {
            "astId": 21260,
            "contract": "contracts/facets/Treasury/TreasuryFacet.sol:TreasuryFacet",
            "label": "blocksNeededForQueue",
            "offset": 0,
            "slot": "3",
            "type": "t_uint256"
          },
          {
            "astId": 21263,
            "contract": "contracts/facets/Treasury/TreasuryFacet.sol:TreasuryFacet",
            "label": "reserveTokens",
            "offset": 0,
            "slot": "4",
            "type": "t_array(t_address)dyn_storage"
          },
          {
            "astId": 21265,
            "contract": "contracts/facets/Treasury/TreasuryFacet.sol:TreasuryFacet",
            "label": "sNeccQueue",
            "offset": 0,
            "slot": "5",
            "type": "t_uint256"
          },
          {
            "astId": 21267,
            "contract": "contracts/facets/Treasury/TreasuryFacet.sol:TreasuryFacet",
            "label": "totalReserves",
            "offset": 0,
            "slot": "6",
            "type": "t_uint256"
          },
          {
            "astId": 21269,
            "contract": "contracts/facets/Treasury/TreasuryFacet.sol:TreasuryFacet",
            "label": "totalDebt",
            "offset": 0,
            "slot": "7",
            "type": "t_uint256"
          },
          {
            "astId": 21271,
            "contract": "contracts/facets/Treasury/TreasuryFacet.sol:TreasuryFacet",
            "label": "neccDebt",
            "offset": 0,
            "slot": "8",
            "type": "t_uint256"
          },
          {
            "astId": 21275,
            "contract": "contracts/facets/Treasury/TreasuryFacet.sol:TreasuryFacet",
            "label": "isReserveToken",
            "offset": 0,
            "slot": "9",
            "type": "t_mapping(t_address,t_bool)"
          },
          {
            "astId": 21279,
            "contract": "contracts/facets/Treasury/TreasuryFacet.sol:TreasuryFacet",
            "label": "reserveTokenQueue",
            "offset": 0,
            "slot": "10",
            "type": "t_mapping(t_address,t_uint256)"
          },
          {
            "astId": 21282,
            "contract": "contracts/facets/Treasury/TreasuryFacet.sol:TreasuryFacet",
            "label": "reserveDepositors",
            "offset": 0,
            "slot": "11",
            "type": "t_array(t_address)dyn_storage"
          },
          {
            "astId": 21286,
            "contract": "contracts/facets/Treasury/TreasuryFacet.sol:TreasuryFacet",
            "label": "isReserveDepositor",
            "offset": 0,
            "slot": "12",
            "type": "t_mapping(t_address,t_bool)"
          },
          {
            "astId": 21290,
            "contract": "contracts/facets/Treasury/TreasuryFacet.sol:TreasuryFacet",
            "label": "reserveDepositorQueue",
            "offset": 0,
            "slot": "13",
            "type": "t_mapping(t_address,t_uint256)"
          },
          {
            "astId": 21293,
            "contract": "contracts/facets/Treasury/TreasuryFacet.sol:TreasuryFacet",
            "label": "reserveSpenders",
            "offset": 0,
            "slot": "14",
            "type": "t_array(t_address)dyn_storage"
          },
          {
            "astId": 21297,
            "contract": "contracts/facets/Treasury/TreasuryFacet.sol:TreasuryFacet",
            "label": "isReserveSpender",
            "offset": 0,
            "slot": "15",
            "type": "t_mapping(t_address,t_bool)"
          },
          {
            "astId": 21301,
            "contract": "contracts/facets/Treasury/TreasuryFacet.sol:TreasuryFacet",
            "label": "reserveSpenderQueue",
            "offset": 0,
            "slot": "16",
            "type": "t_mapping(t_address,t_uint256)"
          },
          {
            "astId": 21304,
            "contract": "contracts/facets/Treasury/TreasuryFacet.sol:TreasuryFacet",
            "label": "liquidityTokens",
            "offset": 0,
            "slot": "17",
            "type": "t_array(t_address)dyn_storage"
          },
          {
            "astId": 21308,
            "contract": "contracts/facets/Treasury/TreasuryFacet.sol:TreasuryFacet",
            "label": "isLiquidityToken",
            "offset": 0,
            "slot": "18",
            "type": "t_mapping(t_address,t_bool)"
          },
          {
            "astId": 21312,
            "contract": "contracts/facets/Treasury/TreasuryFacet.sol:TreasuryFacet",
            "label": "LiquidityTokenQueue",
            "offset": 0,
            "slot": "19",
            "type": "t_mapping(t_address,t_uint256)"
          },
          {
            "astId": 21315,
            "contract": "contracts/facets/Treasury/TreasuryFacet.sol:TreasuryFacet",
            "label": "liquidityDepositors",
            "offset": 0,
            "slot": "20",
            "type": "t_array(t_address)dyn_storage"
          },
          {
            "astId": 21319,
            "contract": "contracts/facets/Treasury/TreasuryFacet.sol:TreasuryFacet",
            "label": "isLiquidityDepositor",
            "offset": 0,
            "slot": "21",
            "type": "t_mapping(t_address,t_bool)"
          },
          {
            "astId": 21323,
            "contract": "contracts/facets/Treasury/TreasuryFacet.sol:TreasuryFacet",
            "label": "LiquidityDepositorQueue",
            "offset": 0,
            "slot": "22",
            "type": "t_mapping(t_address,t_uint256)"
          },
          {
            "astId": 21326,
            "contract": "contracts/facets/Treasury/TreasuryFacet.sol:TreasuryFacet",
            "label": "reserveManagers",
            "offset": 0,
            "slot": "23",
            "type": "t_array(t_address)dyn_storage"
          },
          {
            "astId": 21330,
            "contract": "contracts/facets/Treasury/TreasuryFacet.sol:TreasuryFacet",
            "label": "isReserveManager",
            "offset": 0,
            "slot": "24",
            "type": "t_mapping(t_address,t_bool)"
          },
          {
            "astId": 21334,
            "contract": "contracts/facets/Treasury/TreasuryFacet.sol:TreasuryFacet",
            "label": "ReserveManagerQueue",
            "offset": 0,
            "slot": "25",
            "type": "t_mapping(t_address,t_uint256)"
          },
          {
            "astId": 21337,
            "contract": "contracts/facets/Treasury/TreasuryFacet.sol:TreasuryFacet",
            "label": "liquidityManagers",
            "offset": 0,
            "slot": "26",
            "type": "t_array(t_address)dyn_storage"
          },
          {
            "astId": 21341,
            "contract": "contracts/facets/Treasury/TreasuryFacet.sol:TreasuryFacet",
            "label": "isLiquidityManager",
            "offset": 0,
            "slot": "27",
            "type": "t_mapping(t_address,t_bool)"
          },
          {
            "astId": 21345,
            "contract": "contracts/facets/Treasury/TreasuryFacet.sol:TreasuryFacet",
            "label": "LiquidityManagerQueue",
            "offset": 0,
            "slot": "28",
            "type": "t_mapping(t_address,t_uint256)"
          },
          {
            "astId": 21348,
            "contract": "contracts/facets/Treasury/TreasuryFacet.sol:TreasuryFacet",
            "label": "debtors",
            "offset": 0,
            "slot": "29",
            "type": "t_array(t_address)dyn_storage"
          },
          {
            "astId": 21352,
            "contract": "contracts/facets/Treasury/TreasuryFacet.sol:TreasuryFacet",
            "label": "isDebtor",
            "offset": 0,
            "slot": "30",
            "type": "t_mapping(t_address,t_bool)"
          },
          {
            "astId": 21356,
            "contract": "contracts/facets/Treasury/TreasuryFacet.sol:TreasuryFacet",
            "label": "debtorQueue",
            "offset": 0,
            "slot": "31",
            "type": "t_mapping(t_address,t_uint256)"
          },
          {
            "astId": 21359,
            "contract": "contracts/facets/Treasury/TreasuryFacet.sol:TreasuryFacet",
            "label": "rewardManagers",
            "offset": 0,
            "slot": "32",
            "type": "t_array(t_address)dyn_storage"
          },
          {
            "astId": 21363,
            "contract": "contracts/facets/Treasury/TreasuryFacet.sol:TreasuryFacet",
            "label": "isRewardManager",
            "offset": 0,
            "slot": "33",
            "type": "t_mapping(t_address,t_bool)"
          },
          {
            "astId": 21367,
            "contract": "contracts/facets/Treasury/TreasuryFacet.sol:TreasuryFacet",
            "label": "rewardManagerQueue",
            "offset": 0,
            "slot": "34",
            "type": "t_mapping(t_address,t_uint256)"
          }
        ],
        "numberOfBytes": "1120"
      },
      "t_uint256": {
        "encoding": "inplace",
        "label": "uint256",
        "numberOfBytes": "32"
      }
    }
  }
}