{
  "address": "0x5642402d7A9e22fa52Fb6Ee0ED86396D704929F8",
  "abi": [
    {
      "anonymous": false,
      "inputs": [
        {
          "indexed": false,
          "internalType": "address",
          "name": "_token",
          "type": "address"
        }
      ],
      "name": "ClearTokenConfig",
      "type": "event"
    },
    {
      "anonymous": false,
      "inputs": [
        {
          "indexed": false,
          "internalType": "address",
          "name": "token",
          "type": "address"
        },
        {
          "indexed": false,
          "internalType": "uint256",
          "name": "amount",
          "type": "uint256"
        }
      ],
      "name": "DirectPoolDeposit",
      "type": "event"
    },
    {
      "anonymous": false,
      "inputs": [
        {
          "indexed": false,
          "internalType": "address",
          "name": "_token",
          "type": "address"
        },
        {
          "indexed": false,
          "internalType": "uint256",
          "name": "_priceSpreadBasisPoints",
          "type": "uint256"
        }
      ],
      "name": "SetPriceSpreadBasisPoints",
      "type": "event"
    },
    {
      "anonymous": false,
      "inputs": [
        {
          "indexed": false,
          "internalType": "address",
          "name": "_token",
          "type": "address"
        },
        {
          "indexed": false,
          "internalType": "uint256",
          "name": "_basisPoints",
          "type": "uint256"
        }
      ],
      "name": "SetRedemptionBasisPoints",
      "type": "event"
    },
    {
      "anonymous": false,
      "inputs": [
        {
          "indexed": false,
          "internalType": "address",
          "name": "_token",
          "type": "address"
        },
        {
          "indexed": false,
          "internalType": "uint256",
          "name": "_tokenDecimals",
          "type": "uint256"
        },
        {
          "indexed": false,
          "internalType": "uint256",
          "name": "_minProfitBasisPoints",
          "type": "uint256"
        },
        {
          "indexed": false,
          "internalType": "address",
          "name": "_priceFeed",
          "type": "address"
        },
        {
          "indexed": false,
          "internalType": "uint256",
          "name": "_priceDecimals",
          "type": "uint256"
        },
        {
          "indexed": false,
          "internalType": "uint256",
          "name": "_priceSpreadBasisPoints",
          "type": "uint256"
        },
        {
          "indexed": false,
          "internalType": "uint256",
          "name": "_tokenWeight",
          "type": "uint256"
        },
        {
          "indexed": false,
          "internalType": "address",
          "name": "_baseTokenPair",
          "type": "address"
        },
        {
          "indexed": false,
          "internalType": "address",
          "name": "_tokenPair",
          "type": "address"
        }
      ],
      "name": "SetTokenConfig",
      "type": "event"
    },
    {
      "anonymous": false,
      "inputs": [
        {
          "indexed": false,
          "internalType": "address",
          "name": "_token",
          "type": "address"
        },
        {
          "indexed": false,
          "internalType": "uint256",
          "name": "_tokenWeight",
          "type": "uint256"
        }
      ],
      "name": "SetTokenWeight",
      "type": "event"
    },
    {
      "anonymous": false,
      "inputs": [
        {
          "indexed": false,
          "internalType": "uint256",
          "name": "_totalTokenWeight",
          "type": "uint256"
        }
      ],
      "name": "SetTotalTokenWeight",
      "type": "event"
    },
    {
      "anonymous": false,
      "inputs": [
        {
          "indexed": false,
          "internalType": "address",
          "name": "_token",
          "type": "address"
        },
        {
          "indexed": false,
          "internalType": "address",
          "name": "_receiver",
          "type": "address"
        },
        {
          "indexed": false,
          "internalType": "uint256",
          "name": "_amount",
          "type": "uint256"
        }
      ],
      "name": "WithdrawFees",
      "type": "event"
    },
    {
      "inputs": [
        {
          "internalType": "address",
          "name": "_token",
          "type": "address"
        }
      ],
      "name": "clearTokenConfig",
      "outputs": [],
      "stateMutability": "nonpayable",
      "type": "function"
    },
    {
      "inputs": [
        {
          "internalType": "address",
          "name": "_token",
          "type": "address"
        }
      ],
      "name": "directPoolDeposit",
      "outputs": [],
      "stateMutability": "nonpayable",
      "type": "function"
    },
    {
      "inputs": [],
      "name": "gov",
      "outputs": [
        {
          "internalType": "address",
          "name": "",
          "type": "address"
        }
      ],
      "stateMutability": "view",
      "type": "function"
    },
    {
      "inputs": [
        {
          "internalType": "address",
          "name": "_weth",
          "type": "address"
        },
        {
          "internalType": "address",
          "name": "_ndol",
          "type": "address"
        }
      ],
      "name": "initialize",
      "outputs": [],
      "stateMutability": "nonpayable",
      "type": "function"
    },
    {
      "inputs": [],
      "name": "isInitialized",
      "outputs": [
        {
          "internalType": "bool",
          "name": "",
          "type": "bool"
        }
      ],
      "stateMutability": "view",
      "type": "function"
    },
    {
      "inputs": [
        {
          "internalType": "address",
          "name": "_token",
          "type": "address"
        }
      ],
      "name": "minProfitBasisPoints",
      "outputs": [
        {
          "internalType": "uint256",
          "name": "",
          "type": "uint256"
        }
      ],
      "stateMutability": "view",
      "type": "function"
    },
    {
      "inputs": [
        {
          "internalType": "address",
          "name": "_token",
          "type": "address"
        }
      ],
      "name": "redemptionBasisPoints",
      "outputs": [
        {
          "internalType": "uint256",
          "name": "",
          "type": "uint256"
        }
      ],
      "stateMutability": "view",
      "type": "function"
    },
    {
      "inputs": [
        {
          "internalType": "address",
          "name": "_newGov",
          "type": "address"
        }
      ],
      "name": "setGov",
      "outputs": [],
      "stateMutability": "nonpayable",
      "type": "function"
    },
    {
      "inputs": [
        {
          "internalType": "address",
          "name": "_token",
          "type": "address"
        },
        {
          "internalType": "uint256",
          "name": "_priceSpreadBasisPoints",
          "type": "uint256"
        }
      ],
      "name": "setPriceSpreadBasisPoints",
      "outputs": [],
      "stateMutability": "nonpayable",
      "type": "function"
    },
    {
      "inputs": [
        {
          "internalType": "address",
          "name": "_token",
          "type": "address"
        },
        {
          "internalType": "uint256",
          "name": "_redemptionBasisPoints",
          "type": "uint256"
        }
      ],
      "name": "setRedemptionBasisPoints",
      "outputs": [],
      "stateMutability": "nonpayable",
      "type": "function"
    },
    {
      "inputs": [
        {
          "internalType": "address",
          "name": "_token",
          "type": "address"
        },
        {
          "internalType": "uint256",
          "name": "_tokenDecimals",
          "type": "uint256"
        },
        {
          "internalType": "uint256",
          "name": "_minProfitBasisPoints",
          "type": "uint256"
        },
        {
          "internalType": "address",
          "name": "_priceFeed",
          "type": "address"
        },
        {
          "internalType": "uint256",
          "name": "_priceDecimals",
          "type": "uint256"
        },
        {
          "internalType": "uint256",
          "name": "_priceSpreadBasisPoints",
          "type": "uint256"
        },
        {
          "internalType": "uint256",
          "name": "_tokenWeight",
          "type": "uint256"
        },
        {
          "internalType": "address",
          "name": "_baseTokenPair",
          "type": "address"
        },
        {
          "internalType": "address",
          "name": "_tokenPair",
          "type": "address"
        }
      ],
      "name": "setTokenConfig",
      "outputs": [],
      "stateMutability": "nonpayable",
      "type": "function"
    },
    {
      "inputs": [
        {
          "internalType": "address",
          "name": "_token",
          "type": "address"
        },
        {
          "internalType": "uint256",
          "name": "_tokenWeight",
          "type": "uint256"
        }
      ],
      "name": "setTokenWeight",
      "outputs": [],
      "stateMutability": "nonpayable",
      "type": "function"
    },
    {
      "inputs": [
        {
          "internalType": "address",
          "name": "_token",
          "type": "address"
        }
      ],
      "name": "tokenDecimals",
      "outputs": [
        {
          "internalType": "uint256",
          "name": "",
          "type": "uint256"
        }
      ],
      "stateMutability": "view",
      "type": "function"
    },
    {
      "inputs": [
        {
          "internalType": "address",
          "name": "_token",
          "type": "address"
        }
      ],
      "name": "tokenWeights",
      "outputs": [
        {
          "internalType": "uint256",
          "name": "",
          "type": "uint256"
        }
      ],
      "stateMutability": "view",
      "type": "function"
    },
    {
      "inputs": [],
      "name": "totalTokenWeight",
      "outputs": [
        {
          "internalType": "uint256",
          "name": "",
          "type": "uint256"
        }
      ],
      "stateMutability": "view",
      "type": "function"
    },
    {
      "inputs": [
        {
          "internalType": "address",
          "name": "_token",
          "type": "address"
        }
      ],
      "name": "updateTokenBalance",
      "outputs": [],
      "stateMutability": "nonpayable",
      "type": "function"
    },
    {
      "inputs": [],
      "name": "whitelistedTokenCount",
      "outputs": [
        {
          "internalType": "uint256",
          "name": "",
          "type": "uint256"
        }
      ],
      "stateMutability": "view",
      "type": "function"
    },
    {
      "inputs": [
        {
          "internalType": "address",
          "name": "_token",
          "type": "address"
        }
      ],
      "name": "whitelistedTokens",
      "outputs": [
        {
          "internalType": "bool",
          "name": "",
          "type": "bool"
        }
      ],
      "stateMutability": "view",
      "type": "function"
    },
    {
      "inputs": [
        {
          "internalType": "address",
          "name": "_token",
          "type": "address"
        },
        {
          "internalType": "address",
          "name": "_receiver",
          "type": "address"
        }
      ],
      "name": "withdrawFees",
      "outputs": [
        {
          "internalType": "uint256",
          "name": "",
          "type": "uint256"
        }
      ],
      "stateMutability": "nonpayable",
      "type": "function"
    }
  ],
  "transactionHash": "0x7aa0b7d7a3626d3c9c827e268a6f6286d409e89553a3447841982fc973f3c23a",
  "args": [],
  "solcInputHash": "9724ee8a6c176e68ba378ec9fae0cfa5",
  "bytecode": "0x608060405234801561001057600080fd5b506000805460ff191690556118b88061002a6000396000f3fe608060405234801561001057600080fd5b50600436106101515760003560e01c80637933dd0a116100cd578063ae937fdf11610081578063daf9c21011610066578063daf9c2101461031d578063e67f59a714610330578063f25552781461034357600080fd5b8063ae937fdf146102f7578063cfad57a21461030a57600080fd5b806388b1fbdf116100b257806388b1fbdf1461027c5780638ee573ac146102a5578063ab2f3ad4146102ce57600080fd5b80637933dd0a1461024057806387b337e81461026957600080fd5b8063485cc955116101245780635f7bc119116101095780635f7bc1191461021257806362287a321461022557806371aa61e91461022d57600080fd5b8063485cc955146101ec5780634ca439d3146101ff57600080fd5b806312d43a5114610156578063331fe19d14610195578063392e53cd146101aa5780633ebd04bb146101da575b600080fd5b7fc8fcad8db84d3cc18b4c41d551ea0ee66dd599cde068d998e57d5e09332c1320546040516001600160a01b0390911681526020015b60405180910390f35b6101a86101a3366004611640565b610356565b005b6002547501000000000000000000000000000000000000000000900460ff165b604051901515815260200161018c565b6013545b60405190815260200161018c565b6101a86101fa36600461166a565b6103b7565b6101a861020d366004611640565b610550565b6101a861022036600461169d565b6105fa565b6101de6106b0565b6101a861023b3660046116b8565b6106c1565b6101de61024e36600461169d565b6001600160a01b031660009081526008602052604090205490565b6101a861027736600461169d565b6108db565b6101de61028a36600461169d565b6001600160a01b031660009081526009602052604090205490565b6101de6102b336600461169d565b6001600160a01b031660009081526007602052604090205490565b6101de6102dc36600461169d565b6001600160a01b031660009081526012602052604090205490565b6101a8610305366004611640565b6108fc565b6101a861031836600461169d565b6109f5565b6101ca61032b36600461169d565b6109fe565b6101a861033e36600461169d565b610a11565b6101de61035136600461166a565b610b7c565b61035e610c27565b6001600160a01b038216600081815260086020908152604091829020849055815192835282018390527fb6aea5883739d50d55e232a8c883371c3717548b3626e3664e3dd5487b35dd3891015b60405180910390a15050565b6103bf610c27565b6002547501000000000000000000000000000000000000000000900460ff16156104305760405162461bcd60e51b815260206004820152601a60248201527f5661756c743a20616c726561647920696e697469616c697a656400000000000060448201526064015b60405180910390fd5b6001600160a01b0382166104865760405162461bcd60e51b815260206004820152601b60248201527f5661756c743a20696e76616c69642057455448206164647265737300000000006044820152606401610427565b6001600160a01b0381166104dc5760405162461bcd60e51b815260206004820152601c60248201527f5661756c743a20696e76616c6964205f6e646f6c2061646472657373000000006044820152606401610427565b60028054600180546001600160a01b0395861673ffffffffffffffffffffffffffffffffffffffff19909116179055919092167fffffffffffffffffffff00000000000000000000000000000000000000000000909116177501010000000000000000000000000000000000000000179055565b61271081106105a15760405162461bcd60e51b815260206004820152601d60248201527f5661756c743a2070726963652073707265616420746f6f206c617267650000006044820152606401610427565b6105a9610c27565b6001600160a01b038216600081815260176020908152604091829020849055815192835282018390527f326439cb2172b4d536badcf1616ca74141acb75a7a9746b6c4f8b96b4c4c3dc191016103ab565b610605600082610c31565b6000610612600083610c9f565b9050600081116106645760405162461bcd60e51b815260206004820152601b60248201527f5661756c743a20696e76616c6964205f746f6b656e416d6f756e7400000000006044820152606401610427565b61067060008383610d50565b50604080516001600160a01b0384168152602081018390527fa5a389190ebf6170a133bda5c769b77f4d6715b8aa172ec0ddf8473d0b4944bd91016103ab565b60006106bc6003610e00565b905090565b6106c9610c27565b6106d460038a610e0a565b506001600160a01b03808a166000908152600560209081526040808320805460ff19166001179055600782528083208c9055600982528083208b9055601582528083208054948b1673ffffffffffffffffffffffffffffffffffffffff1990951694909417909355601681528282208890556017815282822087905560129052205461076f576013546107679084610e1f565b6013556107a7565b6001600160a01b03891660009081526012602052604090205460135461079491610e2b565b60138190556107a39084610e1f565b6013555b6001600160a01b03808a16600090815260126020908152604080832087905560089091529020612710905582161561082e576001600160a01b038981166000908152601860209081526040808320805473ffffffffffffffffffffffffffffffffffffffff1990811688871617909155601990925290912080549091169183169190911790555b600254610857908a9074010000000000000000000000000000000000000000900460ff16610e37565b50604080516001600160a01b038b81168252602082018b90528183018a905288811660608301526080820188905260a0820187905260c0820186905284811660e0830152831661010082015290517f92b546b0c6e0fc06020aa248b1e5561da4f21768040a775e45a8b83afad4ebb0918190036101200190a1505050505050505050565b6108e3610c27565b6108ee600082610c31565b6108f9600082610eca565b50565b610904610c27565b6001600160a01b0382166000908152601260205260409020546109365760135461092e9082610e1f565b60135561096e565b6001600160a01b03821660009081526012602052604090205460135461095b91610e2b565b601381905561096a9082610e1f565b6013555b6001600160a01b038216600081815260126020908152604091829020849055815192835282018390527ff1aeb413328ec56c3f4b8e22b41dda5b43815bc0713c00f9e574485cc7eaaaff910160405180910390a16013546040519081527fc7e6c003bf6e1bdf957b858d7e26071fa6295b0ad0cdad824d566092e8e3c21e906020016103ab565b6108f981610f56565b6000610a0b600383610fac565b92915050565b610a19610c27565b610a24600082610c31565b610a2f600382610fce565b506001600160a01b0381166000908152600560209081526040808320805460ff1916905560078252808320839055600882528083208390556009825280832083905560158252808320805473ffffffffffffffffffffffffffffffffffffffff191690556016825280832083905560178252808320839055601290915290205415610af6576001600160a01b038116600090815260126020526040902054601354610ad991610e2b565b6013556001600160a01b0381166000908152601260205260408120555b6001600160a01b038116600081815260086020908152604080832083905560188252808320805473ffffffffffffffffffffffffffffffffffffffff199081169091556019835292819020805490931690925590519182527f495c0be5e3d6684da4b5918801f3af90b89d76c64348d0177ec923537e87030d910160405180910390a150565b6000610b86610c27565b6001600160a01b03831660009081526011602052604090205480610bae576000915050610a0b565b6001600160a01b0384166000908152601160205260408120819055610bd590858386610fe3565b604080516001600160a01b038087168252851660208201529081018290527f4f1b51dd7a2fcb861aa2670f668be66835c4ee12b4bbbf037e4d0018f39819e49060600160405180910390a19392505050565b610c2f611086565b565b6001600160a01b038116600090815260058301602052604090205460ff16610c9b5760405162461bcd60e51b815260206004820152601c60248201527f5661756c743a20746f6b656e206e6f742077686974656c6973746564000000006044820152606401610427565b5050565b6001600160a01b0381166000818152600a840160205260408082205490516370a0823160e01b8152306004820152919290918391906370a0823190602401602060405180830381865afa158015610cfa573d6000803e3d6000fd5b505050506040513d601f19601f82011682018060405250810190610d1e919061173d565b6001600160a01b0385166000908152600a8701602052604090208190559050610d478183610e2b565b95945050505050565b6001600160a01b0382166000908152600c84016020526040812054610d759083610e1f565b6001600160a01b0384166000908152600c86016020526040902055610d9a8484611128565b604080516001600160a01b0385168152602081018490527f976177fbe09a15e5e43f848844963a42b41ef919ef17ff21a17a5421de8f4737910160405180910390a1506001600160a01b0382166000908152600c840160205260409020545b9392505050565b6000610a0b825490565b6000610df9836001600160a01b038416611205565b6000610df9828461176c565b6000610df98284611784565b6040517f5ae691630000000000000000000000000000000000000000000000000000000081526001600160a01b03831660048201526001602482015281151560448201526000903090635ae6916390606401602060405180830381865afa158015610ea6573d6000803e3d6000fd5b505050506040513d601f19601f82011682018060405250810190610df9919061173d565b6040516370a0823160e01b81523060048201526000906001600160a01b038316906370a0823190602401602060405180830381865afa158015610f11573d6000803e3d6000fd5b505050506040513d601f19601f82011682018060405250810190610f35919061173d565b6001600160a01b039092166000908152600a90930160205250604090912055565b610f5e610c27565b7fc8fcad8db84d3cc18b4c41d551ea0ee66dd599cde068d998e57d5e09332c1320805473ffffffffffffffffffffffffffffffffffffffff19166001600160a01b0392909216919091179055565b6001600160a01b03811660009081526001830160205260408120541515610df9565b6000610df9836001600160a01b038416611254565b6040516370a0823160e01b81523060048201526110579083906001600160a01b038616906370a0823190602401602060405180830381865afa15801561102d573d6000803e3d6000fd5b505050506040513d601f19601f82011682018060405250810190611051919061173d565b90610e2b565b6001600160a01b0384166000818152600a87016020526040902091909155611080908284611347565b50505050565b7fc8fcad8db84d3cc18b4c41d551ea0ee66dd599cde068d998e57d5e09332c131c600401546001600160a01b03163314610c2f5760405162461bcd60e51b815260206004820152602260248201527f4c69624469616d6f6e643a20696e76616c696420636f6e7472616374206f776e60448201527f65720000000000000000000000000000000000000000000000000000000000006064820152608401610427565b6040516370a0823160e01b81523060048201526000906001600160a01b038316906370a0823190602401602060405180830381865afa15801561116f573d6000803e3d6000fd5b505050506040513d601f19601f82011682018060405250810190611193919061173d565b6001600160a01b0383166000908152600c850160205260409020549091508110156112005760405162461bcd60e51b815260206004820152601760248201527f5661756c743a20696e76616c696420696e6372656173650000000000000000006044820152606401610427565b505050565b600081815260018301602052604081205461124c57508154600181810184556000848152602080822090930184905584548482528286019093526040902091909155610a0b565b506000610a0b565b6000818152600183016020526040812054801561133d576000611278600183611784565b855490915060009061128c90600190611784565b90508181146112f15760008660000182815481106112ac576112ac61179b565b90600052602060002001549050808760000184815481106112cf576112cf61179b565b6000918252602080832090910192909255918252600188019052604090208390555b8554869080611302576113026117b1565b600190038181906000526020600020016000905590558560010160008681526020019081526020016000206000905560019350505050610a0b565b6000915050610a0b565b604080516001600160a01b03848116602483015260448083018590528351808403909101815260649092018352602080830180517bffffffffffffffffffffffffffffffffffffffffffffffffffffffff167fa9059cbb0000000000000000000000000000000000000000000000000000000017905283518085019094528084527f5361666545524332303a206c6f772d6c6576656c2063616c6c206661696c65649084015261120092869291600091611405918516908490611495565b805190915015611200578080602001905181019061142391906117c7565b6112005760405162461bcd60e51b815260206004820152602a60248201527f5361666545524332303a204552433230206f7065726174696f6e20646964206e60448201527f6f742073756363656564000000000000000000000000000000000000000000006064820152608401610427565b60606114a484846000856114ac565b949350505050565b6060824710156115245760405162461bcd60e51b815260206004820152602660248201527f416464726573733a20696e73756666696369656e742062616c616e636520666f60448201527f722063616c6c00000000000000000000000000000000000000000000000000006064820152608401610427565b843b6115725760405162461bcd60e51b815260206004820152601d60248201527f416464726573733a2063616c6c20746f206e6f6e2d636f6e74726163740000006044820152606401610427565b600080866001600160a01b0316858760405161158e9190611815565b60006040518083038185875af1925050503d80600081146115cb576040519150601f19603f3d011682016040523d82523d6000602084013e6115d0565b606091505b50915091506115e08282866115eb565b979650505050505050565b606083156115fa575081610df9565b82511561160a5782518084602001fd5b8160405162461bcd60e51b81526004016104279190611831565b80356001600160a01b038116811461163b57600080fd5b919050565b6000806040838503121561165357600080fd5b61165c83611624565b946020939093013593505050565b6000806040838503121561167d57600080fd5b61168683611624565b915061169460208401611624565b90509250929050565b6000602082840312156116af57600080fd5b610df982611624565b60008060008060008060008060006101208a8c0312156116d757600080fd5b6116e08a611624565b985060208a0135975060408a013596506116fc60608b01611624565b955060808a0135945060a08a0135935060c08a0135925061171f60e08b01611624565b915061172e6101008b01611624565b90509295985092959850929598565b60006020828403121561174f57600080fd5b5051919050565b634e487b7160e01b600052601160045260246000fd5b6000821982111561177f5761177f611756565b500190565b60008282101561179657611796611756565b500390565b634e487b7160e01b600052603260045260246000fd5b634e487b7160e01b600052603160045260246000fd5b6000602082840312156117d957600080fd5b81518015158114610df957600080fd5b60005b838110156118045781810151838201526020016117ec565b838111156110805750506000910152565b600082516118278184602087016117e9565b9190910192915050565b60208152600082518060208401526118508160408501602087016117e9565b601f017fffffffffffffffffffffffffffffffffffffffffffffffffffffffffffffffe016919091016040019291505056fea26469706673582212201b0fadaf0fc590d5083bfa969998244ef7871f7e7acdaf790849452135ac163e64736f6c634300080a0033",
  "storageLayout": {
    "storage": [
      {
        "astId": 1516,
        "contract": "contracts/facets/Vault/VaultConfigFacet.sol:VaultConfigFacet",
        "label": "s",
        "offset": 0,
        "slot": "0",
        "type": "t_struct(Storage)4590_storage"
      }
    ],
    "types": {
      "t_address": {
        "encoding": "inplace",
        "label": "address",
        "numberOfBytes": "20"
      },
      "t_array(t_bytes32)dyn_storage": {
        "base": "t_bytes32",
        "encoding": "dynamic_array",
        "label": "bytes32[]",
        "numberOfBytes": "32"
      },
      "t_bool": {
        "encoding": "inplace",
        "label": "bool",
        "numberOfBytes": "1"
      },
      "t_bytes32": {
        "encoding": "inplace",
        "label": "bytes32",
        "numberOfBytes": "32"
      },
      "t_int256": {
        "encoding": "inplace",
        "label": "int256",
        "numberOfBytes": "32"
      },
      "t_mapping(t_address,t_address)": {
        "encoding": "mapping",
        "key": "t_address",
        "label": "mapping(address => address)",
        "numberOfBytes": "32",
        "value": "t_address"
      },
      "t_mapping(t_address,t_bool)": {
        "encoding": "mapping",
        "key": "t_address",
        "label": "mapping(address => bool)",
        "numberOfBytes": "32",
        "value": "t_bool"
      },
      "t_mapping(t_address,t_int256)": {
        "encoding": "mapping",
        "key": "t_address",
        "label": "mapping(address => int256)",
        "numberOfBytes": "32",
        "value": "t_int256"
      },
      "t_mapping(t_address,t_mapping(t_address,t_int256))": {
        "encoding": "mapping",
        "key": "t_address",
        "label": "mapping(address => mapping(address => int256))",
        "numberOfBytes": "32",
        "value": "t_mapping(t_address,t_int256)"
      },
      "t_mapping(t_address,t_uint256)": {
        "encoding": "mapping",
        "key": "t_address",
        "label": "mapping(address => uint256)",
        "numberOfBytes": "32",
        "value": "t_uint256"
      },
      "t_mapping(t_bytes32,t_struct(Position)4475_storage)": {
        "encoding": "mapping",
        "key": "t_bytes32",
        "label": "mapping(bytes32 => struct LibExchangeStorage.Position)",
        "numberOfBytes": "32",
        "value": "t_struct(Position)4475_storage"
      },
      "t_mapping(t_bytes32,t_uint256)": {
        "encoding": "mapping",
        "key": "t_bytes32",
        "label": "mapping(bytes32 => uint256)",
        "numberOfBytes": "32",
        "value": "t_uint256"
      },
      "t_mapping(t_uint80,t_int256)": {
        "encoding": "mapping",
        "key": "t_uint80",
        "label": "mapping(uint80 => int256)",
        "numberOfBytes": "32",
        "value": "t_int256"
      },
      "t_struct(AddressSet)1222_storage": {
        "encoding": "inplace",
        "label": "struct EnumerableSet.AddressSet",
        "members": [
          {
            "astId": 1221,
            "contract": "contracts/facets/Vault/VaultConfigFacet.sol:VaultConfigFacet",
            "label": "_inner",
            "offset": 0,
            "slot": "0",
            "type": "t_struct(Set)921_storage"
          }
        ],
        "numberOfBytes": "64"
      },
      "t_struct(Position)4475_storage": {
        "encoding": "inplace",
        "label": "struct LibExchangeStorage.Position",
        "members": [
          {
            "astId": 4462,
            "contract": "contracts/facets/Vault/VaultConfigFacet.sol:VaultConfigFacet",
            "label": "size",
            "offset": 0,
            "slot": "0",
            "type": "t_uint256"
          },
          {
            "astId": 4464,
            "contract": "contracts/facets/Vault/VaultConfigFacet.sol:VaultConfigFacet",
            "label": "collateral",
            "offset": 0,
            "slot": "1",
            "type": "t_uint256"
          },
          {
            "astId": 4466,
            "contract": "contracts/facets/Vault/VaultConfigFacet.sol:VaultConfigFacet",
            "label": "averagePrice",
            "offset": 0,
            "slot": "2",
            "type": "t_uint256"
          },
          {
            "astId": 4468,
            "contract": "contracts/facets/Vault/VaultConfigFacet.sol:VaultConfigFacet",
            "label": "entryFundingRate",
            "offset": 0,
            "slot": "3",
            "type": "t_uint256"
          },
          {
            "astId": 4470,
            "contract": "contracts/facets/Vault/VaultConfigFacet.sol:VaultConfigFacet",
            "label": "reserveAmount",
            "offset": 0,
            "slot": "4",
            "type": "t_uint256"
          },
          {
            "astId": 4472,
            "contract": "contracts/facets/Vault/VaultConfigFacet.sol:VaultConfigFacet",
            "label": "realisedPnl",
            "offset": 0,
            "slot": "5",
            "type": "t_int256"
          },
          {
            "astId": 4474,
            "contract": "contracts/facets/Vault/VaultConfigFacet.sol:VaultConfigFacet",
            "label": "lastIncreasedTime",
            "offset": 0,
            "slot": "6",
            "type": "t_uint256"
          }
        ],
        "numberOfBytes": "224"
      },
      "t_struct(Set)921_storage": {
        "encoding": "inplace",
        "label": "struct EnumerableSet.Set",
        "members": [
          {
            "astId": 916,
            "contract": "contracts/facets/Vault/VaultConfigFacet.sol:VaultConfigFacet",
            "label": "_values",
            "offset": 0,
            "slot": "0",
            "type": "t_array(t_bytes32)dyn_storage"
          },
          {
            "astId": 920,
            "contract": "contracts/facets/Vault/VaultConfigFacet.sol:VaultConfigFacet",
            "label": "_indexes",
            "offset": 0,
            "slot": "1",
            "type": "t_mapping(t_bytes32,t_uint256)"
          }
        ],
        "numberOfBytes": "64"
      },
      "t_struct(Storage)4590_storage": {
        "encoding": "inplace",
        "label": "struct LibExchangeStorage.Storage",
        "members": [
          {
            "astId": 4477,
            "contract": "contracts/facets/Vault/VaultConfigFacet.sol:VaultConfigFacet",
            "label": "contractEntered",
            "offset": 0,
            "slot": "0",
            "type": "t_bool"
          },
          {
            "astId": 4479,
            "contract": "contracts/facets/Vault/VaultConfigFacet.sol:VaultConfigFacet",
            "label": "btc",
            "offset": 1,
            "slot": "0",
            "type": "t_address"
          },
          {
            "astId": 4481,
            "contract": "contracts/facets/Vault/VaultConfigFacet.sol:VaultConfigFacet",
            "label": "weth",
            "offset": 0,
            "slot": "1",
            "type": "t_address"
          },
          {
            "astId": 4483,
            "contract": "contracts/facets/Vault/VaultConfigFacet.sol:VaultConfigFacet",
            "label": "ndol",
            "offset": 0,
            "slot": "2",
            "type": "t_address"
          },
          {
            "astId": 4485,
            "contract": "contracts/facets/Vault/VaultConfigFacet.sol:VaultConfigFacet",
            "label": "includeAmmPrice",
            "offset": 20,
            "slot": "2",
            "type": "t_bool"
          },
          {
            "astId": 4487,
            "contract": "contracts/facets/Vault/VaultConfigFacet.sol:VaultConfigFacet",
            "label": "isInitialized",
            "offset": 21,
            "slot": "2",
            "type": "t_bool"
          },
          {
            "astId": 4490,
            "contract": "contracts/facets/Vault/VaultConfigFacet.sol:VaultConfigFacet",
            "label": "tokens",
            "offset": 0,
            "slot": "3",
            "type": "t_struct(AddressSet)1222_storage"
          },
          {
            "astId": 4494,
            "contract": "contracts/facets/Vault/VaultConfigFacet.sol:VaultConfigFacet",
            "label": "whitelistedTokens",
            "offset": 0,
            "slot": "5",
            "type": "t_mapping(t_address,t_bool)"
          },
          {
            "astId": 4499,
            "contract": "contracts/facets/Vault/VaultConfigFacet.sol:VaultConfigFacet",
            "label": "positions",
            "offset": 0,
            "slot": "6",
            "type": "t_mapping(t_bytes32,t_struct(Position)4475_storage)"
          },
          {
            "astId": 4503,
            "contract": "contracts/facets/Vault/VaultConfigFacet.sol:VaultConfigFacet",
            "label": "tokenDecimals",
            "offset": 0,
            "slot": "7",
            "type": "t_mapping(t_address,t_uint256)"
          },
          {
            "astId": 4507,
            "contract": "contracts/facets/Vault/VaultConfigFacet.sol:VaultConfigFacet",
            "label": "redemptionBasisPoints",
            "offset": 0,
            "slot": "8",
            "type": "t_mapping(t_address,t_uint256)"
          },
          {
            "astId": 4511,
            "contract": "contracts/facets/Vault/VaultConfigFacet.sol:VaultConfigFacet",
            "label": "minProfitBasisPoints",
            "offset": 0,
            "slot": "9",
            "type": "t_mapping(t_address,t_uint256)"
          },
          {
            "astId": 4515,
            "contract": "contracts/facets/Vault/VaultConfigFacet.sol:VaultConfigFacet",
            "label": "tokenBalances",
            "offset": 0,
            "slot": "10",
            "type": "t_mapping(t_address,t_uint256)"
          },
          {
            "astId": 4519,
            "contract": "contracts/facets/Vault/VaultConfigFacet.sol:VaultConfigFacet",
            "label": "ndolAmounts",
            "offset": 0,
            "slot": "11",
            "type": "t_mapping(t_address,t_uint256)"
          },
          {
            "astId": 4523,
            "contract": "contracts/facets/Vault/VaultConfigFacet.sol:VaultConfigFacet",
            "label": "poolAmounts",
            "offset": 0,
            "slot": "12",
            "type": "t_mapping(t_address,t_uint256)"
          },
          {
            "astId": 4527,
            "contract": "contracts/facets/Vault/VaultConfigFacet.sol:VaultConfigFacet",
            "label": "reservedAmounts",
            "offset": 0,
            "slot": "13",
            "type": "t_mapping(t_address,t_uint256)"
          },
          {
            "astId": 4531,
            "contract": "contracts/facets/Vault/VaultConfigFacet.sol:VaultConfigFacet",
            "label": "guaranteedUsd",
            "offset": 0,
            "slot": "14",
            "type": "t_mapping(t_address,t_uint256)"
          },
          {
            "astId": 4535,
            "contract": "contracts/facets/Vault/VaultConfigFacet.sol:VaultConfigFacet",
            "label": "cumulativeFundingRates",
            "offset": 0,
            "slot": "15",
            "type": "t_mapping(t_address,t_uint256)"
          },
          {
            "astId": 4539,
            "contract": "contracts/facets/Vault/VaultConfigFacet.sol:VaultConfigFacet",
            "label": "lastFundingTimes",
            "offset": 0,
            "slot": "16",
            "type": "t_mapping(t_address,t_uint256)"
          },
          {
            "astId": 4543,
            "contract": "contracts/facets/Vault/VaultConfigFacet.sol:VaultConfigFacet",
            "label": "feeReserves",
            "offset": 0,
            "slot": "17",
            "type": "t_mapping(t_address,t_uint256)"
          },
          {
            "astId": 4547,
            "contract": "contracts/facets/Vault/VaultConfigFacet.sol:VaultConfigFacet",
            "label": "tokenWeights",
            "offset": 0,
            "slot": "18",
            "type": "t_mapping(t_address,t_uint256)"
          },
          {
            "astId": 4549,
            "contract": "contracts/facets/Vault/VaultConfigFacet.sol:VaultConfigFacet",
            "label": "totalTokenWeight",
            "offset": 0,
            "slot": "19",
            "type": "t_uint256"
          },
          {
            "astId": 4553,
            "contract": "contracts/facets/Vault/VaultConfigFacet.sol:VaultConfigFacet",
            "label": "plugins",
            "offset": 0,
            "slot": "20",
            "type": "t_mapping(t_address,t_bool)"
          },
          {
            "astId": 4557,
            "contract": "contracts/facets/Vault/VaultConfigFacet.sol:VaultConfigFacet",
            "label": "priceFeeds",
            "offset": 0,
            "slot": "21",
            "type": "t_mapping(t_address,t_address)"
          },
          {
            "astId": 4561,
            "contract": "contracts/facets/Vault/VaultConfigFacet.sol:VaultConfigFacet",
            "label": "priceDecimals",
            "offset": 0,
            "slot": "22",
            "type": "t_mapping(t_address,t_uint256)"
          },
          {
            "astId": 4565,
            "contract": "contracts/facets/Vault/VaultConfigFacet.sol:VaultConfigFacet",
            "label": "priceSpreadBasisPoints",
            "offset": 0,
            "slot": "23",
            "type": "t_mapping(t_address,t_uint256)"
          },
          {
            "astId": 4569,
            "contract": "contracts/facets/Vault/VaultConfigFacet.sol:VaultConfigFacet",
            "label": "baseTokenPairs",
            "offset": 0,
            "slot": "24",
            "type": "t_mapping(t_address,t_address)"
          },
          {
            "astId": 4573,
            "contract": "contracts/facets/Vault/VaultConfigFacet.sol:VaultConfigFacet",
            "label": "tokenPairs",
            "offset": 0,
            "slot": "25",
            "type": "t_mapping(t_address,t_address)"
          },
          {
            "astId": 4575,
            "contract": "contracts/facets/Vault/VaultConfigFacet.sol:VaultConfigFacet",
            "label": "answer",
            "offset": 0,
            "slot": "26",
            "type": "t_int256"
          },
          {
            "astId": 4577,
            "contract": "contracts/facets/Vault/VaultConfigFacet.sol:VaultConfigFacet",
            "label": "roundId",
            "offset": 0,
            "slot": "27",
            "type": "t_uint80"
          },
          {
            "astId": 4581,
            "contract": "contracts/facets/Vault/VaultConfigFacet.sol:VaultConfigFacet",
            "label": "answers",
            "offset": 0,
            "slot": "28",
            "type": "t_mapping(t_uint80,t_int256)"
          },
          {
            "astId": 4583,
            "contract": "contracts/facets/Vault/VaultConfigFacet.sol:VaultConfigFacet",
            "label": "totalNDOLMinted",
            "offset": 0,
            "slot": "29",
            "type": "t_uint256"
          },
          {
            "astId": 4589,
            "contract": "contracts/facets/Vault/VaultConfigFacet.sol:VaultConfigFacet",
            "label": "ndolMinted",
            "offset": 0,
            "slot": "30",
            "type": "t_mapping(t_address,t_mapping(t_address,t_int256))"
          }
        ],
        "numberOfBytes": "992"
      },
      "t_uint256": {
        "encoding": "inplace",
        "label": "uint256",
        "numberOfBytes": "32"
      },
      "t_uint80": {
        "encoding": "inplace",
        "label": "uint80",
        "numberOfBytes": "10"
      }
    }
  }
}