{
  "address": "0x4F9e7822CAaD72E68c7a1b57a160079995673019",
  "abi": [
    {
      "anonymous": false,
      "inputs": [
        {
          "indexed": false,
          "internalType": "address",
          "name": "_token",
          "type": "address"
        }
      ],
      "name": "ClearTokenConfig",
      "type": "event"
    },
    {
      "anonymous": false,
      "inputs": [
        {
          "indexed": false,
          "internalType": "address",
          "name": "token",
          "type": "address"
        },
        {
          "indexed": false,
          "internalType": "uint256",
          "name": "amount",
          "type": "uint256"
        }
      ],
      "name": "DirectPoolDeposit",
      "type": "event"
    },
    {
      "anonymous": false,
      "inputs": [
        {
          "indexed": false,
          "internalType": "address",
          "name": "_token",
          "type": "address"
        },
        {
          "indexed": false,
          "internalType": "uint256",
          "name": "_priceSpreadBasisPoints",
          "type": "uint256"
        }
      ],
      "name": "SetPriceSpreadBasisPoints",
      "type": "event"
    },
    {
      "anonymous": false,
      "inputs": [
        {
          "indexed": false,
          "internalType": "address",
          "name": "_token",
          "type": "address"
        },
        {
          "indexed": false,
          "internalType": "uint256",
          "name": "_basisPoints",
          "type": "uint256"
        }
      ],
      "name": "SetRedemptionBasisPoints",
      "type": "event"
    },
    {
      "anonymous": false,
      "inputs": [
        {
          "indexed": false,
          "internalType": "address",
          "name": "_token",
          "type": "address"
        },
        {
          "indexed": false,
          "internalType": "uint256",
          "name": "_tokenDecimals",
          "type": "uint256"
        },
        {
          "indexed": false,
          "internalType": "uint256",
          "name": "_minProfitBasisPoints",
          "type": "uint256"
        },
        {
          "indexed": false,
          "internalType": "address",
          "name": "_priceFeed",
          "type": "address"
        },
        {
          "indexed": false,
          "internalType": "uint256",
          "name": "_priceDecimals",
          "type": "uint256"
        },
        {
          "indexed": false,
          "internalType": "uint256",
          "name": "_priceSpreadBasisPoints",
          "type": "uint256"
        },
        {
          "indexed": false,
          "internalType": "uint256",
          "name": "_tokenWeight",
          "type": "uint256"
        },
        {
          "indexed": false,
          "internalType": "address",
          "name": "_baseTokenPair",
          "type": "address"
        },
        {
          "indexed": false,
          "internalType": "address",
          "name": "_tokenPair",
          "type": "address"
        }
      ],
      "name": "SetTokenConfig",
      "type": "event"
    },
    {
      "anonymous": false,
      "inputs": [
        {
          "indexed": false,
          "internalType": "address",
          "name": "_token",
          "type": "address"
        },
        {
          "indexed": false,
          "internalType": "address",
          "name": "_priceFeed",
          "type": "address"
        },
        {
          "indexed": false,
          "internalType": "uint256",
          "name": "_priceFeedDecimals",
          "type": "uint256"
        }
      ],
      "name": "SetTokenPriceFeed",
      "type": "event"
    },
    {
      "anonymous": false,
      "inputs": [
        {
          "indexed": false,
          "internalType": "address",
          "name": "_token",
          "type": "address"
        },
        {
          "indexed": false,
          "internalType": "uint256",
          "name": "_tokenWeight",
          "type": "uint256"
        }
      ],
      "name": "SetTokenWeight",
      "type": "event"
    },
    {
      "anonymous": false,
      "inputs": [
        {
          "indexed": false,
          "internalType": "uint256",
          "name": "_totalTokenWeight",
          "type": "uint256"
        }
      ],
      "name": "SetTotalTokenWeight",
      "type": "event"
    },
    {
      "anonymous": false,
      "inputs": [
        {
          "indexed": false,
          "internalType": "address",
          "name": "_token",
          "type": "address"
        },
        {
          "indexed": false,
          "internalType": "address",
          "name": "_receiver",
          "type": "address"
        },
        {
          "indexed": false,
          "internalType": "uint256",
          "name": "_amount",
          "type": "uint256"
        }
      ],
      "name": "WithdrawFees",
      "type": "event"
    },
    {
      "inputs": [
        {
          "internalType": "address",
          "name": "_token",
          "type": "address"
        }
      ],
      "name": "clearTokenConfig",
      "outputs": [],
      "stateMutability": "nonpayable",
      "type": "function"
    },
    {
      "inputs": [
        {
          "internalType": "address",
          "name": "_token",
          "type": "address"
        }
      ],
      "name": "directPoolDeposit",
      "outputs": [],
      "stateMutability": "nonpayable",
      "type": "function"
    },
    {
      "inputs": [],
      "name": "gov",
      "outputs": [
        {
          "internalType": "address",
          "name": "",
          "type": "address"
        }
      ],
      "stateMutability": "view",
      "type": "function"
    },
    {
      "inputs": [
        {
          "internalType": "address",
          "name": "_weth",
          "type": "address"
        },
        {
          "internalType": "address",
          "name": "_ndol",
          "type": "address"
        }
      ],
      "name": "initialize",
      "outputs": [],
      "stateMutability": "nonpayable",
      "type": "function"
    },
    {
      "inputs": [],
      "name": "isInitialized",
      "outputs": [
        {
          "internalType": "bool",
          "name": "",
          "type": "bool"
        }
      ],
      "stateMutability": "view",
      "type": "function"
    },
    {
      "inputs": [
        {
          "internalType": "address",
          "name": "_token",
          "type": "address"
        }
      ],
      "name": "minProfitBasisPoints",
      "outputs": [
        {
          "internalType": "uint256",
          "name": "",
          "type": "uint256"
        }
      ],
      "stateMutability": "view",
      "type": "function"
    },
    {
      "inputs": [
        {
          "internalType": "address",
          "name": "_token",
          "type": "address"
        }
      ],
      "name": "priceDecimals",
      "outputs": [
        {
          "internalType": "uint256",
          "name": "",
          "type": "uint256"
        }
      ],
      "stateMutability": "view",
      "type": "function"
    },
    {
      "inputs": [
        {
          "internalType": "address",
          "name": "_token",
          "type": "address"
        }
      ],
      "name": "priceFeed",
      "outputs": [
        {
          "internalType": "address",
          "name": "",
          "type": "address"
        }
      ],
      "stateMutability": "view",
      "type": "function"
    },
    {
      "inputs": [
        {
          "internalType": "address",
          "name": "_token",
          "type": "address"
        }
      ],
      "name": "redemptionBasisPoints",
      "outputs": [
        {
          "internalType": "uint256",
          "name": "",
          "type": "uint256"
        }
      ],
      "stateMutability": "view",
      "type": "function"
    },
    {
      "inputs": [
        {
          "internalType": "address",
          "name": "_newGov",
          "type": "address"
        }
      ],
      "name": "setGov",
      "outputs": [],
      "stateMutability": "nonpayable",
      "type": "function"
    },
    {
      "inputs": [
        {
          "internalType": "address",
          "name": "_token",
          "type": "address"
        },
        {
          "internalType": "uint256",
          "name": "_priceSpreadBasisPoints",
          "type": "uint256"
        }
      ],
      "name": "setPriceSpreadBasisPoints",
      "outputs": [],
      "stateMutability": "nonpayable",
      "type": "function"
    },
    {
      "inputs": [
        {
          "internalType": "address",
          "name": "_token",
          "type": "address"
        },
        {
          "internalType": "uint256",
          "name": "_redemptionBasisPoints",
          "type": "uint256"
        }
      ],
      "name": "setRedemptionBasisPoints",
      "outputs": [],
      "stateMutability": "nonpayable",
      "type": "function"
    },
    {
      "inputs": [
        {
          "internalType": "address",
          "name": "_token",
          "type": "address"
        },
        {
          "internalType": "uint256",
          "name": "_tokenDecimals",
          "type": "uint256"
        },
        {
          "internalType": "uint256",
          "name": "_minProfitBasisPoints",
          "type": "uint256"
        },
        {
          "internalType": "address",
          "name": "_priceFeed",
          "type": "address"
        },
        {
          "internalType": "uint256",
          "name": "_priceDecimals",
          "type": "uint256"
        },
        {
          "internalType": "uint256",
          "name": "_priceSpreadBasisPoints",
          "type": "uint256"
        },
        {
          "internalType": "uint256",
          "name": "_tokenWeight",
          "type": "uint256"
        },
        {
          "internalType": "address",
          "name": "_baseTokenPair",
          "type": "address"
        },
        {
          "internalType": "address",
          "name": "_tokenPair",
          "type": "address"
        }
      ],
      "name": "setTokenConfig",
      "outputs": [],
      "stateMutability": "nonpayable",
      "type": "function"
    },
    {
      "inputs": [
        {
          "internalType": "address",
          "name": "_token",
          "type": "address"
        },
        {
          "internalType": "address",
          "name": "_priceFeed",
          "type": "address"
        },
        {
          "internalType": "uint256",
          "name": "_priceDecimals",
          "type": "uint256"
        }
      ],
      "name": "setTokenPriceFeedConfig",
      "outputs": [],
      "stateMutability": "nonpayable",
      "type": "function"
    },
    {
      "inputs": [
        {
          "internalType": "address",
          "name": "_token",
          "type": "address"
        },
        {
          "internalType": "uint256",
          "name": "_tokenWeight",
          "type": "uint256"
        }
      ],
      "name": "setTokenWeight",
      "outputs": [],
      "stateMutability": "nonpayable",
      "type": "function"
    },
    {
      "inputs": [
        {
          "internalType": "address",
          "name": "_token",
          "type": "address"
        }
      ],
      "name": "tokenDecimals",
      "outputs": [
        {
          "internalType": "uint256",
          "name": "",
          "type": "uint256"
        }
      ],
      "stateMutability": "view",
      "type": "function"
    },
    {
      "inputs": [
        {
          "internalType": "address",
          "name": "_token",
          "type": "address"
        }
      ],
      "name": "tokenWeights",
      "outputs": [
        {
          "internalType": "uint256",
          "name": "",
          "type": "uint256"
        }
      ],
      "stateMutability": "view",
      "type": "function"
    },
    {
      "inputs": [],
      "name": "totalTokenWeight",
      "outputs": [
        {
          "internalType": "uint256",
          "name": "",
          "type": "uint256"
        }
      ],
      "stateMutability": "view",
      "type": "function"
    },
    {
      "inputs": [
        {
          "internalType": "address",
          "name": "_token",
          "type": "address"
        }
      ],
      "name": "updateTokenBalance",
      "outputs": [],
      "stateMutability": "nonpayable",
      "type": "function"
    },
    {
      "inputs": [],
      "name": "whitelistedTokenCount",
      "outputs": [
        {
          "internalType": "uint256",
          "name": "",
          "type": "uint256"
        }
      ],
      "stateMutability": "view",
      "type": "function"
    },
    {
      "inputs": [
        {
          "internalType": "address",
          "name": "_token",
          "type": "address"
        }
      ],
      "name": "whitelistedTokens",
      "outputs": [
        {
          "internalType": "bool",
          "name": "",
          "type": "bool"
        }
      ],
      "stateMutability": "view",
      "type": "function"
    },
    {
      "inputs": [
        {
          "internalType": "address",
          "name": "_token",
          "type": "address"
        },
        {
          "internalType": "address",
          "name": "_receiver",
          "type": "address"
        }
      ],
      "name": "withdrawFees",
      "outputs": [
        {
          "internalType": "uint256",
          "name": "",
          "type": "uint256"
        }
      ],
      "stateMutability": "nonpayable",
      "type": "function"
    }
  ],
  "transactionHash": "0xa990a1df6bf12859d0a94a44bc6dc3404f4f74154c73bbdf9fd64db592671f8f",
  "args": [],
  "solcInputHash": "e5d7cc258a3c92a5dd9d3c825af81c0b",
  "bytecode": "0x608060405234801561001057600080fd5b506000805460ff19169055611b278061002a6000396000f3fe608060405234801561001057600080fd5b50600436106101825760003560e01c806387b337e8116100d8578063cefe0f211161008c578063e67f59a711610066578063e67f59a7146103c0578063f2555278146103d3578063f6dbe014146103e657600080fd5b8063cefe0f2114610371578063cfad57a21461039a578063daf9c210146103ad57600080fd5b80638ee573ac116100bd5780638ee573ac1461030c578063ab2f3ad414610335578063ae937fdf1461035e57600080fd5b806387b337e8146102d057806388b1fbdf146102e357600080fd5b8063485cc9551161013a57806362287a321161011457806362287a321461028c57806371aa61e9146102945780637933dd0a146102a757600080fd5b8063485cc955146102535780634ca439d3146102665780635f7bc1191461027957600080fd5b8063331fe19d1161016b578063331fe19d146101fc578063392e53cd146102115780633ebd04bb1461024157600080fd5b806312d43a51146101875780631fd48b9a146101d0575b600080fd5b7fc8fcad8db84d3cc18b4c41d551ea0ee66dd599cde068d998e57d5e09332c1320546001600160a01b03165b6040516001600160a01b0390911681526020015b60405180910390f35b6101b36101de366004611873565b6001600160a01b039081166000908152601560205260409020541690565b61020f61020a36600461188e565b6103f9565b005b6002547501000000000000000000000000000000000000000000900460ff165b60405190151581526020016101c7565b6013545b6040519081526020016101c7565b61020f6102613660046118b8565b61045a565b61020f61027436600461188e565b6105f3565b61020f610287366004611873565b61069d565b610245610753565b61020f6102a23660046118eb565b610764565b6102456102b5366004611873565b6001600160a01b031660009081526008602052604090205490565b61020f6102de366004611873565b61097e565b6102456102f1366004611873565b6001600160a01b031660009081526009602052604090205490565b61024561031a366004611873565b6001600160a01b031660009081526007602052604090205490565b610245610343366004611873565b6001600160a01b031660009081526012602052604090205490565b61020f61036c36600461188e565b61099f565b61024561037f366004611873565b6001600160a01b031660009081526016602052604090205490565b61020f6103a8366004611873565b610a98565b6102316103bb366004611873565b610aa1565b61020f6103ce366004611873565b610ab4565b6102456103e13660046118b8565b610c1f565b61020f6103f4366004611970565b610cca565b610401610e5a565b6001600160a01b038216600081815260086020908152604091829020849055815192835282018390527fb6aea5883739d50d55e232a8c883371c3717548b3626e3664e3dd5487b35dd3891015b60405180910390a15050565b610462610e5a565b6002547501000000000000000000000000000000000000000000900460ff16156104d35760405162461bcd60e51b815260206004820152601a60248201527f5661756c743a20616c726561647920696e697469616c697a656400000000000060448201526064015b60405180910390fd5b6001600160a01b0382166105295760405162461bcd60e51b815260206004820152601b60248201527f5661756c743a20696e76616c696420574554482061646472657373000000000060448201526064016104ca565b6001600160a01b03811661057f5760405162461bcd60e51b815260206004820152601c60248201527f5661756c743a20696e76616c6964205f6e646f6c20616464726573730000000060448201526064016104ca565b60028054600180546001600160a01b0395861673ffffffffffffffffffffffffffffffffffffffff19909116179055919092167fffffffffffffffffffff00000000000000000000000000000000000000000000909116177501010000000000000000000000000000000000000000179055565b61271081106106445760405162461bcd60e51b815260206004820152601d60248201527f5661756c743a2070726963652073707265616420746f6f206c6172676500000060448201526064016104ca565b61064c610e5a565b6001600160a01b038216600081815260176020908152604091829020849055815192835282018390527f326439cb2172b4d536badcf1616ca74141acb75a7a9746b6c4f8b96b4c4c3dc1910161044e565b6106a8600082610e64565b60006106b5600083610ed2565b9050600081116107075760405162461bcd60e51b815260206004820152601b60248201527f5661756c743a20696e76616c6964205f746f6b656e416d6f756e74000000000060448201526064016104ca565b61071360008383610f83565b50604080516001600160a01b0384168152602081018390527fa5a389190ebf6170a133bda5c769b77f4d6715b8aa172ec0ddf8473d0b4944bd910161044e565b600061075f6003611033565b905090565b61076c610e5a565b61077760038a61103d565b506001600160a01b03808a166000908152600560209081526040808320805460ff19166001179055600782528083208c9055600982528083208b9055601582528083208054948b1673ffffffffffffffffffffffffffffffffffffffff199095169490941790935560168152828220889055601781528282208790556012905220546108125760135461080a9084611052565b60135561084a565b6001600160a01b0389166000908152601260205260409020546013546108379161105e565b60138190556108469084611052565b6013555b6001600160a01b03808a1660009081526012602090815260408083208790556008909152902061271090558216156108d1576001600160a01b038981166000908152601860209081526040808320805473ffffffffffffffffffffffffffffffffffffffff1990811688871617909155601990925290912080549091169183169190911790555b6002546108fa908a9074010000000000000000000000000000000000000000900460ff1661106a565b50604080516001600160a01b038b81168252602082018b90528183018a905288811660608301526080820188905260a0820187905260c0820186905284811660e0830152831661010082015290517f92b546b0c6e0fc06020aa248b1e5561da4f21768040a775e45a8b83afad4ebb0918190036101200190a1505050505050505050565b610986610e5a565b610991600082610e64565b61099c6000826110fd565b50565b6109a7610e5a565b6001600160a01b0382166000908152601260205260409020546109d9576013546109d19082611052565b601355610a11565b6001600160a01b0382166000908152601260205260409020546013546109fe9161105e565b6013819055610a0d9082611052565b6013555b6001600160a01b038216600081815260126020908152604091829020849055815192835282018390527ff1aeb413328ec56c3f4b8e22b41dda5b43815bc0713c00f9e574485cc7eaaaff910160405180910390a16013546040519081527fc7e6c003bf6e1bdf957b858d7e26071fa6295b0ad0cdad824d566092e8e3c21e9060200161044e565b61099c81611189565b6000610aae6003836111df565b92915050565b610abc610e5a565b610ac7600082610e64565b610ad2600382611201565b506001600160a01b0381166000908152600560209081526040808320805460ff1916905560078252808320839055600882528083208390556009825280832083905560158252808320805473ffffffffffffffffffffffffffffffffffffffff191690556016825280832083905560178252808320839055601290915290205415610b99576001600160a01b038116600090815260126020526040902054601354610b7c9161105e565b6013556001600160a01b0381166000908152601260205260408120555b6001600160a01b038116600081815260086020908152604080832083905560188252808320805473ffffffffffffffffffffffffffffffffffffffff199081169091556019835292819020805490931690925590519182527f495c0be5e3d6684da4b5918801f3af90b89d76c64348d0177ec923537e87030d910160405180910390a150565b6000610c29610e5a565b6001600160a01b03831660009081526011602052604090205480610c51576000915050610aae565b6001600160a01b0384166000908152601160205260408120819055610c7890858386611216565b604080516001600160a01b038087168252851660208201529081018290527f4f1b51dd7a2fcb861aa2670f668be66835c4ee12b4bbbf037e4d0018f39819e49060600160405180910390a19392505050565b610cd2610e5a565b610cdd600084610e64565b6001600160a01b038216610d595760405162461bcd60e51b815260206004820152602560248201527f5661756c743a20696e76616c6964206e6577207072696365206665656420616460448201527f647265737300000000000000000000000000000000000000000000000000000060648201526084016104ca565b60008111610dcf5760405162461bcd60e51b815260206004820152602660248201527f5661756c743a20696e76616c6964206e6577207072696365206665656420646560448201527f63696d616c73000000000000000000000000000000000000000000000000000060648201526084016104ca565b6001600160a01b038381166000818152601560209081526040808320805473ffffffffffffffffffffffffffffffffffffffff19169588169586179055601682529182902085905581519283528201929092529081018290527f78d81161df36633045661832b30e4a668e52ef5c00436b2a34b4dc1c5744a8939060600160405180910390a1505050565b610e626112b9565b565b6001600160a01b038116600090815260058301602052604090205460ff16610ece5760405162461bcd60e51b815260206004820152601c60248201527f5661756c743a20746f6b656e206e6f742077686974656c69737465640000000060448201526064016104ca565b5050565b6001600160a01b0381166000818152600a840160205260408082205490516370a0823160e01b8152306004820152919290918391906370a0823190602401602060405180830381865afa158015610f2d573d6000803e3d6000fd5b505050506040513d601f19601f82011682018060405250810190610f5191906119ac565b6001600160a01b0385166000908152600a8701602052604090208190559050610f7a818361105e565b95945050505050565b6001600160a01b0382166000908152600c84016020526040812054610fa89083611052565b6001600160a01b0384166000908152600c86016020526040902055610fcd848461135b565b604080516001600160a01b0385168152602081018490527f976177fbe09a15e5e43f848844963a42b41ef919ef17ff21a17a5421de8f4737910160405180910390a1506001600160a01b0382166000908152600c840160205260409020545b9392505050565b6000610aae825490565b600061102c836001600160a01b038416611438565b600061102c82846119db565b600061102c82846119f3565b6040517f5ae691630000000000000000000000000000000000000000000000000000000081526001600160a01b03831660048201526001602482015281151560448201526000903090635ae6916390606401602060405180830381865afa1580156110d9573d6000803e3d6000fd5b505050506040513d601f19601f8201168201806040525081019061102c91906119ac565b6040516370a0823160e01b81523060048201526000906001600160a01b038316906370a0823190602401602060405180830381865afa158015611144573d6000803e3d6000fd5b505050506040513d601f19601f8201168201806040525081019061116891906119ac565b6001600160a01b039092166000908152600a90930160205250604090912055565b611191610e5a565b7fc8fcad8db84d3cc18b4c41d551ea0ee66dd599cde068d998e57d5e09332c1320805473ffffffffffffffffffffffffffffffffffffffff19166001600160a01b0392909216919091179055565b6001600160a01b0381166000908152600183016020526040812054151561102c565b600061102c836001600160a01b038416611487565b6040516370a0823160e01b815230600482015261128a9083906001600160a01b038616906370a0823190602401602060405180830381865afa158015611260573d6000803e3d6000fd5b505050506040513d601f19601f8201168201806040525081019061128491906119ac565b9061105e565b6001600160a01b0384166000818152600a870160205260409020919091556112b390828461157a565b50505050565b7fc8fcad8db84d3cc18b4c41d551ea0ee66dd599cde068d998e57d5e09332c131c600401546001600160a01b03163314610e625760405162461bcd60e51b815260206004820152602260248201527f4c69624469616d6f6e643a20696e76616c696420636f6e7472616374206f776e60448201527f657200000000000000000000000000000000000000000000000000000000000060648201526084016104ca565b6040516370a0823160e01b81523060048201526000906001600160a01b038316906370a0823190602401602060405180830381865afa1580156113a2573d6000803e3d6000fd5b505050506040513d601f19601f820116820180604052508101906113c691906119ac565b6001600160a01b0383166000908152600c850160205260409020549091508110156114335760405162461bcd60e51b815260206004820152601760248201527f5661756c743a20696e76616c696420696e63726561736500000000000000000060448201526064016104ca565b505050565b600081815260018301602052604081205461147f57508154600181810184556000848152602080822090930184905584548482528286019093526040902091909155610aae565b506000610aae565b600081815260018301602052604081205480156115705760006114ab6001836119f3565b85549091506000906114bf906001906119f3565b90508181146115245760008660000182815481106114df576114df611a0a565b906000526020600020015490508087600001848154811061150257611502611a0a565b6000918252602080832090910192909255918252600188019052604090208390555b855486908061153557611535611a20565b600190038181906000526020600020016000905590558560010160008681526020019081526020016000206000905560019350505050610aae565b6000915050610aae565b604080516001600160a01b03848116602483015260448083018590528351808403909101815260649092018352602080830180517bffffffffffffffffffffffffffffffffffffffffffffffffffffffff167fa9059cbb0000000000000000000000000000000000000000000000000000000017905283518085019094528084527f5361666545524332303a206c6f772d6c6576656c2063616c6c206661696c656490840152611433928692916000916116389185169084906116c8565b80519091501561143357808060200190518101906116569190611a36565b6114335760405162461bcd60e51b815260206004820152602a60248201527f5361666545524332303a204552433230206f7065726174696f6e20646964206e60448201527f6f7420737563636565640000000000000000000000000000000000000000000060648201526084016104ca565b60606116d784846000856116df565b949350505050565b6060824710156117575760405162461bcd60e51b815260206004820152602660248201527f416464726573733a20696e73756666696369656e742062616c616e636520666f60448201527f722063616c6c000000000000000000000000000000000000000000000000000060648201526084016104ca565b843b6117a55760405162461bcd60e51b815260206004820152601d60248201527f416464726573733a2063616c6c20746f206e6f6e2d636f6e747261637400000060448201526064016104ca565b600080866001600160a01b031685876040516117c19190611a84565b60006040518083038185875af1925050503d80600081146117fe576040519150601f19603f3d011682016040523d82523d6000602084013e611803565b606091505b509150915061181382828661181e565b979650505050505050565b6060831561182d57508161102c565b82511561183d5782518084602001fd5b8160405162461bcd60e51b81526004016104ca9190611aa0565b80356001600160a01b038116811461186e57600080fd5b919050565b60006020828403121561188557600080fd5b61102c82611857565b600080604083850312156118a157600080fd5b6118aa83611857565b946020939093013593505050565b600080604083850312156118cb57600080fd5b6118d483611857565b91506118e260208401611857565b90509250929050565b60008060008060008060008060006101208a8c03121561190a57600080fd5b6119138a611857565b985060208a0135975060408a0135965061192f60608b01611857565b955060808a0135945060a08a0135935060c08a0135925061195260e08b01611857565b91506119616101008b01611857565b90509295985092959850929598565b60008060006060848603121561198557600080fd5b61198e84611857565b925061199c60208501611857565b9150604084013590509250925092565b6000602082840312156119be57600080fd5b5051919050565b634e487b7160e01b600052601160045260246000fd5b600082198211156119ee576119ee6119c5565b500190565b600082821015611a0557611a056119c5565b500390565b634e487b7160e01b600052603260045260246000fd5b634e487b7160e01b600052603160045260246000fd5b600060208284031215611a4857600080fd5b8151801515811461102c57600080fd5b60005b83811015611a73578181015183820152602001611a5b565b838111156112b35750506000910152565b60008251611a96818460208701611a58565b9190910192915050565b6020815260008251806020840152611abf816040850160208701611a58565b601f017fffffffffffffffffffffffffffffffffffffffffffffffffffffffffffffffe016919091016040019291505056fea264697066735822122008bb2dd3ff926dbfb0e9c9de9c2fc23ea740587c29b01edb00b8f8c575e7b21964736f6c634300080a0033",
  "storageLayout": {
    "storage": [
      {
        "astId": 1516,
        "contract": "contracts/facets/Vault/VaultConfigFacet.sol:VaultConfigFacet",
        "label": "s",
        "offset": 0,
        "slot": "0",
        "type": "t_struct(Storage)4683_storage"
      }
    ],
    "types": {
      "t_address": {
        "encoding": "inplace",
        "label": "address",
        "numberOfBytes": "20"
      },
      "t_array(t_bytes32)dyn_storage": {
        "base": "t_bytes32",
        "encoding": "dynamic_array",
        "label": "bytes32[]",
        "numberOfBytes": "32"
      },
      "t_bool": {
        "encoding": "inplace",
        "label": "bool",
        "numberOfBytes": "1"
      },
      "t_bytes32": {
        "encoding": "inplace",
        "label": "bytes32",
        "numberOfBytes": "32"
      },
      "t_int256": {
        "encoding": "inplace",
        "label": "int256",
        "numberOfBytes": "32"
      },
      "t_mapping(t_address,t_address)": {
        "encoding": "mapping",
        "key": "t_address",
        "label": "mapping(address => address)",
        "numberOfBytes": "32",
        "value": "t_address"
      },
      "t_mapping(t_address,t_bool)": {
        "encoding": "mapping",
        "key": "t_address",
        "label": "mapping(address => bool)",
        "numberOfBytes": "32",
        "value": "t_bool"
      },
      "t_mapping(t_address,t_int256)": {
        "encoding": "mapping",
        "key": "t_address",
        "label": "mapping(address => int256)",
        "numberOfBytes": "32",
        "value": "t_int256"
      },
      "t_mapping(t_address,t_mapping(t_address,t_int256))": {
        "encoding": "mapping",
        "key": "t_address",
        "label": "mapping(address => mapping(address => int256))",
        "numberOfBytes": "32",
        "value": "t_mapping(t_address,t_int256)"
      },
      "t_mapping(t_address,t_uint256)": {
        "encoding": "mapping",
        "key": "t_address",
        "label": "mapping(address => uint256)",
        "numberOfBytes": "32",
        "value": "t_uint256"
      },
      "t_mapping(t_bytes32,t_struct(Position)4568_storage)": {
        "encoding": "mapping",
        "key": "t_bytes32",
        "label": "mapping(bytes32 => struct LibExchangeStorage.Position)",
        "numberOfBytes": "32",
        "value": "t_struct(Position)4568_storage"
      },
      "t_mapping(t_bytes32,t_uint256)": {
        "encoding": "mapping",
        "key": "t_bytes32",
        "label": "mapping(bytes32 => uint256)",
        "numberOfBytes": "32",
        "value": "t_uint256"
      },
      "t_mapping(t_uint80,t_int256)": {
        "encoding": "mapping",
        "key": "t_uint80",
        "label": "mapping(uint80 => int256)",
        "numberOfBytes": "32",
        "value": "t_int256"
      },
      "t_struct(AddressSet)1222_storage": {
        "encoding": "inplace",
        "label": "struct EnumerableSet.AddressSet",
        "members": [
          {
            "astId": 1221,
            "contract": "contracts/facets/Vault/VaultConfigFacet.sol:VaultConfigFacet",
            "label": "_inner",
            "offset": 0,
            "slot": "0",
            "type": "t_struct(Set)921_storage"
          }
        ],
        "numberOfBytes": "64"
      },
      "t_struct(Position)4568_storage": {
        "encoding": "inplace",
        "label": "struct LibExchangeStorage.Position",
        "members": [
          {
            "astId": 4555,
            "contract": "contracts/facets/Vault/VaultConfigFacet.sol:VaultConfigFacet",
            "label": "size",
            "offset": 0,
            "slot": "0",
            "type": "t_uint256"
          },
          {
            "astId": 4557,
            "contract": "contracts/facets/Vault/VaultConfigFacet.sol:VaultConfigFacet",
            "label": "collateral",
            "offset": 0,
            "slot": "1",
            "type": "t_uint256"
          },
          {
            "astId": 4559,
            "contract": "contracts/facets/Vault/VaultConfigFacet.sol:VaultConfigFacet",
            "label": "averagePrice",
            "offset": 0,
            "slot": "2",
            "type": "t_uint256"
          },
          {
            "astId": 4561,
            "contract": "contracts/facets/Vault/VaultConfigFacet.sol:VaultConfigFacet",
            "label": "entryFundingRate",
            "offset": 0,
            "slot": "3",
            "type": "t_uint256"
          },
          {
            "astId": 4563,
            "contract": "contracts/facets/Vault/VaultConfigFacet.sol:VaultConfigFacet",
            "label": "reserveAmount",
            "offset": 0,
            "slot": "4",
            "type": "t_uint256"
          },
          {
            "astId": 4565,
            "contract": "contracts/facets/Vault/VaultConfigFacet.sol:VaultConfigFacet",
            "label": "realisedPnl",
            "offset": 0,
            "slot": "5",
            "type": "t_int256"
          },
          {
            "astId": 4567,
            "contract": "contracts/facets/Vault/VaultConfigFacet.sol:VaultConfigFacet",
            "label": "lastIncreasedTime",
            "offset": 0,
            "slot": "6",
            "type": "t_uint256"
          }
        ],
        "numberOfBytes": "224"
      },
      "t_struct(Set)921_storage": {
        "encoding": "inplace",
        "label": "struct EnumerableSet.Set",
        "members": [
          {
            "astId": 916,
            "contract": "contracts/facets/Vault/VaultConfigFacet.sol:VaultConfigFacet",
            "label": "_values",
            "offset": 0,
            "slot": "0",
            "type": "t_array(t_bytes32)dyn_storage"
          },
          {
            "astId": 920,
            "contract": "contracts/facets/Vault/VaultConfigFacet.sol:VaultConfigFacet",
            "label": "_indexes",
            "offset": 0,
            "slot": "1",
            "type": "t_mapping(t_bytes32,t_uint256)"
          }
        ],
        "numberOfBytes": "64"
      },
      "t_struct(Storage)4683_storage": {
        "encoding": "inplace",
        "label": "struct LibExchangeStorage.Storage",
        "members": [
          {
            "astId": 4570,
            "contract": "contracts/facets/Vault/VaultConfigFacet.sol:VaultConfigFacet",
            "label": "contractEntered",
            "offset": 0,
            "slot": "0",
            "type": "t_bool"
          },
          {
            "astId": 4572,
            "contract": "contracts/facets/Vault/VaultConfigFacet.sol:VaultConfigFacet",
            "label": "btc",
            "offset": 1,
            "slot": "0",
            "type": "t_address"
          },
          {
            "astId": 4574,
            "contract": "contracts/facets/Vault/VaultConfigFacet.sol:VaultConfigFacet",
            "label": "weth",
            "offset": 0,
            "slot": "1",
            "type": "t_address"
          },
          {
            "astId": 4576,
            "contract": "contracts/facets/Vault/VaultConfigFacet.sol:VaultConfigFacet",
            "label": "ndol",
            "offset": 0,
            "slot": "2",
            "type": "t_address"
          },
          {
            "astId": 4578,
            "contract": "contracts/facets/Vault/VaultConfigFacet.sol:VaultConfigFacet",
            "label": "includeAmmPrice",
            "offset": 20,
            "slot": "2",
            "type": "t_bool"
          },
          {
            "astId": 4580,
            "contract": "contracts/facets/Vault/VaultConfigFacet.sol:VaultConfigFacet",
            "label": "isInitialized",
            "offset": 21,
            "slot": "2",
            "type": "t_bool"
          },
          {
            "astId": 4583,
            "contract": "contracts/facets/Vault/VaultConfigFacet.sol:VaultConfigFacet",
            "label": "tokens",
            "offset": 0,
            "slot": "3",
            "type": "t_struct(AddressSet)1222_storage"
          },
          {
            "astId": 4587,
            "contract": "contracts/facets/Vault/VaultConfigFacet.sol:VaultConfigFacet",
            "label": "whitelistedTokens",
            "offset": 0,
            "slot": "5",
            "type": "t_mapping(t_address,t_bool)"
          },
          {
            "astId": 4592,
            "contract": "contracts/facets/Vault/VaultConfigFacet.sol:VaultConfigFacet",
            "label": "positions",
            "offset": 0,
            "slot": "6",
            "type": "t_mapping(t_bytes32,t_struct(Position)4568_storage)"
          },
          {
            "astId": 4596,
            "contract": "contracts/facets/Vault/VaultConfigFacet.sol:VaultConfigFacet",
            "label": "tokenDecimals",
            "offset": 0,
            "slot": "7",
            "type": "t_mapping(t_address,t_uint256)"
          },
          {
            "astId": 4600,
            "contract": "contracts/facets/Vault/VaultConfigFacet.sol:VaultConfigFacet",
            "label": "redemptionBasisPoints",
            "offset": 0,
            "slot": "8",
            "type": "t_mapping(t_address,t_uint256)"
          },
          {
            "astId": 4604,
            "contract": "contracts/facets/Vault/VaultConfigFacet.sol:VaultConfigFacet",
            "label": "minProfitBasisPoints",
            "offset": 0,
            "slot": "9",
            "type": "t_mapping(t_address,t_uint256)"
          },
          {
            "astId": 4608,
            "contract": "contracts/facets/Vault/VaultConfigFacet.sol:VaultConfigFacet",
            "label": "tokenBalances",
            "offset": 0,
            "slot": "10",
            "type": "t_mapping(t_address,t_uint256)"
          },
          {
            "astId": 4612,
            "contract": "contracts/facets/Vault/VaultConfigFacet.sol:VaultConfigFacet",
            "label": "ndolAmounts",
            "offset": 0,
            "slot": "11",
            "type": "t_mapping(t_address,t_uint256)"
          },
          {
            "astId": 4616,
            "contract": "contracts/facets/Vault/VaultConfigFacet.sol:VaultConfigFacet",
            "label": "poolAmounts",
            "offset": 0,
            "slot": "12",
            "type": "t_mapping(t_address,t_uint256)"
          },
          {
            "astId": 4620,
            "contract": "contracts/facets/Vault/VaultConfigFacet.sol:VaultConfigFacet",
            "label": "reservedAmounts",
            "offset": 0,
            "slot": "13",
            "type": "t_mapping(t_address,t_uint256)"
          },
          {
            "astId": 4624,
            "contract": "contracts/facets/Vault/VaultConfigFacet.sol:VaultConfigFacet",
            "label": "guaranteedUsd",
            "offset": 0,
            "slot": "14",
            "type": "t_mapping(t_address,t_uint256)"
          },
          {
            "astId": 4628,
            "contract": "contracts/facets/Vault/VaultConfigFacet.sol:VaultConfigFacet",
            "label": "cumulativeFundingRates",
            "offset": 0,
            "slot": "15",
            "type": "t_mapping(t_address,t_uint256)"
          },
          {
            "astId": 4632,
            "contract": "contracts/facets/Vault/VaultConfigFacet.sol:VaultConfigFacet",
            "label": "lastFundingTimes",
            "offset": 0,
            "slot": "16",
            "type": "t_mapping(t_address,t_uint256)"
          },
          {
            "astId": 4636,
            "contract": "contracts/facets/Vault/VaultConfigFacet.sol:VaultConfigFacet",
            "label": "feeReserves",
            "offset": 0,
            "slot": "17",
            "type": "t_mapping(t_address,t_uint256)"
          },
          {
            "astId": 4640,
            "contract": "contracts/facets/Vault/VaultConfigFacet.sol:VaultConfigFacet",
            "label": "tokenWeights",
            "offset": 0,
            "slot": "18",
            "type": "t_mapping(t_address,t_uint256)"
          },
          {
            "astId": 4642,
            "contract": "contracts/facets/Vault/VaultConfigFacet.sol:VaultConfigFacet",
            "label": "totalTokenWeight",
            "offset": 0,
            "slot": "19",
            "type": "t_uint256"
          },
          {
            "astId": 4646,
            "contract": "contracts/facets/Vault/VaultConfigFacet.sol:VaultConfigFacet",
            "label": "plugins",
            "offset": 0,
            "slot": "20",
            "type": "t_mapping(t_address,t_bool)"
          },
          {
            "astId": 4650,
            "contract": "contracts/facets/Vault/VaultConfigFacet.sol:VaultConfigFacet",
            "label": "priceFeeds",
            "offset": 0,
            "slot": "21",
            "type": "t_mapping(t_address,t_address)"
          },
          {
            "astId": 4654,
            "contract": "contracts/facets/Vault/VaultConfigFacet.sol:VaultConfigFacet",
            "label": "priceDecimals",
            "offset": 0,
            "slot": "22",
            "type": "t_mapping(t_address,t_uint256)"
          },
          {
            "astId": 4658,
            "contract": "contracts/facets/Vault/VaultConfigFacet.sol:VaultConfigFacet",
            "label": "priceSpreadBasisPoints",
            "offset": 0,
            "slot": "23",
            "type": "t_mapping(t_address,t_uint256)"
          },
          {
            "astId": 4662,
            "contract": "contracts/facets/Vault/VaultConfigFacet.sol:VaultConfigFacet",
            "label": "baseTokenPairs",
            "offset": 0,
            "slot": "24",
            "type": "t_mapping(t_address,t_address)"
          },
          {
            "astId": 4666,
            "contract": "contracts/facets/Vault/VaultConfigFacet.sol:VaultConfigFacet",
            "label": "tokenPairs",
            "offset": 0,
            "slot": "25",
            "type": "t_mapping(t_address,t_address)"
          },
          {
            "astId": 4668,
            "contract": "contracts/facets/Vault/VaultConfigFacet.sol:VaultConfigFacet",
            "label": "answer",
            "offset": 0,
            "slot": "26",
            "type": "t_int256"
          },
          {
            "astId": 4670,
            "contract": "contracts/facets/Vault/VaultConfigFacet.sol:VaultConfigFacet",
            "label": "roundId",
            "offset": 0,
            "slot": "27",
            "type": "t_uint80"
          },
          {
            "astId": 4674,
            "contract": "contracts/facets/Vault/VaultConfigFacet.sol:VaultConfigFacet",
            "label": "answers",
            "offset": 0,
            "slot": "28",
            "type": "t_mapping(t_uint80,t_int256)"
          },
          {
            "astId": 4676,
            "contract": "contracts/facets/Vault/VaultConfigFacet.sol:VaultConfigFacet",
            "label": "totalNDOLMinted",
            "offset": 0,
            "slot": "29",
            "type": "t_uint256"
          },
          {
            "astId": 4682,
            "contract": "contracts/facets/Vault/VaultConfigFacet.sol:VaultConfigFacet",
            "label": "ndolMinted",
            "offset": 0,
            "slot": "30",
            "type": "t_mapping(t_address,t_mapping(t_address,t_int256))"
          }
        ],
        "numberOfBytes": "992"
      },
      "t_uint256": {
        "encoding": "inplace",
        "label": "uint256",
        "numberOfBytes": "32"
      },
      "t_uint80": {
        "encoding": "inplace",
        "label": "uint80",
        "numberOfBytes": "10"
      }
    }
  }
}