{
  "address": "0xe155Fe750304633bD09A48f1C7124AF9edF0c010",
  "abi": [
    {
      "anonymous": false,
      "inputs": [
        {
          "indexed": false,
          "internalType": "bytes32",
          "name": "key",
          "type": "bytes32"
        },
        {
          "indexed": false,
          "internalType": "uint256",
          "name": "size",
          "type": "uint256"
        },
        {
          "indexed": false,
          "internalType": "uint256",
          "name": "collateral",
          "type": "uint256"
        },
        {
          "indexed": false,
          "internalType": "uint256",
          "name": "averagePrice",
          "type": "uint256"
        },
        {
          "indexed": false,
          "internalType": "uint256",
          "name": "entryFundingRate",
          "type": "uint256"
        },
        {
          "indexed": false,
          "internalType": "uint256",
          "name": "reserveAmount",
          "type": "uint256"
        },
        {
          "indexed": false,
          "internalType": "int256",
          "name": "realisedPnl",
          "type": "int256"
        }
      ],
      "name": "ClosePosition",
      "type": "event"
    },
    {
      "anonymous": false,
      "inputs": [
        {
          "indexed": false,
          "internalType": "bytes32",
          "name": "key",
          "type": "bytes32"
        },
        {
          "indexed": false,
          "internalType": "address",
          "name": "account",
          "type": "address"
        },
        {
          "indexed": false,
          "internalType": "address",
          "name": "collateralToken",
          "type": "address"
        },
        {
          "indexed": false,
          "internalType": "address",
          "name": "indexToken",
          "type": "address"
        },
        {
          "indexed": false,
          "internalType": "uint256",
          "name": "collateralDelta",
          "type": "uint256"
        },
        {
          "indexed": false,
          "internalType": "uint256",
          "name": "sizeDelta",
          "type": "uint256"
        },
        {
          "indexed": false,
          "internalType": "bool",
          "name": "isLong",
          "type": "bool"
        },
        {
          "indexed": false,
          "internalType": "uint256",
          "name": "price",
          "type": "uint256"
        },
        {
          "indexed": false,
          "internalType": "uint256",
          "name": "fee",
          "type": "uint256"
        }
      ],
      "name": "DecreasePosition",
      "type": "event"
    },
    {
      "anonymous": false,
      "inputs": [
        {
          "indexed": false,
          "internalType": "bytes32",
          "name": "key",
          "type": "bytes32"
        },
        {
          "indexed": false,
          "internalType": "address",
          "name": "account",
          "type": "address"
        },
        {
          "indexed": false,
          "internalType": "address",
          "name": "collateralToken",
          "type": "address"
        },
        {
          "indexed": false,
          "internalType": "address",
          "name": "indexToken",
          "type": "address"
        },
        {
          "indexed": false,
          "internalType": "uint256",
          "name": "collateralDelta",
          "type": "uint256"
        },
        {
          "indexed": false,
          "internalType": "uint256",
          "name": "sizeDelta",
          "type": "uint256"
        },
        {
          "indexed": false,
          "internalType": "bool",
          "name": "isLong",
          "type": "bool"
        },
        {
          "indexed": false,
          "internalType": "uint256",
          "name": "price",
          "type": "uint256"
        },
        {
          "indexed": false,
          "internalType": "uint256",
          "name": "fee",
          "type": "uint256"
        }
      ],
      "name": "IncreasePosition",
      "type": "event"
    },
    {
      "anonymous": false,
      "inputs": [
        {
          "indexed": false,
          "internalType": "bytes32",
          "name": "key",
          "type": "bytes32"
        },
        {
          "indexed": false,
          "internalType": "address",
          "name": "account",
          "type": "address"
        },
        {
          "indexed": false,
          "internalType": "address",
          "name": "collateralToken",
          "type": "address"
        },
        {
          "indexed": false,
          "internalType": "address",
          "name": "indexToken",
          "type": "address"
        },
        {
          "indexed": false,
          "internalType": "bool",
          "name": "isLong",
          "type": "bool"
        },
        {
          "indexed": false,
          "internalType": "uint256",
          "name": "size",
          "type": "uint256"
        },
        {
          "indexed": false,
          "internalType": "uint256",
          "name": "collateral",
          "type": "uint256"
        },
        {
          "indexed": false,
          "internalType": "uint256",
          "name": "reserveAmount",
          "type": "uint256"
        },
        {
          "indexed": false,
          "internalType": "int256",
          "name": "realisedPnl",
          "type": "int256"
        },
        {
          "indexed": false,
          "internalType": "uint256",
          "name": "markPrice",
          "type": "uint256"
        }
      ],
      "name": "LiquidatePosition",
      "type": "event"
    },
    {
      "anonymous": false,
      "inputs": [
        {
          "indexed": false,
          "internalType": "bytes32",
          "name": "key",
          "type": "bytes32"
        },
        {
          "indexed": false,
          "internalType": "uint256",
          "name": "size",
          "type": "uint256"
        },
        {
          "indexed": false,
          "internalType": "uint256",
          "name": "collateral",
          "type": "uint256"
        },
        {
          "indexed": false,
          "internalType": "uint256",
          "name": "averagePrice",
          "type": "uint256"
        },
        {
          "indexed": false,
          "internalType": "uint256",
          "name": "entryFundingRate",
          "type": "uint256"
        },
        {
          "indexed": false,
          "internalType": "uint256",
          "name": "reserveAmount",
          "type": "uint256"
        },
        {
          "indexed": false,
          "internalType": "int256",
          "name": "realisedPnl",
          "type": "int256"
        }
      ],
      "name": "UpdatePosition",
      "type": "event"
    },
    {
      "inputs": [
        {
          "internalType": "address",
          "name": "_token",
          "type": "address"
        }
      ],
      "name": "cumulativeFundingRates",
      "outputs": [
        {
          "internalType": "uint256",
          "name": "",
          "type": "uint256"
        }
      ],
      "stateMutability": "view",
      "type": "function"
    },
    {
      "inputs": [
        {
          "internalType": "address",
          "name": "_account",
          "type": "address"
        },
        {
          "internalType": "address",
          "name": "_collateralToken",
          "type": "address"
        },
        {
          "internalType": "address",
          "name": "_indexToken",
          "type": "address"
        },
        {
          "internalType": "uint256",
          "name": "_collateralDelta",
          "type": "uint256"
        },
        {
          "internalType": "uint256",
          "name": "_sizeDelta",
          "type": "uint256"
        },
        {
          "internalType": "bool",
          "name": "_isLong",
          "type": "bool"
        },
        {
          "internalType": "address",
          "name": "_receiver",
          "type": "address"
        }
      ],
      "name": "decreasePosition",
      "outputs": [
        {
          "internalType": "uint256",
          "name": "",
          "type": "uint256"
        }
      ],
      "stateMutability": "nonpayable",
      "type": "function"
    },
    {
      "inputs": [],
      "name": "fundingInterval",
      "outputs": [
        {
          "internalType": "uint256",
          "name": "",
          "type": "uint256"
        }
      ],
      "stateMutability": "pure",
      "type": "function"
    },
    {
      "inputs": [],
      "name": "fundingRateFactor",
      "outputs": [
        {
          "internalType": "uint256",
          "name": "",
          "type": "uint256"
        }
      ],
      "stateMutability": "pure",
      "type": "function"
    },
    {
      "inputs": [
        {
          "internalType": "address",
          "name": "_indexToken",
          "type": "address"
        },
        {
          "internalType": "uint256",
          "name": "_size",
          "type": "uint256"
        },
        {
          "internalType": "uint256",
          "name": "_averagePrice",
          "type": "uint256"
        },
        {
          "internalType": "bool",
          "name": "_isLong",
          "type": "bool"
        },
        {
          "internalType": "uint256",
          "name": "_lastIncreasedTime",
          "type": "uint256"
        }
      ],
      "name": "getDelta",
      "outputs": [
        {
          "internalType": "bool",
          "name": "",
          "type": "bool"
        },
        {
          "internalType": "uint256",
          "name": "",
          "type": "uint256"
        }
      ],
      "stateMutability": "view",
      "type": "function"
    },
    {
      "inputs": [
        {
          "internalType": "address",
          "name": "_token",
          "type": "address"
        },
        {
          "internalType": "uint256",
          "name": "_size",
          "type": "uint256"
        },
        {
          "internalType": "uint256",
          "name": "_entryFundingRate",
          "type": "uint256"
        }
      ],
      "name": "getFundingFee",
      "outputs": [
        {
          "internalType": "uint256",
          "name": "",
          "type": "uint256"
        }
      ],
      "stateMutability": "view",
      "type": "function"
    },
    {
      "inputs": [
        {
          "internalType": "address",
          "name": "_indexToken",
          "type": "address"
        },
        {
          "internalType": "uint256",
          "name": "_size",
          "type": "uint256"
        },
        {
          "internalType": "uint256",
          "name": "_averagePrice",
          "type": "uint256"
        },
        {
          "internalType": "bool",
          "name": "_isLong",
          "type": "bool"
        },
        {
          "internalType": "uint256",
          "name": "_nextPrice",
          "type": "uint256"
        },
        {
          "internalType": "uint256",
          "name": "_sizeDelta",
          "type": "uint256"
        },
        {
          "internalType": "uint256",
          "name": "_lastIncreasedTime",
          "type": "uint256"
        }
      ],
      "name": "getNextAveragePrice",
      "outputs": [
        {
          "internalType": "uint256",
          "name": "",
          "type": "uint256"
        }
      ],
      "stateMutability": "view",
      "type": "function"
    },
    {
      "inputs": [
        {
          "internalType": "address",
          "name": "_token",
          "type": "address"
        }
      ],
      "name": "getNextFundingRate",
      "outputs": [
        {
          "internalType": "uint256",
          "name": "",
          "type": "uint256"
        }
      ],
      "stateMutability": "view",
      "type": "function"
    },
    {
      "inputs": [
        {
          "internalType": "address",
          "name": "_account",
          "type": "address"
        },
        {
          "internalType": "address",
          "name": "_collateralToken",
          "type": "address"
        },
        {
          "internalType": "address",
          "name": "_indexToken",
          "type": "address"
        },
        {
          "internalType": "bool",
          "name": "_isLong",
          "type": "bool"
        }
      ],
      "name": "getPosition",
      "outputs": [
        {
          "internalType": "uint256",
          "name": "",
          "type": "uint256"
        },
        {
          "internalType": "uint256",
          "name": "",
          "type": "uint256"
        },
        {
          "internalType": "uint256",
          "name": "",
          "type": "uint256"
        },
        {
          "internalType": "uint256",
          "name": "",
          "type": "uint256"
        },
        {
          "internalType": "uint256",
          "name": "",
          "type": "uint256"
        },
        {
          "internalType": "uint256",
          "name": "",
          "type": "uint256"
        },
        {
          "internalType": "bool",
          "name": "",
          "type": "bool"
        },
        {
          "internalType": "uint256",
          "name": "",
          "type": "uint256"
        }
      ],
      "stateMutability": "view",
      "type": "function"
    },
    {
      "inputs": [
        {
          "internalType": "address",
          "name": "_account",
          "type": "address"
        },
        {
          "internalType": "address",
          "name": "_collateralToken",
          "type": "address"
        },
        {
          "internalType": "address",
          "name": "_indexToken",
          "type": "address"
        },
        {
          "internalType": "bool",
          "name": "_isLong",
          "type": "bool"
        }
      ],
      "name": "getPositionDelta",
      "outputs": [
        {
          "internalType": "bool",
          "name": "",
          "type": "bool"
        },
        {
          "internalType": "uint256",
          "name": "",
          "type": "uint256"
        }
      ],
      "stateMutability": "view",
      "type": "function"
    },
    {
      "inputs": [
        {
          "internalType": "uint256",
          "name": "_sizeDelta",
          "type": "uint256"
        }
      ],
      "name": "getPositionFee",
      "outputs": [
        {
          "internalType": "uint256",
          "name": "",
          "type": "uint256"
        }
      ],
      "stateMutability": "pure",
      "type": "function"
    },
    {
      "inputs": [
        {
          "internalType": "address",
          "name": "_account",
          "type": "address"
        },
        {
          "internalType": "address",
          "name": "_collateralToken",
          "type": "address"
        },
        {
          "internalType": "address",
          "name": "_indexToken",
          "type": "address"
        },
        {
          "internalType": "bool",
          "name": "_isLong",
          "type": "bool"
        }
      ],
      "name": "getPositionLeverage",
      "outputs": [
        {
          "internalType": "uint256",
          "name": "",
          "type": "uint256"
        }
      ],
      "stateMutability": "view",
      "type": "function"
    },
    {
      "inputs": [
        {
          "internalType": "address",
          "name": "_token",
          "type": "address"
        }
      ],
      "name": "getUtilisation",
      "outputs": [
        {
          "internalType": "uint256",
          "name": "",
          "type": "uint256"
        }
      ],
      "stateMutability": "view",
      "type": "function"
    },
    {
      "inputs": [
        {
          "internalType": "address",
          "name": "_account",
          "type": "address"
        },
        {
          "internalType": "address",
          "name": "_collateralToken",
          "type": "address"
        },
        {
          "internalType": "address",
          "name": "_indexToken",
          "type": "address"
        },
        {
          "internalType": "uint256",
          "name": "_sizeDelta",
          "type": "uint256"
        },
        {
          "internalType": "bool",
          "name": "_isLong",
          "type": "bool"
        }
      ],
      "name": "increasePosition",
      "outputs": [],
      "stateMutability": "nonpayable",
      "type": "function"
    },
    {
      "inputs": [
        {
          "internalType": "address",
          "name": "_token",
          "type": "address"
        }
      ],
      "name": "lastFundingTimes",
      "outputs": [
        {
          "internalType": "uint256",
          "name": "",
          "type": "uint256"
        }
      ],
      "stateMutability": "view",
      "type": "function"
    },
    {
      "inputs": [
        {
          "internalType": "address",
          "name": "_account",
          "type": "address"
        },
        {
          "internalType": "address",
          "name": "_collateralToken",
          "type": "address"
        },
        {
          "internalType": "address",
          "name": "_indexToken",
          "type": "address"
        },
        {
          "internalType": "bool",
          "name": "_isLong",
          "type": "bool"
        },
        {
          "internalType": "address",
          "name": "_feeReceiver",
          "type": "address"
        }
      ],
      "name": "liquidatePosition",
      "outputs": [],
      "stateMutability": "nonpayable",
      "type": "function"
    },
    {
      "inputs": [],
      "name": "liquidationFeeUsd",
      "outputs": [
        {
          "internalType": "uint256",
          "name": "",
          "type": "uint256"
        }
      ],
      "stateMutability": "pure",
      "type": "function"
    },
    {
      "inputs": [],
      "name": "marginFeeBasisPoints",
      "outputs": [
        {
          "internalType": "uint256",
          "name": "",
          "type": "uint256"
        }
      ],
      "stateMutability": "pure",
      "type": "function"
    },
    {
      "inputs": [
        {
          "internalType": "address",
          "name": "_account",
          "type": "address"
        },
        {
          "internalType": "address",
          "name": "_collateralToken",
          "type": "address"
        },
        {
          "internalType": "address",
          "name": "_indexToken",
          "type": "address"
        },
        {
          "internalType": "bool",
          "name": "_isLong",
          "type": "bool"
        },
        {
          "internalType": "bool",
          "name": "_raise",
          "type": "bool"
        }
      ],
      "name": "validateLiquidation",
      "outputs": [
        {
          "internalType": "uint256",
          "name": "",
          "type": "uint256"
        },
        {
          "internalType": "uint256",
          "name": "",
          "type": "uint256"
        }
      ],
      "stateMutability": "view",
      "type": "function"
    }
  ],
  "transactionHash": "0x344e7411314974f94fa538cc2ee96038e60e73550128a8f0d6170819e4d73a3e",
  "args": [],
  "solcInputHash": "59ecfd8bff8753724932aaa2cb9fca47",
  "bytecode": "0x608060405234801561001057600080fd5b506000805460ff191690556134ad8061002a6000396000f3fe608060405234801561001057600080fd5b50600436106101515760003560e01c806382a08490116100cd578063cc5b814411610081578063d8f897c311610066578063d8f897c3146102ed578063db97495f14610316578063de2ea9481461032957600080fd5b8063cc5b8144146102b2578063d54d5a9f146102c557600080fd5b8063a93acac2116100b2578063a93acac21461026e578063c4f718bf14610281578063c65bc7b11461028957600080fd5b806382a08490146102535780639849e4121461026657600080fd5b806345a6f370116101245780634a3f088d116101095780634a3f088d146101dd57806351723e821461022d5780635c07eaab1461024057600080fd5b806345a6f3701461019e57806348d91abf146101c857600080fd5b806304fef1db14610156578063174d26941461017c57806317bbf25c14610184578063318bc68914610197575b600080fd5b610169610164366004612e12565b61033c565b6040519081526020015b60405180910390f35b61016961039c565b610169610192366004612e2d565b6103bb565b600a610169565b6101b16101ac366004612e57565b6103cc565b604080519215158352602083019190915201610173565b6101db6101d6366004612ead565b6104a7565b005b6101f06101eb366004612e57565b6108b6565b604080519889526020890197909752958701949094526060860192909252608085015260a0840152151560c083015260e082015261010001610173565b61016961023b366004612e57565b6109f2565b6101b161024e366004612f0f565b610b1e565b610169610261366004612f5f565b610b3f565b617080610169565b61016961027c366004612e12565b610b74565b610258610169565b610169610297366004612e12565b6001600160a01b03166000908152600f602052604090205490565b6101696102c0366004612fd9565b610b81565b6102d86102d336600461300c565b610b90565b60408051928352602083019190915201610173565b6101696102fb366004612e12565b6001600160a01b031660009081526010602052604090205490565b610169610324366004613069565b610ecf565b6101db6103373660046130cc565b610f60565b6001600160a01b0381166000908152600c6020526040812054806103635750600092915050565b6001600160a01b0383166000908152600d602052604090205461039590829061038f90620f42406113a1565b906113ad565b9392505050565b60006103b66c0c9f2c9cd04674edea400000006005613162565b905090565b60006103c6826113b9565b92915050565b60408051606086811b6bffffffffffffffffffffffff1990811660208085019190915287831b821660348501529186901b16604883015283151560f81b605c8301528251603d818403018152605d8301808552815191830191909120600081815260069384905285812061013d860190965285548084526001870154607d8701526002870154609d8701819052600388015460bd880152600488015460dd880152600588015460fd880152969094015461011d9095018590529485949193610498928992908990610b1e565b93509350505094509492505050565b6104b0856113f1565b6104bc60008585611458565b6104c76000856114d2565b60408051606087811b6bffffffffffffffffffffffff1990811660208085019190915288831b821660348501529187901b16604883015283151560f81b605c8301528251603d818403018152605d909201909252805191012060009060008181526006602052604081209192508361055657600254610551908790600160a01b900460ff1661161f565b61056e565b60025461056e908790600160a01b900460ff166116b3565b825490915061057f57600282018190555b81541580159061058f5750600085115b156105b5576105af868360000154846002015487858a8860060154610ecf565b60028301555b60006105cd600089888660000154876003015461170a565b905060006105dc60008a6117d8565b905060006105ec60008b84611880565b60018601549091506105fe90826118ec565b6001860181905583111561067f5760405162461bcd60e51b815260206004820152602760248201527f5661756c743a20696e73756666696369656e7420636f6c6c61746572616c206660448201527f6f7220666565730000000000000000000000000000000000000000000000000060648201526084015b60405180910390fd5b600185015461068e90846118f8565b60018601556001600160a01b038a166000908152600f6020526040902054600386015584546106bd90896118ec565b8086554260068701556107125760405162461bcd60e51b815260206004820152601c60248201527f5661756c743a20696e76616c696420706f736974696f6e2e73697a65000000006044820152606401610676565b61072485600001548660010154611904565b6107328b8b8b8a6001610b90565b5050600061075560008c8b600060020160149054906101000a900460ff166119f7565b600487015490915061076790826118ec565b600487015561077860008c83611a1b565b61078d60008c6107888c886118ec565b611af9565b61079960008c84611b73565b6107a560008c85611bed565b506107bd60008c6107b860008f89611c9a565b611cca565b604080518881526001600160a01b038e811660208301528d8116828401528c1660608201526080810184905260a081018b905289151560c082015260e08101879052610100810186905290517f2fe68525253654c21998f35787a8d0f361905ef647c854092430ab65f2f15022918190036101200190a1855460018701546002880154600389015460048a015460058b0154604080518e815260208101979097528601949094526060850192909252608084015260a083015260c08201527f25e8a331a7394a9f09862048843323b00bdbada258f524f5ce624a45bf00aabb9060e00160405180910390a1505050505050505050505050565b60008060008060008060008060006109278d8d8d8d60408051606095861b6bffffffffffffffffffffffff1990811660208084019190915295871b811660348301529390951b9092166048850152151560f81b605c8401528051603d818503018152605d9093019052815191012090565b6000818152600660208181526040808420815160e081018352815481526001820154938101939093526002810154918301919091526003810154606083015260048101546080830152600581015460a0830181905292015460c082015292935081126109a0578160a0015161099b90613181565b6109a6565b8160a001515b9050816000015182602001518360400151846060015185608001518560008860a0015112158860c001519a509a509a509a509a509a509a509a5050505094995094995094999196509450565b60408051606086811b6bffffffffffffffffffffffff1990811660208085019190915287831b821660348501529186901b16604883015283151560f81b605c8301528251603d818403018152605d8301808552815191830191909120600081815260069384905285812061013d8601909652855483526001860154607d86018190526002870154609d870152600387015460bd870152600487015460dd870152600587015460fd870152959093015461011d909401939093529092610af95760405162461bcd60e51b815260206004820152601760248201527f5661756c743a20696e76616c696420706f736974696f6e0000000000000000006044820152606401610676565b60208101518151610b11919061038f906127106113a1565b925050505b949350505050565b600080610b3060008888888888611d95565b915091505b9550959350505050565b6000610b4a886113f1565b610b5660008888611458565b6000610b6789898989898989611eeb565b9998505050505050505050565b60006103c6600083612441565b6000610b166000858585612508565b60408051606087811b6bffffffffffffffffffffffff1990811660208085019190915288831b821660348501529187901b16604883015284151560f81b605c8301528251603d818403018152605d8301808552815191830191909120600081815260069384905285812061013d860190965285548084526001870154607d8701526002870154609d8701819052600388015460bd880152600488015460dd880152600588015460fd880152969094015461011d909501859052948594919385928392610c62928c929091908c90610b1e565b915091506000610c7b8b85600001518660600151610b81565b9050610c94610c8d85600001516103bb565b82906118ec565b905082158015610ca75750818460200151105b15610d0a578715610cfa5760405162461bcd60e51b815260206004820152601f60248201527f5661756c743a206c6f737365732065786365656420636f6c6c61746572616c006044820152606401610676565b600196509450610b359350505050565b602084015183610d26576020850151610d2390846118f8565b90505b81811015610d8d578815610d7c5760405162461bcd60e51b815260206004820152601d60248201527f5661756c743a20666565732065786365656420636f6c6c61746572616c0000006044820152606401610676565b600197509550610b35945050505050565b610daf610da86c0c9f2c9cd04674edea400000006005613162565b83906118ec565b811015610e3b578815610e2a5760405162461bcd60e51b815260206004820152602960248201527f5661756c743a206c69717569646174696f6e206665657320657863656564206360448201527f6f6c6c61746572616c00000000000000000000000000000000000000000000006064820152608401610676565b50600196509450610b359350505050565b8451610e49906127106113a1565b610e56826207a1206113a1565b1015610ebb578815610eaa5760405162461bcd60e51b815260206004820152601c60248201527f5661756c743a206d6178206c65766572616765206578636565646564000000006044820152606401610676565b50600296509450610b359350505050565b5060009c909b509950505050505050505050565b6000806000610ee18a8a8a8a88610b1e565b90925090506000610ef28a876118ec565b905060008815610f215783610f1057610f0b82846118f8565b610f1a565b610f1a82846118ec565b9050610f42565b83610f3557610f3082846118ec565b610f3f565b610f3f82846118f8565b90505b610f508161038f8a856113a1565b9c9b505050505050505050505050565b600280547fffffffffffffffffffffff00ffffffffffffffffffffffffffffffffffffffff169055610f9460008585611458565b610f9f6000856114d2565b60408051606087811b6bffffffffffffffffffffffff1990811660208085019190915288831b821660348501529187901b16604883015284151560f81b605c8301528251603d818403018152605d8301808552815191830191909120600081815260069384905285902061013d850190955284548083526001860154607d8601526002860154609d860152600386015460bd860152600486015460dd860152600586015460fd860152949092015461011d90930192909252916110a45760405162461bcd60e51b815260206004820152601560248201527f5661756c743a20656d70747920706f736974696f6e00000000000000000000006044820152606401610676565b6000806110b5898989896000610b90565b91509150816000141561112f5760405162461bcd60e51b8152602060048201526024808201527f5661756c743a20706f736974696f6e2063616e6e6f74206265206c697175696460448201527f61746564000000000000000000000000000000000000000000000000000000006064820152608401610676565b816002141561116e57611164898989600061115d600a61038f60058b600001516113a190919063ffffffff16565b8b8f611eeb565b505050505061139a565b61119c61117d60008a84611c9a565b6001600160a01b038a16600090815260116020526040902054906118ec565b6001600160a01b03891660009081526011602052604081209190915560808401516111c991908a9061255e565b6111ef6000896111ea866020015187600001516118f890919063ffffffff16565b611b73565b6000866112135760025461120e908990600160a01b900460ff166116b3565b61122b565b60025461122b908990600160a01b900460ff1661161f565b90507f2e1f85a64a2f22cf2f0c42584e7c919ed4abe8d53675cff0f62bf1e95a1c676f858b8b8b8b89600001518a602001518b608001518c60a001518a6040516112cd9a99989796959493929190998a526001600160a01b0398891660208b015296881660408a0152949096166060880152911515608087015260a086015260c085015260e08401929092526101008301919091526101208201526101400190565b60405180910390a160008581526006602081905260408220828155600181018390556002810183905560038101839055600481018390556005808201849055910182905561133d91908b906107b89083908390611338906c0c9f2c9cd04674edea4000000090613162565b611c9a565b600280547fffffffffffffffffffffff00ffffffffffffffffffffffffffffffffffffffff16600160a01b17905561139460008a61138e82826113386c0c9f2c9cd04674edea400000006005613162565b89612610565b50505050505b5050505050565b60006103958284613162565b6000610395828461319e565b6000816113c857506000919050565b60006113e561271061038f6113de82600a6118f8565b86906113a1565b905061039583826118f8565b336001600160a01b03821614156114055750565b333014156114105750565b60405162461bcd60e51b815260206004820152601960248201527f5661756c743a20696e76616c6964206d73672e73656e646572000000000000006044820152606401610676565b806001600160a01b0316826001600160a01b0316146114b95760405162461bcd60e51b815260206004820152601860248201527f5661756c743a206d69736d61746368656420746f6b656e7300000000000000006044820152606401610676565b6114c383836126b3565b6114cd83826126b3565b505050565b6001600160a01b03811660009081526010830160205260409020546115275761150761708061150142826113ad565b906113a1565b6001600160a01b0390911660009081526010909201602052604090912055565b6001600160a01b03811660009081526010830160205260409020544290611550906170806118ec565b111561155a575050565b60006115668383612441565b6001600160a01b0383166000908152600f8501602052604090205490915061158e90826118ec565b6001600160a01b0383166000908152600f850160205260409020556115b961708061150142826113ad565b6001600160a01b0383166000818152601086016020908152604080832094909455600f8701815290839020548351928352908201527fa146fc154e1913322e9817d49f0d5c37466c24326e15de10e739a948be815eab91015b60405180910390a1505050565b6040517f5ae691630000000000000000000000000000000000000000000000000000000081526001600160a01b03831660048201526000602482018190528215156044830152903090635ae69163906064015b602060405180830381865afa15801561168f573d6000803e3d6000fd5b505050506040513d601f19601f8201168201806040525081019061039591906131d9565b6040517f5ae691630000000000000000000000000000000000000000000000000000000081526001600160a01b03831660048201526001602482015281151560448201526000903090635ae6916390606401611672565b600080611716856113b9565b9050600061172688888787612508565b905061173282826118ec565b91506000611741898985611c9a565b6001600160a01b038916600090815260118b01602052604090205490915061176990826118ec565b6001600160a01b038916600081815260118c0160209081526040918290209390935580519182529181018590529081018290527f5d0c0019d3d45fadeb74eff9d2c9924d146d000ac6bcf3c28bf0ac3c9baa011a9060600160405180910390a150909150505b95945050505050565b6001600160a01b0381166000818152600a840160205260408082205490516370a0823160e01b8152306004820152919290918391906370a0823190602401602060405180830381865afa158015611833573d6000803e3d6000fd5b505050506040513d601f19601f8201168201806040525081019061185791906131d9565b6001600160a01b0385166000908152600a87016020526040902081905590506117cf81836118f8565b60008161188f57506000610395565b60006118ac848660020160149054906101000a900460ff1661161f565b6001600160a01b03851660009081526007870160205260409020549091506118e26118d882600a6132d6565b61038f86856113a1565b9695505050505050565b600061039582846132e2565b600061039582846132fa565b8161198157801561197d5760405162461bcd60e51b815260206004820152602560248201527f5661756c743a20636f6c6c61746572616c2073686f756c64206265207769746860448201527f647261776e0000000000000000000000000000000000000000000000000000006064820152608401610676565b5050565b8082101561197d5760405162461bcd60e51b815260206004820152602a60248201527f5661756c743a205f73697a65206d757374206265206d6f7265207468616e205f60448201527f636f6c6c61746572616c000000000000000000000000000000000000000000006064820152608401610676565b600082611a0657506000610b16565b6117cf858585611a16888761161f565b61271d565b6001600160a01b0382166000908152600d84016020526040902054611a4090826118ec565b6001600160a01b0383166000908152600d850160208181526040808420859055600c880182529092205491521015611aba5760405162461bcd60e51b815260206004820152601b60248201527f5661756c743a2072657365727665206578636565647320706f6f6c00000000006044820152606401610676565b604080516001600160a01b0384168152602081018390527faa5649d82f5462be9d19b0f2b31a59b2259950a6076550bac9f3a1c07db9f66d9101611612565b6001600160a01b0382166000908152600e84016020526040902054611b1e90826118ec565b6001600160a01b0383166000818152600e860160209081526040918290209390935580519182529181018390527fd9d4761f75e0d0103b5cbeab941eeb443d7a56a35b5baf2a0787c03f03f4e4749101611612565b6001600160a01b0382166000908152600e84016020526040902054611b9890826118f8565b6001600160a01b0383166000818152600e860160209081526040918290209390935580519182529181018390527f34e07158b9db50df5613e591c44ea2ebc82834eff4a4dc3a46e000e608261d689101611612565b6001600160a01b0382166000908152600c84016020526040812054611c1290836118ec565b6001600160a01b0384166000908152600c86016020526040902055611c378484612760565b604080516001600160a01b0385168152602081018490527f976177fbe09a15e5e43f848844963a42b41ef919ef17ff21a17a5421de8f4737910160405180910390a150506001600160a01b03166000908152600c91909101602052604090205490565b600081611ca957506000610395565b610b16848484611a16878960020160149054906101000a900460ff166116b3565b604080518082018252601a81527f5661756c743a20706f6f6c416d6f756e742065786365656465640000000000006020808301919091526001600160a01b0385166000908152600c87019091529190912054611d27918390612838565b6001600160a01b0383166000908152600c85016020526040902055611d4c8383612864565b611d568383612760565b604080516001600160a01b0384168152602081018390527f112726233fbeaeed0f5b1dba5cb0b2b81883dee49fb35ff99fd98ed9f6d31eb09101611612565b60008060008511611de85760405162461bcd60e51b815260206004820152601c60248201527f5661756c743a20696e76616c6964205f617665726167655072696365000000006044820152606401610676565b600084611e0e576002890154611e09908990600160a01b900460ff166116b3565b611e28565b6002890154611e28908990600160a01b900460ff1661161f565b90506000818711611e4257611e3d82886118f8565b611e4c565b611e4c87836118f8565b90506000611e5e8861038f8b856113a1565b905060008715611e715750878311611e76565b508288115b6000611e84886103846118ec565b4211611eaa576001600160a01b038c16600090815260098e016020526040902054611ead565b60005b9050818015611ed05750611ec18b826113a1565b611ecd846127106113a1565b11155b15611eda57600092505b509b909a5098505050505050505050565b6000611ef86000886114d2565b6040805160608a811b6bffffffffffffffffffffffff199081166020808501919091528b831b82166034850152918a901b16604883015285151560f81b605c8301528251603d818403018152605d9092018352815191810191909120600081815260069092529190208054611faf5760405162461bcd60e51b815260206004820152601560248201527f5661756c743a20656d70747920706f736974696f6e00000000000000000000006044820152606401610676565b80548611156120005760405162461bcd60e51b815260206004820152601d60248201527f5661756c743a20706f736974696f6e2073697a652065786365656465640000006044820152606401610676565b868160010154101561207a5760405162461bcd60e51b815260206004820152602360248201527f5661756c743a20706f736974696f6e20636f6c6c61746572616c20657863656560448201527f64656400000000000000000000000000000000000000000000000000000000006064820152608401610676565b6001810154815460048301546000916120979161038f908b6113a1565b60048401549091506120a990826118f8565b60048401556120ba60008c8361255e565b506000806120ce60008e8e8e8e8e8e6128db565b855491935091508914612293576001600160a01b038c166000908152600f602052604090205460038501558354612105908a6118f8565b80855560018501546121179190611904565b6121258d8d8d8b6001610b90565b505061214460008d6107888760010154876118f890919063ffffffff16565b61215060008d8b611b73565b6000886121745760025461216f908d90600160a01b900460ff166116b3565b61218c565b60025461218c908d90600160a01b900460ff1661161f565b90507f93d75d64d1f84fc6f430a64fc578bdd4c1e090e90ea2d51773e626d19de56d30868f8f8f8f8f8f886121c18c8c6118f8565b60408051998a526001600160a01b0398891660208b015296881696890196909652959093166060870152608086019190915260a0850152151560c084015260e08301919091526101008201526101200160405180910390a18454600186015460028701546003880154600489015460058a0154604080518d815260208101979097528601949094526060850192909252608084015260a083015260c08201527f25e8a331a7394a9f09862048843323b00bdbada258f524f5ce624a45bf00aabb9060e00160405180910390a150612422565b61229f60008d85611af9565b6122ab60008d8b611b73565b6000886122cf576002546122ca908d90600160a01b900460ff166116b3565b6122e7565b6002546122e7908d90600160a01b900460ff1661161f565b90507f93d75d64d1f84fc6f430a64fc578bdd4c1e090e90ea2d51773e626d19de56d30868f8f8f8f8f8f8861231c8c8c6118f8565b60408051998a526001600160a01b0398891660208b015296881696890196909652959093166060870152608086019190915260a0850152151560c084015260e08301919091526101008201526101200160405180910390a18454600186015460028701546003880154600489015460058a0154604080518d815260208101979097528601949094526060850192909252608084015260a083015260c08201527f73af1d417d82c240fdb6d319b34ad884487c6bf2845d98980cc52ad9171cb4559060e00160405180910390a15060008581526006602081905260408220828155600181018390556002810183905560038101839055600481018390556005810183905501555b61243060008d898585612b6b565b9d9c50505050505050505050505050565b6001600160a01b0381166000908152601083016020526040812054429061246a906170806118ec565b1115612478575060006103c6565b6001600160a01b03821660009081526010840160205260408120546124a6906170809061038f9042906118f8565b6001600160a01b0384166000908152600c86016020526040902054909150806124d4576000925050506103c6565b6001600160a01b0384166000908152600d860160205260409020546117cf90829061038f90859061150190610258906113a1565b60008261251757506000610b16565b6001600160a01b0384166000908152600f8601602052604081205461253c90846118f8565b90508061254d576000915050610b16565b6118e2620f424061038f86846113a1565b604080518082018252601b81527f5661756c743a20696e73756666696369656e74207265736572766500000000006020808301919091526001600160a01b0385166000908152600d870190915291909120546125bb918390612838565b6001600160a01b0383166000818152600d860160209081526040918290209390935580519182529181018390527f533cb5ed32be6a90284e96b5747a1bfc2d38fdb5768a6b5f67ff7d62144ed67b9101611612565b6040516370a0823160e01b81523060048201526126849083906001600160a01b038616906370a0823190602401602060405180830381865afa15801561265a573d6000803e3d6000fd5b505050506040513d601f19601f8201168201806040525081019061267e91906131d9565b906118f8565b6001600160a01b0384166000818152600a870160205260409020919091556126ad908284612bad565b50505050565b6001600160a01b038116600090815260058301602052604090205460ff1661197d5760405162461bcd60e51b815260206004820152601c60248201527f5661756c743a20746f6b656e206e6f742077686974656c6973746564000000006044820152606401610676565b60008261272c57506000610b16565b6001600160a01b03841660009081526007860160205260409020546118e28361038f61275984600a6132d6565b87906113a1565b6040516370a0823160e01b81523060048201526000906001600160a01b038316906370a0823190602401602060405180830381865afa1580156127a7573d6000803e3d6000fd5b505050506040513d601f19601f820116820180604052508101906127cb91906131d9565b6001600160a01b0383166000908152600c850160205260409020549091508110156114cd5760405162461bcd60e51b815260206004820152601760248201527f5661756c743a20696e76616c696420696e6372656173650000000000000000006044820152606401610676565b6000818484111561285c5760405162461bcd60e51b8152600401610676919061333d565b505050900390565b6001600160a01b0381166000908152600c83016020908152604080832054600d860190925290912054111561197d5760405162461bcd60e51b815260206004820152601b60248201527f5661756c743a2072657365727665206578636565647320706f6f6c00000000006044820152606401610676565b60008060008960060160006129498b8b8b8960408051606095861b6bffffffffffffffffffffffff1990811660208084019190915295871b811660348301529390951b9092166048850152151560f81b605c8401528051603d818503018152605d9093019052815191012090565b8152602001908152602001600020905060006129708b8a888560000154866003015461170a565b90506000806000806129928f8d886000015489600201548d8b60060154611d95565b875491955085935091506129aa9061038f8c846113a1565b9250505060008280156129bd5750600082115b156129db578190508185600501546129d5919061338e565b60058601555b821580156129e95750600082115b15612a185760018501546129fd90836118f8565b60018601556005850154612a129083906133e6565b60058601555b8915612a4057612a28818b6118ec565b6001860154909150612a3a908b6118f8565b60018601555b8454891415612a63576001850154612a599082906118ec565b6000600187015590505b83811015612a9b576001850154612a7a90856118f8565b60018601556000612a8c8f8e87611c9a565b9050612a998f8e83611cca565b505b7f3ff41bdde87755b687ae83d0221a232b6be51a803330ed9661c1b5d0105e0d8a612b1f8e8e8e8c60408051606095861b6bffffffffffffffffffffffff1990811660208084019190915295871b811660348301529390951b9092166048850152151560f81b605c8401528051603d818503018152605d9093019052815191012090565b604080519182528515156020830152810184905260600160405180910390a180848211612b4c5781612b56565b612b5682866118f8565b96509650505050505097509795505050505050565b60008215612ba557612b8386866107b8898988611c9a565b6000612b90878785611c9a565b9050612b9e87878388612610565b90506117cf565b5060006117cf565b604080516001600160a01b03848116602483015260448083018590528351808403909101815260649092018352602080830180517bffffffffffffffffffffffffffffffffffffffffffffffffffffffff167fa9059cbb0000000000000000000000000000000000000000000000000000000017905283518085019094528084527f5361666545524332303a206c6f772d6c6576656c2063616c6c206661696c6564908401526114cd92869291600091612c6b918516908490612cfb565b8051909150156114cd5780806020019051810190612c89919061343e565b6114cd5760405162461bcd60e51b815260206004820152602a60248201527f5361666545524332303a204552433230206f7065726174696f6e20646964206e60448201527f6f742073756363656564000000000000000000000000000000000000000000006064820152608401610676565b6060610b16848460008585843b612d545760405162461bcd60e51b815260206004820152601d60248201527f416464726573733a2063616c6c20746f206e6f6e2d636f6e74726163740000006044820152606401610676565b600080866001600160a01b03168587604051612d70919061345b565b60006040518083038185875af1925050503d8060008114612dad576040519150601f19603f3d011682016040523d82523d6000602084013e612db2565b606091505b5091509150610b1182828660608315612dcc575081610395565b825115612ddc5782518084602001fd5b8160405162461bcd60e51b8152600401610676919061333d565b80356001600160a01b0381168114612e0d57600080fd5b919050565b600060208284031215612e2457600080fd5b61039582612df6565b600060208284031215612e3f57600080fd5b5035919050565b8015158114612e5457600080fd5b50565b60008060008060808587031215612e6d57600080fd5b612e7685612df6565b9350612e8460208601612df6565b9250612e9260408601612df6565b91506060850135612ea281612e46565b939692955090935050565b600080600080600060a08688031215612ec557600080fd5b612ece86612df6565b9450612edc60208701612df6565b9350612eea60408701612df6565b9250606086013591506080860135612f0181612e46565b809150509295509295909350565b600080600080600060a08688031215612f2757600080fd5b612f3086612df6565b945060208601359350604086013592506060860135612f4e81612e46565b949793965091946080013592915050565b600080600080600080600060e0888a031215612f7a57600080fd5b612f8388612df6565b9650612f9160208901612df6565b9550612f9f60408901612df6565b9450606088013593506080880135925060a0880135612fbd81612e46565b9150612fcb60c08901612df6565b905092959891949750929550565b600080600060608486031215612fee57600080fd5b612ff784612df6565b95602085013595506040909401359392505050565b600080600080600060a0868803121561302457600080fd5b61302d86612df6565b945061303b60208701612df6565b935061304960408701612df6565b9250606086013561305981612e46565b91506080860135612f0181612e46565b600080600080600080600060e0888a03121561308457600080fd5b61308d88612df6565b9650602088013595506040880135945060608801356130ab81612e46565b9699959850939660808101359560a0820135955060c0909101359350915050565b600080600080600060a086880312156130e457600080fd5b6130ed86612df6565b94506130fb60208701612df6565b935061310960408701612df6565b9250606086013561311981612e46565b915061312760808701612df6565b90509295509295909350565b7f4e487b7100000000000000000000000000000000000000000000000000000000600052601160045260246000fd5b600081600019048311821515161561317c5761317c613133565b500290565b6000600160ff1b82141561319757613197613133565b5060000390565b6000826131d4577f4e487b7100000000000000000000000000000000000000000000000000000000600052601260045260246000fd5b500490565b6000602082840312156131eb57600080fd5b5051919050565b600181815b8085111561322d57816000190482111561321357613213613133565b8085161561322057918102915b93841c93908002906131f7565b509250929050565b600082613244575060016103c6565b81613251575060006103c6565b816001811461326757600281146132715761328d565b60019150506103c6565b60ff84111561328257613282613133565b50506001821b6103c6565b5060208310610133831016604e8410600b84101617156132b0575081810a6103c6565b6132ba83836131f2565b80600019048211156132ce576132ce613133565b029392505050565b60006103958383613235565b600082198211156132f5576132f5613133565b500190565b60008282101561330c5761330c613133565b500390565b60005b8381101561332c578181015183820152602001613314565b838111156126ad5750506000910152565b602081526000825180602084015261335c816040850160208701613311565b601f017fffffffffffffffffffffffffffffffffffffffffffffffffffffffffffffffe0169190910160400192915050565b6000808212827f7fffffffffffffffffffffffffffffffffffffffffffffffffffffffffffffff038413811516156133c8576133c8613133565b82600160ff1b0384128116156133e0576133e0613133565b50500190565b600080831283600160ff1b0183128115161561340457613404613133565b837f7fffffffffffffffffffffffffffffffffffffffffffffffffffffffffffffff01831381161561343857613438613133565b50500390565b60006020828403121561345057600080fd5b815161039581612e46565b6000825161346d818460208701613311565b919091019291505056fea26469706673582212201b834adad2ecb9822b6d80c2f836b74a06edb0d8fc3c376ab2f232445300fa4e64736f6c634300080a0033"
}