{
  "address": "0x207656F4D6c6Dfe1828caF2FebD3769EddAb1E63",
  "abi": [
    {
      "anonymous": false,
      "inputs": [
        {
          "indexed": false,
          "internalType": "address",
          "name": "_token",
          "type": "address"
        }
      ],
      "name": "ClearTokenConfig",
      "type": "event"
    },
    {
      "anonymous": false,
      "inputs": [
        {
          "indexed": false,
          "internalType": "address",
          "name": "token",
          "type": "address"
        },
        {
          "indexed": false,
          "internalType": "uint256",
          "name": "amount",
          "type": "uint256"
        }
      ],
      "name": "DirectPoolDeposit",
      "type": "event"
    },
    {
      "anonymous": false,
      "inputs": [
        {
          "indexed": false,
          "internalType": "address",
          "name": "_token",
          "type": "address"
        },
        {
          "indexed": false,
          "internalType": "uint256",
          "name": "_priceSpreadBasisPoints",
          "type": "uint256"
        }
      ],
      "name": "SetPriceSpreadBasisPoints",
      "type": "event"
    },
    {
      "anonymous": false,
      "inputs": [
        {
          "indexed": false,
          "internalType": "address",
          "name": "_token",
          "type": "address"
        },
        {
          "indexed": false,
          "internalType": "uint256",
          "name": "_basisPoints",
          "type": "uint256"
        }
      ],
      "name": "SetRedemptionBasisPoints",
      "type": "event"
    },
    {
      "anonymous": false,
      "inputs": [
        {
          "indexed": false,
          "internalType": "address",
          "name": "_token",
          "type": "address"
        },
        {
          "indexed": false,
          "internalType": "uint256",
          "name": "_tokenDecimals",
          "type": "uint256"
        },
        {
          "indexed": false,
          "internalType": "uint256",
          "name": "_minProfitBasisPoints",
          "type": "uint256"
        },
        {
          "indexed": false,
          "internalType": "address",
          "name": "_priceFeed",
          "type": "address"
        },
        {
          "indexed": false,
          "internalType": "uint256",
          "name": "_priceDecimals",
          "type": "uint256"
        },
        {
          "indexed": false,
          "internalType": "uint256",
          "name": "_priceSpreadBasisPoints",
          "type": "uint256"
        },
        {
          "indexed": false,
          "internalType": "uint256",
          "name": "_tokenWeight",
          "type": "uint256"
        },
        {
          "indexed": false,
          "internalType": "address",
          "name": "_baseTokenPair",
          "type": "address"
        },
        {
          "indexed": false,
          "internalType": "address",
          "name": "_tokenPair",
          "type": "address"
        }
      ],
      "name": "SetTokenConfig",
      "type": "event"
    },
    {
      "anonymous": false,
      "inputs": [
        {
          "indexed": false,
          "internalType": "address",
          "name": "_token",
          "type": "address"
        },
        {
          "indexed": false,
          "internalType": "uint256",
          "name": "_tokenWeight",
          "type": "uint256"
        }
      ],
      "name": "SetTokenWeight",
      "type": "event"
    },
    {
      "anonymous": false,
      "inputs": [
        {
          "indexed": false,
          "internalType": "uint256",
          "name": "_totalTokenWeight",
          "type": "uint256"
        }
      ],
      "name": "SetTotalTokenWeight",
      "type": "event"
    },
    {
      "anonymous": false,
      "inputs": [
        {
          "indexed": false,
          "internalType": "address",
          "name": "_token",
          "type": "address"
        },
        {
          "indexed": false,
          "internalType": "address",
          "name": "_receiver",
          "type": "address"
        },
        {
          "indexed": false,
          "internalType": "uint256",
          "name": "_amount",
          "type": "uint256"
        }
      ],
      "name": "WithdrawFees",
      "type": "event"
    },
    {
      "inputs": [
        {
          "internalType": "address",
          "name": "_token",
          "type": "address"
        }
      ],
      "name": "clearTokenConfig",
      "outputs": [],
      "stateMutability": "nonpayable",
      "type": "function"
    },
    {
      "inputs": [
        {
          "internalType": "address",
          "name": "_token",
          "type": "address"
        }
      ],
      "name": "directPoolDeposit",
      "outputs": [],
      "stateMutability": "nonpayable",
      "type": "function"
    },
    {
      "inputs": [],
      "name": "gov",
      "outputs": [
        {
          "internalType": "address",
          "name": "",
          "type": "address"
        }
      ],
      "stateMutability": "view",
      "type": "function"
    },
    {
      "inputs": [
        {
          "internalType": "address",
          "name": "_weth",
          "type": "address"
        },
        {
          "internalType": "address",
          "name": "_ndol",
          "type": "address"
        }
      ],
      "name": "initialize",
      "outputs": [],
      "stateMutability": "nonpayable",
      "type": "function"
    },
    {
      "inputs": [],
      "name": "isInitialized",
      "outputs": [
        {
          "internalType": "bool",
          "name": "",
          "type": "bool"
        }
      ],
      "stateMutability": "view",
      "type": "function"
    },
    {
      "inputs": [
        {
          "internalType": "address",
          "name": "_token",
          "type": "address"
        }
      ],
      "name": "minProfitBasisPoints",
      "outputs": [
        {
          "internalType": "uint256",
          "name": "",
          "type": "uint256"
        }
      ],
      "stateMutability": "view",
      "type": "function"
    },
    {
      "inputs": [
        {
          "internalType": "address",
          "name": "_token",
          "type": "address"
        }
      ],
      "name": "redemptionBasisPoints",
      "outputs": [
        {
          "internalType": "uint256",
          "name": "",
          "type": "uint256"
        }
      ],
      "stateMutability": "view",
      "type": "function"
    },
    {
      "inputs": [
        {
          "internalType": "address",
          "name": "_newGov",
          "type": "address"
        }
      ],
      "name": "setGov",
      "outputs": [],
      "stateMutability": "nonpayable",
      "type": "function"
    },
    {
      "inputs": [
        {
          "internalType": "address",
          "name": "_token",
          "type": "address"
        },
        {
          "internalType": "uint256",
          "name": "_priceSpreadBasisPoints",
          "type": "uint256"
        }
      ],
      "name": "setPriceSpreadBasisPoints",
      "outputs": [],
      "stateMutability": "nonpayable",
      "type": "function"
    },
    {
      "inputs": [
        {
          "internalType": "address",
          "name": "_token",
          "type": "address"
        },
        {
          "internalType": "uint256",
          "name": "_redemptionBasisPoints",
          "type": "uint256"
        }
      ],
      "name": "setRedemptionBasisPoints",
      "outputs": [],
      "stateMutability": "nonpayable",
      "type": "function"
    },
    {
      "inputs": [
        {
          "internalType": "address",
          "name": "_token",
          "type": "address"
        },
        {
          "internalType": "uint256",
          "name": "_tokenDecimals",
          "type": "uint256"
        },
        {
          "internalType": "uint256",
          "name": "_minProfitBasisPoints",
          "type": "uint256"
        },
        {
          "internalType": "address",
          "name": "_priceFeed",
          "type": "address"
        },
        {
          "internalType": "uint256",
          "name": "_priceDecimals",
          "type": "uint256"
        },
        {
          "internalType": "uint256",
          "name": "_priceSpreadBasisPoints",
          "type": "uint256"
        },
        {
          "internalType": "uint256",
          "name": "_tokenWeight",
          "type": "uint256"
        },
        {
          "internalType": "address",
          "name": "_baseTokenPair",
          "type": "address"
        },
        {
          "internalType": "address",
          "name": "_tokenPair",
          "type": "address"
        }
      ],
      "name": "setTokenConfig",
      "outputs": [],
      "stateMutability": "nonpayable",
      "type": "function"
    },
    {
      "inputs": [
        {
          "internalType": "address",
          "name": "_token",
          "type": "address"
        },
        {
          "internalType": "uint256",
          "name": "_tokenWeight",
          "type": "uint256"
        }
      ],
      "name": "setTokenWeight",
      "outputs": [],
      "stateMutability": "nonpayable",
      "type": "function"
    },
    {
      "inputs": [
        {
          "internalType": "address",
          "name": "_token",
          "type": "address"
        }
      ],
      "name": "tokenDecimals",
      "outputs": [
        {
          "internalType": "uint256",
          "name": "",
          "type": "uint256"
        }
      ],
      "stateMutability": "view",
      "type": "function"
    },
    {
      "inputs": [
        {
          "internalType": "address",
          "name": "_token",
          "type": "address"
        }
      ],
      "name": "tokenWeights",
      "outputs": [
        {
          "internalType": "uint256",
          "name": "",
          "type": "uint256"
        }
      ],
      "stateMutability": "view",
      "type": "function"
    },
    {
      "inputs": [],
      "name": "totalTokenWeight",
      "outputs": [
        {
          "internalType": "uint256",
          "name": "",
          "type": "uint256"
        }
      ],
      "stateMutability": "view",
      "type": "function"
    },
    {
      "inputs": [],
      "name": "whitelistedTokenCount",
      "outputs": [
        {
          "internalType": "uint256",
          "name": "",
          "type": "uint256"
        }
      ],
      "stateMutability": "view",
      "type": "function"
    },
    {
      "inputs": [
        {
          "internalType": "address",
          "name": "_token",
          "type": "address"
        }
      ],
      "name": "whitelistedTokens",
      "outputs": [
        {
          "internalType": "bool",
          "name": "",
          "type": "bool"
        }
      ],
      "stateMutability": "view",
      "type": "function"
    },
    {
      "inputs": [
        {
          "internalType": "address",
          "name": "_token",
          "type": "address"
        },
        {
          "internalType": "address",
          "name": "_receiver",
          "type": "address"
        }
      ],
      "name": "withdrawFees",
      "outputs": [
        {
          "internalType": "uint256",
          "name": "",
          "type": "uint256"
        }
      ],
      "stateMutability": "nonpayable",
      "type": "function"
    }
  ],
  "transactionHash": "0xbd4fa4580bd8a89ed88afc5e533db1123ec9a4dc7b052fcadada823d149efac1",
  "args": [],
  "solcInputHash": "e642235effce5c6fc113a314ee912350",
  "bytecode": "0x608060405234801561001057600080fd5b506000805460ff191690556117e08061002a6000396000f3fe608060405234801561001057600080fd5b50600436106101365760003560e01c80637933dd0a116100b2578063ae937fdf11610081578063daf9c21011610066578063daf9c210146102ef578063e67f59a714610302578063f25552781461031557600080fd5b8063ae937fdf146102c9578063cfad57a2146102dc57600080fd5b80637933dd0a1461022557806388b1fbdf1461024e5780638ee573ac14610277578063ab2f3ad4146102a057600080fd5b8063485cc955116101095780635f7bc119116100ee5780635f7bc119146101f757806362287a321461020a57806371aa61e91461021257600080fd5b8063485cc955146101d15780634ca439d3146101e457600080fd5b806312d43a511461013b578063331fe19d1461017a578063392e53cd1461018f5780633ebd04bb146101bf575b600080fd5b7fc8fcad8db84d3cc18b4c41d551ea0ee66dd599cde068d998e57d5e09332c1320546040516001600160a01b0390911681526020015b60405180910390f35b61018d610188366004611568565b610328565b005b6002547501000000000000000000000000000000000000000000900460ff165b6040519015158152602001610171565b6013545b604051908152602001610171565b61018d6101df366004611592565b610389565b61018d6101f2366004611568565b610522565b61018d6102053660046115c5565b6105cc565b6101c3610682565b61018d6102203660046115e0565b610693565b6101c36102333660046115c5565b6001600160a01b031660009081526008602052604090205490565b6101c361025c3660046115c5565b6001600160a01b031660009081526009602052604090205490565b6101c36102853660046115c5565b6001600160a01b031660009081526007602052604090205490565b6101c36102ae3660046115c5565b6001600160a01b031660009081526012602052604090205490565b61018d6102d7366004611568565b6108ad565b61018d6102ea3660046115c5565b6109a6565b6101af6102fd3660046115c5565b6109b2565b61018d6103103660046115c5565b6109c5565b6101c3610323366004611592565b610b30565b610330610bdb565b6001600160a01b038216600081815260086020908152604091829020849055815192835282018390527fb6aea5883739d50d55e232a8c883371c3717548b3626e3664e3dd5487b35dd3891015b60405180910390a15050565b610391610bdb565b6002547501000000000000000000000000000000000000000000900460ff16156104025760405162461bcd60e51b815260206004820152601a60248201527f5661756c743a20616c726561647920696e697469616c697a656400000000000060448201526064015b60405180910390fd5b6001600160a01b0382166104585760405162461bcd60e51b815260206004820152601b60248201527f5661756c743a20696e76616c696420574554482061646472657373000000000060448201526064016103f9565b6001600160a01b0381166104ae5760405162461bcd60e51b815260206004820152601c60248201527f5661756c743a20696e76616c6964205f6e646f6c20616464726573730000000060448201526064016103f9565b60028054600180546001600160a01b0395861673ffffffffffffffffffffffffffffffffffffffff19909116179055919092167fffffffffffffffffffff00000000000000000000000000000000000000000000909116177501010000000000000000000000000000000000000000179055565b61271081106105735760405162461bcd60e51b815260206004820152601d60248201527f5661756c743a2070726963652073707265616420746f6f206c6172676500000060448201526064016103f9565b61057b610bdb565b6001600160a01b038216600081815260176020908152604091829020849055815192835282018390527f326439cb2172b4d536badcf1616ca74141acb75a7a9746b6c4f8b96b4c4c3dc1910161037d565b6105d7600082610be5565b60006105e4600083610c53565b9050600081116106365760405162461bcd60e51b815260206004820152601b60248201527f5661756c743a20696e76616c6964205f746f6b656e416d6f756e74000000000060448201526064016103f9565b61064260008383610d04565b50604080516001600160a01b0384168152602081018390527fa5a389190ebf6170a133bda5c769b77f4d6715b8aa172ec0ddf8473d0b4944bd910161037d565b600061068e6003610db4565b905090565b61069b610bdb565b6106a660038a610dbe565b506001600160a01b03808a166000908152600560209081526040808320805460ff19166001179055600782528083208c9055600982528083208b9055601582528083208054948b1673ffffffffffffffffffffffffffffffffffffffff19909516949094179093556016815282822088905560178152828220879055601290522054610741576013546107399084610dd3565b601355610779565b6001600160a01b03891660009081526012602052604090205460135461076691610ddf565b60138190556107759084610dd3565b6013555b6001600160a01b03808a166000908152601260209081526040808320879055600890915290206127109055821615610800576001600160a01b038981166000908152601860209081526040808320805473ffffffffffffffffffffffffffffffffffffffff1990811688871617909155601990925290912080549091169183169190911790555b600254610829908a9074010000000000000000000000000000000000000000900460ff16610deb565b50604080516001600160a01b038b81168252602082018b90528183018a905288811660608301526080820188905260a0820187905260c0820186905284811660e0830152831661010082015290517f92b546b0c6e0fc06020aa248b1e5561da4f21768040a775e45a8b83afad4ebb0918190036101200190a1505050505050505050565b6108b5610bdb565b6001600160a01b0382166000908152601260205260409020546108e7576013546108df9082610dd3565b60135561091f565b6001600160a01b03821660009081526012602052604090205460135461090c91610ddf565b601381905561091b9082610dd3565b6013555b6001600160a01b038216600081815260126020908152604091829020849055815192835282018390527ff1aeb413328ec56c3f4b8e22b41dda5b43815bc0713c00f9e574485cc7eaaaff910160405180910390a16013546040519081527fc7e6c003bf6e1bdf957b858d7e26071fa6295b0ad0cdad824d566092e8e3c21e9060200161037d565b6109af81610e7e565b50565b60006109bf600383610ed4565b92915050565b6109cd610bdb565b6109d8600082610be5565b6109e3600382610ef6565b506001600160a01b0381166000908152600560209081526040808320805460ff1916905560078252808320839055600882528083208390556009825280832083905560158252808320805473ffffffffffffffffffffffffffffffffffffffff191690556016825280832083905560178252808320839055601290915290205415610aaa576001600160a01b038116600090815260126020526040902054601354610a8d91610ddf565b6013556001600160a01b0381166000908152601260205260408120555b6001600160a01b038116600081815260086020908152604080832083905560188252808320805473ffffffffffffffffffffffffffffffffffffffff199081169091556019835292819020805490931690925590519182527f495c0be5e3d6684da4b5918801f3af90b89d76c64348d0177ec923537e87030d910160405180910390a150565b6000610b3a610bdb565b6001600160a01b03831660009081526011602052604090205480610b625760009150506109bf565b6001600160a01b0384166000908152601160205260408120819055610b8990858386610f0b565b604080516001600160a01b038087168252851660208201529081018290527f4f1b51dd7a2fcb861aa2670f668be66835c4ee12b4bbbf037e4d0018f39819e49060600160405180910390a19392505050565b610be3610fae565b565b6001600160a01b038116600090815260058301602052604090205460ff16610c4f5760405162461bcd60e51b815260206004820152601c60248201527f5661756c743a20746f6b656e206e6f742077686974656c69737465640000000060448201526064016103f9565b5050565b6001600160a01b0381166000818152600a840160205260408082205490516370a0823160e01b8152306004820152919290918391906370a0823190602401602060405180830381865afa158015610cae573d6000803e3d6000fd5b505050506040513d601f19601f82011682018060405250810190610cd29190611665565b6001600160a01b0385166000908152600a8701602052604090208190559050610cfb8183610ddf565b95945050505050565b6001600160a01b0382166000908152600c84016020526040812054610d299083610dd3565b6001600160a01b0384166000908152600c86016020526040902055610d4e8484611050565b604080516001600160a01b0385168152602081018490527f976177fbe09a15e5e43f848844963a42b41ef919ef17ff21a17a5421de8f4737910160405180910390a1506001600160a01b0382166000908152600c840160205260409020545b9392505050565b60006109bf825490565b6000610dad836001600160a01b03841661112d565b6000610dad8284611694565b6000610dad82846116ac565b6040517f5ae691630000000000000000000000000000000000000000000000000000000081526001600160a01b03831660048201526001602482015281151560448201526000903090635ae6916390606401602060405180830381865afa158015610e5a573d6000803e3d6000fd5b505050506040513d601f19601f82011682018060405250810190610dad9190611665565b610e86610bdb565b7fc8fcad8db84d3cc18b4c41d551ea0ee66dd599cde068d998e57d5e09332c1320805473ffffffffffffffffffffffffffffffffffffffff19166001600160a01b0392909216919091179055565b6001600160a01b03811660009081526001830160205260408120541515610dad565b6000610dad836001600160a01b03841661117c565b6040516370a0823160e01b8152306004820152610f7f9083906001600160a01b038616906370a0823190602401602060405180830381865afa158015610f55573d6000803e3d6000fd5b505050506040513d601f19601f82011682018060405250810190610f799190611665565b90610ddf565b6001600160a01b0384166000818152600a87016020526040902091909155610fa890828461126f565b50505050565b7fc8fcad8db84d3cc18b4c41d551ea0ee66dd599cde068d998e57d5e09332c131c600401546001600160a01b03163314610be35760405162461bcd60e51b815260206004820152602260248201527f4c69624469616d6f6e643a20696e76616c696420636f6e7472616374206f776e60448201527f657200000000000000000000000000000000000000000000000000000000000060648201526084016103f9565b6040516370a0823160e01b81523060048201526000906001600160a01b038316906370a0823190602401602060405180830381865afa158015611097573d6000803e3d6000fd5b505050506040513d601f19601f820116820180604052508101906110bb9190611665565b6001600160a01b0383166000908152600c850160205260409020549091508110156111285760405162461bcd60e51b815260206004820152601760248201527f5661756c743a20696e76616c696420696e63726561736500000000000000000060448201526064016103f9565b505050565b6000818152600183016020526040812054611174575081546001818101845560008481526020808220909301849055845484825282860190935260409020919091556109bf565b5060006109bf565b600081815260018301602052604081205480156112655760006111a06001836116ac565b85549091506000906111b4906001906116ac565b90508181146112195760008660000182815481106111d4576111d46116c3565b90600052602060002001549050808760000184815481106111f7576111f76116c3565b6000918252602080832090910192909255918252600188019052604090208390555b855486908061122a5761122a6116d9565b6001900381819060005260206000200160009055905585600101600086815260200190815260200160002060009055600193505050506109bf565b60009150506109bf565b604080516001600160a01b03848116602483015260448083018590528351808403909101815260649092018352602080830180517bffffffffffffffffffffffffffffffffffffffffffffffffffffffff167fa9059cbb0000000000000000000000000000000000000000000000000000000017905283518085019094528084527f5361666545524332303a206c6f772d6c6576656c2063616c6c206661696c6564908401526111289286929160009161132d9185169084906113bd565b805190915015611128578080602001905181019061134b91906116ef565b6111285760405162461bcd60e51b815260206004820152602a60248201527f5361666545524332303a204552433230206f7065726174696f6e20646964206e60448201527f6f7420737563636565640000000000000000000000000000000000000000000060648201526084016103f9565b60606113cc84846000856113d4565b949350505050565b60608247101561144c5760405162461bcd60e51b815260206004820152602660248201527f416464726573733a20696e73756666696369656e742062616c616e636520666f60448201527f722063616c6c000000000000000000000000000000000000000000000000000060648201526084016103f9565b843b61149a5760405162461bcd60e51b815260206004820152601d60248201527f416464726573733a2063616c6c20746f206e6f6e2d636f6e747261637400000060448201526064016103f9565b600080866001600160a01b031685876040516114b6919061173d565b60006040518083038185875af1925050503d80600081146114f3576040519150601f19603f3d011682016040523d82523d6000602084013e6114f8565b606091505b5091509150611508828286611513565b979650505050505050565b60608315611522575081610dad565b8251156115325782518084602001fd5b8160405162461bcd60e51b81526004016103f99190611759565b80356001600160a01b038116811461156357600080fd5b919050565b6000806040838503121561157b57600080fd5b6115848361154c565b946020939093013593505050565b600080604083850312156115a557600080fd5b6115ae8361154c565b91506115bc6020840161154c565b90509250929050565b6000602082840312156115d757600080fd5b610dad8261154c565b60008060008060008060008060006101208a8c0312156115ff57600080fd5b6116088a61154c565b985060208a0135975060408a0135965061162460608b0161154c565b955060808a0135945060a08a0135935060c08a0135925061164760e08b0161154c565b91506116566101008b0161154c565b90509295985092959850929598565b60006020828403121561167757600080fd5b5051919050565b634e487b7160e01b600052601160045260246000fd5b600082198211156116a7576116a761167e565b500190565b6000828210156116be576116be61167e565b500390565b634e487b7160e01b600052603260045260246000fd5b634e487b7160e01b600052603160045260246000fd5b60006020828403121561170157600080fd5b81518015158114610dad57600080fd5b60005b8381101561172c578181015183820152602001611714565b83811115610fa85750506000910152565b6000825161174f818460208701611711565b9190910192915050565b6020815260008251806020840152611778816040850160208701611711565b601f017fffffffffffffffffffffffffffffffffffffffffffffffffffffffffffffffe016919091016040019291505056fea26469706673582212208d11249d93d6685aaacad02e79d93a91e268f91bd57b38f77e3a46f1ead337d464736f6c634300080a0033",
  "storageLayout": {
    "storage": [
      {
        "astId": 1516,
        "contract": "contracts/facets/Vault/VaultConfigFacet.sol:VaultConfigFacet",
        "label": "s",
        "offset": 0,
        "slot": "0",
        "type": "t_struct(Storage)4567_storage"
      }
    ],
    "types": {
      "t_address": {
        "encoding": "inplace",
        "label": "address",
        "numberOfBytes": "20"
      },
      "t_array(t_bytes32)dyn_storage": {
        "base": "t_bytes32",
        "encoding": "dynamic_array",
        "label": "bytes32[]",
        "numberOfBytes": "32"
      },
      "t_bool": {
        "encoding": "inplace",
        "label": "bool",
        "numberOfBytes": "1"
      },
      "t_bytes32": {
        "encoding": "inplace",
        "label": "bytes32",
        "numberOfBytes": "32"
      },
      "t_int256": {
        "encoding": "inplace",
        "label": "int256",
        "numberOfBytes": "32"
      },
      "t_mapping(t_address,t_address)": {
        "encoding": "mapping",
        "key": "t_address",
        "label": "mapping(address => address)",
        "numberOfBytes": "32",
        "value": "t_address"
      },
      "t_mapping(t_address,t_bool)": {
        "encoding": "mapping",
        "key": "t_address",
        "label": "mapping(address => bool)",
        "numberOfBytes": "32",
        "value": "t_bool"
      },
      "t_mapping(t_address,t_int256)": {
        "encoding": "mapping",
        "key": "t_address",
        "label": "mapping(address => int256)",
        "numberOfBytes": "32",
        "value": "t_int256"
      },
      "t_mapping(t_address,t_mapping(t_address,t_int256))": {
        "encoding": "mapping",
        "key": "t_address",
        "label": "mapping(address => mapping(address => int256))",
        "numberOfBytes": "32",
        "value": "t_mapping(t_address,t_int256)"
      },
      "t_mapping(t_address,t_uint256)": {
        "encoding": "mapping",
        "key": "t_address",
        "label": "mapping(address => uint256)",
        "numberOfBytes": "32",
        "value": "t_uint256"
      },
      "t_mapping(t_bytes32,t_struct(Position)4452_storage)": {
        "encoding": "mapping",
        "key": "t_bytes32",
        "label": "mapping(bytes32 => struct LibExchangeStorage.Position)",
        "numberOfBytes": "32",
        "value": "t_struct(Position)4452_storage"
      },
      "t_mapping(t_bytes32,t_uint256)": {
        "encoding": "mapping",
        "key": "t_bytes32",
        "label": "mapping(bytes32 => uint256)",
        "numberOfBytes": "32",
        "value": "t_uint256"
      },
      "t_mapping(t_uint80,t_int256)": {
        "encoding": "mapping",
        "key": "t_uint80",
        "label": "mapping(uint80 => int256)",
        "numberOfBytes": "32",
        "value": "t_int256"
      },
      "t_struct(AddressSet)1222_storage": {
        "encoding": "inplace",
        "label": "struct EnumerableSet.AddressSet",
        "members": [
          {
            "astId": 1221,
            "contract": "contracts/facets/Vault/VaultConfigFacet.sol:VaultConfigFacet",
            "label": "_inner",
            "offset": 0,
            "slot": "0",
            "type": "t_struct(Set)921_storage"
          }
        ],
        "numberOfBytes": "64"
      },
      "t_struct(Position)4452_storage": {
        "encoding": "inplace",
        "label": "struct LibExchangeStorage.Position",
        "members": [
          {
            "astId": 4439,
            "contract": "contracts/facets/Vault/VaultConfigFacet.sol:VaultConfigFacet",
            "label": "size",
            "offset": 0,
            "slot": "0",
            "type": "t_uint256"
          },
          {
            "astId": 4441,
            "contract": "contracts/facets/Vault/VaultConfigFacet.sol:VaultConfigFacet",
            "label": "collateral",
            "offset": 0,
            "slot": "1",
            "type": "t_uint256"
          },
          {
            "astId": 4443,
            "contract": "contracts/facets/Vault/VaultConfigFacet.sol:VaultConfigFacet",
            "label": "averagePrice",
            "offset": 0,
            "slot": "2",
            "type": "t_uint256"
          },
          {
            "astId": 4445,
            "contract": "contracts/facets/Vault/VaultConfigFacet.sol:VaultConfigFacet",
            "label": "entryFundingRate",
            "offset": 0,
            "slot": "3",
            "type": "t_uint256"
          },
          {
            "astId": 4447,
            "contract": "contracts/facets/Vault/VaultConfigFacet.sol:VaultConfigFacet",
            "label": "reserveAmount",
            "offset": 0,
            "slot": "4",
            "type": "t_uint256"
          },
          {
            "astId": 4449,
            "contract": "contracts/facets/Vault/VaultConfigFacet.sol:VaultConfigFacet",
            "label": "realisedPnl",
            "offset": 0,
            "slot": "5",
            "type": "t_int256"
          },
          {
            "astId": 4451,
            "contract": "contracts/facets/Vault/VaultConfigFacet.sol:VaultConfigFacet",
            "label": "lastIncreasedTime",
            "offset": 0,
            "slot": "6",
            "type": "t_uint256"
          }
        ],
        "numberOfBytes": "224"
      },
      "t_struct(Set)921_storage": {
        "encoding": "inplace",
        "label": "struct EnumerableSet.Set",
        "members": [
          {
            "astId": 916,
            "contract": "contracts/facets/Vault/VaultConfigFacet.sol:VaultConfigFacet",
            "label": "_values",
            "offset": 0,
            "slot": "0",
            "type": "t_array(t_bytes32)dyn_storage"
          },
          {
            "astId": 920,
            "contract": "contracts/facets/Vault/VaultConfigFacet.sol:VaultConfigFacet",
            "label": "_indexes",
            "offset": 0,
            "slot": "1",
            "type": "t_mapping(t_bytes32,t_uint256)"
          }
        ],
        "numberOfBytes": "64"
      },
      "t_struct(Storage)4567_storage": {
        "encoding": "inplace",
        "label": "struct LibExchangeStorage.Storage",
        "members": [
          {
            "astId": 4454,
            "contract": "contracts/facets/Vault/VaultConfigFacet.sol:VaultConfigFacet",
            "label": "contractEntered",
            "offset": 0,
            "slot": "0",
            "type": "t_bool"
          },
          {
            "astId": 4456,
            "contract": "contracts/facets/Vault/VaultConfigFacet.sol:VaultConfigFacet",
            "label": "btc",
            "offset": 1,
            "slot": "0",
            "type": "t_address"
          },
          {
            "astId": 4458,
            "contract": "contracts/facets/Vault/VaultConfigFacet.sol:VaultConfigFacet",
            "label": "weth",
            "offset": 0,
            "slot": "1",
            "type": "t_address"
          },
          {
            "astId": 4460,
            "contract": "contracts/facets/Vault/VaultConfigFacet.sol:VaultConfigFacet",
            "label": "ndol",
            "offset": 0,
            "slot": "2",
            "type": "t_address"
          },
          {
            "astId": 4462,
            "contract": "contracts/facets/Vault/VaultConfigFacet.sol:VaultConfigFacet",
            "label": "includeAmmPrice",
            "offset": 20,
            "slot": "2",
            "type": "t_bool"
          },
          {
            "astId": 4464,
            "contract": "contracts/facets/Vault/VaultConfigFacet.sol:VaultConfigFacet",
            "label": "isInitialized",
            "offset": 21,
            "slot": "2",
            "type": "t_bool"
          },
          {
            "astId": 4467,
            "contract": "contracts/facets/Vault/VaultConfigFacet.sol:VaultConfigFacet",
            "label": "tokens",
            "offset": 0,
            "slot": "3",
            "type": "t_struct(AddressSet)1222_storage"
          },
          {
            "astId": 4471,
            "contract": "contracts/facets/Vault/VaultConfigFacet.sol:VaultConfigFacet",
            "label": "whitelistedTokens",
            "offset": 0,
            "slot": "5",
            "type": "t_mapping(t_address,t_bool)"
          },
          {
            "astId": 4476,
            "contract": "contracts/facets/Vault/VaultConfigFacet.sol:VaultConfigFacet",
            "label": "positions",
            "offset": 0,
            "slot": "6",
            "type": "t_mapping(t_bytes32,t_struct(Position)4452_storage)"
          },
          {
            "astId": 4480,
            "contract": "contracts/facets/Vault/VaultConfigFacet.sol:VaultConfigFacet",
            "label": "tokenDecimals",
            "offset": 0,
            "slot": "7",
            "type": "t_mapping(t_address,t_uint256)"
          },
          {
            "astId": 4484,
            "contract": "contracts/facets/Vault/VaultConfigFacet.sol:VaultConfigFacet",
            "label": "redemptionBasisPoints",
            "offset": 0,
            "slot": "8",
            "type": "t_mapping(t_address,t_uint256)"
          },
          {
            "astId": 4488,
            "contract": "contracts/facets/Vault/VaultConfigFacet.sol:VaultConfigFacet",
            "label": "minProfitBasisPoints",
            "offset": 0,
            "slot": "9",
            "type": "t_mapping(t_address,t_uint256)"
          },
          {
            "astId": 4492,
            "contract": "contracts/facets/Vault/VaultConfigFacet.sol:VaultConfigFacet",
            "label": "tokenBalances",
            "offset": 0,
            "slot": "10",
            "type": "t_mapping(t_address,t_uint256)"
          },
          {
            "astId": 4496,
            "contract": "contracts/facets/Vault/VaultConfigFacet.sol:VaultConfigFacet",
            "label": "ndolAmounts",
            "offset": 0,
            "slot": "11",
            "type": "t_mapping(t_address,t_uint256)"
          },
          {
            "astId": 4500,
            "contract": "contracts/facets/Vault/VaultConfigFacet.sol:VaultConfigFacet",
            "label": "poolAmounts",
            "offset": 0,
            "slot": "12",
            "type": "t_mapping(t_address,t_uint256)"
          },
          {
            "astId": 4504,
            "contract": "contracts/facets/Vault/VaultConfigFacet.sol:VaultConfigFacet",
            "label": "reservedAmounts",
            "offset": 0,
            "slot": "13",
            "type": "t_mapping(t_address,t_uint256)"
          },
          {
            "astId": 4508,
            "contract": "contracts/facets/Vault/VaultConfigFacet.sol:VaultConfigFacet",
            "label": "guaranteedUsd",
            "offset": 0,
            "slot": "14",
            "type": "t_mapping(t_address,t_uint256)"
          },
          {
            "astId": 4512,
            "contract": "contracts/facets/Vault/VaultConfigFacet.sol:VaultConfigFacet",
            "label": "cumulativeFundingRates",
            "offset": 0,
            "slot": "15",
            "type": "t_mapping(t_address,t_uint256)"
          },
          {
            "astId": 4516,
            "contract": "contracts/facets/Vault/VaultConfigFacet.sol:VaultConfigFacet",
            "label": "lastFundingTimes",
            "offset": 0,
            "slot": "16",
            "type": "t_mapping(t_address,t_uint256)"
          },
          {
            "astId": 4520,
            "contract": "contracts/facets/Vault/VaultConfigFacet.sol:VaultConfigFacet",
            "label": "feeReserves",
            "offset": 0,
            "slot": "17",
            "type": "t_mapping(t_address,t_uint256)"
          },
          {
            "astId": 4524,
            "contract": "contracts/facets/Vault/VaultConfigFacet.sol:VaultConfigFacet",
            "label": "tokenWeights",
            "offset": 0,
            "slot": "18",
            "type": "t_mapping(t_address,t_uint256)"
          },
          {
            "astId": 4526,
            "contract": "contracts/facets/Vault/VaultConfigFacet.sol:VaultConfigFacet",
            "label": "totalTokenWeight",
            "offset": 0,
            "slot": "19",
            "type": "t_uint256"
          },
          {
            "astId": 4530,
            "contract": "contracts/facets/Vault/VaultConfigFacet.sol:VaultConfigFacet",
            "label": "plugins",
            "offset": 0,
            "slot": "20",
            "type": "t_mapping(t_address,t_bool)"
          },
          {
            "astId": 4534,
            "contract": "contracts/facets/Vault/VaultConfigFacet.sol:VaultConfigFacet",
            "label": "priceFeeds",
            "offset": 0,
            "slot": "21",
            "type": "t_mapping(t_address,t_address)"
          },
          {
            "astId": 4538,
            "contract": "contracts/facets/Vault/VaultConfigFacet.sol:VaultConfigFacet",
            "label": "priceDecimals",
            "offset": 0,
            "slot": "22",
            "type": "t_mapping(t_address,t_uint256)"
          },
          {
            "astId": 4542,
            "contract": "contracts/facets/Vault/VaultConfigFacet.sol:VaultConfigFacet",
            "label": "priceSpreadBasisPoints",
            "offset": 0,
            "slot": "23",
            "type": "t_mapping(t_address,t_uint256)"
          },
          {
            "astId": 4546,
            "contract": "contracts/facets/Vault/VaultConfigFacet.sol:VaultConfigFacet",
            "label": "baseTokenPairs",
            "offset": 0,
            "slot": "24",
            "type": "t_mapping(t_address,t_address)"
          },
          {
            "astId": 4550,
            "contract": "contracts/facets/Vault/VaultConfigFacet.sol:VaultConfigFacet",
            "label": "tokenPairs",
            "offset": 0,
            "slot": "25",
            "type": "t_mapping(t_address,t_address)"
          },
          {
            "astId": 4552,
            "contract": "contracts/facets/Vault/VaultConfigFacet.sol:VaultConfigFacet",
            "label": "answer",
            "offset": 0,
            "slot": "26",
            "type": "t_int256"
          },
          {
            "astId": 4554,
            "contract": "contracts/facets/Vault/VaultConfigFacet.sol:VaultConfigFacet",
            "label": "roundId",
            "offset": 0,
            "slot": "27",
            "type": "t_uint80"
          },
          {
            "astId": 4558,
            "contract": "contracts/facets/Vault/VaultConfigFacet.sol:VaultConfigFacet",
            "label": "answers",
            "offset": 0,
            "slot": "28",
            "type": "t_mapping(t_uint80,t_int256)"
          },
          {
            "astId": 4560,
            "contract": "contracts/facets/Vault/VaultConfigFacet.sol:VaultConfigFacet",
            "label": "totalNDOLMinted",
            "offset": 0,
            "slot": "29",
            "type": "t_uint256"
          },
          {
            "astId": 4566,
            "contract": "contracts/facets/Vault/VaultConfigFacet.sol:VaultConfigFacet",
            "label": "ndolMinted",
            "offset": 0,
            "slot": "30",
            "type": "t_mapping(t_address,t_mapping(t_address,t_int256))"
          }
        ],
        "numberOfBytes": "992"
      },
      "t_uint256": {
        "encoding": "inplace",
        "label": "uint256",
        "numberOfBytes": "32"
      },
      "t_uint80": {
        "encoding": "inplace",
        "label": "uint80",
        "numberOfBytes": "10"
      }
    }
  }
}