{
  "address": "0x7D0620286f024D518A1ECb7aCA8F4960419Aa8c3",
  "abi": [
    {
      "anonymous": false,
      "inputs": [
        {
          "indexed": false,
          "internalType": "address",
          "name": "account",
          "type": "address"
        },
        {
          "indexed": false,
          "internalType": "address",
          "name": "token",
          "type": "address"
        },
        {
          "indexed": false,
          "internalType": "uint256",
          "name": "tokenAmount",
          "type": "uint256"
        },
        {
          "indexed": false,
          "internalType": "uint256",
          "name": "ndolAmount",
          "type": "uint256"
        }
      ],
      "name": "BuyNDOL",
      "type": "event"
    },
    {
      "anonymous": false,
      "inputs": [
        {
          "indexed": false,
          "internalType": "address",
          "name": "account",
          "type": "address"
        },
        {
          "indexed": false,
          "internalType": "address",
          "name": "token",
          "type": "address"
        },
        {
          "indexed": false,
          "internalType": "uint256",
          "name": "ndolAmount",
          "type": "uint256"
        },
        {
          "indexed": false,
          "internalType": "uint256",
          "name": "tokenAmount",
          "type": "uint256"
        }
      ],
      "name": "SellNDOL",
      "type": "event"
    },
    {
      "anonymous": false,
      "inputs": [
        {
          "indexed": false,
          "internalType": "address",
          "name": "account",
          "type": "address"
        },
        {
          "indexed": false,
          "internalType": "address",
          "name": "tokenIn",
          "type": "address"
        },
        {
          "indexed": false,
          "internalType": "address",
          "name": "tokenOut",
          "type": "address"
        },
        {
          "indexed": false,
          "internalType": "uint256",
          "name": "amountIn",
          "type": "uint256"
        },
        {
          "indexed": false,
          "internalType": "uint256",
          "name": "amountOut",
          "type": "uint256"
        }
      ],
      "name": "Swap",
      "type": "event"
    },
    {
      "inputs": [
        {
          "internalType": "address",
          "name": "_token",
          "type": "address"
        }
      ],
      "name": "availableReserve",
      "outputs": [
        {
          "internalType": "uint256",
          "name": "",
          "type": "uint256"
        }
      ],
      "stateMutability": "view",
      "type": "function"
    },
    {
      "inputs": [
        {
          "internalType": "address",
          "name": "_token",
          "type": "address"
        },
        {
          "internalType": "address",
          "name": "_receiver",
          "type": "address"
        }
      ],
      "name": "buyNDOL",
      "outputs": [
        {
          "internalType": "uint256",
          "name": "",
          "type": "uint256"
        }
      ],
      "stateMutability": "nonpayable",
      "type": "function"
    },
    {
      "inputs": [
        {
          "internalType": "address",
          "name": "_token",
          "type": "address"
        }
      ],
      "name": "feeReserves",
      "outputs": [
        {
          "internalType": "uint256",
          "name": "",
          "type": "uint256"
        }
      ],
      "stateMutability": "view",
      "type": "function"
    },
    {
      "inputs": [
        {
          "internalType": "address",
          "name": "_token",
          "type": "address"
        },
        {
          "internalType": "uint256",
          "name": "_ndolAmount",
          "type": "uint256"
        }
      ],
      "name": "getRedemptionAmount",
      "outputs": [
        {
          "internalType": "uint256",
          "name": "",
          "type": "uint256"
        }
      ],
      "stateMutability": "view",
      "type": "function"
    },
    {
      "inputs": [
        {
          "internalType": "address",
          "name": "_token",
          "type": "address"
        }
      ],
      "name": "getRedemptionBasisPoints",
      "outputs": [
        {
          "internalType": "uint256",
          "name": "",
          "type": "uint256"
        }
      ],
      "stateMutability": "view",
      "type": "function"
    },
    {
      "inputs": [
        {
          "internalType": "address",
          "name": "_token",
          "type": "address"
        }
      ],
      "name": "getRedemptionCollateral",
      "outputs": [
        {
          "internalType": "uint256",
          "name": "",
          "type": "uint256"
        }
      ],
      "stateMutability": "view",
      "type": "function"
    },
    {
      "inputs": [
        {
          "internalType": "address",
          "name": "_token",
          "type": "address"
        }
      ],
      "name": "getRedemptionCollateralUsd",
      "outputs": [
        {
          "internalType": "uint256",
          "name": "",
          "type": "uint256"
        }
      ],
      "stateMutability": "view",
      "type": "function"
    },
    {
      "inputs": [
        {
          "internalType": "address",
          "name": "_token",
          "type": "address"
        },
        {
          "internalType": "uint256",
          "name": "_fee",
          "type": "uint256"
        }
      ],
      "name": "getTargetAdjustedFee",
      "outputs": [
        {
          "internalType": "uint256",
          "name": "",
          "type": "uint256"
        }
      ],
      "stateMutability": "view",
      "type": "function"
    },
    {
      "inputs": [
        {
          "internalType": "address",
          "name": "_token",
          "type": "address"
        }
      ],
      "name": "guaranteedUsd",
      "outputs": [
        {
          "internalType": "uint256",
          "name": "",
          "type": "uint256"
        }
      ],
      "stateMutability": "view",
      "type": "function"
    },
    {
      "inputs": [],
      "name": "ndol",
      "outputs": [
        {
          "internalType": "address",
          "name": "",
          "type": "address"
        }
      ],
      "stateMutability": "view",
      "type": "function"
    },
    {
      "inputs": [
        {
          "internalType": "address",
          "name": "_token",
          "type": "address"
        }
      ],
      "name": "ndolAmounts",
      "outputs": [
        {
          "internalType": "uint256",
          "name": "",
          "type": "uint256"
        }
      ],
      "stateMutability": "view",
      "type": "function"
    },
    {
      "inputs": [
        {
          "internalType": "address",
          "name": "_token",
          "type": "address"
        }
      ],
      "name": "poolAmounts",
      "outputs": [
        {
          "internalType": "uint256",
          "name": "",
          "type": "uint256"
        }
      ],
      "stateMutability": "view",
      "type": "function"
    },
    {
      "inputs": [
        {
          "internalType": "address",
          "name": "_token",
          "type": "address"
        }
      ],
      "name": "reservedAmounts",
      "outputs": [
        {
          "internalType": "uint256",
          "name": "",
          "type": "uint256"
        }
      ],
      "stateMutability": "view",
      "type": "function"
    },
    {
      "inputs": [
        {
          "internalType": "address",
          "name": "_token",
          "type": "address"
        },
        {
          "internalType": "address",
          "name": "_receiver",
          "type": "address"
        }
      ],
      "name": "sellNDOL",
      "outputs": [
        {
          "internalType": "uint256",
          "name": "",
          "type": "uint256"
        }
      ],
      "stateMutability": "nonpayable",
      "type": "function"
    },
    {
      "inputs": [
        {
          "internalType": "address",
          "name": "_tokenIn",
          "type": "address"
        },
        {
          "internalType": "address",
          "name": "_tokenOut",
          "type": "address"
        },
        {
          "internalType": "address",
          "name": "_receiver",
          "type": "address"
        }
      ],
      "name": "swap",
      "outputs": [
        {
          "internalType": "uint256",
          "name": "",
          "type": "uint256"
        }
      ],
      "stateMutability": "nonpayable",
      "type": "function"
    },
    {
      "inputs": [],
      "name": "swapFeeBasisPoints",
      "outputs": [
        {
          "internalType": "uint256",
          "name": "",
          "type": "uint256"
        }
      ],
      "stateMutability": "pure",
      "type": "function"
    }
  ],
  "transactionHash": "0x93c8cb646e9af3c45ed81e8bba8ead28899e758dbbf0dd028741353c910c0ffb",
  "args": [],
  "solcInputHash": "14e879b54023223bcf4f297d2290f644",
  "bytecode": "0x608060405234801561001057600080fd5b506000805460ff19169055611ab08061002a6000396000f3fe608060405234801561001057600080fd5b50600436106101005760003560e01c8063a22f239211610097578063b319ce0f11610066578063b319ce0f14610227578063c3c7b9e91461023a578063e62b398014610263578063f07456ce1461028c57600080fd5b8063a22f2392146101f2578063aa406656146101f9578063ac1a91e414610190578063b136ca491461021457600080fd5b80637c1fb317116100d35780637c1fb31714610190578063815b3c74146101a357806393316212146101b6578063960e9ec7146101c957600080fd5b80631ce9cb8f1461010557806329ff9615146101415780632c668ec11461015457806352f55eed14610167575b600080fd5b61012e610113366004611743565b6001600160a01b031660009081526011602052604090205490565b6040519081526020015b60405180910390f35b61012e61014f366004611743565b6102b5565b61012e61016236600461175e565b6102d1565b61012e610175366004611743565b6001600160a01b03166000908152600c602052604090205490565b61012e61019e366004611788565b6103e7565b61012e6101b1366004611743565b610440565b61012e6101c43660046117bb565b6104db565b61012e6101d7366004611743565b6001600160a01b03166000908152600b602052604090205490565b601e61012e565b6002546040516001600160a01b039091168152602001610138565b61012e610222366004611743565b610732565b61012e61023536600461175e565b610797565b61012e610248366004611743565b6001600160a01b03166000908152600d602052604090205490565b61012e610271366004611743565b6001600160a01b031660009081526008602052604090205490565b61012e61029a366004611743565b6001600160a01b03166000908152600e602052604090205490565b60006102cb6000836102c685610732565b6107f7565b92915050565b60025460009081906102ff90859074010000000000000000000000000000000000000000900460ff16610863565b9050600061033a8161032884610322886c0c9f2c9cd04674edea400000006108f7565b90610903565b6002546001600160a01b03168861090f565b9050600061034786610732565b90508061035a57600093505050506102cb565b6001600160a01b0386166000908152600b60205260409020548061038457829450505050506102cb565b60006103948261032289866108f7565b905060006103b7896001600160a01b031660009081526008602052604090205490565b90506103c961271061032284846108f7565b91508482106103d857846103da565b815b9998505050505050505050565b60405162461bcd60e51b815260206004820152601860248201527f5661756c743a2073756e73657474696e6720706572696f64000000000000000060448201526000906064015b60405180910390fd5b95945050505050565b6040516370a0823160e01b815230600482015260009081906001600160a01b038416906370a0823190602401602060405180830381865afa158015610489573d6000803e3d6000fd5b505050506040513d601f19601f820116820180604052508101906104ad91906117fe565b6001600160a01b0384166000908152600d60205260409020549091506104d4908290610f55565b9392505050565b6000826001600160a01b0316846001600160a01b0316141561053f5760405162461bcd60e51b815260206004820152601560248201527f5661756c743a20696e76616c696420746f6b656e730000000000000000000000604482015260640161042e565b61054a6000856109c0565b6105556000846109c0565b610560600085610ad6565b61056b600084610ad6565b6000610578600086610a2e565b9050600081116105ca5760405162461bcd60e51b815260206004820152601760248201527f5661756c743a20696e76616c696420616d6f756e74496e000000000000000000604482015260640161042e565b6002546000906105f690879074010000000000000000000000000000000000000000900460ff16610f61565b60025490915060009061062590879074010000000000000000000000000000000000000000900460ff16610863565b905060006106428161063b8461032288886108f7565b8a8a61090f565b90506000610654600089846000610dcc565b91506000905061068c816106796c0c9f2c9cd04674edea400000006103228a8a6108f7565b6002548d906001600160a01b031661090f565b905061069a60008b83610fb8565b6106a660008a83610cee565b6106b260008b88611032565b506106bf60008a85610c23565b604080516001600160a01b038a811682528c811660208301528b1681830152606081018890526080810184905290517fcd3829a3813dc3cdd188fd3d01dcf3268c16be2fdd2dd21d0665418816e460629181900360a00190a161072560008a848b610eb8565b5098975050505050505050565b6001600160a01b0381166000908152600e6020526040812054819061075a90829085906110df565b6001600160a01b0384166000908152600d6020908152604080832054600c909252909120549192506104d491610791908490611114565b90610f55565b6001600160a01b0382166000908152600b6020526040812054816107bb8186611120565b90508015806107c8575081155b156107d75783925050506102cb565b808211156107e95783925050506102cb565b6104378161032286856108f7565b600081610806575060006104d4565b6000610823848660020160149054906101000a900460ff16610f61565b6001600160a01b038516600090815260078701602052604090205490915061085961084f82600a61192a565b61032286856108f7565b9695505050505050565b6040517f5ae691630000000000000000000000000000000000000000000000000000000081526001600160a01b03831660048201526001602482015281151560448201526000903090635ae69163906064015b602060405180830381865afa1580156108d3573d6000803e3d6000fd5b505050506040513d601f19601f820116820180604052508101906104d491906117fe565b60006104d48284611936565b60006104d48284611955565b600284015460009081906001600160a01b0385811691161461094b576001600160a01b038416600090815260078701602052604090205461094e565b60125b60028701549091506000906001600160a01b0385811691161461098b576001600160a01b038416600090815260078801602052604090205461098e565b60125b90506109b361099e83600a61192a565b6103226109ac84600a61192a565b89906108f7565b925050505b949350505050565b6001600160a01b038116600090815260058301602052604090205460ff16610a2a5760405162461bcd60e51b815260206004820152601c60248201527f5661756c743a20746f6b656e206e6f742077686974656c697374656400000000604482015260640161042e565b5050565b6001600160a01b0381166000818152600a840160205260408082205490516370a0823160e01b8152306004820152919290918391906370a0823190602401602060405180830381865afa158015610a89573d6000803e3d6000fd5b505050506040513d601f19601f82011682018060405250810190610aad91906117fe565b6001600160a01b0385166000908152600a87016020526040902081905590506104378183610f55565b6001600160a01b0381166000908152601083016020526040902054610b2b57610b0b617080610b054282610903565b906108f7565b6001600160a01b0390911660009081526010909201602052604090912055565b6001600160a01b03811660009081526010830160205260409020544290610b5490617080611114565b1115610b5e575050565b6000610b6a83836111db565b6001600160a01b0383166000908152600f85016020526040902054909150610b929082611114565b6001600160a01b0383166000908152600f85016020526040902055610bbd617080610b054282610903565b6001600160a01b0383166000818152601086016020908152604080832094909455600f8701815290839020548351928352908201527fa146fc154e1913322e9817d49f0d5c37466c24326e15de10e739a948be815eab91015b60405180910390a1505050565b604080518082018252601a81527f5661756c743a20706f6f6c416d6f756e742065786365656465640000000000006020808301919091526001600160a01b0385166000908152600c87019091529190912054610c809183906112a2565b6001600160a01b0383166000908152600c85016020526040902055610ca583836112ce565b610caf8383611345565b604080516001600160a01b0384168152602081018390527f112726233fbeaeed0f5b1dba5cb0b2b81883dee49fb35ff99fd98ed9f6d31eb09101610c16565b6001600160a01b0382166000908152600b84016020526040902054818111610d6d576001600160a01b0383166000818152600b86016020908152604080832092909255815192835282018390527f448c2068e908f5ee25d962e13bc05be4d5d07b1a3845458d3b927d843df4b2ff91015b60405180910390a150505050565b610d778183610f55565b6001600160a01b0384166000818152600b870160209081526040918290209390935580519182529181018490527f448c2068e908f5ee25d962e13bc05be4d5d07b1a3845458d3b927d843df4b2ff9101610d5f565b6000806000610ddd8787601e611422565b90506000610e046127106103226109ac88610df957601e610dfb565b855b61271090610f55565b90506000610e128783610f55565b6001600160a01b038916600090815260118b016020526040902054909150610e3a9082611114565b6001600160a01b038916600090815260118b0160205260409020557f47cd9dda0e50ce30bcaaacd0488452b596221c07ac402a581cfae4d3933cac2b88610e828b82856107f7565b604080516001600160a01b0390931683526020830191909152810183905260600160405180910390a19890975095505050505050565b6040516370a0823160e01b8152306004820152610f269083906001600160a01b038616906370a0823190602401602060405180830381865afa158015610f02573d6000803e3d6000fd5b505050506040513d601f19601f8201168201806040525081019061079191906117fe565b6001600160a01b0384166000818152600a87016020526040902091909155610f4f908284611484565b50505050565b60006104d48284611990565b6040517f5ae691630000000000000000000000000000000000000000000000000000000081526001600160a01b03831660048201526000602482018190528215156044830152903090635ae69163906064016108b6565b6001600160a01b0382166000908152600b84016020526040902054610fdd9082611114565b6001600160a01b0383166000818152600b860160209081526040918290209390935580519182529181018390527f71258b0cda4926ee0d520b5f10d744d448b8a0fca6c03a7aab232331fc65ad5b9101610c16565b6001600160a01b0382166000908152600c840160205260408120546110579083611114565b6001600160a01b0384166000908152600c8601602052604090205561107c8484611345565b604080516001600160a01b0385168152602081018490527f976177fbe09a15e5e43f848844963a42b41ef919ef17ff21a17a5421de8f4737910160405180910390a150506001600160a01b03166000908152600c91909101602052604090205490565b6000816110ee575060006104d4565b6109b884848461110f878960020160149054906101000a900460ff16610863565b611504565b60006104d482846119a7565b6000808360020160009054906101000a90046001600160a01b03166001600160a01b03166318160ddd6040518163ffffffff1660e01b8152600401602060405180830381865afa158015611178573d6000803e3d6000fd5b505050506040513d601f19601f8201168201806040525081019061119c91906117fe565b9050806111ad5760009150506102cb565b6001600160a01b038316600090815260128501602052604090205460138501546104379061032284846108f7565b6001600160a01b0381166000908152601083016020526040812054429061120490617080611114565b1115611212575060006102cb565b6001600160a01b03821660009081526010840160205260408120546112409061708090610322904290610f55565b6001600160a01b0384166000908152600c860160205260409020549091508061126e576000925050506102cb565b6001600160a01b0384166000908152600d86016020526040902054610437908290610322908590610b0590610258906108f7565b600081848411156112c65760405162461bcd60e51b815260040161042e91906119eb565b505050900390565b6001600160a01b0381166000908152600c83016020908152604080832054600d8601909252909120541115610a2a5760405162461bcd60e51b815260206004820152601b60248201527f5661756c743a2072657365727665206578636565647320706f6f6c0000000000604482015260640161042e565b6040516370a0823160e01b81523060048201526000906001600160a01b038316906370a0823190602401602060405180830381865afa15801561138c573d6000803e3d6000fd5b505050506040513d601f19601f820116820180604052508101906113b091906117fe565b6001600160a01b0383166000908152600c8501602052604090205490915081101561141d5760405162461bcd60e51b815260206004820152601760248201527f5661756c743a20696e76616c696420696e637265617365000000000000000000604482015260640161042e565b505050565b6001600160a01b0382166000908152600b84016020526040812054816114488686611120565b9050801580611455575081155b156114645783925050506104d4565b808211156114765783925050506104d4565b6108598161032286856108f7565b604080516001600160a01b038416602482015260448082018490528251808303909101815260649091019091526020810180517bffffffffffffffffffffffffffffffffffffffffffffffffffffffff167fa9059cbb0000000000000000000000000000000000000000000000000000000017905261141d908490611547565b600082611513575060006109b8565b6001600160a01b03841660009081526007860160205260409020546108598361032261154084600a61192a565b87906108f7565b600061159c826040518060400160405280602081526020017f5361666545524332303a206c6f772d6c6576656c2063616c6c206661696c6564815250856001600160a01b031661162c9092919063ffffffff16565b80519091501561141d57808060200190518101906115ba9190611a3c565b61141d5760405162461bcd60e51b815260206004820152602a60248201527f5361666545524332303a204552433230206f7065726174696f6e20646964206e60448201527f6f74207375636365656400000000000000000000000000000000000000000000606482015260840161042e565b60606109b8848460008585843b6116855760405162461bcd60e51b815260206004820152601d60248201527f416464726573733a2063616c6c20746f206e6f6e2d636f6e7472616374000000604482015260640161042e565b600080866001600160a01b031685876040516116a19190611a5e565b60006040518083038185875af1925050503d80600081146116de576040519150601f19603f3d011682016040523d82523d6000602084013e6116e3565b606091505b50915091506109b3828286606083156116fd5750816104d4565b82511561170d5782518084602001fd5b8160405162461bcd60e51b815260040161042e91906119eb565b80356001600160a01b038116811461173e57600080fd5b919050565b60006020828403121561175557600080fd5b6104d482611727565b6000806040838503121561177157600080fd5b61177a83611727565b946020939093013593505050565b6000806040838503121561179b57600080fd5b6117a483611727565b91506117b260208401611727565b90509250929050565b6000806000606084860312156117d057600080fd5b6117d984611727565b92506117e760208501611727565b91506117f560408501611727565b90509250925092565b60006020828403121561181057600080fd5b5051919050565b7f4e487b7100000000000000000000000000000000000000000000000000000000600052601160045260246000fd5b600181815b8085111561188157816000190482111561186757611867611817565b8085161561187457918102915b93841c939080029061184b565b509250929050565b600082611898575060016102cb565b816118a5575060006102cb565b81600181146118bb57600281146118c5576118e1565b60019150506102cb565b60ff8411156118d6576118d6611817565b50506001821b6102cb565b5060208310610133831016604e8410600b8410161715611904575081810a6102cb565b61190e8383611846565b806000190482111561192257611922611817565b029392505050565b60006104d48383611889565b600081600019048311821515161561195057611950611817565b500290565b60008261198b577f4e487b7100000000000000000000000000000000000000000000000000000000600052601260045260246000fd5b500490565b6000828210156119a2576119a2611817565b500390565b600082198211156119ba576119ba611817565b500190565b60005b838110156119da5781810151838201526020016119c2565b83811115610f4f5750506000910152565b6020815260008251806020840152611a0a8160408501602087016119bf565b601f017fffffffffffffffffffffffffffffffffffffffffffffffffffffffffffffffe0169190910160400192915050565b600060208284031215611a4e57600080fd5b815180151581146104d457600080fd5b60008251611a708184602087016119bf565b919091019291505056fea2646970667358221220e0225ffaf91380c50717d968b0f4193b04912a3490491fa1b90722d70a23b32d64736f6c634300080a0033",
  "storageLayout": {
    "storage": [
      {
        "astId": 1516,
        "contract": "contracts/facets/Vault/VaultNdolFacet.sol:VaultNdolFacet",
        "label": "s",
        "offset": 0,
        "slot": "0",
        "type": "t_struct(Storage)4592_storage"
      }
    ],
    "types": {
      "t_address": {
        "encoding": "inplace",
        "label": "address",
        "numberOfBytes": "20"
      },
      "t_array(t_bytes32)dyn_storage": {
        "base": "t_bytes32",
        "encoding": "dynamic_array",
        "label": "bytes32[]",
        "numberOfBytes": "32"
      },
      "t_bool": {
        "encoding": "inplace",
        "label": "bool",
        "numberOfBytes": "1"
      },
      "t_bytes32": {
        "encoding": "inplace",
        "label": "bytes32",
        "numberOfBytes": "32"
      },
      "t_int256": {
        "encoding": "inplace",
        "label": "int256",
        "numberOfBytes": "32"
      },
      "t_mapping(t_address,t_address)": {
        "encoding": "mapping",
        "key": "t_address",
        "label": "mapping(address => address)",
        "numberOfBytes": "32",
        "value": "t_address"
      },
      "t_mapping(t_address,t_bool)": {
        "encoding": "mapping",
        "key": "t_address",
        "label": "mapping(address => bool)",
        "numberOfBytes": "32",
        "value": "t_bool"
      },
      "t_mapping(t_address,t_int256)": {
        "encoding": "mapping",
        "key": "t_address",
        "label": "mapping(address => int256)",
        "numberOfBytes": "32",
        "value": "t_int256"
      },
      "t_mapping(t_address,t_mapping(t_address,t_int256))": {
        "encoding": "mapping",
        "key": "t_address",
        "label": "mapping(address => mapping(address => int256))",
        "numberOfBytes": "32",
        "value": "t_mapping(t_address,t_int256)"
      },
      "t_mapping(t_address,t_uint256)": {
        "encoding": "mapping",
        "key": "t_address",
        "label": "mapping(address => uint256)",
        "numberOfBytes": "32",
        "value": "t_uint256"
      },
      "t_mapping(t_bytes32,t_struct(Position)4477_storage)": {
        "encoding": "mapping",
        "key": "t_bytes32",
        "label": "mapping(bytes32 => struct LibExchangeStorage.Position)",
        "numberOfBytes": "32",
        "value": "t_struct(Position)4477_storage"
      },
      "t_mapping(t_bytes32,t_uint256)": {
        "encoding": "mapping",
        "key": "t_bytes32",
        "label": "mapping(bytes32 => uint256)",
        "numberOfBytes": "32",
        "value": "t_uint256"
      },
      "t_mapping(t_uint80,t_int256)": {
        "encoding": "mapping",
        "key": "t_uint80",
        "label": "mapping(uint80 => int256)",
        "numberOfBytes": "32",
        "value": "t_int256"
      },
      "t_struct(AddressSet)1222_storage": {
        "encoding": "inplace",
        "label": "struct EnumerableSet.AddressSet",
        "members": [
          {
            "astId": 1221,
            "contract": "contracts/facets/Vault/VaultNdolFacet.sol:VaultNdolFacet",
            "label": "_inner",
            "offset": 0,
            "slot": "0",
            "type": "t_struct(Set)921_storage"
          }
        ],
        "numberOfBytes": "64"
      },
      "t_struct(Position)4477_storage": {
        "encoding": "inplace",
        "label": "struct LibExchangeStorage.Position",
        "members": [
          {
            "astId": 4464,
            "contract": "contracts/facets/Vault/VaultNdolFacet.sol:VaultNdolFacet",
            "label": "size",
            "offset": 0,
            "slot": "0",
            "type": "t_uint256"
          },
          {
            "astId": 4466,
            "contract": "contracts/facets/Vault/VaultNdolFacet.sol:VaultNdolFacet",
            "label": "collateral",
            "offset": 0,
            "slot": "1",
            "type": "t_uint256"
          },
          {
            "astId": 4468,
            "contract": "contracts/facets/Vault/VaultNdolFacet.sol:VaultNdolFacet",
            "label": "averagePrice",
            "offset": 0,
            "slot": "2",
            "type": "t_uint256"
          },
          {
            "astId": 4470,
            "contract": "contracts/facets/Vault/VaultNdolFacet.sol:VaultNdolFacet",
            "label": "entryFundingRate",
            "offset": 0,
            "slot": "3",
            "type": "t_uint256"
          },
          {
            "astId": 4472,
            "contract": "contracts/facets/Vault/VaultNdolFacet.sol:VaultNdolFacet",
            "label": "reserveAmount",
            "offset": 0,
            "slot": "4",
            "type": "t_uint256"
          },
          {
            "astId": 4474,
            "contract": "contracts/facets/Vault/VaultNdolFacet.sol:VaultNdolFacet",
            "label": "realisedPnl",
            "offset": 0,
            "slot": "5",
            "type": "t_int256"
          },
          {
            "astId": 4476,
            "contract": "contracts/facets/Vault/VaultNdolFacet.sol:VaultNdolFacet",
            "label": "lastIncreasedTime",
            "offset": 0,
            "slot": "6",
            "type": "t_uint256"
          }
        ],
        "numberOfBytes": "224"
      },
      "t_struct(Set)921_storage": {
        "encoding": "inplace",
        "label": "struct EnumerableSet.Set",
        "members": [
          {
            "astId": 916,
            "contract": "contracts/facets/Vault/VaultNdolFacet.sol:VaultNdolFacet",
            "label": "_values",
            "offset": 0,
            "slot": "0",
            "type": "t_array(t_bytes32)dyn_storage"
          },
          {
            "astId": 920,
            "contract": "contracts/facets/Vault/VaultNdolFacet.sol:VaultNdolFacet",
            "label": "_indexes",
            "offset": 0,
            "slot": "1",
            "type": "t_mapping(t_bytes32,t_uint256)"
          }
        ],
        "numberOfBytes": "64"
      },
      "t_struct(Storage)4592_storage": {
        "encoding": "inplace",
        "label": "struct LibExchangeStorage.Storage",
        "members": [
          {
            "astId": 4479,
            "contract": "contracts/facets/Vault/VaultNdolFacet.sol:VaultNdolFacet",
            "label": "contractEntered",
            "offset": 0,
            "slot": "0",
            "type": "t_bool"
          },
          {
            "astId": 4481,
            "contract": "contracts/facets/Vault/VaultNdolFacet.sol:VaultNdolFacet",
            "label": "btc",
            "offset": 1,
            "slot": "0",
            "type": "t_address"
          },
          {
            "astId": 4483,
            "contract": "contracts/facets/Vault/VaultNdolFacet.sol:VaultNdolFacet",
            "label": "weth",
            "offset": 0,
            "slot": "1",
            "type": "t_address"
          },
          {
            "astId": 4485,
            "contract": "contracts/facets/Vault/VaultNdolFacet.sol:VaultNdolFacet",
            "label": "ndol",
            "offset": 0,
            "slot": "2",
            "type": "t_address"
          },
          {
            "astId": 4487,
            "contract": "contracts/facets/Vault/VaultNdolFacet.sol:VaultNdolFacet",
            "label": "includeAmmPrice",
            "offset": 20,
            "slot": "2",
            "type": "t_bool"
          },
          {
            "astId": 4489,
            "contract": "contracts/facets/Vault/VaultNdolFacet.sol:VaultNdolFacet",
            "label": "isInitialized",
            "offset": 21,
            "slot": "2",
            "type": "t_bool"
          },
          {
            "astId": 4492,
            "contract": "contracts/facets/Vault/VaultNdolFacet.sol:VaultNdolFacet",
            "label": "tokens",
            "offset": 0,
            "slot": "3",
            "type": "t_struct(AddressSet)1222_storage"
          },
          {
            "astId": 4496,
            "contract": "contracts/facets/Vault/VaultNdolFacet.sol:VaultNdolFacet",
            "label": "whitelistedTokens",
            "offset": 0,
            "slot": "5",
            "type": "t_mapping(t_address,t_bool)"
          },
          {
            "astId": 4501,
            "contract": "contracts/facets/Vault/VaultNdolFacet.sol:VaultNdolFacet",
            "label": "positions",
            "offset": 0,
            "slot": "6",
            "type": "t_mapping(t_bytes32,t_struct(Position)4477_storage)"
          },
          {
            "astId": 4505,
            "contract": "contracts/facets/Vault/VaultNdolFacet.sol:VaultNdolFacet",
            "label": "tokenDecimals",
            "offset": 0,
            "slot": "7",
            "type": "t_mapping(t_address,t_uint256)"
          },
          {
            "astId": 4509,
            "contract": "contracts/facets/Vault/VaultNdolFacet.sol:VaultNdolFacet",
            "label": "redemptionBasisPoints",
            "offset": 0,
            "slot": "8",
            "type": "t_mapping(t_address,t_uint256)"
          },
          {
            "astId": 4513,
            "contract": "contracts/facets/Vault/VaultNdolFacet.sol:VaultNdolFacet",
            "label": "minProfitBasisPoints",
            "offset": 0,
            "slot": "9",
            "type": "t_mapping(t_address,t_uint256)"
          },
          {
            "astId": 4517,
            "contract": "contracts/facets/Vault/VaultNdolFacet.sol:VaultNdolFacet",
            "label": "tokenBalances",
            "offset": 0,
            "slot": "10",
            "type": "t_mapping(t_address,t_uint256)"
          },
          {
            "astId": 4521,
            "contract": "contracts/facets/Vault/VaultNdolFacet.sol:VaultNdolFacet",
            "label": "ndolAmounts",
            "offset": 0,
            "slot": "11",
            "type": "t_mapping(t_address,t_uint256)"
          },
          {
            "astId": 4525,
            "contract": "contracts/facets/Vault/VaultNdolFacet.sol:VaultNdolFacet",
            "label": "poolAmounts",
            "offset": 0,
            "slot": "12",
            "type": "t_mapping(t_address,t_uint256)"
          },
          {
            "astId": 4529,
            "contract": "contracts/facets/Vault/VaultNdolFacet.sol:VaultNdolFacet",
            "label": "reservedAmounts",
            "offset": 0,
            "slot": "13",
            "type": "t_mapping(t_address,t_uint256)"
          },
          {
            "astId": 4533,
            "contract": "contracts/facets/Vault/VaultNdolFacet.sol:VaultNdolFacet",
            "label": "guaranteedUsd",
            "offset": 0,
            "slot": "14",
            "type": "t_mapping(t_address,t_uint256)"
          },
          {
            "astId": 4537,
            "contract": "contracts/facets/Vault/VaultNdolFacet.sol:VaultNdolFacet",
            "label": "cumulativeFundingRates",
            "offset": 0,
            "slot": "15",
            "type": "t_mapping(t_address,t_uint256)"
          },
          {
            "astId": 4541,
            "contract": "contracts/facets/Vault/VaultNdolFacet.sol:VaultNdolFacet",
            "label": "lastFundingTimes",
            "offset": 0,
            "slot": "16",
            "type": "t_mapping(t_address,t_uint256)"
          },
          {
            "astId": 4545,
            "contract": "contracts/facets/Vault/VaultNdolFacet.sol:VaultNdolFacet",
            "label": "feeReserves",
            "offset": 0,
            "slot": "17",
            "type": "t_mapping(t_address,t_uint256)"
          },
          {
            "astId": 4549,
            "contract": "contracts/facets/Vault/VaultNdolFacet.sol:VaultNdolFacet",
            "label": "tokenWeights",
            "offset": 0,
            "slot": "18",
            "type": "t_mapping(t_address,t_uint256)"
          },
          {
            "astId": 4551,
            "contract": "contracts/facets/Vault/VaultNdolFacet.sol:VaultNdolFacet",
            "label": "totalTokenWeight",
            "offset": 0,
            "slot": "19",
            "type": "t_uint256"
          },
          {
            "astId": 4555,
            "contract": "contracts/facets/Vault/VaultNdolFacet.sol:VaultNdolFacet",
            "label": "plugins",
            "offset": 0,
            "slot": "20",
            "type": "t_mapping(t_address,t_bool)"
          },
          {
            "astId": 4559,
            "contract": "contracts/facets/Vault/VaultNdolFacet.sol:VaultNdolFacet",
            "label": "priceFeeds",
            "offset": 0,
            "slot": "21",
            "type": "t_mapping(t_address,t_address)"
          },
          {
            "astId": 4563,
            "contract": "contracts/facets/Vault/VaultNdolFacet.sol:VaultNdolFacet",
            "label": "priceDecimals",
            "offset": 0,
            "slot": "22",
            "type": "t_mapping(t_address,t_uint256)"
          },
          {
            "astId": 4567,
            "contract": "contracts/facets/Vault/VaultNdolFacet.sol:VaultNdolFacet",
            "label": "priceSpreadBasisPoints",
            "offset": 0,
            "slot": "23",
            "type": "t_mapping(t_address,t_uint256)"
          },
          {
            "astId": 4571,
            "contract": "contracts/facets/Vault/VaultNdolFacet.sol:VaultNdolFacet",
            "label": "baseTokenPairs",
            "offset": 0,
            "slot": "24",
            "type": "t_mapping(t_address,t_address)"
          },
          {
            "astId": 4575,
            "contract": "contracts/facets/Vault/VaultNdolFacet.sol:VaultNdolFacet",
            "label": "tokenPairs",
            "offset": 0,
            "slot": "25",
            "type": "t_mapping(t_address,t_address)"
          },
          {
            "astId": 4577,
            "contract": "contracts/facets/Vault/VaultNdolFacet.sol:VaultNdolFacet",
            "label": "answer",
            "offset": 0,
            "slot": "26",
            "type": "t_int256"
          },
          {
            "astId": 4579,
            "contract": "contracts/facets/Vault/VaultNdolFacet.sol:VaultNdolFacet",
            "label": "roundId",
            "offset": 0,
            "slot": "27",
            "type": "t_uint80"
          },
          {
            "astId": 4583,
            "contract": "contracts/facets/Vault/VaultNdolFacet.sol:VaultNdolFacet",
            "label": "answers",
            "offset": 0,
            "slot": "28",
            "type": "t_mapping(t_uint80,t_int256)"
          },
          {
            "astId": 4585,
            "contract": "contracts/facets/Vault/VaultNdolFacet.sol:VaultNdolFacet",
            "label": "totalNDOLMinted",
            "offset": 0,
            "slot": "29",
            "type": "t_uint256"
          },
          {
            "astId": 4591,
            "contract": "contracts/facets/Vault/VaultNdolFacet.sol:VaultNdolFacet",
            "label": "ndolMinted",
            "offset": 0,
            "slot": "30",
            "type": "t_mapping(t_address,t_mapping(t_address,t_int256))"
          }
        ],
        "numberOfBytes": "992"
      },
      "t_uint256": {
        "encoding": "inplace",
        "label": "uint256",
        "numberOfBytes": "32"
      },
      "t_uint80": {
        "encoding": "inplace",
        "label": "uint80",
        "numberOfBytes": "10"
      }
    }
  }
}