{
  "address": "0xB9AC99F198915e51753D8185f1FF8054Abce718C",
  "abi": [
    {
      "inputs": [
        {
          "internalType": "address",
          "name": "_token",
          "type": "address"
        },
        {
          "internalType": "bool",
          "name": "_maximise",
          "type": "bool"
        },
        {
          "internalType": "bool",
          "name": "",
          "type": "bool"
        }
      ],
      "name": "getPrice",
      "outputs": [
        {
          "internalType": "uint256",
          "name": "",
          "type": "uint256"
        }
      ],
      "stateMutability": "view",
      "type": "function"
    },
    {
      "inputs": [
        {
          "internalType": "address",
          "name": "_token",
          "type": "address"
        },
        {
          "internalType": "bool",
          "name": "_maximise",
          "type": "bool"
        }
      ],
      "name": "getPrimaryPrice",
      "outputs": [
        {
          "internalType": "uint256",
          "name": "",
          "type": "uint256"
        }
      ],
      "stateMutability": "view",
      "type": "function"
    }
  ],
  "transactionHash": "0xc47ed1031522efc6792b6511104268d8cd810b44c65fd6ab6a1c041f8cf3265f",
  "args": [],
  "solcInputHash": "80b4be72c3560fdda8390bed6741a5e4",
  "bytecode": "0x608060405234801561001057600080fd5b506000805460ff1916905561083a8061002a6000396000f3fe608060405234801561001057600080fd5b50600436106100365760003560e01c806356c8c2c11461003b5780635ae6916314610060575b600080fd5b61004e610049366004610522565b610073565b60405190815260200160405180910390f35b61004e61006e366004610555565b610483565b73ffffffffffffffffffffffffffffffffffffffff808316600090815260156020526040812054909116806100ef5760405162461bcd60e51b815260206004820152601d60248201527f5072696365466565643a20696e76616c6964207072696365206665656400000060448201526064015b60405180910390fd5b60008190506000808273ffffffffffffffffffffffffffffffffffffffff1663668a0f026040518163ffffffff1660e01b8152600401602060405180830381865afa158015610142573d6000803e3d6000fd5b505050506040513d601f19601f8201168201806040525081019061016691906105b2565b905060005b60018169ffffffffffffffffffff1610156103d3578069ffffffffffffffffffff168269ffffffffffffffffffff16116101a4576103d3565b600069ffffffffffffffffffff82166102815760008573ffffffffffffffffffffffffffffffffffffffff166350d25bcd6040518163ffffffff1660e01b8152600401602060405180830381865afa158015610204573d6000803e3d6000fd5b505050506040513d601f19601f8201168201806040525081019061022891906105cd565b90506000811361027a5760405162461bcd60e51b815260206004820152601860248201527f5072696365466565643a20696e76616c6964207072696365000000000000000060448201526064016100e6565b9050610385565b600073ffffffffffffffffffffffffffffffffffffffff8616639a6fc8f56102a98587610615565b6040517fffffffff0000000000000000000000000000000000000000000000000000000060e084901b16815269ffffffffffffffffffff909116600482015260240160a060405180830381865afa158015610308573d6000803e3d6000fd5b505050506040513d601f19601f8201168201806040525081019061032c9190610640565b505050915050600081136103825760405162461bcd60e51b815260206004820152601860248201527f5072696365466565643a20696e76616c6964207072696365000000000000000060448201526064016100e6565b90505b836103915792506103c1565b87801561039d57508381115b156103a95792506103c1565b871580156103b657508381105b156103bf578093505b505b806103cb81610690565b91505061016b565b50600082116104245760405162461bcd60e51b815260206004820181905260248201527f5072696365466565643a20636f756c64206e6f7420666574636820707269636560448201526064016100e6565b73ffffffffffffffffffffffffffffffffffffffff871660009081526016602052604090205461047561045882600a61079e565b61046f856c0c9f2c9cd04674edea400000006104ca565b906104dd565b955050505050505b92915050565b73ffffffffffffffffffffffffffffffffffffffff8084166000908152601560205260408120549091168181156104c1576104be8686610073565b90505b95945050505050565b60006104d682846107aa565b9392505050565b60006104d682846107c9565b803573ffffffffffffffffffffffffffffffffffffffff8116811461050d57600080fd5b919050565b8035801515811461050d57600080fd5b6000806040838503121561053557600080fd5b61053e836104e9565b915061054c60208401610512565b90509250929050565b60008060006060848603121561056a57600080fd5b610573846104e9565b925061058160208501610512565b915061058f60408501610512565b90509250925092565b805169ffffffffffffffffffff8116811461050d57600080fd5b6000602082840312156105c457600080fd5b6104d682610598565b6000602082840312156105df57600080fd5b5051919050565b7f4e487b7100000000000000000000000000000000000000000000000000000000600052601160045260246000fd5b600069ffffffffffffffffffff83811690831681811015610638576106386105e6565b039392505050565b600080600080600060a0868803121561065857600080fd5b61066186610598565b945060208601519350604086015192506060860151915061068460808701610598565b90509295509295909350565b600069ffffffffffffffffffff808316818114156106b0576106b06105e6565b6001019392505050565b600181815b808511156106f55781600019048211156106db576106db6105e6565b808516156106e857918102915b93841c93908002906106bf565b509250929050565b60008261070c5750600161047d565b816107195750600061047d565b816001811461072f576002811461073957610755565b600191505061047d565b60ff84111561074a5761074a6105e6565b50506001821b61047d565b5060208310610133831016604e8410600b8410161715610778575081810a61047d565b61078283836106ba565b8060001904821115610796576107966105e6565b029392505050565b60006104d683836106fd565b60008160001904831182151516156107c4576107c46105e6565b500290565b6000826107ff577f4e487b7100000000000000000000000000000000000000000000000000000000600052601260045260246000fd5b50049056fea2646970667358221220ca665f8479e8034188f47203ca2f966bc9da61bb83435c02b1d0eab8c8bf84a164736f6c634300080a0033"
}