{
  "address": "0x3E69E1C697D5334fEEF1dD7DF861da934887eE65",
  "abi": [
    {
      "anonymous": false,
      "inputs": [
        {
          "indexed": false,
          "internalType": "address",
          "name": "account",
          "type": "address"
        },
        {
          "indexed": false,
          "internalType": "address",
          "name": "token",
          "type": "address"
        },
        {
          "indexed": false,
          "internalType": "uint256",
          "name": "tokenAmount",
          "type": "uint256"
        },
        {
          "indexed": false,
          "internalType": "uint256",
          "name": "ndolAmount",
          "type": "uint256"
        }
      ],
      "name": "BuyNDOL",
      "type": "event"
    },
    {
      "anonymous": false,
      "inputs": [
        {
          "indexed": false,
          "internalType": "address",
          "name": "account",
          "type": "address"
        },
        {
          "indexed": false,
          "internalType": "address",
          "name": "token",
          "type": "address"
        },
        {
          "indexed": false,
          "internalType": "uint256",
          "name": "ndolAmount",
          "type": "uint256"
        },
        {
          "indexed": false,
          "internalType": "uint256",
          "name": "tokenAmount",
          "type": "uint256"
        }
      ],
      "name": "SellNDOL",
      "type": "event"
    },
    {
      "anonymous": false,
      "inputs": [
        {
          "indexed": false,
          "internalType": "address",
          "name": "account",
          "type": "address"
        },
        {
          "indexed": false,
          "internalType": "address",
          "name": "tokenIn",
          "type": "address"
        },
        {
          "indexed": false,
          "internalType": "address",
          "name": "tokenOut",
          "type": "address"
        },
        {
          "indexed": false,
          "internalType": "uint256",
          "name": "amountIn",
          "type": "uint256"
        },
        {
          "indexed": false,
          "internalType": "uint256",
          "name": "amountOut",
          "type": "uint256"
        }
      ],
      "name": "Swap",
      "type": "event"
    },
    {
      "inputs": [
        {
          "internalType": "address",
          "name": "_token",
          "type": "address"
        }
      ],
      "name": "availableReserve",
      "outputs": [
        {
          "internalType": "uint256",
          "name": "",
          "type": "uint256"
        }
      ],
      "stateMutability": "view",
      "type": "function"
    },
    {
      "inputs": [
        {
          "internalType": "address",
          "name": "_token",
          "type": "address"
        },
        {
          "internalType": "address",
          "name": "_receiver",
          "type": "address"
        }
      ],
      "name": "buyNDOL",
      "outputs": [
        {
          "internalType": "uint256",
          "name": "",
          "type": "uint256"
        }
      ],
      "stateMutability": "nonpayable",
      "type": "function"
    },
    {
      "inputs": [
        {
          "internalType": "address",
          "name": "_token",
          "type": "address"
        }
      ],
      "name": "feeReserves",
      "outputs": [
        {
          "internalType": "uint256",
          "name": "",
          "type": "uint256"
        }
      ],
      "stateMutability": "view",
      "type": "function"
    },
    {
      "inputs": [
        {
          "internalType": "address",
          "name": "_token",
          "type": "address"
        },
        {
          "internalType": "uint256",
          "name": "_ndolAmount",
          "type": "uint256"
        }
      ],
      "name": "getRedemptionAmount",
      "outputs": [
        {
          "internalType": "uint256",
          "name": "",
          "type": "uint256"
        }
      ],
      "stateMutability": "view",
      "type": "function"
    },
    {
      "inputs": [
        {
          "internalType": "address",
          "name": "_token",
          "type": "address"
        }
      ],
      "name": "getRedemptionBasisPoints",
      "outputs": [
        {
          "internalType": "uint256",
          "name": "",
          "type": "uint256"
        }
      ],
      "stateMutability": "view",
      "type": "function"
    },
    {
      "inputs": [
        {
          "internalType": "address",
          "name": "_token",
          "type": "address"
        }
      ],
      "name": "getRedemptionCollateral",
      "outputs": [
        {
          "internalType": "uint256",
          "name": "",
          "type": "uint256"
        }
      ],
      "stateMutability": "view",
      "type": "function"
    },
    {
      "inputs": [
        {
          "internalType": "address",
          "name": "_token",
          "type": "address"
        }
      ],
      "name": "getRedemptionCollateralUsd",
      "outputs": [
        {
          "internalType": "uint256",
          "name": "",
          "type": "uint256"
        }
      ],
      "stateMutability": "view",
      "type": "function"
    },
    {
      "inputs": [
        {
          "internalType": "address",
          "name": "_token",
          "type": "address"
        },
        {
          "internalType": "uint256",
          "name": "_fee",
          "type": "uint256"
        }
      ],
      "name": "getTargetAdjustedFee",
      "outputs": [
        {
          "internalType": "uint256",
          "name": "",
          "type": "uint256"
        }
      ],
      "stateMutability": "view",
      "type": "function"
    },
    {
      "inputs": [
        {
          "internalType": "address",
          "name": "_token",
          "type": "address"
        }
      ],
      "name": "guaranteedUsd",
      "outputs": [
        {
          "internalType": "uint256",
          "name": "",
          "type": "uint256"
        }
      ],
      "stateMutability": "view",
      "type": "function"
    },
    {
      "inputs": [],
      "name": "ndol",
      "outputs": [
        {
          "internalType": "address",
          "name": "",
          "type": "address"
        }
      ],
      "stateMutability": "view",
      "type": "function"
    },
    {
      "inputs": [
        {
          "internalType": "address",
          "name": "_token",
          "type": "address"
        }
      ],
      "name": "ndolAmounts",
      "outputs": [
        {
          "internalType": "uint256",
          "name": "",
          "type": "uint256"
        }
      ],
      "stateMutability": "view",
      "type": "function"
    },
    {
      "inputs": [
        {
          "internalType": "address",
          "name": "_token",
          "type": "address"
        }
      ],
      "name": "poolAmounts",
      "outputs": [
        {
          "internalType": "uint256",
          "name": "",
          "type": "uint256"
        }
      ],
      "stateMutability": "view",
      "type": "function"
    },
    {
      "inputs": [
        {
          "internalType": "address",
          "name": "_token",
          "type": "address"
        }
      ],
      "name": "reservedAmounts",
      "outputs": [
        {
          "internalType": "uint256",
          "name": "",
          "type": "uint256"
        }
      ],
      "stateMutability": "view",
      "type": "function"
    },
    {
      "inputs": [
        {
          "internalType": "address",
          "name": "_token",
          "type": "address"
        },
        {
          "internalType": "address",
          "name": "_receiver",
          "type": "address"
        }
      ],
      "name": "sellNDOL",
      "outputs": [
        {
          "internalType": "uint256",
          "name": "",
          "type": "uint256"
        }
      ],
      "stateMutability": "nonpayable",
      "type": "function"
    },
    {
      "inputs": [
        {
          "internalType": "address",
          "name": "_tokenIn",
          "type": "address"
        },
        {
          "internalType": "address",
          "name": "_tokenOut",
          "type": "address"
        },
        {
          "internalType": "address",
          "name": "_receiver",
          "type": "address"
        }
      ],
      "name": "swap",
      "outputs": [
        {
          "internalType": "uint256",
          "name": "",
          "type": "uint256"
        }
      ],
      "stateMutability": "nonpayable",
      "type": "function"
    },
    {
      "inputs": [],
      "name": "swapFeeBasisPoints",
      "outputs": [
        {
          "internalType": "uint256",
          "name": "",
          "type": "uint256"
        }
      ],
      "stateMutability": "pure",
      "type": "function"
    }
  ],
  "transactionHash": "0xd56aa45da85e0a36e3c9d925d438c46c576b283b9c820fbcf4eb0cb854ee55bc",
  "args": [],
  "solcInputHash": "af9024ae53e10c771bf435fbb9e4bd48",
  "bytecode": "0x608060405234801561001057600080fd5b5060008060000160006101000a81548160ff0219169083151502179055506139bb8061003d6000396000f3fe608060405234801561001057600080fd5b50600436106101005760003560e01c8063a22f239211610097578063b319ce0f11610066578063b319ce0f14610321578063c3c7b9e914610351578063e62b398014610381578063f07456ce146103b157610100565b8063a22f239214610285578063aa406656146102a3578063ac1a91e4146102c1578063b136ca49146102f157610100565b80637c1fb317116100d35780637c1fb317146101c5578063815b3c74146101f55780639331621214610225578063960e9ec71461025557610100565b80631ce9cb8f1461010557806329ff9615146101355780632c668ec11461016557806352f55eed14610195575b600080fd5b61011f600480360381019061011a9190612c44565b6103e1565b60405161012c9190612c8a565b60405180910390f35b61014f600480360381019061014a9190612c44565b61042c565b60405161015c9190612c8a565b60405180910390f35b61017f600480360381019061017a9190612cd1565b610449565b60405161018c9190612c8a565b60405180910390f35b6101af60048036038101906101aa9190612c44565b6105cb565b6040516101bc9190612c8a565b60405180910390f35b6101df60048036038101906101da9190612d11565b610616565b6040516101ec9190612c8a565b60405180910390f35b61020f600480360381019061020a9190612c44565b61088a565b60405161021c9190612c8a565b60405180910390f35b61023f600480360381019061023a9190612d51565b610966565b60405161024c9190612c8a565b60405180910390f35b61026f600480360381019061026a9190612c44565b610c39565b60405161027c9190612c8a565b60405180910390f35b61028d610c84565b60405161029a9190612c8a565b60405180910390f35b6102ab610c8d565b6040516102b89190612db3565b60405180910390f35b6102db60048036038101906102d69190612d11565b610cb9565b6040516102e89190612c8a565b60405180910390f35b61030b60048036038101906103069190612c44565b610f57565b6040516103189190612c8a565b60405180910390f35b61033b60048036038101906103369190612cd1565b61105b565b6040516103489190612c8a565b60405180910390f35b61036b60048036038101906103669190612c44565b611112565b6040516103789190612c8a565b60405180910390f35b61039b60048036038101906103969190612c44565b61115d565b6040516103a89190612c8a565b60405180910390f35b6103cb60048036038101906103c69190612c44565b6111a8565b6040516103d89190612c8a565b60405180910390f35b60008060110160008373ffffffffffffffffffffffffffffffffffffffff1673ffffffffffffffffffffffffffffffffffffffff168152602001908152602001600020549050919050565b600061044260008361043d85610f57565b6111f3565b9050919050565b60008061046884600060020160149054906101000a900460ff166112a8565b905060006104cf60006104a3846104956c0c9f2c9cd04674edea400000008961133190919063ffffffff16565b61134790919063ffffffff16565b600060020160009054906101000a900473ffffffffffffffffffffffffffffffffffffffff168861135d565b905060006104dc86610f57565b905060008114156104f357600093505050506105c5565b600080600b0160008873ffffffffffffffffffffffffffffffffffffffff1673ffffffffffffffffffffffffffffffffffffffff168152602001908152602001600020549050600081141561054e57829450505050506105c5565b600061057582610567858a61133190919063ffffffff16565b61134790919063ffffffff16565b905060006105828961115d565b90506105ab61271061059d838561133190919063ffffffff16565b61134790919063ffffffff16565b91508482106105ba57846105bc565b815b96505050505050505b92915050565b600080600c0160008373ffffffffffffffffffffffffffffffffffffffff1673ffffffffffffffffffffffffffffffffffffffff168152602001908152602001600020549050919050565b60006106206114f1565b61062b600084611562565b600061065c60008060020160009054906101000a900473ffffffffffffffffffffffffffffffffffffffff166115f4565b9050600081116106a1576040517f08c379a000000000000000000000000000000000000000000000000000000000815260040161069890612e2b565b60405180910390fd5b6106ac60008561171c565b60006106b88583610449565b9050600081116106fd576040517f08c379a00000000000000000000000000000000000000000000000000000000081526004016106f490612e97565b60405180910390fd5b610709600086836119d0565b61071560008684611af2565b600060020160009054906101000a900473ffffffffffffffffffffffffffffffffffffffff1673ffffffffffffffffffffffffffffffffffffffff16639dc29fac30846040518363ffffffff1660e01b8152600401610775929190612eb7565b600060405180830381600087803b15801561078f57600080fd5b505af11580156107a3573d6000803e3d6000fd5b505050506107d660008060020160009054906101000a900473ffffffffffffffffffffffffffffffffffffffff16611c5d565b60006107e6600087846000611d26565b9150506000811161082c576040517f08c379a000000000000000000000000000000000000000000000000000000000815260040161082390612f2c565b60405180910390fd5b7f6594c085ce57a04be39674da8f13d46fc935b31a90473a5e89173d32e8f3c525858785846040516108619493929190612f4c565b60405180910390a16108766000878388611e8c565b61087e611f8e565b80935050505092915050565b6000808273ffffffffffffffffffffffffffffffffffffffff166370a08231306040518263ffffffff1660e01b81526004016108c69190612db3565b602060405180830381865afa1580156108e3573d6000803e3d6000fd5b505050506040513d601f19601f820116820180604052508101906109079190612fa6565b905061095e6000600d0160008573ffffffffffffffffffffffffffffffffffffffff1673ffffffffffffffffffffffffffffffffffffffff1681526020019081526020016000205482611fad90919063ffffffff16565b915050919050565b60006109706114f1565b600060020160159054906101000a900460ff166109c2576040517f08c379a00000000000000000000000000000000000000000000000000000000081526004016109b99061301f565b60405180910390fd5b8273ffffffffffffffffffffffffffffffffffffffff168473ffffffffffffffffffffffffffffffffffffffff161415610a31576040517f08c379a0000000000000000000000000000000000000000000000000000000008152600401610a289061308b565b60405180910390fd5b610a3c600085611562565b610a47600084611562565b610a5260008561171c565b610a5d60008461171c565b6000610a6a6000866115f4565b905060008111610aaf576040517f08c379a0000000000000000000000000000000000000000000000000000000008152600401610aa6906130f7565b60405180910390fd5b6000610acd86600060020160149054906101000a900460ff16611fc3565b90506000610aed86600060020160149054906101000a900460ff166112a8565b90506000610b1682610b08858761133190919063ffffffff16565b61134790919063ffffffff16565b9050610b256000828a8a61135d565b90506000610b37600089846000611d26565b9150506000610b6e6c0c9f2c9cd04674edea40000000610b60878961133190919063ffffffff16565b61134790919063ffffffff16565b9050610ba26000828c600060020160009054906101000a900473ffffffffffffffffffffffffffffffffffffffff1661135d565b9050610bb060008b8361204c565b610bbc60008a83611af2565b610bc860008b88612123565b50610bd560008a856119d0565b7fcd3829a3813dc3cdd188fd3d01dcf3268c16be2fdd2dd21d0665418816e46062888b8b8986604051610c0c959493929190613117565b60405180910390a1610c2160008a848b611e8c565b610c29611f8e565b8196505050505050509392505050565b600080600b0160008373ffffffffffffffffffffffffffffffffffffffff1673ffffffffffffffffffffffffffffffffffffffff168152602001908152602001600020549050919050565b6000601e905090565b60008060020160009054906101000a900473ffffffffffffffffffffffffffffffffffffffff16905090565b6000610cc36114f1565b600060020160159054906101000a900460ff16610d15576040517f08c379a0000000000000000000000000000000000000000000000000000000008152600401610d0c9061301f565b60405180910390fd5b610d20600084611562565b6000610d3e84600060020160149054906101000a900460ff16611fc3565b90506000610d4d6000866115f4565b905060008111610d92576040517f08c379a0000000000000000000000000000000000000000000000000000000008152600401610d8990612f2c565b60405180910390fd5b610d9d60008661171c565b6000610dad600087846001611d26565b9150506000610e156000610de96c0c9f2c9cd04674edea40000000610ddb888761133190919063ffffffff16565b61134790919063ffffffff16565b89600060020160009054906101000a900473ffffffffffffffffffffffffffffffffffffffff1661135d565b905060008111610e5a576040517f08c379a0000000000000000000000000000000000000000000000000000000008152600401610e5190612e2b565b60405180910390fd5b610e6660008884612123565b50610e736000888361204c565b7f6dfa09b69ab61b0cb6354b7d2934207d73ea106cba99e489a1a2728862009d9186888584604051610ea89493929190612f4c565b60405180910390a1600060020160009054906101000a900473ffffffffffffffffffffffffffffffffffffffff1673ffffffffffffffffffffffffffffffffffffffff166340c10f1987836040518363ffffffff1660e01b8152600401610f10929190612eb7565b600060405180830381600087803b158015610f2a57600080fd5b505af1158015610f3e573d6000803e3d6000fd5b50505050610f4a611f8e565b8094505050505092915050565b600080610fa86000846000600e0160008773ffffffffffffffffffffffffffffffffffffffff1673ffffffffffffffffffffffffffffffffffffffff1681526020019081526020016000205461224c565b90506110536000600d0160008573ffffffffffffffffffffffffffffffffffffffff1673ffffffffffffffffffffffffffffffffffffffff168152602001908152602001600020546110456000600c0160008773ffffffffffffffffffffffffffffffffffffffff1673ffffffffffffffffffffffffffffffffffffffff168152602001908152602001600020548461228f90919063ffffffff16565b611fad90919063ffffffff16565b915050919050565b6000806000600b0160008573ffffffffffffffffffffffffffffffffffffffff1673ffffffffffffffffffffffffffffffffffffffff16815260200190815260200160002054905060006110b06000866122a5565b905060008114806110c15750600082145b156110d057839250505061110c565b808211156110e257839250505061110c565b611107816110f9848761133190919063ffffffff16565b61134790919063ffffffff16565b925050505b92915050565b600080600d0160008373ffffffffffffffffffffffffffffffffffffffff1673ffffffffffffffffffffffffffffffffffffffff168152602001908152602001600020549050919050565b60008060080160008373ffffffffffffffffffffffffffffffffffffffff1673ffffffffffffffffffffffffffffffffffffffff168152602001908152602001600020549050919050565b600080600e0160008373ffffffffffffffffffffffffffffffffffffffff1673ffffffffffffffffffffffffffffffffffffffff168152602001908152602001600020549050919050565b60008082141561120657600090506112a1565b6000611223848660020160149054906101000a900460ff16611fc3565b905060008560070160008673ffffffffffffffffffffffffffffffffffffffff1673ffffffffffffffffffffffffffffffffffffffff16815260200190815260200160002054905061129c81600a61127b91906132cc565b61128e848761133190919063ffffffff16565b61134790919063ffffffff16565b925050505b9392505050565b60003073ffffffffffffffffffffffffffffffffffffffff16635ae69163846001856040518463ffffffff1660e01b81526004016112e893929190613332565b602060405180830381865afa158015611305573d6000803e3d6000fd5b505050506040513d601f19601f820116820180604052508101906113299190612fa6565b905092915050565b6000818361133f9190613369565b905092915050565b6000818361135591906133f2565b905092915050565b6000808560020160009054906101000a900473ffffffffffffffffffffffffffffffffffffffff1673ffffffffffffffffffffffffffffffffffffffff168473ffffffffffffffffffffffffffffffffffffffff16146113fe578560070160008573ffffffffffffffffffffffffffffffffffffffff1673ffffffffffffffffffffffffffffffffffffffff16815260200190815260200160002054611401565b60125b905060008660020160009054906101000a900473ffffffffffffffffffffffffffffffffffffffff1673ffffffffffffffffffffffffffffffffffffffff168473ffffffffffffffffffffffffffffffffffffffff16146114a3578660070160008573ffffffffffffffffffffffffffffffffffffffff1673ffffffffffffffffffffffffffffffffffffffff168152602001908152602001600020546114a6565b60125b90506114e582600a6114b891906132cc565b6114d783600a6114c891906132cc565b8961133190919063ffffffff16565b61134790919063ffffffff16565b92505050949350505050565b6000800160009054906101000a900460ff1615611543576040517f08c379a000000000000000000000000000000000000000000000000000000000815260040161153a9061346f565b60405180910390fd5b60016000800160006101000a81548160ff021916908315150217905550565b8160050160008273ffffffffffffffffffffffffffffffffffffffff1673ffffffffffffffffffffffffffffffffffffffff16815260200190815260200160002060009054906101000a900460ff166115f0576040517f08c379a00000000000000000000000000000000000000000000000000000000081526004016115e7906134db565b60405180910390fd5b5050565b60008083600a0160008473ffffffffffffffffffffffffffffffffffffffff1673ffffffffffffffffffffffffffffffffffffffff16815260200190815260200160002054905060008373ffffffffffffffffffffffffffffffffffffffff166370a08231306040518263ffffffff1660e01b81526004016116769190612db3565b602060405180830381865afa158015611693573d6000803e3d6000fd5b505050506040513d601f19601f820116820180604052508101906116b79190612fa6565b90508085600a0160008673ffffffffffffffffffffffffffffffffffffffff1673ffffffffffffffffffffffffffffffffffffffff168152602001908152602001600020819055506117128282611fad90919063ffffffff16565b9250505092915050565b60008260100160008373ffffffffffffffffffffffffffffffffffffffff1673ffffffffffffffffffffffffffffffffffffffff1681526020019081526020016000205414156117d95761178f6170806117816170804261134790919063ffffffff16565b61133190919063ffffffff16565b8260100160008373ffffffffffffffffffffffffffffffffffffffff1673ffffffffffffffffffffffffffffffffffffffff168152602001908152602001600020819055506119cc565b426118306170808460100160008573ffffffffffffffffffffffffffffffffffffffff1673ffffffffffffffffffffffffffffffffffffffff1681526020019081526020016000205461228f90919063ffffffff16565b111561183b576119cc565b600061184783836123ca565b905061189d8184600f0160008573ffffffffffffffffffffffffffffffffffffffff1673ffffffffffffffffffffffffffffffffffffffff1681526020019081526020016000205461228f90919063ffffffff16565b83600f0160008473ffffffffffffffffffffffffffffffffffffffff1673ffffffffffffffffffffffffffffffffffffffff1681526020019081526020016000208190555061190b6170806118fd6170804261134790919063ffffffff16565b61133190919063ffffffff16565b8360100160008473ffffffffffffffffffffffffffffffffffffffff1673ffffffffffffffffffffffffffffffffffffffff168152602001908152602001600020819055507fa146fc154e1913322e9817d49f0d5c37466c24326e15de10e739a948be815eab8284600f0160008573ffffffffffffffffffffffffffffffffffffffff1673ffffffffffffffffffffffffffffffffffffffff168152602001908152602001600020546040516119c2929190612eb7565b60405180910390a1505b5050565b611a5b816040518060400160405280601a81526020017f5661756c743a20706f6f6c416d6f756e7420657863656564656400000000000081525085600c0160008673ffffffffffffffffffffffffffffffffffffffff1673ffffffffffffffffffffffffffffffffffffffff1681526020019081526020016000205461257d9092919063ffffffff16565b83600c0160008473ffffffffffffffffffffffffffffffffffffffff1673ffffffffffffffffffffffffffffffffffffffff16815260200190815260200160002081905550611aaa83836125d2565b611ab4838361269b565b7f112726233fbeaeed0f5b1dba5cb0b2b81883dee49fb35ff99fd98ed9f6d31eb08282604051611ae5929190612eb7565b60405180910390a1505050565b600083600b0160008473ffffffffffffffffffffffffffffffffffffffff1673ffffffffffffffffffffffffffffffffffffffff168152602001908152602001600020549050818111611bc557600084600b0160008573ffffffffffffffffffffffffffffffffffffffff1673ffffffffffffffffffffffffffffffffffffffff168152602001908152602001600020819055507f448c2068e908f5ee25d962e13bc05be4d5d07b1a3845458d3b927d843df4b2ff8382604051611bb7929190612eb7565b60405180910390a150611c58565b611bd88282611fad90919063ffffffff16565b84600b0160008573ffffffffffffffffffffffffffffffffffffffff1673ffffffffffffffffffffffffffffffffffffffff168152602001908152602001600020819055507f448c2068e908f5ee25d962e13bc05be4d5d07b1a3845458d3b927d843df4b2ff8383604051611c4e929190612eb7565b60405180910390a1505b505050565b60008173ffffffffffffffffffffffffffffffffffffffff166370a08231306040518263ffffffff1660e01b8152600401611c989190612db3565b602060405180830381865afa158015611cb5573d6000803e3d6000fd5b505050506040513d601f19601f82011682018060405250810190611cd99190612fa6565b90508083600a0160008473ffffffffffffffffffffffffffffffffffffffff1673ffffffffffffffffffffffffffffffffffffffff16815260200190815260200160002081905550505050565b6000806000611d378787601e6127a2565b90506000611d83612710611d75611d6688611d5357601e611d55565b855b612710611fad90919063ffffffff16565b8961133190919063ffffffff16565b61134790919063ffffffff16565b90506000611d9a8288611fad90919063ffffffff16565b9050611df0818a60110160008b73ffffffffffffffffffffffffffffffffffffffff1673ffffffffffffffffffffffffffffffffffffffff1681526020019081526020016000205461228f90919063ffffffff16565b8960110160008a73ffffffffffffffffffffffffffffffffffffffff1673ffffffffffffffffffffffffffffffffffffffff168152602001908152602001600020819055507f47cd9dda0e50ce30bcaaacd0488452b596221c07ac402a581cfae4d3933cac2b88611e628b8b856111f3565b83604051611e72939291906134fb565b60405180910390a180829450945050505094509492505050565b611f18828473ffffffffffffffffffffffffffffffffffffffff166370a08231306040518263ffffffff1660e01b8152600401611ec99190612db3565b602060405180830381865afa158015611ee6573d6000803e3d6000fd5b505050506040513d601f19601f82011682018060405250810190611f0a9190612fa6565b611fad90919063ffffffff16565b84600a0160008573ffffffffffffffffffffffffffffffffffffffff1673ffffffffffffffffffffffffffffffffffffffff16815260200190815260200160002081905550611f8881838573ffffffffffffffffffffffffffffffffffffffff166128589092919063ffffffff16565b50505050565b60008060000160006101000a81548160ff021916908315150217905550565b60008183611fbb9190613532565b905092915050565b60003073ffffffffffffffffffffffffffffffffffffffff16635ae69163846000856040518463ffffffff1660e01b815260040161200393929190613332565b602060405180830381865afa158015612020573d6000803e3d6000fd5b505050506040513d601f19601f820116820180604052508101906120449190612fa6565b905092915050565b6120a08184600b0160008573ffffffffffffffffffffffffffffffffffffffff1673ffffffffffffffffffffffffffffffffffffffff1681526020019081526020016000205461228f90919063ffffffff16565b83600b0160008473ffffffffffffffffffffffffffffffffffffffff1673ffffffffffffffffffffffffffffffffffffffff168152602001908152602001600020819055507f71258b0cda4926ee0d520b5f10d744d448b8a0fca6c03a7aab232331fc65ad5b8282604051612116929190612eb7565b60405180910390a1505050565b60006121798285600c0160008673ffffffffffffffffffffffffffffffffffffffff1673ffffffffffffffffffffffffffffffffffffffff1681526020019081526020016000205461228f90919063ffffffff16565b84600c0160008573ffffffffffffffffffffffffffffffffffffffff1673ffffffffffffffffffffffffffffffffffffffff168152602001908152602001600020819055506121c8848461269b565b7f976177fbe09a15e5e43f848844963a42b41ef919ef17ff21a17a5421de8f473783836040516121f9929190612eb7565b60405180910390a183600c0160008473ffffffffffffffffffffffffffffffffffffffff1673ffffffffffffffffffffffffffffffffffffffff1681526020019081526020016000205490509392505050565b60008082141561225f5760009050612288565b612285848484612280878960020160149054906101000a900460ff166112a8565b6128de565b90505b9392505050565b6000818361229d9190613566565b905092915050565b6000808360020160009054906101000a900473ffffffffffffffffffffffffffffffffffffffff1673ffffffffffffffffffffffffffffffffffffffff166318160ddd6040518163ffffffff1660e01b8152600401602060405180830381865afa158015612317573d6000803e3d6000fd5b505050506040513d601f19601f8201168201806040525081019061233b9190612fa6565b905060008114156123505760009150506123c4565b60008460120160008573ffffffffffffffffffffffffffffffffffffffff1673ffffffffffffffffffffffffffffffffffffffff1681526020019081526020016000205490506123bf85601301546123b1838561133190919063ffffffff16565b61134790919063ffffffff16565b925050505b92915050565b6000426124236170808560100160008673ffffffffffffffffffffffffffffffffffffffff1673ffffffffffffffffffffffffffffffffffffffff1681526020019081526020016000205461228f90919063ffffffff16565b11156124325760009050612577565b600061249c61708061248e8660100160008773ffffffffffffffffffffffffffffffffffffffff1673ffffffffffffffffffffffffffffffffffffffff1681526020019081526020016000205442611fad90919063ffffffff16565b61134790919063ffffffff16565b9050600084600c0160008573ffffffffffffffffffffffffffffffffffffffff1673ffffffffffffffffffffffffffffffffffffffff16815260200190815260200160002054905060008114156124f857600092505050612577565b612572816125648461255689600d0160008a73ffffffffffffffffffffffffffffffffffffffff1673ffffffffffffffffffffffffffffffffffffffff1681526020019081526020016000205461025861133190919063ffffffff16565b61133190919063ffffffff16565b61134790919063ffffffff16565b925050505b92915050565b60008383111582906125c5576040517f08c379a00000000000000000000000000000000000000000000000000000000081526004016125bc9190613644565b60405180910390fd5b5082840390509392505050565b81600c0160008273ffffffffffffffffffffffffffffffffffffffff1673ffffffffffffffffffffffffffffffffffffffff1681526020019081526020016000205482600d0160008373ffffffffffffffffffffffffffffffffffffffff1673ffffffffffffffffffffffffffffffffffffffff168152602001908152602001600020541115612697576040517f08c379a000000000000000000000000000000000000000000000000000000000815260040161268e906136b2565b60405180910390fd5b5050565b60008173ffffffffffffffffffffffffffffffffffffffff166370a08231306040518263ffffffff1660e01b81526004016126d69190612db3565b602060405180830381865afa1580156126f3573d6000803e3d6000fd5b505050506040513d601f19601f820116820180604052508101906127179190612fa6565b90508083600c0160008473ffffffffffffffffffffffffffffffffffffffff1673ffffffffffffffffffffffffffffffffffffffff16815260200190815260200160002054111561279d576040517f08c379a00000000000000000000000000000000000000000000000000000000081526004016127949061371e565b60405180910390fd5b505050565b60008084600b0160008573ffffffffffffffffffffffffffffffffffffffff1673ffffffffffffffffffffffffffffffffffffffff16815260200190815260200160002054905060006127f586866122a5565b905060008114806128065750600082145b15612815578392505050612851565b80821115612827578392505050612851565b61284c8161283e848761133190919063ffffffff16565b61134790919063ffffffff16565b925050505b9392505050565b6128d98363a9059cbb60e01b8484604051602401612877929190612eb7565b604051602081830303815290604052907bffffffffffffffffffffffffffffffffffffffffffffffffffffffff19166020820180517bffffffffffffffffffffffffffffffffffffffffffffffffffffffff8381831617835250505050612974565b505050565b6000808314156128f1576000905061296c565b60008560070160008673ffffffffffffffffffffffffffffffffffffffff1673ffffffffffffffffffffffffffffffffffffffff1681526020019081526020016000205490506129688361295a83600a61294b91906132cc565b8761133190919063ffffffff16565b61134790919063ffffffff16565b9150505b949350505050565b60006129d6826040518060400160405280602081526020017f5361666545524332303a206c6f772d6c6576656c2063616c6c206661696c65648152508573ffffffffffffffffffffffffffffffffffffffff16612a3b9092919063ffffffff16565b9050600081511115612a3657808060200190518101906129f6919061376a565b612a35576040517f08c379a0000000000000000000000000000000000000000000000000000000008152600401612a2c90613809565b60405180910390fd5b5b505050565b6060612a4a8484600085612a53565b90509392505050565b606082471015612a98576040517f08c379a0000000000000000000000000000000000000000000000000000000008152600401612a8f9061389b565b60405180910390fd5b612aa185612b67565b612ae0576040517f08c379a0000000000000000000000000000000000000000000000000000000008152600401612ad790613907565b60405180910390fd5b6000808673ffffffffffffffffffffffffffffffffffffffff168587604051612b09919061396e565b60006040518083038185875af1925050503d8060008114612b46576040519150601f19603f3d011682016040523d82523d6000602084013e612b4b565b606091505b5091509150612b5b828286612b7a565b92505050949350505050565b600080823b905060008111915050919050565b60608315612b8a57829050612bda565b600083511115612b9d5782518084602001fd5b816040517f08c379a0000000000000000000000000000000000000000000000000000000008152600401612bd19190613644565b60405180910390fd5b9392505050565b600080fd5b600073ffffffffffffffffffffffffffffffffffffffff82169050919050565b6000612c1182612be6565b9050919050565b612c2181612c06565b8114612c2c57600080fd5b50565b600081359050612c3e81612c18565b92915050565b600060208284031215612c5a57612c59612be1565b5b6000612c6884828501612c2f565b91505092915050565b6000819050919050565b612c8481612c71565b82525050565b6000602082019050612c9f6000830184612c7b565b92915050565b612cae81612c71565b8114612cb957600080fd5b50565b600081359050612ccb81612ca5565b92915050565b60008060408385031215612ce857612ce7612be1565b5b6000612cf685828601612c2f565b9250506020612d0785828601612cbc565b9150509250929050565b60008060408385031215612d2857612d27612be1565b5b6000612d3685828601612c2f565b9250506020612d4785828601612c2f565b9150509250929050565b600080600060608486031215612d6a57612d69612be1565b5b6000612d7886828701612c2f565b9350506020612d8986828701612c2f565b9250506040612d9a86828701612c2f565b9150509250925092565b612dad81612c06565b82525050565b6000602082019050612dc86000830184612da4565b92915050565b600082825260208201905092915050565b7f5661756c743a20696e76616c6964206e646f6c416d6f756e7400000000000000600082015250565b6000612e15601983612dce565b9150612e2082612ddf565b602082019050919050565b60006020820190508181036000830152612e4481612e08565b9050919050565b7f5661756c743a20696e76616c696420726564656d7074696f6e416d6f756e7400600082015250565b6000612e81601f83612dce565b9150612e8c82612e4b565b602082019050919050565b60006020820190508181036000830152612eb081612e74565b9050919050565b6000604082019050612ecc6000830185612da4565b612ed96020830184612c7b565b9392505050565b7f5661756c743a20696e76616c696420746f6b656e416d6f756e74000000000000600082015250565b6000612f16601a83612dce565b9150612f2182612ee0565b602082019050919050565b60006020820190508181036000830152612f4581612f09565b9050919050565b6000608082019050612f616000830187612da4565b612f6e6020830186612da4565b612f7b6040830185612c7b565b612f886060830184612c7b565b95945050505050565b600081519050612fa081612ca5565b92915050565b600060208284031215612fbc57612fbb612be1565b5b6000612fca84828501612f91565b91505092915050565b7f5661756c743a206e6f7420696e697469616c697a656400000000000000000000600082015250565b6000613009601683612dce565b915061301482612fd3565b602082019050919050565b6000602082019050818103600083015261303881612ffc565b9050919050565b7f5661756c743a20696e76616c696420746f6b656e730000000000000000000000600082015250565b6000613075601583612dce565b91506130808261303f565b602082019050919050565b600060208201905081810360008301526130a481613068565b9050919050565b7f5661756c743a20696e76616c696420616d6f756e74496e000000000000000000600082015250565b60006130e1601783612dce565b91506130ec826130ab565b602082019050919050565b60006020820190508181036000830152613110816130d4565b9050919050565b600060a08201905061312c6000830188612da4565b6131396020830187612da4565b6131466040830186612da4565b6131536060830185612c7b565b6131606080830184612c7b565b9695505050505050565b7f4e487b7100000000000000000000000000000000000000000000000000000000600052601160045260246000fd5b60008160011c9050919050565b6000808291508390505b60018511156131f0578086048111156131cc576131cb61316a565b5b60018516156131db5780820291505b80810290506131e985613199565b94506131b0565b94509492505050565b60008261320957600190506132c5565b8161321757600090506132c5565b816001811461322d576002811461323757613266565b60019150506132c5565b60ff8411156132495761324861316a565b5b8360020a9150848211156132605761325f61316a565b5b506132c5565b5060208310610133831016604e8410600b841016171561329b5782820a9050838111156132965761329561316a565b5b6132c5565b6132a884848460016131a6565b925090508184048111156132bf576132be61316a565b5b81810290505b9392505050565b60006132d782612c71565b91506132e283612c71565b925061330f7fffffffffffffffffffffffffffffffffffffffffffffffffffffffffffffffff84846131f9565b905092915050565b60008115159050919050565b61332c81613317565b82525050565b60006060820190506133476000830186612da4565b6133546020830185613323565b6133616040830184613323565b949350505050565b600061337482612c71565b915061337f83612c71565b9250817fffffffffffffffffffffffffffffffffffffffffffffffffffffffffffffffff04831182151516156133b8576133b761316a565b5b828202905092915050565b7f4e487b7100000000000000000000000000000000000000000000000000000000600052601260045260246000fd5b60006133fd82612c71565b915061340883612c71565b925082613418576134176133c3565b5b828204905092915050565b7f436f6e747261637420616c726561647920656e74657265640000000000000000600082015250565b6000613459601883612dce565b915061346482613423565b602082019050919050565b600060208201905081810360008301526134888161344c565b9050919050565b7f5661756c743a20746f6b656e206e6f742077686974656c697374656400000000600082015250565b60006134c5601c83612dce565b91506134d08261348f565b602082019050919050565b600060208201905081810360008301526134f4816134b8565b9050919050565b60006060820190506135106000830186612da4565b61351d6020830185612c7b565b61352a6040830184612c7b565b949350505050565b600061353d82612c71565b915061354883612c71565b92508282101561355b5761355a61316a565b5b828203905092915050565b600061357182612c71565b915061357c83612c71565b9250827fffffffffffffffffffffffffffffffffffffffffffffffffffffffffffffffff038211156135b1576135b061316a565b5b828201905092915050565b600081519050919050565b60005b838110156135e55780820151818401526020810190506135ca565b838111156135f4576000848401525b50505050565b6000601f19601f8301169050919050565b6000613616826135bc565b6136208185612dce565b93506136308185602086016135c7565b613639816135fa565b840191505092915050565b6000602082019050818103600083015261365e818461360b565b905092915050565b7f5661756c743a2072657365727665206578636565647320706f6f6c0000000000600082015250565b600061369c601b83612dce565b91506136a782613666565b602082019050919050565b600060208201905081810360008301526136cb8161368f565b9050919050565b7f5661756c743a20696e76616c696420696e637265617365000000000000000000600082015250565b6000613708601783612dce565b9150613713826136d2565b602082019050919050565b60006020820190508181036000830152613737816136fb565b9050919050565b61374781613317565b811461375257600080fd5b50565b6000815190506137648161373e565b92915050565b6000602082840312156137805761377f612be1565b5b600061378e84828501613755565b91505092915050565b7f5361666545524332303a204552433230206f7065726174696f6e20646964206e60008201527f6f74207375636365656400000000000000000000000000000000000000000000602082015250565b60006137f3602a83612dce565b91506137fe82613797565b604082019050919050565b60006020820190508181036000830152613822816137e6565b9050919050565b7f416464726573733a20696e73756666696369656e742062616c616e636520666f60008201527f722063616c6c0000000000000000000000000000000000000000000000000000602082015250565b6000613885602683612dce565b915061389082613829565b604082019050919050565b600060208201905081810360008301526138b481613878565b9050919050565b7f416464726573733a2063616c6c20746f206e6f6e2d636f6e7472616374000000600082015250565b60006138f1601d83612dce565b91506138fc826138bb565b602082019050919050565b60006020820190508181036000830152613920816138e4565b9050919050565b600081519050919050565b600081905092915050565b600061394882613927565b6139528185613932565b93506139628185602086016135c7565b80840191505092915050565b600061397a828461393d565b91508190509291505056fea2646970667358221220f642f6e91314d203d89d0135585c05d7a7ccdd2dcf0f634d3230ab886e4a49dc64736f6c634300080a0033",
  "devdoc": {
    "kind": "dev",
    "methods": {},
    "version": 1
  },
  "userdoc": {
    "kind": "user",
    "methods": {},
    "version": 1
  },
  "storageLayout": {
    "storage": [
      {
        "astId": 3485,
        "contract": "contracts/facets/Vault/VaultNdolFacet.sol:VaultNdolFacet",
        "label": "s",
        "offset": 0,
        "slot": "0",
        "type": "t_struct(Storage)6591_storage"
      }
    ],
    "types": {
      "t_address": {
        "encoding": "inplace",
        "label": "address",
        "numberOfBytes": "20"
      },
      "t_array(t_bytes32)dyn_storage": {
        "base": "t_bytes32",
        "encoding": "dynamic_array",
        "label": "bytes32[]",
        "numberOfBytes": "32"
      },
      "t_bool": {
        "encoding": "inplace",
        "label": "bool",
        "numberOfBytes": "1"
      },
      "t_bytes32": {
        "encoding": "inplace",
        "label": "bytes32",
        "numberOfBytes": "32"
      },
      "t_int256": {
        "encoding": "inplace",
        "label": "int256",
        "numberOfBytes": "32"
      },
      "t_mapping(t_address,t_address)": {
        "encoding": "mapping",
        "key": "t_address",
        "label": "mapping(address => address)",
        "numberOfBytes": "32",
        "value": "t_address"
      },
      "t_mapping(t_address,t_bool)": {
        "encoding": "mapping",
        "key": "t_address",
        "label": "mapping(address => bool)",
        "numberOfBytes": "32",
        "value": "t_bool"
      },
      "t_mapping(t_address,t_int256)": {
        "encoding": "mapping",
        "key": "t_address",
        "label": "mapping(address => int256)",
        "numberOfBytes": "32",
        "value": "t_int256"
      },
      "t_mapping(t_address,t_mapping(t_address,t_int256))": {
        "encoding": "mapping",
        "key": "t_address",
        "label": "mapping(address => mapping(address => int256))",
        "numberOfBytes": "32",
        "value": "t_mapping(t_address,t_int256)"
      },
      "t_mapping(t_address,t_uint256)": {
        "encoding": "mapping",
        "key": "t_address",
        "label": "mapping(address => uint256)",
        "numberOfBytes": "32",
        "value": "t_uint256"
      },
      "t_mapping(t_bytes32,t_struct(Position)6476_storage)": {
        "encoding": "mapping",
        "key": "t_bytes32",
        "label": "mapping(bytes32 => struct LibExchangeStorage.Position)",
        "numberOfBytes": "32",
        "value": "t_struct(Position)6476_storage"
      },
      "t_mapping(t_bytes32,t_uint256)": {
        "encoding": "mapping",
        "key": "t_bytes32",
        "label": "mapping(bytes32 => uint256)",
        "numberOfBytes": "32",
        "value": "t_uint256"
      },
      "t_mapping(t_uint80,t_int256)": {
        "encoding": "mapping",
        "key": "t_uint80",
        "label": "mapping(uint80 => int256)",
        "numberOfBytes": "32",
        "value": "t_int256"
      },
      "t_struct(AddressSet)1222_storage": {
        "encoding": "inplace",
        "label": "struct EnumerableSet.AddressSet",
        "members": [
          {
            "astId": 1221,
            "contract": "contracts/facets/Vault/VaultNdolFacet.sol:VaultNdolFacet",
            "label": "_inner",
            "offset": 0,
            "slot": "0",
            "type": "t_struct(Set)921_storage"
          }
        ],
        "numberOfBytes": "64"
      },
      "t_struct(Position)6476_storage": {
        "encoding": "inplace",
        "label": "struct LibExchangeStorage.Position",
        "members": [
          {
            "astId": 6463,
            "contract": "contracts/facets/Vault/VaultNdolFacet.sol:VaultNdolFacet",
            "label": "size",
            "offset": 0,
            "slot": "0",
            "type": "t_uint256"
          },
          {
            "astId": 6465,
            "contract": "contracts/facets/Vault/VaultNdolFacet.sol:VaultNdolFacet",
            "label": "collateral",
            "offset": 0,
            "slot": "1",
            "type": "t_uint256"
          },
          {
            "astId": 6467,
            "contract": "contracts/facets/Vault/VaultNdolFacet.sol:VaultNdolFacet",
            "label": "averagePrice",
            "offset": 0,
            "slot": "2",
            "type": "t_uint256"
          },
          {
            "astId": 6469,
            "contract": "contracts/facets/Vault/VaultNdolFacet.sol:VaultNdolFacet",
            "label": "entryFundingRate",
            "offset": 0,
            "slot": "3",
            "type": "t_uint256"
          },
          {
            "astId": 6471,
            "contract": "contracts/facets/Vault/VaultNdolFacet.sol:VaultNdolFacet",
            "label": "reserveAmount",
            "offset": 0,
            "slot": "4",
            "type": "t_uint256"
          },
          {
            "astId": 6473,
            "contract": "contracts/facets/Vault/VaultNdolFacet.sol:VaultNdolFacet",
            "label": "realisedPnl",
            "offset": 0,
            "slot": "5",
            "type": "t_int256"
          },
          {
            "astId": 6475,
            "contract": "contracts/facets/Vault/VaultNdolFacet.sol:VaultNdolFacet",
            "label": "lastIncreasedTime",
            "offset": 0,
            "slot": "6",
            "type": "t_uint256"
          }
        ],
        "numberOfBytes": "224"
      },
      "t_struct(Set)921_storage": {
        "encoding": "inplace",
        "label": "struct EnumerableSet.Set",
        "members": [
          {
            "astId": 916,
            "contract": "contracts/facets/Vault/VaultNdolFacet.sol:VaultNdolFacet",
            "label": "_values",
            "offset": 0,
            "slot": "0",
            "type": "t_array(t_bytes32)dyn_storage"
          },
          {
            "astId": 920,
            "contract": "contracts/facets/Vault/VaultNdolFacet.sol:VaultNdolFacet",
            "label": "_indexes",
            "offset": 0,
            "slot": "1",
            "type": "t_mapping(t_bytes32,t_uint256)"
          }
        ],
        "numberOfBytes": "64"
      },
      "t_struct(Storage)6591_storage": {
        "encoding": "inplace",
        "label": "struct LibExchangeStorage.Storage",
        "members": [
          {
            "astId": 6478,
            "contract": "contracts/facets/Vault/VaultNdolFacet.sol:VaultNdolFacet",
            "label": "contractEntered",
            "offset": 0,
            "slot": "0",
            "type": "t_bool"
          },
          {
            "astId": 6480,
            "contract": "contracts/facets/Vault/VaultNdolFacet.sol:VaultNdolFacet",
            "label": "btc",
            "offset": 1,
            "slot": "0",
            "type": "t_address"
          },
          {
            "astId": 6482,
            "contract": "contracts/facets/Vault/VaultNdolFacet.sol:VaultNdolFacet",
            "label": "weth",
            "offset": 0,
            "slot": "1",
            "type": "t_address"
          },
          {
            "astId": 6484,
            "contract": "contracts/facets/Vault/VaultNdolFacet.sol:VaultNdolFacet",
            "label": "ndol",
            "offset": 0,
            "slot": "2",
            "type": "t_address"
          },
          {
            "astId": 6486,
            "contract": "contracts/facets/Vault/VaultNdolFacet.sol:VaultNdolFacet",
            "label": "includeAmmPrice",
            "offset": 20,
            "slot": "2",
            "type": "t_bool"
          },
          {
            "astId": 6488,
            "contract": "contracts/facets/Vault/VaultNdolFacet.sol:VaultNdolFacet",
            "label": "isInitialized",
            "offset": 21,
            "slot": "2",
            "type": "t_bool"
          },
          {
            "astId": 6491,
            "contract": "contracts/facets/Vault/VaultNdolFacet.sol:VaultNdolFacet",
            "label": "tokens",
            "offset": 0,
            "slot": "3",
            "type": "t_struct(AddressSet)1222_storage"
          },
          {
            "astId": 6495,
            "contract": "contracts/facets/Vault/VaultNdolFacet.sol:VaultNdolFacet",
            "label": "whitelistedTokens",
            "offset": 0,
            "slot": "5",
            "type": "t_mapping(t_address,t_bool)"
          },
          {
            "astId": 6500,
            "contract": "contracts/facets/Vault/VaultNdolFacet.sol:VaultNdolFacet",
            "label": "positions",
            "offset": 0,
            "slot": "6",
            "type": "t_mapping(t_bytes32,t_struct(Position)6476_storage)"
          },
          {
            "astId": 6504,
            "contract": "contracts/facets/Vault/VaultNdolFacet.sol:VaultNdolFacet",
            "label": "tokenDecimals",
            "offset": 0,
            "slot": "7",
            "type": "t_mapping(t_address,t_uint256)"
          },
          {
            "astId": 6508,
            "contract": "contracts/facets/Vault/VaultNdolFacet.sol:VaultNdolFacet",
            "label": "redemptionBasisPoints",
            "offset": 0,
            "slot": "8",
            "type": "t_mapping(t_address,t_uint256)"
          },
          {
            "astId": 6512,
            "contract": "contracts/facets/Vault/VaultNdolFacet.sol:VaultNdolFacet",
            "label": "minProfitBasisPoints",
            "offset": 0,
            "slot": "9",
            "type": "t_mapping(t_address,t_uint256)"
          },
          {
            "astId": 6516,
            "contract": "contracts/facets/Vault/VaultNdolFacet.sol:VaultNdolFacet",
            "label": "tokenBalances",
            "offset": 0,
            "slot": "10",
            "type": "t_mapping(t_address,t_uint256)"
          },
          {
            "astId": 6520,
            "contract": "contracts/facets/Vault/VaultNdolFacet.sol:VaultNdolFacet",
            "label": "ndolAmounts",
            "offset": 0,
            "slot": "11",
            "type": "t_mapping(t_address,t_uint256)"
          },
          {
            "astId": 6524,
            "contract": "contracts/facets/Vault/VaultNdolFacet.sol:VaultNdolFacet",
            "label": "poolAmounts",
            "offset": 0,
            "slot": "12",
            "type": "t_mapping(t_address,t_uint256)"
          },
          {
            "astId": 6528,
            "contract": "contracts/facets/Vault/VaultNdolFacet.sol:VaultNdolFacet",
            "label": "reservedAmounts",
            "offset": 0,
            "slot": "13",
            "type": "t_mapping(t_address,t_uint256)"
          },
          {
            "astId": 6532,
            "contract": "contracts/facets/Vault/VaultNdolFacet.sol:VaultNdolFacet",
            "label": "guaranteedUsd",
            "offset": 0,
            "slot": "14",
            "type": "t_mapping(t_address,t_uint256)"
          },
          {
            "astId": 6536,
            "contract": "contracts/facets/Vault/VaultNdolFacet.sol:VaultNdolFacet",
            "label": "cumulativeFundingRates",
            "offset": 0,
            "slot": "15",
            "type": "t_mapping(t_address,t_uint256)"
          },
          {
            "astId": 6540,
            "contract": "contracts/facets/Vault/VaultNdolFacet.sol:VaultNdolFacet",
            "label": "lastFundingTimes",
            "offset": 0,
            "slot": "16",
            "type": "t_mapping(t_address,t_uint256)"
          },
          {
            "astId": 6544,
            "contract": "contracts/facets/Vault/VaultNdolFacet.sol:VaultNdolFacet",
            "label": "feeReserves",
            "offset": 0,
            "slot": "17",
            "type": "t_mapping(t_address,t_uint256)"
          },
          {
            "astId": 6548,
            "contract": "contracts/facets/Vault/VaultNdolFacet.sol:VaultNdolFacet",
            "label": "tokenWeights",
            "offset": 0,
            "slot": "18",
            "type": "t_mapping(t_address,t_uint256)"
          },
          {
            "astId": 6550,
            "contract": "contracts/facets/Vault/VaultNdolFacet.sol:VaultNdolFacet",
            "label": "totalTokenWeight",
            "offset": 0,
            "slot": "19",
            "type": "t_uint256"
          },
          {
            "astId": 6554,
            "contract": "contracts/facets/Vault/VaultNdolFacet.sol:VaultNdolFacet",
            "label": "plugins",
            "offset": 0,
            "slot": "20",
            "type": "t_mapping(t_address,t_bool)"
          },
          {
            "astId": 6558,
            "contract": "contracts/facets/Vault/VaultNdolFacet.sol:VaultNdolFacet",
            "label": "priceFeeds",
            "offset": 0,
            "slot": "21",
            "type": "t_mapping(t_address,t_address)"
          },
          {
            "astId": 6562,
            "contract": "contracts/facets/Vault/VaultNdolFacet.sol:VaultNdolFacet",
            "label": "priceDecimals",
            "offset": 0,
            "slot": "22",
            "type": "t_mapping(t_address,t_uint256)"
          },
          {
            "astId": 6566,
            "contract": "contracts/facets/Vault/VaultNdolFacet.sol:VaultNdolFacet",
            "label": "priceSpreadBasisPoints",
            "offset": 0,
            "slot": "23",
            "type": "t_mapping(t_address,t_uint256)"
          },
          {
            "astId": 6570,
            "contract": "contracts/facets/Vault/VaultNdolFacet.sol:VaultNdolFacet",
            "label": "baseTokenPairs",
            "offset": 0,
            "slot": "24",
            "type": "t_mapping(t_address,t_address)"
          },
          {
            "astId": 6574,
            "contract": "contracts/facets/Vault/VaultNdolFacet.sol:VaultNdolFacet",
            "label": "tokenPairs",
            "offset": 0,
            "slot": "25",
            "type": "t_mapping(t_address,t_address)"
          },
          {
            "astId": 6576,
            "contract": "contracts/facets/Vault/VaultNdolFacet.sol:VaultNdolFacet",
            "label": "answer",
            "offset": 0,
            "slot": "26",
            "type": "t_int256"
          },
          {
            "astId": 6578,
            "contract": "contracts/facets/Vault/VaultNdolFacet.sol:VaultNdolFacet",
            "label": "roundId",
            "offset": 0,
            "slot": "27",
            "type": "t_uint80"
          },
          {
            "astId": 6582,
            "contract": "contracts/facets/Vault/VaultNdolFacet.sol:VaultNdolFacet",
            "label": "answers",
            "offset": 0,
            "slot": "28",
            "type": "t_mapping(t_uint80,t_int256)"
          },
          {
            "astId": 6584,
            "contract": "contracts/facets/Vault/VaultNdolFacet.sol:VaultNdolFacet",
            "label": "totalNDOLMinted",
            "offset": 0,
            "slot": "29",
            "type": "t_uint256"
          },
          {
            "astId": 6590,
            "contract": "contracts/facets/Vault/VaultNdolFacet.sol:VaultNdolFacet",
            "label": "ndolMinted",
            "offset": 0,
            "slot": "30",
            "type": "t_mapping(t_address,t_mapping(t_address,t_int256))"
          }
        ],
        "numberOfBytes": "992"
      },
      "t_uint256": {
        "encoding": "inplace",
        "label": "uint256",
        "numberOfBytes": "32"
      },
      "t_uint80": {
        "encoding": "inplace",
        "label": "uint80",
        "numberOfBytes": "10"
      }
    }
  }
}