{
  "address": "0x62F8266Fa9CC172057E1a210AEeFb7530c5a3961",
  "abi": [
    {
      "anonymous": false,
      "inputs": [
        {
          "indexed": false,
          "internalType": "address",
          "name": "_token",
          "type": "address"
        }
      ],
      "name": "ClearTokenConfig",
      "type": "event"
    },
    {
      "anonymous": false,
      "inputs": [
        {
          "indexed": false,
          "internalType": "address",
          "name": "token",
          "type": "address"
        },
        {
          "indexed": false,
          "internalType": "uint256",
          "name": "amount",
          "type": "uint256"
        }
      ],
      "name": "DirectPoolDeposit",
      "type": "event"
    },
    {
      "anonymous": false,
      "inputs": [
        {
          "indexed": false,
          "internalType": "address",
          "name": "_token",
          "type": "address"
        },
        {
          "indexed": false,
          "internalType": "uint256",
          "name": "_priceSpreadBasisPoints",
          "type": "uint256"
        }
      ],
      "name": "SetPriceSpreadBasisPoints",
      "type": "event"
    },
    {
      "anonymous": false,
      "inputs": [
        {
          "indexed": false,
          "internalType": "address",
          "name": "_token",
          "type": "address"
        },
        {
          "indexed": false,
          "internalType": "uint256",
          "name": "_basisPoints",
          "type": "uint256"
        }
      ],
      "name": "SetRedemptionBasisPoints",
      "type": "event"
    },
    {
      "anonymous": false,
      "inputs": [
        {
          "indexed": false,
          "internalType": "address",
          "name": "_token",
          "type": "address"
        },
        {
          "indexed": false,
          "internalType": "uint256",
          "name": "_tokenDecimals",
          "type": "uint256"
        },
        {
          "indexed": false,
          "internalType": "uint256",
          "name": "_minProfitBasisPoints",
          "type": "uint256"
        },
        {
          "indexed": false,
          "internalType": "address",
          "name": "_priceFeed",
          "type": "address"
        },
        {
          "indexed": false,
          "internalType": "uint256",
          "name": "_priceDecimals",
          "type": "uint256"
        },
        {
          "indexed": false,
          "internalType": "uint256",
          "name": "_priceSpreadBasisPoints",
          "type": "uint256"
        },
        {
          "indexed": false,
          "internalType": "uint256",
          "name": "_tokenWeight",
          "type": "uint256"
        },
        {
          "indexed": false,
          "internalType": "address",
          "name": "_baseTokenPair",
          "type": "address"
        },
        {
          "indexed": false,
          "internalType": "address",
          "name": "_tokenPair",
          "type": "address"
        }
      ],
      "name": "SetTokenConfig",
      "type": "event"
    },
    {
      "anonymous": false,
      "inputs": [
        {
          "indexed": false,
          "internalType": "address",
          "name": "_token",
          "type": "address"
        },
        {
          "indexed": false,
          "internalType": "address",
          "name": "_priceFeed",
          "type": "address"
        },
        {
          "indexed": false,
          "internalType": "uint256",
          "name": "_priceFeedDecimals",
          "type": "uint256"
        }
      ],
      "name": "SetTokenPriceFeed",
      "type": "event"
    },
    {
      "anonymous": false,
      "inputs": [
        {
          "indexed": false,
          "internalType": "address",
          "name": "_token",
          "type": "address"
        },
        {
          "indexed": false,
          "internalType": "uint256",
          "name": "_tokenWeight",
          "type": "uint256"
        }
      ],
      "name": "SetTokenWeight",
      "type": "event"
    },
    {
      "anonymous": false,
      "inputs": [
        {
          "indexed": false,
          "internalType": "uint256",
          "name": "_totalTokenWeight",
          "type": "uint256"
        }
      ],
      "name": "SetTotalTokenWeight",
      "type": "event"
    },
    {
      "anonymous": false,
      "inputs": [
        {
          "indexed": false,
          "internalType": "address",
          "name": "_token",
          "type": "address"
        },
        {
          "indexed": false,
          "internalType": "address",
          "name": "_receiver",
          "type": "address"
        },
        {
          "indexed": false,
          "internalType": "uint256",
          "name": "_amount",
          "type": "uint256"
        }
      ],
      "name": "WithdrawFees",
      "type": "event"
    },
    {
      "inputs": [
        {
          "internalType": "address",
          "name": "_token",
          "type": "address"
        }
      ],
      "name": "clearTokenConfig",
      "outputs": [],
      "stateMutability": "nonpayable",
      "type": "function"
    },
    {
      "inputs": [
        {
          "internalType": "address",
          "name": "_token",
          "type": "address"
        }
      ],
      "name": "directPoolDeposit",
      "outputs": [],
      "stateMutability": "nonpayable",
      "type": "function"
    },
    {
      "inputs": [
        {
          "internalType": "address",
          "name": "_token",
          "type": "address"
        },
        {
          "internalType": "address",
          "name": "_receiver",
          "type": "address"
        },
        {
          "internalType": "uint256",
          "name": "_amount",
          "type": "uint256"
        }
      ],
      "name": "directTransferOut",
      "outputs": [
        {
          "internalType": "uint256",
          "name": "",
          "type": "uint256"
        }
      ],
      "stateMutability": "nonpayable",
      "type": "function"
    },
    {
      "inputs": [],
      "name": "gov",
      "outputs": [
        {
          "internalType": "address",
          "name": "",
          "type": "address"
        }
      ],
      "stateMutability": "view",
      "type": "function"
    },
    {
      "inputs": [
        {
          "internalType": "address",
          "name": "_weth",
          "type": "address"
        },
        {
          "internalType": "address",
          "name": "_ndol",
          "type": "address"
        }
      ],
      "name": "initialize",
      "outputs": [],
      "stateMutability": "nonpayable",
      "type": "function"
    },
    {
      "inputs": [],
      "name": "isInitialized",
      "outputs": [
        {
          "internalType": "bool",
          "name": "",
          "type": "bool"
        }
      ],
      "stateMutability": "view",
      "type": "function"
    },
    {
      "inputs": [
        {
          "internalType": "address",
          "name": "_token",
          "type": "address"
        }
      ],
      "name": "minProfitBasisPoints",
      "outputs": [
        {
          "internalType": "uint256",
          "name": "",
          "type": "uint256"
        }
      ],
      "stateMutability": "view",
      "type": "function"
    },
    {
      "inputs": [
        {
          "internalType": "address",
          "name": "_token",
          "type": "address"
        }
      ],
      "name": "priceDecimals",
      "outputs": [
        {
          "internalType": "uint256",
          "name": "",
          "type": "uint256"
        }
      ],
      "stateMutability": "view",
      "type": "function"
    },
    {
      "inputs": [
        {
          "internalType": "address",
          "name": "_token",
          "type": "address"
        }
      ],
      "name": "priceFeed",
      "outputs": [
        {
          "internalType": "address",
          "name": "",
          "type": "address"
        }
      ],
      "stateMutability": "view",
      "type": "function"
    },
    {
      "inputs": [
        {
          "internalType": "address",
          "name": "_token",
          "type": "address"
        }
      ],
      "name": "redemptionBasisPoints",
      "outputs": [
        {
          "internalType": "uint256",
          "name": "",
          "type": "uint256"
        }
      ],
      "stateMutability": "view",
      "type": "function"
    },
    {
      "inputs": [
        {
          "internalType": "address",
          "name": "_newGov",
          "type": "address"
        }
      ],
      "name": "setGov",
      "outputs": [],
      "stateMutability": "nonpayable",
      "type": "function"
    },
    {
      "inputs": [
        {
          "internalType": "address",
          "name": "_token",
          "type": "address"
        },
        {
          "internalType": "uint256",
          "name": "_priceSpreadBasisPoints",
          "type": "uint256"
        }
      ],
      "name": "setPriceSpreadBasisPoints",
      "outputs": [],
      "stateMutability": "nonpayable",
      "type": "function"
    },
    {
      "inputs": [
        {
          "internalType": "address",
          "name": "_token",
          "type": "address"
        },
        {
          "internalType": "uint256",
          "name": "_redemptionBasisPoints",
          "type": "uint256"
        }
      ],
      "name": "setRedemptionBasisPoints",
      "outputs": [],
      "stateMutability": "nonpayable",
      "type": "function"
    },
    {
      "inputs": [
        {
          "internalType": "address",
          "name": "_token",
          "type": "address"
        },
        {
          "internalType": "uint256",
          "name": "_tokenDecimals",
          "type": "uint256"
        },
        {
          "internalType": "uint256",
          "name": "_minProfitBasisPoints",
          "type": "uint256"
        },
        {
          "internalType": "address",
          "name": "_priceFeed",
          "type": "address"
        },
        {
          "internalType": "uint256",
          "name": "_priceDecimals",
          "type": "uint256"
        },
        {
          "internalType": "uint256",
          "name": "_priceSpreadBasisPoints",
          "type": "uint256"
        },
        {
          "internalType": "uint256",
          "name": "_tokenWeight",
          "type": "uint256"
        },
        {
          "internalType": "address",
          "name": "_baseTokenPair",
          "type": "address"
        },
        {
          "internalType": "address",
          "name": "_tokenPair",
          "type": "address"
        }
      ],
      "name": "setTokenConfig",
      "outputs": [],
      "stateMutability": "nonpayable",
      "type": "function"
    },
    {
      "inputs": [
        {
          "internalType": "address",
          "name": "_token",
          "type": "address"
        },
        {
          "internalType": "address",
          "name": "_priceFeed",
          "type": "address"
        },
        {
          "internalType": "uint256",
          "name": "_priceDecimals",
          "type": "uint256"
        }
      ],
      "name": "setTokenPriceFeedConfig",
      "outputs": [],
      "stateMutability": "nonpayable",
      "type": "function"
    },
    {
      "inputs": [
        {
          "internalType": "address",
          "name": "_token",
          "type": "address"
        },
        {
          "internalType": "uint256",
          "name": "_tokenWeight",
          "type": "uint256"
        }
      ],
      "name": "setTokenWeight",
      "outputs": [],
      "stateMutability": "nonpayable",
      "type": "function"
    },
    {
      "inputs": [
        {
          "internalType": "address",
          "name": "_token",
          "type": "address"
        }
      ],
      "name": "tokenDecimals",
      "outputs": [
        {
          "internalType": "uint256",
          "name": "",
          "type": "uint256"
        }
      ],
      "stateMutability": "view",
      "type": "function"
    },
    {
      "inputs": [
        {
          "internalType": "address",
          "name": "_token",
          "type": "address"
        }
      ],
      "name": "tokenWeights",
      "outputs": [
        {
          "internalType": "uint256",
          "name": "",
          "type": "uint256"
        }
      ],
      "stateMutability": "view",
      "type": "function"
    },
    {
      "inputs": [],
      "name": "totalTokenWeight",
      "outputs": [
        {
          "internalType": "uint256",
          "name": "",
          "type": "uint256"
        }
      ],
      "stateMutability": "view",
      "type": "function"
    },
    {
      "inputs": [
        {
          "internalType": "address",
          "name": "_token",
          "type": "address"
        }
      ],
      "name": "updateTokenBalance",
      "outputs": [],
      "stateMutability": "nonpayable",
      "type": "function"
    },
    {
      "inputs": [],
      "name": "whitelistedTokenCount",
      "outputs": [
        {
          "internalType": "uint256",
          "name": "",
          "type": "uint256"
        }
      ],
      "stateMutability": "view",
      "type": "function"
    },
    {
      "inputs": [
        {
          "internalType": "address",
          "name": "_token",
          "type": "address"
        }
      ],
      "name": "whitelistedTokens",
      "outputs": [
        {
          "internalType": "bool",
          "name": "",
          "type": "bool"
        }
      ],
      "stateMutability": "view",
      "type": "function"
    },
    {
      "inputs": [
        {
          "internalType": "address",
          "name": "_token",
          "type": "address"
        },
        {
          "internalType": "address",
          "name": "_receiver",
          "type": "address"
        }
      ],
      "name": "withdrawFees",
      "outputs": [
        {
          "internalType": "uint256",
          "name": "",
          "type": "uint256"
        }
      ],
      "stateMutability": "nonpayable",
      "type": "function"
    }
  ],
  "transactionHash": "0x1c5f1cd75e3d776f05f3e95319b8fe52792a155bf481ef8380d93dbd3cfd37d5",
  "args": [],
  "solcInputHash": "c99949931f22ac644a71abeceff62fe7",
  "bytecode": "0x608060405234801561001057600080fd5b506000805460ff19169055611c028061002a6000396000f3fe608060405234801561001057600080fd5b506004361061018d5760003560e01c806387b337e8116100e3578063cfad57a21161008c578063f255527811610066578063f2555278146103de578063f6dbe014146103f1578063fc3ae27e1461040457600080fd5b8063cfad57a2146103a5578063daf9c210146103b8578063e67f59a7146103cb57600080fd5b8063ab2f3ad4116100bd578063ab2f3ad414610340578063ae937fdf14610369578063cefe0f211461037c57600080fd5b806387b337e8146102db57806388b1fbdf146102ee5780638ee573ac1461031757600080fd5b8063485cc9551161014557806362287a321161011f57806362287a321461029757806371aa61e91461029f5780637933dd0a146102b257600080fd5b8063485cc9551461025e5780634ca439d3146102715780635f7bc1191461028457600080fd5b8063331fe19d11610176578063331fe19d14610207578063392e53cd1461021c5780633ebd04bb1461024c57600080fd5b806312d43a51146101925780631fd48b9a146101db575b600080fd5b7fc8fcad8db84d3cc18b4c41d551ea0ee66dd599cde068d998e57d5e09332c1320546001600160a01b03165b6040516001600160a01b0390911681526020015b60405180910390f35b6101be6101e936600461194e565b6001600160a01b039081166000908152601560205260409020541690565b61021a610215366004611969565b610417565b005b6002547501000000000000000000000000000000000000000000900460ff165b60405190151581526020016101d2565b6013545b6040519081526020016101d2565b61021a61026c366004611993565b610478565b61021a61027f366004611969565b610611565b61021a61029236600461194e565b6106bb565b610250610771565b61021a6102ad3660046119c6565b610782565b6102506102c036600461194e565b6001600160a01b031660009081526008602052604090205490565b61021a6102e936600461194e565b61099c565b6102506102fc36600461194e565b6001600160a01b031660009081526009602052604090205490565b61025061032536600461194e565b6001600160a01b031660009081526007602052604090205490565b61025061034e36600461194e565b6001600160a01b031660009081526012602052604090205490565b61021a610377366004611969565b6109bd565b61025061038a36600461194e565b6001600160a01b031660009081526016602052604090205490565b61021a6103b336600461194e565b610ab6565b61023c6103c636600461194e565b610abf565b61021a6103d936600461194e565b610ad2565b6102506103ec366004611993565b610c3d565b61021a6103ff366004611a4b565b610ce8565b610250610412366004611a4b565b610e78565b61041f610f21565b6001600160a01b038216600081815260086020908152604091829020849055815192835282018390527fb6aea5883739d50d55e232a8c883371c3717548b3626e3664e3dd5487b35dd3891015b60405180910390a15050565b610480610f21565b6002547501000000000000000000000000000000000000000000900460ff16156104f15760405162461bcd60e51b815260206004820152601a60248201527f5661756c743a20616c726561647920696e697469616c697a656400000000000060448201526064015b60405180910390fd5b6001600160a01b0382166105475760405162461bcd60e51b815260206004820152601b60248201527f5661756c743a20696e76616c696420574554482061646472657373000000000060448201526064016104e8565b6001600160a01b03811661059d5760405162461bcd60e51b815260206004820152601c60248201527f5661756c743a20696e76616c6964205f6e646f6c20616464726573730000000060448201526064016104e8565b60028054600180546001600160a01b0395861673ffffffffffffffffffffffffffffffffffffffff19909116179055919092167fffffffffffffffffffff00000000000000000000000000000000000000000000909116177501010000000000000000000000000000000000000000179055565b61271081106106625760405162461bcd60e51b815260206004820152601d60248201527f5661756c743a2070726963652073707265616420746f6f206c6172676500000060448201526064016104e8565b61066a610f21565b6001600160a01b038216600081815260176020908152604091829020849055815192835282018390527f326439cb2172b4d536badcf1616ca74141acb75a7a9746b6c4f8b96b4c4c3dc1910161046c565b6106c6600082610f2b565b60006106d3600083610f99565b9050600081116107255760405162461bcd60e51b815260206004820152601b60248201527f5661756c743a20696e76616c6964205f746f6b656e416d6f756e74000000000060448201526064016104e8565b6107316000838361104a565b50604080516001600160a01b0384168152602081018390527fa5a389190ebf6170a133bda5c769b77f4d6715b8aa172ec0ddf8473d0b4944bd910161046c565b600061077d60036110f7565b905090565b61078a610f21565b61079560038a611101565b506001600160a01b03808a166000908152600560209081526040808320805460ff19166001179055600782528083208c9055600982528083208b9055601582528083208054948b1673ffffffffffffffffffffffffffffffffffffffff19909516949094179093556016815282822088905560178152828220879055601290522054610830576013546108289084611116565b601355610868565b6001600160a01b03891660009081526012602052604090205460135461085591611122565b60138190556108649084611116565b6013555b6001600160a01b03808a1660009081526012602090815260408083208790556008909152902061271090558216156108ef576001600160a01b038981166000908152601860209081526040808320805473ffffffffffffffffffffffffffffffffffffffff1990811688871617909155601990925290912080549091169183169190911790555b600254610918908a9074010000000000000000000000000000000000000000900460ff1661112e565b50604080516001600160a01b038b81168252602082018b90528183018a905288811660608301526080820188905260a0820187905260c0820186905284811660e0830152831661010082015290517f92b546b0c6e0fc06020aa248b1e5561da4f21768040a775e45a8b83afad4ebb0918190036101200190a1505050505050505050565b6109a4610f21565b6109af600082610f2b565b6109ba6000826111c1565b50565b6109c5610f21565b6001600160a01b0382166000908152601260205260409020546109f7576013546109ef9082611116565b601355610a2f565b6001600160a01b038216600090815260126020526040902054601354610a1c91611122565b6013819055610a2b9082611116565b6013555b6001600160a01b038216600081815260126020908152604091829020849055815192835282018390527ff1aeb413328ec56c3f4b8e22b41dda5b43815bc0713c00f9e574485cc7eaaaff910160405180910390a16013546040519081527fc7e6c003bf6e1bdf957b858d7e26071fa6295b0ad0cdad824d566092e8e3c21e9060200161046c565b6109ba8161124d565b6000610acc6003836112a3565b92915050565b610ada610f21565b610ae5600082610f2b565b610af06003826112c5565b506001600160a01b0381166000908152600560209081526040808320805460ff1916905560078252808320839055600882528083208390556009825280832083905560158252808320805473ffffffffffffffffffffffffffffffffffffffff191690556016825280832083905560178252808320839055601290915290205415610bb7576001600160a01b038116600090815260126020526040902054601354610b9a91611122565b6013556001600160a01b0381166000908152601260205260408120555b6001600160a01b038116600081815260086020908152604080832083905560188252808320805473ffffffffffffffffffffffffffffffffffffffff199081169091556019835292819020805490931690925590519182527f495c0be5e3d6684da4b5918801f3af90b89d76c64348d0177ec923537e87030d910160405180910390a150565b6000610c47610f21565b6001600160a01b03831660009081526011602052604090205480610c6f576000915050610acc565b6001600160a01b0384166000908152601160205260408120819055610c96908583866112da565b604080516001600160a01b038087168252851660208201529081018290527f4f1b51dd7a2fcb861aa2670f668be66835c4ee12b4bbbf037e4d0018f39819e49060600160405180910390a19392505050565b610cf0610f21565b610cfb600084610f2b565b6001600160a01b038216610d775760405162461bcd60e51b815260206004820152602560248201527f5661756c743a20696e76616c6964206e6577207072696365206665656420616460448201527f647265737300000000000000000000000000000000000000000000000000000060648201526084016104e8565b60008111610ded5760405162461bcd60e51b815260206004820152602660248201527f5661756c743a20696e76616c6964206e6577207072696365206665656420646560448201527f63696d616c73000000000000000000000000000000000000000000000000000060648201526084016104e8565b6001600160a01b038381166000818152601560209081526040808320805473ffffffffffffffffffffffffffffffffffffffff19169588169586179055601682529182902085905581519283528201929092529081018290527f78d81161df36633045661832b30e4a668e52ef5c00436b2a34b4dc1c5744a8939060600160405180910390a1505050565b6000610e82610f21565b60008211610ef85760405162461bcd60e51b815260206004820152602560248201527f5661756c743a20696e76616c696420616d6f756e7420746f207472616e73666560448201527f72206f757400000000000000000000000000000000000000000000000000000060648201526084016104e8565b610f03600085610f2b565b610f176001600160a01b038516848461137d565b50805b9392505050565b610f29611402565b565b6001600160a01b038116600090815260058301602052604090205460ff16610f955760405162461bcd60e51b815260206004820152601c60248201527f5661756c743a20746f6b656e206e6f742077686974656c69737465640000000060448201526064016104e8565b5050565b6001600160a01b0381166000818152600a840160205260408082205490516370a0823160e01b8152306004820152919290918391906370a0823190602401602060405180830381865afa158015610ff4573d6000803e3d6000fd5b505050506040513d601f19601f820116820180604052508101906110189190611a87565b6001600160a01b0385166000908152600a87016020526040902081905590506110418183611122565b95945050505050565b6001600160a01b0382166000908152600c8401602052604081205461106f9083611116565b6001600160a01b0384166000908152600c8601602052604090205561109484846114a4565b604080516001600160a01b0385168152602081018490527f976177fbe09a15e5e43f848844963a42b41ef919ef17ff21a17a5421de8f4737910160405180910390a150506001600160a01b03166000908152600c91909101602052604090205490565b6000610acc825490565b6000610f1a836001600160a01b03841661157c565b6000610f1a8284611ab6565b6000610f1a8284611ace565b6040517f5ae691630000000000000000000000000000000000000000000000000000000081526001600160a01b03831660048201526001602482015281151560448201526000903090635ae6916390606401602060405180830381865afa15801561119d573d6000803e3d6000fd5b505050506040513d601f19601f82011682018060405250810190610f1a9190611a87565b6040516370a0823160e01b81523060048201526000906001600160a01b038316906370a0823190602401602060405180830381865afa158015611208573d6000803e3d6000fd5b505050506040513d601f19601f8201168201806040525081019061122c9190611a87565b6001600160a01b039092166000908152600a90930160205250604090912055565b611255610f21565b7fc8fcad8db84d3cc18b4c41d551ea0ee66dd599cde068d998e57d5e09332c1320805473ffffffffffffffffffffffffffffffffffffffff19166001600160a01b0392909216919091179055565b6001600160a01b03811660009081526001830160205260408120541515610f1a565b6000610f1a836001600160a01b0384166115cb565b6040516370a0823160e01b815230600482015261134e9083906001600160a01b038616906370a0823190602401602060405180830381865afa158015611324573d6000803e3d6000fd5b505050506040513d601f19601f820116820180604052508101906113489190611a87565b90611122565b6001600160a01b0384166000818152600a8701602052604090209190915561137790828461137d565b50505050565b604080516001600160a01b038416602482015260448082018490528251808303909101815260649091019091526020810180517bffffffffffffffffffffffffffffffffffffffffffffffffffffffff167fa9059cbb000000000000000000000000000000000000000000000000000000001790526113fd9084906116be565b505050565b7fc8fcad8db84d3cc18b4c41d551ea0ee66dd599cde068d998e57d5e09332c131c600401546001600160a01b03163314610f295760405162461bcd60e51b815260206004820152602260248201527f4c69624469616d6f6e643a20696e76616c696420636f6e7472616374206f776e60448201527f657200000000000000000000000000000000000000000000000000000000000060648201526084016104e8565b6040516370a0823160e01b81523060048201526000906001600160a01b038316906370a0823190602401602060405180830381865afa1580156114eb573d6000803e3d6000fd5b505050506040513d601f19601f8201168201806040525081019061150f9190611a87565b6001600160a01b0383166000908152600c850160205260409020549091508110156113fd5760405162461bcd60e51b815260206004820152601760248201527f5661756c743a20696e76616c696420696e63726561736500000000000000000060448201526064016104e8565b60008181526001830160205260408120546115c357508154600181810184556000848152602080822090930184905584548482528286019093526040902091909155610acc565b506000610acc565b600081815260018301602052604081205480156116b45760006115ef600183611ace565b855490915060009061160390600190611ace565b905081811461166857600086600001828154811061162357611623611ae5565b906000526020600020015490508087600001848154811061164657611646611ae5565b6000918252602080832090910192909255918252600188019052604090208390555b855486908061167957611679611afb565b600190038181906000526020600020016000905590558560010160008681526020019081526020016000206000905560019350505050610acc565b6000915050610acc565b6000611713826040518060400160405280602081526020017f5361666545524332303a206c6f772d6c6576656c2063616c6c206661696c6564815250856001600160a01b03166117a39092919063ffffffff16565b8051909150156113fd57808060200190518101906117319190611b11565b6113fd5760405162461bcd60e51b815260206004820152602a60248201527f5361666545524332303a204552433230206f7065726174696f6e20646964206e60448201527f6f7420737563636565640000000000000000000000000000000000000000000060648201526084016104e8565b60606117b284846000856117ba565b949350505050565b6060824710156118325760405162461bcd60e51b815260206004820152602660248201527f416464726573733a20696e73756666696369656e742062616c616e636520666f60448201527f722063616c6c000000000000000000000000000000000000000000000000000060648201526084016104e8565b843b6118805760405162461bcd60e51b815260206004820152601d60248201527f416464726573733a2063616c6c20746f206e6f6e2d636f6e747261637400000060448201526064016104e8565b600080866001600160a01b0316858760405161189c9190611b5f565b60006040518083038185875af1925050503d80600081146118d9576040519150601f19603f3d011682016040523d82523d6000602084013e6118de565b606091505b50915091506118ee8282866118f9565b979650505050505050565b60608315611908575081610f1a565b8251156119185782518084602001fd5b8160405162461bcd60e51b81526004016104e89190611b7b565b80356001600160a01b038116811461194957600080fd5b919050565b60006020828403121561196057600080fd5b610f1a82611932565b6000806040838503121561197c57600080fd5b61198583611932565b946020939093013593505050565b600080604083850312156119a657600080fd5b6119af83611932565b91506119bd60208401611932565b90509250929050565b60008060008060008060008060006101208a8c0312156119e557600080fd5b6119ee8a611932565b985060208a0135975060408a01359650611a0a60608b01611932565b955060808a0135945060a08a0135935060c08a01359250611a2d60e08b01611932565b9150611a3c6101008b01611932565b90509295985092959850929598565b600080600060608486031215611a6057600080fd5b611a6984611932565b9250611a7760208501611932565b9150604084013590509250925092565b600060208284031215611a9957600080fd5b5051919050565b634e487b7160e01b600052601160045260246000fd5b60008219821115611ac957611ac9611aa0565b500190565b600082821015611ae057611ae0611aa0565b500390565b634e487b7160e01b600052603260045260246000fd5b634e487b7160e01b600052603160045260246000fd5b600060208284031215611b2357600080fd5b81518015158114610f1a57600080fd5b60005b83811015611b4e578181015183820152602001611b36565b838111156113775750506000910152565b60008251611b71818460208701611b33565b9190910192915050565b6020815260008251806020840152611b9a816040850160208701611b33565b601f017fffffffffffffffffffffffffffffffffffffffffffffffffffffffffffffffe016919091016040019291505056fea2646970667358221220cd90ec239da25ebdb2c6fbb6904c2305b1dd40beb5ee61985c5514ae273069a864736f6c634300080a0033",
  "storageLayout": {
    "storage": [
      {
        "astId": 1516,
        "contract": "contracts/facets/Vault/VaultConfigFacet.sol:VaultConfigFacet",
        "label": "s",
        "offset": 0,
        "slot": "0",
        "type": "t_struct(Storage)4722_storage"
      }
    ],
    "types": {
      "t_address": {
        "encoding": "inplace",
        "label": "address",
        "numberOfBytes": "20"
      },
      "t_array(t_bytes32)dyn_storage": {
        "base": "t_bytes32",
        "encoding": "dynamic_array",
        "label": "bytes32[]",
        "numberOfBytes": "32"
      },
      "t_bool": {
        "encoding": "inplace",
        "label": "bool",
        "numberOfBytes": "1"
      },
      "t_bytes32": {
        "encoding": "inplace",
        "label": "bytes32",
        "numberOfBytes": "32"
      },
      "t_int256": {
        "encoding": "inplace",
        "label": "int256",
        "numberOfBytes": "32"
      },
      "t_mapping(t_address,t_address)": {
        "encoding": "mapping",
        "key": "t_address",
        "label": "mapping(address => address)",
        "numberOfBytes": "32",
        "value": "t_address"
      },
      "t_mapping(t_address,t_bool)": {
        "encoding": "mapping",
        "key": "t_address",
        "label": "mapping(address => bool)",
        "numberOfBytes": "32",
        "value": "t_bool"
      },
      "t_mapping(t_address,t_int256)": {
        "encoding": "mapping",
        "key": "t_address",
        "label": "mapping(address => int256)",
        "numberOfBytes": "32",
        "value": "t_int256"
      },
      "t_mapping(t_address,t_mapping(t_address,t_int256))": {
        "encoding": "mapping",
        "key": "t_address",
        "label": "mapping(address => mapping(address => int256))",
        "numberOfBytes": "32",
        "value": "t_mapping(t_address,t_int256)"
      },
      "t_mapping(t_address,t_uint256)": {
        "encoding": "mapping",
        "key": "t_address",
        "label": "mapping(address => uint256)",
        "numberOfBytes": "32",
        "value": "t_uint256"
      },
      "t_mapping(t_bytes32,t_struct(Position)4607_storage)": {
        "encoding": "mapping",
        "key": "t_bytes32",
        "label": "mapping(bytes32 => struct LibExchangeStorage.Position)",
        "numberOfBytes": "32",
        "value": "t_struct(Position)4607_storage"
      },
      "t_mapping(t_bytes32,t_uint256)": {
        "encoding": "mapping",
        "key": "t_bytes32",
        "label": "mapping(bytes32 => uint256)",
        "numberOfBytes": "32",
        "value": "t_uint256"
      },
      "t_mapping(t_uint80,t_int256)": {
        "encoding": "mapping",
        "key": "t_uint80",
        "label": "mapping(uint80 => int256)",
        "numberOfBytes": "32",
        "value": "t_int256"
      },
      "t_struct(AddressSet)1222_storage": {
        "encoding": "inplace",
        "label": "struct EnumerableSet.AddressSet",
        "members": [
          {
            "astId": 1221,
            "contract": "contracts/facets/Vault/VaultConfigFacet.sol:VaultConfigFacet",
            "label": "_inner",
            "offset": 0,
            "slot": "0",
            "type": "t_struct(Set)921_storage"
          }
        ],
        "numberOfBytes": "64"
      },
      "t_struct(Position)4607_storage": {
        "encoding": "inplace",
        "label": "struct LibExchangeStorage.Position",
        "members": [
          {
            "astId": 4594,
            "contract": "contracts/facets/Vault/VaultConfigFacet.sol:VaultConfigFacet",
            "label": "size",
            "offset": 0,
            "slot": "0",
            "type": "t_uint256"
          },
          {
            "astId": 4596,
            "contract": "contracts/facets/Vault/VaultConfigFacet.sol:VaultConfigFacet",
            "label": "collateral",
            "offset": 0,
            "slot": "1",
            "type": "t_uint256"
          },
          {
            "astId": 4598,
            "contract": "contracts/facets/Vault/VaultConfigFacet.sol:VaultConfigFacet",
            "label": "averagePrice",
            "offset": 0,
            "slot": "2",
            "type": "t_uint256"
          },
          {
            "astId": 4600,
            "contract": "contracts/facets/Vault/VaultConfigFacet.sol:VaultConfigFacet",
            "label": "entryFundingRate",
            "offset": 0,
            "slot": "3",
            "type": "t_uint256"
          },
          {
            "astId": 4602,
            "contract": "contracts/facets/Vault/VaultConfigFacet.sol:VaultConfigFacet",
            "label": "reserveAmount",
            "offset": 0,
            "slot": "4",
            "type": "t_uint256"
          },
          {
            "astId": 4604,
            "contract": "contracts/facets/Vault/VaultConfigFacet.sol:VaultConfigFacet",
            "label": "realisedPnl",
            "offset": 0,
            "slot": "5",
            "type": "t_int256"
          },
          {
            "astId": 4606,
            "contract": "contracts/facets/Vault/VaultConfigFacet.sol:VaultConfigFacet",
            "label": "lastIncreasedTime",
            "offset": 0,
            "slot": "6",
            "type": "t_uint256"
          }
        ],
        "numberOfBytes": "224"
      },
      "t_struct(Set)921_storage": {
        "encoding": "inplace",
        "label": "struct EnumerableSet.Set",
        "members": [
          {
            "astId": 916,
            "contract": "contracts/facets/Vault/VaultConfigFacet.sol:VaultConfigFacet",
            "label": "_values",
            "offset": 0,
            "slot": "0",
            "type": "t_array(t_bytes32)dyn_storage"
          },
          {
            "astId": 920,
            "contract": "contracts/facets/Vault/VaultConfigFacet.sol:VaultConfigFacet",
            "label": "_indexes",
            "offset": 0,
            "slot": "1",
            "type": "t_mapping(t_bytes32,t_uint256)"
          }
        ],
        "numberOfBytes": "64"
      },
      "t_struct(Storage)4722_storage": {
        "encoding": "inplace",
        "label": "struct LibExchangeStorage.Storage",
        "members": [
          {
            "astId": 4609,
            "contract": "contracts/facets/Vault/VaultConfigFacet.sol:VaultConfigFacet",
            "label": "contractEntered",
            "offset": 0,
            "slot": "0",
            "type": "t_bool"
          },
          {
            "astId": 4611,
            "contract": "contracts/facets/Vault/VaultConfigFacet.sol:VaultConfigFacet",
            "label": "btc",
            "offset": 1,
            "slot": "0",
            "type": "t_address"
          },
          {
            "astId": 4613,
            "contract": "contracts/facets/Vault/VaultConfigFacet.sol:VaultConfigFacet",
            "label": "weth",
            "offset": 0,
            "slot": "1",
            "type": "t_address"
          },
          {
            "astId": 4615,
            "contract": "contracts/facets/Vault/VaultConfigFacet.sol:VaultConfigFacet",
            "label": "ndol",
            "offset": 0,
            "slot": "2",
            "type": "t_address"
          },
          {
            "astId": 4617,
            "contract": "contracts/facets/Vault/VaultConfigFacet.sol:VaultConfigFacet",
            "label": "includeAmmPrice",
            "offset": 20,
            "slot": "2",
            "type": "t_bool"
          },
          {
            "astId": 4619,
            "contract": "contracts/facets/Vault/VaultConfigFacet.sol:VaultConfigFacet",
            "label": "isInitialized",
            "offset": 21,
            "slot": "2",
            "type": "t_bool"
          },
          {
            "astId": 4622,
            "contract": "contracts/facets/Vault/VaultConfigFacet.sol:VaultConfigFacet",
            "label": "tokens",
            "offset": 0,
            "slot": "3",
            "type": "t_struct(AddressSet)1222_storage"
          },
          {
            "astId": 4626,
            "contract": "contracts/facets/Vault/VaultConfigFacet.sol:VaultConfigFacet",
            "label": "whitelistedTokens",
            "offset": 0,
            "slot": "5",
            "type": "t_mapping(t_address,t_bool)"
          },
          {
            "astId": 4631,
            "contract": "contracts/facets/Vault/VaultConfigFacet.sol:VaultConfigFacet",
            "label": "positions",
            "offset": 0,
            "slot": "6",
            "type": "t_mapping(t_bytes32,t_struct(Position)4607_storage)"
          },
          {
            "astId": 4635,
            "contract": "contracts/facets/Vault/VaultConfigFacet.sol:VaultConfigFacet",
            "label": "tokenDecimals",
            "offset": 0,
            "slot": "7",
            "type": "t_mapping(t_address,t_uint256)"
          },
          {
            "astId": 4639,
            "contract": "contracts/facets/Vault/VaultConfigFacet.sol:VaultConfigFacet",
            "label": "redemptionBasisPoints",
            "offset": 0,
            "slot": "8",
            "type": "t_mapping(t_address,t_uint256)"
          },
          {
            "astId": 4643,
            "contract": "contracts/facets/Vault/VaultConfigFacet.sol:VaultConfigFacet",
            "label": "minProfitBasisPoints",
            "offset": 0,
            "slot": "9",
            "type": "t_mapping(t_address,t_uint256)"
          },
          {
            "astId": 4647,
            "contract": "contracts/facets/Vault/VaultConfigFacet.sol:VaultConfigFacet",
            "label": "tokenBalances",
            "offset": 0,
            "slot": "10",
            "type": "t_mapping(t_address,t_uint256)"
          },
          {
            "astId": 4651,
            "contract": "contracts/facets/Vault/VaultConfigFacet.sol:VaultConfigFacet",
            "label": "ndolAmounts",
            "offset": 0,
            "slot": "11",
            "type": "t_mapping(t_address,t_uint256)"
          },
          {
            "astId": 4655,
            "contract": "contracts/facets/Vault/VaultConfigFacet.sol:VaultConfigFacet",
            "label": "poolAmounts",
            "offset": 0,
            "slot": "12",
            "type": "t_mapping(t_address,t_uint256)"
          },
          {
            "astId": 4659,
            "contract": "contracts/facets/Vault/VaultConfigFacet.sol:VaultConfigFacet",
            "label": "reservedAmounts",
            "offset": 0,
            "slot": "13",
            "type": "t_mapping(t_address,t_uint256)"
          },
          {
            "astId": 4663,
            "contract": "contracts/facets/Vault/VaultConfigFacet.sol:VaultConfigFacet",
            "label": "guaranteedUsd",
            "offset": 0,
            "slot": "14",
            "type": "t_mapping(t_address,t_uint256)"
          },
          {
            "astId": 4667,
            "contract": "contracts/facets/Vault/VaultConfigFacet.sol:VaultConfigFacet",
            "label": "cumulativeFundingRates",
            "offset": 0,
            "slot": "15",
            "type": "t_mapping(t_address,t_uint256)"
          },
          {
            "astId": 4671,
            "contract": "contracts/facets/Vault/VaultConfigFacet.sol:VaultConfigFacet",
            "label": "lastFundingTimes",
            "offset": 0,
            "slot": "16",
            "type": "t_mapping(t_address,t_uint256)"
          },
          {
            "astId": 4675,
            "contract": "contracts/facets/Vault/VaultConfigFacet.sol:VaultConfigFacet",
            "label": "feeReserves",
            "offset": 0,
            "slot": "17",
            "type": "t_mapping(t_address,t_uint256)"
          },
          {
            "astId": 4679,
            "contract": "contracts/facets/Vault/VaultConfigFacet.sol:VaultConfigFacet",
            "label": "tokenWeights",
            "offset": 0,
            "slot": "18",
            "type": "t_mapping(t_address,t_uint256)"
          },
          {
            "astId": 4681,
            "contract": "contracts/facets/Vault/VaultConfigFacet.sol:VaultConfigFacet",
            "label": "totalTokenWeight",
            "offset": 0,
            "slot": "19",
            "type": "t_uint256"
          },
          {
            "astId": 4685,
            "contract": "contracts/facets/Vault/VaultConfigFacet.sol:VaultConfigFacet",
            "label": "plugins",
            "offset": 0,
            "slot": "20",
            "type": "t_mapping(t_address,t_bool)"
          },
          {
            "astId": 4689,
            "contract": "contracts/facets/Vault/VaultConfigFacet.sol:VaultConfigFacet",
            "label": "priceFeeds",
            "offset": 0,
            "slot": "21",
            "type": "t_mapping(t_address,t_address)"
          },
          {
            "astId": 4693,
            "contract": "contracts/facets/Vault/VaultConfigFacet.sol:VaultConfigFacet",
            "label": "priceDecimals",
            "offset": 0,
            "slot": "22",
            "type": "t_mapping(t_address,t_uint256)"
          },
          {
            "astId": 4697,
            "contract": "contracts/facets/Vault/VaultConfigFacet.sol:VaultConfigFacet",
            "label": "priceSpreadBasisPoints",
            "offset": 0,
            "slot": "23",
            "type": "t_mapping(t_address,t_uint256)"
          },
          {
            "astId": 4701,
            "contract": "contracts/facets/Vault/VaultConfigFacet.sol:VaultConfigFacet",
            "label": "baseTokenPairs",
            "offset": 0,
            "slot": "24",
            "type": "t_mapping(t_address,t_address)"
          },
          {
            "astId": 4705,
            "contract": "contracts/facets/Vault/VaultConfigFacet.sol:VaultConfigFacet",
            "label": "tokenPairs",
            "offset": 0,
            "slot": "25",
            "type": "t_mapping(t_address,t_address)"
          },
          {
            "astId": 4707,
            "contract": "contracts/facets/Vault/VaultConfigFacet.sol:VaultConfigFacet",
            "label": "answer",
            "offset": 0,
            "slot": "26",
            "type": "t_int256"
          },
          {
            "astId": 4709,
            "contract": "contracts/facets/Vault/VaultConfigFacet.sol:VaultConfigFacet",
            "label": "roundId",
            "offset": 0,
            "slot": "27",
            "type": "t_uint80"
          },
          {
            "astId": 4713,
            "contract": "contracts/facets/Vault/VaultConfigFacet.sol:VaultConfigFacet",
            "label": "answers",
            "offset": 0,
            "slot": "28",
            "type": "t_mapping(t_uint80,t_int256)"
          },
          {
            "astId": 4715,
            "contract": "contracts/facets/Vault/VaultConfigFacet.sol:VaultConfigFacet",
            "label": "totalNDOLMinted",
            "offset": 0,
            "slot": "29",
            "type": "t_uint256"
          },
          {
            "astId": 4721,
            "contract": "contracts/facets/Vault/VaultConfigFacet.sol:VaultConfigFacet",
            "label": "ndolMinted",
            "offset": 0,
            "slot": "30",
            "type": "t_mapping(t_address,t_mapping(t_address,t_int256))"
          }
        ],
        "numberOfBytes": "992"
      },
      "t_uint256": {
        "encoding": "inplace",
        "label": "uint256",
        "numberOfBytes": "32"
      },
      "t_uint80": {
        "encoding": "inplace",
        "label": "uint80",
        "numberOfBytes": "10"
      }
    }
  }
}