{
  "address": "0xc2d0177aE3D24b0700C7cAfa68222621030f2231",
  "abi": [
    {
      "inputs": [
        {
          "internalType": "address",
          "name": "_recipient",
          "type": "address"
        },
        {
          "internalType": "uint256",
          "name": "_rewardRate",
          "type": "uint256"
        }
      ],
      "name": "addRecipient",
      "outputs": [],
      "stateMutability": "nonpayable",
      "type": "function"
    },
    {
      "inputs": [
        {
          "internalType": "address",
          "name": "_nusd",
          "type": "address"
        },
        {
          "internalType": "address",
          "name": "_Necc",
          "type": "address"
        },
        {
          "internalType": "address",
          "name": "_treasury",
          "type": "address"
        },
        {
          "internalType": "address",
          "name": "_DAO",
          "type": "address"
        }
      ],
      "name": "initializeBondDepository",
      "outputs": [],
      "stateMutability": "nonpayable",
      "type": "function"
    },
    {
      "inputs": [
        {
          "internalType": "uint256",
          "name": "_controlVariable",
          "type": "uint256"
        },
        {
          "internalType": "uint256",
          "name": "_minimumPrice",
          "type": "uint256"
        },
        {
          "internalType": "uint256",
          "name": "_maxPayout",
          "type": "uint256"
        },
        {
          "internalType": "uint256",
          "name": "_fee",
          "type": "uint256"
        },
        {
          "internalType": "uint256",
          "name": "_maxDebt",
          "type": "uint256"
        },
        {
          "internalType": "uint256",
          "name": "_initialDebt",
          "type": "uint256"
        },
        {
          "internalType": "uint256",
          "name": "_vestingTerm",
          "type": "uint256"
        },
        {
          "internalType": "bool",
          "name": "_isLiquidityBond",
          "type": "bool"
        },
        {
          "internalType": "address",
          "name": "_priceFeed",
          "type": "address"
        },
        {
          "internalType": "address",
          "name": "_principle",
          "type": "address"
        }
      ],
      "name": "initializeBondTerms",
      "outputs": [],
      "stateMutability": "nonpayable",
      "type": "function"
    },
    {
      "inputs": [
        {
          "internalType": "uint256",
          "name": "_epochLength",
          "type": "uint256"
        },
        {
          "internalType": "uint256",
          "name": "_nextEpochTimestamp",
          "type": "uint256"
        },
        {
          "internalType": "address",
          "name": "_principle",
          "type": "address"
        }
      ],
      "name": "initializeDistributor",
      "outputs": [],
      "stateMutability": "nonpayable",
      "type": "function"
    },
    {
      "inputs": [
        {
          "internalType": "uint256",
          "name": "_firstEpochNumber",
          "type": "uint256"
        },
        {
          "internalType": "uint32",
          "name": "_firstEpochTime",
          "type": "uint32"
        },
        {
          "internalType": "address",
          "name": "_nNecc",
          "type": "address"
        }
      ],
      "name": "initializeStaking",
      "outputs": [],
      "stateMutability": "nonpayable",
      "type": "function"
    },
    {
      "inputs": [
        {
          "internalType": "address",
          "name": "_token",
          "type": "address"
        }
      ],
      "name": "recoverLostToken",
      "outputs": [
        {
          "internalType": "bool",
          "name": "",
          "type": "bool"
        }
      ],
      "stateMutability": "nonpayable",
      "type": "function"
    },
    {
      "inputs": [
        {
          "internalType": "uint256",
          "name": "_index",
          "type": "uint256"
        },
        {
          "internalType": "address",
          "name": "_recipient",
          "type": "address"
        }
      ],
      "name": "removeRecipient",
      "outputs": [],
      "stateMutability": "nonpayable",
      "type": "function"
    },
    {
      "inputs": [
        {
          "internalType": "bool",
          "name": "_addition",
          "type": "bool"
        },
        {
          "internalType": "uint256",
          "name": "_delta",
          "type": "uint256"
        },
        {
          "internalType": "uint256",
          "name": "_timeToTargetInSeconds",
          "type": "uint256"
        },
        {
          "internalType": "address",
          "name": "_principle",
          "type": "address"
        }
      ],
      "name": "setAdjustment",
      "outputs": [],
      "stateMutability": "nonpayable",
      "type": "function"
    },
    {
      "inputs": [
        {
          "internalType": "uint256",
          "name": "_index",
          "type": "uint256"
        },
        {
          "internalType": "bool",
          "name": "_add",
          "type": "bool"
        },
        {
          "internalType": "uint256",
          "name": "_rate",
          "type": "uint256"
        },
        {
          "internalType": "uint256",
          "name": "_target",
          "type": "uint256"
        }
      ],
      "name": "setAdjustment",
      "outputs": [],
      "stateMutability": "nonpayable",
      "type": "function"
    },
    {
      "inputs": [
        {
          "internalType": "enum PARAMETER",
          "name": "_parameter",
          "type": "uint8"
        },
        {
          "internalType": "uint256",
          "name": "_input",
          "type": "uint256"
        },
        {
          "internalType": "address",
          "name": "_principle",
          "type": "address"
        }
      ],
      "name": "setBondTerms",
      "outputs": [],
      "stateMutability": "nonpayable",
      "type": "function"
    },
    {
      "inputs": [
        {
          "internalType": "enum CONTRACTS",
          "name": "_contract",
          "type": "uint8"
        },
        {
          "internalType": "address",
          "name": "_address",
          "type": "address"
        }
      ],
      "name": "setContract",
      "outputs": [],
      "stateMutability": "nonpayable",
      "type": "function"
    },
    {
      "inputs": [
        {
          "internalType": "address",
          "name": "_farmDistributor",
          "type": "address"
        }
      ],
      "name": "setFarmDistributor",
      "outputs": [],
      "stateMutability": "nonpayable",
      "type": "function"
    },
    {
      "inputs": [
        {
          "internalType": "uint256",
          "name": "_warmupPeriod",
          "type": "uint256"
        }
      ],
      "name": "setWarmup",
      "outputs": [],
      "stateMutability": "nonpayable",
      "type": "function"
    },
    {
      "inputs": [
        {
          "internalType": "address",
          "name": "_maliciousDepositor",
          "type": "address"
        }
      ],
      "name": "toggleDepositLock",
      "outputs": [],
      "stateMutability": "nonpayable",
      "type": "function"
    }
  ],
  "transactionHash": "0x9d548076dbffacc7ee559556083c8c2b8a95266949b41d23eabef703549f34bf",
  "args": [],
  "solcInputHash": "5f66fcf5d2ff50cfff03fe1f16a8e50d",
  "bytecode": "0x608060405234801561001057600080fd5b50611f34806100206000396000f3fe608060405234801561001057600080fd5b50600436106100ea5760003560e01c8063b4abccba1161008c578063d247cfe911610066578063d247cfe9146104bb578063f54fef4014610513578063f79822431461056e578063fe3fbbad146105bc576100ea565b8063b4abccba146103d5578063bb3d6a0b1461042f578063c9f464ff1461048d576100ea565b80635db854b0116100c85780635db854b01461023b578063865e6fd3146102895780638e9068e6146102da578063b00785cc1461031e576100ea565b806307cafdfc146100ef578063128bae67146101335780634a30c46314610197575b600080fd5b6101316004803603602081101561010557600080fd5b81019080803573ffffffffffffffffffffffffffffffffffffffff16906020019092919050505061060a565b005b6101956004803603608081101561014957600080fd5b810190808035151590602001909291908035906020019092919080359060200190929190803573ffffffffffffffffffffffffffffffffffffffff169060200190929190505050610659565b005b610239600480360360808110156101ad57600080fd5b81019080803573ffffffffffffffffffffffffffffffffffffffff169060200190929190803573ffffffffffffffffffffffffffffffffffffffff169060200190929190803573ffffffffffffffffffffffffffffffffffffffff169060200190929190803573ffffffffffffffffffffffffffffffffffffffff16906020019092919050505061086c565b005b6102876004803603608081101561025157600080fd5b81019080803590602001909291908035151590602001909291908035906020019092919080359060200190929190505050610a71565b005b6102d86004803603604081101561029f57600080fd5b81019080803560ff169060200190929190803573ffffffffffffffffffffffffffffffffffffffff169060200190929190505050610ae9565b005b61031c600480360360208110156102f057600080fd5b81019080803573ffffffffffffffffffffffffffffffffffffffff169060200190929190505050610c02565b005b6103d3600480360361014081101561033557600080fd5b8101908080359060200190929190803590602001909291908035906020019092919080359060200190929190803590602001909291908035906020019092919080359060200190929190803515159060200190929190803573ffffffffffffffffffffffffffffffffffffffff169060200190929190803573ffffffffffffffffffffffffffffffffffffffff169060200190929190505050610cbd565b005b610417600480360360208110156103eb57600080fd5b81019080803573ffffffffffffffffffffffffffffffffffffffff169060200190929190505050610ef2565b60405180821515815260200191505060405180910390f35b61048b6004803603606081101561044557600080fd5b8101908080359060200190929190803563ffffffff169060200190929190803573ffffffffffffffffffffffffffffffffffffffff169060200190929190505050611063565b005b6104b9600480360360208110156104a357600080fd5b8101908080359060200190929190505050611143565b005b610511600480360360608110156104d157600080fd5b810190808035906020019092919080359060200190929190803573ffffffffffffffffffffffffffffffffffffffff169060200190929190505050611158565b005b61056c6004803603606081101561052957600080fd5b81019080803560ff16906020019092919080359060200190929190803573ffffffffffffffffffffffffffffffffffffffff16906020019092919050505061119b565b005b6105ba6004803603604081101561058457600080fd5b81019080803573ffffffffffffffffffffffffffffffffffffffff16906020019092919080359060200190929190505050611456565b005b610608600480360360408110156105d257600080fd5b8101908080359060200190929190803573ffffffffffffffffffffffffffffffffffffffff169060200190929190505050611548565b005b610612611653565b80600060050160006101000a81548173ffffffffffffffffffffffffffffffffffffffff021916908373ffffffffffffffffffffffffffffffffffffffff16021790555050565b600061066361165d565b90503073ffffffffffffffffffffffffffffffffffffffff163373ffffffffffffffffffffffffffffffffffffffff1614806106ee57508060040160009054906101000a900473ffffffffffffffffffffffffffffffffffffffff1673ffffffffffffffffffffffffffffffffffffffff163373ffffffffffffffffffffffffffffffffffffffff16145b610743576040517f08c379a0000000000000000000000000000000000000000000000000000000008152600401808060200182810382526026815260200180611e206026913960400191505060405180910390fd5b600061075983600061168a90919063ffffffff16565b905060006009016000808152602001908152602001600020600501548410156107ea576040517f08c379a000000000000000000000000000000000000000000000000000000000815260040180806020018281038252601b8152602001807f41646a7573746d656e743a204368616e676520746f6f2066617374000000000081525060200191505060405180910390fd5b60405180608001604052808715158152602001868152602001858152602001428152506000600a01600083815260200190815260200160002060008201518160000160006101000a81548160ff021916908315150217905550602082015181600101556040820151816002015560608201518160030155905050505050505050565b610874611653565b600073ffffffffffffffffffffffffffffffffffffffff168373ffffffffffffffffffffffffffffffffffffffff1614156108ae57600080fd5b826000800160006101000a81548173ffffffffffffffffffffffffffffffffffffffff021916908373ffffffffffffffffffffffffffffffffffffffff160217905550600073ffffffffffffffffffffffffffffffffffffffff168273ffffffffffffffffffffffffffffffffffffffff16141561092b57600080fd5b81600060030160006101000a81548173ffffffffffffffffffffffffffffffffffffffff021916908373ffffffffffffffffffffffffffffffffffffffff160217905550600073ffffffffffffffffffffffffffffffffffffffff168173ffffffffffffffffffffffffffffffffffffffff1614156109a957600080fd5b80600060040160006101000a81548173ffffffffffffffffffffffffffffffffffffffff021916908373ffffffffffffffffffffffffffffffffffffffff160217905550600073ffffffffffffffffffffffffffffffffffffffff168473ffffffffffffffffffffffffffffffffffffffff161415610a2757600080fd5b83600060020160006101000a81548173ffffffffffffffffffffffffffffffffffffffff021916908373ffffffffffffffffffffffffffffffffffffffff16021790555050505050565b610a79611653565b60405180606001604052808415158152602001838152602001828152506000601101600086815260200190815260200160002060008201518160000160006101000a81548160ff021916908315150217905550602082015181600101556040820151816002015590505050505050565b610af1611653565b600280811115610afd57fe5b826002811115610b0957fe5b1415610bfe57600073ffffffffffffffffffffffffffffffffffffffff16600060180160009054906101000a900473ffffffffffffffffffffffffffffffffffffffff1673ffffffffffffffffffffffffffffffffffffffff1614610bb9576040517f08c379a0000000000000000000000000000000000000000000000000000000008152600401808060200182810382526023815260200180611e686023913960400191505060405180910390fd5b80600060180160006101000a81548173ffffffffffffffffffffffffffffffffffffffff021916908373ffffffffffffffffffffffffffffffffffffffff1602179055505b5050565b610c0a611653565b6000601b0160008273ffffffffffffffffffffffffffffffffffffffff1673ffffffffffffffffffffffffffffffffffffffff16815260200190815260200160002060030160009054906101000a900460ff16156000601b0160008373ffffffffffffffffffffffffffffffffffffffff1673ffffffffffffffffffffffffffffffffffffffff16815260200190815260200160002060030160006101000a81548160ff02191690831515021790555050565b610cc5611653565b610cd3600060070182611706565b506000610cea82600061168a90919063ffffffff16565b90506000806009016000838152602001908152602001600020600001541015610d7b576040517f08c379a00000000000000000000000000000000000000000000000000000000081526004018080602001828103825260208152602001807f426f6e6473206d75737420626520696e697469616c697a65642066726f6d203081525060200191505060405180910390fd5b6040518060e001604052808c81526020018b81526020018a815260200189815260200188815260200186815260200185151581525060006009016000838152602001908152602001600020600082015181600001556020820151816001015560408201518160020155606082015181600301556080820151816004015560a0820151816005015560c08201518160060160006101000a81548160ff021916908315150217905550905050856000600c01600083815260200190815260200160002081905550426000600d01600083815260200190815260200160002081905550600073ffffffffffffffffffffffffffffffffffffffff168373ffffffffffffffffffffffffffffffffffffffff1614610ee557826000600f01600083815260200190815260200160002060006101000a81548173ffffffffffffffffffffffffffffffffffffffff021916908373ffffffffffffffffffffffffffffffffffffffff1602179055505b5050505050505050505050565b60008060000160009054906101000a900473ffffffffffffffffffffffffffffffffffffffff1673ffffffffffffffffffffffffffffffffffffffff168273ffffffffffffffffffffffffffffffffffffffff161415610f5157600080fd5b610f5f600060070183611736565b15610f6957600080fd5b61105a600060040160009054906101000a900473ffffffffffffffffffffffffffffffffffffffff168373ffffffffffffffffffffffffffffffffffffffff166370a08231306040518263ffffffff1660e01b8152600401808273ffffffffffffffffffffffffffffffffffffffff16815260200191505060206040518083038186803b158015610ff957600080fd5b505afa15801561100d573d6000803e3d6000fd5b505050506040513d602081101561102357600080fd5b81019080805190602001909291905050508473ffffffffffffffffffffffffffffffffffffffff166117669092919063ffffffff16565b60019050919050565b600073ffffffffffffffffffffffffffffffffffffffff168173ffffffffffffffffffffffffffffffffffffffff16141561109d57600080fd5b80600060010160006101000a81548173ffffffffffffffffffffffffffffffffffffffff021916908373ffffffffffffffffffffffffffffffffffffffff16021790555060405180608001604052808481526020016000815260200160006016015481526020018363ffffffff16815250600060120160008201518160000155602082015181600101556040820151816002015560608201518160030155905050505050565b61114b611653565b806000601a018190555050565b600061116e82600061168a90919063ffffffff16565b905083600060160181905550826000600e0160008381526020019081526020016000208190555050505050565b6111a3611653565b60006111b982600061168a90919063ffffffff16565b9050600060048111156111c857fe5b8460048111156111d457fe5b1415611259576201fa40831015611236576040517f08c379a0000000000000000000000000000000000000000000000000000000008152600401808060200182810382526024815260200180611eb16024913960400191505060405180910390fd5b826000600901600083815260200190815260200160002060050181905550611450565b6001600481111561126657fe5b84600481111561127257fe5b1415611313576103e88311156112f0576040517f08c379a00000000000000000000000000000000000000000000000000000000081526004018080602001828103825260208152602001807f5061796f75742063616e6e6f742062652061626f766520312070657263656e7481525060200191505060405180910390fd5b82600060090160008381526020019081526020016000206002018190555061144f565b6002600481111561132057fe5b84600481111561132c57fe5b14156113cd576127108311156113aa576040517f08c379a000000000000000000000000000000000000000000000000000000000815260040180806020018281038252601c8152602001807f44414f206665652063616e6e6f7420657863656564207061796f75740000000081525060200191505060405180910390fd5b82600060090160008381526020019081526020016000206003018190555061144e565b600360048111156113da57fe5b8460048111156113e657fe5b141561140f5782600060090160008381526020019081526020016000206004018190555061144d565b60048081111561141b57fe5b84600481111561142757fe5b141561144c578260006009016000838152602001908152602001600020600101819055505b5b5b5b5b50505050565b61145e611653565b600073ffffffffffffffffffffffffffffffffffffffff168273ffffffffffffffffffffffffffffffffffffffff16141561149857600080fd5b600060100160405180604001604052808381526020018473ffffffffffffffffffffffffffffffffffffffff1681525090806001815401808255809150506001900390600052602060002090600202016000909190919091506000820151816000015560208201518160010160006101000a81548173ffffffffffffffffffffffffffffffffffffffff021916908373ffffffffffffffffffffffffffffffffffffffff16021790555050505050565b611550611653565b6000601001828154811061156057fe5b906000526020600020906002020160010160009054906101000a900473ffffffffffffffffffffffffffffffffffffffff1673ffffffffffffffffffffffffffffffffffffffff168173ffffffffffffffffffffffffffffffffffffffff16146115c957600080fd5b60008060100183815481106115da57fe5b906000526020600020906002020160010160006101000a81548173ffffffffffffffffffffffffffffffffffffffff021916908373ffffffffffffffffffffffffffffffffffffffff160217905550600080601001838154811061163a57fe5b9060005260206000209060020201600001819055505050565b61165b611808565b565b6000807fc8fcad8db84d3cc18b4c41d551ea0ee66dd599cde068d998e57d5e09332c131c90508091505090565b600080611699846007016118a3565b905060005b818110156116fd578373ffffffffffffffffffffffffffffffffffffffff166116ca86600701836118b8565b73ffffffffffffffffffffffffffffffffffffffff1614156116f0578092505050611700565b808060010191505061169e565b50505b92915050565b600061172e836000018373ffffffffffffffffffffffffffffffffffffffff1660001b6118d2565b905092915050565b600061175e836000018373ffffffffffffffffffffffffffffffffffffffff1660001b611942565b905092915050565b6118038363a9059cbb60e01b8484604051602401808373ffffffffffffffffffffffffffffffffffffffff16815260200182815260200192505050604051602081830303815290604052907bffffffffffffffffffffffffffffffffffffffffffffffffffffffff19166020820180517bffffffffffffffffffffffffffffffffffffffffffffffffffffffff8381831617835250505050611965565b505050565b61181061165d565b60040160009054906101000a900473ffffffffffffffffffffffffffffffffffffffff1673ffffffffffffffffffffffffffffffffffffffff163373ffffffffffffffffffffffffffffffffffffffff16146118a1576040517f08c379a000000000000000000000000000000000000000000000000000000000815260040161189890611dee565b60405180910390fd5b565b60006118b182600001611a54565b9050919050565b60006118c78360000183611a65565b60001c905092915050565b60006118de8383611942565b61193757826000018290806001815401808255809150506001900390600052602060002001600090919091909150558260000180549050836001016000848152602001908152602001600020819055506001905061193c565b600090505b92915050565b600080836001016000848152602001908152602001600020541415905092915050565b60606119c7826040518060400160405280602081526020017f5361666545524332303a206c6f772d6c6576656c2063616c6c206661696c65648152508573ffffffffffffffffffffffffffffffffffffffff16611ae89092919063ffffffff16565b9050600081511115611a4f578080602001905160208110156119e857600080fd5b8101908080519060200190929190505050611a4e576040517f08c379a000000000000000000000000000000000000000000000000000000000815260040180806020018281038252602a815260200180611ed5602a913960400191505060405180910390fd5b5b505050565b600081600001805490509050919050565b600081836000018054905011611ac6576040517f08c379a0000000000000000000000000000000000000000000000000000000008152600401808060200182810382526022815260200180611e466022913960400191505060405180910390fd5b826000018281548110611ad557fe5b9060005260206000200154905092915050565b6060611af78484600085611b00565b90509392505050565b606082471015611b5b576040517f08c379a0000000000000000000000000000000000000000000000000000000008152600401808060200182810382526026815260200180611e8b6026913960400191505060405180910390fd5b611b6485611ca9565b611bd6576040517f08c379a000000000000000000000000000000000000000000000000000000000815260040180806020018281038252601d8152602001807f416464726573733a2063616c6c20746f206e6f6e2d636f6e747261637400000081525060200191505060405180910390fd5b600060608673ffffffffffffffffffffffffffffffffffffffff1685876040518082805190602001908083835b60208310611c265780518252602082019150602081019050602083039250611c03565b6001836020036101000a03801982511681845116808217855250505050505090500191505060006040518083038185875af1925050503d8060008114611c88576040519150601f19603f3d011682016040523d82523d6000602084013e611c8d565b606091505b5091509150611c9d828286611cbc565b92505050949350505050565b600080823b905060008111915050919050565b60608315611ccc57829050611d81565b600083511115611cdf5782518084602001fd5b816040517f08c379a00000000000000000000000000000000000000000000000000000000081526004018080602001828103825283818151815260200191508051906020019080838360005b83811015611d46578082015181840152602081019050611d2b565b50505050905090810190601f168015611d735780820380516001836020036101000a031916815260200191505b509250505060405180910390fd5b9392505050565b6000611d95602283611e0e565b91507f4c69624469616d6f6e643a20696e76616c696420636f6e7472616374206f776e60008301527f65720000000000000000000000000000000000000000000000000000000000006020830152604082019050919050565b60006020820190508181036000830152611e0781611d88565b9050919050565b60008282526020820190509291505056fe426f6e644465706f7369746f72793a20496e76616c696420636f6e7472616374206f776e6572456e756d657261626c655365743a20696e646578206f7574206f6620626f756e64734c6f636b65722063616e6e6f7420626520736574206d6f7265207468616e206f6e6365416464726573733a20696e73756666696369656e742062616c616e636520666f722063616c6c56657374696e67206d757374206265206c6f6e676572207468616e20333620686f7572735361666545524332303a204552433230206f7065726174696f6e20646964206e6f742073756363656564a2646970667358221220dd34fc79e8e2eb6840f7f25173477d23fac20c46dfb9b300869e539bd831a3f664736f6c63430007050033",
  "devdoc": {
    "kind": "dev",
    "methods": {
      "addRecipient(address,uint256)": {
        "params": {
          "_recipient": "address",
          "_rewardRate": "uint"
        }
      },
      "initializeBondTerms(uint256,uint256,uint256,uint256,uint256,uint256,uint256,bool,address,address)": {
        "params": {
          "_controlVariable": "uint",
          "_fee": "uint",
          "_initialDebt": "uint",
          "_maxDebt": "uint",
          "_maxPayout": "uint",
          "_minimumPrice": "uint",
          "_vestingTerm": "uint256"
        }
      },
      "recoverLostToken(address)": {
        "returns": {
          "_0": "bool"
        }
      },
      "removeRecipient(uint256,address)": {
        "params": {
          "_index": "uint",
          "_recipient": "address"
        }
      },
      "setAdjustment(uint256,bool,uint256,uint256)": {
        "params": {
          "_add": "bool",
          "_index": "uint",
          "_rate": "uint",
          "_target": "uint"
        }
      },
      "setBondTerms(uint8,uint256,address)": {
        "params": {
          "_input": "uint",
          "_parameter": "PARAMETER"
        }
      },
      "setContract(uint8,address)": {
        "params": {
          "_contract": "address"
        }
      },
      "setWarmup(uint256)": {
        "params": {
          "_warmupPeriod": "uint"
        }
      }
    },
    "version": 1
  },
  "userdoc": {
    "kind": "user",
    "methods": {
      "addRecipient(address,uint256)": {
        "notice": "adds recipient for distributions"
      },
      "initializeBondTerms(uint256,uint256,uint256,uint256,uint256,uint256,uint256,bool,address,address)": {
        "notice": "initializes bond parameters"
      },
      "recoverLostToken(address)": {
        "notice": "allow anyone to send lost tokens (excluding principle or Necc) to the DAO"
      },
      "removeRecipient(uint256,address)": {
        "notice": "removes recipient for distributions"
      },
      "setAdjustment(uint256,bool,uint256,uint256)": {
        "notice": "set adjustment info for a collector's reward rate"
      },
      "setBondTerms(uint8,uint256,address)": {
        "notice": "set parameters for new bonds"
      },
      "setContract(uint8,address)": {
        "notice": "sets the contract address for LP staking"
      },
      "setWarmup(uint256)": {
        "notice": "set warmup period in epoch's numbers for new stakers"
      },
      "toggleDepositLock(address)": {
        "notice": "prevent new deposits to address (protection from malicious activity)"
      }
    },
    "version": 1
  },
  "storageLayout": {
    "storage": [
      {
        "astId": 7420,
        "contract": "contracts/facets/Bond/BondConfigFacet.sol:BondConfigFacet",
        "label": "s",
        "offset": 0,
        "slot": "0",
        "type": "t_struct(Storage)19335_storage"
      }
    ],
    "types": {
      "t_address": {
        "encoding": "inplace",
        "label": "address",
        "numberOfBytes": "20"
      },
      "t_array(t_bytes32)dyn_storage": {
        "base": "t_bytes32",
        "encoding": "dynamic_array",
        "label": "bytes32[]",
        "numberOfBytes": "32"
      },
      "t_array(t_struct(Info)19198_storage)dyn_storage": {
        "base": "t_struct(Info)19198_storage",
        "encoding": "dynamic_array",
        "label": "struct LibBondStorage.Info[]",
        "numberOfBytes": "32"
      },
      "t_array(t_struct(Payout)19193_storage)dyn_storage": {
        "base": "t_struct(Payout)19193_storage",
        "encoding": "dynamic_array",
        "label": "struct LibBondStorage.Payout[]",
        "numberOfBytes": "32"
      },
      "t_bool": {
        "encoding": "inplace",
        "label": "bool",
        "numberOfBytes": "1"
      },
      "t_bytes32": {
        "encoding": "inplace",
        "label": "bytes32",
        "numberOfBytes": "32"
      },
      "t_mapping(t_address,t_mapping(t_uint256,t_struct(Bond)19229_storage))": {
        "encoding": "mapping",
        "key": "t_address",
        "label": "mapping(address => mapping(uint256 => struct LibBondStorage.Bond))",
        "numberOfBytes": "32",
        "value": "t_mapping(t_uint256,t_struct(Bond)19229_storage)"
      },
      "t_mapping(t_address,t_struct(Claim)19256_storage)": {
        "encoding": "mapping",
        "key": "t_address",
        "label": "mapping(address => struct LibBondStorage.Claim)",
        "numberOfBytes": "32",
        "value": "t_struct(Claim)19256_storage"
      },
      "t_mapping(t_bytes32,t_uint256)": {
        "encoding": "mapping",
        "key": "t_bytes32",
        "label": "mapping(bytes32 => uint256)",
        "numberOfBytes": "32",
        "value": "t_uint256"
      },
      "t_mapping(t_uint256,t_address)": {
        "encoding": "mapping",
        "key": "t_uint256",
        "label": "mapping(uint256 => address)",
        "numberOfBytes": "32",
        "value": "t_address"
      },
      "t_mapping(t_uint256,t_array(t_struct(Payout)19193_storage)dyn_storage)": {
        "encoding": "mapping",
        "key": "t_uint256",
        "label": "mapping(uint256 => struct LibBondStorage.Payout[])",
        "numberOfBytes": "32",
        "value": "t_array(t_struct(Payout)19193_storage)dyn_storage"
      },
      "t_mapping(t_uint256,t_struct(Bond)19229_storage)": {
        "encoding": "mapping",
        "key": "t_uint256",
        "label": "mapping(uint256 => struct LibBondStorage.Bond)",
        "numberOfBytes": "32",
        "value": "t_struct(Bond)19229_storage"
      },
      "t_mapping(t_uint256,t_struct(BondDepositoryAdjustment)19238_storage)": {
        "encoding": "mapping",
        "key": "t_uint256",
        "label": "mapping(uint256 => struct LibBondStorage.BondDepositoryAdjustment)",
        "numberOfBytes": "32",
        "value": "t_struct(BondDepositoryAdjustment)19238_storage"
      },
      "t_mapping(t_uint256,t_struct(DistributorAdjustment)19205_storage)": {
        "encoding": "mapping",
        "key": "t_uint256",
        "label": "mapping(uint256 => struct LibBondStorage.DistributorAdjustment)",
        "numberOfBytes": "32",
        "value": "t_struct(DistributorAdjustment)19205_storage"
      },
      "t_mapping(t_uint256,t_struct(Terms)19220_storage)": {
        "encoding": "mapping",
        "key": "t_uint256",
        "label": "mapping(uint256 => struct LibBondStorage.Terms)",
        "numberOfBytes": "32",
        "value": "t_struct(Terms)19220_storage"
      },
      "t_mapping(t_uint256,t_uint256)": {
        "encoding": "mapping",
        "key": "t_uint256",
        "label": "mapping(uint256 => uint256)",
        "numberOfBytes": "32",
        "value": "t_uint256"
      },
      "t_struct(AddressSet)2423_storage": {
        "encoding": "inplace",
        "label": "struct EnumerableSet.AddressSet",
        "members": [
          {
            "astId": 2422,
            "contract": "contracts/facets/Bond/BondConfigFacet.sol:BondConfigFacet",
            "label": "_inner",
            "offset": 0,
            "slot": "0",
            "type": "t_struct(Set)2158_storage"
          }
        ],
        "numberOfBytes": "64"
      },
      "t_struct(Bond)19229_storage": {
        "encoding": "inplace",
        "label": "struct LibBondStorage.Bond",
        "members": [
          {
            "astId": 19222,
            "contract": "contracts/facets/Bond/BondConfigFacet.sol:BondConfigFacet",
            "label": "payout",
            "offset": 0,
            "slot": "0",
            "type": "t_uint256"
          },
          {
            "astId": 19224,
            "contract": "contracts/facets/Bond/BondConfigFacet.sol:BondConfigFacet",
            "label": "pricePaid",
            "offset": 0,
            "slot": "1",
            "type": "t_uint256"
          },
          {
            "astId": 19226,
            "contract": "contracts/facets/Bond/BondConfigFacet.sol:BondConfigFacet",
            "label": "lastTime",
            "offset": 0,
            "slot": "2",
            "type": "t_uint256"
          },
          {
            "astId": 19228,
            "contract": "contracts/facets/Bond/BondConfigFacet.sol:BondConfigFacet",
            "label": "vesting",
            "offset": 0,
            "slot": "3",
            "type": "t_uint256"
          }
        ],
        "numberOfBytes": "128"
      },
      "t_struct(BondDepositoryAdjustment)19238_storage": {
        "encoding": "inplace",
        "label": "struct LibBondStorage.BondDepositoryAdjustment",
        "members": [
          {
            "astId": 19231,
            "contract": "contracts/facets/Bond/BondConfigFacet.sol:BondConfigFacet",
            "label": "add",
            "offset": 0,
            "slot": "0",
            "type": "t_bool"
          },
          {
            "astId": 19233,
            "contract": "contracts/facets/Bond/BondConfigFacet.sol:BondConfigFacet",
            "label": "delta",
            "offset": 0,
            "slot": "1",
            "type": "t_uint256"
          },
          {
            "astId": 19235,
            "contract": "contracts/facets/Bond/BondConfigFacet.sol:BondConfigFacet",
            "label": "timeToTarget",
            "offset": 0,
            "slot": "2",
            "type": "t_uint256"
          },
          {
            "astId": 19237,
            "contract": "contracts/facets/Bond/BondConfigFacet.sol:BondConfigFacet",
            "label": "lastTime",
            "offset": 0,
            "slot": "3",
            "type": "t_uint256"
          }
        ],
        "numberOfBytes": "128"
      },
      "t_struct(Claim)19256_storage": {
        "encoding": "inplace",
        "label": "struct LibBondStorage.Claim",
        "members": [
          {
            "astId": 19249,
            "contract": "contracts/facets/Bond/BondConfigFacet.sol:BondConfigFacet",
            "label": "deposit",
            "offset": 0,
            "slot": "0",
            "type": "t_uint256"
          },
          {
            "astId": 19251,
            "contract": "contracts/facets/Bond/BondConfigFacet.sol:BondConfigFacet",
            "label": "gons",
            "offset": 0,
            "slot": "1",
            "type": "t_uint256"
          },
          {
            "astId": 19253,
            "contract": "contracts/facets/Bond/BondConfigFacet.sol:BondConfigFacet",
            "label": "expiry",
            "offset": 0,
            "slot": "2",
            "type": "t_uint256"
          },
          {
            "astId": 19255,
            "contract": "contracts/facets/Bond/BondConfigFacet.sol:BondConfigFacet",
            "label": "lock",
            "offset": 0,
            "slot": "3",
            "type": "t_bool"
          }
        ],
        "numberOfBytes": "128"
      },
      "t_struct(DistributorAdjustment)19205_storage": {
        "encoding": "inplace",
        "label": "struct LibBondStorage.DistributorAdjustment",
        "members": [
          {
            "astId": 19200,
            "contract": "contracts/facets/Bond/BondConfigFacet.sol:BondConfigFacet",
            "label": "add",
            "offset": 0,
            "slot": "0",
            "type": "t_bool"
          },
          {
            "astId": 19202,
            "contract": "contracts/facets/Bond/BondConfigFacet.sol:BondConfigFacet",
            "label": "rate",
            "offset": 0,
            "slot": "1",
            "type": "t_uint256"
          },
          {
            "astId": 19204,
            "contract": "contracts/facets/Bond/BondConfigFacet.sol:BondConfigFacet",
            "label": "target",
            "offset": 0,
            "slot": "2",
            "type": "t_uint256"
          }
        ],
        "numberOfBytes": "96"
      },
      "t_struct(Epoch)19247_storage": {
        "encoding": "inplace",
        "label": "struct LibBondStorage.Epoch",
        "members": [
          {
            "astId": 19240,
            "contract": "contracts/facets/Bond/BondConfigFacet.sol:BondConfigFacet",
            "label": "number",
            "offset": 0,
            "slot": "0",
            "type": "t_uint256"
          },
          {
            "astId": 19242,
            "contract": "contracts/facets/Bond/BondConfigFacet.sol:BondConfigFacet",
            "label": "distribute",
            "offset": 0,
            "slot": "1",
            "type": "t_uint256"
          },
          {
            "astId": 19244,
            "contract": "contracts/facets/Bond/BondConfigFacet.sol:BondConfigFacet",
            "label": "length",
            "offset": 0,
            "slot": "2",
            "type": "t_uint256"
          },
          {
            "astId": 19246,
            "contract": "contracts/facets/Bond/BondConfigFacet.sol:BondConfigFacet",
            "label": "endTime",
            "offset": 0,
            "slot": "3",
            "type": "t_uint256"
          }
        ],
        "numberOfBytes": "128"
      },
      "t_struct(Info)19198_storage": {
        "encoding": "inplace",
        "label": "struct LibBondStorage.Info",
        "members": [
          {
            "astId": 19195,
            "contract": "contracts/facets/Bond/BondConfigFacet.sol:BondConfigFacet",
            "label": "rate",
            "offset": 0,
            "slot": "0",
            "type": "t_uint256"
          },
          {
            "astId": 19197,
            "contract": "contracts/facets/Bond/BondConfigFacet.sol:BondConfigFacet",
            "label": "recipient",
            "offset": 0,
            "slot": "1",
            "type": "t_address"
          }
        ],
        "numberOfBytes": "64"
      },
      "t_struct(Payout)19193_storage": {
        "encoding": "inplace",
        "label": "struct LibBondStorage.Payout",
        "members": [
          {
            "astId": 19190,
            "contract": "contracts/facets/Bond/BondConfigFacet.sol:BondConfigFacet",
            "label": "amount",
            "offset": 0,
            "slot": "0",
            "type": "t_uint256"
          },
          {
            "astId": 19192,
            "contract": "contracts/facets/Bond/BondConfigFacet.sol:BondConfigFacet",
            "label": "blockTimestamp",
            "offset": 0,
            "slot": "1",
            "type": "t_uint256"
          }
        ],
        "numberOfBytes": "64"
      },
      "t_struct(Set)2158_storage": {
        "encoding": "inplace",
        "label": "struct EnumerableSet.Set",
        "members": [
          {
            "astId": 2153,
            "contract": "contracts/facets/Bond/BondConfigFacet.sol:BondConfigFacet",
            "label": "_values",
            "offset": 0,
            "slot": "0",
            "type": "t_array(t_bytes32)dyn_storage"
          },
          {
            "astId": 2157,
            "contract": "contracts/facets/Bond/BondConfigFacet.sol:BondConfigFacet",
            "label": "_indexes",
            "offset": 0,
            "slot": "1",
            "type": "t_mapping(t_bytes32,t_uint256)"
          }
        ],
        "numberOfBytes": "64"
      },
      "t_struct(Storage)19335_storage": {
        "encoding": "inplace",
        "label": "struct LibBondStorage.Storage",
        "members": [
          {
            "astId": 19258,
            "contract": "contracts/facets/Bond/BondConfigFacet.sol:BondConfigFacet",
            "label": "Necc",
            "offset": 0,
            "slot": "0",
            "type": "t_address"
          },
          {
            "astId": 19260,
            "contract": "contracts/facets/Bond/BondConfigFacet.sol:BondConfigFacet",
            "label": "nNecc",
            "offset": 0,
            "slot": "1",
            "type": "t_address"
          },
          {
            "astId": 19262,
            "contract": "contracts/facets/Bond/BondConfigFacet.sol:BondConfigFacet",
            "label": "nusd",
            "offset": 0,
            "slot": "2",
            "type": "t_address"
          },
          {
            "astId": 19264,
            "contract": "contracts/facets/Bond/BondConfigFacet.sol:BondConfigFacet",
            "label": "treasury",
            "offset": 0,
            "slot": "3",
            "type": "t_address"
          },
          {
            "astId": 19266,
            "contract": "contracts/facets/Bond/BondConfigFacet.sol:BondConfigFacet",
            "label": "DAO",
            "offset": 0,
            "slot": "4",
            "type": "t_address"
          },
          {
            "astId": 19268,
            "contract": "contracts/facets/Bond/BondConfigFacet.sol:BondConfigFacet",
            "label": "farmDistributor",
            "offset": 0,
            "slot": "5",
            "type": "t_address"
          },
          {
            "astId": 19270,
            "contract": "contracts/facets/Bond/BondConfigFacet.sol:BondConfigFacet",
            "label": "staking",
            "offset": 0,
            "slot": "6",
            "type": "t_address"
          },
          {
            "astId": 19272,
            "contract": "contracts/facets/Bond/BondConfigFacet.sol:BondConfigFacet",
            "label": "principles",
            "offset": 0,
            "slot": "7",
            "type": "t_struct(AddressSet)2423_storage"
          },
          {
            "astId": 19276,
            "contract": "contracts/facets/Bond/BondConfigFacet.sol:BondConfigFacet",
            "label": "terms",
            "offset": 0,
            "slot": "9",
            "type": "t_mapping(t_uint256,t_struct(Terms)19220_storage)"
          },
          {
            "astId": 19280,
            "contract": "contracts/facets/Bond/BondConfigFacet.sol:BondConfigFacet",
            "label": "bondDepositoryAdjustment",
            "offset": 0,
            "slot": "10",
            "type": "t_mapping(t_uint256,t_struct(BondDepositoryAdjustment)19238_storage)"
          },
          {
            "astId": 19286,
            "contract": "contracts/facets/Bond/BondConfigFacet.sol:BondConfigFacet",
            "label": "bondInfo",
            "offset": 0,
            "slot": "11",
            "type": "t_mapping(t_address,t_mapping(t_uint256,t_struct(Bond)19229_storage))"
          },
          {
            "astId": 19290,
            "contract": "contracts/facets/Bond/BondConfigFacet.sol:BondConfigFacet",
            "label": "totalDebt",
            "offset": 0,
            "slot": "12",
            "type": "t_mapping(t_uint256,t_uint256)"
          },
          {
            "astId": 19294,
            "contract": "contracts/facets/Bond/BondConfigFacet.sol:BondConfigFacet",
            "label": "lastDecay",
            "offset": 0,
            "slot": "13",
            "type": "t_mapping(t_uint256,t_uint256)"
          },
          {
            "astId": 19298,
            "contract": "contracts/facets/Bond/BondConfigFacet.sol:BondConfigFacet",
            "label": "nextEpochTimestamp",
            "offset": 0,
            "slot": "14",
            "type": "t_mapping(t_uint256,t_uint256)"
          },
          {
            "astId": 19302,
            "contract": "contracts/facets/Bond/BondConfigFacet.sol:BondConfigFacet",
            "label": "priceFeeds",
            "offset": 0,
            "slot": "15",
            "type": "t_mapping(t_uint256,t_address)"
          },
          {
            "astId": 19305,
            "contract": "contracts/facets/Bond/BondConfigFacet.sol:BondConfigFacet",
            "label": "info",
            "offset": 0,
            "slot": "16",
            "type": "t_array(t_struct(Info)19198_storage)dyn_storage"
          },
          {
            "astId": 19309,
            "contract": "contracts/facets/Bond/BondConfigFacet.sol:BondConfigFacet",
            "label": "distributorAdjustments",
            "offset": 0,
            "slot": "17",
            "type": "t_mapping(t_uint256,t_struct(DistributorAdjustment)19205_storage)"
          },
          {
            "astId": 19311,
            "contract": "contracts/facets/Bond/BondConfigFacet.sol:BondConfigFacet",
            "label": "epoch",
            "offset": 0,
            "slot": "18",
            "type": "t_struct(Epoch)19247_storage"
          },
          {
            "astId": 19313,
            "contract": "contracts/facets/Bond/BondConfigFacet.sol:BondConfigFacet",
            "label": "epochLength",
            "offset": 0,
            "slot": "22",
            "type": "t_uint256"
          },
          {
            "astId": 19315,
            "contract": "contracts/facets/Bond/BondConfigFacet.sol:BondConfigFacet",
            "label": "distributor",
            "offset": 0,
            "slot": "23",
            "type": "t_address"
          },
          {
            "astId": 19317,
            "contract": "contracts/facets/Bond/BondConfigFacet.sol:BondConfigFacet",
            "label": "locker",
            "offset": 0,
            "slot": "24",
            "type": "t_address"
          },
          {
            "astId": 19319,
            "contract": "contracts/facets/Bond/BondConfigFacet.sol:BondConfigFacet",
            "label": "totalBonus",
            "offset": 0,
            "slot": "25",
            "type": "t_uint256"
          },
          {
            "astId": 19321,
            "contract": "contracts/facets/Bond/BondConfigFacet.sol:BondConfigFacet",
            "label": "warmupPeriod",
            "offset": 0,
            "slot": "26",
            "type": "t_uint256"
          },
          {
            "astId": 19325,
            "contract": "contracts/facets/Bond/BondConfigFacet.sol:BondConfigFacet",
            "label": "warmupInfo",
            "offset": 0,
            "slot": "27",
            "type": "t_mapping(t_address,t_struct(Claim)19256_storage)"
          },
          {
            "astId": 19327,
            "contract": "contracts/facets/Bond/BondConfigFacet.sol:BondConfigFacet",
            "label": "targetSum",
            "offset": 0,
            "slot": "28",
            "type": "t_uint256"
          },
          {
            "astId": 19332,
            "contract": "contracts/facets/Bond/BondConfigFacet.sol:BondConfigFacet",
            "label": "payouts",
            "offset": 0,
            "slot": "29",
            "type": "t_mapping(t_uint256,t_array(t_struct(Payout)19193_storage)dyn_storage)"
          },
          {
            "astId": 19334,
            "contract": "contracts/facets/Bond/BondConfigFacet.sol:BondConfigFacet",
            "label": "gonsInWarmup",
            "offset": 0,
            "slot": "30",
            "type": "t_uint256"
          }
        ],
        "numberOfBytes": "992"
      },
      "t_struct(Terms)19220_storage": {
        "encoding": "inplace",
        "label": "struct LibBondStorage.Terms",
        "members": [
          {
            "astId": 19207,
            "contract": "contracts/facets/Bond/BondConfigFacet.sol:BondConfigFacet",
            "label": "controlVariable",
            "offset": 0,
            "slot": "0",
            "type": "t_uint256"
          },
          {
            "astId": 19209,
            "contract": "contracts/facets/Bond/BondConfigFacet.sol:BondConfigFacet",
            "label": "minimumPrice",
            "offset": 0,
            "slot": "1",
            "type": "t_uint256"
          },
          {
            "astId": 19211,
            "contract": "contracts/facets/Bond/BondConfigFacet.sol:BondConfigFacet",
            "label": "maxPayout",
            "offset": 0,
            "slot": "2",
            "type": "t_uint256"
          },
          {
            "astId": 19213,
            "contract": "contracts/facets/Bond/BondConfigFacet.sol:BondConfigFacet",
            "label": "fee",
            "offset": 0,
            "slot": "3",
            "type": "t_uint256"
          },
          {
            "astId": 19215,
            "contract": "contracts/facets/Bond/BondConfigFacet.sol:BondConfigFacet",
            "label": "maxDebt",
            "offset": 0,
            "slot": "4",
            "type": "t_uint256"
          },
          {
            "astId": 19217,
            "contract": "contracts/facets/Bond/BondConfigFacet.sol:BondConfigFacet",
            "label": "vestingTerm",
            "offset": 0,
            "slot": "5",
            "type": "t_uint256"
          },
          {
            "astId": 19219,
            "contract": "contracts/facets/Bond/BondConfigFacet.sol:BondConfigFacet",
            "label": "isLiquidityBond",
            "offset": 0,
            "slot": "6",
            "type": "t_bool"
          }
        ],
        "numberOfBytes": "224"
      },
      "t_uint256": {
        "encoding": "inplace",
        "label": "uint256",
        "numberOfBytes": "32"
      }
    }
  }
}