{
  "address": "0xaA780030f308A28Fccff8936d5947De6C5dD4aEe",
  "abi": [
    {
      "inputs": [],
      "name": "distribute",
      "outputs": [
        {
          "internalType": "bool",
          "name": "",
          "type": "bool"
        }
      ],
      "stateMutability": "nonpayable",
      "type": "function"
    },
    {
      "inputs": [
        {
          "internalType": "uint256",
          "name": "_rate",
          "type": "uint256"
        }
      ],
      "name": "nextRewardAt",
      "outputs": [
        {
          "internalType": "uint256",
          "name": "",
          "type": "uint256"
        }
      ],
      "stateMutability": "view",
      "type": "function"
    },
    {
      "inputs": [
        {
          "internalType": "address",
          "name": "_recipient",
          "type": "address"
        }
      ],
      "name": "nextRewardFor",
      "outputs": [
        {
          "internalType": "uint256",
          "name": "",
          "type": "uint256"
        }
      ],
      "stateMutability": "view",
      "type": "function"
    }
  ],
  "transactionHash": "0x5321c90413b7dc4114c6511954cbc81d7c3101f310cf2ea3c2c7775bd9b7eb6a",
  "args": [],
  "solcInputHash": "5f66fcf5d2ff50cfff03fe1f16a8e50d",
  "bytecode": "0x608060405234801561001057600080fd5b506108e6806100206000396000f3fe608060405234801561001057600080fd5b50600436106100415760003560e01c806336d33f4414610046578063c9fa8b2a1461009e578063e4fc6b6d146100e0575b600080fd5b6100886004803603602081101561005c57600080fd5b81019080803573ffffffffffffffffffffffffffffffffffffffff169060200190929190505050610100565b6040518082815260200191505060405180910390f35b6100ca600480360360208110156100b457600080fd5b81019080803590602001909291905050506101cf565b6040518082815260200191505060405180910390f35b6100e86102a4565b60405180821515815260200191505060405180910390f35b60008060005b6000601001805490508110156101c5578373ffffffffffffffffffffffffffffffffffffffff166000601001828154811061013d57fe5b906000526020600020906002020160010160009054906101000a900473ffffffffffffffffffffffffffffffffffffffff1673ffffffffffffffffffffffffffffffffffffffff1614156101b8576101b56000601001828154811061019e57fe5b9060005260206000209060020201600001546101cf565b91505b8080600101915050610106565b5080915050919050565b600061029d620f424061028f846000800160009054906101000a900473ffffffffffffffffffffffffffffffffffffffff1673ffffffffffffffffffffffffffffffffffffffff166318160ddd6040518163ffffffff1660e01b815260040160206040518083038186803b15801561024657600080fd5b505afa15801561025a573d6000803e3d6000fd5b505050506040513d602081101561027057600080fd5b81019080805190602001909291905050506104b890919063ffffffff16565b61053e90919063ffffffff16565b9050919050565b6000806102b460006007016105c7565b905060006001905060005b828110156104af57426000600e016000838152602001908152602001600020541161049d576103126000601601546000600e016000848152602001908152602001600020546105dc90919063ffffffff16565b6000600e0160008381526020019081526020016000208190555060005b60006010018054905081101561049757600080601001828154811061035057fe5b906000526020600020906002020160000154111561048a57600060030160009054906101000a900473ffffffffffffffffffffffffffffffffffffffff1673ffffffffffffffffffffffffffffffffffffffff16636a20de92600060100183815481106103b957fe5b906000526020600020906002020160010160009054906101000a900473ffffffffffffffffffffffffffffffffffffffff16610415600060100185815481106103fe57fe5b9060005260206000209060020201600001546101cf565b6040518363ffffffff1660e01b8152600401808373ffffffffffffffffffffffffffffffffffffffff16815260200182815260200192505050600060405180830381600087803b15801561046857600080fd5b505af115801561047c573d6000803e3d6000fd5b5050505061048981610664565b5b808060010191505061032f565b506104a2565b600091505b80806001019150506102bf565b50809250505090565b6000808314156104cb5760009050610538565b60008284029050828482816104dc57fe5b0414610533576040517f08c379a00000000000000000000000000000000000000000000000000000000081526004018080602001828103825260218152602001806108906021913960400191505060405180910390fd5b809150505b92915050565b60008082116105b5576040517f08c379a000000000000000000000000000000000000000000000000000000000815260040180806020018281038252601a8152602001807f536166654d6174683a206469766973696f6e206279207a65726f00000000000081525060200191505060405180910390fd5b8183816105be57fe5b04905092915050565b60006105d5826000016107fb565b9050919050565b60008082840190508381101561065a576040517f08c379a000000000000000000000000000000000000000000000000000000000815260040180806020018281038252601b8152602001807f536166654d6174683a206164646974696f6e206f766572666c6f77000000000081525060200191505060405180910390fd5b8091505092915050565b6000806011016000838152602001908152602001600020905060008160010154146107f7578060000160009054906101000a900460ff161561074d576106d88160010154600060100184815481106106b857fe5b9060005260206000209060020201600001546105dc90919063ffffffff16565b600060100183815481106106e857fe5b90600052602060002090600202016000018190555080600201546000601001838154811061071257fe5b90600052602060002090600202016000015410610748576000806011016000848152602001908152602001600020600101819055505b6107f6565b61078581600101546000601001848154811061076557fe5b90600052602060002090600202016000015461080c90919063ffffffff16565b6000601001838154811061079557fe5b9060005260206000209060020201600001819055508060020154600060100183815481106107bf57fe5b906000526020600020906002020160000154116107f5576000806011016000848152602001908152602001600020600101819055505b5b5b5050565b600081600001805490509050919050565b600082821115610884576040517f08c379a000000000000000000000000000000000000000000000000000000000815260040180806020018281038252601e8152602001807f536166654d6174683a207375627472616374696f6e206f766572666c6f77000081525060200191505060405180910390fd5b81830390509291505056fe536166654d6174683a206d756c7469706c69636174696f6e206f766572666c6f77a264697066735822122098991d26f7bd9de6e25047c74c4776981bdbddd09a74ec6e95a951ea09dbb40964736f6c63430007050033",
  "devdoc": {
    "kind": "dev",
    "methods": {
      "nextRewardAt(uint256)": {
        "params": {
          "_rate": "uint"
        },
        "returns": {
          "_0": "uint"
        }
      },
      "nextRewardFor(address)": {
        "params": {
          "_recipient": "address"
        },
        "returns": {
          "_0": "uint"
        }
      }
    },
    "version": 1
  },
  "userdoc": {
    "kind": "user",
    "methods": {
      "distribute()": {
        "notice": "send epoch reward to staking contract"
      },
      "nextRewardAt(uint256)": {
        "notice": "view function for next reward at given rate"
      },
      "nextRewardFor(address)": {
        "notice": "view function for next reward for specified address"
      }
    },
    "version": 1
  },
  "storageLayout": {
    "storage": [
      {
        "astId": 7420,
        "contract": "contracts/facets/Bond/DistributorFacet.sol:DistributorFacet",
        "label": "s",
        "offset": 0,
        "slot": "0",
        "type": "t_struct(Storage)19335_storage"
      }
    ],
    "types": {
      "t_address": {
        "encoding": "inplace",
        "label": "address",
        "numberOfBytes": "20"
      },
      "t_array(t_bytes32)dyn_storage": {
        "base": "t_bytes32",
        "encoding": "dynamic_array",
        "label": "bytes32[]",
        "numberOfBytes": "32"
      },
      "t_array(t_struct(Info)19198_storage)dyn_storage": {
        "base": "t_struct(Info)19198_storage",
        "encoding": "dynamic_array",
        "label": "struct LibBondStorage.Info[]",
        "numberOfBytes": "32"
      },
      "t_array(t_struct(Payout)19193_storage)dyn_storage": {
        "base": "t_struct(Payout)19193_storage",
        "encoding": "dynamic_array",
        "label": "struct LibBondStorage.Payout[]",
        "numberOfBytes": "32"
      },
      "t_bool": {
        "encoding": "inplace",
        "label": "bool",
        "numberOfBytes": "1"
      },
      "t_bytes32": {
        "encoding": "inplace",
        "label": "bytes32",
        "numberOfBytes": "32"
      },
      "t_mapping(t_address,t_mapping(t_uint256,t_struct(Bond)19229_storage))": {
        "encoding": "mapping",
        "key": "t_address",
        "label": "mapping(address => mapping(uint256 => struct LibBondStorage.Bond))",
        "numberOfBytes": "32",
        "value": "t_mapping(t_uint256,t_struct(Bond)19229_storage)"
      },
      "t_mapping(t_address,t_struct(Claim)19256_storage)": {
        "encoding": "mapping",
        "key": "t_address",
        "label": "mapping(address => struct LibBondStorage.Claim)",
        "numberOfBytes": "32",
        "value": "t_struct(Claim)19256_storage"
      },
      "t_mapping(t_bytes32,t_uint256)": {
        "encoding": "mapping",
        "key": "t_bytes32",
        "label": "mapping(bytes32 => uint256)",
        "numberOfBytes": "32",
        "value": "t_uint256"
      },
      "t_mapping(t_uint256,t_address)": {
        "encoding": "mapping",
        "key": "t_uint256",
        "label": "mapping(uint256 => address)",
        "numberOfBytes": "32",
        "value": "t_address"
      },
      "t_mapping(t_uint256,t_array(t_struct(Payout)19193_storage)dyn_storage)": {
        "encoding": "mapping",
        "key": "t_uint256",
        "label": "mapping(uint256 => struct LibBondStorage.Payout[])",
        "numberOfBytes": "32",
        "value": "t_array(t_struct(Payout)19193_storage)dyn_storage"
      },
      "t_mapping(t_uint256,t_struct(Bond)19229_storage)": {
        "encoding": "mapping",
        "key": "t_uint256",
        "label": "mapping(uint256 => struct LibBondStorage.Bond)",
        "numberOfBytes": "32",
        "value": "t_struct(Bond)19229_storage"
      },
      "t_mapping(t_uint256,t_struct(BondDepositoryAdjustment)19238_storage)": {
        "encoding": "mapping",
        "key": "t_uint256",
        "label": "mapping(uint256 => struct LibBondStorage.BondDepositoryAdjustment)",
        "numberOfBytes": "32",
        "value": "t_struct(BondDepositoryAdjustment)19238_storage"
      },
      "t_mapping(t_uint256,t_struct(DistributorAdjustment)19205_storage)": {
        "encoding": "mapping",
        "key": "t_uint256",
        "label": "mapping(uint256 => struct LibBondStorage.DistributorAdjustment)",
        "numberOfBytes": "32",
        "value": "t_struct(DistributorAdjustment)19205_storage"
      },
      "t_mapping(t_uint256,t_struct(Terms)19220_storage)": {
        "encoding": "mapping",
        "key": "t_uint256",
        "label": "mapping(uint256 => struct LibBondStorage.Terms)",
        "numberOfBytes": "32",
        "value": "t_struct(Terms)19220_storage"
      },
      "t_mapping(t_uint256,t_uint256)": {
        "encoding": "mapping",
        "key": "t_uint256",
        "label": "mapping(uint256 => uint256)",
        "numberOfBytes": "32",
        "value": "t_uint256"
      },
      "t_struct(AddressSet)2423_storage": {
        "encoding": "inplace",
        "label": "struct EnumerableSet.AddressSet",
        "members": [
          {
            "astId": 2422,
            "contract": "contracts/facets/Bond/DistributorFacet.sol:DistributorFacet",
            "label": "_inner",
            "offset": 0,
            "slot": "0",
            "type": "t_struct(Set)2158_storage"
          }
        ],
        "numberOfBytes": "64"
      },
      "t_struct(Bond)19229_storage": {
        "encoding": "inplace",
        "label": "struct LibBondStorage.Bond",
        "members": [
          {
            "astId": 19222,
            "contract": "contracts/facets/Bond/DistributorFacet.sol:DistributorFacet",
            "label": "payout",
            "offset": 0,
            "slot": "0",
            "type": "t_uint256"
          },
          {
            "astId": 19224,
            "contract": "contracts/facets/Bond/DistributorFacet.sol:DistributorFacet",
            "label": "pricePaid",
            "offset": 0,
            "slot": "1",
            "type": "t_uint256"
          },
          {
            "astId": 19226,
            "contract": "contracts/facets/Bond/DistributorFacet.sol:DistributorFacet",
            "label": "lastTime",
            "offset": 0,
            "slot": "2",
            "type": "t_uint256"
          },
          {
            "astId": 19228,
            "contract": "contracts/facets/Bond/DistributorFacet.sol:DistributorFacet",
            "label": "vesting",
            "offset": 0,
            "slot": "3",
            "type": "t_uint256"
          }
        ],
        "numberOfBytes": "128"
      },
      "t_struct(BondDepositoryAdjustment)19238_storage": {
        "encoding": "inplace",
        "label": "struct LibBondStorage.BondDepositoryAdjustment",
        "members": [
          {
            "astId": 19231,
            "contract": "contracts/facets/Bond/DistributorFacet.sol:DistributorFacet",
            "label": "add",
            "offset": 0,
            "slot": "0",
            "type": "t_bool"
          },
          {
            "astId": 19233,
            "contract": "contracts/facets/Bond/DistributorFacet.sol:DistributorFacet",
            "label": "delta",
            "offset": 0,
            "slot": "1",
            "type": "t_uint256"
          },
          {
            "astId": 19235,
            "contract": "contracts/facets/Bond/DistributorFacet.sol:DistributorFacet",
            "label": "timeToTarget",
            "offset": 0,
            "slot": "2",
            "type": "t_uint256"
          },
          {
            "astId": 19237,
            "contract": "contracts/facets/Bond/DistributorFacet.sol:DistributorFacet",
            "label": "lastTime",
            "offset": 0,
            "slot": "3",
            "type": "t_uint256"
          }
        ],
        "numberOfBytes": "128"
      },
      "t_struct(Claim)19256_storage": {
        "encoding": "inplace",
        "label": "struct LibBondStorage.Claim",
        "members": [
          {
            "astId": 19249,
            "contract": "contracts/facets/Bond/DistributorFacet.sol:DistributorFacet",
            "label": "deposit",
            "offset": 0,
            "slot": "0",
            "type": "t_uint256"
          },
          {
            "astId": 19251,
            "contract": "contracts/facets/Bond/DistributorFacet.sol:DistributorFacet",
            "label": "gons",
            "offset": 0,
            "slot": "1",
            "type": "t_uint256"
          },
          {
            "astId": 19253,
            "contract": "contracts/facets/Bond/DistributorFacet.sol:DistributorFacet",
            "label": "expiry",
            "offset": 0,
            "slot": "2",
            "type": "t_uint256"
          },
          {
            "astId": 19255,
            "contract": "contracts/facets/Bond/DistributorFacet.sol:DistributorFacet",
            "label": "lock",
            "offset": 0,
            "slot": "3",
            "type": "t_bool"
          }
        ],
        "numberOfBytes": "128"
      },
      "t_struct(DistributorAdjustment)19205_storage": {
        "encoding": "inplace",
        "label": "struct LibBondStorage.DistributorAdjustment",
        "members": [
          {
            "astId": 19200,
            "contract": "contracts/facets/Bond/DistributorFacet.sol:DistributorFacet",
            "label": "add",
            "offset": 0,
            "slot": "0",
            "type": "t_bool"
          },
          {
            "astId": 19202,
            "contract": "contracts/facets/Bond/DistributorFacet.sol:DistributorFacet",
            "label": "rate",
            "offset": 0,
            "slot": "1",
            "type": "t_uint256"
          },
          {
            "astId": 19204,
            "contract": "contracts/facets/Bond/DistributorFacet.sol:DistributorFacet",
            "label": "target",
            "offset": 0,
            "slot": "2",
            "type": "t_uint256"
          }
        ],
        "numberOfBytes": "96"
      },
      "t_struct(Epoch)19247_storage": {
        "encoding": "inplace",
        "label": "struct LibBondStorage.Epoch",
        "members": [
          {
            "astId": 19240,
            "contract": "contracts/facets/Bond/DistributorFacet.sol:DistributorFacet",
            "label": "number",
            "offset": 0,
            "slot": "0",
            "type": "t_uint256"
          },
          {
            "astId": 19242,
            "contract": "contracts/facets/Bond/DistributorFacet.sol:DistributorFacet",
            "label": "distribute",
            "offset": 0,
            "slot": "1",
            "type": "t_uint256"
          },
          {
            "astId": 19244,
            "contract": "contracts/facets/Bond/DistributorFacet.sol:DistributorFacet",
            "label": "length",
            "offset": 0,
            "slot": "2",
            "type": "t_uint256"
          },
          {
            "astId": 19246,
            "contract": "contracts/facets/Bond/DistributorFacet.sol:DistributorFacet",
            "label": "endTime",
            "offset": 0,
            "slot": "3",
            "type": "t_uint256"
          }
        ],
        "numberOfBytes": "128"
      },
      "t_struct(Info)19198_storage": {
        "encoding": "inplace",
        "label": "struct LibBondStorage.Info",
        "members": [
          {
            "astId": 19195,
            "contract": "contracts/facets/Bond/DistributorFacet.sol:DistributorFacet",
            "label": "rate",
            "offset": 0,
            "slot": "0",
            "type": "t_uint256"
          },
          {
            "astId": 19197,
            "contract": "contracts/facets/Bond/DistributorFacet.sol:DistributorFacet",
            "label": "recipient",
            "offset": 0,
            "slot": "1",
            "type": "t_address"
          }
        ],
        "numberOfBytes": "64"
      },
      "t_struct(Payout)19193_storage": {
        "encoding": "inplace",
        "label": "struct LibBondStorage.Payout",
        "members": [
          {
            "astId": 19190,
            "contract": "contracts/facets/Bond/DistributorFacet.sol:DistributorFacet",
            "label": "amount",
            "offset": 0,
            "slot": "0",
            "type": "t_uint256"
          },
          {
            "astId": 19192,
            "contract": "contracts/facets/Bond/DistributorFacet.sol:DistributorFacet",
            "label": "blockTimestamp",
            "offset": 0,
            "slot": "1",
            "type": "t_uint256"
          }
        ],
        "numberOfBytes": "64"
      },
      "t_struct(Set)2158_storage": {
        "encoding": "inplace",
        "label": "struct EnumerableSet.Set",
        "members": [
          {
            "astId": 2153,
            "contract": "contracts/facets/Bond/DistributorFacet.sol:DistributorFacet",
            "label": "_values",
            "offset": 0,
            "slot": "0",
            "type": "t_array(t_bytes32)dyn_storage"
          },
          {
            "astId": 2157,
            "contract": "contracts/facets/Bond/DistributorFacet.sol:DistributorFacet",
            "label": "_indexes",
            "offset": 0,
            "slot": "1",
            "type": "t_mapping(t_bytes32,t_uint256)"
          }
        ],
        "numberOfBytes": "64"
      },
      "t_struct(Storage)19335_storage": {
        "encoding": "inplace",
        "label": "struct LibBondStorage.Storage",
        "members": [
          {
            "astId": 19258,
            "contract": "contracts/facets/Bond/DistributorFacet.sol:DistributorFacet",
            "label": "Necc",
            "offset": 0,
            "slot": "0",
            "type": "t_address"
          },
          {
            "astId": 19260,
            "contract": "contracts/facets/Bond/DistributorFacet.sol:DistributorFacet",
            "label": "nNecc",
            "offset": 0,
            "slot": "1",
            "type": "t_address"
          },
          {
            "astId": 19262,
            "contract": "contracts/facets/Bond/DistributorFacet.sol:DistributorFacet",
            "label": "nusd",
            "offset": 0,
            "slot": "2",
            "type": "t_address"
          },
          {
            "astId": 19264,
            "contract": "contracts/facets/Bond/DistributorFacet.sol:DistributorFacet",
            "label": "treasury",
            "offset": 0,
            "slot": "3",
            "type": "t_address"
          },
          {
            "astId": 19266,
            "contract": "contracts/facets/Bond/DistributorFacet.sol:DistributorFacet",
            "label": "DAO",
            "offset": 0,
            "slot": "4",
            "type": "t_address"
          },
          {
            "astId": 19268,
            "contract": "contracts/facets/Bond/DistributorFacet.sol:DistributorFacet",
            "label": "farmDistributor",
            "offset": 0,
            "slot": "5",
            "type": "t_address"
          },
          {
            "astId": 19270,
            "contract": "contracts/facets/Bond/DistributorFacet.sol:DistributorFacet",
            "label": "staking",
            "offset": 0,
            "slot": "6",
            "type": "t_address"
          },
          {
            "astId": 19272,
            "contract": "contracts/facets/Bond/DistributorFacet.sol:DistributorFacet",
            "label": "principles",
            "offset": 0,
            "slot": "7",
            "type": "t_struct(AddressSet)2423_storage"
          },
          {
            "astId": 19276,
            "contract": "contracts/facets/Bond/DistributorFacet.sol:DistributorFacet",
            "label": "terms",
            "offset": 0,
            "slot": "9",
            "type": "t_mapping(t_uint256,t_struct(Terms)19220_storage)"
          },
          {
            "astId": 19280,
            "contract": "contracts/facets/Bond/DistributorFacet.sol:DistributorFacet",
            "label": "bondDepositoryAdjustment",
            "offset": 0,
            "slot": "10",
            "type": "t_mapping(t_uint256,t_struct(BondDepositoryAdjustment)19238_storage)"
          },
          {
            "astId": 19286,
            "contract": "contracts/facets/Bond/DistributorFacet.sol:DistributorFacet",
            "label": "bondInfo",
            "offset": 0,
            "slot": "11",
            "type": "t_mapping(t_address,t_mapping(t_uint256,t_struct(Bond)19229_storage))"
          },
          {
            "astId": 19290,
            "contract": "contracts/facets/Bond/DistributorFacet.sol:DistributorFacet",
            "label": "totalDebt",
            "offset": 0,
            "slot": "12",
            "type": "t_mapping(t_uint256,t_uint256)"
          },
          {
            "astId": 19294,
            "contract": "contracts/facets/Bond/DistributorFacet.sol:DistributorFacet",
            "label": "lastDecay",
            "offset": 0,
            "slot": "13",
            "type": "t_mapping(t_uint256,t_uint256)"
          },
          {
            "astId": 19298,
            "contract": "contracts/facets/Bond/DistributorFacet.sol:DistributorFacet",
            "label": "nextEpochTimestamp",
            "offset": 0,
            "slot": "14",
            "type": "t_mapping(t_uint256,t_uint256)"
          },
          {
            "astId": 19302,
            "contract": "contracts/facets/Bond/DistributorFacet.sol:DistributorFacet",
            "label": "priceFeeds",
            "offset": 0,
            "slot": "15",
            "type": "t_mapping(t_uint256,t_address)"
          },
          {
            "astId": 19305,
            "contract": "contracts/facets/Bond/DistributorFacet.sol:DistributorFacet",
            "label": "info",
            "offset": 0,
            "slot": "16",
            "type": "t_array(t_struct(Info)19198_storage)dyn_storage"
          },
          {
            "astId": 19309,
            "contract": "contracts/facets/Bond/DistributorFacet.sol:DistributorFacet",
            "label": "distributorAdjustments",
            "offset": 0,
            "slot": "17",
            "type": "t_mapping(t_uint256,t_struct(DistributorAdjustment)19205_storage)"
          },
          {
            "astId": 19311,
            "contract": "contracts/facets/Bond/DistributorFacet.sol:DistributorFacet",
            "label": "epoch",
            "offset": 0,
            "slot": "18",
            "type": "t_struct(Epoch)19247_storage"
          },
          {
            "astId": 19313,
            "contract": "contracts/facets/Bond/DistributorFacet.sol:DistributorFacet",
            "label": "epochLength",
            "offset": 0,
            "slot": "22",
            "type": "t_uint256"
          },
          {
            "astId": 19315,
            "contract": "contracts/facets/Bond/DistributorFacet.sol:DistributorFacet",
            "label": "distributor",
            "offset": 0,
            "slot": "23",
            "type": "t_address"
          },
          {
            "astId": 19317,
            "contract": "contracts/facets/Bond/DistributorFacet.sol:DistributorFacet",
            "label": "locker",
            "offset": 0,
            "slot": "24",
            "type": "t_address"
          },
          {
            "astId": 19319,
            "contract": "contracts/facets/Bond/DistributorFacet.sol:DistributorFacet",
            "label": "totalBonus",
            "offset": 0,
            "slot": "25",
            "type": "t_uint256"
          },
          {
            "astId": 19321,
            "contract": "contracts/facets/Bond/DistributorFacet.sol:DistributorFacet",
            "label": "warmupPeriod",
            "offset": 0,
            "slot": "26",
            "type": "t_uint256"
          },
          {
            "astId": 19325,
            "contract": "contracts/facets/Bond/DistributorFacet.sol:DistributorFacet",
            "label": "warmupInfo",
            "offset": 0,
            "slot": "27",
            "type": "t_mapping(t_address,t_struct(Claim)19256_storage)"
          },
          {
            "astId": 19327,
            "contract": "contracts/facets/Bond/DistributorFacet.sol:DistributorFacet",
            "label": "targetSum",
            "offset": 0,
            "slot": "28",
            "type": "t_uint256"
          },
          {
            "astId": 19332,
            "contract": "contracts/facets/Bond/DistributorFacet.sol:DistributorFacet",
            "label": "payouts",
            "offset": 0,
            "slot": "29",
            "type": "t_mapping(t_uint256,t_array(t_struct(Payout)19193_storage)dyn_storage)"
          },
          {
            "astId": 19334,
            "contract": "contracts/facets/Bond/DistributorFacet.sol:DistributorFacet",
            "label": "gonsInWarmup",
            "offset": 0,
            "slot": "30",
            "type": "t_uint256"
          }
        ],
        "numberOfBytes": "992"
      },
      "t_struct(Terms)19220_storage": {
        "encoding": "inplace",
        "label": "struct LibBondStorage.Terms",
        "members": [
          {
            "astId": 19207,
            "contract": "contracts/facets/Bond/DistributorFacet.sol:DistributorFacet",
            "label": "controlVariable",
            "offset": 0,
            "slot": "0",
            "type": "t_uint256"
          },
          {
            "astId": 19209,
            "contract": "contracts/facets/Bond/DistributorFacet.sol:DistributorFacet",
            "label": "minimumPrice",
            "offset": 0,
            "slot": "1",
            "type": "t_uint256"
          },
          {
            "astId": 19211,
            "contract": "contracts/facets/Bond/DistributorFacet.sol:DistributorFacet",
            "label": "maxPayout",
            "offset": 0,
            "slot": "2",
            "type": "t_uint256"
          },
          {
            "astId": 19213,
            "contract": "contracts/facets/Bond/DistributorFacet.sol:DistributorFacet",
            "label": "fee",
            "offset": 0,
            "slot": "3",
            "type": "t_uint256"
          },
          {
            "astId": 19215,
            "contract": "contracts/facets/Bond/DistributorFacet.sol:DistributorFacet",
            "label": "maxDebt",
            "offset": 0,
            "slot": "4",
            "type": "t_uint256"
          },
          {
            "astId": 19217,
            "contract": "contracts/facets/Bond/DistributorFacet.sol:DistributorFacet",
            "label": "vestingTerm",
            "offset": 0,
            "slot": "5",
            "type": "t_uint256"
          },
          {
            "astId": 19219,
            "contract": "contracts/facets/Bond/DistributorFacet.sol:DistributorFacet",
            "label": "isLiquidityBond",
            "offset": 0,
            "slot": "6",
            "type": "t_bool"
          }
        ],
        "numberOfBytes": "224"
      },
      "t_uint256": {
        "encoding": "inplace",
        "label": "uint256",
        "numberOfBytes": "32"
      }
    }
  }
}