{
  "address": "0xDefe4e283f3Ac687f08F7504BA4657f0C0DA68E5",
  "abi": [
    {
      "inputs": [
        {
          "internalType": "uint80",
          "name": "_roundId",
          "type": "uint80"
        }
      ],
      "name": "getRoundData",
      "outputs": [
        {
          "internalType": "uint80",
          "name": "",
          "type": "uint80"
        },
        {
          "internalType": "int256",
          "name": "",
          "type": "int256"
        },
        {
          "internalType": "uint256",
          "name": "",
          "type": "uint256"
        },
        {
          "internalType": "uint256",
          "name": "",
          "type": "uint256"
        },
        {
          "internalType": "uint80",
          "name": "",
          "type": "uint80"
        }
      ],
      "stateMutability": "view",
      "type": "function"
    },
    {
      "inputs": [],
      "name": "latestAnswer",
      "outputs": [
        {
          "internalType": "int256",
          "name": "",
          "type": "int256"
        }
      ],
      "stateMutability": "view",
      "type": "function"
    },
    {
      "inputs": [],
      "name": "latestRound",
      "outputs": [
        {
          "internalType": "uint80",
          "name": "",
          "type": "uint80"
        }
      ],
      "stateMutability": "view",
      "type": "function"
    },
    {
      "inputs": [
        {
          "internalType": "int256",
          "name": "_answer",
          "type": "int256"
        }
      ],
      "name": "setLatestAnswer",
      "outputs": [],
      "stateMutability": "nonpayable",
      "type": "function"
    }
  ],
  "transactionHash": "0xc87ae1a70b22e962beb111377a5217142ea2a4849e88027a9b3c9548435f46a1",
  "args": [],
  "solcInputHash": "d18af1576525fad111bdab922fe38365",
  "bytecode": "0x608060405234801561001057600080fd5b5060008060000160006101000a81548160ff0219169083151502179055506104168061003d6000396000f3fe608060405234801561001057600080fd5b506004361061004c5760003560e01c806304ea97b01461005157806350d25bcd1461007f578063668a0f021461009d5780639a6fc8f5146100c7575b600080fd5b61007d6004803603602081101561006757600080fd5b8101908080359060200190929190505050610149565b005b6100876101f9565b6040518082815260200191505060405180910390f35b6100a5610205565b604051808269ffffffffffffffffffff16815260200191505060405180910390f35b6100ff600480360360208110156100dd57600080fd5b81019080803569ffffffffffffffffffff169060200190929190505050610227565b604051808669ffffffffffffffffffff1681526020018581526020018481526020018381526020018269ffffffffffffffffffff1681526020019550505050505060405180910390f35b610151610277565b60016000601b0160009054906101000a900469ffffffffffffffffffff16016000601b0160006101000a81548169ffffffffffffffffffff021916908369ffffffffffffffffffff160217905550806000601a0181905550806000601c01600080601b0160009054906101000a900469ffffffffffffffffffff1669ffffffffffffffffffff1669ffffffffffffffffffff1681526020019081526020016000208190555050565b600080601a0154905090565b600080601b0160009054906101000a900469ffffffffffffffffffff16905090565b6000806000806000856000601c0160008869ffffffffffffffffffff1669ffffffffffffffffffff1681526020019081526020016000205460008060009450945094509450945091939590929450565b61027f610281565b565b61028961031c565b60040160009054906101000a900473ffffffffffffffffffffffffffffffffffffffff1673ffffffffffffffffffffffffffffffffffffffff163373ffffffffffffffffffffffffffffffffffffffff161461031a576040517f08c379a0000000000000000000000000000000000000000000000000000000008152600401610311906103af565b60405180910390fd5b565b6000807fc8fcad8db84d3cc18b4c41d551ea0ee66dd599cde068d998e57d5e09332c131c90508091505090565b60006103566022836103cf565b91507f4c69624469616d6f6e643a20696e76616c696420636f6e7472616374206f776e60008301527f65720000000000000000000000000000000000000000000000000000000000006020830152604082019050919050565b600060208201905081810360008301526103c881610349565b9050919050565b60008282526020820190509291505056fea2646970667358221220790e094911bb836bfe0517446fdd0cd8c46675ad314737a3a812d84ad8ccd04564736f6c63430007050033",
  "devdoc": {
    "kind": "dev",
    "methods": {},
    "version": 1
  },
  "userdoc": {
    "kind": "user",
    "methods": {},
    "version": 1
  },
  "storageLayout": {
    "storage": [
      {
        "astId": 3608,
        "contract": "contracts/facets/VaultPriceFeed/PriceFeedFacet.sol:PriceFeedFacet",
        "label": "s",
        "offset": 0,
        "slot": "0",
        "type": "t_struct(Storage)10018_storage"
      }
    ],
    "types": {
      "t_address": {
        "encoding": "inplace",
        "label": "address",
        "numberOfBytes": "20"
      },
      "t_array(t_bytes32)dyn_storage": {
        "base": "t_bytes32",
        "encoding": "dynamic_array",
        "label": "bytes32[]",
        "numberOfBytes": "32"
      },
      "t_bool": {
        "encoding": "inplace",
        "label": "bool",
        "numberOfBytes": "1"
      },
      "t_bytes32": {
        "encoding": "inplace",
        "label": "bytes32",
        "numberOfBytes": "32"
      },
      "t_int256": {
        "encoding": "inplace",
        "label": "int256",
        "numberOfBytes": "32"
      },
      "t_mapping(t_address,t_address)": {
        "encoding": "mapping",
        "key": "t_address",
        "label": "mapping(address => address)",
        "numberOfBytes": "32",
        "value": "t_address"
      },
      "t_mapping(t_address,t_bool)": {
        "encoding": "mapping",
        "key": "t_address",
        "label": "mapping(address => bool)",
        "numberOfBytes": "32",
        "value": "t_bool"
      },
      "t_mapping(t_address,t_int256)": {
        "encoding": "mapping",
        "key": "t_address",
        "label": "mapping(address => int256)",
        "numberOfBytes": "32",
        "value": "t_int256"
      },
      "t_mapping(t_address,t_mapping(t_address,t_int256))": {
        "encoding": "mapping",
        "key": "t_address",
        "label": "mapping(address => mapping(address => int256))",
        "numberOfBytes": "32",
        "value": "t_mapping(t_address,t_int256)"
      },
      "t_mapping(t_address,t_uint256)": {
        "encoding": "mapping",
        "key": "t_address",
        "label": "mapping(address => uint256)",
        "numberOfBytes": "32",
        "value": "t_uint256"
      },
      "t_mapping(t_bytes32,t_struct(Position)9905_storage)": {
        "encoding": "mapping",
        "key": "t_bytes32",
        "label": "mapping(bytes32 => struct LibExchangeStorage.Position)",
        "numberOfBytes": "32",
        "value": "t_struct(Position)9905_storage"
      },
      "t_mapping(t_bytes32,t_uint256)": {
        "encoding": "mapping",
        "key": "t_bytes32",
        "label": "mapping(bytes32 => uint256)",
        "numberOfBytes": "32",
        "value": "t_uint256"
      },
      "t_mapping(t_uint80,t_int256)": {
        "encoding": "mapping",
        "key": "t_uint80",
        "label": "mapping(uint80 => int256)",
        "numberOfBytes": "32",
        "value": "t_int256"
      },
      "t_struct(AddressSet)1217_storage": {
        "encoding": "inplace",
        "label": "struct EnumerableSet.AddressSet",
        "members": [
          {
            "astId": 1216,
            "contract": "contracts/facets/VaultPriceFeed/PriceFeedFacet.sol:PriceFeedFacet",
            "label": "_inner",
            "offset": 0,
            "slot": "0",
            "type": "t_struct(Set)952_storage"
          }
        ],
        "numberOfBytes": "64"
      },
      "t_struct(Position)9905_storage": {
        "encoding": "inplace",
        "label": "struct LibExchangeStorage.Position",
        "members": [
          {
            "astId": 9892,
            "contract": "contracts/facets/VaultPriceFeed/PriceFeedFacet.sol:PriceFeedFacet",
            "label": "size",
            "offset": 0,
            "slot": "0",
            "type": "t_uint256"
          },
          {
            "astId": 9894,
            "contract": "contracts/facets/VaultPriceFeed/PriceFeedFacet.sol:PriceFeedFacet",
            "label": "collateral",
            "offset": 0,
            "slot": "1",
            "type": "t_uint256"
          },
          {
            "astId": 9896,
            "contract": "contracts/facets/VaultPriceFeed/PriceFeedFacet.sol:PriceFeedFacet",
            "label": "averagePrice",
            "offset": 0,
            "slot": "2",
            "type": "t_uint256"
          },
          {
            "astId": 9898,
            "contract": "contracts/facets/VaultPriceFeed/PriceFeedFacet.sol:PriceFeedFacet",
            "label": "entryFundingRate",
            "offset": 0,
            "slot": "3",
            "type": "t_uint256"
          },
          {
            "astId": 9900,
            "contract": "contracts/facets/VaultPriceFeed/PriceFeedFacet.sol:PriceFeedFacet",
            "label": "reserveAmount",
            "offset": 0,
            "slot": "4",
            "type": "t_uint256"
          },
          {
            "astId": 9902,
            "contract": "contracts/facets/VaultPriceFeed/PriceFeedFacet.sol:PriceFeedFacet",
            "label": "realisedPnl",
            "offset": 0,
            "slot": "5",
            "type": "t_int256"
          },
          {
            "astId": 9904,
            "contract": "contracts/facets/VaultPriceFeed/PriceFeedFacet.sol:PriceFeedFacet",
            "label": "lastIncreasedTime",
            "offset": 0,
            "slot": "6",
            "type": "t_uint256"
          }
        ],
        "numberOfBytes": "224"
      },
      "t_struct(Set)952_storage": {
        "encoding": "inplace",
        "label": "struct EnumerableSet.Set",
        "members": [
          {
            "astId": 947,
            "contract": "contracts/facets/VaultPriceFeed/PriceFeedFacet.sol:PriceFeedFacet",
            "label": "_values",
            "offset": 0,
            "slot": "0",
            "type": "t_array(t_bytes32)dyn_storage"
          },
          {
            "astId": 951,
            "contract": "contracts/facets/VaultPriceFeed/PriceFeedFacet.sol:PriceFeedFacet",
            "label": "_indexes",
            "offset": 0,
            "slot": "1",
            "type": "t_mapping(t_bytes32,t_uint256)"
          }
        ],
        "numberOfBytes": "64"
      },
      "t_struct(Storage)10018_storage": {
        "encoding": "inplace",
        "label": "struct LibExchangeStorage.Storage",
        "members": [
          {
            "astId": 9907,
            "contract": "contracts/facets/VaultPriceFeed/PriceFeedFacet.sol:PriceFeedFacet",
            "label": "contractEntered",
            "offset": 0,
            "slot": "0",
            "type": "t_bool"
          },
          {
            "astId": 9909,
            "contract": "contracts/facets/VaultPriceFeed/PriceFeedFacet.sol:PriceFeedFacet",
            "label": "btc",
            "offset": 1,
            "slot": "0",
            "type": "t_address"
          },
          {
            "astId": 9911,
            "contract": "contracts/facets/VaultPriceFeed/PriceFeedFacet.sol:PriceFeedFacet",
            "label": "weth",
            "offset": 0,
            "slot": "1",
            "type": "t_address"
          },
          {
            "astId": 9913,
            "contract": "contracts/facets/VaultPriceFeed/PriceFeedFacet.sol:PriceFeedFacet",
            "label": "nusd",
            "offset": 0,
            "slot": "2",
            "type": "t_address"
          },
          {
            "astId": 9915,
            "contract": "contracts/facets/VaultPriceFeed/PriceFeedFacet.sol:PriceFeedFacet",
            "label": "includeAmmPrice",
            "offset": 20,
            "slot": "2",
            "type": "t_bool"
          },
          {
            "astId": 9917,
            "contract": "contracts/facets/VaultPriceFeed/PriceFeedFacet.sol:PriceFeedFacet",
            "label": "isInitialized",
            "offset": 21,
            "slot": "2",
            "type": "t_bool"
          },
          {
            "astId": 9919,
            "contract": "contracts/facets/VaultPriceFeed/PriceFeedFacet.sol:PriceFeedFacet",
            "label": "tokens",
            "offset": 0,
            "slot": "3",
            "type": "t_struct(AddressSet)1217_storage"
          },
          {
            "astId": 9923,
            "contract": "contracts/facets/VaultPriceFeed/PriceFeedFacet.sol:PriceFeedFacet",
            "label": "whitelistedTokens",
            "offset": 0,
            "slot": "5",
            "type": "t_mapping(t_address,t_bool)"
          },
          {
            "astId": 9927,
            "contract": "contracts/facets/VaultPriceFeed/PriceFeedFacet.sol:PriceFeedFacet",
            "label": "positions",
            "offset": 0,
            "slot": "6",
            "type": "t_mapping(t_bytes32,t_struct(Position)9905_storage)"
          },
          {
            "astId": 9931,
            "contract": "contracts/facets/VaultPriceFeed/PriceFeedFacet.sol:PriceFeedFacet",
            "label": "tokenDecimals",
            "offset": 0,
            "slot": "7",
            "type": "t_mapping(t_address,t_uint256)"
          },
          {
            "astId": 9935,
            "contract": "contracts/facets/VaultPriceFeed/PriceFeedFacet.sol:PriceFeedFacet",
            "label": "redemptionBasisPoints",
            "offset": 0,
            "slot": "8",
            "type": "t_mapping(t_address,t_uint256)"
          },
          {
            "astId": 9939,
            "contract": "contracts/facets/VaultPriceFeed/PriceFeedFacet.sol:PriceFeedFacet",
            "label": "minProfitBasisPoints",
            "offset": 0,
            "slot": "9",
            "type": "t_mapping(t_address,t_uint256)"
          },
          {
            "astId": 9943,
            "contract": "contracts/facets/VaultPriceFeed/PriceFeedFacet.sol:PriceFeedFacet",
            "label": "tokenBalances",
            "offset": 0,
            "slot": "10",
            "type": "t_mapping(t_address,t_uint256)"
          },
          {
            "astId": 9947,
            "contract": "contracts/facets/VaultPriceFeed/PriceFeedFacet.sol:PriceFeedFacet",
            "label": "nusdAmounts",
            "offset": 0,
            "slot": "11",
            "type": "t_mapping(t_address,t_uint256)"
          },
          {
            "astId": 9951,
            "contract": "contracts/facets/VaultPriceFeed/PriceFeedFacet.sol:PriceFeedFacet",
            "label": "poolAmounts",
            "offset": 0,
            "slot": "12",
            "type": "t_mapping(t_address,t_uint256)"
          },
          {
            "astId": 9955,
            "contract": "contracts/facets/VaultPriceFeed/PriceFeedFacet.sol:PriceFeedFacet",
            "label": "reservedAmounts",
            "offset": 0,
            "slot": "13",
            "type": "t_mapping(t_address,t_uint256)"
          },
          {
            "astId": 9959,
            "contract": "contracts/facets/VaultPriceFeed/PriceFeedFacet.sol:PriceFeedFacet",
            "label": "guaranteedUsd",
            "offset": 0,
            "slot": "14",
            "type": "t_mapping(t_address,t_uint256)"
          },
          {
            "astId": 9963,
            "contract": "contracts/facets/VaultPriceFeed/PriceFeedFacet.sol:PriceFeedFacet",
            "label": "cumulativeFundingRates",
            "offset": 0,
            "slot": "15",
            "type": "t_mapping(t_address,t_uint256)"
          },
          {
            "astId": 9967,
            "contract": "contracts/facets/VaultPriceFeed/PriceFeedFacet.sol:PriceFeedFacet",
            "label": "lastFundingTimes",
            "offset": 0,
            "slot": "16",
            "type": "t_mapping(t_address,t_uint256)"
          },
          {
            "astId": 9971,
            "contract": "contracts/facets/VaultPriceFeed/PriceFeedFacet.sol:PriceFeedFacet",
            "label": "feeReserves",
            "offset": 0,
            "slot": "17",
            "type": "t_mapping(t_address,t_uint256)"
          },
          {
            "astId": 9975,
            "contract": "contracts/facets/VaultPriceFeed/PriceFeedFacet.sol:PriceFeedFacet",
            "label": "tokenWeights",
            "offset": 0,
            "slot": "18",
            "type": "t_mapping(t_address,t_uint256)"
          },
          {
            "astId": 9977,
            "contract": "contracts/facets/VaultPriceFeed/PriceFeedFacet.sol:PriceFeedFacet",
            "label": "totalTokenWeight",
            "offset": 0,
            "slot": "19",
            "type": "t_uint256"
          },
          {
            "astId": 9981,
            "contract": "contracts/facets/VaultPriceFeed/PriceFeedFacet.sol:PriceFeedFacet",
            "label": "plugins",
            "offset": 0,
            "slot": "20",
            "type": "t_mapping(t_address,t_bool)"
          },
          {
            "astId": 9985,
            "contract": "contracts/facets/VaultPriceFeed/PriceFeedFacet.sol:PriceFeedFacet",
            "label": "priceFeeds",
            "offset": 0,
            "slot": "21",
            "type": "t_mapping(t_address,t_address)"
          },
          {
            "astId": 9989,
            "contract": "contracts/facets/VaultPriceFeed/PriceFeedFacet.sol:PriceFeedFacet",
            "label": "priceDecimals",
            "offset": 0,
            "slot": "22",
            "type": "t_mapping(t_address,t_uint256)"
          },
          {
            "astId": 9993,
            "contract": "contracts/facets/VaultPriceFeed/PriceFeedFacet.sol:PriceFeedFacet",
            "label": "priceSpreadBasisPoints",
            "offset": 0,
            "slot": "23",
            "type": "t_mapping(t_address,t_uint256)"
          },
          {
            "astId": 9997,
            "contract": "contracts/facets/VaultPriceFeed/PriceFeedFacet.sol:PriceFeedFacet",
            "label": "baseTokenPairs",
            "offset": 0,
            "slot": "24",
            "type": "t_mapping(t_address,t_address)"
          },
          {
            "astId": 10001,
            "contract": "contracts/facets/VaultPriceFeed/PriceFeedFacet.sol:PriceFeedFacet",
            "label": "tokenPairs",
            "offset": 0,
            "slot": "25",
            "type": "t_mapping(t_address,t_address)"
          },
          {
            "astId": 10003,
            "contract": "contracts/facets/VaultPriceFeed/PriceFeedFacet.sol:PriceFeedFacet",
            "label": "answer",
            "offset": 0,
            "slot": "26",
            "type": "t_int256"
          },
          {
            "astId": 10005,
            "contract": "contracts/facets/VaultPriceFeed/PriceFeedFacet.sol:PriceFeedFacet",
            "label": "roundId",
            "offset": 0,
            "slot": "27",
            "type": "t_uint80"
          },
          {
            "astId": 10009,
            "contract": "contracts/facets/VaultPriceFeed/PriceFeedFacet.sol:PriceFeedFacet",
            "label": "answers",
            "offset": 0,
            "slot": "28",
            "type": "t_mapping(t_uint80,t_int256)"
          },
          {
            "astId": 10011,
            "contract": "contracts/facets/VaultPriceFeed/PriceFeedFacet.sol:PriceFeedFacet",
            "label": "totalNUSDMinted",
            "offset": 0,
            "slot": "29",
            "type": "t_uint256"
          },
          {
            "astId": 10017,
            "contract": "contracts/facets/VaultPriceFeed/PriceFeedFacet.sol:PriceFeedFacet",
            "label": "nusdMinted",
            "offset": 0,
            "slot": "30",
            "type": "t_mapping(t_address,t_mapping(t_address,t_int256))"
          }
        ],
        "numberOfBytes": "992"
      },
      "t_uint256": {
        "encoding": "inplace",
        "label": "uint256",
        "numberOfBytes": "32"
      },
      "t_uint80": {
        "encoding": "inplace",
        "label": "uint80",
        "numberOfBytes": "10"
      }
    }
  }
}