{
  "address": "0x8f28AC2EdDb2A823194118ecbE4C2aDd9AFe850f",
  "abi": [
    {
      "anonymous": false,
      "inputs": [
        {
          "indexed": true,
          "internalType": "address",
          "name": "owner",
          "type": "address"
        },
        {
          "indexed": true,
          "internalType": "address",
          "name": "spender",
          "type": "address"
        },
        {
          "indexed": false,
          "internalType": "uint256",
          "name": "value",
          "type": "uint256"
        }
      ],
      "name": "Approval",
      "type": "event"
    },
    {
      "anonymous": false,
      "inputs": [
        {
          "indexed": true,
          "internalType": "uint256",
          "name": "epoch",
          "type": "uint256"
        },
        {
          "indexed": false,
          "internalType": "uint256",
          "name": "rebase",
          "type": "uint256"
        },
        {
          "indexed": false,
          "internalType": "uint256",
          "name": "index",
          "type": "uint256"
        }
      ],
      "name": "LogRebase",
      "type": "event"
    },
    {
      "anonymous": false,
      "inputs": [
        {
          "indexed": false,
          "internalType": "address",
          "name": "stakingContract",
          "type": "address"
        }
      ],
      "name": "LogStakingContractUpdated",
      "type": "event"
    },
    {
      "anonymous": false,
      "inputs": [
        {
          "indexed": true,
          "internalType": "uint256",
          "name": "epoch",
          "type": "uint256"
        },
        {
          "indexed": false,
          "internalType": "uint256",
          "name": "timestamp",
          "type": "uint256"
        },
        {
          "indexed": false,
          "internalType": "uint256",
          "name": "totalSupply",
          "type": "uint256"
        }
      ],
      "name": "LogSupply",
      "type": "event"
    },
    {
      "anonymous": false,
      "inputs": [
        {
          "indexed": true,
          "internalType": "address",
          "name": "from",
          "type": "address"
        },
        {
          "indexed": true,
          "internalType": "address",
          "name": "to",
          "type": "address"
        },
        {
          "indexed": false,
          "internalType": "uint256",
          "name": "value",
          "type": "uint256"
        }
      ],
      "name": "Transfer",
      "type": "event"
    },
    {
      "inputs": [
        {
          "internalType": "address",
          "name": "holder",
          "type": "address"
        },
        {
          "internalType": "address",
          "name": "spender",
          "type": "address"
        }
      ],
      "name": "allowance",
      "outputs": [
        {
          "internalType": "uint256",
          "name": "",
          "type": "uint256"
        }
      ],
      "stateMutability": "view",
      "type": "function"
    },
    {
      "inputs": [
        {
          "internalType": "address",
          "name": "spender",
          "type": "address"
        },
        {
          "internalType": "uint256",
          "name": "amount",
          "type": "uint256"
        }
      ],
      "name": "approve",
      "outputs": [
        {
          "internalType": "bool",
          "name": "",
          "type": "bool"
        }
      ],
      "stateMutability": "nonpayable",
      "type": "function"
    },
    {
      "inputs": [
        {
          "internalType": "uint256",
          "name": "gons",
          "type": "uint256"
        }
      ],
      "name": "balanceForGons",
      "outputs": [
        {
          "internalType": "uint256",
          "name": "",
          "type": "uint256"
        }
      ],
      "stateMutability": "view",
      "type": "function"
    },
    {
      "inputs": [
        {
          "internalType": "address",
          "name": "who",
          "type": "address"
        }
      ],
      "name": "balanceOf",
      "outputs": [
        {
          "internalType": "uint256",
          "name": "",
          "type": "uint256"
        }
      ],
      "stateMutability": "view",
      "type": "function"
    },
    {
      "inputs": [
        {
          "internalType": "uint256",
          "name": "_amount",
          "type": "uint256"
        },
        {
          "internalType": "address",
          "name": "_debtor",
          "type": "address"
        },
        {
          "internalType": "bool",
          "name": "_add",
          "type": "bool"
        }
      ],
      "name": "changeDebt",
      "outputs": [],
      "stateMutability": "nonpayable",
      "type": "function"
    },
    {
      "inputs": [],
      "name": "circulatingSupply",
      "outputs": [
        {
          "internalType": "uint256",
          "name": "",
          "type": "uint256"
        }
      ],
      "stateMutability": "view",
      "type": "function"
    },
    {
      "inputs": [
        {
          "internalType": "address",
          "name": "_debtor",
          "type": "address"
        }
      ],
      "name": "debtBalances",
      "outputs": [
        {
          "internalType": "uint256",
          "name": "",
          "type": "uint256"
        }
      ],
      "stateMutability": "view",
      "type": "function"
    },
    {
      "inputs": [],
      "name": "decimals",
      "outputs": [
        {
          "internalType": "uint8",
          "name": "",
          "type": "uint8"
        }
      ],
      "stateMutability": "view",
      "type": "function"
    },
    {
      "inputs": [
        {
          "internalType": "address",
          "name": "spender",
          "type": "address"
        },
        {
          "internalType": "uint256",
          "name": "subtractedValue",
          "type": "uint256"
        }
      ],
      "name": "decreaseAllowance",
      "outputs": [
        {
          "internalType": "bool",
          "name": "",
          "type": "bool"
        }
      ],
      "stateMutability": "nonpayable",
      "type": "function"
    },
    {
      "inputs": [
        {
          "internalType": "uint256",
          "name": "amount",
          "type": "uint256"
        }
      ],
      "name": "fromN",
      "outputs": [
        {
          "internalType": "uint256",
          "name": "",
          "type": "uint256"
        }
      ],
      "stateMutability": "view",
      "type": "function"
    },
    {
      "inputs": [
        {
          "internalType": "uint256",
          "name": "amount",
          "type": "uint256"
        }
      ],
      "name": "gonsForBalance",
      "outputs": [
        {
          "internalType": "uint256",
          "name": "",
          "type": "uint256"
        }
      ],
      "stateMutability": "view",
      "type": "function"
    },
    {
      "inputs": [],
      "name": "gov",
      "outputs": [
        {
          "internalType": "address",
          "name": "",
          "type": "address"
        }
      ],
      "stateMutability": "view",
      "type": "function"
    },
    {
      "inputs": [
        {
          "internalType": "address",
          "name": "spender",
          "type": "address"
        },
        {
          "internalType": "uint256",
          "name": "addedValue",
          "type": "uint256"
        }
      ],
      "name": "increaseAllowance",
      "outputs": [
        {
          "internalType": "bool",
          "name": "",
          "type": "bool"
        }
      ],
      "stateMutability": "nonpayable",
      "type": "function"
    },
    {
      "inputs": [],
      "name": "index",
      "outputs": [
        {
          "internalType": "uint256",
          "name": "",
          "type": "uint256"
        }
      ],
      "stateMutability": "view",
      "type": "function"
    },
    {
      "inputs": [
        {
          "internalType": "address",
          "name": "_stakingContract",
          "type": "address"
        },
        {
          "internalType": "address",
          "name": "_nNecc",
          "type": "address"
        },
        {
          "internalType": "address",
          "name": "_treasury",
          "type": "address"
        }
      ],
      "name": "initialize",
      "outputs": [],
      "stateMutability": "nonpayable",
      "type": "function"
    },
    {
      "inputs": [],
      "name": "name",
      "outputs": [
        {
          "internalType": "string",
          "name": "",
          "type": "string"
        }
      ],
      "stateMutability": "view",
      "type": "function"
    },
    {
      "inputs": [
        {
          "internalType": "address",
          "name": "owner",
          "type": "address"
        }
      ],
      "name": "nonces",
      "outputs": [
        {
          "internalType": "uint256",
          "name": "",
          "type": "uint256"
        }
      ],
      "stateMutability": "view",
      "type": "function"
    },
    {
      "inputs": [
        {
          "internalType": "address",
          "name": "owner",
          "type": "address"
        },
        {
          "internalType": "address",
          "name": "spender",
          "type": "address"
        },
        {
          "internalType": "uint256",
          "name": "amount",
          "type": "uint256"
        },
        {
          "internalType": "uint256",
          "name": "deadline",
          "type": "uint256"
        },
        {
          "internalType": "uint8",
          "name": "v",
          "type": "uint8"
        },
        {
          "internalType": "bytes32",
          "name": "r",
          "type": "bytes32"
        },
        {
          "internalType": "bytes32",
          "name": "s",
          "type": "bytes32"
        }
      ],
      "name": "permit",
      "outputs": [],
      "stateMutability": "nonpayable",
      "type": "function"
    },
    {
      "inputs": [
        {
          "internalType": "uint256",
          "name": "profit_",
          "type": "uint256"
        },
        {
          "internalType": "uint256",
          "name": "epoch_",
          "type": "uint256"
        }
      ],
      "name": "rebase",
      "outputs": [
        {
          "internalType": "uint256",
          "name": "",
          "type": "uint256"
        }
      ],
      "stateMutability": "nonpayable",
      "type": "function"
    },
    {
      "inputs": [
        {
          "internalType": "address",
          "name": "_newOwner",
          "type": "address"
        }
      ],
      "name": "setGov",
      "outputs": [],
      "stateMutability": "nonpayable",
      "type": "function"
    },
    {
      "inputs": [
        {
          "internalType": "uint256",
          "name": "_INDEX",
          "type": "uint256"
        }
      ],
      "name": "setIndex",
      "outputs": [
        {
          "internalType": "bool",
          "name": "",
          "type": "bool"
        }
      ],
      "stateMutability": "nonpayable",
      "type": "function"
    },
    {
      "inputs": [],
      "name": "stakingContract",
      "outputs": [
        {
          "internalType": "address",
          "name": "",
          "type": "address"
        }
      ],
      "stateMutability": "view",
      "type": "function"
    },
    {
      "inputs": [],
      "name": "symbol",
      "outputs": [
        {
          "internalType": "string",
          "name": "",
          "type": "string"
        }
      ],
      "stateMutability": "view",
      "type": "function"
    },
    {
      "inputs": [
        {
          "internalType": "uint256",
          "name": "amount",
          "type": "uint256"
        }
      ],
      "name": "toN",
      "outputs": [
        {
          "internalType": "uint256",
          "name": "",
          "type": "uint256"
        }
      ],
      "stateMutability": "view",
      "type": "function"
    },
    {
      "inputs": [],
      "name": "totalSupply",
      "outputs": [
        {
          "internalType": "uint256",
          "name": "",
          "type": "uint256"
        }
      ],
      "stateMutability": "view",
      "type": "function"
    },
    {
      "inputs": [
        {
          "internalType": "address",
          "name": "to",
          "type": "address"
        },
        {
          "internalType": "uint256",
          "name": "value",
          "type": "uint256"
        }
      ],
      "name": "transfer",
      "outputs": [
        {
          "internalType": "bool",
          "name": "",
          "type": "bool"
        }
      ],
      "stateMutability": "nonpayable",
      "type": "function"
    },
    {
      "inputs": [
        {
          "internalType": "address",
          "name": "from",
          "type": "address"
        },
        {
          "internalType": "address",
          "name": "to",
          "type": "address"
        },
        {
          "internalType": "uint256",
          "name": "value",
          "type": "uint256"
        }
      ],
      "name": "transferFrom",
      "outputs": [
        {
          "internalType": "bool",
          "name": "",
          "type": "bool"
        }
      ],
      "stateMutability": "nonpayable",
      "type": "function"
    }
  ],
  "transactionHash": "0xa1cff9ba2ccbde3613b5a5ff320c3db3145e8ae8d16dd5a055de1c0e3428bd27",
  "args": [],
  "solcInputHash": "51e0a29016eb8a808231ef727f964484",
  "bytecode": "0x608060405234801561001057600080fd5b5061360d806100206000396000f3fe608060405234801561001057600080fd5b50600436106101a95760003560e01c806370a08231116100f9578063ae5c6cd311610097578063cfad57a211610071578063cfad57a214610558578063d505accf14610574578063dd62ed3e14610590578063ee99205c146105c0576101a9565b8063ae5c6cd3146104f0578063c0c53b8b1461050c578063c4ef1c4c14610528576101a9565b80639358928b116100d35780639358928b1461045457806395d89b4114610472578063a457c2d714610490578063a9059cbb146104c0576101a9565b806370a08231146103c45780637965d56d146103f45780637ecebe0014610424576101a9565b806323b872dd116101665780633950935111610140578063395093511461030457806340a5737f146103345780634a6b9245146103645780636525d06514610394576101a9565b806323b872dd146102985780632986c0e5146102c8578063313ce567146102e6576101a9565b8063058ecdb4146101ae57806306fdde03146101de578063095ea7b3146101fc57806312d43a511461022c57806318160ddd1461024a5780631bd3967414610268575b600080fd5b6101c860048036038101906101c391906126b2565b6105de565b6040516101d59190612701565b60405180910390f35b6101e661079e565b6040516101f391906127b5565b60405180910390f35b61021660048036038101906102119190612835565b610839565b6040516102239190612890565b60405180910390f35b610234610850565b60405161024191906128ba565b60405180910390f35b61025261085f565b60405161025f9190612701565b60405180910390f35b610282600480360381019061027d91906128d5565b61086e565b60405161028f9190612701565b60405180910390f35b6102b260048036038101906102ad9190612902565b61089a565b6040516102bf9190612890565b60405180910390f35b6102d0610b5d565b6040516102dd9190612701565b60405180910390f35b6102ee610b7d565b6040516102fb9190612971565b60405180910390f35b61031e60048036038101906103199190612835565b610b9d565b60405161032b9190612890565b60405180910390f35b61034e600480360381019061034991906128d5565b610bcf565b60405161035b9190612890565b60405180910390f35b61037e600480360381019061037991906128d5565b610c3e565b60405161038b9190612701565b60405180910390f35b6103ae60048036038101906103a991906128d5565b610cf1565b6040516103bb9190612701565b60405180910390f35b6103de60048036038101906103d9919061298c565b610da4565b6040516103eb9190612701565b60405180910390f35b61040e600480360381019061040991906128d5565b610e11565b60405161041b9190612701565b60405180910390f35b61043e6004803603810190610439919061298c565b610e3d565b60405161044b9190612701565b60405180910390f35b61045c610e8f565b6040516104699190612701565b60405180910390f35b61047a611033565b60405161048791906127b5565b60405180910390f35b6104aa60048036038101906104a59190612835565b6110ce565b6040516104b79190612890565b60405180910390f35b6104da60048036038101906104d59190612835565b61111e565b6040516104e79190612890565b60405180910390f35b61050a600480360381019061050591906129e5565b611375565b005b61052660048036038101906105219190612a38565b6115e3565b005b610542600480360381019061053d919061298c565b611900565b60405161054f9190612701565b60405180910390f35b610572600480360381019061056d919061298c565b611957565b005b61058e60048036038101906105899190612aed565b611963565b005b6105aa60048036038101906105a59190612b8f565b611b86565b6040516105b79190612701565b60405180910390f35b6105c8611c16565b6040516105d591906128ba565b60405180910390f35b6000806105e9611c4e565b905060006105f5611c7b565b905061060082611ca8565b60008061060b610e8f565b905060008714156106a657857f917acfbe39be6509ccf7fecb66a7e42ce2be1083c2d7dd3b9b7491dabddb8da442856002015460405161064c929190612bcf565b60405180910390a2857f6012dbce857565c4a40974aa5de8373a761fc429077ef0c8c8611d1e20d63fb26000610680610b5d565b60405161068e929190612c3d565b60405180910390a28260020154945050505050610798565b60008111156106df576106d8816106ca85600201548a611d3d90919063ffffffff16565b611d5390919063ffffffff16565b91506106e3565b8691505b6106fa828460020154611d6990919063ffffffff16565b83600201819055506000196fffffffffffffffffffffffffffffffff1683600201541115610740576000196fffffffffffffffffffffffffffffffff1683600201819055505b61077883600201546611c37937e0800060001961075d9190612c95565b60001961076a9190612cf5565b611d5390919063ffffffff16565b846007018190555061078b818888611d7f565b5082600201549450505050505b92915050565b60606107a8611f0c565b60000180546107b690612d58565b80601f01602080910402602001604051908101604052809291908181526020018280546107e290612d58565b801561082f5780601f106108045761010080835404028352916020019161082f565b820191906000526020600020905b81548152906001019060200180831161081257829003601f168201915b5050505050905090565b6000610846338484611f39565b6001905092915050565b600061085a61210d565b905090565b6000610869612145565b905090565b600080610879611c4e565b9050610892816007015484611d3d90919063ffffffff16565b915050919050565b6000806108a5611c4e565b90506108b184846110ce565b503373ffffffffffffffffffffffffffffffffffffffff168573ffffffffffffffffffffffffffffffffffffffff167f8c5be1e5ebec7d5bd14f71427d1e84f3dd0314c0f7b2291e5b200ac8c7c3b92561090b3388611b86565b6040516109189190612701565b60405180910390a3600061092b8461086e565b9050610981818360080160008973ffffffffffffffffffffffffffffffffffffffff1673ffffffffffffffffffffffffffffffffffffffff1681526020019081526020016000205461215890919063ffffffff16565b8260080160008873ffffffffffffffffffffffffffffffffffffffff1673ffffffffffffffffffffffffffffffffffffffff16815260200190815260200160002081905550610a1a818360080160008873ffffffffffffffffffffffffffffffffffffffff1673ffffffffffffffffffffffffffffffffffffffff16815260200190815260200160002054611d6990919063ffffffff16565b8260080160008773ffffffffffffffffffffffffffffffffffffffff1673ffffffffffffffffffffffffffffffffffffffff168152602001908152602001600020819055508160090160008773ffffffffffffffffffffffffffffffffffffffff1673ffffffffffffffffffffffffffffffffffffffff16815260200190815260200160002054610aaa87610da4565b1015610aeb576040517f08c379a0000000000000000000000000000000000000000000000000000000008152600401610ae290612dd6565b60405180910390fd5b8473ffffffffffffffffffffffffffffffffffffffff168673ffffffffffffffffffffffffffffffffffffffff167fddf252ad1be2c89b69c2b068fc378daa952ba7f163c4a11628f55a4df523b3ef86604051610b489190612701565b60405180910390a36001925050509392505050565b600080610b68611c4e565b9050610b778160000154610e11565b91505090565b6000610b87611f0c565b60020160009054906101000a900460ff16905090565b6000610bc53384610bc085610bb23389611b86565b611d6990919063ffffffff16565b611f39565b6001905092915050565b600080610bda611c4e565b90506000816000015414610c23576040517f08c379a0000000000000000000000000000000000000000000000000000000008152600401610c1a90612e42565b60405180910390fd5b610c2c8361086e565b81600001819055506001915050919050565b600080610c49611c4e565b90508060020160009054906101000a900473ffffffffffffffffffffffffffffffffffffffff1673ffffffffffffffffffffffffffffffffffffffff1663a8248768846040518263ffffffff1660e01b8152600401610ca89190612701565b602060405180830381865afa158015610cc5573d6000803e3d6000fd5b505050506040513d601f19601f82011682018060405250810190610ce99190612e77565b915050919050565b600080610cfc611c4e565b90508060020160009054906101000a900473ffffffffffffffffffffffffffffffffffffffff1673ffffffffffffffffffffffffffffffffffffffff166366a5236c846040518263ffffffff1660e01b8152600401610d5b9190612701565b602060405180830381865afa158015610d78573d6000803e3d6000fd5b505050506040513d601f19601f82011682018060405250810190610d9c9190612e77565b915050919050565b600080610daf611c4e565b9050610e0981600701548260080160008673ffffffffffffffffffffffffffffffffffffffff1673ffffffffffffffffffffffffffffffffffffffff16815260200190815260200160002054611d5390919063ffffffff16565b915050919050565b600080610e1c611c4e565b9050610e35816007015484611d5390919063ffffffff16565b915050919050565b6000610e4761216e565b60000160008373ffffffffffffffffffffffffffffffffffffffff1673ffffffffffffffffffffffffffffffffffffffff168152602001908152602001600020549050919050565b600080610e9a611c4e565b90506000610ea6611c7b565b905061102c8260020160009054906101000a900473ffffffffffffffffffffffffffffffffffffffff1673ffffffffffffffffffffffffffffffffffffffff1663a82487688460020160009054906101000a900473ffffffffffffffffffffffffffffffffffffffff1673ffffffffffffffffffffffffffffffffffffffff166318160ddd6040518163ffffffff1660e01b8152600401602060405180830381865afa158015610f5a573d6000803e3d6000fd5b505050506040513d601f19601f82011682018060405250810190610f7e9190612e77565b6040518263ffffffff1660e01b8152600401610f9a9190612701565b602060405180830381865afa158015610fb7573d6000803e3d6000fd5b505050506040513d601f19601f82011682018060405250810190610fdb9190612e77565b61101e61100b8560010160009054906101000a900473ffffffffffffffffffffffffffffffffffffffff16610da4565b846002015461215890919063ffffffff16565b611d6990919063ffffffff16565b9250505090565b606061103d611f0c565b600101805461104b90612d58565b80601f016020809104026020016040519081016040528092919081815260200182805461107790612d58565b80156110c45780601f10611099576101008083540402835291602001916110c4565b820191906000526020600020905b8154815290600101906020018083116110a757829003601f168201915b5050505050905090565b6000806110db3385611b86565b90508083106110f5576110f033856000611f39565b611113565b611112338561110d868561215890919063ffffffff16565b611f39565b5b600191505092915050565b600080611129611c4e565b90506000611144826007015485611d3d90919063ffffffff16565b905061119a818360080160003373ffffffffffffffffffffffffffffffffffffffff1673ffffffffffffffffffffffffffffffffffffffff1681526020019081526020016000205461215890919063ffffffff16565b8260080160003373ffffffffffffffffffffffffffffffffffffffff1673ffffffffffffffffffffffffffffffffffffffff16815260200190815260200160002081905550611233818360080160008873ffffffffffffffffffffffffffffffffffffffff1673ffffffffffffffffffffffffffffffffffffffff16815260200190815260200160002054611d6990919063ffffffff16565b8260080160008773ffffffffffffffffffffffffffffffffffffffff1673ffffffffffffffffffffffffffffffffffffffff168152602001908152602001600020819055508160090160003373ffffffffffffffffffffffffffffffffffffffff1673ffffffffffffffffffffffffffffffffffffffff168152602001908152602001600020546112c333610da4565b1015611304576040517f08c379a00000000000000000000000000000000000000000000000000000000081526004016112fb90612dd6565b60405180910390fd5b8473ffffffffffffffffffffffffffffffffffffffff163373ffffffffffffffffffffffffffffffffffffffff167fddf252ad1be2c89b69c2b068fc378daa952ba7f163c4a11628f55a4df523b3ef866040516113619190612701565b60405180910390a360019250505092915050565b600061137f611c4e565b90508060030160009054906101000a900473ffffffffffffffffffffffffffffffffffffffff1673ffffffffffffffffffffffffffffffffffffffff163373ffffffffffffffffffffffffffffffffffffffff1614611413576040517f08c379a000000000000000000000000000000000000000000000000000000000815260040161140a90612ef0565b60405180910390fd5b81156114b75761146d848260090160008673ffffffffffffffffffffffffffffffffffffffff1673ffffffffffffffffffffffffffffffffffffffff16815260200190815260200160002054611d6990919063ffffffff16565b8160090160008573ffffffffffffffffffffffffffffffffffffffff1673ffffffffffffffffffffffffffffffffffffffff16815260200190815260200160002081905550611551565b61150b848260090160008673ffffffffffffffffffffffffffffffffffffffff1673ffffffffffffffffffffffffffffffffffffffff1681526020019081526020016000205461215890919063ffffffff16565b8160090160008573ffffffffffffffffffffffffffffffffffffffff1673ffffffffffffffffffffffffffffffffffffffff168152602001908152602001600020819055505b61155a83610da4565b8160090160008573ffffffffffffffffffffffffffffffffffffffff1673ffffffffffffffffffffffffffffffffffffffff1681526020019081526020016000205411156115dd576040517f08c379a00000000000000000000000000000000000000000000000000000000081526004016115d490612f5c565b60405180910390fd5b50505050565b6115eb61219b565b60006115f5611c7b565b90506000611601611f0c565b9050600061160d611c4e565b90506116576040518060400160405280600b81526020017f5374616b6564204e656363000000000000000000000000000000000000000000815250836121a590919063ffffffff16565b61169f6040518060400160405280600581526020017f734e454343000000000000000000000000000000000000000000000000000000815250836121c290919063ffffffff16565b6116b36009836121df90919063ffffffff16565b6611c37937e0800083600201819055506116fb83600201546611c37937e080006000196116e09190612c95565b6000196116ed9190612cf5565b611d5390919063ffffffff16565b8160070181905550858160010160006101000a81548173ffffffffffffffffffffffffffffffffffffffff021916908373ffffffffffffffffffffffffffffffffffffffff160217905550848160020160006101000a81548173ffffffffffffffffffffffffffffffffffffffff021916908373ffffffffffffffffffffffffffffffffffffffff1602179055506611c37937e0800060001961179e9190612c95565b6000196117ab9190612cf5565b8160080160008360010160009054906101000a900473ffffffffffffffffffffffffffffffffffffffff1673ffffffffffffffffffffffffffffffffffffffff1673ffffffffffffffffffffffffffffffffffffffff16815260200190815260200160002081905550838160030160006101000a81548173ffffffffffffffffffffffffffffffffffffffff021916908373ffffffffffffffffffffffffffffffffffffffff1602179055508573ffffffffffffffffffffffffffffffffffffffff16600073ffffffffffffffffffffffffffffffffffffffff167fddf252ad1be2c89b69c2b068fc378daa952ba7f163c4a11628f55a4df523b3ef85600201546040516118b99190612701565b60405180910390a37f817c653428858ed536dc085c5d8273734c517b55de44b55f5c5877a75e3373a1866040516118f091906128ba565b60405180910390a1505050505050565b60008061190b611c4e565b90508060090160008473ffffffffffffffffffffffffffffffffffffffff1673ffffffffffffffffffffffffffffffffffffffff16815260200190815260200160002054915050919050565b61196081612200565b50565b834211156119a6576040517f08c379a000000000000000000000000000000000000000000000000000000000815260040161199d90612fc8565b60405180910390fd5b6000806119b161216e565b60000160008a73ffffffffffffffffffffffffffffffffffffffff1673ffffffffffffffffffffffffffffffffffffffff1681526020019081526020016000205490506040517f6e71edae12b1b97f4d1f60370fef10105fa2faae0126114a169c64845d6126c981528960208201528860408201528760608201528160808201528660a082015260c081209250506000611a4961225b565b905060006040517f19010000000000000000000000000000000000000000000000000000000000008152826002820152846022820152604281209150506000611a9f888888856122a6909392919063ffffffff16565b90508b73ffffffffffffffffffffffffffffffffffffffff168173ffffffffffffffffffffffffffffffffffffffff1614611b0f576040517f08c379a0000000000000000000000000000000000000000000000000000000008152600401611b0690613034565b60405180910390fd5b611b1761216e565b60000160008d73ffffffffffffffffffffffffffffffffffffffff1673ffffffffffffffffffffffffffffffffffffffff1681526020019081526020016000206000815480929190611b6890613054565b9190505550611b788c8c8c611f39565b505050505050505050505050565b6000611b90611c7b565b60010160008473ffffffffffffffffffffffffffffffffffffffff1673ffffffffffffffffffffffffffffffffffffffff16815260200190815260200160002060008373ffffffffffffffffffffffffffffffffffffffff1673ffffffffffffffffffffffffffffffffffffffff16815260200190815260200160002054905092915050565b600080611c21611c4e565b90508060010160009054906101000a900473ffffffffffffffffffffffffffffffffffffffff1691505090565b6000807f85cc79b6be0f7f23d750ce271d29ecc56c7c1a80fc209736f2b226ac13ce4e5a90508091505090565b6000807fc991b2e918acaba8e5721668ed0b1982684e5a8692a621bcd2d7ef326bb015b490508091505090565b8060010160009054906101000a900473ffffffffffffffffffffffffffffffffffffffff1673ffffffffffffffffffffffffffffffffffffffff163373ffffffffffffffffffffffffffffffffffffffff1614611d3a576040517f08c379a0000000000000000000000000000000000000000000000000000000008152600401611d31906130e9565b60405180910390fd5b50565b60008183611d4b9190613109565b905092915050565b60008183611d619190613163565b905092915050565b60008183611d779190613194565b905092915050565b600080611d8a611c4e565b90506000611d96611c7b565b90506000611dc787611db9670de0b6b3a764000089611d3d90919063ffffffff16565b611d5390919063ffffffff16565b9050826006016040518060e00160405280878152602001838152602001898152602001611df2610e8f565b8152602001888152602001611e05610b5d565b8152602001438152509080600181540180825580915050600190039060005260206000209060070201600090919091909150600082015181600001556020820151816001015560408201518160020155606082015181600301556080820151816004015560a0820151816005015560c082015181600601555050847f917acfbe39be6509ccf7fecb66a7e42ce2be1083c2d7dd3b9b7491dabddb8da4428460020154604051611eb5929190612bcf565b60405180910390a2847f6012dbce857565c4a40974aa5de8373a761fc429077ef0c8c8611d1e20d63fb282611ee8610b5d565b604051611ef6929190612bcf565b60405180910390a2600193505050509392505050565b6000807f2967a798b92539a1b9eefe4d8eb931f96b68d27665e276f1bee2d5db7f74304790508091505090565b600073ffffffffffffffffffffffffffffffffffffffff168373ffffffffffffffffffffffffffffffffffffffff161415611fa9576040517f08c379a0000000000000000000000000000000000000000000000000000000008152600401611fa09061325c565b60405180910390fd5b600073ffffffffffffffffffffffffffffffffffffffff168273ffffffffffffffffffffffffffffffffffffffff161415612019576040517f08c379a0000000000000000000000000000000000000000000000000000000008152600401612010906132ee565b60405180910390fd5b80612022611c7b565b60010160008573ffffffffffffffffffffffffffffffffffffffff1673ffffffffffffffffffffffffffffffffffffffff16815260200190815260200160002060008473ffffffffffffffffffffffffffffffffffffffff1673ffffffffffffffffffffffffffffffffffffffff168152602001908152602001600020819055508173ffffffffffffffffffffffffffffffffffffffff168373ffffffffffffffffffffffffffffffffffffffff167f8c5be1e5ebec7d5bd14f71427d1e84f3dd0314c0f7b2291e5b200ac8c7c3b925836040516121009190612701565b60405180910390a3505050565b600080612118612431565b90508060040160009054906101000a900473ffffffffffffffffffffffffffffffffffffffff1691505090565b600061214f611c7b565b60020154905090565b600081836121669190612cf5565b905092915050565b6000807fbb9c3660b51e1fafa886fcf600a68efa81371bd50359eccba98f0c4fff2cfeb990508091505090565b6121a361245e565b565b808260000190805190602001906121bd9291906125d4565b505050565b808260010190805190602001906121da9291906125d4565b505050565b808260020160006101000a81548160ff021916908360ff1602179055505050565b61220861245e565b6000612212612431565b9050818160040160006101000a81548173ffffffffffffffffffffffffffffffffffffffff021916908373ffffffffffffffffffffffffffffffffffffffff1602179055505050565b60008061226661216e565b60010160006122736124f9565b81526020019081526020016000205490506000801b811461229757809150506122a3565b61229f612501565b9150505b90565b60007f7fffffffffffffffffffffffffffffff5d576e7357a4501ddfe92f46681b20a08260001c111561230e576040517f08c379a000000000000000000000000000000000000000000000000000000000815260040161230590613380565b60405180910390fd5b601b8460ff1614806123235750601c8460ff16145b612362576040517f08c379a000000000000000000000000000000000000000000000000000000000815260040161235990613412565b60405180910390fd5b6000600186868686604051600081526020016040526040516123879493929190613441565b6020604051602081039080840390855afa1580156123a9573d6000803e3d6000fd5b505050602060405103519050600073ffffffffffffffffffffffffffffffffffffffff168173ffffffffffffffffffffffffffffffffffffffff161415612425576040517f08c379a000000000000000000000000000000000000000000000000000000000815260040161241c906134d2565b60405180910390fd5b80915050949350505050565b6000807fc8fcad8db84d3cc18b4c41d551ea0ee66dd599cde068d998e57d5e09332c131c90508091505090565b612466612431565b60040160009054906101000a900473ffffffffffffffffffffffffffffffffffffffff1673ffffffffffffffffffffffffffffffffffffffff163373ffffffffffffffffffffffffffffffffffffffff16146124f7576040517f08c379a00000000000000000000000000000000000000000000000000000000081526004016124ee90613564565b60405180910390fd5b565b600046905090565b60008061250c6124f9565b905060007f8b73c3c69bb8fe3d512ecc4cf759cc79239f7b179b0ffacaa9a75d522b39400f61253961079e565b805190602001206040518060400160405280600181526020017f3100000000000000000000000000000000000000000000000000000000000000815250805190602001208430604051602001612593959493929190613584565b604051602081830303815290604052805190602001209050806125b461216e565b600101600084815260200190815260200160002081905550809250505090565b8280546125e090612d58565b90600052602060002090601f0160209004810192826126025760008555612649565b82601f1061261b57805160ff1916838001178555612649565b82800160010185558215612649579182015b8281111561264857825182559160200191906001019061262d565b5b509050612656919061265a565b5090565b5b8082111561267357600081600090555060010161265b565b5090565b600080fd5b6000819050919050565b61268f8161267c565b811461269a57600080fd5b50565b6000813590506126ac81612686565b92915050565b600080604083850312156126c9576126c8612677565b5b60006126d78582860161269d565b92505060206126e88582860161269d565b9150509250929050565b6126fb8161267c565b82525050565b600060208201905061271660008301846126f2565b92915050565b600081519050919050565b600082825260208201905092915050565b60005b8381101561275657808201518184015260208101905061273b565b83811115612765576000848401525b50505050565b6000601f19601f8301169050919050565b60006127878261271c565b6127918185612727565b93506127a1818560208601612738565b6127aa8161276b565b840191505092915050565b600060208201905081810360008301526127cf818461277c565b905092915050565b600073ffffffffffffffffffffffffffffffffffffffff82169050919050565b6000612802826127d7565b9050919050565b612812816127f7565b811461281d57600080fd5b50565b60008135905061282f81612809565b92915050565b6000806040838503121561284c5761284b612677565b5b600061285a85828601612820565b925050602061286b8582860161269d565b9150509250929050565b60008115159050919050565b61288a81612875565b82525050565b60006020820190506128a56000830184612881565b92915050565b6128b4816127f7565b82525050565b60006020820190506128cf60008301846128ab565b92915050565b6000602082840312156128eb576128ea612677565b5b60006128f98482850161269d565b91505092915050565b60008060006060848603121561291b5761291a612677565b5b600061292986828701612820565b935050602061293a86828701612820565b925050604061294b8682870161269d565b9150509250925092565b600060ff82169050919050565b61296b81612955565b82525050565b60006020820190506129866000830184612962565b92915050565b6000602082840312156129a2576129a1612677565b5b60006129b084828501612820565b91505092915050565b6129c281612875565b81146129cd57600080fd5b50565b6000813590506129df816129b9565b92915050565b6000806000606084860312156129fe576129fd612677565b5b6000612a0c8682870161269d565b9350506020612a1d86828701612820565b9250506040612a2e868287016129d0565b9150509250925092565b600080600060608486031215612a5157612a50612677565b5b6000612a5f86828701612820565b9350506020612a7086828701612820565b9250506040612a8186828701612820565b9150509250925092565b612a9481612955565b8114612a9f57600080fd5b50565b600081359050612ab181612a8b565b92915050565b6000819050919050565b612aca81612ab7565b8114612ad557600080fd5b50565b600081359050612ae781612ac1565b92915050565b600080600080600080600060e0888a031215612b0c57612b0b612677565b5b6000612b1a8a828b01612820565b9750506020612b2b8a828b01612820565b9650506040612b3c8a828b0161269d565b9550506060612b4d8a828b0161269d565b9450506080612b5e8a828b01612aa2565b93505060a0612b6f8a828b01612ad8565b92505060c0612b808a828b01612ad8565b91505092959891949750929550565b60008060408385031215612ba657612ba5612677565b5b6000612bb485828601612820565b9250506020612bc585828601612820565b9150509250929050565b6000604082019050612be460008301856126f2565b612bf160208301846126f2565b9392505050565b6000819050919050565b6000819050919050565b6000612c27612c22612c1d84612bf8565b612c02565b61267c565b9050919050565b612c3781612c0c565b82525050565b6000604082019050612c526000830185612c2e565b612c5f60208301846126f2565b9392505050565b7f4e487b7100000000000000000000000000000000000000000000000000000000600052601260045260246000fd5b6000612ca08261267c565b9150612cab8361267c565b925082612cbb57612cba612c66565b5b828206905092915050565b7f4e487b7100000000000000000000000000000000000000000000000000000000600052601160045260246000fd5b6000612d008261267c565b9150612d0b8361267c565b925082821015612d1e57612d1d612cc6565b5b828203905092915050565b7f4e487b7100000000000000000000000000000000000000000000000000000000600052602260045260246000fd5b60006002820490506001821680612d7057607f821691505b60208210811415612d8457612d83612d29565b5b50919050565b7f446562743a2063616e6e6f74207472616e7366657220616d6f756e7400000000600082015250565b6000612dc0601c83612727565b9150612dcb82612d8a565b602082019050919050565b60006020820190508181036000830152612def81612db3565b9050919050565b7f496e64657820616c726561647920736574000000000000000000000000000000600082015250565b6000612e2c601183612727565b9150612e3782612df6565b602082019050919050565b60006020820190508181036000830152612e5b81612e1f565b9050919050565b600081519050612e7181612686565b92915050565b600060208284031215612e8d57612e8c612677565b5b6000612e9b84828501612e62565b91505092915050565b7f4f6e6c7920747265617375727900000000000000000000000000000000000000600082015250565b6000612eda600d83612727565b9150612ee582612ea4565b602082019050919050565b60006020820190508181036000830152612f0981612ecd565b9050919050565b7f734e6563633a20696e73756666696369656e742062616c616e63650000000000600082015250565b6000612f46601b83612727565b9150612f5182612f10565b602082019050919050565b60006020820190508181036000830152612f7581612f39565b9050919050565b7f45524332305065726d69743a206578706972656420646561646c696e65000000600082015250565b6000612fb2601d83612727565b9150612fbd82612f7c565b602082019050919050565b60006020820190508181036000830152612fe181612fa5565b9050919050565b7f45524332305065726d69743a20696e76616c6964207369676e61747572650000600082015250565b600061301e601e83612727565b915061302982612fe8565b602082019050919050565b6000602082019050818103600083015261304d81613011565b9050919050565b600061305f8261267c565b91507fffffffffffffffffffffffffffffffffffffffffffffffffffffffffffffffff82141561309257613091612cc6565b5b600182019050919050565b7f4e444f4c3a206f6e6c79207374616b696e67436f6e7472616374000000000000600082015250565b60006130d3601a83612727565b91506130de8261309d565b602082019050919050565b60006020820190508181036000830152613102816130c6565b9050919050565b60006131148261267c565b915061311f8361267c565b9250817fffffffffffffffffffffffffffffffffffffffffffffffffffffffffffffffff048311821515161561315857613157612cc6565b5b828202905092915050565b600061316e8261267c565b91506131798361267c565b92508261318957613188612c66565b5b828204905092915050565b600061319f8261267c565b91506131aa8361267c565b9250827fffffffffffffffffffffffffffffffffffffffffffffffffffffffffffffffff038211156131df576131de612cc6565b5b828201905092915050565b7f45524332303a20617070726f76652066726f6d20746865207a65726f2061646460008201527f7265737300000000000000000000000000000000000000000000000000000000602082015250565b6000613246602483612727565b9150613251826131ea565b604082019050919050565b6000602082019050818103600083015261327581613239565b9050919050565b7f45524332303a20617070726f766520746f20746865207a65726f20616464726560008201527f7373000000000000000000000000000000000000000000000000000000000000602082015250565b60006132d8602283612727565b91506132e38261327c565b604082019050919050565b60006020820190508181036000830152613307816132cb565b9050919050565b7f45434453413a20696e76616c6964207369676e6174757265202773272076616c60008201527f7565000000000000000000000000000000000000000000000000000000000000602082015250565b600061336a602283612727565b91506133758261330e565b604082019050919050565b600060208201905081810360008301526133998161335d565b9050919050565b7f45434453413a20696e76616c6964207369676e6174757265202776272076616c60008201527f7565000000000000000000000000000000000000000000000000000000000000602082015250565b60006133fc602283612727565b9150613407826133a0565b604082019050919050565b6000602082019050818103600083015261342b816133ef565b9050919050565b61343b81612ab7565b82525050565b60006080820190506134566000830187613432565b6134636020830186612962565b6134706040830185613432565b61347d6060830184613432565b95945050505050565b7f45434453413a20696e76616c6964207369676e61747572650000000000000000600082015250565b60006134bc601883612727565b91506134c782613486565b602082019050919050565b600060208201905081810360008301526134eb816134af565b9050919050565b7f4c69624469616d6f6e643a20696e76616c696420636f6e7472616374206f776e60008201527f6572000000000000000000000000000000000000000000000000000000000000602082015250565b600061354e602283612727565b9150613559826134f2565b604082019050919050565b6000602082019050818103600083015261357d81613541565b9050919050565b600060a0820190506135996000830188613432565b6135a66020830187613432565b6135b36040830186613432565b6135c060608301856126f2565b6135cd60808301846128ab565b969550505050505056fea2646970667358221220f6dfe9c6eed35853e587f941f1a46db7785e7c6861cc7221acc243ebb261b9bb64736f6c634300080a0033",
  "devdoc": {
    "kind": "dev",
    "methods": {
      "allowance(address,address)": {
        "params": {
          "holder": "approver of allowance",
          "spender": "recipient of allowance"
        },
        "returns": {
          "_0": "token allowance"
        }
      },
      "approve(address,uint256)": {
        "details": "prefer ERC20Extended functions to avoid transaction-ordering vulnerability (see https://github.com/ethereum/EIPs/issues/20#issuecomment-263524729)",
        "params": {
          "amount": "quantity of tokens approved for spending",
          "spender": "recipient of allowance"
        },
        "returns": {
          "_0": "success status (always true; otherwise function should revert)"
        }
      },
      "decimals()": {
        "returns": {
          "_0": "token decimals"
        }
      },
      "name()": {
        "returns": {
          "_0": "token name"
        }
      },
      "nonces(address)": {
        "details": "inhertidoc IERC2612"
      },
      "permit(address,address,uint256,uint256,uint8,bytes32,bytes32)": {
        "details": "If https://eips.ethereum.org/EIPS/eip-1344[ChainID] ever changes, the EIP712 Domain Separator is automatically recalculated.",
        "params": {
          "amount": "quantity of tokens to approve",
          "owner": "holder of tokens and signer of permit",
          "r": "secp256k1 'r' value",
          "s": "secp256k1 's' value",
          "spender": "beneficiary of approval",
          "v": "secp256k1 'v' value"
        }
      },
      "rebase(uint256,uint256)": {
        "params": {
          "profit_": "uint256"
        },
        "returns": {
          "_0": "uint256"
        }
      },
      "symbol()": {
        "returns": {
          "_0": "token symbol"
        }
      },
      "totalSupply()": {
        "returns": {
          "_0": "token supply"
        }
      }
    },
    "version": 1
  },
  "userdoc": {
    "kind": "user",
    "methods": {
      "allowance(address,address)": {
        "notice": "query the allowance granted from given holder to given spender"
      },
      "approve(address,uint256)": {
        "notice": "grant approval to spender to spend tokens"
      },
      "decimals()": {
        "notice": "return token decimals, generally used only for display purposes"
      },
      "name()": {
        "notice": "return token name"
      },
      "permit(address,address,uint256,uint256,uint8,bytes32,bytes32)": {
        "notice": "approve spender to transfer tokens held by owner via signature"
      },
      "rebase(uint256,uint256)": {
        "notice": "increases sNecc supply to increase staking balances relative to profit_"
      },
      "symbol()": {
        "notice": "return token symbol"
      },
      "totalSupply()": {
        "notice": "query the total minted token supply"
      }
    },
    "version": 1
  },
  "storageLayout": {
    "storage": [],
    "types": null
  }
}