{
  "address": "0x0aC2AAd71B4A461d0001b0c6fD2eD23c92752018",
  "abi": [
    {
      "inputs": [
        {
          "internalType": "address",
          "name": "_recipient",
          "type": "address"
        }
      ],
      "name": "claim",
      "outputs": [],
      "stateMutability": "nonpayable",
      "type": "function"
    },
    {
      "inputs": [],
      "name": "contractBalance",
      "outputs": [
        {
          "internalType": "uint256",
          "name": "",
          "type": "uint256"
        }
      ],
      "stateMutability": "view",
      "type": "function"
    },
    {
      "inputs": [],
      "name": "epoch",
      "outputs": [
        {
          "components": [
            {
              "internalType": "uint256",
              "name": "number",
              "type": "uint256"
            },
            {
              "internalType": "uint256",
              "name": "distribute",
              "type": "uint256"
            },
            {
              "internalType": "uint256",
              "name": "length",
              "type": "uint256"
            },
            {
              "internalType": "uint256",
              "name": "endTime",
              "type": "uint256"
            }
          ],
          "internalType": "struct LibBondStorage.Epoch",
          "name": "",
          "type": "tuple"
        }
      ],
      "stateMutability": "view",
      "type": "function"
    },
    {
      "inputs": [],
      "name": "forfeit",
      "outputs": [],
      "stateMutability": "nonpayable",
      "type": "function"
    },
    {
      "inputs": [
        {
          "internalType": "uint256",
          "name": "_amount",
          "type": "uint256"
        }
      ],
      "name": "giveLockBonus",
      "outputs": [],
      "stateMutability": "nonpayable",
      "type": "function"
    },
    {
      "inputs": [],
      "name": "index",
      "outputs": [
        {
          "internalType": "uint256",
          "name": "",
          "type": "uint256"
        }
      ],
      "stateMutability": "view",
      "type": "function"
    },
    {
      "inputs": [],
      "name": "rebase",
      "outputs": [],
      "stateMutability": "nonpayable",
      "type": "function"
    },
    {
      "inputs": [
        {
          "internalType": "uint256",
          "name": "_amount",
          "type": "uint256"
        }
      ],
      "name": "returnLockBonus",
      "outputs": [],
      "stateMutability": "nonpayable",
      "type": "function"
    },
    {
      "inputs": [
        {
          "internalType": "uint256",
          "name": "_amount",
          "type": "uint256"
        },
        {
          "internalType": "address",
          "name": "_recipient",
          "type": "address"
        }
      ],
      "name": "stake",
      "outputs": [
        {
          "internalType": "bool",
          "name": "",
          "type": "bool"
        }
      ],
      "stateMutability": "nonpayable",
      "type": "function"
    },
    {
      "inputs": [],
      "name": "supplyInWarmup",
      "outputs": [
        {
          "internalType": "uint256",
          "name": "",
          "type": "uint256"
        }
      ],
      "stateMutability": "view",
      "type": "function"
    },
    {
      "inputs": [
        {
          "internalType": "uint256",
          "name": "_amount",
          "type": "uint256"
        },
        {
          "internalType": "bool",
          "name": "_trigger",
          "type": "bool"
        }
      ],
      "name": "unstake",
      "outputs": [],
      "stateMutability": "nonpayable",
      "type": "function"
    },
    {
      "inputs": [
        {
          "internalType": "address",
          "name": "_recipient",
          "type": "address"
        }
      ],
      "name": "warmupInfo",
      "outputs": [
        {
          "components": [
            {
              "internalType": "uint256",
              "name": "deposit",
              "type": "uint256"
            },
            {
              "internalType": "uint256",
              "name": "gons",
              "type": "uint256"
            },
            {
              "internalType": "uint256",
              "name": "expiry",
              "type": "uint256"
            },
            {
              "internalType": "bool",
              "name": "lock",
              "type": "bool"
            }
          ],
          "internalType": "struct LibBondStorage.Claim",
          "name": "",
          "type": "tuple"
        }
      ],
      "stateMutability": "view",
      "type": "function"
    }
  ],
  "transactionHash": "0xd065e2cea5c492e99b280e99da66497021a7a6ce3846c8b45e953bb03bdccbdb",
  "args": [],
  "solcInputHash": "5f66fcf5d2ff50cfff03fe1f16a8e50d",
  "bytecode": "0x608060405234801561001057600080fd5b50611daf806100206000396000f3fe608060405234801561001057600080fd5b50600436106100b45760003560e01c80638b7afe2e116100715780638b7afe2e1461018d578063900cf0cf146101ab5780639ebea88c146101c9578063af14052c146101e5578063f3d86e4a146101ef578063f62ae76a146101f9576100b4565b806303c23670146100b95780631e83409a146100d557806320138641146100f15780632986c0e51461010f5780636746f4c21461012d5780637acb77571461015d575b600080fd5b6100d360048036038101906100ce9190611936565b610215565b005b6100ef60048036038101906100ea919061190d565b61030b565b005b6100f9610590565b6040516101069190611c47565b60405180910390f35b610117610649565b6040516101249190611c47565b60405180910390f35b6101476004803603810190610142919061190d565b6106f2565b6040516101549190611c11565b60405180910390f35b61017760048036038101906101729190611988565b610787565b6040516101849190611bb6565b60405180910390f35b610195610b4d565b6040516101a29190611c47565b60405180910390f35b6101b3610c18565b6040516101c09190611c2c565b60405180910390f35b6101e360048036038101906101de91906119c4565b610c5d565b005b6101ed610d11565b005b6101f7610f9b565b005b610213600480360381019061020e9190611936565b611117565b005b600060180160009054906101000a900473ffffffffffffffffffffffffffffffffffffffff1673ffffffffffffffffffffffffffffffffffffffff163373ffffffffffffffffffffffffffffffffffffffff161461027257600080fd5b61028a8160006019015461120f90919063ffffffff16565b600060190181905550610308600060180160009054906101000a900473ffffffffffffffffffffffffffffffffffffffff1682600060010160009054906101000a900473ffffffffffffffffffffffffffffffffffffffff1673ffffffffffffffffffffffffffffffffffffffff166112979092919063ffffffff16565b50565b610313611867565b6000601b0160008373ffffffffffffffffffffffffffffffffffffffff1673ffffffffffffffffffffffffffffffffffffffff1681526020019081526020016000206040518060800160405290816000820154815260200160018201548152602001600282015481526020016003820160009054906101000a900460ff16151515158152505090508060600151610413573373ffffffffffffffffffffffffffffffffffffffff168273ffffffffffffffffffffffffffffffffffffffff1614610412576040517f08c379a000000000000000000000000000000000000000000000000000000000815260040161040990611bf1565b60405180910390fd5b5b80604001516000601201600001541015801561043457506000816040015114155b1561058c576000601b0160008373ffffffffffffffffffffffffffffffffffffffff1673ffffffffffffffffffffffffffffffffffffffff168152602001908152602001600020600080820160009055600182016000905560028201600090556003820160006101000a81549060ff021916905550506104c681602001516000601e015461133990919063ffffffff16565b6000601e018190555061058a82600060010160009054906101000a900473ffffffffffffffffffffffffffffffffffffffff1673ffffffffffffffffffffffffffffffffffffffff16637965d56d84602001516040518263ffffffff1660e01b81526004016105359190611c47565b60206040518083038186803b15801561054d57600080fd5b505afa158015610561573d6000803e3d6000fd5b505050506040513d601f19601f82011682018060405250810190610585919061195f565b6113bc565b505b5050565b60008060010160009054906101000a900473ffffffffffffffffffffffffffffffffffffffff1673ffffffffffffffffffffffffffffffffffffffff16637965d56d6000601e01546040518263ffffffff1660e01b81526004016105f49190611c47565b60206040518083038186803b15801561060c57600080fd5b505afa158015610620573d6000803e3d6000fd5b505050506040513d601f19601f82011682018060405250810190610644919061195f565b905090565b60008060010160009054906101000a900473ffffffffffffffffffffffffffffffffffffffff1673ffffffffffffffffffffffffffffffffffffffff16632986c0e56040518163ffffffff1660e01b815260040160206040518083038186803b1580156106b557600080fd5b505afa1580156106c9573d6000803e3d6000fd5b505050506040513d601f19601f820116820180604052508101906106ed919061195f565b905090565b6106fa611867565b6000601b0160008373ffffffffffffffffffffffffffffffffffffffff1673ffffffffffffffffffffffffffffffffffffffff1681526020019081526020016000206040518060800160405290816000820154815260200160018201548152602001600282015481526020016003820160009054906101000a900460ff1615151515815250509050919050565b6000610791610d11565b6107e23330856000800160009054906101000a900473ffffffffffffffffffffffffffffffffffffffff1673ffffffffffffffffffffffffffffffffffffffff16611417909392919063ffffffff16565b600080601a015414156107ff576107f982846113bc565b50610b43565b610807611867565b6000601b0160008473ffffffffffffffffffffffffffffffffffffffff1673ffffffffffffffffffffffffffffffffffffffff1681526020019081526020016000206040518060800160405290816000820154815260200160018201548152602001600282015481526020016003820160009054906101000a900460ff16151515158152505090508060600151156108d4576040517f08c379a00000000000000000000000000000000000000000000000000000000081526004016108cb90611bd1565b60405180910390fd5b60405180608001604052806108f686846000015161120f90919063ffffffff16565b81526020016109bf600060010160009054906101000a900473ffffffffffffffffffffffffffffffffffffffff1673ffffffffffffffffffffffffffffffffffffffff16631bd39674886040518263ffffffff1660e01b815260040161095c9190611c47565b60206040518083038186803b15801561097457600080fd5b505afa158015610988573d6000803e3d6000fd5b505050506040513d601f19601f820116820180604052508101906109ac919061195f565b846020015161120f90919063ffffffff16565b81526020016109e46000601a015460006012016000015461120f90919063ffffffff16565b8152602001600015158152506000601b0160008573ffffffffffffffffffffffffffffffffffffffff1673ffffffffffffffffffffffffffffffffffffffff16815260200190815260200160002060008201518160000155602082015181600101556040820151816002015560608201518160030160006101000a81548160ff021916908315150217905550905050610b38600060010160009054906101000a900473ffffffffffffffffffffffffffffffffffffffff1673ffffffffffffffffffffffffffffffffffffffff16631bd39674866040518263ffffffff1660e01b8152600401610ad49190611c47565b60206040518083038186803b158015610aec57600080fd5b505afa158015610b00573d6000803e3d6000fd5b505050506040513d601f19601f82011682018060405250810190610b24919061195f565b6000601e015461120f90919063ffffffff16565b6000601e0181905550505b6001905092915050565b6000610c136000601901546000800160009054906101000a900473ffffffffffffffffffffffffffffffffffffffff1673ffffffffffffffffffffffffffffffffffffffff166370a08231306040518263ffffffff1660e01b8152600401610bb59190611b9b565b60206040518083038186803b158015610bcd57600080fd5b505afa158015610be1573d6000803e3d6000fd5b505050506040513d601f19601f82011682018060405250810190610c05919061195f565b61120f90919063ffffffff16565b905090565b610c20611891565b6000601201604051806080016040529081600082015481526020016001820154815260200160028201548152602001600382015481525050905090565b8015610c6c57610c6b610d11565b5b610cbe333084600060010160009054906101000a900473ffffffffffffffffffffffffffffffffffffffff1673ffffffffffffffffffffffffffffffffffffffff16611417909392919063ffffffff16565b610d0d33836000800160009054906101000a900473ffffffffffffffffffffffffffffffffffffffff1673ffffffffffffffffffffffffffffffffffffffff166112979092919063ffffffff16565b5050565b4260006012016003015411610f9957600060010160009054906101000a900473ffffffffffffffffffffffffffffffffffffffff1673ffffffffffffffffffffffffffffffffffffffff1663058ecdb46000601201600101546000601201600001546040518363ffffffff1660e01b8152600401610d90929190611c62565b602060405180830381600087803b158015610daa57600080fd5b505af1158015610dbe573d6000803e3d6000fd5b505050506040513d601f19601f82011682018060405250810190610de2919061195f565b50610e0660006012016002015460006012016003015461120f90919063ffffffff16565b6000601201600301819055506000601201600001600081548092919060010191905055503073ffffffffffffffffffffffffffffffffffffffff1663e4fc6b6d6040518163ffffffff1660e01b8152600401602060405180830381600087803b158015610e7257600080fd5b505af1158015610e86573d6000803e3d6000fd5b505050506040513d601f19601f82011682018060405250810190610eaa919061195f565b506000610eb5610b4d565b905060008060010160009054906101000a900473ffffffffffffffffffffffffffffffffffffffff1673ffffffffffffffffffffffffffffffffffffffff16639358928b6040518163ffffffff1660e01b815260040160206040518083038186803b158015610f2357600080fd5b505afa158015610f37573d6000803e3d6000fd5b505050506040513d601f19601f82011682018060405250810190610f5b919061195f565b9050808211610f765760008060120160010181905550610f96565b610f89818361133990919063ffffffff16565b6000601201600101819055505b50505b565b610fa3611867565b6000601b0160003373ffffffffffffffffffffffffffffffffffffffff1673ffffffffffffffffffffffffffffffffffffffff1681526020019081526020016000206040518060800160405290816000820154815260200160018201548152602001600282015481526020016003820160009054906101000a900460ff16151515158152505090506000601b0160003373ffffffffffffffffffffffffffffffffffffffff1673ffffffffffffffffffffffffffffffffffffffff168152602001908152602001600020600080820160009055600182016000905560028201600090556003820160006101000a81549060ff021916905550506110b881602001516000601e015461133990919063ffffffff16565b6000601e01819055506111143382600001516000800160009054906101000a900473ffffffffffffffffffffffffffffffffffffffff1673ffffffffffffffffffffffffffffffffffffffff166112979092919063ffffffff16565b50565b600060180160009054906101000a900473ffffffffffffffffffffffffffffffffffffffff1673ffffffffffffffffffffffffffffffffffffffff163373ffffffffffffffffffffffffffffffffffffffff161461117457600080fd5b61118c8160006019015461133990919063ffffffff16565b60006019018190555061120c600060180160009054906101000a900473ffffffffffffffffffffffffffffffffffffffff163083600060010160009054906101000a900473ffffffffffffffffffffffffffffffffffffffff1673ffffffffffffffffffffffffffffffffffffffff16611417909392919063ffffffff16565b50565b60008082840190508381101561128d576040517f08c379a000000000000000000000000000000000000000000000000000000000815260040180806020018281038252601b8152602001807f536166654d6174683a206164646974696f6e206f766572666c6f77000000000081525060200191505060405180910390fd5b8091505092915050565b6113348363a9059cbb60e01b8484604051602401808373ffffffffffffffffffffffffffffffffffffffff16815260200182815260200192505050604051602081830303815290604052907bffffffffffffffffffffffffffffffffffffffffffffffffffffffff19166020820180517bffffffffffffffffffffffffffffffffffffffffffffffffffffffff83818316178352505050506114d8565b505050565b6000828211156113b1576040517f08c379a000000000000000000000000000000000000000000000000000000000815260040180806020018281038252601e8152602001807f536166654d6174683a207375627472616374696f6e206f766572666c6f77000081525060200191505060405180910390fd5b818303905092915050565b600061140e8383600060010160009054906101000a900473ffffffffffffffffffffffffffffffffffffffff1673ffffffffffffffffffffffffffffffffffffffff166112979092919063ffffffff16565b81905092915050565b6114d2846323b872dd60e01b858585604051602401808473ffffffffffffffffffffffffffffffffffffffff1681526020018373ffffffffffffffffffffffffffffffffffffffff1681526020018281526020019350505050604051602081830303815290604052907bffffffffffffffffffffffffffffffffffffffffffffffffffffffff19166020820180517bffffffffffffffffffffffffffffffffffffffffffffffffffffffff83818316178352505050506114d8565b50505050565b606061153a826040518060400160405280602081526020017f5361666545524332303a206c6f772d6c6576656c2063616c6c206661696c65648152508573ffffffffffffffffffffffffffffffffffffffff166115c79092919063ffffffff16565b90506000815111156115c25780806020019051602081101561155b57600080fd5b81019080805190602001909291905050506115c1576040517f08c379a000000000000000000000000000000000000000000000000000000000815260040180806020018281038252602a815260200180611d50602a913960400191505060405180910390fd5b5b505050565b60606115d684846000856115df565b90509392505050565b60608247101561163a576040517f08c379a0000000000000000000000000000000000000000000000000000000008152600401808060200182810382526026815260200180611d2a6026913960400191505060405180910390fd5b61164385611788565b6116b5576040517f08c379a000000000000000000000000000000000000000000000000000000000815260040180806020018281038252601d8152602001807f416464726573733a2063616c6c20746f206e6f6e2d636f6e747261637400000081525060200191505060405180910390fd5b600060608673ffffffffffffffffffffffffffffffffffffffff1685876040518082805190602001908083835b6020831061170557805182526020820191506020810190506020830392506116e2565b6001836020036101000a03801982511681845116808217855250505050505090500191505060006040518083038185875af1925050503d8060008114611767576040519150601f19603f3d011682016040523d82523d6000602084013e61176c565b606091505b509150915061177c82828661179b565b92505050949350505050565b600080823b905060008111915050919050565b606083156117ab57829050611860565b6000835111156117be5782518084602001fd5b816040517f08c379a00000000000000000000000000000000000000000000000000000000081526004018080602001828103825283818151815260200191508051906020019080838360005b8381101561182557808201518184015260208101905061180a565b50505050905090810190601f1680156118525780820380516001836020036101000a031916815260200191505b509250505060405180910390fd5b9392505050565b60405180608001604052806000815260200160008152602001600081526020016000151581525090565b6040518060800160405280600081526020016000815260200160008152602001600081525090565b6000813590506118c881611ce4565b92915050565b6000813590506118dd81611cfb565b92915050565b6000813590506118f281611d12565b92915050565b60008151905061190781611d12565b92915050565b60006020828403121561191f57600080fd5b600061192d848285016118b9565b91505092915050565b60006020828403121561194857600080fd5b6000611956848285016118e3565b91505092915050565b60006020828403121561197157600080fd5b600061197f848285016118f8565b91505092915050565b6000806040838503121561199b57600080fd5b60006119a9858286016118e3565b92505060206119ba858286016118b9565b9150509250929050565b600080604083850312156119d757600080fd5b60006119e5858286016118e3565b92505060206119f6858286016118ce565b9150509250929050565b611a0981611c9c565b82525050565b611a1881611cae565b82525050565b611a2781611cae565b82525050565b6000611a3a601f83611c8b565b91507f4465706f7369747320666f72206163636f756e7420617265206c6f636b6564006000830152602082019050919050565b6000611a7a602683611c8b565b91507f45787465726e616c20636c61696d7320666f72206163636f756e74206172652060008301527f6c6f636b656400000000000000000000000000000000000000000000000000006020830152604082019050919050565b608082016000820151611ae96000850182611b7d565b506020820151611afc6020850182611b7d565b506040820151611b0f6040850182611b7d565b506060820151611b226060850182611a0f565b50505050565b608082016000820151611b3e6000850182611b7d565b506020820151611b516020850182611b7d565b506040820151611b646040850182611b7d565b506060820151611b776060850182611b7d565b50505050565b611b8681611cda565b82525050565b611b9581611cda565b82525050565b6000602082019050611bb06000830184611a00565b92915050565b6000602082019050611bcb6000830184611a1e565b92915050565b60006020820190508181036000830152611bea81611a2d565b9050919050565b60006020820190508181036000830152611c0a81611a6d565b9050919050565b6000608082019050611c266000830184611ad3565b92915050565b6000608082019050611c416000830184611b28565b92915050565b6000602082019050611c5c6000830184611b8c565b92915050565b6000604082019050611c776000830185611b8c565b611c846020830184611b8c565b9392505050565b600082825260208201905092915050565b6000611ca782611cba565b9050919050565b60008115159050919050565b600073ffffffffffffffffffffffffffffffffffffffff82169050919050565b6000819050919050565b611ced81611c9c565b8114611cf857600080fd5b50565b611d0481611cae565b8114611d0f57600080fd5b50565b611d1b81611cda565b8114611d2657600080fd5b5056fe416464726573733a20696e73756666696369656e742062616c616e636520666f722063616c6c5361666545524332303a204552433230206f7065726174696f6e20646964206e6f742073756363656564a26469706673582212200b94af06764b3f8f3441a1f2e86df88b6a1e958e3f25202ec79b5054f7417dca64736f6c63430007050033",
  "devdoc": {
    "kind": "dev",
    "methods": {
      "claim(address)": {
        "params": {
          "_recipient": "address"
        }
      },
      "contractBalance()": {
        "returns": {
          "_0": "uint"
        }
      },
      "giveLockBonus(uint256)": {
        "params": {
          "_amount": "uint"
        }
      },
      "index()": {
        "returns": {
          "_0": "uint"
        }
      },
      "returnLockBonus(uint256)": {
        "params": {
          "_amount": "uint"
        }
      },
      "stake(uint256,address)": {
        "params": {
          "_amount": "uint"
        },
        "returns": {
          "_0": "bool"
        }
      },
      "unstake(uint256,bool)": {
        "params": {
          "_amount": "uint",
          "_trigger": "bool"
        }
      }
    },
    "version": 1
  },
  "userdoc": {
    "kind": "user",
    "methods": {
      "claim(address)": {
        "notice": "retrieve nNecc from warmup"
      },
      "contractBalance()": {
        "notice": "returns contract Necc holdings, including bonuses provided"
      },
      "forfeit()": {
        "notice": "forfeit nNecc in warmup and retrieve Necc"
      },
      "giveLockBonus(uint256)": {
        "notice": "provide bonus to locked staking contract"
      },
      "index()": {
        "notice": "returns the nNecc index, which tracks rebase growth"
      },
      "rebase()": {
        "notice": "trigger rebase if epoch over"
      },
      "returnLockBonus(uint256)": {
        "notice": "reclaim bonus from locked staking contract"
      },
      "stake(uint256,address)": {
        "notice": "stake Necc to enter warmup"
      },
      "unstake(uint256,bool)": {
        "notice": "redeem nNecc for Necc"
      }
    },
    "version": 1
  },
  "storageLayout": {
    "storage": [
      {
        "astId": 7420,
        "contract": "contracts/facets/Bond/StakingFacet.sol:StakingFacet",
        "label": "s",
        "offset": 0,
        "slot": "0",
        "type": "t_struct(Storage)19335_storage"
      }
    ],
    "types": {
      "t_address": {
        "encoding": "inplace",
        "label": "address",
        "numberOfBytes": "20"
      },
      "t_array(t_bytes32)dyn_storage": {
        "base": "t_bytes32",
        "encoding": "dynamic_array",
        "label": "bytes32[]",
        "numberOfBytes": "32"
      },
      "t_array(t_struct(Info)19198_storage)dyn_storage": {
        "base": "t_struct(Info)19198_storage",
        "encoding": "dynamic_array",
        "label": "struct LibBondStorage.Info[]",
        "numberOfBytes": "32"
      },
      "t_array(t_struct(Payout)19193_storage)dyn_storage": {
        "base": "t_struct(Payout)19193_storage",
        "encoding": "dynamic_array",
        "label": "struct LibBondStorage.Payout[]",
        "numberOfBytes": "32"
      },
      "t_bool": {
        "encoding": "inplace",
        "label": "bool",
        "numberOfBytes": "1"
      },
      "t_bytes32": {
        "encoding": "inplace",
        "label": "bytes32",
        "numberOfBytes": "32"
      },
      "t_mapping(t_address,t_mapping(t_uint256,t_struct(Bond)19229_storage))": {
        "encoding": "mapping",
        "key": "t_address",
        "label": "mapping(address => mapping(uint256 => struct LibBondStorage.Bond))",
        "numberOfBytes": "32",
        "value": "t_mapping(t_uint256,t_struct(Bond)19229_storage)"
      },
      "t_mapping(t_address,t_struct(Claim)19256_storage)": {
        "encoding": "mapping",
        "key": "t_address",
        "label": "mapping(address => struct LibBondStorage.Claim)",
        "numberOfBytes": "32",
        "value": "t_struct(Claim)19256_storage"
      },
      "t_mapping(t_bytes32,t_uint256)": {
        "encoding": "mapping",
        "key": "t_bytes32",
        "label": "mapping(bytes32 => uint256)",
        "numberOfBytes": "32",
        "value": "t_uint256"
      },
      "t_mapping(t_uint256,t_address)": {
        "encoding": "mapping",
        "key": "t_uint256",
        "label": "mapping(uint256 => address)",
        "numberOfBytes": "32",
        "value": "t_address"
      },
      "t_mapping(t_uint256,t_array(t_struct(Payout)19193_storage)dyn_storage)": {
        "encoding": "mapping",
        "key": "t_uint256",
        "label": "mapping(uint256 => struct LibBondStorage.Payout[])",
        "numberOfBytes": "32",
        "value": "t_array(t_struct(Payout)19193_storage)dyn_storage"
      },
      "t_mapping(t_uint256,t_struct(Bond)19229_storage)": {
        "encoding": "mapping",
        "key": "t_uint256",
        "label": "mapping(uint256 => struct LibBondStorage.Bond)",
        "numberOfBytes": "32",
        "value": "t_struct(Bond)19229_storage"
      },
      "t_mapping(t_uint256,t_struct(BondDepositoryAdjustment)19238_storage)": {
        "encoding": "mapping",
        "key": "t_uint256",
        "label": "mapping(uint256 => struct LibBondStorage.BondDepositoryAdjustment)",
        "numberOfBytes": "32",
        "value": "t_struct(BondDepositoryAdjustment)19238_storage"
      },
      "t_mapping(t_uint256,t_struct(DistributorAdjustment)19205_storage)": {
        "encoding": "mapping",
        "key": "t_uint256",
        "label": "mapping(uint256 => struct LibBondStorage.DistributorAdjustment)",
        "numberOfBytes": "32",
        "value": "t_struct(DistributorAdjustment)19205_storage"
      },
      "t_mapping(t_uint256,t_struct(Terms)19220_storage)": {
        "encoding": "mapping",
        "key": "t_uint256",
        "label": "mapping(uint256 => struct LibBondStorage.Terms)",
        "numberOfBytes": "32",
        "value": "t_struct(Terms)19220_storage"
      },
      "t_mapping(t_uint256,t_uint256)": {
        "encoding": "mapping",
        "key": "t_uint256",
        "label": "mapping(uint256 => uint256)",
        "numberOfBytes": "32",
        "value": "t_uint256"
      },
      "t_struct(AddressSet)2423_storage": {
        "encoding": "inplace",
        "label": "struct EnumerableSet.AddressSet",
        "members": [
          {
            "astId": 2422,
            "contract": "contracts/facets/Bond/StakingFacet.sol:StakingFacet",
            "label": "_inner",
            "offset": 0,
            "slot": "0",
            "type": "t_struct(Set)2158_storage"
          }
        ],
        "numberOfBytes": "64"
      },
      "t_struct(Bond)19229_storage": {
        "encoding": "inplace",
        "label": "struct LibBondStorage.Bond",
        "members": [
          {
            "astId": 19222,
            "contract": "contracts/facets/Bond/StakingFacet.sol:StakingFacet",
            "label": "payout",
            "offset": 0,
            "slot": "0",
            "type": "t_uint256"
          },
          {
            "astId": 19224,
            "contract": "contracts/facets/Bond/StakingFacet.sol:StakingFacet",
            "label": "pricePaid",
            "offset": 0,
            "slot": "1",
            "type": "t_uint256"
          },
          {
            "astId": 19226,
            "contract": "contracts/facets/Bond/StakingFacet.sol:StakingFacet",
            "label": "lastTime",
            "offset": 0,
            "slot": "2",
            "type": "t_uint256"
          },
          {
            "astId": 19228,
            "contract": "contracts/facets/Bond/StakingFacet.sol:StakingFacet",
            "label": "vesting",
            "offset": 0,
            "slot": "3",
            "type": "t_uint256"
          }
        ],
        "numberOfBytes": "128"
      },
      "t_struct(BondDepositoryAdjustment)19238_storage": {
        "encoding": "inplace",
        "label": "struct LibBondStorage.BondDepositoryAdjustment",
        "members": [
          {
            "astId": 19231,
            "contract": "contracts/facets/Bond/StakingFacet.sol:StakingFacet",
            "label": "add",
            "offset": 0,
            "slot": "0",
            "type": "t_bool"
          },
          {
            "astId": 19233,
            "contract": "contracts/facets/Bond/StakingFacet.sol:StakingFacet",
            "label": "delta",
            "offset": 0,
            "slot": "1",
            "type": "t_uint256"
          },
          {
            "astId": 19235,
            "contract": "contracts/facets/Bond/StakingFacet.sol:StakingFacet",
            "label": "timeToTarget",
            "offset": 0,
            "slot": "2",
            "type": "t_uint256"
          },
          {
            "astId": 19237,
            "contract": "contracts/facets/Bond/StakingFacet.sol:StakingFacet",
            "label": "lastTime",
            "offset": 0,
            "slot": "3",
            "type": "t_uint256"
          }
        ],
        "numberOfBytes": "128"
      },
      "t_struct(Claim)19256_storage": {
        "encoding": "inplace",
        "label": "struct LibBondStorage.Claim",
        "members": [
          {
            "astId": 19249,
            "contract": "contracts/facets/Bond/StakingFacet.sol:StakingFacet",
            "label": "deposit",
            "offset": 0,
            "slot": "0",
            "type": "t_uint256"
          },
          {
            "astId": 19251,
            "contract": "contracts/facets/Bond/StakingFacet.sol:StakingFacet",
            "label": "gons",
            "offset": 0,
            "slot": "1",
            "type": "t_uint256"
          },
          {
            "astId": 19253,
            "contract": "contracts/facets/Bond/StakingFacet.sol:StakingFacet",
            "label": "expiry",
            "offset": 0,
            "slot": "2",
            "type": "t_uint256"
          },
          {
            "astId": 19255,
            "contract": "contracts/facets/Bond/StakingFacet.sol:StakingFacet",
            "label": "lock",
            "offset": 0,
            "slot": "3",
            "type": "t_bool"
          }
        ],
        "numberOfBytes": "128"
      },
      "t_struct(DistributorAdjustment)19205_storage": {
        "encoding": "inplace",
        "label": "struct LibBondStorage.DistributorAdjustment",
        "members": [
          {
            "astId": 19200,
            "contract": "contracts/facets/Bond/StakingFacet.sol:StakingFacet",
            "label": "add",
            "offset": 0,
            "slot": "0",
            "type": "t_bool"
          },
          {
            "astId": 19202,
            "contract": "contracts/facets/Bond/StakingFacet.sol:StakingFacet",
            "label": "rate",
            "offset": 0,
            "slot": "1",
            "type": "t_uint256"
          },
          {
            "astId": 19204,
            "contract": "contracts/facets/Bond/StakingFacet.sol:StakingFacet",
            "label": "target",
            "offset": 0,
            "slot": "2",
            "type": "t_uint256"
          }
        ],
        "numberOfBytes": "96"
      },
      "t_struct(Epoch)19247_storage": {
        "encoding": "inplace",
        "label": "struct LibBondStorage.Epoch",
        "members": [
          {
            "astId": 19240,
            "contract": "contracts/facets/Bond/StakingFacet.sol:StakingFacet",
            "label": "number",
            "offset": 0,
            "slot": "0",
            "type": "t_uint256"
          },
          {
            "astId": 19242,
            "contract": "contracts/facets/Bond/StakingFacet.sol:StakingFacet",
            "label": "distribute",
            "offset": 0,
            "slot": "1",
            "type": "t_uint256"
          },
          {
            "astId": 19244,
            "contract": "contracts/facets/Bond/StakingFacet.sol:StakingFacet",
            "label": "length",
            "offset": 0,
            "slot": "2",
            "type": "t_uint256"
          },
          {
            "astId": 19246,
            "contract": "contracts/facets/Bond/StakingFacet.sol:StakingFacet",
            "label": "endTime",
            "offset": 0,
            "slot": "3",
            "type": "t_uint256"
          }
        ],
        "numberOfBytes": "128"
      },
      "t_struct(Info)19198_storage": {
        "encoding": "inplace",
        "label": "struct LibBondStorage.Info",
        "members": [
          {
            "astId": 19195,
            "contract": "contracts/facets/Bond/StakingFacet.sol:StakingFacet",
            "label": "rate",
            "offset": 0,
            "slot": "0",
            "type": "t_uint256"
          },
          {
            "astId": 19197,
            "contract": "contracts/facets/Bond/StakingFacet.sol:StakingFacet",
            "label": "recipient",
            "offset": 0,
            "slot": "1",
            "type": "t_address"
          }
        ],
        "numberOfBytes": "64"
      },
      "t_struct(Payout)19193_storage": {
        "encoding": "inplace",
        "label": "struct LibBondStorage.Payout",
        "members": [
          {
            "astId": 19190,
            "contract": "contracts/facets/Bond/StakingFacet.sol:StakingFacet",
            "label": "amount",
            "offset": 0,
            "slot": "0",
            "type": "t_uint256"
          },
          {
            "astId": 19192,
            "contract": "contracts/facets/Bond/StakingFacet.sol:StakingFacet",
            "label": "blockTimestamp",
            "offset": 0,
            "slot": "1",
            "type": "t_uint256"
          }
        ],
        "numberOfBytes": "64"
      },
      "t_struct(Set)2158_storage": {
        "encoding": "inplace",
        "label": "struct EnumerableSet.Set",
        "members": [
          {
            "astId": 2153,
            "contract": "contracts/facets/Bond/StakingFacet.sol:StakingFacet",
            "label": "_values",
            "offset": 0,
            "slot": "0",
            "type": "t_array(t_bytes32)dyn_storage"
          },
          {
            "astId": 2157,
            "contract": "contracts/facets/Bond/StakingFacet.sol:StakingFacet",
            "label": "_indexes",
            "offset": 0,
            "slot": "1",
            "type": "t_mapping(t_bytes32,t_uint256)"
          }
        ],
        "numberOfBytes": "64"
      },
      "t_struct(Storage)19335_storage": {
        "encoding": "inplace",
        "label": "struct LibBondStorage.Storage",
        "members": [
          {
            "astId": 19258,
            "contract": "contracts/facets/Bond/StakingFacet.sol:StakingFacet",
            "label": "Necc",
            "offset": 0,
            "slot": "0",
            "type": "t_address"
          },
          {
            "astId": 19260,
            "contract": "contracts/facets/Bond/StakingFacet.sol:StakingFacet",
            "label": "nNecc",
            "offset": 0,
            "slot": "1",
            "type": "t_address"
          },
          {
            "astId": 19262,
            "contract": "contracts/facets/Bond/StakingFacet.sol:StakingFacet",
            "label": "nusd",
            "offset": 0,
            "slot": "2",
            "type": "t_address"
          },
          {
            "astId": 19264,
            "contract": "contracts/facets/Bond/StakingFacet.sol:StakingFacet",
            "label": "treasury",
            "offset": 0,
            "slot": "3",
            "type": "t_address"
          },
          {
            "astId": 19266,
            "contract": "contracts/facets/Bond/StakingFacet.sol:StakingFacet",
            "label": "DAO",
            "offset": 0,
            "slot": "4",
            "type": "t_address"
          },
          {
            "astId": 19268,
            "contract": "contracts/facets/Bond/StakingFacet.sol:StakingFacet",
            "label": "farmDistributor",
            "offset": 0,
            "slot": "5",
            "type": "t_address"
          },
          {
            "astId": 19270,
            "contract": "contracts/facets/Bond/StakingFacet.sol:StakingFacet",
            "label": "staking",
            "offset": 0,
            "slot": "6",
            "type": "t_address"
          },
          {
            "astId": 19272,
            "contract": "contracts/facets/Bond/StakingFacet.sol:StakingFacet",
            "label": "principles",
            "offset": 0,
            "slot": "7",
            "type": "t_struct(AddressSet)2423_storage"
          },
          {
            "astId": 19276,
            "contract": "contracts/facets/Bond/StakingFacet.sol:StakingFacet",
            "label": "terms",
            "offset": 0,
            "slot": "9",
            "type": "t_mapping(t_uint256,t_struct(Terms)19220_storage)"
          },
          {
            "astId": 19280,
            "contract": "contracts/facets/Bond/StakingFacet.sol:StakingFacet",
            "label": "bondDepositoryAdjustment",
            "offset": 0,
            "slot": "10",
            "type": "t_mapping(t_uint256,t_struct(BondDepositoryAdjustment)19238_storage)"
          },
          {
            "astId": 19286,
            "contract": "contracts/facets/Bond/StakingFacet.sol:StakingFacet",
            "label": "bondInfo",
            "offset": 0,
            "slot": "11",
            "type": "t_mapping(t_address,t_mapping(t_uint256,t_struct(Bond)19229_storage))"
          },
          {
            "astId": 19290,
            "contract": "contracts/facets/Bond/StakingFacet.sol:StakingFacet",
            "label": "totalDebt",
            "offset": 0,
            "slot": "12",
            "type": "t_mapping(t_uint256,t_uint256)"
          },
          {
            "astId": 19294,
            "contract": "contracts/facets/Bond/StakingFacet.sol:StakingFacet",
            "label": "lastDecay",
            "offset": 0,
            "slot": "13",
            "type": "t_mapping(t_uint256,t_uint256)"
          },
          {
            "astId": 19298,
            "contract": "contracts/facets/Bond/StakingFacet.sol:StakingFacet",
            "label": "nextEpochTimestamp",
            "offset": 0,
            "slot": "14",
            "type": "t_mapping(t_uint256,t_uint256)"
          },
          {
            "astId": 19302,
            "contract": "contracts/facets/Bond/StakingFacet.sol:StakingFacet",
            "label": "priceFeeds",
            "offset": 0,
            "slot": "15",
            "type": "t_mapping(t_uint256,t_address)"
          },
          {
            "astId": 19305,
            "contract": "contracts/facets/Bond/StakingFacet.sol:StakingFacet",
            "label": "info",
            "offset": 0,
            "slot": "16",
            "type": "t_array(t_struct(Info)19198_storage)dyn_storage"
          },
          {
            "astId": 19309,
            "contract": "contracts/facets/Bond/StakingFacet.sol:StakingFacet",
            "label": "distributorAdjustments",
            "offset": 0,
            "slot": "17",
            "type": "t_mapping(t_uint256,t_struct(DistributorAdjustment)19205_storage)"
          },
          {
            "astId": 19311,
            "contract": "contracts/facets/Bond/StakingFacet.sol:StakingFacet",
            "label": "epoch",
            "offset": 0,
            "slot": "18",
            "type": "t_struct(Epoch)19247_storage"
          },
          {
            "astId": 19313,
            "contract": "contracts/facets/Bond/StakingFacet.sol:StakingFacet",
            "label": "epochLength",
            "offset": 0,
            "slot": "22",
            "type": "t_uint256"
          },
          {
            "astId": 19315,
            "contract": "contracts/facets/Bond/StakingFacet.sol:StakingFacet",
            "label": "distributor",
            "offset": 0,
            "slot": "23",
            "type": "t_address"
          },
          {
            "astId": 19317,
            "contract": "contracts/facets/Bond/StakingFacet.sol:StakingFacet",
            "label": "locker",
            "offset": 0,
            "slot": "24",
            "type": "t_address"
          },
          {
            "astId": 19319,
            "contract": "contracts/facets/Bond/StakingFacet.sol:StakingFacet",
            "label": "totalBonus",
            "offset": 0,
            "slot": "25",
            "type": "t_uint256"
          },
          {
            "astId": 19321,
            "contract": "contracts/facets/Bond/StakingFacet.sol:StakingFacet",
            "label": "warmupPeriod",
            "offset": 0,
            "slot": "26",
            "type": "t_uint256"
          },
          {
            "astId": 19325,
            "contract": "contracts/facets/Bond/StakingFacet.sol:StakingFacet",
            "label": "warmupInfo",
            "offset": 0,
            "slot": "27",
            "type": "t_mapping(t_address,t_struct(Claim)19256_storage)"
          },
          {
            "astId": 19327,
            "contract": "contracts/facets/Bond/StakingFacet.sol:StakingFacet",
            "label": "targetSum",
            "offset": 0,
            "slot": "28",
            "type": "t_uint256"
          },
          {
            "astId": 19332,
            "contract": "contracts/facets/Bond/StakingFacet.sol:StakingFacet",
            "label": "payouts",
            "offset": 0,
            "slot": "29",
            "type": "t_mapping(t_uint256,t_array(t_struct(Payout)19193_storage)dyn_storage)"
          },
          {
            "astId": 19334,
            "contract": "contracts/facets/Bond/StakingFacet.sol:StakingFacet",
            "label": "gonsInWarmup",
            "offset": 0,
            "slot": "30",
            "type": "t_uint256"
          }
        ],
        "numberOfBytes": "992"
      },
      "t_struct(Terms)19220_storage": {
        "encoding": "inplace",
        "label": "struct LibBondStorage.Terms",
        "members": [
          {
            "astId": 19207,
            "contract": "contracts/facets/Bond/StakingFacet.sol:StakingFacet",
            "label": "controlVariable",
            "offset": 0,
            "slot": "0",
            "type": "t_uint256"
          },
          {
            "astId": 19209,
            "contract": "contracts/facets/Bond/StakingFacet.sol:StakingFacet",
            "label": "minimumPrice",
            "offset": 0,
            "slot": "1",
            "type": "t_uint256"
          },
          {
            "astId": 19211,
            "contract": "contracts/facets/Bond/StakingFacet.sol:StakingFacet",
            "label": "maxPayout",
            "offset": 0,
            "slot": "2",
            "type": "t_uint256"
          },
          {
            "astId": 19213,
            "contract": "contracts/facets/Bond/StakingFacet.sol:StakingFacet",
            "label": "fee",
            "offset": 0,
            "slot": "3",
            "type": "t_uint256"
          },
          {
            "astId": 19215,
            "contract": "contracts/facets/Bond/StakingFacet.sol:StakingFacet",
            "label": "maxDebt",
            "offset": 0,
            "slot": "4",
            "type": "t_uint256"
          },
          {
            "astId": 19217,
            "contract": "contracts/facets/Bond/StakingFacet.sol:StakingFacet",
            "label": "vestingTerm",
            "offset": 0,
            "slot": "5",
            "type": "t_uint256"
          },
          {
            "astId": 19219,
            "contract": "contracts/facets/Bond/StakingFacet.sol:StakingFacet",
            "label": "isLiquidityBond",
            "offset": 0,
            "slot": "6",
            "type": "t_bool"
          }
        ],
        "numberOfBytes": "224"
      },
      "t_uint256": {
        "encoding": "inplace",
        "label": "uint256",
        "numberOfBytes": "32"
      }
    }
  }
}