{
  "address": "0xDe59C8f14E1feB2EA356139374013EF19D962178",
  "abi": [
    {
      "inputs": [
        {
          "internalType": "address",
          "name": "_nNecc",
          "type": "address"
        }
      ],
      "name": "initializeStakingWarmup",
      "outputs": [],
      "stateMutability": "nonpayable",
      "type": "function"
    },
    {
      "inputs": [
        {
          "internalType": "address",
          "name": "_staker",
          "type": "address"
        },
        {
          "internalType": "uint256",
          "name": "_amount",
          "type": "uint256"
        }
      ],
      "name": "retrieve",
      "outputs": [],
      "stateMutability": "nonpayable",
      "type": "function"
    }
  ],
  "transactionHash": "0x0b1ebf19b8f63f304d0b293009fd01175387f7e2fc935f3df9dc63b7abf47731",
  "args": [],
  "solcInputHash": "151e2ead869a844c9308e821e86ae1fb",
  "bytecode": "0x608060405234801561001057600080fd5b50610292806100206000396000f3fe608060405234801561001057600080fd5b50600436106100365760003560e01c8063508c0dc91461003b578063c3a2a6651461007f575b600080fd5b61007d6004803603602081101561005157600080fd5b81019080803573ffffffffffffffffffffffffffffffffffffffff1690602001909291905050506100cd565b005b6100cb6004803603604081101561009557600080fd5b81019080803573ffffffffffffffffffffffffffffffffffffffff1690602001909291908035906020019092919050505061014e565b005b600073ffffffffffffffffffffffffffffffffffffffff168173ffffffffffffffffffffffffffffffffffffffff16141561010757600080fd5b80600060010160006101000a81548173ffffffffffffffffffffffffffffffffffffffff021916908373ffffffffffffffffffffffffffffffffffffffff16021790555050565b3073ffffffffffffffffffffffffffffffffffffffff163373ffffffffffffffffffffffffffffffffffffffff161461018657600080fd5b600060010160009054906101000a900473ffffffffffffffffffffffffffffffffffffffff1673ffffffffffffffffffffffffffffffffffffffff1663a9059cbb83836040518363ffffffff1660e01b8152600401808373ffffffffffffffffffffffffffffffffffffffff16815260200182815260200192505050602060405180830381600087803b15801561021c57600080fd5b505af1158015610230573d6000803e3d6000fd5b505050506040513d602081101561024657600080fd5b810190808051906020019092919050505050505056fea2646970667358221220e6d51236f0229061f08514f9b0d7695e540aa4c6d56db3dc9b3cd4d29107c74664736f6c63430007050033",
  "devdoc": {
    "kind": "dev",
    "methods": {},
    "version": 1
  },
  "userdoc": {
    "kind": "user",
    "methods": {},
    "version": 1
  },
  "storageLayout": {
    "storage": [
      {
        "astId": 5215,
        "contract": "contracts/facets/Bond/StakingWarmupFacet.sol:StakingWarmupFacet",
        "label": "s",
        "offset": 0,
        "slot": "0",
        "type": "t_struct(Storage)5395_storage"
      }
    ],
    "types": {
      "t_address": {
        "encoding": "inplace",
        "label": "address",
        "numberOfBytes": "20"
      },
      "t_array(t_bytes32)dyn_storage": {
        "base": "t_bytes32",
        "encoding": "dynamic_array",
        "label": "bytes32[]",
        "numberOfBytes": "32"
      },
      "t_array(t_struct(Info)5256_storage)dyn_storage": {
        "base": "t_struct(Info)5256_storage",
        "encoding": "dynamic_array",
        "label": "struct LibBondStorage.Info[]",
        "numberOfBytes": "32"
      },
      "t_array(t_struct(Payout)5251_storage)dyn_storage": {
        "base": "t_struct(Payout)5251_storage",
        "encoding": "dynamic_array",
        "label": "struct LibBondStorage.Payout[]",
        "numberOfBytes": "32"
      },
      "t_bool": {
        "encoding": "inplace",
        "label": "bool",
        "numberOfBytes": "1"
      },
      "t_bytes32": {
        "encoding": "inplace",
        "label": "bytes32",
        "numberOfBytes": "32"
      },
      "t_mapping(t_address,t_mapping(t_uint256,t_struct(Bond)5287_storage))": {
        "encoding": "mapping",
        "key": "t_address",
        "label": "mapping(address => mapping(uint256 => struct LibBondStorage.Bond))",
        "numberOfBytes": "32",
        "value": "t_mapping(t_uint256,t_struct(Bond)5287_storage)"
      },
      "t_mapping(t_address,t_struct(Claim)5314_storage)": {
        "encoding": "mapping",
        "key": "t_address",
        "label": "mapping(address => struct LibBondStorage.Claim)",
        "numberOfBytes": "32",
        "value": "t_struct(Claim)5314_storage"
      },
      "t_mapping(t_bytes32,t_uint256)": {
        "encoding": "mapping",
        "key": "t_bytes32",
        "label": "mapping(bytes32 => uint256)",
        "numberOfBytes": "32",
        "value": "t_uint256"
      },
      "t_mapping(t_uint256,t_address)": {
        "encoding": "mapping",
        "key": "t_uint256",
        "label": "mapping(uint256 => address)",
        "numberOfBytes": "32",
        "value": "t_address"
      },
      "t_mapping(t_uint256,t_array(t_struct(Payout)5251_storage)dyn_storage)": {
        "encoding": "mapping",
        "key": "t_uint256",
        "label": "mapping(uint256 => struct LibBondStorage.Payout[])",
        "numberOfBytes": "32",
        "value": "t_array(t_struct(Payout)5251_storage)dyn_storage"
      },
      "t_mapping(t_uint256,t_struct(Bond)5287_storage)": {
        "encoding": "mapping",
        "key": "t_uint256",
        "label": "mapping(uint256 => struct LibBondStorage.Bond)",
        "numberOfBytes": "32",
        "value": "t_struct(Bond)5287_storage"
      },
      "t_mapping(t_uint256,t_struct(BondDepositoryAdjustment)5296_storage)": {
        "encoding": "mapping",
        "key": "t_uint256",
        "label": "mapping(uint256 => struct LibBondStorage.BondDepositoryAdjustment)",
        "numberOfBytes": "32",
        "value": "t_struct(BondDepositoryAdjustment)5296_storage"
      },
      "t_mapping(t_uint256,t_struct(DistributorAdjustment)5263_storage)": {
        "encoding": "mapping",
        "key": "t_uint256",
        "label": "mapping(uint256 => struct LibBondStorage.DistributorAdjustment)",
        "numberOfBytes": "32",
        "value": "t_struct(DistributorAdjustment)5263_storage"
      },
      "t_mapping(t_uint256,t_struct(Terms)5278_storage)": {
        "encoding": "mapping",
        "key": "t_uint256",
        "label": "mapping(uint256 => struct LibBondStorage.Terms)",
        "numberOfBytes": "32",
        "value": "t_struct(Terms)5278_storage"
      },
      "t_mapping(t_uint256,t_uint256)": {
        "encoding": "mapping",
        "key": "t_uint256",
        "label": "mapping(uint256 => uint256)",
        "numberOfBytes": "32",
        "value": "t_uint256"
      },
      "t_struct(AddressSet)2240_storage": {
        "encoding": "inplace",
        "label": "struct EnumerableSet.AddressSet",
        "members": [
          {
            "astId": 2239,
            "contract": "contracts/facets/Bond/StakingWarmupFacet.sol:StakingWarmupFacet",
            "label": "_inner",
            "offset": 0,
            "slot": "0",
            "type": "t_struct(Set)1975_storage"
          }
        ],
        "numberOfBytes": "64"
      },
      "t_struct(Bond)5287_storage": {
        "encoding": "inplace",
        "label": "struct LibBondStorage.Bond",
        "members": [
          {
            "astId": 5280,
            "contract": "contracts/facets/Bond/StakingWarmupFacet.sol:StakingWarmupFacet",
            "label": "payout",
            "offset": 0,
            "slot": "0",
            "type": "t_uint256"
          },
          {
            "astId": 5282,
            "contract": "contracts/facets/Bond/StakingWarmupFacet.sol:StakingWarmupFacet",
            "label": "pricePaid",
            "offset": 0,
            "slot": "1",
            "type": "t_uint256"
          },
          {
            "astId": 5284,
            "contract": "contracts/facets/Bond/StakingWarmupFacet.sol:StakingWarmupFacet",
            "label": "lastTime",
            "offset": 0,
            "slot": "2",
            "type": "t_uint256"
          },
          {
            "astId": 5286,
            "contract": "contracts/facets/Bond/StakingWarmupFacet.sol:StakingWarmupFacet",
            "label": "vesting",
            "offset": 0,
            "slot": "3",
            "type": "t_uint256"
          }
        ],
        "numberOfBytes": "128"
      },
      "t_struct(BondDepositoryAdjustment)5296_storage": {
        "encoding": "inplace",
        "label": "struct LibBondStorage.BondDepositoryAdjustment",
        "members": [
          {
            "astId": 5289,
            "contract": "contracts/facets/Bond/StakingWarmupFacet.sol:StakingWarmupFacet",
            "label": "add",
            "offset": 0,
            "slot": "0",
            "type": "t_bool"
          },
          {
            "astId": 5291,
            "contract": "contracts/facets/Bond/StakingWarmupFacet.sol:StakingWarmupFacet",
            "label": "delta",
            "offset": 0,
            "slot": "1",
            "type": "t_uint256"
          },
          {
            "astId": 5293,
            "contract": "contracts/facets/Bond/StakingWarmupFacet.sol:StakingWarmupFacet",
            "label": "timeToTarget",
            "offset": 0,
            "slot": "2",
            "type": "t_uint256"
          },
          {
            "astId": 5295,
            "contract": "contracts/facets/Bond/StakingWarmupFacet.sol:StakingWarmupFacet",
            "label": "lastTime",
            "offset": 0,
            "slot": "3",
            "type": "t_uint256"
          }
        ],
        "numberOfBytes": "128"
      },
      "t_struct(Claim)5314_storage": {
        "encoding": "inplace",
        "label": "struct LibBondStorage.Claim",
        "members": [
          {
            "astId": 5307,
            "contract": "contracts/facets/Bond/StakingWarmupFacet.sol:StakingWarmupFacet",
            "label": "deposit",
            "offset": 0,
            "slot": "0",
            "type": "t_uint256"
          },
          {
            "astId": 5309,
            "contract": "contracts/facets/Bond/StakingWarmupFacet.sol:StakingWarmupFacet",
            "label": "gons",
            "offset": 0,
            "slot": "1",
            "type": "t_uint256"
          },
          {
            "astId": 5311,
            "contract": "contracts/facets/Bond/StakingWarmupFacet.sol:StakingWarmupFacet",
            "label": "expiry",
            "offset": 0,
            "slot": "2",
            "type": "t_uint256"
          },
          {
            "astId": 5313,
            "contract": "contracts/facets/Bond/StakingWarmupFacet.sol:StakingWarmupFacet",
            "label": "lock",
            "offset": 0,
            "slot": "3",
            "type": "t_bool"
          }
        ],
        "numberOfBytes": "128"
      },
      "t_struct(DistributorAdjustment)5263_storage": {
        "encoding": "inplace",
        "label": "struct LibBondStorage.DistributorAdjustment",
        "members": [
          {
            "astId": 5258,
            "contract": "contracts/facets/Bond/StakingWarmupFacet.sol:StakingWarmupFacet",
            "label": "add",
            "offset": 0,
            "slot": "0",
            "type": "t_bool"
          },
          {
            "astId": 5260,
            "contract": "contracts/facets/Bond/StakingWarmupFacet.sol:StakingWarmupFacet",
            "label": "rate",
            "offset": 0,
            "slot": "1",
            "type": "t_uint256"
          },
          {
            "astId": 5262,
            "contract": "contracts/facets/Bond/StakingWarmupFacet.sol:StakingWarmupFacet",
            "label": "target",
            "offset": 0,
            "slot": "2",
            "type": "t_uint256"
          }
        ],
        "numberOfBytes": "96"
      },
      "t_struct(Epoch)5305_storage": {
        "encoding": "inplace",
        "label": "struct LibBondStorage.Epoch",
        "members": [
          {
            "astId": 5298,
            "contract": "contracts/facets/Bond/StakingWarmupFacet.sol:StakingWarmupFacet",
            "label": "number",
            "offset": 0,
            "slot": "0",
            "type": "t_uint256"
          },
          {
            "astId": 5300,
            "contract": "contracts/facets/Bond/StakingWarmupFacet.sol:StakingWarmupFacet",
            "label": "distribute",
            "offset": 0,
            "slot": "1",
            "type": "t_uint256"
          },
          {
            "astId": 5302,
            "contract": "contracts/facets/Bond/StakingWarmupFacet.sol:StakingWarmupFacet",
            "label": "length",
            "offset": 0,
            "slot": "2",
            "type": "t_uint256"
          },
          {
            "astId": 5304,
            "contract": "contracts/facets/Bond/StakingWarmupFacet.sol:StakingWarmupFacet",
            "label": "endTime",
            "offset": 0,
            "slot": "3",
            "type": "t_uint256"
          }
        ],
        "numberOfBytes": "128"
      },
      "t_struct(Info)5256_storage": {
        "encoding": "inplace",
        "label": "struct LibBondStorage.Info",
        "members": [
          {
            "astId": 5253,
            "contract": "contracts/facets/Bond/StakingWarmupFacet.sol:StakingWarmupFacet",
            "label": "rate",
            "offset": 0,
            "slot": "0",
            "type": "t_uint256"
          },
          {
            "astId": 5255,
            "contract": "contracts/facets/Bond/StakingWarmupFacet.sol:StakingWarmupFacet",
            "label": "recipient",
            "offset": 0,
            "slot": "1",
            "type": "t_address"
          }
        ],
        "numberOfBytes": "64"
      },
      "t_struct(Payout)5251_storage": {
        "encoding": "inplace",
        "label": "struct LibBondStorage.Payout",
        "members": [
          {
            "astId": 5248,
            "contract": "contracts/facets/Bond/StakingWarmupFacet.sol:StakingWarmupFacet",
            "label": "amount",
            "offset": 0,
            "slot": "0",
            "type": "t_uint256"
          },
          {
            "astId": 5250,
            "contract": "contracts/facets/Bond/StakingWarmupFacet.sol:StakingWarmupFacet",
            "label": "blockTimestamp",
            "offset": 0,
            "slot": "1",
            "type": "t_uint256"
          }
        ],
        "numberOfBytes": "64"
      },
      "t_struct(Set)1975_storage": {
        "encoding": "inplace",
        "label": "struct EnumerableSet.Set",
        "members": [
          {
            "astId": 1970,
            "contract": "contracts/facets/Bond/StakingWarmupFacet.sol:StakingWarmupFacet",
            "label": "_values",
            "offset": 0,
            "slot": "0",
            "type": "t_array(t_bytes32)dyn_storage"
          },
          {
            "astId": 1974,
            "contract": "contracts/facets/Bond/StakingWarmupFacet.sol:StakingWarmupFacet",
            "label": "_indexes",
            "offset": 0,
            "slot": "1",
            "type": "t_mapping(t_bytes32,t_uint256)"
          }
        ],
        "numberOfBytes": "64"
      },
      "t_struct(Storage)5395_storage": {
        "encoding": "inplace",
        "label": "struct LibBondStorage.Storage",
        "members": [
          {
            "astId": 5316,
            "contract": "contracts/facets/Bond/StakingWarmupFacet.sol:StakingWarmupFacet",
            "label": "Necc",
            "offset": 0,
            "slot": "0",
            "type": "t_address"
          },
          {
            "astId": 5318,
            "contract": "contracts/facets/Bond/StakingWarmupFacet.sol:StakingWarmupFacet",
            "label": "nNecc",
            "offset": 0,
            "slot": "1",
            "type": "t_address"
          },
          {
            "astId": 5320,
            "contract": "contracts/facets/Bond/StakingWarmupFacet.sol:StakingWarmupFacet",
            "label": "nusd",
            "offset": 0,
            "slot": "2",
            "type": "t_address"
          },
          {
            "astId": 5322,
            "contract": "contracts/facets/Bond/StakingWarmupFacet.sol:StakingWarmupFacet",
            "label": "treasury",
            "offset": 0,
            "slot": "3",
            "type": "t_address"
          },
          {
            "astId": 5324,
            "contract": "contracts/facets/Bond/StakingWarmupFacet.sol:StakingWarmupFacet",
            "label": "DAO",
            "offset": 0,
            "slot": "4",
            "type": "t_address"
          },
          {
            "astId": 5326,
            "contract": "contracts/facets/Bond/StakingWarmupFacet.sol:StakingWarmupFacet",
            "label": "staking",
            "offset": 0,
            "slot": "5",
            "type": "t_address"
          },
          {
            "astId": 5328,
            "contract": "contracts/facets/Bond/StakingWarmupFacet.sol:StakingWarmupFacet",
            "label": "principles",
            "offset": 0,
            "slot": "6",
            "type": "t_struct(AddressSet)2240_storage"
          },
          {
            "astId": 5332,
            "contract": "contracts/facets/Bond/StakingWarmupFacet.sol:StakingWarmupFacet",
            "label": "terms",
            "offset": 0,
            "slot": "8",
            "type": "t_mapping(t_uint256,t_struct(Terms)5278_storage)"
          },
          {
            "astId": 5336,
            "contract": "contracts/facets/Bond/StakingWarmupFacet.sol:StakingWarmupFacet",
            "label": "bondDepositoryAdjustment",
            "offset": 0,
            "slot": "9",
            "type": "t_mapping(t_uint256,t_struct(BondDepositoryAdjustment)5296_storage)"
          },
          {
            "astId": 5342,
            "contract": "contracts/facets/Bond/StakingWarmupFacet.sol:StakingWarmupFacet",
            "label": "bondInfo",
            "offset": 0,
            "slot": "10",
            "type": "t_mapping(t_address,t_mapping(t_uint256,t_struct(Bond)5287_storage))"
          },
          {
            "astId": 5346,
            "contract": "contracts/facets/Bond/StakingWarmupFacet.sol:StakingWarmupFacet",
            "label": "totalDebt",
            "offset": 0,
            "slot": "11",
            "type": "t_mapping(t_uint256,t_uint256)"
          },
          {
            "astId": 5350,
            "contract": "contracts/facets/Bond/StakingWarmupFacet.sol:StakingWarmupFacet",
            "label": "lastDecay",
            "offset": 0,
            "slot": "12",
            "type": "t_mapping(t_uint256,t_uint256)"
          },
          {
            "astId": 5354,
            "contract": "contracts/facets/Bond/StakingWarmupFacet.sol:StakingWarmupFacet",
            "label": "nextEpochTimestamp",
            "offset": 0,
            "slot": "13",
            "type": "t_mapping(t_uint256,t_uint256)"
          },
          {
            "astId": 5358,
            "contract": "contracts/facets/Bond/StakingWarmupFacet.sol:StakingWarmupFacet",
            "label": "priceFeeds",
            "offset": 0,
            "slot": "14",
            "type": "t_mapping(t_uint256,t_address)"
          },
          {
            "astId": 5361,
            "contract": "contracts/facets/Bond/StakingWarmupFacet.sol:StakingWarmupFacet",
            "label": "info",
            "offset": 0,
            "slot": "15",
            "type": "t_array(t_struct(Info)5256_storage)dyn_storage"
          },
          {
            "astId": 5365,
            "contract": "contracts/facets/Bond/StakingWarmupFacet.sol:StakingWarmupFacet",
            "label": "distributorAdjustments",
            "offset": 0,
            "slot": "16",
            "type": "t_mapping(t_uint256,t_struct(DistributorAdjustment)5263_storage)"
          },
          {
            "astId": 5367,
            "contract": "contracts/facets/Bond/StakingWarmupFacet.sol:StakingWarmupFacet",
            "label": "epoch",
            "offset": 0,
            "slot": "17",
            "type": "t_struct(Epoch)5305_storage"
          },
          {
            "astId": 5369,
            "contract": "contracts/facets/Bond/StakingWarmupFacet.sol:StakingWarmupFacet",
            "label": "epochLength",
            "offset": 0,
            "slot": "21",
            "type": "t_uint256"
          },
          {
            "astId": 5371,
            "contract": "contracts/facets/Bond/StakingWarmupFacet.sol:StakingWarmupFacet",
            "label": "distributor",
            "offset": 0,
            "slot": "22",
            "type": "t_address"
          },
          {
            "astId": 5373,
            "contract": "contracts/facets/Bond/StakingWarmupFacet.sol:StakingWarmupFacet",
            "label": "locker",
            "offset": 0,
            "slot": "23",
            "type": "t_address"
          },
          {
            "astId": 5375,
            "contract": "contracts/facets/Bond/StakingWarmupFacet.sol:StakingWarmupFacet",
            "label": "totalBonus",
            "offset": 0,
            "slot": "24",
            "type": "t_uint256"
          },
          {
            "astId": 5377,
            "contract": "contracts/facets/Bond/StakingWarmupFacet.sol:StakingWarmupFacet",
            "label": "warmupPeriod",
            "offset": 0,
            "slot": "25",
            "type": "t_uint256"
          },
          {
            "astId": 5381,
            "contract": "contracts/facets/Bond/StakingWarmupFacet.sol:StakingWarmupFacet",
            "label": "warmupInfo",
            "offset": 0,
            "slot": "26",
            "type": "t_mapping(t_address,t_struct(Claim)5314_storage)"
          },
          {
            "astId": 5383,
            "contract": "contracts/facets/Bond/StakingWarmupFacet.sol:StakingWarmupFacet",
            "label": "targetSum",
            "offset": 0,
            "slot": "27",
            "type": "t_uint256"
          },
          {
            "astId": 5388,
            "contract": "contracts/facets/Bond/StakingWarmupFacet.sol:StakingWarmupFacet",
            "label": "payouts",
            "offset": 0,
            "slot": "28",
            "type": "t_mapping(t_uint256,t_array(t_struct(Payout)5251_storage)dyn_storage)"
          },
          {
            "astId": 5392,
            "contract": "contracts/facets/Bond/StakingWarmupFacet.sol:StakingWarmupFacet",
            "label": "weights",
            "offset": 0,
            "slot": "29",
            "type": "t_mapping(t_uint256,t_uint256)"
          },
          {
            "astId": 5394,
            "contract": "contracts/facets/Bond/StakingWarmupFacet.sol:StakingWarmupFacet",
            "label": "totalWeight",
            "offset": 0,
            "slot": "30",
            "type": "t_uint256"
          }
        ],
        "numberOfBytes": "992"
      },
      "t_struct(Terms)5278_storage": {
        "encoding": "inplace",
        "label": "struct LibBondStorage.Terms",
        "members": [
          {
            "astId": 5265,
            "contract": "contracts/facets/Bond/StakingWarmupFacet.sol:StakingWarmupFacet",
            "label": "controlVariable",
            "offset": 0,
            "slot": "0",
            "type": "t_uint256"
          },
          {
            "astId": 5267,
            "contract": "contracts/facets/Bond/StakingWarmupFacet.sol:StakingWarmupFacet",
            "label": "minimumPrice",
            "offset": 0,
            "slot": "1",
            "type": "t_uint256"
          },
          {
            "astId": 5269,
            "contract": "contracts/facets/Bond/StakingWarmupFacet.sol:StakingWarmupFacet",
            "label": "maxPayout",
            "offset": 0,
            "slot": "2",
            "type": "t_uint256"
          },
          {
            "astId": 5271,
            "contract": "contracts/facets/Bond/StakingWarmupFacet.sol:StakingWarmupFacet",
            "label": "fee",
            "offset": 0,
            "slot": "3",
            "type": "t_uint256"
          },
          {
            "astId": 5273,
            "contract": "contracts/facets/Bond/StakingWarmupFacet.sol:StakingWarmupFacet",
            "label": "maxDebt",
            "offset": 0,
            "slot": "4",
            "type": "t_uint256"
          },
          {
            "astId": 5275,
            "contract": "contracts/facets/Bond/StakingWarmupFacet.sol:StakingWarmupFacet",
            "label": "vestingTerm",
            "offset": 0,
            "slot": "5",
            "type": "t_uint256"
          },
          {
            "astId": 5277,
            "contract": "contracts/facets/Bond/StakingWarmupFacet.sol:StakingWarmupFacet",
            "label": "isLiquidityBond",
            "offset": 0,
            "slot": "6",
            "type": "t_bool"
          }
        ],
        "numberOfBytes": "224"
      },
      "t_uint256": {
        "encoding": "inplace",
        "label": "uint256",
        "numberOfBytes": "32"
      }
    }
  }
}