{
  "address": "0x5BB934170d17A8162C1CF67c99a10DdbfA155507",
  "abi": [
    {
      "inputs": [
        {
          "internalType": "address",
          "name": "_token",
          "type": "address"
        },
        {
          "internalType": "uint256",
          "name": "_primaryPrice",
          "type": "uint256"
        }
      ],
      "name": "getAmmPrice",
      "outputs": [
        {
          "internalType": "uint256",
          "name": "",
          "type": "uint256"
        }
      ],
      "stateMutability": "view",
      "type": "function"
    },
    {
      "inputs": [
        {
          "internalType": "address",
          "name": "_pair",
          "type": "address"
        },
        {
          "internalType": "bool",
          "name": "_divByReserve0",
          "type": "bool"
        }
      ],
      "name": "getPairPrice",
      "outputs": [
        {
          "internalType": "uint256",
          "name": "",
          "type": "uint256"
        }
      ],
      "stateMutability": "view",
      "type": "function"
    },
    {
      "inputs": [
        {
          "internalType": "address",
          "name": "_token",
          "type": "address"
        },
        {
          "internalType": "bool",
          "name": "_maximise",
          "type": "bool"
        },
        {
          "internalType": "bool",
          "name": "_includeAmmPrice",
          "type": "bool"
        }
      ],
      "name": "getPrice",
      "outputs": [
        {
          "internalType": "uint256",
          "name": "",
          "type": "uint256"
        }
      ],
      "stateMutability": "view",
      "type": "function"
    },
    {
      "inputs": [
        {
          "internalType": "address",
          "name": "_token",
          "type": "address"
        },
        {
          "internalType": "bool",
          "name": "_maximise",
          "type": "bool"
        }
      ],
      "name": "getPrimaryPrice",
      "outputs": [
        {
          "internalType": "uint256",
          "name": "",
          "type": "uint256"
        }
      ],
      "stateMutability": "view",
      "type": "function"
    }
  ],
  "transactionHash": "0x086efb66c93db1d6198f45524bfcbefe5cfd409049836d3aa24a5af38c155d65",
  "args": [],
  "solcInputHash": "b72ba0d86e062f2474d5df8690203607",
  "bytecode": "0x608060405234801561001057600080fd5b5060008060000160006101000a81548160ff0219169083151502179055506110608061003d6000396000f3fe608060405234801561001057600080fd5b506004361061004c5760003560e01c806356c8c2c1146100515780635ae69163146100b5578063a2ad7b9314610125578063e5d902ff14610189575b600080fd5b61009f6004803603604081101561006757600080fd5b81019080803573ffffffffffffffffffffffffffffffffffffffff1690602001909291908035151590602001909291905050506101eb565b6040518082815260200191505060405180910390f35b61010f600480360360608110156100cb57600080fd5b81019080803573ffffffffffffffffffffffffffffffffffffffff16906020019092919080351515906020019092919080351515906020019092919050505061076c565b6040518082815260200191505060405180910390f35b6101736004803603604081101561013b57600080fd5b81019080803573ffffffffffffffffffffffffffffffffffffffff169060200190929190803515159060200190929190505050610a51565b6040518082815260200191505060405180910390f35b6101d56004803603604081101561019f57600080fd5b81019080803573ffffffffffffffffffffffffffffffffffffffff16906020019092919080359060200190929190505050610bb6565b6040518082815260200191505060405180910390f35b600080600060150160008573ffffffffffffffffffffffffffffffffffffffff1673ffffffffffffffffffffffffffffffffffffffff16815260200190815260200160002060009054906101000a900473ffffffffffffffffffffffffffffffffffffffff169050600073ffffffffffffffffffffffffffffffffffffffff168173ffffffffffffffffffffffffffffffffffffffff1614156102f6576040517f08c379a000000000000000000000000000000000000000000000000000000000815260040180806020018281038252601d8152602001807f5072696365466565643a20696e76616c6964207072696365206665656400000081525060200191505060405180910390fd5b60008190506000808273ffffffffffffffffffffffffffffffffffffffff1663668a0f026040518163ffffffff1660e01b815260040160206040518083038186803b15801561034457600080fd5b505afa158015610358573d6000803e3d6000fd5b505050506040513d602081101561036e57600080fd5b8101908080519060200190929190505050905060005b60018169ffffffffffffffffffff16101561066d578069ffffffffffffffffffff168269ffffffffffffffffffff16116103bd5761066d565b6000808269ffffffffffffffffffff1614156104d75760008573ffffffffffffffffffffffffffffffffffffffff166350d25bcd6040518163ffffffff1660e01b815260040160206040518083038186803b15801561041b57600080fd5b505afa15801561042f573d6000803e3d6000fd5b505050506040513d602081101561044557600080fd5b81019080805190602001909291905050509050600081136104ce576040517f08c379a00000000000000000000000000000000000000000000000000000000081526004018080602001828103825260188152602001807f5072696365466565643a20696e76616c6964207072696365000000000000000081525060200191505060405180910390fd5b8091505061061c565b60008573ffffffffffffffffffffffffffffffffffffffff16639a6fc8f58486036040518263ffffffff1660e01b8152600401808269ffffffffffffffffffff16815260200191505060a06040518083038186803b15801561053857600080fd5b505afa15801561054c573d6000803e3d6000fd5b505050506040513d60a081101561056257600080fd5b81019080805190602001909291908051906020019092919080519060200190929190805190602001909291908051906020019092919050505050505091505060008113610617576040517f08c379a00000000000000000000000000000000000000000000000000000000081526004018080602001828103825260188152602001807f5072696365466565643a20696e76616c6964207072696365000000000000000081525060200191505060405180910390fd5b809150505b600084141561062e5780935050610660565b87801561063a57508381115b156106485780935050610660565b8715801561065557508381105b1561065e578093505b505b8080600101915050610384565b50600082116106e4576040517f08c379a00000000000000000000000000000000000000000000000000000000081526004018080602001828103825260208152602001807f5072696365466565643a20636f756c64206e6f7420666574636820707269636581525060200191505060405180910390fd5b60008060160160008973ffffffffffffffffffffffffffffffffffffffff1673ffffffffffffffffffffffffffffffffffffffff16815260200190815260200160002054905061075f81600a0a6107516c0c9f2c9cd04674edea4000000086610def90919063ffffffff16565b610e7590919063ffffffff16565b9550505050505092915050565b600080600060150160008673ffffffffffffffffffffffffffffffffffffffff1673ffffffffffffffffffffffffffffffffffffffff16815260200190815260200160002060009054906101000a900473ffffffffffffffffffffffffffffffffffffffff16905060008060170160008773ffffffffffffffffffffffffffffffffffffffff1673ffffffffffffffffffffffffffffffffffffffff16815260200190815260200160002054905060008073ffffffffffffffffffffffffffffffffffffffff168373ffffffffffffffffffffffffffffffffffffffff16146108605761085987876101eb565b90506109aa565b8480156108fc5750600073ffffffffffffffffffffffffffffffffffffffff16600060180160008973ffffffffffffffffffffffffffffffffffffffff1673ffffffffffffffffffffffffffffffffffffffff16815260200190815260200160002060009054906101000a900473ffffffffffffffffffffffffffffffffffffffff1673ffffffffffffffffffffffffffffffffffffffff1614155b80156109975750600073ffffffffffffffffffffffffffffffffffffffff16600060190160008973ffffffffffffffffffffffffffffffffffffffff1673ffffffffffffffffffffffffffffffffffffffff16815260200190815260200160002060009054906101000a900473ffffffffffffffffffffffffffffffffffffffff1673ffffffffffffffffffffffffffffffffffffffff1614155b156109a9576109a68782610bb6565b90505b5b60008114156109be57809350505050610a4a565b8515610a09576109ff6127106109f16109e285612710610efe90919063ffffffff16565b84610def90919063ffffffff16565b610e7590919063ffffffff16565b9350505050610a4a565b610a44612710610a36610a2785612710610f8690919063ffffffff16565b84610def90919063ffffffff16565b610e7590919063ffffffff16565b93505050505b9392505050565b60008060008473ffffffffffffffffffffffffffffffffffffffff16630902f1ac6040518163ffffffff1660e01b815260040160606040518083038186803b158015610a9c57600080fd5b505afa158015610ab0573d6000803e3d6000fd5b505050506040513d6060811015610ac657600080fd5b81019080805190602001909291908051906020019092919080519060200190929190505050506dffffffffffffffffffffffffffff1691506dffffffffffffffffffffffffffff1691508315610b65576000821415610b2a57600092505050610bb0565b610b5c82610b4e6c0c9f2c9cd04674edea4000000084610def90919063ffffffff16565b610e7590919063ffffffff16565b92505050610bb0565b6000811415610b7957600092505050610bb0565b610bab81610b9d6c0c9f2c9cd04674edea4000000085610def90919063ffffffff16565b610e7590919063ffffffff16565b925050505b92915050565b600080600060180160008573ffffffffffffffffffffffffffffffffffffffff1673ffffffffffffffffffffffffffffffffffffffff16815260200190815260200160002060009054906101000a900473ffffffffffffffffffffffffffffffffffffffff16905060008060190160008673ffffffffffffffffffffffffffffffffffffffff1673ffffffffffffffffffffffffffffffffffffffff16815260200190815260200160002060009054906101000a900473ffffffffffffffffffffffffffffffffffffffff1690506000610c91836000610a51565b90506000610ca0836000610a51565b90508273ffffffffffffffffffffffffffffffffffffffff168473ffffffffffffffffffffffffffffffffffffffff161415610d3957610d2e600060160160008973ffffffffffffffffffffffffffffffffffffffff1673ffffffffffffffffffffffffffffffffffffffff16815260200190815260200160002054600a0a83610def90919063ffffffff16565b945050505050610de9565b6000821480610d485750600081145b15610d595785945050505050610de9565b610de26c0c9f2c9cd04674edea40000000610dd4600060160160008b73ffffffffffffffffffffffffffffffffffffffff1673ffffffffffffffffffffffffffffffffffffffff16815260200190815260200160002054600a0a610dc68587610def90919063ffffffff16565b610def90919063ffffffff16565b610e7590919063ffffffff16565b9450505050505b92915050565b600080831415610e025760009050610e6f565b6000828402905082848281610e1357fe5b0414610e6a576040517f08c379a000000000000000000000000000000000000000000000000000000000815260040180806020018281038252602181526020018061100a6021913960400191505060405180910390fd5b809150505b92915050565b6000808211610eec576040517f08c379a000000000000000000000000000000000000000000000000000000000815260040180806020018281038252601a8152602001807f536166654d6174683a206469766973696f6e206279207a65726f00000000000081525060200191505060405180910390fd5b818381610ef557fe5b04905092915050565b600080828401905083811015610f7c576040517f08c379a000000000000000000000000000000000000000000000000000000000815260040180806020018281038252601b8152602001807f536166654d6174683a206164646974696f6e206f766572666c6f77000000000081525060200191505060405180910390fd5b8091505092915050565b600082821115610ffe576040517f08c379a000000000000000000000000000000000000000000000000000000000815260040180806020018281038252601e8152602001807f536166654d6174683a207375627472616374696f6e206f766572666c6f77000081525060200191505060405180910390fd5b81830390509291505056fe536166654d6174683a206d756c7469706c69636174696f6e206f766572666c6f77a264697066735822122070dab3b0bed04ea843766ffc0f82eb13a0d9fed6d571e687e17c70ca7fd909e964736f6c63430007050033",
  "devdoc": {
    "kind": "dev",
    "methods": {},
    "version": 1
  },
  "userdoc": {
    "kind": "user",
    "methods": {},
    "version": 1
  },
  "storageLayout": {
    "storage": [
      {
        "astId": 3530,
        "contract": "contracts/facets/VaultPriceFeed/VaultPriceFeedFacet.sol:VaultPriceFeedFacet",
        "label": "s",
        "offset": 0,
        "slot": "0",
        "type": "t_struct(Storage)9786_storage"
      }
    ],
    "types": {
      "t_address": {
        "encoding": "inplace",
        "label": "address",
        "numberOfBytes": "20"
      },
      "t_array(t_bytes32)dyn_storage": {
        "base": "t_bytes32",
        "encoding": "dynamic_array",
        "label": "bytes32[]",
        "numberOfBytes": "32"
      },
      "t_bool": {
        "encoding": "inplace",
        "label": "bool",
        "numberOfBytes": "1"
      },
      "t_bytes32": {
        "encoding": "inplace",
        "label": "bytes32",
        "numberOfBytes": "32"
      },
      "t_int256": {
        "encoding": "inplace",
        "label": "int256",
        "numberOfBytes": "32"
      },
      "t_mapping(t_address,t_address)": {
        "encoding": "mapping",
        "key": "t_address",
        "label": "mapping(address => address)",
        "numberOfBytes": "32",
        "value": "t_address"
      },
      "t_mapping(t_address,t_bool)": {
        "encoding": "mapping",
        "key": "t_address",
        "label": "mapping(address => bool)",
        "numberOfBytes": "32",
        "value": "t_bool"
      },
      "t_mapping(t_address,t_int256)": {
        "encoding": "mapping",
        "key": "t_address",
        "label": "mapping(address => int256)",
        "numberOfBytes": "32",
        "value": "t_int256"
      },
      "t_mapping(t_address,t_mapping(t_address,t_int256))": {
        "encoding": "mapping",
        "key": "t_address",
        "label": "mapping(address => mapping(address => int256))",
        "numberOfBytes": "32",
        "value": "t_mapping(t_address,t_int256)"
      },
      "t_mapping(t_address,t_uint256)": {
        "encoding": "mapping",
        "key": "t_address",
        "label": "mapping(address => uint256)",
        "numberOfBytes": "32",
        "value": "t_uint256"
      },
      "t_mapping(t_bytes32,t_struct(Position)9673_storage)": {
        "encoding": "mapping",
        "key": "t_bytes32",
        "label": "mapping(bytes32 => struct LibExchangeStorage.Position)",
        "numberOfBytes": "32",
        "value": "t_struct(Position)9673_storage"
      },
      "t_mapping(t_bytes32,t_uint256)": {
        "encoding": "mapping",
        "key": "t_bytes32",
        "label": "mapping(bytes32 => uint256)",
        "numberOfBytes": "32",
        "value": "t_uint256"
      },
      "t_mapping(t_uint80,t_int256)": {
        "encoding": "mapping",
        "key": "t_uint80",
        "label": "mapping(uint80 => int256)",
        "numberOfBytes": "32",
        "value": "t_int256"
      },
      "t_struct(AddressSet)1217_storage": {
        "encoding": "inplace",
        "label": "struct EnumerableSet.AddressSet",
        "members": [
          {
            "astId": 1216,
            "contract": "contracts/facets/VaultPriceFeed/VaultPriceFeedFacet.sol:VaultPriceFeedFacet",
            "label": "_inner",
            "offset": 0,
            "slot": "0",
            "type": "t_struct(Set)952_storage"
          }
        ],
        "numberOfBytes": "64"
      },
      "t_struct(Position)9673_storage": {
        "encoding": "inplace",
        "label": "struct LibExchangeStorage.Position",
        "members": [
          {
            "astId": 9660,
            "contract": "contracts/facets/VaultPriceFeed/VaultPriceFeedFacet.sol:VaultPriceFeedFacet",
            "label": "size",
            "offset": 0,
            "slot": "0",
            "type": "t_uint256"
          },
          {
            "astId": 9662,
            "contract": "contracts/facets/VaultPriceFeed/VaultPriceFeedFacet.sol:VaultPriceFeedFacet",
            "label": "collateral",
            "offset": 0,
            "slot": "1",
            "type": "t_uint256"
          },
          {
            "astId": 9664,
            "contract": "contracts/facets/VaultPriceFeed/VaultPriceFeedFacet.sol:VaultPriceFeedFacet",
            "label": "averagePrice",
            "offset": 0,
            "slot": "2",
            "type": "t_uint256"
          },
          {
            "astId": 9666,
            "contract": "contracts/facets/VaultPriceFeed/VaultPriceFeedFacet.sol:VaultPriceFeedFacet",
            "label": "entryFundingRate",
            "offset": 0,
            "slot": "3",
            "type": "t_uint256"
          },
          {
            "astId": 9668,
            "contract": "contracts/facets/VaultPriceFeed/VaultPriceFeedFacet.sol:VaultPriceFeedFacet",
            "label": "reserveAmount",
            "offset": 0,
            "slot": "4",
            "type": "t_uint256"
          },
          {
            "astId": 9670,
            "contract": "contracts/facets/VaultPriceFeed/VaultPriceFeedFacet.sol:VaultPriceFeedFacet",
            "label": "realisedPnl",
            "offset": 0,
            "slot": "5",
            "type": "t_int256"
          },
          {
            "astId": 9672,
            "contract": "contracts/facets/VaultPriceFeed/VaultPriceFeedFacet.sol:VaultPriceFeedFacet",
            "label": "lastIncreasedTime",
            "offset": 0,
            "slot": "6",
            "type": "t_uint256"
          }
        ],
        "numberOfBytes": "224"
      },
      "t_struct(Set)952_storage": {
        "encoding": "inplace",
        "label": "struct EnumerableSet.Set",
        "members": [
          {
            "astId": 947,
            "contract": "contracts/facets/VaultPriceFeed/VaultPriceFeedFacet.sol:VaultPriceFeedFacet",
            "label": "_values",
            "offset": 0,
            "slot": "0",
            "type": "t_array(t_bytes32)dyn_storage"
          },
          {
            "astId": 951,
            "contract": "contracts/facets/VaultPriceFeed/VaultPriceFeedFacet.sol:VaultPriceFeedFacet",
            "label": "_indexes",
            "offset": 0,
            "slot": "1",
            "type": "t_mapping(t_bytes32,t_uint256)"
          }
        ],
        "numberOfBytes": "64"
      },
      "t_struct(Storage)9786_storage": {
        "encoding": "inplace",
        "label": "struct LibExchangeStorage.Storage",
        "members": [
          {
            "astId": 9675,
            "contract": "contracts/facets/VaultPriceFeed/VaultPriceFeedFacet.sol:VaultPriceFeedFacet",
            "label": "contractEntered",
            "offset": 0,
            "slot": "0",
            "type": "t_bool"
          },
          {
            "astId": 9677,
            "contract": "contracts/facets/VaultPriceFeed/VaultPriceFeedFacet.sol:VaultPriceFeedFacet",
            "label": "btc",
            "offset": 1,
            "slot": "0",
            "type": "t_address"
          },
          {
            "astId": 9679,
            "contract": "contracts/facets/VaultPriceFeed/VaultPriceFeedFacet.sol:VaultPriceFeedFacet",
            "label": "weth",
            "offset": 0,
            "slot": "1",
            "type": "t_address"
          },
          {
            "astId": 9681,
            "contract": "contracts/facets/VaultPriceFeed/VaultPriceFeedFacet.sol:VaultPriceFeedFacet",
            "label": "nusd",
            "offset": 0,
            "slot": "2",
            "type": "t_address"
          },
          {
            "astId": 9683,
            "contract": "contracts/facets/VaultPriceFeed/VaultPriceFeedFacet.sol:VaultPriceFeedFacet",
            "label": "includeAmmPrice",
            "offset": 20,
            "slot": "2",
            "type": "t_bool"
          },
          {
            "astId": 9685,
            "contract": "contracts/facets/VaultPriceFeed/VaultPriceFeedFacet.sol:VaultPriceFeedFacet",
            "label": "isInitialized",
            "offset": 21,
            "slot": "2",
            "type": "t_bool"
          },
          {
            "astId": 9687,
            "contract": "contracts/facets/VaultPriceFeed/VaultPriceFeedFacet.sol:VaultPriceFeedFacet",
            "label": "tokens",
            "offset": 0,
            "slot": "3",
            "type": "t_struct(AddressSet)1217_storage"
          },
          {
            "astId": 9691,
            "contract": "contracts/facets/VaultPriceFeed/VaultPriceFeedFacet.sol:VaultPriceFeedFacet",
            "label": "whitelistedTokens",
            "offset": 0,
            "slot": "5",
            "type": "t_mapping(t_address,t_bool)"
          },
          {
            "astId": 9695,
            "contract": "contracts/facets/VaultPriceFeed/VaultPriceFeedFacet.sol:VaultPriceFeedFacet",
            "label": "positions",
            "offset": 0,
            "slot": "6",
            "type": "t_mapping(t_bytes32,t_struct(Position)9673_storage)"
          },
          {
            "astId": 9699,
            "contract": "contracts/facets/VaultPriceFeed/VaultPriceFeedFacet.sol:VaultPriceFeedFacet",
            "label": "tokenDecimals",
            "offset": 0,
            "slot": "7",
            "type": "t_mapping(t_address,t_uint256)"
          },
          {
            "astId": 9703,
            "contract": "contracts/facets/VaultPriceFeed/VaultPriceFeedFacet.sol:VaultPriceFeedFacet",
            "label": "redemptionBasisPoints",
            "offset": 0,
            "slot": "8",
            "type": "t_mapping(t_address,t_uint256)"
          },
          {
            "astId": 9707,
            "contract": "contracts/facets/VaultPriceFeed/VaultPriceFeedFacet.sol:VaultPriceFeedFacet",
            "label": "minProfitBasisPoints",
            "offset": 0,
            "slot": "9",
            "type": "t_mapping(t_address,t_uint256)"
          },
          {
            "astId": 9711,
            "contract": "contracts/facets/VaultPriceFeed/VaultPriceFeedFacet.sol:VaultPriceFeedFacet",
            "label": "tokenBalances",
            "offset": 0,
            "slot": "10",
            "type": "t_mapping(t_address,t_uint256)"
          },
          {
            "astId": 9715,
            "contract": "contracts/facets/VaultPriceFeed/VaultPriceFeedFacet.sol:VaultPriceFeedFacet",
            "label": "nusdAmounts",
            "offset": 0,
            "slot": "11",
            "type": "t_mapping(t_address,t_uint256)"
          },
          {
            "astId": 9719,
            "contract": "contracts/facets/VaultPriceFeed/VaultPriceFeedFacet.sol:VaultPriceFeedFacet",
            "label": "poolAmounts",
            "offset": 0,
            "slot": "12",
            "type": "t_mapping(t_address,t_uint256)"
          },
          {
            "astId": 9723,
            "contract": "contracts/facets/VaultPriceFeed/VaultPriceFeedFacet.sol:VaultPriceFeedFacet",
            "label": "reservedAmounts",
            "offset": 0,
            "slot": "13",
            "type": "t_mapping(t_address,t_uint256)"
          },
          {
            "astId": 9727,
            "contract": "contracts/facets/VaultPriceFeed/VaultPriceFeedFacet.sol:VaultPriceFeedFacet",
            "label": "guaranteedUsd",
            "offset": 0,
            "slot": "14",
            "type": "t_mapping(t_address,t_uint256)"
          },
          {
            "astId": 9731,
            "contract": "contracts/facets/VaultPriceFeed/VaultPriceFeedFacet.sol:VaultPriceFeedFacet",
            "label": "cumulativeFundingRates",
            "offset": 0,
            "slot": "15",
            "type": "t_mapping(t_address,t_uint256)"
          },
          {
            "astId": 9735,
            "contract": "contracts/facets/VaultPriceFeed/VaultPriceFeedFacet.sol:VaultPriceFeedFacet",
            "label": "lastFundingTimes",
            "offset": 0,
            "slot": "16",
            "type": "t_mapping(t_address,t_uint256)"
          },
          {
            "astId": 9739,
            "contract": "contracts/facets/VaultPriceFeed/VaultPriceFeedFacet.sol:VaultPriceFeedFacet",
            "label": "feeReserves",
            "offset": 0,
            "slot": "17",
            "type": "t_mapping(t_address,t_uint256)"
          },
          {
            "astId": 9743,
            "contract": "contracts/facets/VaultPriceFeed/VaultPriceFeedFacet.sol:VaultPriceFeedFacet",
            "label": "tokenWeights",
            "offset": 0,
            "slot": "18",
            "type": "t_mapping(t_address,t_uint256)"
          },
          {
            "astId": 9745,
            "contract": "contracts/facets/VaultPriceFeed/VaultPriceFeedFacet.sol:VaultPriceFeedFacet",
            "label": "totalTokenWeight",
            "offset": 0,
            "slot": "19",
            "type": "t_uint256"
          },
          {
            "astId": 9749,
            "contract": "contracts/facets/VaultPriceFeed/VaultPriceFeedFacet.sol:VaultPriceFeedFacet",
            "label": "plugins",
            "offset": 0,
            "slot": "20",
            "type": "t_mapping(t_address,t_bool)"
          },
          {
            "astId": 9753,
            "contract": "contracts/facets/VaultPriceFeed/VaultPriceFeedFacet.sol:VaultPriceFeedFacet",
            "label": "priceFeeds",
            "offset": 0,
            "slot": "21",
            "type": "t_mapping(t_address,t_address)"
          },
          {
            "astId": 9757,
            "contract": "contracts/facets/VaultPriceFeed/VaultPriceFeedFacet.sol:VaultPriceFeedFacet",
            "label": "priceDecimals",
            "offset": 0,
            "slot": "22",
            "type": "t_mapping(t_address,t_uint256)"
          },
          {
            "astId": 9761,
            "contract": "contracts/facets/VaultPriceFeed/VaultPriceFeedFacet.sol:VaultPriceFeedFacet",
            "label": "priceSpreadBasisPoints",
            "offset": 0,
            "slot": "23",
            "type": "t_mapping(t_address,t_uint256)"
          },
          {
            "astId": 9765,
            "contract": "contracts/facets/VaultPriceFeed/VaultPriceFeedFacet.sol:VaultPriceFeedFacet",
            "label": "baseTokenPairs",
            "offset": 0,
            "slot": "24",
            "type": "t_mapping(t_address,t_address)"
          },
          {
            "astId": 9769,
            "contract": "contracts/facets/VaultPriceFeed/VaultPriceFeedFacet.sol:VaultPriceFeedFacet",
            "label": "tokenPairs",
            "offset": 0,
            "slot": "25",
            "type": "t_mapping(t_address,t_address)"
          },
          {
            "astId": 9771,
            "contract": "contracts/facets/VaultPriceFeed/VaultPriceFeedFacet.sol:VaultPriceFeedFacet",
            "label": "answer",
            "offset": 0,
            "slot": "26",
            "type": "t_int256"
          },
          {
            "astId": 9773,
            "contract": "contracts/facets/VaultPriceFeed/VaultPriceFeedFacet.sol:VaultPriceFeedFacet",
            "label": "roundId",
            "offset": 0,
            "slot": "27",
            "type": "t_uint80"
          },
          {
            "astId": 9777,
            "contract": "contracts/facets/VaultPriceFeed/VaultPriceFeedFacet.sol:VaultPriceFeedFacet",
            "label": "answers",
            "offset": 0,
            "slot": "28",
            "type": "t_mapping(t_uint80,t_int256)"
          },
          {
            "astId": 9779,
            "contract": "contracts/facets/VaultPriceFeed/VaultPriceFeedFacet.sol:VaultPriceFeedFacet",
            "label": "totalNUSDMinted",
            "offset": 0,
            "slot": "29",
            "type": "t_uint256"
          },
          {
            "astId": 9785,
            "contract": "contracts/facets/VaultPriceFeed/VaultPriceFeedFacet.sol:VaultPriceFeedFacet",
            "label": "nusdMinted",
            "offset": 0,
            "slot": "30",
            "type": "t_mapping(t_address,t_mapping(t_address,t_int256))"
          }
        ],
        "numberOfBytes": "992"
      },
      "t_uint256": {
        "encoding": "inplace",
        "label": "uint256",
        "numberOfBytes": "32"
      },
      "t_uint80": {
        "encoding": "inplace",
        "label": "uint80",
        "numberOfBytes": "10"
      }
    }
  }
}